:020000040100F9
:1020000000008400812200018922000129818000D2
:10201000973F0001953F0001614000010000000072
:102020000000000000000000000000003D81800072
:102030009322000100000000952200019922000176
:1020400000F002F800F0C4F80AA090E8000C824406
:102050008344AAF10107DA4501D100F0B9F8AFF2E3
:10206000090EBAE80F0013F0010F18BFFB1A43F076
:1020700001031847CC6C01001C6D01000A444FF0AD
:10208000000C10F8013B13F0070408BF10F8014BD7
:102090001D1108BF10F8015B641E05D010F8016B1C
:1020A000641E01F8016BF9D113F0080F1EBF10F880
:1020B000014BAD1C0C1B09D16D1E58BF01F801CBA3
:1020C000FAD505E014F8016B01F8016B6D1EF9D526
:1020D0009142D6D370470000103A24BF78C878C127
:1020E000FAD8520724BF30C830C144BF04680C601E
:1020F000704700000023002400250026103A28BF66
:1021000078C1FBD8520728BF30C148BF0B60704769
:102110006E2900F0EA84702900F0EF81662914F03E
:10212000B983652914F0B683672914F0B383612954
:1021300014F0B28303681B0A28BF41F080016929AB
:1021400000F06081642900F05D81752900F05A81FA
:102150006F2900F0D885782900F0BB81E92900F0CB
:102160007385E42900F07085F52900F06D85EF296D
:1021700000F0D585F82900F0BA810368DB0928BF93
:1021800041F08001632900F0F484732900F0F984A0
:10219000E32901F0AB81F32901F0B0810020704701
:1021A0001FB514F043FB00F08CFA01F0D3F90400E2
:1021B0000020002113F050FD401C60600020002131
:1021C00013F034FDE06000F013FC1FBD10B510BD2E
:1021D000DFF80CD0FFF7E4FF0DF034FE01F070FAE9
:1021E0000000840003B4FFF7F1FF03BC01F0EFFF30
:1021F00002F0FF0343EA032242EA024200F045BB39
:1022000058585247010000001555000000200001F9
:10221000002000016EED52490101000000000000A5
:1022200000000000000000000000000000000000AE
:10223000000000000000000000000000000000009E
:1022400043F6C51CC3F2000C604700000B49D1F8EF
:1022500000C04A685CF8043B1068184442F8040B5C
:102260008C4528BFA1F1DC0C8A4228BFA1F1DC0219
:10227000C1F800C04A6020F000407047741D810022
:102280000648804706480047FEE7FEE7FEE7FEE710
:10229000FEE7FEE7FEE7FEE7FEE700003140000153
:1022A00065FE0001B2F120030AD5C2F1200301FA54
:1022B00002F120FA03F300FA02F041EA0301704749
:1022C00000FA03F14FF00000704700007CB51D4696
:1022D00016460C00009001D02044401E074B7B4462
:1022E0002A4669460190304600F019FC05461CB1AB
:1022F0000020694600F026FC28467CBD6D080000E1
:102300000FB41CB5084B06AA7B446946009005989B
:1023100000F005FC04460020694600F013FC20464E
:102320001CBC5DF814FB0000390800000FB47CB53C
:102330000C0009AA009001D02044401E084B7B44A9
:1023400069460190089800F0EAFB05461CB10020A0
:10235000694600F0F7FB28467CBC5DF814FB0000E2
:102360000D08000070B5044685690068C10601D5F6
:10237000302600E02026C00707D070BDD4E9012137
:1023800030469047206A401C20626D1EF6D570BD15
:1023900070B5044685690078C00707D170BDD4E9DF
:1023A000012120209047206A401C20626D1EF6D536
:1023B00070BD70B50C460546012A05D02878800608
:1023C00000D5EA69002302E0012305E05B1C93428B
:1023D00002D2E05C0028F9D1A869E618C01AA86109
:1023E000286A184428622846FFF7BCFF04E0D5E9B4
:1023F000012114F8010B9047B442F8D32846FFF7A7
:10240000C7FF70BD2DE9F04106460024106875290C
:10241000314616A510D000F0FDFA002802DA40423D
:1024200013A507E031688A0701D512A502E0490724
:1024300004D511A5012401E000F0F5FA00210A22DB
:1024400006F1240709E0B0FBF2FCB0FBF2F302FB5B
:102450001C00303078541846491C0028F3D123461C
:102460002A463046BDE8F04100F0E6BA0000000020
:102470002D0000002B00000020000000F0B40D46ED
:102480000188090502D5214C7C4402E01F4C7C44A4
:102490000E34002100F1240608E002F00F071209B3
:1024A000E75D42EA03721B097754491C52EA0307AD
:1024B000F3D102780023120704D5702D06D009B19C
:1024C000022311342246F0BC00F0B6BA01231034C6
:1024D000F8E770B504460D462146106800F0A3FAEF
:1024E000024629462046BDE870400023C6E7D21DBB
:1024F00022F00703D3E90023C0E70368126843F022
:10250000200303600823C3610023B7E7605901007B
:102510002DE9F05F894604464FF0000ADFF874B1F8
:10252000FB44C0F820A02046E1688847002874D00A
:10253000252806D0D4E901219047206A401C20625A
:10254000F1E700265F462046E168884720280546D7
:1025500007DB312D05D2781910F8200C08B106439D
:10256000F1E7B00701D526F00406C4F81CA0002747
:10257000C4F818A02A2D09D0284601F021FE38B34E
:1025800004EB8708303DC8F8185019E059F8041BCF
:10259000204604EB87029161E1688847012F0546D8
:1025A00018D1E069002820DA26F020061DE0D8F8CE
:1025B000180000EB800005EB40003038C8F8180028
:1025C0002046E1688847054601F0FAFD0028EED173
:1025D000012F0AD02E2D08D12046E16888477F1CA4
:1025E0000546022F46F02006C4DBA069002803DA66
:1025F000404246F00106A061F00701D026F0100627
:102600006C2D0BD0682D09D04C2D39D06A2D35D0CA
:10261000742D35D07A2D33D016E038E0E1682F469E
:1026200020468847B842054609D16C2F26D04FF482
:102630008060E168064320468847054604E06C2F29
:102640001AD04FF4807006430DB3A5F1410019284C
:1026500002D8203546F400664A46294620462660C0
:102660004E46FFF755FD80B101280BD0F61D26F030
:10267000070000F1080956E74020E4E78020D8E78A
:102680000020D6E706F104094DE7284652E7206A04
:10269000BDE8F09FF05801000B4910B5A1F17C0294
:1026A0000A4CC2E93712372106E000EB104342F82A
:1026B0002130074B00FB03400B1EA1F10101F4DCAC
:1026C00010BD0120E8E70000141D8100E119D66665
:1026D000CD0D010040EA010310B59B070FD1042A7C
:1026E0000DD310C808C9121F9C42F8D020BA19BADD
:1026F000884201D9012010BD4FF0FF3010BD1AB142
:10270000D30703D0521C07E0002010BD10F8013B96
:1027100011F8014B1B1B07D110F8013B11F8014BBD
:102720001B1B01D1921EF1D1184610BD10B5431CE0
:1027300002E010F8011B71B18107FAD14FF00132AC
:1027400002C88C1A8C4314EAC211F9D0C01A0A06C6
:1027500003D0C01E10BDC01A10BD0A0401D0801ED7
:1027600010BD0902FCD0401E10BD421E12F8013FF0
:10277000002BFBD111F8013B002B02F8013BF9D1F2
:102780007047032A40F2308010F0030C00F01580EF
:1027900011F8013BBCF1020F624498BF11F801CB64
:1027A00000F8013B38BF11F8013BA2F1040298BFC9
:1027B00000F801CB38BF00F8013B11F0030300F033
:1027C0002580083AC0F0088051F8043B083A51F8D7
:1027D00004CBA0E80810F5E7121D5CBF51F8043BDC
:1027E00040F8043BAFF30080D20724BF11F8013B4F
:1027F00011F801CB48BF11F8012B24BF00F8013BB1
:1028000000F801CB48BF00F8012B704710B5203A03
:10281000C0F00B80B1E81850203AA0E81850B1E899
:102820001850A0E81850BFF4F5AF5FEA027C24BF4F
:10283000B1E81850A0E8185044BF18C918C0BDE846
:1028400010405FEA827C24BF51F8043B40F8043B0F
:1028500008BF7047D20728BF31F8023B48BF11F8C4
:10286000012B28BF20F8023B48BF00F8012B70471E
:1028700001F0FF03114601B543EA032242EA024296
:1028800000F003F801BD4FF000020429C0F01280EF
:1028900010F0030C00F01B80CCF1040CBCF1020F13
:1028A00018BF00F8012BA8BF20F8022BA1EB0C01E8
:1028B00000F00DB85FEAC17C24BF00F8012B00F8DE
:1028C000012B48BF00F8012B70474FF0000200B504
:1028D000134694469646203922BFA0E80C50A0E843
:1028E0000C50B1F12001BFF4F7AF090728BFA0E8F1
:1028F0000C5048BF0CC05DF804EB890028BF40F8BD
:10290000042B08BF704748BF20F8022B11F0804FFE
:1029100018BF00F8012B704710B5044610F0030FE4
:1029200008BF11F0030F40F015804FF0013E121F59
:10293000C0F20E8051F8043BA3EB0E0C2CEA030C02
:102940001CEACE1C08BF40F8043BF0D0A1F1040102
:1029500002F10402521E08DB11F8013B002B00F8C3
:10296000013BF7D11146FFF78EFF204610BD000056
:102970004FF0013C50F8042B51F8043B9A4221D10E
:10298000A2EB0C03934313EACC1317D150F8042B9A
:1029900051F8043B9A4215D1A2EB0C03934313EA7E
:1029A000CC130BD150F8042B51F8043B9A4209D1B7
:1029B000A2EB0C03934313EACC13DBD04FF00000DF
:1029C000704700BFD01A01BAB1FA81F101F01801C5
:1029D00022FA01F0CB40C1F12001DBB2C0B2C01A33
:1029E0002CFA01F3D11A914311EAC311E6D17047D1
:1029F00070B5064C7C44064D7D4403E020682044BD
:102A00008047241DAC42F9D170BD0000C4640100B0
:102A1000C464010009684A0501D540B27047C90580
:102A2000FCD500B2704709684A0501D5C0B27047AD
:102A3000C905FCD580B270472DE9F0470D4699468F
:102A40009246044600F124080168880604D5E0692E
:102A500021F01001216000E00120A84201DD471BA8
:102A600000E00027A1697A1902EB0900081AA061A9
:102A70002078C00602D42046FFF774FC002608E048
:102A8000D4E901211AF806009047206A401C761C00
:102A900020624E45F4DB2078C0060AD52046FFF7B9
:102AA00061FC06E0D4E9012130209047206A401CF7
:102AB0002062381EA7F10107F4DC07E0D4E9012108
:102AC00018F805009047206A401C2062281EA5F1D6
:102AD0000105F3DC2046FFF75BFC2078000602D5F9
:102AE0000220BDE8F0870120FBE711680268006A58
:102AF000530501D508700AE0D30501D5088006E02A
:102B0000130603D5C217C1E9000200E008600120E6
:102B10007047000001694A1C02610878704700B5DF
:102B20008FB0CDE901310021059105497944CDE906
:102B3000031011466846FFF7EBFC0FB000BD000024
:102B4000E5FFFFFF0A6802F8010B0A607047D1E950
:102B500000239A4202D2531C0B601070704710B5CC
:102B6000436913B1AFF3008001E0FFF722FC0120BD
:102B700010BD127800F124010A7000224A7001226F
:102B8000EDE711684FF0FF32E9E700002DE9FF5F44
:102B900015468A460446DFF8AC80F8440027D8E999
:102BA00000103E46CDE9001010E03AF816106A46D3
:102BB00002A800F0A7FC411C07D02178890603D5A4
:102BC000E269391891420DD80744761C20788006B6
:102BD00002D5E069B84205DDAE42E6DB3AF8160000
:102BE0000028E2D1A069C01BA0612046FFF7BAFB14
:102BF000D8E90010CDE90010002017E03AF81810CD
:102C00006A4602A800F07EFCB0F1FF3F81460BD07F
:102C100000250DF1080B05E0D4E901211BF80500A2
:102C200090476D1C4D45F7D308F10100B042804636
:102C3000E4DB206A384420622046FFF7A9FBBDE8A8
:102C4000FF9F00008A5201002DE9F0418046D21D0D
:102C500022F007020025D2E90002F52915A614D0BA
:102C6000011E72F1000106DA0023D0EB030063EBD2
:102C7000020211A608E0D8F800108B0701D50FA6B4
:102C800002E0490701D50EA601251146002408F1EE
:102C9000240704E000F04EF830323A55641C50EA44
:102CA0000102F7D12B46324621464046BDE8F041AD
:102CB000FFF7C2BE000000002D0000002B00000046
:102CC0002000000030B4002100F1240408E002F0EC
:102CD0000705D208303542EA4372DB086554491CC7
:102CE00052EA0305F3D10468002310A2250707D593
:102CF000A40600D421B1C46901230DA2641EC461DD
:102D000030BCFFF799BE10B5044621461068FFF7A6
:102D10008AFE02462046BDE810400023D2E7D21DBD
:102D200022F00701D1E90023CCE7000000000000F9
:102D30003000000030B5B0F10A024FEA900E71F198
:102D400000034EEA817EB0EB0E0061EB91014FEA89
:102D5000101E4EEA017E10EB0E0041EB11114FEAFE
:102D6000102E4EEA016E10EB0E0041EB11214FEADE
:102D7000104E4EEA014E10EB0E0041EB114140188F
:102D800041F100014FEAD00040EA41704FEAD10121
:102D900010EB80054FEA810444EA907444EB01048F
:102DA0006D1944EB0404521BA3414FF0000348BFCC
:102DB0000A3200D530BD401C41F1000130BD7047E2
:102DC0002DE9FF4F0C461E464FF0FF378BB0D2E97E
:102DD0000001DDF860800A908A46C1F30A5505B902
:102DE0003D46002108464FF00000BAF1000F00F404
:102DF000400005DA00EB80004FF4400101EA50008A
:102E00004FEA9059B9F1010F00DDB9460A9850EA2E
:102E10004A000ED044F61050A5F2FF3545432F145A
:102E2000B8F1000F1ED07542291E1EDDC9F1000247
:102E30001CE0B8F1010F4FF0000001D0302103E099
:102E4000F24305E02154401CB042FBDB3046002237
:102E5000002121540B99C1F80880C1E900200FB06E
:102E6000BDE8F08FBD1B6D1CDEE74A4600DA694203
:102E700006A800F0B3FB06AB93E8070003AB83E8BA
:102E8000070050460A9900F024FC8DE80700A0F5E1
:102E900000501F3800900398002D0ADD42F21F01F8
:102EA0004A460844002303A90390684600F08DFEBB
:102EB00009E0A0F500504A461F38002303A90390FB
:102EC000684600F097FE8DE807000004000C03D070
:102ED0004FF0FF30410800E01046B8F1000F03D07A
:102EE0000022009215461EE0751E05D4FFF722FF52
:102EF000303262556D1EF9D5B3460122084302D027
:102F000000227F1C04E02078302801D100227F1E9F
:102F1000002A099784D01DE0112D07DAFFF70AFF78
:102F2000303262556D1C50EA0102F5D1084302D0DF
:102F30000098C8B10EE00021681E05E0235C625CC9
:102F400063542254401E491C8142F7DBAB46A81B48
:102F5000401E0990002004F80B000B98099AC0F855
:102F60000880C0E9002B7AE711264FF0000857E7E8
:102F70002DE9F04F88460446D21D22F0070191B09A
:102F8000D1E90001CDE90A0101F06BF802460B9886
:102F9000C00F01D02D2007E02068810701D52B202C
:102FA00002E0202101EAC000032A099001D0072A8B
:102FB00005DB03464146204600F0D0FA0BE12078BD
:102FC000800601D5E06900E00620B8F1650F814672
:102FD00006D0B8F1660F18D0B8F1670F70D131E0A4
:102FE0000020B9F1110F009001DB112301E009F17C
:102FF00001030AAA01A90CA8FFF7E2FEDDE90C70A3
:10300000002609F10105834647E001204B46009068
:103010004FF000470AAA01A90CA8FFF7D1FEDDE98D
:103020000DB00C995D46002610B909F101000D188C
:10303000B9EB050003D4C0F1FF3609F10105A5EB9A
:1030400009002BE0B9F1010F01DA4FF0010900206E
:10305000B9F1110F0090484601DD112300E003464D
:103060000AAA01A90CA8FFF7ABFEDDE90C704D46DA
:1030700000268346207800070AD4AB4500DA5D4677
:1030800001A8012D04DD411911F8011C302907D0D8
:103090004F4502DA17F1040F04DA012082460FE0EF
:1030A0006D1EEEE7002F02DCED1B3E4403E0781CB2
:1030B000A84200DD7D1CB81B00F1010A4FF000475B
:1030C0002078000703D4AA4501DB4FF0FF3A002126
:1030D000B7F1004F0DF143088DF8431024D00220C2
:1030E0002B23002F01DA7F422D230A21021EA0F19B
:1030F000010000DC5FB197FBF1FC97FBF1F201FBF3
:103100001C7C17460CF1300C08F801CDEEE7A8F155
:10311000010003702188090501D5452100E06521E2
:10312000A0F1010800F8011C09980FA9A1EB0807FC
:10313000FF1D00B10120411901EBEA70A16938447B
:10314000081A401EA0612078C00602D42046FFF76E
:1031500009F9099828B1D4E901219047206A401C57
:1031600020622078C00622D52046FFF7FBF81EE03B
:10317000002E04DBB34502DD01A8805D00E03020B5
:10318000D4E901219047206A401C2062761CAAF1F4
:1031900001005FEA000A0AD100F0DCF9C0680168AA
:1031A000405CD4E901219047206A401C2062281E1F
:1031B000A5F10105DCDC07E0D4E9012118F8010BD9
:1031C0009047206A401C2062381EA7F10107F3DCFB
:1031D0002046FFF7DDF8032011B041E62DE9F04F5E
:1031E00004460D46D21D22F0070089B0D0E90097B1
:1031F0004846394600F035FF0246F80F01D02D232E
:1032000007E02068810701D52B2302E0202101EA95
:10321000C0038DF820300BB1012000E00020032A0C
:10322000824601D0072A04DB2946204600F096F9A1
:103230003FE12078800601D40D2500E0E569C7F361
:103240000A560D2D49DA00214FEA175B08464FF068
:103250000000002F00F4400007DA00EB80004FF47C
:10326000400100EBD07001EA60008115012901DD09
:103270004FF0FF3100224FEA850CBCF1180F06D346
:103280001346ACF118004FF08052C24003E04FF4F7
:10329000801323FA0CF30CF10C0CBCF1200F04D3B7
:1032A000ACF1200C09FA0CF001E007FA0CF000294F
:1032B0004FF0004801DD18B90FE00ED140450CD3A6
:1032C00019EB02095F4121B9404502D19F4329EA28
:1032D0000209BBEB175F00D0761C2088000502D5E1
:1032E0007B48784402E07A487844193808AA3023A9
:1032F00002F80A30037C0AF10101002E0AF1020AE9
:1033000053546A4602DC4FF0300101E04FF03101C6
:103310004FF001088DF8001002D0A6F2FF3603E04E
:1033200059EA470100D06B4E002D02DC21780907D5
:1033300004D54FF002082E218DF80110C44600215B
:103340000BE0C7F303433F01C35C491C6D1E02F849
:103350000830052908F1010801DA002DF1DC00210F
:103360000CE000EB1973491C1B786D1E082902F84C
:1033700008304FEA091908F1010801DA002DF0DCE4
:1033800021688B0602D516E0A8F10108E04505DDAD
:1033900002EB080313F8013C302BF5D0B8F1000F15
:1033A00009DD02EB080313F8013C2E2B03D10907BA
:1033B00001D4A8F10108002D05DD3E2102F8081016
:1033C0006D1E08F10108407C002E02F8080008F18B
:1033D000010804DA2D20764202F8080002E02B20D2
:1033E00002F808000A214FF47A70864208F10108B9
:1033F0000BDB96FBF0F3303302F8083096FBF0F36A
:1034000008F1010800FB136601E0642E0CDB642068
:1034100096FBF0F3303302F8083096FBF0F308F136
:10342000010800FB136601E00A2E06DB96FBF1F0B3
:10343000303002F8080008F1010896FBF1F001FBBA
:103440001060303002F80800A16908F1010808EBAB
:10345000050202EB0A00081AA0612078C00602D417
:103460002046FEF77FFF216A08AE01EB0A002062CA
:1034700004E0D4E9012116F8010B9047BAF1010AE2
:10348000F7D22078C00602D52046FEF76BFF6E46C5
:1034900009E016F8010B3E280FD0D4E9012190472E
:1034A000206A401C2062B8F10108F2D22046FEF7E3
:1034B0006FFF09B00320BDE8F08F206A2844206226
:1034C00003E0D4E90121302090476D1EEBD3F8E7EB
:1034D0005D4B010002FCFFFF10B5436913B1AFF370
:1034E000008001E0FFF752FB012010BD128800F1BF
:1034F000240182840022C2840122EDE711684FF08A
:10350000FF32E9E770B516460C46054600F01AF89A
:10351000036893F80101012806D0FF2C0FD8185D2D
:1035200068B101202C7070BDD3F8070132462146E6
:1035300003F2071303442846BDE8704018474FF0D4
:10354000FF3070BD10B500F005F8001D10BD00BFC4
:1035500009270100004870479C1D81002DE9F041BA
:103560001F46044603260168072A01F4006004DBB5
:1035700008B116A505E016A503E008B115A500E001
:1035800015A521F010002060A069C01EA0610FB138
:10359000401EA0612046FEF7E5FE4FB1D4E90121AF
:1035A00038469047206A401C2062C01C206206E01A
:1035B000206AFAE7D4E9012115F8010B9047761E3D
:1035C000F8D22046FEF7E4FEBDE8F0814E414E0001
:1035D0006E616E00494E4600696E66002DE9F04747
:1035E000814616468AB0354878440DC88DE80D00EE
:1035F00032487844801C03AC0DC884E80D0041F6C5
:103600009B300844372190FBF1F290FBF1F5A5F1D6
:10361000800501FB12041B3C02D56442012000E03E
:103620000020DFF898A080460027FA44AAF1BE0ADD
:103630000EE0E0070AD03246684607EB4701012357
:103640000AEB810100F0D6FA8DE8070064107F1CB8
:10365000002CEED1194F7F44AE3F19E0E80715D09A
:1036600007EB04100DF1180A90E80E008AE80E002E
:10367000C068F04201D1981908903246012306A98A
:1036800003A800F0B7FA03AB83E807006D10641CD1
:10369000002DE3D14FF0010332466946B8F1000F27
:1036A00003A802D000F091FA01E000F0A3FAC9E902
:1036B0000001C9F808200AB0BDE8F087E848010019
:1036C00010B50446AFF300802046BDE81040FEF779
:1036D00089BD5FEA400C08BF91F0000F4FEA8C23D0
:1036E0004FEAC12243EA51514FEA1C5018BF00F57E
:1036F000F0404FEA300018BF41F000415FEA6C5CD7
:1037000000F02980BCF1FF3F08BF40F080407047C7
:10371000130C06BF12044FF0100C4FF0000C130EE8
:1037200004BF12020CF1080C130F04BF12010CF1BC
:10373000040C930F04BF92000CF1020CD30F04BFD2
:1037400052000CF1010C11464FF00002A0F11F00D5
:10375000A0EB0C00704711F0004F08BF704731F02C
:1037600000413FF4D5AF0B0C06BF09044FF0100C1D
:103770004FF0000C0B0E04BF09020CF1080C0B0FEC
:1037800004BF09010CF1040C8B0F04BF89000CF17C
:10379000020CCB0F04BF49000CF1010CCCF120034B
:1037A000A0EB0C0022FA03F302FA0CF241EA030147
:1037B00000F10100704720F07F4C80EA030023F005
:1037C0007F47ACEB070303F57C5300F0004003F1A7
:1037D000FF032DE980494FEA154B09B44FEA144322
:1037E00025EA0B4E24EA03480FF2042606EB1327C2
:1037F00049083E785FEA320203FB0667C7F5000717
:1038000007FB06F64FEA54374FEAD64606F10206A2
:1038100007FB066CCCF1005C4FEA1C472CEA074C16
:1038200007FB06F40CFB06F504EB15464FEA96166B
:1038300034BF00204FF000404FEAD13706FB07FCB1
:103840004FEA1C4C0CFB0BF7D21B03FB0CF761EB94
:1038500007010CFB0EF7B0EB074072EB17420CFBB5
:1038600008F734BFA2EB0742B2EB074261EB174106
:103870004FEA0C444FEA910706FB07FC4FEA1C4C49
:103880000CFB0BF7B0EBC74072EB573203FB0CF7A6
:1038900034BFA2EBC742B2EBC74261EB57310CFB1E
:1038A0000EF7B0EBC70072EB57720CFB08F734BF92
:1038B000A2EBC702B2EBC70261EB5771039F4FEA5D
:1038C000816141EA921104EBCC044FEAD1374FEA0F
:1038D000826206FB07FC42EA90124FEA80604FEAE0
:1038E0001C4C0CFB0BF7D21B03FB0CF761EB070125
:1038F0000CFB0EF7B0EB074072EB17420CFB08F71E
:1039000034BFA2EB0742B2EB074261EB17414FEA2B
:103910008C554FEA910704EB9C2406FB07FC4FEA09
:103920001C4C0CFB0BF7B0EBC74072EB573203FBA0
:103930000CF734BFA2EBC742B2EBC74261EB573181
:103940000CFB0EF7B0EBC70072EB57720CFB08F7DD
:1039500034BFA2EBC702B2EBC70261EB577115EBA4
:103960004C254FEA816141EA92114FEA82624FEAA7
:10397000D13742EA901206FB07FC44F100044FEAFB
:1039800080604FEA1C4C0CFB0BF7D21B03FB0CF7BF
:1039900061EB07010CFB0EF7B0EB074072EB17422F
:1039A0000CFB08F734BFA2EB0742B2EB074261EB16
:1039B000174115EB1C154FEA813141EA92414FEA5C
:1039C000823242EA90424FEA80304FEA0C7644F16C
:1039D000000448EA03434EEA0B484FF0000EB2EBF6
:1039E000080C71EB030724BF624639464EEB0E0EFE
:1039F0004FF0000B0018524149414BEB0B0BB2EB5F
:103A0000080C71EB03077BF1000B24BF62463946BB
:103A10004EEB0E0E4FF0000B0018524149414BEB9C
:103A20000B0BB2EB080C71EB03077BF1000B24BF0F
:103A3000624639464EEB0E0E51EA020718BF46F0B9
:103A4000010616EB0E7655F1000254F1000103D584
:103A5000BDE88901BDE80088BDE88901BDE80048EE
:103A6000B619524141EB0101A3F101037047808077
:103A70007F7E7D7C7B7A79787776767574737271C8
:103A800071706F6E6E6D6C6C6B6A6A696868676680
:103A900066656464636362616160605F5F5E5E5D12
:103AA0005D5C5C5B5B5A5A59595858575756565586
:103AB00055555454535352525251515050504F4FE8
:103AC0004F4E4E4D4D4D4C4C4C4B4B4B4A4A4A4938
:103AD000494948484847474747464646454545447B
:103AE0004444444343434342424242414141002B08
:103AF0009C4630D477002BD01CB54FEA370703B46F
:103B00004FF010004FF01001BAF1000F06D0BCF1D9
:103B1000000FDCBF40F0080040F008014FF000004B
:103B20000FBCBDE810400BF1010BBBF1010F08BF4A
:103B30005FEA170722BF12F1010211F101014FF0F4
:103B4000004143F1000300F0004043EA00007047E9
:103B5000F9D35708D0E746EA064613F1400F4FEA7B
:103B600016461FDD13F1200FDFBF16430A46002162
:103B700020335B42BED0C3F1200746EA064602FA74
:103B800007F74FEA164646EA0706C3F1200722FA6E
:103B900003F201FA07F721FA03F14FF0000342EABA
:103BA0000702A7E746EA020646EA06464FEA164635
:103BB00046EA0106BCBF46EA0646360C4FF0000353
:103BC0004FF000024FF0000194E72DE9804C9A4637
:103BD000934670B491E8380007C831EA400C48BFFA
:103BE00034EA430C03D5FFF7E6FDFFF780FFF0BC96
:103BF000BDE8008C2DE9804C9A46934670B491E85C
:103C0000380007C810F0804F08BF13F0804F03D171
:103C100000F005F8FFF76BFFF0BCBDE8008C20F06A
:103C20007F4780EA030023F07F4C07EB0C03A3F5EA
:103C30007C5300F00040A3F1FE0392F0000F00F06F
:103C4000B38095F0000F00F077802DE901494FEA2D
:103C500011404FEA144621EA004800FB06FC24EA22
:103C6000064708FB06F607FB08F800FB07F718EB0A
:103C700006484CEB164C4FEA124B18EB07484FEA3C
:103C800015464CEB174022EA0B4E0BFB06FC25EACF
:103C900006470EFB06F607FB0EFE0BFB07F71EEBB7
:103CA000064E4CEB164C4FF000061EEB074E4CEB4D
:103CB000174B18EB0B0840F1000018EB0E0B58EBFC
:103CC000000840F100008F1A4FF000013CBFC943CB
:103CD000661B14BFB5EB040C00213CBFC943F61BA7
:103CE0004FEA17444EEA8E0E27EA04454FEA1C4776
:103CF00004FB07622CEA074C05FB07F70CFB05F6F3
:103D000004FB0CFC16EB074642EB174216EB0C4685
:103D100042EB1C421BEB060658EB0202414146EA0D
:103D20009E0601D5BDE80189B619524141EB01015A
:103D3000A3F10103BDE801894FEA14454FEA114799
:103D400024EA054621EA074C05FB07F406FB07F7C2
:103D50000CFB06F105FB0CFC11EB074144EB17448F
:103D60004FEA124711EB0C4144EB1C4422EA074C8A
:103D700005FB07F206FB07F70CFB06F605FB0CFC40
:103D800016EB074642EB174216EB0C4642EB1C457E
:103D90006A1854F1000148BF7047B619524141EB0F
:103DA0000101A3F10103704795F0000F37D04FEAEE
:103DB00011424FEA144721EA024624EA074C02FB6B
:103DC00007F106FB07F70CFB06F402FB0CFC14EBF7
:103DD000074441EB17414FEA154714EB0C4441EB04
:103DE0001C4125EA074C02FB07F506FB07F70CFB15
:103DF00006F602FB0CFC16EB074645EB174516EBE7
:103E00000C4645EB1C42121951F1000148BF7047A6
:103E1000B619524141EB0101A3F1010370474FEA8A
:103E200014454FEA114724EA054621EA074C05FBF1
:103E300007F106FB07F70CFB06F24FF0000605FB47
:103E40000CFC12EB074241EB174112EB0C4251EB19
:103E50001C4148BF7047921841EB0101A3F10103D7
:103E60007047000010B51E480068002800D0804749
:103E70001C4900200870811E1B4801601B494FF03F
:103E8000007008601A4CD4F8C002800704D4F422F1
:103E900018A11DA007F4BAF42A480168D4F8C40296
:103EA00061F31D3040F00100C4F8C40206F4B8F319
:103EB00000214FF03040C1608161C1174161016252
:103EC00006F46AF308484038016821F48001016073
:103ED0001D480068002802D0BDE81040004710BD12
:103EE000602480001C80800044C500A080E200E0C7
:103EF00000E000A0727769705F736C6565705F6346
:103F00006F6D6D6F6E2E63004D43555F5355422D9F
:103F10003E424C455F44534C4545505F434F5252DF
:103F20005F454E2026204D43555F5355425F424C1E
:103F3000455F44534C4545505F434F52525F48578D
:103F40005F454E00542480006424800000214FF01F
:103F50003040C1608161C1174161016206490220A0
:103F600004220A60BFF34F8FBFF36F8F0860BFF367
:103F70004F8FBFF36F8F704780E100E0044902204C
:103F8000C1F800010860BFF34F8FBFF36F8F704718
:103F900080E100E0FEE7FEE71AF49E90024909681E
:103FA00001F007010170704704C500A030B4062875
:103FB00021D212490A6802F00702824212D00A682E
:103FC0000F4B1A400F4C22430A6000BF00BF00BFD6
:103FD00000BF0A681A400C4B024333F8203042EA13
:103FE00083420A600849183951F8200007490860DF
:103FF00030BC74F4FF9730BC7047000004C500A0CB
:10400000F8FFE3FF05000800B468010100418000EB
:1040100004480068044900F0070051F820000349F3
:104020000860704704C500A09C6801010041800041
:104030000248016841F470010160704788ED00E0BA
:1040400002480068001D1DF407930000CC43800067
:1040500002484068001D1DF4FF920000CC43800020
:10406000FEE703B401984100009850EAC12018BF50
:1040700004204A0D18BF40F0010040F2FF72B2EB7D
:10408000515F08BF40F00200012808BF052002B0C0
:104090007047002804DB00F1E02090F8000470472E
:1040A00000F00F0000F1E02090F8140D7047002898
:1040B00004DB00F1E02090F80004704700F00F00EE
:1040C00000F1E02090F8140D7047000002480068ED
:1040D000C0F30220704700000CED00E0000000007B
:1040E00010B52DED020B2DED088B84B09DED0C0B62
:1040F00051EC100B12F004FA41EC180B9DED0C0B77
:1041000053EC182B51EC100B12F060FA41EC190B28
:104110000D989FED290B10F0004F53EC102B51EC34
:10412000190B9FED21AB9FED22BB0ED012F078F85A
:104130000ED953EC1B2B51EC190B12F0ABF91CD21E
:1041400014E000BF41EC180B17E012F069F806D23A
:1041500053EC1A2B51EC180B12F038FAF2E753EC2F
:104160001B2B51EC190B12F095F906D853EC1A2BB6
:1041700051EC180B11F092FDE4E78DED028B9DEDF3
:104180000C0B18EE901A10EE900A8DED000B61F3F7
:104190001E0003909DED020B04B0BDEC088B02B035
:1041A00010BD000000000000000000000000F03F13
:1041B000000000000000E03F000000000000E0BF41
:1041C00030380A2801D2012070470020704770471C
:1041D0002DE9F05F0746894693464FEA5B04A24605
:1041E0004D465F4EDFF87C81EFF31080012181F3B3
:1041F0001088D8F8A41221F02001C8F8A41280F386
:104200001088EFF31080012181F31088D8F8A012F4
:1042100021F02001C8F8A01280F31088306820F047
:1042200080403060504830603F20D8F8001160F383
:104230000501C8F80011306820F4601040EAC7405A
:104240003060306820F4E02040EA07403060052FFD
:1042500003D1306840F400403060062F03D130684D
:1042600040F480403060306840F400503060306886
:1042700020F060503060306820F00F0040F0030004
:104280003060EFF31080012181F31088344A383216
:10429000116821F0E04141F08041116080F3108805
:1042A000306840F08040306001E0D8F80000D8F875
:1042B0000401C0F300200028F7D1EFF310800121A2
:1042C00081F31088116841F00041116080F310887B
:1042D00034E000204FF47A711AE0884217D9306830
:1042E00020F080403060306840F00040306030683E
:1042F00020F00040306009F0EDFA1C480168491CCC
:10430000016054464D46052077F479D46CE7401C93
:10431000D8F80421C2F30022002ADED0D8F8040124
:1043200000F07F01A14200D92146002003E0D8F827
:10433000002004C5401C8842F9D3641A002CC8D15F
:104340005FEACB7008D0D8F80401C0F30020002841
:10435000F9D0D8F800002880BDE8F05F09F0BABABB
:1043600008C500A000E000A00A0708070881800037
:104370002DE9F04107460E464FF000080024274D76
:104380000BE004EBC40005EB8000801C07223946DB
:10439000FEF7A0F940B1641CE4B22878A042F0D83E
:1043A000B8F1000F18D102E04FF00108F8E72878C3
:1043B0000A21B0FBF1F201FB12040A2801D2401CD1
:1043C000287004EBC40105EB81003968C0F80210C5
:1043D000B988C180B97901722B7811A2102100200F
:1043E00007F416F2307800070BD504EBC40005EB98
:1043F000800006F14601BDE8F0410A301C22FEF7BC
:10440000C0B904EBC40005EB800006F12A01BDE849
:10441000F0410A301C22FEF7B4B900008017810079
:10442000523A313A616464206C746B206974656D32
:104430002C206E756D203D2025640A0010B5018981
:10444000491C89B2018102681388994205D3002171
:1044500001814181C181818110BDD2F8021043895F
:1044600031F82310C1F3072201F003040121A14018
:104470001944418112F0300F02D18189491C818198
:1044800002F00F01082901D00929E5D1C189491C91
:10449000C18110BD00281ED0028800F10801B2F5CC
:1044A000806F0CD0A2F58062013A0BD0022A0CD0AA
:1044B000032A10D1428A018A007900F00DB80079F0
:1044C00000F044BA007900F035BB83780A460079E1
:1044D000194600F02DBA7047FEB506460F46154640
:1044E00028460EF0E0F900281FD0114C062204F1F6
:1044F0000C03218A38460EF0BCF900218DF800101B
:104500008DF80160052807D1012D0FD004208DF80A
:10451000000004EB460045859DF80000002804D00B
:104520002168002901D068468847FEBD0320EEE7D8
:1045300024CA80002DE9F04389B08046334D00261F
:10454000A5F5B077B5F8580200284BD005A940462C
:1045500003F028FBBDF81400C01E81B20591B5F828
:104560005822D01C884205D9C91E8CB2101BA5F850
:10457000580202E01446A5F85862DFF89090A9F1BD
:10458000F40999F800000109B5F8580208B10122B0
:1045900000E002221D48E3B2F438009600F056F91C
:1045A000B5F85A022246411909F10300FEF7E9F86D
:1045B000B5F85A022044A5F85A028DF80860398AE5
:1045C000134A04200EF03AF9ADF80A00E41CADF8E5
:1045D0000C40CDF8109002A9404603F001FB09B051
:1045E000BDE8F0834FF417710848FEF74CF9A5F8C1
:1045F0005862A5F85A6201208DF818008DF81980CC
:104600000795396806A888470020E8E784CB800032
:1046100030CA80002DE9F74F86B00D46002D01D03D
:10462000022A0ED258A0CDE9010240F25F1100919A
:104630005B4B5CA267A1032001F076FA09B0BDE8EC
:10464000F08F0020DFF894A129780AEBC002927C59
:10465000B2EB111F00D18046401CC0B20328F4D336
:104660000AEBC8044FF00009E07C68B16878C00725
:1046700006D02846801C02F0B9FE0746042622E038
:104680002846877803261EE06878C0070AD02E46A1
:10469000F01C02F0ABFE8346701D02F0A7FE074639
:1046A000072606E02E46F01C02F0A0FE834677792E
:1046B00006260120E07484F8149084F81590A4F87C
:1046C00016B0A4F818906878810706D5C0F34000AA
:1046D0002075287800F00F006075208B384480B278
:1046E0002083E18A884202D184F8139010E00FD928
:1046F00084F813903AA240F2A513CDE90032CDE937
:104700000201274B27A233A14FF0030001F00CFA5E
:104710004FF000092878010923D006292AD036A1B4
:104720004FF4DC72CDE90021000902901C4B1DA260
:1047300028A1032001F0F8F94A464146069800F006
:1047400063F90446002C3FF479AF14221449183160
:1047500001A8FEF75BF8ADF8084001A800F0CCFC1A
:104760006CE7E37CDAF80440A9193A460698A047BA
:104770008146E1E7E37CDAF80840A9193A46069851
:10478000A0478146D8E70000556E65786365707470
:104790006564206C656E6774683A202564000000CB
:1047A0001C6A01012E2E5C2E2E5C2E2E5C2E2E5CA1
:1047B0002E2E5C636F6D706F6E656E74735C7072BD
:1047C0006F66696C65735C6167735C6167732E63A8
:1047D000000000004E4F5F544147000024CA800093
:1047E00053747265616D204F76657272756E3A20F2
:1047F00025642025642E0000556E6B6E6F776E2049
:1048000053747265616D2049443A202564000000AC
:1048100010B5047861F3071462F30304047041785F
:1048200021F0F00141F00C0163F3410121F001019D
:104830004170002181700221C17001210171002BA2
:1048400001D0002100E00321417110BDF0B40D46FC
:1048500004990446267865F307162670134F7D7871
:104860006E1C7E70667865F3071662F3830626F089
:10487000020525F00105204665703D46002A2D7889
:1048800006D0217865F3030121708370F0BC704776
:104890006D1C3D70227865F3030222700022827045
:1048A0004371F0BCC01C08F047BC00007445800098
:1048B000017801290AD002290BD0032909D1054921
:1048C0000988002905D0407810F066BF407810F0C4
:1048D00047BF7047B44580002DE9F04186B00746D8
:1048E0000C46154600208DF80C00104E042006F1F1
:1048F0000C02318A0DF0A2FFADF80E00ADF8105099
:10490000059403A9384603F06BF9804601208DF821
:1049100000008DF801700194ADF8085031686846C8
:10492000884706B04046BDE8F081000024CA8000F8
:10493000054B1B68002B06D0002904D111780029F3
:1049400001D1FFF7F7BD704724CA8000FEB50646C7
:104950000C78104D062205F10C03298A20460DF033
:1049600088FFADF8004000218DF80410052809D01B
:10497000ADF8021001208DF804006946304603F0BE
:1049800061F9FEBD0220ADF8020005EB46002A30B9
:104990000290F2E724CA800030B400282AD01749D8
:1049A00000228A74CA7406238B76CA76022481F8A0
:1049B000224081F8232090E83400C06881E8340068
:1049C000C86001F1100008640D48486401F10C0052
:1049D000886481F84C30402081F86A00012081F819
:1049E0006B00074810300865044830BC054940306A
:1049F00003F004B930BC02207047000024CA8000D4
:104A000088690101954400012DE9F04188B005460F
:104A100013460027194C04EBC101C87C002829D19A
:104A2000087D38B34A7D897C03A8FFF7F1FE00209A
:104A30008DF80000218A04F10C0204200DF0FEFE26
:104A4000ADF802000626ADF804600DF10C08CDF8B3
:104A500008806946284603F0C3F8074601208DF810
:104A600014008DF81550CDF81880ADF81C60216841
:104A700005A8884708B03846BDE8F08124CA800000
:104A80002DE9F04786B081468A4690461D464FF490
:104A900017712648FDF7F7FE254800274770234E7B
:104AA000A6F8587205A9484603F07CF8BDF8140032
:104AB000C01E05902A4641463046FDF762FEBDF80D
:104AC0001400AA1D824203D9101AA6F8580201E068
:104AD000A6F85872B6F85802281A84B2A6F85A42B4
:104AE0001248E3B200225146F4380095FFF7AEFEBB
:104AF0000E4D2246F43DA81D4146FDF742FE8DF8BD
:104B00000870A5F16C0000F10C02018A04200DF080
:104B100095FEADF80A00A41DADF80C40049502A95D
:104B2000484603F05DF806B0BDE8F08784CB80000E
:104B3000744580002DE9FF4106460C462788214D2B
:104B4000062205F10C03298A38460DF092FEADF8D5
:104B5000007000218DF802108DF804108DF80560AA
:104B6000022817D005281ED001208DF802006946C2
:104B7000304603F076F89DF80200012808D09DF831
:104B80000400002804D02968002901D001A8884722
:104B9000BDE8FF81A2883046A168FFF73BFD0220F7
:104BA0008DF80400E3E7A06808F08AFE012806D02B
:104BB00004218DF8041005EB46014885D7E7032151
:104BC000F7E7000024CA80002DE9F041884611462D
:104BD0008AB004461A4602A80DF0BAF902A806AD3A
:104BE0000FC80FC52EA14046FDF7C2FE2F4F304D16
:104BF000002648B12FA14046FDF7BAFE002829D073
:104C000001200AB0BDE8F081294A2D4906A80CF020
:104C10000DFC90B101208DF808008DF80940039635
:104C2000287828B195F8850010B121488830039084
:104C3000796802A888470020E3E722A04FF4E271D8
:104C4000CDE90010284B29A22FA1032000F06CFF12
:104C50008020D6E7164A2E4906A80CF0E7FB90B153
:104C600002208DF808008DF809400396287828B1B5
:104C700095F8820010B10E4883300390796802A83D
:104C800088470020BDE723A040F2D911CDE90010EC
:104C9000154B16A21CA1032000F046FF8020B0E7B0
:104CA000536574416C65727400000000004680001A
:104CB000480D810044656C657465416C65727400D3
:104CC000946E01014465636F6465205365742041EF
:104CD0006C657274206469726563746976652066B8
:104CE00061696C65642E0000817901012E2E5C5390
:104CF00072635C757365725C757365725F6761641E
:104D00006765742E630000004E4F5F5441470000FA
:104D1000146E01014465636F64652044656C6574BD
:104D20006520416C6572742064697265637469768C
:104D300065206661696C65642E0000000449896B1A
:104D4000084004490A78104300220A7070470000A6
:104D5000002001A0B47C8000104A114900280EDC1C
:104D60000868C0F34120012808D0506C401C5064F2
:104D7000086820F4C06040F40070086070470A289A
:104D8000FCDB086810F4C06FF8D0106C401C106495
:104D9000086820F4C0600860704700003C7E800016
:104DA0000CC500A010B598B006A861F477D50446EC
:104DB0009DF818005DA140F26512CDE90021029036
:104DC0005F4B60A265A1032000F0AEFE6CB165A050
:104DD000CDE9010440F283110091594B59A25FA122
:104DE000032000F0A1FE18B010BD9DF818000028A7
:104DF00056D066A040F27511CDE90010504B51A27B
:104E000056A1032000F090FE664A0121002061F4C3
:104E10000FD2044654B1142249494A3101A8FDF782
:104E2000F5FCADF8084001A800F066F900210C235C
:104E30005D4A084661F474D1044654B114224049D5
:104E40005E3101A8FDF7E2FCADF8084001A800F0D2
:104E500053F9554A1C2328320121002061F460D106
:104E6000044654B114223649723101A8FDF7CEFC34
:104E7000ADF8084001A800F03FF94C49002002F0CD
:104E8000D7FC0446002CAED014222D49863101A84F
:104E9000FDF7BCFCADF8084001A800F02DF9A2E731
:104EA00043A040F26B11CDE90010254B25A22BA1A8
:104EB000032000F039FE3B4A0121002061F4B8D103
:104EC000044654B114221E490E3101A8FDF79EFC80
:104ED000ADF8084001A800F00FF900210C23324A78
:104EE000084661F41DD1044654B1142214492231FC
:104EF00001A8FDF78BFCADF8084001A800F0FCF814
:104F0000294A1C230C320121002061F409D10446F6
:104F1000002CB2D014220A49363101A8FDF776FCE4
:104F2000ADF8084001A800F0E7F8A6E7426F6E640C
:104F300020646576206E756D733A2025782E00000A
:104F40002E7801012E2E5C5372635C757365725C62
:104F5000757365725F6170702E6300004E4F5F5411
:104F60004147000047657474696E6720626F6E6424
:104F70002064657669636520696E666F2066616985
:104F80006C65643A2025782E000000005265636F3E
:104F90006E6E656374696E6720746F2070656572EC
:104FA0002E000000DC0A8100D7760101BE4580009A
:104FB000506172696E672077697468204563686F15
:104FC0002E00000010B586B001280ED000280AD1AE
:104FD00012A04FF49871CDE90010164B16A21CA137
:104FE000022000F0A1FD06B010BD02F027FD04462E
:104FF00054B114220F49183101A8FDF707FCADF890
:10500000084001A800F078F8002062F45BD0002886
:10501000E9D006B0BDE81040FFF7C4BE4164766534
:1050200072746973696E672074696D656F75742E2B
:1050300000000000D07701012E2E5C5372635C7576
:105040007365725C757365725F6170702E630000CA
:105050004E4F5F5441470000014876F40D94000024
:105060005C45800010B588B0887ACA7A0B7B4C7B8F
:10507000CDE90443CDE90620887BC97B07A24FF424
:105080009B73CDE90032CDE90210124B12A218A198
:10509000022000F049FD08B010BD0000436F6E6EA5
:1050A000656374656420776974682074686520702E
:1050B00065657220253032583A253032583A25300D
:1050C00032583A253032583A253032583A25303263
:1050D000582E0000FC7701012E2E5C5372635C7524
:1050E0007365725C757365725F6170702E6300002A
:1050F0004E4F5F54414700003EB504464FF40071E7
:105100001A48FDF7C0FB207810B1012819D01DE026
:1051100000211748A28830F831309A4207D100EBBD
:10512000C10014A143681148FDF7EAF80EE02E29EA
:1051300002D0491CC9B2EEE714A10C48FDF7E0F813
:1051400004E01DA109486268FDF7DAF8074921A2C9
:105150002069CDE901210090D4E902231EA100209D
:1051600000F0E2FCBDE83E4000F0AABC4CC280006A
:10517000EC4380004572726F7220636F646520306B
:1051800078253034583A2025730000004572726F3C
:105190007220636F6465203078253034583A204E91
:1051A0006F20666F756E6420696E666F726D6174D4
:1051B000696F6E2E00000000282573292069732076
:1051C0006E6F742065737461626C69736865642EB8
:1051D00000000000257300006170705F6572726FDF
:1051E000722E63002DE9F041014600291BD00024F6
:1051F0000F4E0E4A357814E002EB04100F78037856
:10520000BB420CD14B684068034208D0707808B9A3
:1052100000F028FC2046BDE8F04100F02BBB641CE8
:10522000E4B2AC42E8D3BDE8F08100005CC4800089
:10523000684580007CB505460E46002D01D000244F
:1052400018E005207CBD05EB041041680091017A4F
:105250008DF80410417A8DF8051007218DF806109D
:10526000C26800780023694600F048F80028E9D1B8
:10527000641CE4B2B442E6D300207CBD10B50C46F9
:10528000062833D2DFE800F0030303101E27184975
:1052900051F830002104090C04D018B1214607F060
:1052A00023F81FE0042010BD2004000C03D0A1B29D
:1052B000104807F019F8200C14D0210C0E4807F004
:1052C00013F80FE014F0FF0F03D0204606F0F8FDAE
:1052D00008E0042010BD14F0FF0F05D02146002087
:1052E00007F074F8002010BD042010BD062010BD8A
:1052F000E0680101000001A0001001A02DE9F05FAD
:1053000005460C469046994627680026052D13D081
:1053100039462846FFF7B2FF2146284600F0ACF890
:1053200000280AD1042D0AD0032D2ED04FF0100BE7
:105330002807060E002491E00620BDE8F09F4FF0FC
:10534000080B2079042806D0052809D006280DD09E
:10535000072815D110E00021384603F45CF00FE077
:1053600040F20111384603F456F009E04FF0011104
:10537000384603F450F003E03B49384603F44BF061
:105380004FF0007073F4B4D6D4E74FF0200BD1E7A0
:10539000F80760D0052D65D2DFE805F0030303258B
:1053A0004600324800EBC50090F904A0BAF1000FA6
:1053B00017D0EFF31081012080F31088A01900EBC3
:1053C00040022B4800EB8200C0F80480C0F808902F
:1053D00081F31088504616F41FD7504616F43AD77A
:1053E00039E00420A9E7EFF31082012080F3108850
:1053F000A0191F4B00EB400003EB8001C1F80480B3
:10540000C1F80890032103F8201082F310880620C9
:1054100016F402D7062016F41DD7072016F4FCD682
:10542000072016F417D716E0EFF31081012080F360
:105430001088A01900EB40020E4800EB8200C0F873
:105440000480C0F8089081F31088122016F4E4D686
:10545000122016F4FFD67F08641CE4B25C4597D393
:1054600000206AE7062068E701010100E068010109
:1054700080BE800000C0800070B58EB005460C462E
:10548000564901F164004DC8CDE90A02CDE90C3658
:10549000D1E91E23486F06AED1F880100DC60991E0
:1054A00014224E49843101A8FDF7B0F9ACB14C4942
:1054B00006200EF069FE4B4907200EF065FE4A49B2
:1054C00012200EF061FE4549444A2C31062D7CD253
:1054D000DFE805F006060621415905200EB070BD33
:1054E000207931F810000B90607932F810000C90A0
:1054F000A0790D9020680A903848143050F8350093
:1055000021880904090C04D018B10AA906F03AFF51
:1055100059E00420E2E7207931F810000B9060791F
:1055200032F810000C90A0790D9020680A90206845
:105530000104090C05D080B20A900AA92B4806F094
:1055400021FF2068010C3ED0000C0A900AA92848CF
:1055500006F018FF37E0207901EB4000408A079001
:10556000607902EB4000C0880890A079099020681B
:105570000690207810F0FF0F03D006A806F0E2FC9A
:1055800021E00420AAE72079031F032B01D807207C
:10559000A4E702281AD001200290207901EB4000F4
:1055A000808C0390607902EB400080890490A079A0
:1055B000059020680190207810F0FF0F09D001A914
:1055C000002006F04BFF002088E704E00220029054
:1055D000E3E7042082E7062080E70000CC680101B1
:1055E0006F8180006981800065818000000001A0DA
:1055F000001001A010B502460C460020062A26D253
:10560000DFE802F00303030B1A1F114850F83200C1
:10561000A1B2BDE8104014F45A922104090C03D041
:10562000A1B20C4814F453D2210C10D0210CBDE8C7
:105630001040094814F44B92A0B2BDE8104006F4A3
:10564000E9B0A1B2BDE81040002006F00ABF10BDCD
:10565000E0680101000001A0001001A070B50C4637
:105660001546002D03D0012D01D0042070BD062861
:105670002BD2DFE800F00303030E1E23144951F878
:10568000300020B1A1B22A4614F434D21BE0042029
:1056900070BD2004000C04D0A1B22A460D4814F4B9
:1056A00029D2200C0FD0210C2A460B4814F422D208
:1056B00009E0A0B2294606F099FC04E0A1B22A460E
:1056C000002006F0D1FE002070BD062070BD000055
:1056D000E0680101000001A0001001A0002803D033
:1056E0000249086001207047002070477045800023
:1056F00070B505460024091F062917D2DFE801F01E
:1057000003070C111315284600F0A4F80EE001243D
:10571000284600F09FF809E00224284600F09AF895
:1057200004E0032402E0042400E00524034A2146A7
:1057300028461268BDE870401047000070458000A0
:105740002DE9F0410446204600F0AEF801462E480F
:1057500000230826025D00F10A0700F11405AAB132
:10576000052A33D0082A2AD1092945D0082926D16B
:10577000295D491CC9B22955142920D32B5506553A
:105780002046BDE8F0410821FFF7B2BF052913D03C
:10579000042916D0072914D0082910D1295D491CE5
:1057A000C9B2295514290AD32B5506552046BDE800
:1057B000F0410821FFF79CBF3B5505210155BDE88D
:1057C000F0812046BDE8F041FFF792BF05290CD0DB
:1057D000395D491CC9B239553229F0D303552046E9
:1057E000BDE8F0410521FFF783BF03552046BDE822
:1057F000F0410621FFF77CBF03552046BDE8F0418C
:105800000921FFF775BF00003CC5800070B5044654
:105810000D4600F00FF808B100F03AF90348044AC9
:105820002946005D5268BDE87040104750C48000B2
:10583000684580000020064911F810200AB10020B8
:105840007047401CC0B20A28F6D301207047000000
:105850005AC580000349002201F8102001EB4000E6
:10586000427070475AC58000014A02F81010704714
:105870005AC58000024A012102EB40004170704786
:105880005AC5800070B50024064D05EB44004078F1
:1058900010B12046FFF754FF641CE4B20A2CF4D385
:1058A00070BD00005AC5800070B500211D4B03F18A
:1058B00032051A5C002A09D0002403F10A06012AE5
:1058C0000AD0022A12D0032A24D11FE015F8102092
:1058D00002B301221A541DE015F810201AB13454F5
:1058E00002221A5416E01C54042113E015F810206B
:1058F0004AB1325C521CD2B23254642A0AD3072114
:1059000003221A5406E005211C5403E015F8101078
:1059100011B10821084670BD1C54FFF79BFF0921F7
:10592000F8E7000028C5800010B586B004281ED115
:1059300001291CD1002060F4ADD6002817D002F058
:105940007DF804464CB114220A4901A8FCF75EFF19
:10595000ADF8084001A8FFF7CFFB002061F4B2D3F7
:10596000002804D006B0BDE81040FFF71BBA06B00F
:1059700010BD0000A87601012DE9F0410E46174642
:105980000A2E02D80FB1002320E00020BDE8F081EC
:1059900003EB430410F82410032901D0042913D188
:1059A00000EB8405114AA97AD154104910F824203B
:1059B0000C3101EB0314227069686160297A21724D
:1059C000697A61720A49E1605B1CDBB2B342DFD3E2
:1059D000064831460C30FFF72DFC0648067047603C
:1059E0000548FFF77BFE0120D0E7000050C480008F
:1059F000E5510001684580000D5800012DE9F04196
:105A00000024124FDFF8488019E0002607EB041548
:105A100028786968FFF7EEFD10B9697A012902D08C
:105A2000012802D005E0012603E0687A022800D1AF
:105A3000012631462046FFF717FF641CE4B298F8B0
:105A400000008442E1D3BDE8F08100005CC4800026
:105A50006845800010B5FFF7D1FFBDE81040FFF7A3
:105A600011BF000010B5074A0121074800F0A2F954
:105A700000220A21044800F0EBFA04490120487092
:105A800010BD0000555A000100C580006845800027
:105A900010B5034800F0B7F902490020487010BD66
:105AA00000C5800068458000002806D0002904D089
:105AB000024AD269002A00D01047704728C28000ED
:105AC0000248006A002800D00047704728C28000C2
:105AD00070B50D4616460D4C00280AD001780329F2
:105AE00011D80121A17601461A222046FCF749FE71
:105AF00005E00020A0761A210448FCF7E6FEE561E7
:105B00002662002070BD012070BD000028C2800008
:105B1000044A1044807D084201D0012070470020D3
:105B20007047000028C280002DE9FE4FDDF830B03C
:105B300006469246994600240027019702975A4844
:105B40000178B14202D2807E00287DD10DF1380863
:105B5000CDF80080EFF311850220FEF7A8FA014688
:105B600052480068C0F30220401C0122824088187D
:105B7000C0B280F3118801213046FFF7C9FF38B168
:105B80004B484C4950F82620204600F0A5F8044622
:105B90001C213046FFF7BCFF00285ED046A24549D5
:105BA000204600F099F8204484B204213046FFF7E3
:105BB000AFFFF8B152463F49204600F08DF820442F
:105BC00084B208213046FFF7A3FF38B13BA2394920
:105BD000204600F081F8204484B20BE010213046CA
:105BE000FFF796FF30B136A23249204600F074F834
:105BF000204484B208213046FFF78AFF90B14A461C
:105C00002C49204600F068F8204484B21021304628
:105C1000FFF77EFF30B12BA22649204600F05CF84A
:105C2000204484B210213046FFF772FF70B15B460A
:105C300026A2052101A8FCF779FB01AA1D492046EF
:105C400000F04AF8204400E02BE084B220A2194979
:105C5000204600F041F8204484B21648C4F5807113
:105C6000204443460D9AFCF731FB00974FF48071B6
:105C7000002804DB2044884201DC86B200E00E46A6
:105C8000B01C884200D9FE2612A20A49304600F014
:105C900023F8304481B20748FFF706FFE8B280F3EB
:105CA0001188BDE8FE8F000028C280000CED00E0E6
:105CB000DC43800028C18000280000002000000094
:105CC0003A000000204C696E653A0000256C6400C3
:105CD000292000000D0A000030B5054600200029EB
:105CE0000CD0002A0AD006E02B18FF2B06D8CC5483
:105CF000521C401C80B21478002CF5D130BD00003D
:105D000010B5084A06214CF201000AF0F1FF02F03A
:105D100057FB05480FF098FCBDE81040022072F4D4
:105D2000A19700006C7601010954010130B58BB0D8
:105D300005460C46002C14D0242102A8FCF7C5FD12
:105D4000217881B10BA140F25312CDE90021104B13
:105D500010A216A10320FFF7E7FE02A9284668F467
:105D600073D20BB030BD00218DF8081001208DF8E2
:105D70000900F2E7556E737570706F727465642078
:105D800070616972696E67206D6574686F642E005A
:105D9000127801012E2E5C5372635C757365725C20
:105DA000757365725F6170702E6300004E4F5F54B3
:105DB000414700002DE9F04104460D461746002DED
:105DC00004D0012D02D00120BDE8F081CCB1C7B1D3
:105DD000EFF311860220FEF75CF98046FEF776F9B4
:105DE000401C0121814008EB0100C0B280F3118802
:105DF00000206070A570E761F0B280F31188002088
:105E0000E2E70120E0E710B50446002C0CD0204664
:105E100000F0B0F9FF2060700021A160E160216115
:105E200061610020E06110BD012010BDF0B5DDE929
:105E30000745059981614FF47A76A2FB061C03FBA6
:105E400006C3002702FB0732C0E9021209196A41A2
:105E5000C0E9041200210162F0BD00002DE9F0410B
:105E60000446002C13D0EFF311850220FEF711F940
:105E70000746FEF72BF9401C012606FA00F03844CD
:105E8000C0B280F311881248002121620EE0002088
:105E9000BDE8F081D4E90432D1E9047CDB1B72EB6C
:105EA0000C0202D2016A216203E00846016A00295D
:105EB000F0D104626670064820380168491C016010
:105EC000016C4160E8B280F311880120E0E7000036
:105ED000D8C080002DE9F04105460024EFF311867B
:105EE0000220FEF7D6F80746FEF7F0F8401C012125
:105EF00081407818C0B280F31188134A106CE8B161
:105F000015B102F1200010E00446206A1064106808
:105F1000401E10600CE0A94206D11168491E1160B4
:105F2000296A01622C4603E00846016A0029F2D181
:105F300024B1002020626070106C5060F0B280F3D9
:105F400011882046BDE8F081B8C080002DE9F041FD
:105F5000EFF311870220FEF79CF80446FEF7B6F82F
:105F6000401C012181406018C0B280F31188114D9E
:105F7000002608E02078012804D1E16909B1A06970
:105F8000884726702D6A2C6A002CF3D1094D203DDC
:105F900007E0E16909B1A06988472670206AA86016
:105FA0002662AC68002CF4D1F8B280F3118801208D
:105FB000BDE8F081D8C080002DE9F041EFF31187F2
:105FC0000220FEF766F80446FEF780F8401C012622
:105FD00006FA00F02044C0B280F311881B4DA5F1F1
:105FE000200829E0D4E90420D8E90413521A60EB10
:105FF0000300D8E906319A1A814120D32670204641
:10600000FFF768FFA078012802D0104818380DE08B
:10601000D8E90430D4E902219A184841C4E904209F
:106020002046FFF71BFF07E001F12000016800296F
:10603000FAD12162006804622C6A002CD2D1F8B235
:1060400080F311880120BDE8F0810000D8C08000F5
:106050002DE9FF5F82460E4693464FF00008BAF1E5
:10606000000F20D0414886421DD8E6B1EFF31187DA
:106070000220FEF70EF80446FEF728F8401C012126
:1060800081406018C0B280F31188504607F088F94B
:1060900010B19AF8010040B1F8B280F311880F20D6
:1060A00004B0BDE8F09F0120FAE709F0F9FD0446CD
:1060B0000D464FF47A7106FB01F022462B46002173
:1060C00007F03EF9DFF8A890B0B1D9F8040048B164
:1060D000D0E90410091B60EB0500C9E9041009F0C0
:1060E0007BFE04E00021C9F81010C9F814104FF02D
:1060F0000108D9E9040106E0D9F80400D0E9042137
:10610000101B61EB0501CDE9020132460023CDF8F9
:1061100000B05046FFF78AFE5046FFF79FFE0DF095
:10612000D1FE4FF0E021D1F800014FF0806210F075
:10613000806F01D0012000E0002018B9C1F8802252
:10614000C1F80021B8F1000F0AD0D9F80400D0E955
:106150000431D9E90402181A61EB020109F0D6FDF5
:10616000F8B280F3118800209AE70000008AB9078E
:10617000B8C080002DE9F04104460025002C39D03C
:10618000EFF311870220FDF784FF0646FDF79EFF1F
:10619000401C012181407018C0B280F311886078E2
:1061A000012824D1144E7068A0420BD109F078FD6B
:1061B000D4E90432181A62EB0102C6E9040209F0BC
:1061C0000BFE01252046FFF785FE5DB1706848B1E2
:1061D000D0E90421D6E90403101A61EB030109F0A8
:1061E00095FD04E01DB9706808B909F0F5FDF8B235
:1061F00080F31188BDE8F081B8C0800070B5044616
:106200001A4D55F8240070300DF017F882B216467A
:10621000A2B155F8240090F8011101290ED00121F6
:1062200080F80411802A0FD355F82400802200F151
:10623000800170300DF016F880260CE055F824101F
:10624000002081F8000170BD55F8240000F18001A4
:1062500070300DF007F855F82400324600F1800147
:10626000001D1BF4E7D30028EDD170BDCC438000A6
:10627000704700002DE9F84304464B4E56F82400C1
:10628000071D022C7ED290F86C1000297AD00129CB
:1062900078D180F80111002556F82400D0E90312C6
:1062A0000A44017D01F00101C91D02EB01084168AA
:1062B000CA6FC2F38002002AFAD090F80411E1B14B
:1062C000DFF8E8906D1C56F82400001D06F02AFB4C
:1062D00010280BD056F82400D9F800108068B1FBC4
:1062E000F0F000FB08F0B5EBC01FEBD956F8240026
:1062F00070300CF0A2FF85B226E0B0F82480C58C87
:10630000001D1BF40FD056F8240041F2883300EB37
:106310000801491B8031001D2A461BF450D3E5E7D4
:1063200056F824000122703069460CF09BFF56F8A5
:1063300024004068C16FC1F340010029FAD09DF8E4
:10634000001001606D1EADB2002DE9D156F8240099
:1063500070300CF072FF0028C8D1386841694906D6
:10636000FCD5EFF31085012080F3108856F8240047
:1063700070300CF062FF68B1EFF31081012080F300
:10638000108800E00DE03868426842F08202426006
:1063900081F3108856F82410002081F8010185F35C
:1063A0001088BDE8F8830000CC43800000418000E5
:1063B0002DE9F04389B0054688462C78002D06D09B
:1063C0002AB1022C05D3082009B0BDE8F0830520CE
:1063D000FAE7384E05F1580046F82400D2E90031BA
:1063E0000A46703019460CF013FF291D89462422F5
:1063F0000C316846FCF70AFA291D286D0EC90EF00B
:10640000FFFC0028E0D12C490C200DF0BDFE2B49EB
:106410000D200DF0B9FE2A4800EBC40797F90100E2
:1064200015F4FAD697F9010015F414D756F824009C
:10643000C0F8649056F82400C0F8008056F8240094
:106440001822083005F14001FCF7E0F956F8241055
:106450007868486056F82400001D06F037FA56F8B0
:106460002400001D06F068FA351F0127287850B96E
:106470002F701348032110300CF05AFA688000285E
:1064800001DA0420A0E756F8240080F86C7056F872
:106490002410002081F8000156F8241081F8010131
:1064A00056F8241081F8020156F8241081F80301EF
:1064B0008AE70000CC4380004140000151400001C8
:1064C0006C6901012DE9F04104461A4D55F824008C
:1064D00070300CF0B2FE82B2164600277AB155F841
:1064E000240090F80111012909D0802A0ED300F16F
:1064F0008001703080220CF0B5FE80260BE055F84C
:10650000240080F800710020BDE8F08100F18001D6
:1065100070300CF0A7FE55F8240080F8047155F88F
:106520002400324600F18001001D1BF4C9D200286E
:10653000EAD1E9E7CC43800070B5022801D30820F6
:1065400070BD0C4D55F820407CB194F86C6066B17C
:1065500069B162B1002684F8026155F82000001D7F
:106560001BF42DD20028EBD170BD052070BD042096
:1065700070BD0000CC4380002DE9F04106460C467A
:10658000174604F1080520466FF416D1C3B21B4824
:10659000E1184268914202DD0320BDE8F08118490C
:1065A000184A006809681268891A081A001FE91851
:1065B00081421CD94FF4004513A22946002005F45E
:1065C00027F102F043F830B118A22946002005F463
:1065D0001FF10820E1E71DA22946002005F418F16B
:1065E0003A4621463046BDE8F0410FF067BA3A46D8
:1065F00021463046BDE8F0410FF060BAD832800045
:10660000D0238000CC238000523A353A4E56445372
:106610002061726561206973206265696E6720631D
:106620006F6D7061637465642E0D0A00523A353ADD
:10663000436F6D70616374696E67204E56445320DA
:106640006661696C65640D0A00000000523A353AD3
:10665000436F6D70616374696E67204E56445320BA
:106660007375636365737366756C0D0A00000000D3
:106670007CB50D46002200920192694605F4CCF0EB
:10668000044634BB4FF42051684605F4C7F0B8B94E
:1066900042F60101684605F4C1F088B942F60301EB
:1066A000684605F4BBF058B942F60201684605F4A5
:1066B000B5F028B94FF42451684605F4AFF008B19D
:1066C000062406E00098C5F30B0180880843009972
:1066D000888020467CBD00002DE9F04782460E46AA
:1066E000174698464FF001090025D8F80040002CC5
:1066F00018D11E48046815E03188A08881420BD368
:10670000E088814204D82146504600F031F808B1B3
:10671000246807E0012505E02146504600F028F8EE
:1067200010B1246825B105E00125A0883080F9E783
:10673000002CE1D1B5B14FF00009A0883188884222
:1067400004D1201D38600120387109E0081A401E6C
:1067500000EB400004EB40000E3038600020387140
:10676000C8F800404846BDE8F0870000F80E8000F9
:1067700070B586B0002200EB4003114C03EBC00360
:1067800004EB43052C7D17E035F8123093B18E8869
:106790009E420FD8CE889E420CD3CA8889888DE845
:1067A0001F00084B084A4021002005F431F0012069
:1067B00006B070BD521CD2B29442E5D80020F7E773
:1067C00004198100C67C0101E08601012DE9F04F2A
:1067D0008BB007460C460025002008900990608881
:1067E0000790261FE188A288CDE901210090614B26
:1067F00061A24021002005F40BF0308850B93846E2
:1068000005F40EF0401E30806088A188884200D8D0
:1068100000B90125DFF89091002D60D104F10A0044
:106820000DF1200A0DF1140B04F106080A90A0885E
:10683000069004A8CDE9020BCDE9008A022306AA3E
:1068400007A9384600F0ACF90546280008D00A2D03
:1068500045D0062D43D0BDF81800401C079032E00B
:10686000E088B0F5205F03D042F60101884208D1EC
:10687000BDF81000217AC3B2059A0A9804F4D2F741
:1068800048B92289BDF81000824218D105990A98AA
:10689000FBF720FF98B90221082029F415D30146FF
:1068A000BDF81C008880BDF81800C880083E59F863
:1068B0002700603004F4B8F7384604F4B7F7BDF8A1
:1068C0001800401C0790A088BDF81C10884206D311
:1068D000BDF81810884202D030880428A7D2062DAF
:1068E00036D059F82700603004F4A2F740B30024F2
:1068F0004FF6FF7101EA8006062000EB072307220E
:106900000421384600962BF48FD601464E8059F864
:106910002700006E0EE083880A1913711B0A537159
:10692000A41CA4B2C3880A1913711B0A5371A41CB6
:10693000A4B200680028EED1084604F47BF70AE010
:1069400021780A23BDF81C20384604F475F702E0CC
:10695000BDF81C006080074B14A240210020009568
:1069600004F456F7062D03D000200BB0BDE8F08FDD
:106970000120FAE78E7C0101523A333A5B25735DC0
:1069800020656E7465722C2073683D307825782CF4
:106990002065683D307825782C20747970653D300D
:1069A0007825780A00000000C40E8000523A333A7D
:1069B0005B25735D20657869742C20737461747530
:1069C000733D307825780A002DE9F04F85B0814677
:1069D0000E46484604F424F7801E1FFA80FAD0467B
:1069E0000024B0887188CDE90010574B57A2402190
:1069F000002004F40DF77088B188DFF874B1884284
:106A000011D880B17088049000200290039001900A
:106A100001AB02AA04A94846FFF75EFE054628001E
:106A200003D00A2542E0012540E0B088BDF81010EF
:106A3000884232D30221182029F446D20746012089
:106A400000900023FA1DB91D02A804F4F7F60546CC
:106A5000280007D040F24E2346A22946BDF8100078
:106A600004F4EEF6BDF81000B88004B9BC79B8792A
:106A7000A04203D0384629F4A7D017E05BF82900DC
:106A80003946603004F4D0F6A8EB0400801E1FFAEB
:106A900080F8BDF81000401C0490B188BDF81000CB
:106AA000814203D310B1A01C8045B1D25BF829000C
:106AB000006E18B1002018B19DB334E00120FAE750
:106AC0000026AAEB08081FFA88F00090062000EBC9
:106AD00009230522042148462BF4A6D50746022C9B
:106AE00008D0022078707888404478805BF82900CC
:106AF000046E10E00120F5E7A188B8198180B61C6A
:106B0000B6B2B819A279001DE11DFBF73AFEA079D3
:106B1000304486B22468002CEED1384604F48AF65C
:106B200007E0FFE70A25728831782B46484604F4CF
:106B300083F6054B13A240210020009504F468F66B
:106B400005B00020BDE8F08F757C0101523A333A60
:106B50005B25735D20656E7465722C2073683D3013
:106B60007825782C2065683D307825780A0000006B
:106B7000C40E8000617474735F70617463682E6307
:106B800000000000523A333A5B25735D2065786956
:106B9000742C207374617475733D307825780A0005
:106BA0002DE9F04F87B08346DDF844900C4615463A
:106BB0009A460026B4F800800027019701AB4A46A8
:106BC00021465846FFF788FD10B12888208026E02E
:106BD0002088298888421BD8002302AA06A9484693
:106BE000009704F42BF6014629B1208840F269137E
:106BF0001AA204F425F69DF8183002AA51461098FE
:106C000004F410F608B1012602E02088401C208020
:106C10002EB920882988884201D80028CED16EB1AB
:106C200022884B460021584604F40CF6C6B2208850
:106C3000494604F409F6288026B10AE00A26A4F899
:106C4000008006E02188DDE91223584604F4FEF5B1
:106C5000C6B207B03046BDE8F08F000061747473AF
:106C60005F70617463682E63000000002DE9F041DD
:106C700005460C46FF26217A1E2905D022480279B6
:106C8000521E52B200683AE004F10801284604F4AA
:106C9000DFF5064635E010F832308B422DD11B4E21
:106CA00056F82500406F30B300273B4618A240211C
:106CB000002004F4ADF5062000EB052029F45AD39A
:106CC000C00605D5002717A24021002004F4A0F536
:106CD00021460C3956F82500743004F4A5F500203F
:106CE000A08001266FB115A2402104F491F5284639
:106CF00004F4B0F505E00127D7E7521E52B2002A8E
:106D0000C9DA3046BDE8F0817C058000C40E800001
:106D1000523A333A657865637574653D3078257805
:106D20000A000000523A333A636F6E6E6563742056
:106D30006E6F742063666D0A00000000523A333AA9
:106D4000737461727420657865637574650A0000F8
:106D50000348024901600D2141607047D47B010165
:106D60007C0580002DE9F04F8BB082460C46002652
:106D7000002009900A9060880890251FB046298855
:106D8000A288CDE9012100906D4B6EA24021002028
:106D900004F43EF5288850B9504604F441F5801EAD
:106DA00028806088A188884200D800B901267148EF
:106DB00050F82A00006E10B1002111B103E001214A
:106DC000FBE790F80680002E5DD104F1080BA08847
:106DD000079006A805A909AACDE90210CDE900B2DD
:106DE000A37907AA08A95046FFF7DAFE0646300045
:106DF00049D1BDF81410884502D0B8F1000F42D136
:106E00002888001FFB22FB2800D31046814200D2B5
:106E1000084687B2022107F10C0029F455D08146BB
:106E2000BDF81480BDF82000A9F80400BDF81C00CE
:106E3000A9F8060089F808703A4609F10900069990
:106E4000FBF79FFC2888C01B001F28804948494643
:106E500050F82A00603004F4E7F4BDF814008742CB
:106E600002D1504604F4E2F4BDF81C00411C89B282
:106E70000891A2888A4206D3824204D0298808F168
:106E800004008142A3D2062E48D03A4D55F82A007C
:106E9000603004F4CDF4C0B3002755F82A100C6E0E
:106EA000217A091D41431FFA81F8062000EB0A23CD
:106EB000112204215046CDF800802BF4B5D30546AD
:106EC000A5F80280217A091D697018E0A188E819E7
:106ED0000171090A4171BF1CBAB2E188A818017199
:106EE000090A4171921C97B2E819227A001D04F137
:106EF0000901FBF746FC207A384487B22468002C4D
:106F0000E4D1284604F496F40BE0FFE721783346F9
:106F1000BDF82020504604F48FF402E0BDF82000B4
:106F20006080074B14A240210020009604F470F406
:106F3000062E03D000200BB0BDE8F08F0120FAE749
:106F4000557C0101523A333A5B25735D20656E74BE
:106F500065722C2073683D307825782C2065683D5B
:106F6000307825782C2072655F6C656E3D30782511
:106F7000780A0000C40E8000523A333A5B25735DF4
:106F800020657869742C207374617475733D307852
:106F900025780A002DE9F04F8BB082460C4600267A
:106FA000002009900A9060880890251FB046A188AB
:106FB000694BCDE9000169A24021002004F428F4C6
:106FC000288850B9504604F42BF4801E288060882D
:106FD000A188884200D800B90126694850F82A00E3
:106FE000016E11B1002010B103E00120FBE791F820
:106FF0000680EEBB04F1080BA088079006A805AA3E
:1070000009A9CDE90220CDE900B1A37907AA08A911
:107010005046FFF7C5FD0646300047D1BDF81410B5
:10702000884502D0B8F1000F40D12888801EFD228B
:10703000FD2800D31046814200D2084687B20221C3
:1070400007F1080028F440D78146BDF81480BDF848
:107050002000A9F8040089F806703A4609F10700F3
:107060000699FBF78EFB2888C01B801E288000E055
:107070001CE04348494650F82A00603004F4D4F339
:10708000BDF81400874202D1504604F4CFF3BDF896
:107090001C00411C89B20891A2888A4206D3824210
:1070A00004D0298808F102008142A5D2062E40D0E2
:1070B000334D55F82A00603004F4BAF380B300274A
:1070C00055F82A100C6EA179891C41431FFA81F8EA
:1070D000062000EB0A23092204215046CDF8008047
:1070E0002BF4A2D20546A5F80280A179891C69700B
:1070F00010E0A188E8190171090A4171BF1CBFB2F3
:10710000E819A279001DE11DFBF73BFBA07938448B
:1071100087B22468002CECD1284604F48BF30BE0F2
:10712000FFE721783346BDF82020504604F484F36D
:1071300002E0BDF820006080074B12A24021002031
:10714000009604F465F3062E03D000200BB0BDE8D2
:10715000F08F0120FAE70000AA7C0101523A333A8D
:107160005B25735D20656E7465722C2073683D30FD
:107170007825782C2065683D307825780A00000055
:10718000C40E8000523A333A5B25735D20657869FE
:10719000742C207374617475733D307825780A00FF
:1071A0002DE9FF5F81460F460024A246CDF808A0D6
:1071B000CDF80CA0584850F82900603004F438F39A
:1071C00080463D1F79882888544BCDE9001054A291
:1071D0004021002004F41CF32888E8BB484604F44E
:1071E0001FF3401E2880002611E007EB460002AB8B
:1071F00082880021484604F425F3C4B2CDF808A0E3
:10720000CDF80CA00CB1B0463BE0761CB6B2788845
:10721000B042EAD835E007EB48006B46818801AA06
:10722000484604F413F3C4B23CBBBDF804002988FB
:10723000884200D3084686B2022106F1080028F4ED
:1072400043D68346ABF8046032460BF10600009942
:10725000FBF797FA304800E013E050F82900594650
:10726000603004F4E1F2484604F4E0F22888801B20
:10727000288008F101081FFA88F8CDF808A0CDF899
:107280000CA07888404503D9288808B1002CC2D0CA
:1072900044BB484604F4C4F22988401A401E86B212
:1072A0000025062000EB09230F2204214846009602
:1072B0002BF4BAD18246AAF80260174850F8290088
:1072C000066E0AE00AEB0500B288001DB11DFBF74F
:1072D00058FAB088284485B23668002EF2D150465C
:1072E00004F4A8F24CB1062C07D007EB480039781B
:1072F00082882346484604F49FF2084B14A240219A
:107300000020009404F484F2062C03D0002004B082
:10731000BDE8F09F0120FAE7C40E80003C7C01012B
:10732000523A333A5B25735D20656E7465722C208A
:107330006E625F68616E646C653D307825782C20E4
:1073400072655F6C656E3D307825780A000000003C
:10735000523A333A5B25735D20657869742C20734B
:1073600074617475733D307825780A0010B500217A
:107370000A4C0023002001EB410202EBC10204EBA6
:10738000420222F81030401CC0B20A28F9D313750B
:10739000491CC9B20A29EDD310BD000004198100AF
:1073A0001FB50F4890F80201002818D068464CF429
:1073B000C1D7DDE900010B4CCDE90201E1680844C9
:1073C000094920F07040486008464DF449D2607881
:1073D00018B1BDE81F400CF065B80CF07FF81FBD78
:1073E000C01A8000C47F8000B41A800001780902AE
:1073F00040780843704702460020002152F82130AF
:107400000BB1401CC0B2491CC9B20C29F6D370475D
:1074100010B507F0CDFEBDE8104003F053BD07F0F6
:107420005DBC000010B58CB008A80DF0EBF9BDF8FC
:10743000221009989DF82120CDE904109DF82030F4
:107440002CA040F2BF11CDE90232CDE90010334B40
:1074500033A239A10220FEF767FB0AA85EF4A8D583
:10746000044654B114222D49103103A8FBF7CEF97C
:10747000ADF8104003A8FDF73FFE9DF828009DF8E9
:107480002910CDE906109DF82A209DF82B309DF893
:107490002C009DF82D10CDE9043229A24FF4E2739F
:1074A000CDE90032CDE902101C4B1DA222A1022021
:1074B000FEF73AFB2DA040F2CB11CDE90010174B9F
:1074C00017A21DA10220FEF72FFB0CF0BFFB03F05B
:1074D00099F9FDF767FC002C0AD014220F492431DA
:1074E00003A8FBF793F9ADF8104003A8FDF704FEDD
:1074F0000CB010BD476F6F64697820424C45205333
:10750000444B205625642E25642E25642028636F65
:107510006D6D69742025782900000000D87801017C
:107520002E2E5C5372635C757365725C7573657245
:107530005F6170702E6300004E4F5F544147000042
:107540004C6F63616C20426F617264202530325849
:107550003A253032583A253032583A253032583AA6
:10756000253032583A253032582E0000416C65786B
:107570006120476164676574206578616D706C6532
:1075800020737461727465642E0000002DE9F0416F
:1075900005468846284668F4D3D5C0B22449097800
:1075A00088420DD200EB4000213040F400404246BA
:1075B000AC2109F09DFB0446200032D0012430E0CC
:1075C00068F402D6C7B207EB470606F1200040F484
:1075D00000402A46072109F08BFB10B10120BDE8CD
:1075E000F081384674F440D706F1210040F40040A1
:1075F0004246AC2109F07CFB0446200001D001206A
:10760000EDE7223646F4004070F400D00949C7EB9C
:10761000C7000968084429680160A9888180A979A0
:1076200081711CB941462846FCF7A2FE2046D6E7E8
:10763000382380003C2380000020704710B50BF0F9
:10764000A7FF0BF0DDFF0BF041FF0BF0C5FB0DF0CA
:1076500073FA00F08BFC0BF0E7FF00F0D5FBBDE800
:10766000104000F0B7BB0BF03BBB10B506F0F6FCCA
:1076700007F0AAFE06F002FD07F006F906F062FD2B
:1076800006F0A8F8FFF764FB03F0CCFF0CF060F8FD
:107690000CF058FDBDE81040FFF768BE0148FFF749
:1076A000AABE0000B413800010B5FFF7DCFF054947
:1076B00003480860BDE81040034874F44791000097
:1076C00017B8800474C500A00087930310B5044662
:1076D000002C0CD0204600F019FB002807D10449EB
:1076E0004968002903D02046BDE81040084710BD76
:1076F000987D80003EB5044640F2023220884FF467
:107700008073A0F2023190423DD011DC98421ED02D
:10771000A0F5007007381ED001282CD0FA2829D1F6
:10772000207903B004F10801BDE83040FDF79ABCB0
:1077300004293CD0A1F50071FE393FD0994219D1FE
:10774000207903B0611DBDE83040FEF7EFBABDE817
:107750003E40FFF767BE608800280BD01BA14FF4A6
:10776000C972CDE900210290214B22A227A103205A
:10777000FEF7DAF93EBD60880028FBD1207ABDE82B
:107780003E40FDF71FBC207A22A14FF4D172CDE913
:1077900000210290164B17A21CA10220FEF7C4F98B
:1077A00020790DF0DDFFBDE83E40FDF7FBBA207902
:1077B00003B00121BDE830405FF4F69160880028F5
:1077C000D8D11A49012008803EBD00004164766589
:1077D0007274696E67207374617274656420666187
:1077E000696C656428305825303258292E00000015
:1077F000C87801012E2E5C5372635C757365725CF0
:10780000757365725F6170702E6300004E4F5F5438
:1078100041470000446973636F6E6E65637465640D
:107820002028307825303258292E0000B4458000B9
:107830002DE9F84307460D46EFF3118656480178C7
:1078400056480068C0F30220401C0122824088187C
:10785000C0B280F3118868F449D58046052F06D35D
:107860004FA21021002003F4D3F7152481E07DB14D
:107870004E48C7EBC70100EB8104E06840B1617A74
:1078800069B14BA21021002003F4C2F70F2470E06D
:107890004AA21021002003F4BBF7022469E0216909
:1078A000F1B9017841B1012910D047A2102100207F
:1078B00003F4AEF723245CE08178490710D445A295
:1078C0001021002003F4A4F7232452E081788907D3
:1078D00006D443A21021002003F49AF7232448E0A1
:1078E00041888A0704D50278012A01D162691AB158
:1078F0000278022A07D008E03CA21021002003F4FD
:1079000087F7252435E0A26962B1090711D52988D6
:1079100009B180290DD938A21021002003F478F78D
:10792000262426E037A21021002003F471F7242436
:107930001FE0407802280CD1288818B144F2506129
:10794000884206D932A21021002003F461F72624D0
:107950000FE0E06928B90021042063F4C5D7E06195
:10796000B8B1E069296801603946002068F41AD688
:1079700000243B4629A210210020009403F448F77C
:10798000404668F47DD4F0B280F311882046BDE80B
:10799000F8831024EDE7000002E400E00CED00E0C5
:1079A000523A313A453A310A000000007C27800003
:1079B000523A313A453A330A00000000523A313A1D
:1079C000453A320A00000000523A313A453A360A46
:1079D00000000000523A313A453A340A00000000F3
:1079E000523A313A453A350A00000000523A313AEB
:1079F000453A370A00000000523A313A453A390A0E
:107A000000000000523A313A453A380A00000000BE
:107A1000523A313A453A31300A000000523A313A8E
:107A20006164765F73746172745B25645D3A2045AE
:107A30003A3078253032780A0000000070B5E6B0A0
:107A4000EFF311841548017815480068C0F302204F
:107A5000401C012282408818C0B280F3118868F46B
:107A600045D406465DF44CD569F4EED285B225B90D
:107A70004FF4B5710B48FAF706FF4FF4CA7101A82D
:107A8000FAF723FF01A860F411D6304668F4F8D362
:107A9000E0B280F3118866B0284670BD02E400E0D1
:107AA0000CED00E0801781002DE9F84304460D46F7
:107AB0000027EFF311862448017824480068C0F3BA
:107AC0000220401C012282408818C0B280F3118835
:107AD00068F40CD4804623461DA210210020009596
