:020000040100F9
:1020000000008400A1210001A9210001894C800069
:10201000DF2D0001DD2D0001A92E000100000000D0
:102020000000000000000000000000009D4C800047
:10203000B321000100000000B5210001B921000119
:1020400000F002F800F082F80AA090E8000C824448
:102050008344AAF10107DA4501D100F077F8AFF225
:10206000090EBAE80F0013F0010F18BFFB1A43F076
:1020700001031847DC9501002C9601000A444FF03B
:10208000000C10F8013B13F0070408BF10F8014BD7
:102090001D1108BF10F8015B641E05D010F8016B1C
:1020A000641E01F8016BF9D113F0080F1EBF10F880
:1020B000014BAD1C0C1B09D16D1E58BF01F801CBA3
:1020C000FAD505E014F8016B01F8016B6D1EF9D526
:1020D0009142D6D370470000103A24BF78C878C127
:1020E000FAD8520724BF30C830C144BF04680C601E
:1020F000704700000023002400250026103A28BF66
:1021000078C1FBD8520728BF30C148BF0B60704769
:10211000642900F0D581782900F03982732900F014
:102120003885002070471FB516F0F2FB04480549BA
:1021300000F070FC00F023FB00F040FC1FBD00002D
:10214000B0828000B002810010B510BDDFF80CD065
:10215000FFF7E9FF0CF044F800F057FD00008400A1
:1021600003B4FFF7F1FF03BC00F0BDFE0B49D1F84B
:1021700000C04A685CF8043B1068184442F8040B3D
:102180008C4528BFA1F1DC0C8A4228BFA1F1DC02FA
:10219000C1F800C04A6020F00040704744828000CF
:1021A0000648804706480047FEE7FEE7FEE7FEE7F1
:1021B000FEE7FEE7FEE7FEE7FEE70000792E0001FE
:1021C00071E3000170B5A0FB0140B4F1805170F1E2
:1021D000000024BF002070BD204600F031F805004B
:1021E0001CBF214600F0A1FB284670BD02F0FF0392
:1021F00043EA032242EA024200F099BB704770476B
:1022000058585247010000001555000000200001F9
:10221000002000016EED52490101000000000000A5
:1022200000000000000000000000000000000000AE
:10223000000000000000000000000000000000009E
:1022400070B5064600F0CCFB056806F10B0020F0E7
:102250000704B4429CBF002070BD2B466A68BAB127
:102260001068A04210D304F1080188423CBF5068B6
:10227000586007D35168101941601168091B01604B
:1022800058601460101D70BD13465268002AE7D1D3
:102290002146284600F0AAFB0028DED170BD70B5AB
:1022A0000446051F00F09CFB0068002C14BF446826
:1022B00070BD002C18BFAC423CBF20466468F8D308
:1022C00001680A18AA4218BF456003D12A6805466A
:1022D0001144016028684119A1421CBF6C6070BDA7
:1022E0006168696021680844286070BD53EA020C87
:1022F00000F069802DE9F04B4FF00006002B1FBF66
:10230000B3FA83F503FA05F424FA05F65E4012BF2A
:102310001643B2FA82F502FA05F4C5F120051EBF94
:1023200022FA05FC44EA0C04203556EA044C4FEA34
:10233000144418BF641C4FF000084FF0000990428D
:1023400071EB030C39D3002919BFB1FA81F701FAF7
:1023500007F6B0FA80F700FA07F6C7F120071EBFAC
:1023600020FA07FC46EA0C062037B6FBF4FCA7EB84
:102370000507103F07F01F0BCBF120060CFA0BFBF3
:102380002CFA06F644BFB3460026202FA4BF5E46B3
:102390004FF0000B5BEA060C08BF4FF0010B19EB86
:1023A0000B09ABFB027C48EB0608C01B06FB02CC0A
:1023B0000BFB03CC71EB0C01C1E70B460246414617
:1023C0004846BDE8F08B13B54FF000004FF0000118
:1023D000AFF30080BDE81C40704700000FB4044913
:1023E00010B503AA029800F0D9FB10BC5DF814FBED
:1023F000D84380000FB41CB5084B06AA7B4469463D
:102400000090059800F09BFB04460020694600F010
:10241000A9FB20461CBC5DF814FB0000650700000A
:1024200070B5044685690068C10601D5302600E014
:102430002026C00707D070BDD4E90121304690475F
:10244000206A401C20626D1EF6D570BD70B5044632
:1024500085690078C00707D170BDD4E9012120202B
:102460009047206A401C20626D1EF6D570BD70B585
:102470000C460546012A05D02878800600D5EA6971
:10248000002302E0012305E05B1C934202D2E05CE2
:102490000028F9D1A869E618C01AA861286A18446A
:1024A00028622846FFF7BCFF04E0D5E9012114F8B3
:1024B000010B9047B442F8D32846FFF7C7FF70BD21
:1024C0002DE9F0410646002410687529314616A50D
:1024D00010D0AFF30080002802DA404213A507E0D5
:1024E00031688A0701D512A502E0490704D511A574
:1024F000012401E0AFF3008000210A2206F1240745
:1025000009E0B0FBF2FCB0FBF2F302FB1C00303040
:1025100078541846491C0028F3D123462A463046F1
:10252000BDE8F04100F0ACBA000000002D00000052
:102530002B00000020000000F0B40D4601880905C2
:1025400002D5214C7C4402E01F4C7C440E34002117
:1025500000F1240608E002F00F071209E75D42EAE5
:1025600003721B097754491C52EA0307F3D102781E
:102570000023120704D5702D06D009B102231134AF
:102580002246F0BC00F07CBA01231034F8E770B5A5
:1025900004460D4621461068AFF3008002462946E6
:1025A0002046BDE870400023C6E7D21D22F0070395
:1025B000D3E90023C0E70368126843F020030360F7
:1025C0000823C3610023B7E7449001002DE9F05FC1
:1025D000894604464FF0000ADFF874B1FB44C0F8A6
:1025E00020A02046E1688847002874D0252806D01E
:1025F000D4E901219047206A401C2062F1E70026BF
:102600005F462046E16888472028054607DB312DD4
:1026100005D2781910F8200C08B10643F1E7B0078D
:1026200001D526F00406C4F81CA00027C4F818A0A1
:102630002A2D09D0284600F04FFC38B304EB870858
:10264000303DC8F8185019E059F8041B204604EB37
:1026500087029161E1688847012F054618D1E0693A
:10266000002820DA26F020061DE0D8F8180000EB3C
:10267000800005EB40003038C8F818002046E168BB
:102680008847054600F028FC0028EED1012F0AD02B
:102690002E2D08D12046E16888477F1C0546022F71
:1026A00046F02006C4DBA069002803DA404246F069
:1026B0000106A061F00701D026F010066C2D0BD0AA
:1026C000682D09D04C2D39D06A2D35D0742D35D0D8
:1026D0007A2D33D016E038E0E1682F46204688474F
:1026E000B842054609D16C2F26D04FF48060E168CE
:1026F000064320468847054604E06C2F1AD04FF465
:10270000807006430DB3A5F14100192802D8203589
:1027100046F400664A462946204626604E46FFF7A4
:10272000F7FC80B101280BD0F61D26F0070000F160
:10273000080956E74020E4E78020D8E70020D6E7E4
:1027400006F104094DE7284652E7206ABDE8F09FEC
:10275000D48F01000B4910B5A1F17C020A4CC2E9EB
:102760003712372106E000EB104342F82130074BC7
:1027700000FB03400B1EA1F10101F4DC10BD0120A0
:10278000E8E70000E4818000E119D666CD0D010084
:1027900040EA010310B59B070FD1042A0DD310C8DE
:1027A00008C9121F9C42F8D020BA19BA884201D930
:1027B000012010BD4FF0FF3010BD1AB1D30703D078
:1027C000521C07E0002010BD10F8013B11F8014B2E
:1027D0001B1B07D110F8013B11F8014B1B1B01D14A
:1027E000921EF1D1184610BD10B5431C02E010F83E
:1027F000011B71B18107FAD14FF0013202C88C1A66
:102800008C4314EAC211F9D0C01A0A0603D0C01EC4
:1028100010BDC01A10BD0A0401D0801E10BD0902EF
:10282000FCD0401E10BD032A40F2308010F0030C93
:1028300000F0158011F8013BBCF1020F624498BF13
:1028400011F801CB00F8013B38BF11F8013BA2F1B0
:10285000040298BF00F801CB38BF00F8013B11F02B
:10286000030300F02580083AC0F0088051F8043BCB
:10287000083A51F804CBA0E80810F5E7121D5CBF38
:1028800051F8043B40F8043BAFF30080D20724BF6B
:1028900011F8013B11F801CB48BF11F8012B24BFFF
:1028A00000F8013B00F801CB48BF00F8012B70474E
:1028B00010B5203AC0F00B80B1E81850203AA0E8DB
:1028C0001850B1E81850A0E81850BFF4F5AF5FEA0F
:1028D000027C24BFB1E81850A0E8185044BF18C9C2
:1028E00018C0BDE810405FEA827C24BF51F8043B69
:1028F00040F8043B08BF7047D20728BF31F8023BBD
:1029000048BF11F8012B28BF20F8023B48BF00F850
:10291000012B704701F0FF03114601B543EA032282
:1029200042EA024200F003F801BD4FF00002042920
:10293000C0F0128010F0030C00F01B80CCF1040CEE
:10294000BCF1020F18BF00F8012BA8BF20F8022B22
:10295000A1EB0C0100F00DB85FEAC17C24BF00F8C8
:10296000012B00F8012B48BF00F8012B70474FF0F6
:10297000000200B5134694469646203922BFA0E8CF
:102980000C50A0E80C50B1F12001BFF4F7AF0907DB
:1029900028BFA0E80C5048BF0CC05DF804EB8900CC
:1029A00028BF40F8042B08BF704748BF20F8022B0F
:1029B00011F0804F18BF00F8012B704770B5064C1E
:1029C0007C44064D7D4403E0206820448047241D5C
:1029D000AC42F9D170BD0000DC8C0100DC8C010040
:1029E00000487047548280007047704738B50446ED
:1029F0000A4600206946AFF30080002808BF38BDB2
:102A000002460099204600F0DBF8012038BD012085
:102A100000F0F4B8F8B5AFF30080054600200C468E
:102A2000102000BF0646A819A0420DD932466946BB
:102A30000020AFF30080070008BF00F0DFF8009827
:102A4000A04218BF0546C419FFF7CAFF0560074634
:102A5000F01D20F007004619284600F00AF8B4429D
:102A600008BFF8BDA21B31463868BDE8F84000F049
:102A7000A7B800210160C0E901107047102070471D
:102A80002DE9F0470D4699469246044600F1240888
:102A90000168880604D5E06921F01001216000E09A
:102AA0000120A84201DD471B00E00027A1697A1937
:102AB00002EB0900081AA0612078C00602D4204663
:102AC000FFF7AEFC002608E0D4E901211AF8060061
:102AD0009047206A401C761C20624E45F4DB20782B
:102AE000C0060AD52046FFF79BFC06E0D4E9012189
:102AF00030209047206A401C2062381EA7F1010751
:102B0000F4DC07E0D4E9012118F805009047206AB9
:102B1000401C2062281EA5F10105F3DC2046FFF7CA
:102B200095FC2078000602D50220BDE8F087012040
:102B3000FBE7000001694A1C02610878704700B594
:102B40008FB0CDE901310021059105497944CDE9E6
:102B5000031011466846FFF739FD0FB000BD0000B5
:102B6000E5FFFFFF0A6802F8010B0A60704710B525
:102B7000436913B1AFF3008001E0FFF778FC012057
:102B800010BD127800F124010A7000224A7001225F
:102B9000EDE711684FF0FF32E9E70000074B70B531
:102BA0000D467B44FFF7CBFF0446284600F022F891
:102BB00010B14FF0FF3070BD204670BDEF540000E3
:102BC000034640688C46002818BF88423CBF034635
:102BD0004068F8D318681844884207D00CF1030005
:102BE00020F00700001D411A521A0146081D0A6014
:102BF000FFF755BB007B00F08000704710B500F078
:102C000013F8BDE8104000F009B810B50446AFF362
:102C100000802046BDE81040FFF7A2BA002801D08E
:102C200000F061B97047000010B5012805D00021FF
:102C300003A000F021F8012010BD09A1F8E7000071
:102C400053494752544D454D3A204F7574206F6695
:102C50002068656170206D656D6F727900000000FD
:102C60003A2048656170206D656D6F727920636FE1
:102C7000727275707465640070B505460C460A2062
:102C800000E06D1C00F030F935B128780028F8D14B
:102C900002E0641C00F028F914B120780028F8D173
:102CA000BDE870400A2000F01FB9000010B51E48B2
:102CB0000068002800D080471C4900200870811E51
:102CC0001B4801601B494FF0007008601A4CD4F893
:102CD000C002800704D4F42218A11DA004F4CAF095
:102CE0002A480168D4F8C40261F31D3040F00100A5
:102CF000C4F8C40203F418F400214FF03040C1605E
:102D00008161C1174161016203F4CAF30848403888
:102D1000016821F4800101601D480068002802D08C
:102D2000BDE81040004710BD60248000B44A800018
:102D300044C500A080E200E000E000A07277697066
:102D40005F736C6565705F636F6D6D6F6E2E630092
:102D50004D43555F5355422D3E424C455F44534CC5
:102D60004545505F434F52525F454E2026204D430C
:102D7000555F5355425F424C455F44534C45455067
:102D80005F434F52525F48575F454E0054248000C6
:102D90006424800000214FF03040C1608161C11780
:102DA000416101620649022004220A60BFF34F8F8D
:102DB000BFF36F8F0860BFF34F8FBFF36F8F704704
:102DC00080E100E004490220C1F800010860BFF37F
:102DD0004F8FBFF36F8F704780E100E0FEE7FEE7A3
:102DE0001BF47A910249096801F0070101707047EC
:102DF00004C500A030B4062821D212490A6802F0A6
:102E00000702824212D00A680F4B1A400F4C22432D
:102E10000A6000BF00BF00BF00BF0A681A400C4B29
:102E2000024333F8203042EA83420A6008491839E5
:102E300051F820000749086030BC76F4DB9030BCC4
:102E40007047000004C500A0F8FFE3FF050008007C
:102E5000908901010041800004480068044900F0A5
:102E6000070051F8200003490860704704C500A01E
:102E700078890101004180000248016841F4700135
:102E80000160704788ED00E002480068001D1EF4F4
:102E9000E3930000CC43800002484068001D1EF40C
:102EA000DB930000CC438000FEE7002804DB00F148
:102EB000E02090F80004704700F00F0000F1E020DF
:102EC00090F8140D7047000002480068C0F302201B
:102ED000704700000CED00E030380A2801D20120D4
:102EE0007047002070477047704700002DE9F05F81
:102EF0000746894693464FEA5B04A2464D465F4E1D
:102F0000DFF87C81EFF31080012181F31088D8F87D
:102F1000A41221F02001C8F8A41280F31088EFF366
:102F20001080012181F31088D8F8A01221F020012F
:102F3000C8F8A01280F31088306820F0804030601C
:102F4000504830603F20D8F8001160F30501C8F800
:102F50000011306820F4601040EAC74030603068EB
:102F600020F4E02040EA07403060052F03D13068AC
:102F700040F400403060062F03D1306840F48040B8
:102F80003060306840F400503060306820F06050AD
:102F90003060306820F00F0040F003003060EFF345
:102FA0001080012181F31088344A3832116821F0F1
:102FB000E04141F08041116080F31088306840F0BA
:102FC0008040306001E0D8F80000D8F80401C0F378
:102FD00000200028F7D1EFF31080012181F3108841
:102FE000116841F00041116080F3108834E0002046
:102FF0004FF47A711AE0884217D9306820F0804087
:103000003060306840F000403060306820F00040B0
:1030100030600AF089FA1C480168491C0160544676
:103020004D46052078F4EBD56CE7401CD8F8042118
:10303000C2F30022002ADED0D8F8040100F07F019C
:10304000A14200D92146002003E0D8F8002004C5A1
:10305000401C8842F9D3641A002CC8D15FEACB70B7
:1030600008D0D8F80401C0F300200028F9D0D8F81F
:1030700000002880BDE8F05F0AF056BA08C500A03D
:1030800000E000A00A070807644C800010B5036840
:103090000B44036092F900408B4201D2012000E012
:1030A00000202044107010BD2DE9F04107460E4667
:1030B0004FF000080024274D0BE004EBC40005EBA3
:1030C0008000801C07223946FFF762FB40B1641C78
:1030D000E4B22878A042F0D8B8F1000F18D102E08D
:1030E0004FF00108F8E728780A21B0FBF1F201FB64
:1030F00012040A2801D2401C287004EBC40105EB1D
:1031000081003968C0F80210B988C180B9790172AC
:103110002B7811A21021002003F4AEF630780007BE
:103120000BD504EBC40005EB800006F14601BDE8B9
:10313000F0410A301C22FFF776BB04EBC40005EB1C
:10314000800006F12A01BDE8F0410A301C22FFF799
:103150006ABB0000987E8000523A313A6164642074
:103160006C746B206974656D2C206E756D203D202C
:1031700025640A0041420843C01770470449896B1F
:10318000084004490A78104300220A707047000082
:10319000002001A070488000104A114900280EDC70
:1031A0000868C0F34120012808D0506C401C5064CE
:1031B000086820F4C06040F40070086070470A2876
:1031C000FCDB086810F4C06FF8D0106C401C106471
:1031D000086820F4C060086070470000C4488000A0
:1031E0000CC500A0014878F447930000DC43800040
:1031F0002DE9F041014600291BD000240F4E0E4A54
:10320000357814E002EB04100F780378BB420CD140
:103210004B684068034208D0707808B900F0C2FBE0
:103220002046BDE8F04100F0EBBA641CE4B2AC42C9
:10323000E8D3BDE8F081000094788000E843800086
:103240007CB505460E46002D01D0002418E005206F
:103250007CBD05EB041041680091017A8DF80410E3
:10326000417A8DF8051007218DF80610C2680078A4
:103270000023694600F048F80028E9D1641CE4B254
:10328000B442E6D300207CBD10B50C46062833D2EC
:10329000DFE800F0030303101E27184951F830003F
:1032A0002104090C04D018B1214606F0F7FE1FE0F6
:1032B000042010BD2004000C03D0A1B2104806F079
:1032C000EDFE200C14D0210C0E4806F0E7FE0FE0B6
:1032D00014F0FF0F03D0204606F0E6FC08E00420BF
:1032E00010BD14F0FF0F05D02146002007F0F6F8BE
:1032F000002010BD042010BD062010BDBC890101B6
:10330000000001A0001001A02DE9F05F05460C4669
:103310009046994627680026052D13D03946284641
:10332000FFF7B2FF2146284600F0ACF800280AD18A
:10333000042D0AD0032D2ED04FF0100B2807060EB7
:10334000002491E00620BDE8F09F4FF0080B2079A3
:10335000042806D0052809D006280DD0072815D145
:1033600010E00021384601F406F60FE040F20111AA
:10337000384601F400F609E04FF00111384601F437
:10338000FAF503E03B49384601F4F5F54FF00070DB
:1033900075F4AED6D4E74FF0200BD1E7F80760D034
:1033A000052D65D2DFE805F003030325460032480A
:1033B00000EBC50090F904A0BAF1000F17D0EFF3AD
:1033C0001081012080F31088A01900EB40022B48E7
:1033D00000EB8200C0F80480C0F8089081F31088E8
:1033E000504618F419D7504618F434D739E0042061
:1033F000A9E7EFF31082012080F31088A0191F4B7A
:1034000000EB400003EB8001C1F80480C1F8089094
:10341000032103F8201082F31088062018F4FCD64C
:10342000062018F417D7072018F4F6D6072018F44A
:1034300011D716E0EFF31081012080F31088A01956
:1034400000EB40020E4800EB8200C0F80480C0F898
:10345000089081F31088122018F4DED6122018F498
:10346000F9D67F08641CE4B25C4597D300206AE774
:10347000062068E701010100BC8901013475800064
:10348000B476800070B58EB005460C46564901F101
:1034900064004DC8CDE90A02CDE90C36D1E91E23FE
:1034A000486F06AED1F880100DC6099114224E491E
:1034B000843101A8FFF7FCF9ACB14C49062013F0A8
:1034C000BBFD4B49072013F0B7FD4A49122013F00A
:1034D000B3FD4549444A2C31062D7CD2DFE805F086
:1034E00006060621415905200EB070BD207931F83D
:1034F00010000B90607932F810000C90A0790D90BC
:1035000020680A903848143050F8350021880904A2
:10351000090C04D018B10AA906F00EFE59E00420E7
:10352000E2E7207931F810000B90607932F8100052
:103530000C90A0790D9020680A9020680104090C75
:1035400005D080B20A900AA92B4806F0F5FD206844
:10355000010C3ED0000C0A900AA9284806F0ECFDA8
:1035600037E0207901EB4000408A0790607902EB58
:103570004000C0880890A0790990206806902078C3
:1035800010F0FF0F03D006A806F0D0FB21E00420C6
:10359000AAE72079031F032B01D80720A4E70228FC
:1035A0001AD001200290207901EB4000808C03901A
:1035B000607902EB400080890490A0790590206832
:1035C0000190207810F0FF0F09D001A9002006F02B
:1035D000CDFF002088E704E002200290E3E704200A
:1035E00082E7062080E70000A8890101134D8000D2
:1035F0000D4D8000094D8000000001A0001001A0C9
:1036000010B502460C460020062A26D2DFE802F05A
:103610000303030B1A1F114850F83200A1B2BDE892
:10362000104003F42BB42104090C03D0A1B20C48C0
:1036300003F424F4210C10D0210CBDE810400948FB
:1036400003F41CB4A0B2BDE8104003F419B4A1B255
:10365000BDE81040002006F08CBF10BDBC89010100
:10366000000001A0001001A0002803D0024908605A
:103670000120704700207047F043800070B5054678
:103680000024091F062917D2DFE801F003070C11F7
:103690001315284600F0A4F80EE00124284600F097
:1036A0009FF809E00224284600F09AF804E0032479
:1036B00002E0042400E00524034A2146284612685B
:1036C000BDE8704010470000F04380002DE9F04154
:1036D0000446204600F0AEF801462E480023082696
:1036E000025D00F10A0700F11405AAB1052A33D0E2
:1036F000082A2AD1092945D0082926D1295D491C43
:10370000C9B22955142920D32B5506552046BDE8AA
:10371000F0410821FFF7B2BF052913D0042916D0C4
:10372000072914D0082910D1295D491CC9B229558F
:1037300014290AD32B5506552046BDE8F04108212F
:10374000FFF79CBF3B5505210155BDE8F0812046A0
:10375000BDE8F041FFF792BF05290CD0395D491C47
:10376000C9B239553229F0D303552046BDE8F0419E
:103770000521FFF783BF03552046BDE8F041062130
:10378000FFF77CBF03552046BDE8F0410921FFF754
:1037900075BF00007479800070B504460D4600F0D6
:1037A0000FF808B100F014F90348044A2946005DF7
:1037B0005268BDE87040104788788000E843800078
:1037C0000020064911F810200AB100207047401C63
:1037D000C0B20A28F6D30120704700009279800019
:1037E0000349002201F8102001EB400042707047AD
:1037F00092798000014A02F8101070479279800097
:10380000024A012102EB400041707047927980002A
:1038100070B50024064D05EB4400407810B12046F9
:10382000FFF754FF641CE4B20A2CF4D370BD00000F
:103830009279800070B500211D4B03F132051A5CAE
:10384000002A09D0002403F10A06012A0AD0022A1C
:1038500012D0032A24D11FE015F8102002B3012250
:103860001A541DE015F810201AB1345402221A54CB
:1038700016E01C54042113E015F810204AB1325C04
:10388000521CD2B23254642A0AD3072103221A549A
:1038900006E005211C5403E015F8101011B10821B1
:1038A000084670BD1C54FFF79BFF0921F8E7000094
:1038B00060798000704700002DE9F0410E46174600
:1038C0000A2E02D80FB1002320E00020BDE8F081CD
:1038D00003EB430410F82410032901D0042913D169
:1038E00000EB8405114AA97AD154104910F824201C
:1038F0000C3101EB0314227069686160297A21722E
:10390000697A61720A49E1605B1CDBB2B342DFD3C2
:10391000064831460C30FFF793FC064806704760B6
:103920000548FFF7A1FE0120D0E70000887880005D
:10393000F1310001E8438000993700012DE9F041A1
:103940000024124FDFF8488019E0002607EB041529
:1039500028786968FFF754FE10B9697A012902D006
:10396000012802D005E0012603E0687A022800D190
:10397000012631462046FFF73DFF641CE4B298F86B
:1039800000008442E1D3BDE8F0810000947880001B
:10399000E843800010B5FFF7D1FFBDE81040FFF706
:1039A00037BF000010B5074A0121074800F048F86A
:1039B00000220A21044800F091F9044901204870CE
:1039C00010BD00009539000138798000E84380007F
:1039D00010B5034800F05DF802490020487010BDA2
:1039E00038798000E8438000002806D0002904D000
:1039F000024AD269002A00D01047704760788000E0
:103A000070B50D4616460D4C00280AD001780329E2
:103A100011D80121A17601461A222046FEF703FFA4
:103A200005E00020A0761A210448FEF7A0FFE5611A
:103A30002662002070BD012070BD0000607880000B
:103A40002DE9F04104460D461746002D04D0012D06
:103A500002D00120BDE8F081CCB1C7B1EFF31186EF
:103A60000220FFF722FA8046FFF72EFA401C0121C0
:103A7000814008EB0100C0B280F311880020607023
:103A8000A570E761F0B280F311880020E2E7012021
:103A9000E0E710B50446002C0CD0204600F0B0F949
:103AA000FF2060700021A160E16021616161002060
:103AB000E06110BD012010BDF0B5DDE907450599B5
:103AC00081614FF47A76A2FB061C03FB06C3002734
:103AD00002FB0732C0E9021209196A41C0E9041267
:103AE00000210162F0BD00002DE9F0410446002CE8
:103AF00013D0EFF311850220FFF7D7F90746FFF740
:103B0000E3F9401C012606FA00F03844C0B280F305
:103B100011881248002121620EE00020BDE8F081EA
:103B2000D4E90432D1E9047CDB1B72EB0C0202D233
:103B3000016A216203E00846016A0029F0D10462AB
:103B40006670064820380168491C0160016C4160BC
:103B5000E8B280F311880120E0E7000038778000A8
:103B60002DE9F04105460024EFF311860220FFF70E
:103B70009CF90746FFF7A8F9401C012181407818FD
:103B8000C0B280F31188134A106CE8B115B102F18C
:103B9000200010E00446206A10641068401E106087
:103BA0000CE0A94206D11168491E1160296A016220
:103BB0002C4603E00846016A0029F2D124B1002016
:103BC00020626070106C5060F0B280F31188204663
:103BD000BDE8F081187780002DE9F041EFF31187FF
:103BE0000220FFF762F90446FFF76EF9401C01213D
:103BF00081406018C0B280F31188114D002608E0A2
:103C00002078012804D1E16909B1A06988472670AC
:103C10002D6A2C6A002CF3D1094D203D07E0E169A3
:103C200009B1A06988472670206AA8602662AC683E
:103C3000002CF4D1F8B280F311880120BDE8F081A6
:103C4000387780002DE9F041EFF311870220FFF76C
:103C50002CF90446FFF738F9401C012606FA00F05B
:103C60002044C0B280F311881B4DA5F1200829E043
:103C7000D4E90420D8E90413521A60EB0300D8E910
:103C800006319A1A814120D326702046FFF768FF3B
:103C9000A078012802D0104818380DE0D8E9043087
:103CA000D4E902219A184841C4E904202046FFF7CC
:103CB0001BFF07E001F1200001680029FAD1216211
:103CC000006804622C6A002CD2D1F8B280F311880B
:103CD0000120BDE8F0810000387780002DE9FF5F0A
:103CE00082460E4693464FF00008BAF1000F20D0EE
:103CF000414886421DD8E6B1EFF311870220FFF755
:103D0000D4F80446FFF7E0F8401C01218140601818
:103D1000C0B280F31188504609F076F910B19AF8D4
:103D2000010040B1F8B280F311880F2004B0BDE863
:103D3000F09F0120FAE70AF081F904460D464FF49E
:103D40007A7106FB01F022462B46002109F02CF97E
:103D5000DFF8A890B0B1D9F8040048B1D0E9041058
:103D6000091B60EB0500C9E904100AF003FA04E03E
:103D70000021C9F81010C9F814104FF00108D9E952
:103D8000040106E0D9F80400D0E90421101B61EB1E
:103D90000501CDE9020132460023CDF800B05046BE
:103DA000FFF78AFE5046FFF79FFE13F01BF94FF016
:103DB000E021D1F800014FF0806210F0806F01D057
:103DC000012000E0002018B9C1F88022C1F80021CC
:103DD000B8F1000F0AD0D9F80400D0E90431D9E9CC
:103DE0000402181A61EB02010AF05EF9F8B280F3DE
:103DF000118800209AE70000008AB9071877800030
:103E00002DE9F04104460025002C39D0EFF311874D
:103E10000220FFF74AF80646FFF756F8401C01213A
:103E200081407018C0B280F311886078012824D1D5
:103E3000144E7068A0420BD10AF000F9D4E90432A4
:103E4000181A62EB0102C6E904020AF093F901258F
:103E50002046FFF785FE5DB1706848B1D0E90421C6
:103E6000D6E90403101A61EB03010AF01DF904E01E
:103E70001DB9706808B90AF07DF9F8B280F31188AD
:103E8000BDE8F0811877800070B504461A4D55F8EA
:103E90002400703011F03BFD82B21646A2B155F8F5
:103EA000240090F8011101290ED0012180F804119D
:103EB000802A0FD355F82400802200F18001703051
:103EC00011F03AFD80260CE055F82410002081F80E
:103ED000000170BD55F8240000F18001703011F030
:103EE0002BFD55F82400324600F18001001D1DF421
:103EF000A1D50028EDD170BDCC43800070470000F3
:103F00002DE9F84304464B4E56F82400071D022CB9
:103F10007ED290F86C1000297AD0012978D180F8EF
:103F20000111002556F82400D0E903120A44017D4E
:103F300001F00101C91D02EB01084168CA6FC2F31B
:103F40008002002AFAD090F80411E1B1DFF8E8907D
:103F50006D1C56F82400001D07F07EFD10280BD0C4
:103F600056F82400D9F800108068B1FBF0F000FB8F
:103F700008F0B5EBC01FEBD956F82400703011F0F3
:103F8000C6FC85B226E0B0F82480C58C001D1DF467
:103F9000C9D156F8240041F2883300EB0801491BCF
:103FA0008031001D2A461DF40AD5E5E756F82400A5
:103FB00001227030694611F0BFFC56F824004068B9
:103FC000C16FC1F340010029FAD09DF800100160D3
:103FD0006D1EADB2002DE9D156F82400703011F0FD
:103FE00096FC0028C8D1386841694906FCD5EFF332
:103FF0001085012080F3108856F82400703011F0ED
:1040000086FC68B1EFF31081012080F3108800E096
:104010000DE03868426842F08202426081F3108805
:1040200056F82410002081F8010185F31088BDE8BE
:10403000F8830000CC438000004180002DE9F0436C
:1040400089B0054688462C78002D06D02AB1022C6E
:1040500005D3082009B0BDE8F0830520FAE7384E03
:1040600005F1580046F82400D2E900310A467030C4
:10407000194611F037FC291D894624220C31684667
:10408000FEF716FC291D286D0EC913F0C5FC00288B
:10409000E0D12C490C2012F0CFFF2B490D2012F05B
:1040A000CBFF2A4800EBC40797F9010018F4B4D0FD
:1040B00097F9010018F4CED056F82400C0F86490A7
:1040C00056F82400C0F8008056F824001822083062
:1040D00005F14001FEF7ECFB56F8241078684860C3
:1040E00056F82400001D07F08BFC56F82400001D34
:1040F00007F0BCFC351F0127287850B92F701348F2
:104100000321103011F008FA6880002801DA042039
:10411000A0E756F8240080F86C7056F824100020B0
:1041200081F8000156F8241081F8010156F8241096
:1041300081F8020156F8241081F803018AE7000093
:10414000CC438000892E0001992E0001488A01018C
:104150002DE9F04104461A4D55F82400703011F055
:10416000D6FB82B2164600277AB155F8240090F8A3
:104170000111012909D0802A0ED300F1800170308D
:10418000802211F0D9FB80260BE055F8240080F83E
:1041900000710020BDE8F08100F18001703011F065
:1041A000CBFB55F8240080F8047155F82400324602
:1041B00000F18001001D1DF483D40028EAD1E9E755
:1041C000CC43800070B5022801D3082070BD0C4D8F
:1041D00055F820407CB194F86C6066B169B162B169
:1041E000002684F8026155F82000001D1DF4E7D375
:1041F0000028EBD170BD052070BD042070BD00000B
:10420000CC4380002DE9F04106460C46174604F1E8
:104210000805204671F4D0D2C3B21B48E1184268A9
:10422000914202DD0320BDE8F0811849184A006878
:1042300009681268891A081A001FE91881421CD9F6
:104240004FF4004513A22946002002F415F600F0B1
:104250000DFD30B118A22946002002F40DF6082009
:10426000E1E71DA22946002002F406F63A4621465F
:104270003046BDE8F04113F097BD3A46214630463E
:10428000BDE8F04113F090BDD8328000D02380000B
:10429000CC238000523A353A4E5644532061726521
:1042A00061206973206265696E6720636F6D70615C
:1042B000637465642E0D0A00523A353A436F6D708F
:1042C000616374696E67204E564453206661696C61
:1042D00065640D0A00000000523A353A436F6D7074
:1042E000616374696E67204E56445320737563632F
:1042F00065737366756C0D0A000000007CB50D4691
:10430000002200920192694602F4BCF5044634BBD7
:104310004FF42051684602F4B7F5B8B942F60101EE
:10432000684602F4B1F588B942F60301684602F422
:10433000ABF558B942F60201684602F4A5F528B972
:104340004FF42451684602F49FF508B1062406E0B4
:104350000098C5F30B0180880843009988802046A7
:104360007CBD00002DE9F04105460C46FF26217A70
:104370001E2905D022480279521E52B200683AE046
:1043800004F10801284602F481F5064635E010F8EC
:1043900032308B422DD11B4E56F82500406F30B382
:1043A00000273B4618A24021002002F465F50620B4
:1043B00000EB05202BF4DED7C00605D5002717A299
:1043C0004021002002F458F521460C3956F825000A
:1043D000743002F45DF50020A08001266FB115A2B3
:1043E000402102F449F5284602F454F505E001277E
:1043F000D7E7521E52B2002AC9DA3046BDE8F08132
:104400007C058000C40E8000523A333A65786563BB
:104410007574653D307825780A000000523A333AC9
:10442000636F6E6E656374206E6F742063666D0AD1
:1044300000000000523A333A737461727420657858
:1044400065637574650A000010B5441E002C05D024
:1044500051F8240010B9641E002CF9D151F8240041
:1044600011F0B4FBC0F1200000EB441010BD0000BF
:104470002DE9F0410546884628466BF461D6C0B266
:104480002449097888420DD200EB4000213040F4E5
:1044900000404246AC2110F0CDF80446200032D056
:1044A000012430E06BF490D6C7B207EB470606F163
:1044B000200040F400402A46072110F0BBF810B15C
:1044C0000120BDE8F081384677F4CED706F121000F
:1044D00040F400404246AC2110F0ACF80446200005
:1044E00001D00120EDE7223646F4004073F48ED06F
:1044F0000949C7EBC7000968084429680160A98811
:104500008180A97981711CB941462846FEF7CCFD0E
:104510002046D6E7382380003C23800011F02EB9D6
:1045200010B5FFF7FBFF054903480860BDE81040E0
:10453000034877F40B92000017B8800474C500A0FC
:104540000087930310B50446002C0CD0204600F0E1
:1045500051F8002807D104494968002903D02046B2
:10456000BDE81040084710BD544B80000A2805D212
:10457000034A002152F8200080F88F107047000095
:10458000C40E800070B504460D46204612F032F984
:10459000002805D129462046BDE8704064F40A95FC
:1045A00070BD000000B58BB0094901200870FF22E2
:1045B000282101A8FDF71AFE4FF48070ADF8040021
:1045C0000020ADF8060001A8FFF7BCFF0BB000BD4E
:1045D000544B800010B506480068002800D0804782
:1045E00001F45AF108B1012010BD002010BD0000F7
:1045F000BC4A800070B50446002C1FD04FF6FF73F4
:104600001946228840F20155A2F201504FF48076FB
:10461000AA424CD01BDC40F20245A2F20240AA4260
:1046200034D00DDCA2F54072013A25D0012A23D006
:10463000FF2A29D0B2422ED121892CE0002070BD62
:10464000012825D0022825D0FE2824D12AE00428DC
:104650002DD006DC01282AD0022828D003281AD120
:1046600025E0052823D0062821D0B04213D12046CA
:1046700004F006FF002070BD204605F049F92046F1
:1046800005F05AF8002070BD218904E0218902E07C
:10469000618900E0218A99420ED0204605F048F950
:1046A000012070BD204605F0DBF8002070BD2046DB
:1046B00005F052F8002070BD002070BD70B50026D6
:1046C000150A0E4805EB450200EB0214098821800B
:1046D0000120A0702846FFF749FF00206BF4D0D5D9
:1046E0000748016829B10B681BB1228800212846C0
:1046F00098476BF4FBD5304670BD0000D42E800087
:10470000B82280003EB500241D0A0A78122A02D081
:10471000132A04D006E000208DF8000002E00120FA
:104720008DF800008888ADF804004888ADF80200D4
:10473000891D029100206BF4A3D50B48016829B1B3
:104740008A691AB169462846904708E09DF800003A
:10475000012804D1BDF804102846FFF713FF6BF4BD
:10476000C5D520463EBD0000B42280000148007837
:1047700070470000744C80007CB50E46150A00207E
:10478000009001906946284675F4F8D59DF80620FA
:104790006946284604F084FE0446CCB165F4F6D39D
:1047A000C0B165F4F3D3C01C81B232880023204627
:1047B0006FF4D4D76946284612F084F840B106A2B7
:1047C0004021002002F458F32146684661F43CD1B0
:1047D00000207CBD0020E7E7523A333A73617665EA
:1047E00020636363640A000010B58AB00446FF22A8
:1047F00028216846FDF7FAFC40F20271ADF800107E
:104800000021ADF802108DF804406846FFF79AFECB
:104810000AB010BD00230849496808E0CA888242EE
:1048200004D80A89824201D3CB6802E009680029D2
:10483000F4D1184670470000684C800070B51948E4
:104840000468194D2878002801D0002070BD4FF071
:10485000806074F44DD401F419F6600875F458D3EF
:10486000124908608817114901262C39086010493F
:104870007006C1F8FC01C8674FF03041086B40F08A
:1048800007000863094C303C206840F4E0202060B9
:1048900001F43EF62E70206820F4E0202060012014
:1048A00070BD00006C248000B44A800070C500A078
:1048B00084E000E070B50024EFF31086012080F35F
:1048C000108801F440F6104D28B102242968B9B1CE
:1048D0000220884714E0FFF77DFE20B1296879B1F6
:1048E000002088470CE0FFF7A9FF28B102242968BF
:1048F00031B10220884703E0296809B100208847C8
:1049000086F31088204670BD5C248000034900EBCC
:10491000800001EB80008088704700001C49800007
:10492000034A00EB800002EB8000818070470000AA
:104930001C4980002DE9F04FADF5477D80460D46BE
:104940009146B9F5C07F05D96FF037000DF5477D69
:10495000BDE8F08F4FF4D0715FA8FEF708F801A80A
:1049600009F024FD63AC4FEA19608DF88C01641CDA
:104970004FEA19408DF88D014FEA19208DF88E010C
:104980008DF88F9130208DF89301E41D4A46294619
:104990002046FDF748FF802004F8090009F11909B5
:1049A00000214BA84154491C2029FBDB4FF48072A5
:1049B0004BA901A809F0FEFCB0F1000B51D1002772
:1049C00000265FAD4796489649964A964C460DF5A7
:1049D0008E7A19E000211AF801006A5C50400AF84A
:1049E0000100491C1029F6DB1035102C01D31020D2
:1049F00000E02046241A47AB47AA012101A809F08C
:104A0000C2FCB0F1000B2CD1002CE3D153A83844E8
:104A1000102247A9FDF707FF9DF87F01401C8DF884
:104A20007F011037302FCCDB4FF4807253A901A8DF
:104A300009F0C0FCB0F1000B13D15BAE4546334624
:104A40003246012101A809F09EFCB0F1000B08D10B
:104A5000102231462846FDF7E6FE10351034302C82
:104A6000EDDB01A809F09BFC4FF4D0715FA80DF0BD
:104A7000B7FB302153A80DF0B3FB20214BA80DF05C
:104A8000AFFB102147A80DF0ABFBBBF1000F03D02B
:104A9000302140460DF0A4FB584657E710B500F012
:104AA00065F800F047F8BDE8104000F001B80000DC
:104AB00000B58FB003228DF800204FF48050019094
:104AC00005218DF8081001208DF8090000238DF8CC
:104AD0000A308DF80C20430304938DF814108DF8E0
:104AE00015008DF816008DF81820C30307938DF874
:104AF00020108DF821008DF822208DF824208203CB
:104B00000A928DF82C108DF82D0002228DF82E209F
:104B100004238DF830300D928DF838108DF839005F
:104B20008DF83A30024A6846FEF7C6FE0FB000BD67
:104B3000B53800017CB51026009602248DF804409B
:104B40008DF8054007258DF8065069460320FEF7CD
:104B500099FC00968DF804408DF805408DF80650BC
:104B600069460520FEF78EFC7CBD000000B587B0CD
:104B700000F01EF803208DF800001D208DF81600AF
:104B800001208DF817008DF818008DF81900044ADF
:104B900004496846FEF734FFFEF724FB07B000BD6A
:104BA000A94B0001014C00010020FFF7A9B900004A
:104BB0001CB5114800904FF48064019400F58060AA
:104BC000002101704FF4E1320264032242648164E7
:104BD000C1640165012141650274CB024361022376
:104BE0004374017602718460437101736A4603491C
:104BF000FFF724FA1CBD0000806F8000FD3E00011D
:104C00000A4601464FF47A730020FFF7DBBA000032
:104C10000E4910F1210F06DA086820F4704040F4C4
:104C200040500860704710F11D0206D3086820F458
:104C3000704040F48040086070470A28FCDD086836
:104C400020F4704040F4A0400860704724C500A0E4
:104C500010B511F091FD10F049FC12F033FC00F09A
:104C6000F3FDBDE8104010F02BBF00002DE9F04F20
:104C700087B07B48D0F8009000240025A24600268B
:104C800012F06EFD77480168C9F800104068C9F855
:104C90000400754800680830059009F10800069086
:104CA000042203A9059800F06DFDBDF80C10A1F5D4
:104CB0007F40FF3843D0082203A9059800F062FD29
:104CC000BDF80E0070F478D500F0FF08BDF80C00B8
:104CD000002867D00698A9EB000707F58057BDF8B4
:104CE0000E1008F1080083460844B84263D805ABAB
:104CF000082203A906A800F0D7F8BDF80E0000238B
:104D000000EB080205A906A810F084FC641CBDF89D
:104D10000E005844B842C3D10020CDE9006053468C
:104D20004A462146284612F055FF002826D18246E1
:104D300000260024CDF818906D1CEDB2B0E70020DD
:104D4000CDE9006053464A462146284612F042FF0C
:104D5000002813D16D1CECB2434D4FF48057434EE5
:104D600008E0286800EB0430394605F00DF940B141
:104D7000641CE4B2707AA042F3D8002007B0BDE80A
:104D8000F08F3B488169407A40F26242CDE90020D1
:104D90000291384B38A24FF40041002002F46CF02D
:104DA0000920EBE7BDF80E00059908F10808084452
:104DB0004044059074E7082F29D305AB082203A9C6
:104DC00006A800F071F8083F2FB100233A4605A964
:104DD00006A810F01FFC611C0020CDE900605346BE
:104DE0004A46284612F0F6FE0028C7D18246BDF892
:104DF0000E004044C61B0024CDF818906D1CEDB287
:104E00000023324605A906A810F004FC48E705ABCC
:104E10003A4603A906A800F047F8611C03A8CDE9AB
:104E2000006053464A46284612F0D4FE0028A5D119
:104E3000C7F1080ABDF80E0000EB08060024CDF803
:104E400018906D1CEDB20123524605A906A810F07A
:104E5000E1FB0023324605A906A810F0DBFB1FE7A3
:104E6000C0488000ACD50700CC238000D832800039
:104E7000641F8000FEB40101523A353A25732C209C
:104E80004C256420666C61736820737461746520BE
:104E90003078253032582C206572726F722030784D
:104EA000253038580D0A000070B5044615461E46D8
:104EB0002A462068FDF7B7FC306828443060206837
:104EC0002844206070BD000010B50548017B491CD6
:104ED0000173002074F48AD6BDE8104000F050B889
:104EE000C44880002DE9FE43FFF718FB1E48016807
:104EF00021F4003101601C4E083E30681B4980B22D
:104F0000084330601A4803C8CDE9000116482C3820
:104F10000068C82100F007001DF8000010FB01F533
:104F200014480768144CD4F800803846414604F011
:104F300071FF62686068831AAB42FBD34146384612
:104F400004F048FF10F026FB02909DF8080028B1FD
:104F50009DF80800094948618861C861306820F0FF
:104F60007F403060BDE8FE8330C500A000008F1197
:104F7000FC510001FCED00E0001000E0C44880009E
:104F80002DE9FC412D4E306820F07F4040F08850E4
:104F900030602B4803C8CDE9000128482438006858
:104FA00000F007011DF80100C82110FB01F525489C
:104FB0000768254CD4F800803846414604F02AFFA3
:104FC00062686368981AA842FBD34146384604F0E9
:104FD00001FF002510F0DEFA0446DFF87080D8F8F3
:104FE0001800844201D9012700E0002774F4A4D4FA
:104FF00040B91FB1D8F81800201A02E0D8F81800FC
:10500000001BC5B2D8F81800C8F82000B5EB900F07
:1050100003D8292C01D8112C02D200F019F807E08E
:1050200000EBC00020440A21B0FBF1F0C8F81800E2
:10503000306820F07F403060BDE8FC8128C500A0CA
:10504000FC510001FCED00E0001000E0C4488000CD
:105050002DE9F04F87B0002006900824DFF89081FA
:105060001A20C8F8140063480168634A89B21143E2
:10507000016005A8FDF7B6FE0220FDF7BBFEDFF8D4
:10508000749109F10809D9F8000020F47C3040F44B
:105090002030C9F8000059A003C8CDE90201DFF8AB
:1050A00054A1AAF1240ADAF8000002A900F00700CE
:1050B000085CC82110FB01F5DFF848B1DBF80000FF
:1050C0000190514F3E680198314604F0A3FE786884
:1050D0007968091AA942FBD33146019804F07AFE97
:1050E00010F058FA04909DF81010D8F8140081427E
:1050F00004D99DF81020811C8A4263D99DF81010B4
:10510000814204D29DF81020811E8A425AD29DF815
:105110001010814201D9012500E0002515B1641C61
:1051200064B201E0641E64B2202C11D3D9F80000EF
:1051300020F47C3040F42030C9F80000D8F83C005E
:10514000401CC8F83C00002004900120069039E083
:10515000D9F8000020F47C3040EA043040F40030FC
:10516000C9F8000025A003C8CDE90201DAF8000063
:1051700002A900F00700085C642110FB01F6DBF8CF
:105180000000019038680090DDE9001004F042FE54
:1051900078687968091AB142FBD3DDE9001004F0A0
:1051A00019FE10F0F7F9049035B19DF81000D8F809
:1051B00014108842B2D805E09DF81000D8F81410F9
:1051C0008842ABD39DF81400FDF714FE094801682E
:1051D00021F07F4101609DF81000C8F81800D8F850
:1051E0002400401CC8F82400069807B0BDE8F08FE2
:1051F000C448800028C500A000008F11403010185E
:1052000010200000FCED00E0001000E070B5044646
:105210000D46002C13D0102104F124000FF05AFE8B
:105220000821201D0FF056FE082104F164000FF044
:1052300051FE29462046BDE8704000F0DFBC70BD3D
:105240002DE9F04389B00546DDE910890C46164684
:105250001F46202101A8FDF78AFB42F21070002DA5
:105260000FD0002E0DD07CB1012C0AD101AA3946F5
:10527000304607F07BFD4B46424601A9284600F028
:10528000EBFA09B0BDE8F0833A46314601A8FDF7D4
:10529000CAFAF0E72DE9F04389B00546DDE9108947
:1052A0000C4616461F46202101A8FDF760FB42F27E
:1052B0001070002D0FD0002E0DD07CB1012C0AD122
:1052C00001AA3946304607F051FD4B46424601A936
:1052D000284600F0A5FB09B0BDE8F0833A46314608
:1052E00001A8FDF7A0FAF0E7F0B589B004460E4634
:1052F000202101A8FDF73BFB4FF0FF35ACB1A6B173
:10530000E768384604F02CFF384604F087FF41F286
:105310008830009001AB38462268A16805F06AF831
:10532000044624B1284609B0F0BD2846FBE72022F8
:1053300001A93046FDF777FA384604F011FF204600
:10534000F1E700002DE9FF4FADF5117D9FADDDF8D0
:10535000909295E8A00CDDF8788204460E461C2158
:105360008AA8FDF704FB4FF480714AA8FDF7FFFA05
:10537000202142A8FDF7FBFAB9F1010F16D042AA8D
:105380009499939807F068FDDFF8AC904CB1B8F1B0
:10539000000F06D02FB1B6F5806F02D3B6F5006FBF
:1053A0000AD948460DF5157DBDE8F08F42A8949ABC
:1053B0009399FDF738FAE7E7F0088B90CDF8408233
:1053C0008C97CDF838A2CDF83CB28D9520788DF829
:1053D0002802BAF1000F10D14FF4807102A8FDF736
:1053E000C6FA4AA88E908FA88E99CDE9001002AB1C
:1053F0003A4631468AA810F0F4FB032D04D0112D53
:1054000002D0B5F1011F00D18D95207858B1012847
:1054100001D04846C6E742A98AA8A39A10F056FED2
:1054200001212170BEE742A98AA8A39A10F004FEC8
:1054300000212170B6E700005F79FEFF2DE9FF4FE4
:10544000ADF5117D9EACDDF88CA294E8100B0646FC
:105450000F4600251C218AA8FDF789FA4FF48071B8
:105460004AA8FDF784FA202142A8FDF780FABAF194
:10547000010F15D042AA9499939807F0EDFCDFF83C
:10548000ACA046B1B8F1000F05D0B7F5806F02D3DC
:10549000B7F5006F0AD950460DF5157DBDE8F08FC0
:1054A00042A8949A9399FDF7BEF9E8E7F8088B9023
:1054B000CDF83082CDF83892CDF83CB230788DF806
:1054C0002802B9F1000F10D14FF4807102A8FDF746
:1054D0004EFA4AA88E908FA88E99CDE9001002ABA3
:1054E00042463946304610F07CFB032C07D0112C85
:1054F00005D0B4F1011F02D0554615B113E08D94CB
:10550000FBE73078012801D038B10CE042A98AA825
:10551000A29A10F097FE054605E042A98AA8A29A31
:1055200010F0A2FD05462846B6E700005F79FEFFB1
:105530002DE9FF4105460F461646002000900190D8
:1055400002900390002D08D0684600F037F86846B6
:1055500000F04AF8041E11D104E04FF0FF3004B00F
:10556000BDE8F0813A462946684600F059F8041E25
:1055700004D13146684600F006F80446684600F05B
:105580000AF82046EBE7002802D009B1FFF7ACBECD
:105590004FF0FF30704770B50446002C0DD0A06866
:1055A000002510B1FCF77BFEA560E06810B1FCF7A8
:1055B00076FEE56025606560A56070BD10B50446A7
:1055C000002C0FD0002020606060A060E0607C2094
:1055D000FCF736FEE060002804D0BDE810407C21D6
:1055E000FDF7A3B910BD000070B50446002C11D022
:1055F000A068002520B1FCF752FEA560656025601B
:10560000E06806490160102141608560C560456120
:10561000002070BD4FF0FF3070BD0000005801A0A9
:105620002DE9F04705460F469046296801EB080929
:1056300000244FF0FF3A002D17D0B7B1A86810B181
:10564000686848452BD24FEAE97009EB9060012168
:1056500001EBA01080016860FCF7F2FD0646300007
:1056600006D06968FDF761F908E05046BDE8F087AB
:105670005046FBE7A868005D3055641C2868A042CE
:10568000F8D8002003E0395C3155641C401C4045CB
:10569000F9D3A86808B1FCF702FEAE6008E000206C
:1056A00004E0AB683A5C5A54491C401C4045F8D3AE
:1056B000C5F800900020D9E780EA0102431A93431D
:1056C00011401943C80F70472DE9F04F8DB0804647
:1056D00089460DF1040B302101A8FDF748F9002798
:1056E00008F1200A102408EB040515F8010D401CF0
:1056F00010F0FF062E7002D1641E002CF3DC5B4616
:1057000042460121504608F03EFE041E1AD10BF11C
:10571000100B1037302FE5DB002301A919F8032007
:10572000C85C5040C8545B1C302BF7DB4FF48072D0
:1057300001A9504608F03EFE041E03D109A80FC877
:10574000A8E80F00302101A80CF04AFD0DB020465A
:10575000BDE8F08F0A49322808DDD1F8200220F494
:10576000706040F44070C1F8200270472828FCDACD
:10577000D1F8200220F47060C1F8200270470000C8
:1057800000E000A02DE9F04105460E461746094C01
:105790002378002B02D0002070F482D33A463146A1
:1057A000284604F031FC0546207870F479D3284669
:1057B000BDE8F081C92380002DE9F04105460E4681
:1057C0001746094C2378002B02D0002070F468D3D0
:1057D0003A463146284604F027FC0546207870F406
:1057E0005FD32846BDE8F081C92380002DE9F04150
:1057F0000E4605461146E86DC01DC408A34200D8F8
:105800001C46224630460CF013FA071E18D1E86DEC
:10581000B0EBC40F06D2C0EBC40130460CF0CAFA9C
:10582000071E0DD105F14C010C4630460BF043FA32
:10583000002805DB2246314630460CF0C0FB074607
:105840003846BDE8F08100000121024A00206AF4D8
:105850008B910000D99A00012DE9F043DDB0064696
:105860000C4617469846202155A8FDF780F84021A0
:1058700045A8FDF77CF820213DA8FDF778F8202108
:1058800035A8FDF774F820212DA8FDF770F8202128
:1058900025A8FDF76CF842F21070002E7ED0356816
:1058A000002D7BD0002C79D0002F77D0B8F1000FDD
:1058B00074D0202221463DA80FF062F800203DACB4
:1058C00054F82020C0F1070154F8213044F820306A
:1058D00044F82120401C0428F2DB20211DA8FDF7FC
:1058E00046F8202115A8FDF742F820210DA8FDF764
:1058F0003EF8202105A8FDF73AF806F164000821DA
:10590000814600F02FFA40B14946304600F05DF97B
:105910002022494655A8FCF7CBFF202255A925A8EF
:10592000FCF7C6FF1DA9304600F04FF915A9304617
:1059300000F04BF90DA9304600F047F905A93046B3
:1059400000F043F945AB002255A9304607F0E0F9D5
:1059500005F184023B46914645A9304607F0BAF965
:105960003DAB4A463DA9304607F0B4F935A804904E
:10597000301DCDE9027581460090019455AB15AA02
:105980001DA9304611F0E0F9202225A955A8FCF701
:105990008FFF2DA855AB05AA0DA900E039E0CDE990
:1059A0000094CDE902750490304611F0CDF908233A
:1059B0002DAA35A919480FF00BF842F2117508B15C
:1059C0002C460CE000244FF48072002135A80EF024
:1059D000B0FF08B3202235A94046FCF769FF7CB12F
:1059E000082140460FF076FA082138460FF072FA87
:1059F000082155A80FF06EFA082125A80FF06AFAC1
:105A0000082135A80FF066FA08212DA80FF062FAD8
:105A100020465DB0BDE8F0832C46E0E72DCD0001C7
:105A20002DE9F047F4B0054689461746984600260A
:105A300020216CA8FCF79BFF202164A8FCF797FFAE
:105A400020215CA8FCF793FF202154A8FCF78FFFCE
:105A500020214CA8FCF78BFF202144A8FCF787FFEE
:105A600020213CA8FCF783FF202134A8FCF77FFF0E
:105A7000402124A8FCF77BFF402114A8FCF777FF06
:105A8000402104A8FCF773FF42F21070002D6BD088
:105A90002C68002C68D0002F66D0B8F1000F63D0BE
:105AA0002022494634A80EF06BFF002034AA52F899
:105AB0002030C0F1070152F821C042F820C042F85E
:105AC0002130401C0428F2DB04F184024CAB9146E7
:105AD0003946284607F0FEF844AB4A464146284678
:105AE00007F0F8F84FF480784246002138460EF06F
:105AF00020FF42F2127AD0B364AB4A4634A928465A
:105B000007F0E8F86CA9D4F8C400CDE9000104F16D
:105B1000A4031F464A4644A9284600F02FF954F82A
:105B2000C40F5CA9CDE9007002914B466CAA64A930
:105B3000284600F03EF9206854A9CDE90070029192
:105B40004B466CAA4CA9284600F033F914AB00224E
:105B50005CA9284607F0DCF814A9284600F07AF87A
:105B600042F2137430B1204674B0BDE8F087FFE70D
:105B7000564628E004AB05F1240254A9284607F054
:105B8000C7F804A9284600F065F808B12046EBE7FD
:105B900024AB04AA14A9284600F030F93CAB4A46CD
:105BA00024A9284607F096F824A9284600F052F8C0
:105BB00008B12046D8E742464CA93CA80EF0A1FE09
:105BC00008B15046D0E73046CEE770B50D46002804
:105BD00013D000240668843607F0A8F845F824009E
:105BE000641C082CF8D329683068814201D3401E18
:105BF0002860E86940F00200E86170BD10B5044615
:105C00000846002C02D00EF007FF206010BD0021D6
:105C1000002802D142F21070704750F821201AB9C2
:105C200000EB8102126A0AB100207047491C082962
:105C3000F3D301207047002150F821201AB900EB5E
:105C40008102126A0AB100207047491C0829F3D367
:105C5000012070472DE9F041B2B005460E462021E3
:105C60002AA8FCF784FE202122A8FCF780FE202130
:105C70001AA8FCF77CFE202112A8FCF778FE202150
:105C80000AA8FCF774FE202102A8FCF770FE1DB9DB
:105C9000286808B9002E60D02C682AA904F14003B6
:105CA000D4F88000CDE9000104F160021F4690465F
:105CB0003146284607F022F822A954F8800FCDE992
:105CC00000013B46424606F12001284607F016F83F
:105CD0001AAE2068CDE900063B462AAA2AA9284622
:105CE00007F00CF82068CDE900063B462AAA1AA95D
:105CF000284607F003F854F8800912A9CDE90001FD
:105D00003B4622462AA9284606F0F8FF0AAE3B4643
:105D100012AA1AA92846009606F0D4FF3B4604F1C1
:105D200020020AA92846009606F0CCFF02A9D4F862
:105D30008000CDE900013B4622AA22A9284606F0B0
:105D4000DDFF4FF4807202A90AA80EF0DAFD38B127
:105D500042F2137032B0BDE8F08142F21070F9E700
:105D60000020F7E7002205E050F822300BB10020B8
:105D70007047521C8A42F7D3012070472DE9F8433F
:105D80000746DDE908850E4614464FF4807200216F
:105D900030460EF0CEFD002809D02078C00706D08E
:105DA0004346224631463846009506F09FFFBDE83F
:105DB000F8832DE9F047C2B00646DDF828814C9DF6
:105DC0004B9C894692461F464FF4807102A8FCF70F
:105DD000CEFD02A8CDE900403B465246494630463A
:105DE00006F08CFF3B46424602A93046CDE900450D
:105DF00006F084FF42B0BDE8F08700002DE9F04FC7
:105E0000D5B081460F4690461E4620214BA8FCF790
:105E1000AEFD202143A8FCF7AAFD20213BA8FCF7FA
:105E2000A6FD202133A8FCF7A2FDB9F1000F13D085
:105E3000D9F80040002F0FD0B8F1000F0CD0002E81
:105E40000AD0002C08D03846FFF7E1FE38B14022D6
:105E500041463046FCF72CFD55B0BDE8F08F40467A
:105E6000FFF7D5FE28B1402239463046FCF720FD29
:105E7000F2E7402241463846FCF78AFC010007F170
:105E800020000DF5967A54907BD04022414638464A
:105E9000FCF77EFC002873D020212BA8FCF767FDBF
:105EA000202123A8FCF763FD20211BA8FCF75FFD40
:105EB0002BA804F1400300901D4608F1200148463C
:105EC000549A06F00BFF23A800902B463A46414611
:105ED000484606F003FF1BA9D4F88000CDE9000175
:105EE00004F160039B462A4623A94846FFF746FF74
:105EF000D4F880002B46CDE900B01BAA2BA9CDF821
:105F000008A04846FFF755FF04F1600043AAD4F803
:105F100080108DE80700834604F140039A464BAA9F
:105F20004BA94846FFF745FF3BAD53463A4643A9C8
:105F30004846009506F0D2FE534642463BA94846E5
:105F4000009606F0CBFE33A8009053463246394601
:105F5000484606F0C3FED4F880005346CDE900B0B1
:105F600033AA4BA902954846FFF723FF2036534634
:105F700000963BA94846549A06F0B0FE6CE700E054
:105F800076E04FF48072002154980EF0D2FC002885
:105F900069D020212BA8FCF7EAFC202123A8FCF7DC
:105FA000E6FC20211BA8FCF7E2FC202113A8FCF74B
:105FB000DEFC202231490BA8FCF77AFC20222F4975
:105FC000203103A8FCF774FC0DF1AC0BD4F8800071
:105FD000CDE9010B04F1600504F140033A4639466E
:105FE000009553934846FFF7E4FE54F8801F1BA822
:105FF000CDE9005102902BAA03A94846539BFFF715
:10600000D8FE13A8009003AA1BA94846539B06F08C
:1060100065FE2068CDE9010B00950BA94846539B0E
:10602000549AFFF7C6FE20222BA923A8FCF740FCB8
:106030001BA82168CDE900102B462BA94846539A8E
:10604000FFF79CFE202223A92BA8FCF731FC54F873
:106050008009CDE9010A00951BAA13A94846539B64
:10606000FFF7A7FE50E740213046FCF780FCF3E63F
:1060700040213046FCF77BFCEEE6000030B2010127
:106080002DE9F043AFB004460E460025402118A884
:10609000FCF76DFC202110A8FCF769FC202108A862
:1060A000FCF765FC914892494FF00009C0F8009058
:1060B000001D8842FAD1CDF8B090CDF8A890A06824
:1060C000400940002B90E06818AF0DF1400801280E
:1060D0007DD070682A9A016820460EF0E7FE20699C
:1060E0008047189000208349834A189B00F1010CD7
:1060F00003FB0CF347F8203000EB400C189B8C445A
:1061000003FB0CF300F1080C47F82C3000EB001CEB
:10611000189B944403FB0CF348F82030401C0828DB
:10612000E3D32068016C41F480710164A0684000F1
:10613000A060102218A920460EF0B8FEA068400802
:10614000A06061682022403120460EF0AFFE6168F9
:106150002822603120460EF0A9FE70683022416886
:1061600020460EF0A3FE7068382241682046203198
:106170000EF09CFE402210A920460EF097FED02281
:10618000204661680EF092FE6168D82220312046D8
:106190000EF08CFE002008AA4021636801EB800706
:1061A000DB59DB4342F82030401C0828F5D30F9818
:1061B000401C0F90C82208A920460EF077FED4E9B3
:1061C0000001D1F880108163A168206800E019E027
:1061D00007F06AFB306800286ED0206850F8801FF6
:1061E00041F007010160206850F8841F41F003016D
:1061F00001602068016841F0020101602FB028466B
:10620000BDE8F08320216846FCF7B1FB2069804798
:106210000790206980470690069840F0004006905D
:1062200000252069804747F825002069804705F14F
:10623000080147F821002069804748F825006D1CB7
:10624000082DEED3694620462A9A0EF02FFE61688B
:106250002B9A843120460EF029FEA168206807F0B1
:1062600023FB60202890CDF8A49041F288302E9036
:1062700028A920460EF0E6FC70682B9A016820469B
:106280000EF014FEA0684100206807F00DFB70209E
:10629000289028A920460EF0D5FC054620692768DD
:1062A0008047B866206927688047B8672068016C16
:1062B00041F40071016434E72068016841F0020193
:1062C0000160002201212046F3680EF0AFFD054673
:1062D000280005D12068D0F88000800700D501256E
:1062E0002068016821F00201016087E7004801A0F1
:1062F000005001A071D9BCFA1111E1DF10B54FF4C3
:1063000098710120FBF75EFF044614B1204608F0A7
:10631000C1FB204610BD042801D000207047012099
:10632000704710B50446204608F08AFB2046BDE8B9
:106330001040FBF7B4BF00002DE9FF4F9BB00646AD
:10634000DDE92C9A18AF19AD0CA8059004913078AE
:1063500008F074FB98B1706D88B101211E980AF0A5
:1063600093FC002807DB06F14C011A911E980AF0F5
:10637000A2FC002805DB54481FB0BDE8F08F53484D
:10638000FAE70FA808F07AFF0CA80BF075F909A836
:106390000BF072F906A80BF06FF94FF00008CDF87A
:1063A0006080DFF824B1ABF1800B3868411C3960A4
:1063B0000A2801DD5C4679E0C5F800802868411CA8
:1063C00029600A2801DD5C4670E0DDE92A233046B9
:1063D000059908F071FD041E68D1CDE9009A06F117
:1063E0002803CDF808800FA93046059A08F090FEE2
:1063F000041E5BD10FA91A9A04980BF065FB041ECA
:1064000054D1002104980AF03FFC0028D6D0DDE9E1
:10641000282309A93046FFF7E9F9041E46D153465F
:106420004A4606A9304608F047FD041E3ED1DDE984
:106430001D0204990BF098FB041E37D109A909A885
:106440001D9A0AF09FFB041E30D106AA09A909A8CB
:106450000BF08AFB041E29D1059906AA08460BF009
:1064600083FB041E22D105991A9A08460BF02CFBD7
:10647000041E1BD11A9A05991D980BF003F9041EEE
:1064800014D11D9909AA08460BF06EFB041E0DD10C
:106490001D991A9A08460BF017FB041E06D100211D
:1064A0001D980AF0F1FB00283FF47FAF0FA808F019
:1064B000D3FE0CA80BF016F809A80BF013F806A8E9
:1064C0000BF010F8204657E780B3FFFF80B0FFFFC6
:1064D0002DE9FF41DDE90A76DDE90C54CDE90076CE
:1064E000CDE9025408F096FB04B0BDE8F081F0B5A8
:1064F000A5B0074615461C460DF1930001900A46CB
:1065000002A901A808F01CF900281FDB06463A463C
:1065100002A901A808F014F9002817DB0644324646
:1065200002A901A808F09EF800280FDB06443022DB
:1065300002A901A808F043F9002807DB0644324607
:1065400028460199FCF76FF92660002025B0F0BDC0
:106550002DE9F04F99B00546DDF888A00C4693462A
:1065600099460DF13C080CAF03A808F087FE15A86A
:106570000BF082F812A80BF07FF80FA80BF07CF854
:106580000CA80BF079F8287808F058FAF0B1686D8B
:10659000E0B1012150460AF077FB3C4E002813DBA6
:1065A00005F14C01504618910AF085FB00280BDAE2
:1065B000012123980AF068FB002805DB189923982D
:1065C0000AF079FB002805DB34464DE0304819B06D
:1065D000BDE8F08F5B46224615A92846FFF706F96D
:1065E000041E41D112A8189A23990BF04BF8041EEF
:1065F0003AD112AA15A940460BF0B6FA041E33D1BF
:1066000041464046189A0BF05FFA041E2CD112AA9C
:10661000514638460BF0A8FA041E25D139463846B3
:10662000189A0BF051FA041E1ED1CDE900790290A0
:1066300005F12803424603A9284608F0CFFD041EB1
:1066400012D103A808F02EFD08B134460CE003A9CE
:1066500003A8189A0BF038FA041E05D1514603A876
:106660000AF029FB00B1344603A808F0F5FD15A88F
:106670000AF038FF12A80AF035FF0FA80AF032FF1F
:106680000CA80AF02FFF2046A1E7000000B2FFFF90
:1066900080B0FFFF38B511461C46DDE90432009298
:1066A000224608F0F9F910F5984F00D1004838BD9E
:1066B00000C7FFFF10B54FF498710120FBF782FD72
:1066C000044614B1204608F009FD204610BD0228FA
:1066D00005D0032803D0042801D0002070470120F2
:1066E000704708F059BB000002220A7002A24A60FB
:1066F000883088607047000065636B65792E5100B3
:1067000010B50446204608F0D7FC2046BDE81040EE
:10671000FBF7C5BD806D70472DE9F04FD1B05AAD84
:10672000044695E8E001894692469B4605A808F094
:10673000B1F9214605A808F088F9041E08D18DE8B2
:10674000E0015B465246494605A8FFF7C1FE0446F4
:1067500005A808F075F951B02046BDE8F08F2DE985
:10676000F043CFB00446569E579D0F46904699463B
:1067700003A808F08FF9214603A808F066F9041E63
:1067800008D1CDE900654B464246394603A8FFF7DC
:1067900081FF044603A808F053F94FB02046BDE836
:1067A000F083022803D0032801D000207047012085
:1067B000704700002DE9F04395B080460F4616461D
:1067C0001D4606F11800002181460AF05DFA98B1D5
:1067D000286A05F1180420B1002120460AF054FA75
:1067E00078B1286A90B1012120460AF04DFA68B1CB
:1067F0007D4815B0BDE8F0832946384608F042FBD5
:10680000F7E73146384608F03DFBF2E712A80AF0F8
:1068100033FF0FA80AF030FF0CA80AF02DFF09A8DB
:106820000AF02AFF06A80AF027FF03A80AF024FFAF
:1068300068460AF021FF4B464A4612A940460BF033
:1068400082F9041E41D14B4612AA0FA940460BF013
:106850007AF9041EF6D12B4612AA12A940460BF073
:1068600072F9041EEED105F10C030FAA0FA94046E0
:106870000BF069F9041EE5D1334612AA12A940466D
:106880000BF080FB041EDDD106F10C031D460FAAA0
:106890000FA940460BF076FB041E16D1002112A86A
:1068A0000AF0F2F940B112AB4A46694640460BF095
:1068B0004AF9041E09D110E000210FA80AF0E4F9FA
:1068C00020B1384608F048FD044676E032463946A5
:1068D000404600F096F904466FE012AB12AA0CA9EC
:1068E00040460BF030F9041E67D112AB0CAA09A97F
:1068F00040460BF028F9041E5FD133460CAA0CA9C0
:1069000040460BF020F9041E57D10CA912A80AF03A
:106910001DFA041E51D1012212A940460BF031FA92
:10692000041E4AD10FAB0FAA06A940460BF00BF983
:10693000041E42D112AB06AA06A940460BF022FB68
:10694000041E3AD109AB06AA06A940460BF01AFB71
:10695000041E32D106AB0CAA0CA940460BF012FB68
:10696000041E2AD10FAB0CAA0CA940460BF0EBF881
:10697000041E22D12B4609AA09A940460BF0E3F8D0
:10698000041E1AD109AB0CAA03A940460BF0FAFA6F
:10699000041E12D106A938460AF0D8F9041E0CD1FB
:1069A00003A907F10C000AF0D1F9041E05D16946CC
:1069B00007F118000AF0CAF9044612A80AF092FD7D
:1069C0000FA80AF08FFD0CA80AF08CFD09A80AF0A8
:1069D00089FD06A80AF086FD03A80AF083FD684633
:1069E0000AF080FD204604E780B0FFFFF0B587B0D5
:1069F00005460F46002138460AF046F9394E002870
:106A000013DB07F10C00002104460AF03DF90028D1
:106A10000BDB291D38460AF04EF9002805DA291D3E
:106A200020460AF048F9002802DB304607B0F0BDE6
:106A300004A80AF021FE01A80AF01EFE2346224601
:106A400004A928460BF07FF8041E42D13B463A4683
:106A500001A928460BF077F8041E3AD1A86948B17D
:106A600005F1100301AA01A928460AF071F8041ED5
:106A70002FD117E0032201A901A80BF06CFA041E24
:106A800027D106E02A1D01A901A80AF07BF8041EFF
:106A90001FD10198002805DA002101A80AF0F4F8B6
:106AA0000028EFD13B4601AA01A928460BF04BF87C
:106AB000041E0ED105F11C0301AA01A928460AF003
:106AC00047F8041E05D101A904A80AF0F4F800B1A2
:106AD000344604A80AF006FD01A80AF003FD20468A
:106AE000A4E7000080B3FFFF2DE9F04706460F46FC
:106AF00090469946791C3046FBF717FF00250EE0BB
:106B0000002409E007FB045148460AF07BFD715D53
:106B1000A04008437055641C4445F3D36D1CBD422E
:106B2000EED30021012017E0325C02EA01084A405E
:106B300002F00101C1F10103341814F8015D15FBE5
:106B400003FC02EA0C0141EA080182EA0C02325419
:106B500045EAC3122270401CB842E5D9BDE8F0876F
:106B60002DE9F04786B00446DDE90E8589461646D4
:106B70001F4603A80AF080FD68460AF07DFD04F177
:106B80004C00002182460AF03DFD012803D0184840
:106B900006B0BDE8F087002148460AF033FD40B159
:106BA00000202870494603A80AF0D0F8041E16D128
:106BB00001E00120F5E74A46514668460BF0FFF92F
:106BC000041E0CD12A78694603A80BF062F8041E53
:106BD00005D103AB424639463046FFF785FF68468C
:106BE0000AF080FC03A80AF07DFC2046D0E70000F4
:106BF00080B0FFFF10B508461146FBF796FE002057
:106C000010BD2DE9F0438DB005460F4616460AA883
:106C10000AF032FD07A80AF02FFD04A80AF02CFDA7
:106C200001A80AF029FDA86906F1180840B1334609
:106C3000324607A928460AF086FF041E7DD135E0BA
:106C40004346424607A928460AF07DFF041EF5D1B7
:106C500007AB324604A9284609F07AFF041EEDD19D
:106C600007AB324601A928460BF08CF9041EE5D18A
:106C700001AB04AA07A928460AF065FF041EDDD16E
:106C8000032207A90AA80AF052FF041ED6D106E083
:106C90002A1D0AA90AA80BF00CF9041ECED1291D41
:106CA0000AA80AF008F80028F2DA3BE0032207A954
:106CB0000AA80AF03CFF041EC0D106E02A1D0AA95A
:106CC0000AA80BF0F6F8041EB8D1291D0AA809F08D
:106CD000F2FF0028F2DA05F110000021814609F0E8
:106CE000D3FFF8B14346424607A928460AF02BFFD6
:106CF000041EA3D107AB07AA04A928460AF023FF64
:106D0000041E1AD14B4604AA07A928460AF01BFF05
:106D1000041E12D107AB0AAA0AA9284609F018FFD7
:106D2000041E0AD106F10C0399464A4604A92846D6
:106D30000AF009FF041E78D100E076E0012204A9E0
:106D400028460BF01EF8041E6FD104AB324607A98B
:106D500028460AF0F8FE041E67D1012207A928463A
:106D60000BF00FF8041E60D104AB04AA01A9284659
:106D70000AF0E9FE041E58D1012201A928460BF0B1
:106D800000F8041E51D10AAB0AAA04A928460AF049
:106D9000DAFE041E49D107AB04AA04A928460BF069
:106DA000F1F8041E41D107AB04AA04A928460BF050
:106DB000E9F8041E39D104AB07AA07A928460BF04D
:106DC000E1F8041E31D10AAB07AA07A928460AF048
:106DD000BAFE041E29D101AB07AA07A928460BF069
:106DE000D1F8041E21D143464A4601A928460AF09B
:106DF000AAFE041E19D1012201A928460AF0C1FFEA
:106E0000041E12D104A9384609F0A0FF041E0CD1BB
:106E100007A907F10C0009F099FF041E05D101A98B
:106E200007F1180009F092FF04460AA80AF05AFB7D
:106E300007A80AF057FB04A80AF054FB01A80AF0BF
:106E400051FB0DB02046BDE8F08307F0F1BC000017
:106E500070B5064692B008461546422D01D90B4C36
:106E60000DE02A4601A90BF0D7F8041E07D101ABAB
:106E7000002207493046009507F0ADFD044629463B
:106E800001A80BF0ADF912B0204670BD00B3FFFFB2
:106E9000F56B00012DE9F05F0AAE044696E8C00FDD
:106EA0001D46201D00F050FB2DB13246294604F14D
:106EB000100000F049FB4246394604F11C0000F086
:106EC00043FBDDE9111204F14C00064600F03CFBE7
:106ED0005246494604F1280000F036FB594604F1B9
:106EE0003400109A00F030FB0125256465640748E2
:106EF000A064201D09F072FEA065304609F06EFE08
:106F0000E06525660020BDE8F09F0000184780007E
:106F10002DE9F04F93B00446DDE91CB815461F4635
:106F20006068A84203D2002013B0BDE8F08F0120B2
:106F30000C900E9102210D910F9001A81190E81B69
:106F400061681290081A1090109805EB07094845DF
:106F500001D9CDF840902C2101A8FBF708FDA068CD
:106F600000EB8500A0EB87011098820001A8FBF7D9
:106F70009FFCBBF1000F05D059460FA80AF01AFF7D
:106F80000028D1D10D991098084410906E1EB8F1C8
:106F9000000F06D0A06850F8261001EA080140F85A
:106FA000261028464FF0000A03E0A16841F820A00F
:106FB000401C61688142F8D80CAA0FA90FA80AF0FA
:106FC000D3FD0028B0D10FAA2146204609F04EFD7E
:106FD0000028A9D161681298081A109010984845A5
:106FE00001D9CDF840902C2101A8FBF7C0FCA06886
:106FF00000EB8500A0EB87011098820001A8FBF749
:1070000057FCBBF1000F05D059460FA80AF0D2FE7D
:10701000002889D10D99109808441090B8F1000FFC
:107020000BD0A06850F8261001EA080140F826109D
:1070300003E0A06840F825A06D1C6068A842F8D85D
:107040000CAA0FA90FA80AF08FFD002899D10FAA4A
:107050002146204609F00AFD66E770B58EB0044669
:1070600000260D960120099009200A90CDF82CD019
:1070700024216846FBF77BFC102120460AF0D2FA57
:10708000051E70D1A06800680C90A0680DAA016A66
:107090000CA8FBF7FBFFA0680DAA416A0CA8FBF740
:1070A000F5FFA0680DAAC16A0CA80FF0CDFFA0687B
:1070B0000DAA016B0CA80FF0C7FFA0680DAA416BC9
:1070C0000CA80FF0C1FFA0680DAA816B0CA80FF0EF
:1070D000BBFFA1680C980860A06840680C909DF9FF
:1070E00034100D96002905DA0DAA49420CA80FF0BC
:1070F000ABFF03E00DAA0CA8FBF7C8FFA0680DAA20
:10710000416A0CA8FBF7C2FFA0680DAA816A0CA80F
:10711000FBF7BCFFA0680DAA016B0CA80FF094FF51
:10712000A0680DAA416B0CA80FF08EFFA0680DAAF5
:10713000816B0CA80FF088FFA0680DAAC16B0CA88A
:107140000FF082FFA1680C984860A06880680C90DE
:107150009DF934100D96002906DA0DAA49420CA8B3
:107160000FF072FF04E097E10DAA0CA8FBF78EFF69
:10717000A0680DAA816A0CA8FBF788FFA0680DAA79
:10718000C16A0CA8FBF782FFA0680DAA416B0CA88E
:107190000FF05AFFA0680DAA816B0CA80FF054FFE6
:1071A000A0680DAAC16B0CA80FF04EFFA1680C9847
:1071B0008860A068C0680C909DF934100D96002975
:1071C00005DA0DAA49420CA80FF03EFF03E00DAA14
:1071D0000CA8FBF75BFFA0680DAAC16A0CA8FBF71F
:1071E00055FFA0680DAAC16A0CA8FBF74FFFA06865
:1071F0000DAA016B0CA8FBF749FFA0680DAA016B53
:107200000CA8FBF743FFA0680DAA416B0CA8FBF785
:107210003DFFA0680DAAC16B0CA80FF015FFA06878
:107220000DAA016A0CA80FF00FFFA0680DAA416A11
:107230000CA80FF009FFA1680C98C860A06800694D
:107240000C909DF934100D96002905DA0DAA4942DB
:107250000CA80FF0F9FE03E00DAA0CA8FBF716FF2F
:10726000A0680DAA016B0CA8FBF710FFA0680DAA7F
:10727000016B0CA8FBF70AFFA0680DAA416B0CA8D4
:10728000FBF704FFA0680DAA416B0CA8FBF7FEFEFC
:10729000A0680DAA816B0CA8FBF7F8FEA0680DAAE8
:1072A000416A0CA80FF0D0FEA0680DAA816A0CA854
:1072B0000FF0CAFEA1680C980861A06840690C90A4
:1072C0009DF934100D96002905DA0DAA49420CA843
:1072D0000FF0BAFE03E00DAA0CA8FBF7D7FEA068DA
:1072E0000DAA416B0CA8FBF7D1FEA0680DAA416B5B
:1072F0000CA8FBF7CBFEA0680DAA816B0CA8FBF7CE
:10730000C5FEA0680DAA816B0CA8FBF7BFFEA068A4
:107310000DAAC16B0CA8FBF7B9FEA0680DAA816A83
:107320000CA80FF091FEA0680DAAC16A0CA80FF07E
:107330008BFEA1680C984861A06880690C909DF94B
:1073400034100D96002905DA0DAA49420CA80FF059
:107350007BFE03E00DAA0CA8FBF798FEA0680DAA1F
:10736000816B0CA8FBF792FEA0680DAA816B0CA89C
:10737000FBF78CFEA0680DAAC16B0CA8FBF786FE7C
:10738000A0680DAAC16B0CA8FBF780FEA0680DAA2F
:10739000816B0CA8FBF77AFEA0680DAA416B0CA8C4
:1073A000FBF774FEA0680DAA016A0CA80FF04CFE52
:1073B000A0680DAA416A0CA80FF046FEA1680C98BF
:1073C0008861A068C0690C909DF934100D96002961
:1073D00005DA0DAA49420CA80FF036FE03E00DAA0B
:1073E0000CA8FBF753FEA0680DAAC16B0CA8FBF715
:1073F0004DFEA0680DAAC16B0CA8FBF747FEA06864
:107400000DAAC16B0CA8FBF741FEA0680DAA016A8A
:107410000CA8FBF73BFEA0680DAA816A0CA80FF030
:1074200013FEA0680DAAC16A0CA80FF00DFEA0689B
:107430000DAA016B0CA80FF007FEA0680DAA416B06
:107440000CA80FF001FEA1680C98C86108209DF9F6
:107450003410002900DC0021A26811620C9603E0C0
:10746000A2680C9942F820106168401C8842F7D34A
:107470009DF9340000280FDA09A94242DDE90A0328
:10748000401E43F82020224620460AF012FD10B983
:107490004FF0FF31216005460EB0284670BD000058
:1074A0001CB5002100910B46019108220149FFF70C
:1074B0002FFD1CBD1C47800070B505460C46606E54
:1074C000002808D0286800280CDA0021284609F096
:1074D000DBFB70B906E0221D29462846BDE8704056
:1074E0000AF0F2BA284609F079FBA16DB0EB410F22
:1074F00001D9144870BD616E28468847061E1ED10A
:1075000006E0221D2946284609F03CFB061E16D13E
:10751000286800280DDA0021284609F0B5FB00286C
:10752000EFD106E0221D294628460AF0C2FC061EBD
:1075300005D1211D284609F0BEFB0028F2DA3046AD
:1075400070BD000080B0FFFF01230360920842601D
:10755000816070472DE9FF4FD7B00646DDF890A156
:107560000027002407A807F055F9BAF1000F0CD145
:10757000DFF80CA107A86590F06DC01DC2085999ED
:107580006598FFF765FC051E5BD15A9806F134013A
:107590000C3009F090FB28B906F128015A9809F03F
:1075A0008AFBB0B14FF000094946304600F00EFAB0
:1075B0008046A8F1010001218140CFB2F16D014464
:1075C000B1FBF8FBB9F1000F06D0746F24B10120B4
:1075D00018E04FF00109E7E724213846FAF7F2FDF9
:1075E0000446200001D0002509E0264D29E005EBE6
:1075F000C50004EB800007F041FE6D1CEDB2BD42FA
:10760000F5D3002078B966984346CDE900B021460D
:1076100030465A9A00F0E8F9051E12D1B9F1000F70
:1076200001D07467B767659966988DE88009CDE9E0
:1076300003A1059023463046599A589900F024F842
:10764000054607A807F0D2F8706FA04200D10024C9
:1076500074B1002607E006EBC60004EB800007F0DB
:10766000FBFD761CF6B2BE42F5D32046FAF717FEB4
:1076700015B1589807F0F0FD5BB02846BDE8F08FD3
:107680004B6E000180B2FFFF2DE9F04FC9B082467A
:1076900053A8DDF848B190E8E1010C4694469946BC
:1076A00048A9CDE900012B4606AA61465046FFF7DE
:1076B00057FA00281ED106A88DE8E1015B464A462C
:1076C0002146504600F019F8002813D19DF82021DA
:1076D0002146504600F072FA00280BD13B46324654
:1076E0002146504600F002FA002803D121465046B8
:1076F00000F04DF849B0BDE8F08F2DE9FF4F8BB099
:107700008046DDE91AABDDE918640F46914602A810
:1077100007F0B4FD305D00904A46394640460E9B66
:1077200000F06EFA051E2BD1012107F118000AF0B6
:1077300027F9051E24D15B4652463946404600F0E3
:10774000D5F9051E1CD119E0641E3A46394640465B
:10775000FFF757FA051E13D1305D00904A4602A983
:1077600040460E9B00F04CFA051E09D102AB3A468A
:1077700039464046FFF71EF8051E01D1002CE3D123
:1077800002A807F069FD0FB02846BDE8F08FF0B5FC
:1077900087B007460D4605F118000021064609F09E
:1077A00073FA68B104A809F067FF01A809F064FF43
:1077B0003A1D314604A809F065FF041E2AD102E0F3
:1077C000002007B0F0BD04AB04AA01A938460AF0B6
:1077D000BAF9041E1ED101AB2A46294638460AF0E2
:1077E000B2F9041E16D105F10C02154601AB29466B
:1077F00038460AF0A8F9041E0CD104AB2A462946E3
:1078000038460AF0A0F9041E04D1012130460AF0DE
:10781000B7F8044604A809F065FE01A809F062FE65
:107820002046CEE72DE9F0478AB082460E469146C3
:10783000B9F1020F06D250463168FFF7A8FF0AB02F
:10784000BDE8F0870C214846FAF7BCFCB0F100080F
:1078500001D0002408E05C48F1E704EB440008EBA9
:10786000800009F009FF641C4C45F6D307A809F015
:1078700003FF04A809F000FF01A809F0FDFE31682C
:107880004046183109F062FA051E7DD1012711E04A
:10789000781E00EB400008EB800256F8273007EB1B
:1078A000470008EB8001183350460AF04CF9051EDA
:1078B00070D17F1C4F45EBD3A9F1010000EB4000D4
:1078C00008EB80010AF1040207A809F0DBFE051E9F
:1078D00060D1A9F1010464B1601E00EB400008EB27
:1078E000800307AA04A950460AF02DF9051E51D1BC
:1078F00006E007A904A809F029FA051E4AD109E003
:1079000056F8243007AA183307A950460AF01BF985
:10791000051E3FD104AB04AA01A950460AF013F991
:10792000051E37D156F8241001AB0A4650460AF01E
:107930000AF9051E2ED156F8241001AB0C310A4667
:1079400050460AF000F9051E24D156F8241004AB65
:107950000C310A4650460AF0F6F8051E1AD156F8C0
:107960002400DAF808100AF064FA051E12D156F85D
:107970002400DAF808100C300AF05BFA051E09D171
:1079800056F82400183000E004E009F0ABFD0CB11B
:10799000641EA0E707A809F0A5FD04A809F0A2FD50
:1079A00001A809F09FFD002406E004EB440008EB69
:1079B000800009F097FD641C4C45F6D34046FAF769
:1079C0006EFC28463BE7000080B2FFFFC26DB2F5B7
:1079D000C07F01D3052000E0042009B1401CC0B2E3
:1079E000824200D8022070472DE9F04F9FB00C462C
:1079F000289E804611460025A3F1010B4FF0010A95
:107A00000AFA0BF0C7B2204607F03CFA002869D109
:107A100006FB0BF91FE0B5FBF6F00AFA00F0C0B266
:107A200000EBC00104EB810BB5FBF6F106FB115135
:107A300049B9400800EBC00004EB8001584607F04C
:107A400021FA00284ED15A4659464046FFF7D9F848
:107A5000002847D16D1CA945DDD800220120E94648
:107A600009E000EBC00104EB81031146521C49F808
:107A700021304006000EB842F3D369464046FFF776
:107A8000D1FE00282ED1012519E02E4605EBC500B8
:107A900004EB800A0EE006EBC60004EB8002A81996
:107AA00000EBC00004EB800153464046FEF782FE27
:107AB000002817D1761E701CEDD16806050EBD4258
:107AC000E3D3002207E002EBC20004EB8000243085
:107AD00049F82200521C501CB842F4D36946404673
