:020000040100F9
:10200000000084004D21000155210001A1498000FC
:1020100093280001912800013929000100000000E7
:10202000000000000000000000000000494B80009C
:102030005F21000100000000612100016521000115
:1020400000F002F800F071F80AA090E8000C824459
:102050008344AAF10107DA4501D100F066F8AFF236
:10206000090EBAE80F0013F0010F18BFFB1A43F076
:102070000103184794990000E49900000A444FF0C6
:10208000000C10F8013B13F0070408BF10F8014BD7
:102090001D1108BF10F8015B641E05D010F8016B1C
:1020A000641E01F8016BF9D113F0080F1EBF10F880
:1020B000014BAD1C0C1B09D16D1E58BF01F801CBA3
:1020C000FAD505E014F8016B01F8016B6D1EF9D526
:1020D0009142D6D370470000103A24BF78C878C127
:1020E000FAD8520724BF30C830C144BF04680C601E
:1020F000704700000023002400250026103A28BF66
:1021000078C1FBD8520728BF30C148BF0B60704769
:10211000782900F0C080002070471FB509F026FB29
:1021200000F088FA1FBD10B510BDDFF810D0FFF722
:10213000F4FF06F047FD00F05AF8000000008400AC
:1021400003B4FFF7F0FF03BC00F0FEFB0648804736
:1021500006480047FEE7FEE7FEE7FEE7FEE7FEE78C
:10216000FEE7FEE7FEE7000009290001CF8B000132
:102170000FB4044910B503AA029800F0DFFA10BCAE
:102180005DF814FBD843800070B50446856900688B
:10219000C10601D5302600E02026C00707D070BD5B
:1021A000D4E9012130469047206A401C20626D1E10
:1021B000F6D570BD70B5044685690078C00707D1B3
:1021C00070BDD4E9012120209047206A401C206284
:1021D0006D1EF6D570BD02F0FF0343EA032242EA0A
:1021E000024200F0E0B9007B00F08000704710B5BB
:1021F0000446AFF300802046BDE81040FFF7A0BFC3
:1022000058585247010000001555000000200001F9
:10221000002000016EED52490101000000000000A5
:1022200000000000000000000000000000000000AE
:10223000000000000000000000000000000000009E
:10224000F0B40D460188090502D5214C7C4402E01A
:102250001F4C7C440E34002100F1240608E002F0FB
:102260000F071209E75D42EA03721B097754491C04
:1022700052EA0307F3D102780023120704D5702D28
:1022800006D009B1022311342246F0BC00F0E4B9B3
:1022900001231034F8E770B504460D462146106856
:1022A000AFF30080024629462046BDE87040002377
:1022B000C6E7D21D22F00703D3E90023C0E7036875
:1022C000126843F0200303600823C3610023B7E7CB
:1022D0007C9700002DE9F05F894604464FF0000A24
:1022E000DFF874B1FB44C0F820A02046E1688847BD
:1022F000002874D0252806D0D4E901219047206A0F
:10230000401C2062F1E700265F462046E1688847CE
:102310002028054607DB312D05D2781910F8200C4E
:1023200008B10643F1E7B00701D526F00406C4F86A
:102330001CA00027C4F818A02A2D09D0284600F0B8
:10234000FCFA38B304EB8708303DC8F8185019E0A0
:1023500059F8041B204604EB87029161E168884725
:10236000012F054618D1E069002820DA26F0200662
:102370001DE0D8F8180000EB800005EB4000303875
:10238000C8F818002046E1688847054600F0D5FAED
:102390000028EED1012F0AD02E2D08D12046E16869
:1023A00088477F1C0546022F46F02006C4DBA06943
:1023B000002803DA404246F00106A061F00701D090
:1023C00026F010066C2D0BD0682D09D04C2D39D07D
:1023D0006A2D35D0742D35D07A2D33D016E038E003
:1023E000E1682F4620468847B842054609D16C2F40
:1023F00026D04FF48060E1680643204688470546B2
:1024000004E06C2F1AD04FF4807006430DB3A5F191
:102410004100192802D8203546F400664A4629466C
:10242000204626604E46FFF773FE80B101280BD090
:10243000F61D26F0070000F1080956E74020E4E702
:102440008020D8E70020D6E706F104094DE72846AA
:1024500052E7206ABDE8F09F0C97000040EA0103B4
:1024600010B59B070FD1042A0DD310C808C9121F3D
:102470009C42F8D020BA19BA884201D9012010BD77
:102480004FF0FF3010BD1AB1D30703D0521C07E044
:10249000002010BD10F8013B11F8014B1B1B07D1A8
:1024A00010F8013B11F8014B1B1B01D1921EF1D119
:1024B000184610BD032A40F2308010F0030C00F0E3
:1024C000158011F8013BBCF1020F624498BF11F86E
:1024D00001CB00F8013B38BF11F8013BA2F1040227
:1024E00098BF00F801CB38BF00F8013B11F003039F
:1024F00000F02580083AC0F0088051F8043B083A03
:1025000051F804CBA0E80810F5E7121D5CBF51F8A4
:10251000043B40F8043BAFF30080D20724BF11F81E
:10252000013B11F801CB48BF11F8012B24BF00F883
:10253000013B00F801CB48BF00F8012B704710B5F4
:10254000203AC0F00B80B1E81850203AA0E81850AB
:10255000B1E81850A0E81850BFF4F5AF5FEA027C6C
:1025600024BFB1E81850A0E8185044BF18C918C0DB
:10257000BDE810405FEA827C24BF51F8043B40F87C
:10258000043B08BF7047D20728BF31F8023B48BF61
:1025900011F8012B28BF20F8023B48BF00F8012B9F
:1025A00070474FF000020429C0F0128010F0030CB5
:1025B00000F01B80CCF1040CBCF1020F18BF00F836
:1025C000012BA8BF20F8022BA1EB0C0100F00DB8E5
:1025D0005FEAC17C24BF00F8012B00F8012B48BF43
:1025E00000F8012B70474FF0000200B513469446E7
:1025F0009646203922BFA0E80C50A0E80C50B1F15B
:102600002001BFF4F7AF090728BFA0E80C5048BF6E
:102610000CC05DF804EB890028BF40F8042B08BF0C
:10262000704748BF20F8022B11F0804F18BF00F808
:10263000012B704770B5064C7C44064D7D4403E089
:10264000206820448047241DAC42F9D170BD0000B1
:102650001C9400001C9400002DE9F0470D4699469B
:102660009246044600F124080168880604D5E06912
:1026700021F01001216000E00120A84201DD471B8C
:1026800000E00027A1697A1902EB0900081AA0618D
:102690002078C00602D42046FFF776FD002608E029
:1026A000D4E901211AF806009047206A401C761CE4
:1026B00020624E45F4DB2078C0060AD52046FFF79D
:1026C00063FD06E0D4E9012130209047206A401CD8
:1026D0002062381EA7F10107F4DC07E0D4E90121EC
:1026E00018F805009047206A401C2062281EA5F1BA
:1026F0000105F3DC2046FFF75DFD2078000602D5DA
:102700000220BDE8F0870120FBE7000001694A1CB8
:1027100002610878704700B58FB0CDE90131002122
:10272000059105497944CDE9031011466846FFF744
:10273000D1FD0FB000BD0000E5FFFFFF074B70B5F6
:102740000D467B44FFF7E7FF04462846FFF74BFDA5
:1027500010B14FF0FF3070BD204670BD0B1F000060
:1027600010B51E480068002800D080471C49002092
:102770000870811E1B4801601B494FF00070086003
:102780001A4CD4F8C002800704D4F42218A11DA06A
:1027900004F404F22A480168D4F8C40261F31D303D
:1027A00040F00100C4F8C40203F452F500214FF0D8
:1027B0003040C1608161C1174161016203F404F5D9
:1027C00008484038016821F4800101601D48006814
:1027D000002802D0BDE81040004710BD60248000F2
:1027E000C847800044C500A080E200E000E000A0EF
:1027F000727769705F736C6565705F636F6D6D6F25
:102800006E2E63004D43555F5355422D3E424C455D
:102810005F44534C4545505F434F52525F454E20F5
:1028200026204D43555F5355425F424C455F44530C
:102830004C4545505F434F52525F48575F454E00ED
:10284000542480006424800000214FF03040C16097
:102850008161C117416101620649022004220A60B8
:10286000BFF34F8FBFF36F8F0860BFF34F8FBFF37E
:102870006F8F704780E100E004490220C1F8000139
:102880000860BFF34F8FBFF36F8F704780E100E0A8
:10289000FEE7FEE70249096801F007010170704791
:1028A00004C500A030B4062821D212490A6802F0FB
:1028B0000702824212D00A680F4B1A400F4C224383
:1028C0000A6000BF00BF00BF00BF0A681A400C4B7F
:1028D000024333F8203042EA83420A60084918393B
:1028E00051F820000749086030BC76F4839330BC6F
:1028F0007047000004C500A0F8FFE3FF05000800D2
:1029000090B70001004180000248016841F4700165
:102910000160704788ED00E002480068001D1EF469
:102920009B960000D043800002484068001D1EF4C2
:1029300093960000D0438000FEE730380A2801D289
:102940000120704700207047704700002DE9F05FBC
:102950000746894693464FEA5B04A2464D465F4EC2
:10296000DFF87C81EFF31080012181F31088D8F823
:10297000A41221F02001C8F8A41280F31088EFF30C
:102980001080012181F31088D8F8A01221F02001D5
:10299000C8F8A01280F31088306820F080403060C2
:1029A000504830603F20D8F8001160F30501C8F8A6
:1029B0000011306820F4601040EAC7403060306891
:1029C00020F4E02040EA07403060052F03D1306852
:1029D00040F400403060062F03D1306840F480405E
:1029E0003060306840F400503060306820F0605053
:1029F0003060306820F00F0040F003003060EFF3EB
:102A00001080012181F31088344A3832116821F096
:102A1000E04141F08041116080F31088306840F05F
:102A20008040306001E0D8F80000D8F80401C0F31D
:102A300000200028F7D1EFF31080012181F31088E6
:102A4000116841F00041116080F3108834E00020EB
:102A50004FF47A711AE0884217D9306820F080402C
:102A60003060306840F000403060306820F0004056
:102A7000306005F0FFF91C480168491C01605446AC
:102A80004D46052079F4BBD06CE7401CD8F80421F2
:102A9000C2F30022002ADED0D8F8040100F07F0142
:102AA000A14200D92146002003E0D8F8002004C547
:102AB000401C8842F9D3641A002CC8D15FEACB705D
:102AC00008D0D8F80401C0F300200028F9D0D8F8C5
:102AD00000002880BDE8F05F05F0CCB908C500A073
:102AE00000E000A00A0708077C4980002DE9F041BA
:102AF00007460E464FF000080024274D0BE004EB7C
:102B0000C40005EB8000801C07223946FFF7A6FCB5
:102B100040B1641CE4B22878A042F0D8B8F1000FAC
:102B200018D102E04FF00108F8E728780A21B0FB3D
:102B3000F1F201FB12040A2801D2401C287004EBB8
:102B4000C40105EB81003968C0F80210B988C18062
:102B5000B97901722B7811A2102100200AF41ED13C
:102B6000307800070BD504EBC40005EB800006F1BC
:102B70004601BDE8F0410A301C22FFF79BBC04EB84
:102B8000C40005EB800006F12A01BDE8F0410A30DF
:102B90001C22FFF78FBC000064788000523A313A63
:102BA000616464206C746B206974656D2C206E7593
:102BB0006D203D2025640A000449896B08400449C2
:102BC0000A78104300220A7070470000002001A01C
:102BD000BC458000104A114900280EDC0868C0F38B
:102BE0004120012808D0506C401C5064086820F433
:102BF000C06040F40070086070470A28FCDB086879
:102C000010F4C06FF8D0106C401C1064086820F4F9
:102C1000C060086070470000084680000CC500A036
:102C20002DE9F041082802D30820BDE8F0811A4DB3
:102C300000EB400005EB40142078D0B1EFF3108694
:102C4000012080F31088201D03F058FB0027277017
:102C5000FF202071002000EB400105EB41110978B5
:102C6000012903D0401CC0B20828F4D3082802D0A0
:102C70000DE00920D9E7094CB4F9020006F0D6FBB3
:102C80004FF0FF3060802770032019F4D2D286F312
:102C900010880020C9E70000006C8000C843800055
:102CA000082801D30020704700EB4001044800EBE6
:102CB0004110017809B1001D7047002070470000E5
:102CC000006C80002DE9F0470646894600244FF04D
:102CD000FF3847464FF0010A002E16D0394903202D
:102CE00007F08EF9307990B1012810D002280ED06B
:102CF00003280CD004280AD0052808D0062806D0BE
:102D0000072804D04046BDE8F0870520FBE7EFF335
:102D10001082012181F310882B4D012304EB440123
:102D200005EB411191F800C0BCF1000F03D091F800
:102D300004C084450CD104EB440005EB401090F82E
:102D40002D00022802D027460B7005E0082403E07E
:102D5000641CE4B2082CE1D382F31088082C2BD237
:102D6000DFF868A09AF8000038B98AF8003003212B
:102D7000174806F01DFBAAF8020004EB440105EB1E
:102D800041153079287105F10800242206F1080167
:102D9000FFF7D5FB0F4868630F48E86300202864FD
:102DA000C5F85C90032019F437D2032019F452D2ED
:102DB000281D03F0D3FA8246BAF1000F00D047462F
:102DC0003846A0E7714B8000006C8000C84380004B
:102DD000A8B70001D14300015543000170B58EB082
:102DE00005460C46564901F164004DC8CDE90A027A
:102DF000CDE90C36D1E91E23486F06AED1F880101C
:102E00000DC6099114224E49843101A8FFF797FBA2
:102E1000ACB14C49062007F0F3F84B49072007F006
:102E2000EFF84A49122007F0EBF84549444A2C31A3
:102E3000062D7CD2DFE805F0060606214159052063
:102E40000EB070BD207931F810000B90607932F827
:102E500010000C90A0790D9020680A90384814302A
:102E600050F8350021880904090C04D018B10AA9CA
:102E700003F058FC59E00420E2E7207931F8100013
:102E80000B90607932F810000C90A0790D902068BA
:102E90000A9020680104090C05D080B20A900AA9A2
:102EA0002B4803F03FFC2068010C3ED0000C0A9038
:102EB0000AA9284803F036FC37E0207901EB4000EE
:102EC000408A0790607902EB4000C0880890A079A2
:102ED000099020680690207810F0FF0F03D006A814
:102EE00003F0B8F921E00420AAE72079031F032B9F
:102EF00001D80720A4E702281AD0012002902079E7
:102F000001EB4000808C0390607902EB40008089E7
:102F10000490A079059020680190207810F0FF0FB0
:102F200009D001A9002003F021FC002088E704E07B
:102F300002200290E3E7042082E7062080E70000F9
:102F4000B4B70001174C8000114C80000D4C80007C
:102F5000000001A0001001A0002806D0002904D024
:102F6000024AD269002A00D01047704734728000AC
:102F70000248006A002800D0004770473472800081
:102F800070B50446012520780A4E012800D135701D
:102F90002078022808D17570A08870807288064950
:102FA000A1F50070FFF786FA2078002801D135706E
:102FB000757070BDDC4380005874800010B5044605
:102FC000114822784FF0FF3150F82220A2F8681003
:102FD000227850F82200A0F86A10606B002801D116
:102FE000A16B71B120B1204600F05EF8002807D136
:102FF000A06B20B1204600F009F8002800D1002085
:1030000010BD042010BD0000D043800030B58BB04F
:1030100004462C216846FFF7E6FAA06B009094F86E
:103020003D008DF804001D480099814205D12178AA
:103030001B4A02EB0111496802910299F9B100990A
:10304000814201D10F2003904FF400100490C01270
:10305000059000200690079008900990A0200A9003
:1030600000216846FFF72EFE21780E4D55F82110FD
:10307000A1F86A00002804DA04200BB030BD072054
:10308000FBE7FFF70DFE217855F821104863217802
:1030900055F82110091DC1620020EEE7003001A0A3
:1030A00070B80001D043800030B58BB004462C21AD
:1030B0006846FFF798FA606B009094F83C008DF832
:1030C00004001D480099814202D14FF00F00029088
:1030D00005D12078194901EB00100068039003988E
:1030E000D8B14FF4801004904FF0000005904FF4D9
:1030F000807106910790089009900A9001466846F1
:10310000FFF7E0FD21780E4D55F82110A1F8680079
:10311000002804DA04200BB030BD0720FBE7FFF7DE
:10312000BFFD217855F821100863217855F821104A
:10313000091DC1620020EEE7003001A070B8000157
:10314000D043800070B50446022C01D3082070BD26
:10315000144D55F8240018B190F86D10012901D0D4
:10316000092070BDB0F96800FFF75AFD55F824003A
:10317000B0F96A00FFF754FDEFF31080012181F3ED
:10318000108855F82420002182F86D1080F31088F3
:1031900055F8240090F86C0008B945F82410002078
:1031A00070BD0000D04380007CB500251B48009016
:1031B0004FF4007601966A4619491A4800F010F952
:1031C000002829D1174941F2883423463622403954
:1031D00000F0CAF91349234609220A39002000F0F9
:1031E000C3F9104800F024F8002815D10D4C443CD8
:1031F0000BE060780028FCD0257062880A49002026
:1032000000F0B4F820780028FCD0657032460749F9
:10321000002000F043F8ECE77CBD00005876800009
:10322000812F000120448000587280005874800073
:103230002DE9F04106463478002E04D0022C04D348
:103240000820BDE8F0810520FBE7134F57F8240064
:1032500048B190F86C1031B1012C06D090F86D0097
:10326000012804D006E00920EBE70820E9E7204622
:10327000FFF768FFEFF31085012080F310883046D8
:10328000FFF79CFE20B957F82420012182F86D1029
:1032900085F31088D5E70000D043800070B5022880
:1032A00001D3082070BD134C54F820304BB193F873
:1032B0006C5035B139B132B193F80351012D04D0BE
:1032C00010E0052070BD042070BD002583F8035177
:1032D00054F820305B680225C3F8885054F8203039
:1032E0005B681B6854F82000001D03F0FFFA0028FB
:1032F000EAD170BDD043800070B504461A4D55F830
:103300002400703006F059FA82B21646A2B155F880
:10331000240090F8011101290ED0012180F8041138
:10332000802A0FD355F82400802200F180017030EC
:1033300006F058FA80260CE055F82410002081F899
:10334000000170BD55F8240000F18001703006F0D6
:1033500049FA55F82400324600F18001001D1EF4A0
:1033600069D30028EDD170BDD043800070B504460C
:10337000022C01D3082070BD184D55F8240090B1DF
:1033800090F86C307BB181B17AB1002680F802618F
:1033900055F82400703006F069FA55F8240090F8CA
:1033A000001121B10AE0052070BD042070BD90F825
:1033B000011119B990F86C10012901D0022070BDDB
:1033C000012180F800112046FFF796FF20B155F843
:1033D000241081F8006170BD002070BDD0438000D2
:1033E0002DE9F04389B0054688462C78002D06D09B
:1033F0002AB1022C05D3082009B0BDE8F0830520CE
:10340000FAE7384E05F1580046F82400D2E90031B9
:103410000A467030194606F0BBF9291D8946242258
:103420000C316846FFF78BF8291D286D0EC907F08F
:1034300067FA0028E0D12C490C2006F0E1FD2B4969
:103440000D2006F0DDFD2A4800EBC40797F90100C6
:1034500018F4E2D697F9010018F4FCD656F82400C7
:10346000C0F8649056F82400C0F8008056F8240094
:103470001822083005F14001FFF761F856F82410D2
:103480007868486056F82400001D03F0E5F956F806
:103490002400001D03F016FA351F0127287850B9C3
:1034A0002F7013480321103005F082FF6880002838
:1034B00001DA0420A0E756F8240080F86C7056F872
:1034C0002410002081F8000156F8241081F8010131
:1034D00056F8241081F8020156F8241081F80301EF
:1034E0008AE70000D0438000192900012929000142
:1034F00054B800012DE9F04104461A4D55F8240056
:10350000703006F05AF982B2164600277AB155F8A3
:10351000240090F80111012909D0802A0ED300F16E
:1035200080017030802206F05DF980260BE055F8AE
:10353000240080F800710020BDE8F08100F18001D6
:10354000703006F04FF955F8240080F8047155F8F2
:103550002400324600F18001001D1EF4B1D2002883
:10356000EAD1E9E7D043800070B5022801D30820F2
:1035700070BD0C4D55F820407CB194F86C6066B17C
:1035800069B162B1002684F8026155F82000001D7F
:103590001EF415D20028EBD170BD052070BD0420AB
:1035A00070BD0000D04380002DE9F04106460C4676
:1035B000174604F10805204672F4FED0C3B21B483A
:1035C000E1184268914202DD0320BDE8F08118490C
:1035D000184A006809681268891A081A001FE91851
:1035E00081421CD94FF4004513A22946002009F45A
:1035F000D5D300F08BFB30B118A22946002009F486
:10360000CDD30820E1E71DA22946002009F4C6D346
:103610003A4621463046BDE8F04107F039BB3A460C
:1036200021463046BDE8F04107F032BBD832800079
:10363000D0238000CC238000523A353A4E56445372
:103640002061726561206973206265696E6720631D
:103650006F6D7061637465642E0D0A00523A353ADD
:10366000436F6D70616374696E67204E56445320DA
:103670006661696C65640D0A00000000523A353AD3
:10368000436F6D70616374696E67204E56445320BA
:103690007375636365737366756C0D0A00000000D3
:1036A0007CB50D46002200920192694603F478F23F
:1036B000044634BB4FF42051684603F473F2B8B9A2
:1036C00042F60101684603F46DF288B942F603013F
:1036D000684603F467F258B942F60201684603F4FB
:1036E00061F228B94FF42451684603F45BF208B143
:1036F000062406E00098C5F30B0180880843009972
:10370000888020467CBD00002DE9F04105460C462E
:10371000FF26217A1E2905D022480279521E52B274
:1037200000683AE004F10801284603F43DF2064639
:1037300035E010F832308B422DD11B4E56F8250063
:10374000406F30B300273B4618A24021002009F407
:1037500025D3062000EB05202CF40CD6C00605D599
:10376000002717A24021002009F418D321460C3964
:1037700056F82500743008F4A5D60020A080012654
:103780006FB115A2402109F409D3284603F40EF2C3
:1037900005E00127D7E7521E52B2002AC9DA3046A7
:1037A000BDE8F0817C058000C40E8000523A333AB7
:1037B000657865637574653D307825780A0000008A
:1037C000523A333A636F6E6E656374206E6F742085
:1037D00063666D0A00000000523A333A73746172F6
:1037E0007420657865637574650A00002DE9F04101
:1037F0000546884628466CF4A3D4C0B2244909780B
:1038000088420DD200EB4000213040F40040424697
:10381000AC2105F0F3F90446200032D0012430E059
:103820006CF4D2D4C7B207EB470606F1200040F48F
:1038300000402A46072105F0E1F910B10120BDE85A
:10384000F081384678F410D606F1210040F40040AB
:103850004246AC2105F0D2F90446200001D00120F7
:10386000EDE7223646F4004073F4D0D60949C7EBA1
:10387000C7000968084429680160A9888180A9797E
:1038800081711CB941462846FFF730F92046D6E73A
:10389000382380003C23800005F0C6BE10B5FFF73A
:1038A000FBFF054903480860BDE81040034878F471
:1038B0004D90000017B8800474C500A000879303E2
:1038C00010B50446002C0CD0204600F051F800281A
:1038D00007D104494968002903D02046BDE81040BB
:1038E000084710BD6C4880000A2805D2034A002111
:1038F00052F8200080F88F1070470000C40E80003E
:1039000070B504460D46204606F0B6F8002805D1ED
:1039100029462046BDE8704065F44C9370BD000018
:1039200000B58BB0094901200870FF22282101A8A9
:10393000FEF751FC4FF48070ADF804000020ADF8A4
:10394000060001A8FFF7BCFF0BB000BD6C4880006B
:1039500010B506480068002800D0804701F430F612
:1039600008B1012010BD002010BD0000D04780002C
:1039700070B50446002C1FD04FF6FF7319462288FD
:1039800040F20155A2F201504FF48076AA424CD089
:103990001BDC40F20245A2F20240AA4234D00DDC08
:1039A000A2F54072013A25D0012A23D0FF2A29D05E
:1039B000B2422ED121892CE0002070BD012825D0F3
:1039C000022825D0FE2824D12AE004282DD006DCA8
:1039D00001282AD0022828D003281AD125E005285A
:1039E00023D0062821D0B04213D1204602F026F879
:1039F000002070BD204602F069FA204602F07AF9F4
:103A0000002070BD218904E0218902E0618900E085
:103A1000218A99420ED0204602F068FA012070BD3A
:103A2000204602F0FBF9002070BD204602F072F93A
:103A3000002070BD002070BD70B50026150A0E482C
:103A400005EB450200EB0214098821800120A070DB
:103A50002846FFF749FF00206CF412D4074801689C
:103A600029B10B681BB122880021284698476CF4C5
:103A70003DD4304670BD0000D42E8000B8228000B6
:103A80003EB500241D0A0A78122A02D0132A04D057
:103A900006E000208DF8000002E001208DF8000013
:103AA0008888ADF804004888ADF80200891D0291AD
:103AB00000206CF4E5D30B48016829B18A691AB17A
:103AC00069462846904708E09DF80000012804D187
:103AD000BDF804102846FFF713FF6CF407D4204606
:103AE0003EBD0000B422800001480078704700000D
:103AF0008C4980007CB50E46150A0020009001908C
:103B00006946284676F43AD49DF806206946284648
:103B100001F0A4FF0446CCB166F438D2C0B166F41B
:103B200035D2C01C81B232880023204670F416D6EC
:103B30006946284606F008F840B106A24021002058
:103B400009F42CD12146684661F47ED700207CBD63
:103B50000020E7E7523A333A736176652063636386
:103B6000640A000010B58AB00446FF222821684686
:103B7000FEF731FB40F20271ADF800100021ADF804
:103B800002108DF804406846FFF79AFE0AB010BD97
:103B900000230849496808E0CA88824204D80A8993
:103BA000824201D3CB6802E009680029F4D11846AB
:103BB000704700008049800070B519480468194DAD
:103BC0002878002801D0002070BD4FF0806075F487
:103BD0008FD202F4EFF2600876F49AD112490860AD
:103BE0008817114901262C39086010497006C1F860
:103BF000FC01C8674FF03041086B40F007000863D4
:103C0000094C303C206840F4E020206002F414F3BA
:103C10002E70206820F4E0202060012070BD00009C
:103C20006C248000C847800070C500A084E000E0DC
:103C300070B50024EFF31086012080F3108802F4A1
:103C400016F3104D28B102242968B9B10220884723
:103C500014E0FFF77DFE20B1296879B10020884784
:103C60000CE0FFF7A9FF28B10224296831B1022036
:103C7000884703E0296809B10020884786F3108847
:103C8000204670BD5C248000034900EB800001EBFE
:103C9000800080887047000060468000034A00EB87
:103CA000800002EB80008180704700006046800049
:103CB0000E4910F1210F06DA086820F4704040F434
:103CC00040500860704710F11D0206D3086820F4C8
:103CD000704040F48040086070470A28FCDD0868A6
:103CE00020F4704040F4A0400860704724C500A054
:103CF00010B505F083FE05F045FB06F057FB00F01C
:103D000021FBBDE8104005F071BE00002DE9F04F29
:103D100087B07B48D0F8009000240025A2460026FA
:103D200006F092FC77480168C9F800104068C9F8AD
:103D30000400754800680830059009F108000690F5
:103D4000042203A9059800F0C9FABDF80C10A1F5EA
:103D50007F40FF3843D0082203A9059800F0BEFA3F
:103D6000BDF80E0071F428D500F0FF08BDF80C0076
:103D7000002867D00698A9EB000707F58057BDF823
:103D80000E1008F1080083460844B84263D805AB1A
:103D9000082203A906A800F0D7F8BDF80E000023FA
:103DA00000EB080205A906A805F08AFB641CBDF813
:103DB0000E005844B842C3D10020CDE900605346FC
:103DC0004A462146284606F079FE002826D182463A
:103DD00000260024CDF818906D1CEDB2B0E700204D
:103DE000CDE9006053464A462146284606F066FE65
:103DF000002813D16D1CECB2434D4FF48057434E55
:103E000008E0286800EB0430394602F0C7FB40B1F7
:103E1000641CE4B2707AA042F3D8002007B0BDE879
:103E2000F08F3B488169407A40F26242CDE9002040
:103E30000291384B38A24FF40041002008F4AED76D
:103E40000920EBE7BDF80E00059908F108080844C1
:103E50004044059074E7082F29D305AB082203A935
:103E600006A800F071F8083F2FB100233A4605A9D3
:103E700006A805F025FB611C0020CDE90060534633
:103E80004A46284606F01AFE0028C7D18246BDF8E9
:103E90000E004044C61B0024CDF818906D1CEDB2F6
:103EA0000023324605A906A805F00AFB48E705AB42
:103EB0003A4603A906A800F047F8611C03A8CDE91B
:103EC000006053464A46284606F0F8FD0028A5D172
:103ED000C7F1080ABDF80E0000EB08060024CDF873
:103EE00018906D1CEDB20123524605A906A805F0F5
:103EF000E7FA0023324605A906A805F0E1FA1FE714
:103F0000DC478000ACD50700CC238000D83280008D
:103F1000641F800058B90001523A353A25732C20AD
:103F20004C256420666C617368207374617465202D
:103F30003078253032582C206572726F72203078BC
:103F4000253038580D0A000070B5044615461E4647
:103F50002A462068FEF7AEFA3068284430602068B0
:103F60002844206070BD000010B50548017B491C45
:103F70000173002075F43AD6BDE8104000F050B847
:103F8000084680002DE9FE43FFF786FC1E480168C5
:103F900021F4003101601C4E083E30681B4980B29C
:103FA000084330601A4803C8CDE9000116482C3890
:103FB0000068C82100F007001DF8000010FB01F5A3
:103FC00014480768144CD4F800803846414602F083
:103FD0002BFA62686068831AAB42FBD341463846CD
:103FE00002F002FA05F02CFA02909DF8080028B1C0
:103FF0009DF80800094948618861C861306820F06F
:104000007F403060BDE8FE8330C500A000008F1106
:104010009C420001FCED00E0001000E0084680003A
:104020002DE9FC412D4E306820F07F4040F0885053
:1040300030602B4803C8CDE90001284824380068C7
:1040400000F007011DF80100C82110FB01F525480B
:104050000768254CD4F800803846414602F0E4F960
:1040600062686368981AA842FBD34146384602F05A
:10407000BBF9002505F0E4F90446DFF87080D8F8B4
:104080001800844201D9012700E0002775F454D4B8
:1040900040B91FB1D8F81800201A02E0D8F818006B
:1040A000001BC5B2D8F81800C8F82000B5EB900F77
:1040B00003D8292C01D8112C02D200F019F807E0FE
:1040C00000EBC00020440A21B0FBF1F0C8F8180052
:1040D000306820F07F403060BDE8FC8128C500A03A
:1040E0009C420001FCED00E0001000E0084680006A
:1040F0002DE9F04F87B0002006900824DFF890816A
:104100001A20C8F8140063480168634A89B2114351
:10411000016005A8FEF7BEFB0220FEF7C3FBDFF837
:10412000749109F10809D9F8000020F47C3040F4BA
:104130002030C9F8000059A003C8CDE90201DFF81A
:1041400054A1AAF1240ADAF8000002A900F007003D
:10415000085CC82110FB01F5DFF848B1DBF800006E
:104160000190514F3E680198314602F05DF9786840
:104170007968091AA942FBD33146019802F034F953
:1041800005F05EF904909DF81010D8F814008142F3
:1041900004D99DF81020811C8A4263D99DF8101023
:1041A000814204D29DF81020811E8A425AD29DF885
:1041B0001010814201D9012500E0002515B1641CD1
:1041C00064B201E0641E64B2202C11D3D9F800005F
:1041D00020F47C3040F42030C9F80000D8F83C00CE
:1041E000401CC8F83C00002004900120069039E0F3
:1041F000D9F8000020F47C3040EA043040F400306C
:10420000C9F8000025A003C8CDE90201DAF80000D2
:1042100002A900F00700085C642110FB01F6DBF83E
:104220000000019038680090DDE9001002F0FCF811
:1042300078687968091AB142FBD3DDE9001002F011
:10424000D3F805F0FDF8049035B19DF81000D8F8CA
:1042500014108842B2D805E09DF81000D8F8141068
:104260008842ABD39DF81400FEF71CFB0948016897
:1042700021F07F4101609DF81000C8F81800D8F8BF
:104280002400401CC8F82400069807B0BDE8F08F51
:104290000846800028C500A000008F11403010188B
:1042A00010200000FCED00E0001000E00A49322878
:1042B00008DDD1F8200220F4706040F44070C1F8AD
:1042C000200270472828FCDAD1F8200220F4706020
:1042D000C1F820027047000000E000A02DE9F04185
:1042E00005460E461746094C2378002B02D00020C5
:1042F00071F4D6D53A463146284602F08FF9054684
:10430000207871F4CDD52846BDE8F081C92380001E
:104310002DE9F04105460E461746094C2378002B3F
:1043200002D0002071F4BCD53A463146284602F04E
:1043300085F90546207871F4B3D52846BDE8F081AB
:10434000C92380000121024A00206BF40D94000073
:104350009560000130B400210D4B01EB410203EBED
:1043600042121478012C0DD112790478A24209D19D
:1043700001EB410003EB4010C16D002906D030BCB9
:1043800000200847491CC9B20829E6D330BC704751
:10439000006C800070B500240C4E04EB440006EB6A
:1043A0004015287801280AD1281D14F457D018B1D7
:1043B000012801D0002070BD281D14F4A9D2641C6E
:1043C000E4B2082CE9D3012070BD0000006C80002D
:1043D00030B400210D4B01EB410203EB4212147883
:1043E000012C0DD112790478A24209D101EB4100D0
:1043F00003EB4010C16D002906D030BC01200847F6
:10440000491CC9B20829E6D330BC7047006C800053
:1044100010B5104C02220421204603F04FFF012268
:104420001021204603F04AFF02228021204603F09B
:1044300045FF02224021204603F040FF02222021B6
:10444000204603F03BFF20460222BDE81040082131
:1044500003F034BF001001A02DE9FE4F07460D46C2
:1044600002AA2946384606F0B9F910B10298BDE80B
:10447000FE8F029C00260296DFF8688098F8000004
:1044800010B1002071F40CD5DFF85CA04FF6FF7975
:1044900008226946204602F0C1F8BDF800004845F0
:1044A00002D12E80029617E0B84206D115B1BDF8B0
:1044B00002002880083402940EE0BDF8020071F476
:1044C0007BD1BDF80210083021444418DAF800000E
:1044D0008442DDD32E80029698F8000071F4E0D477
:1044E0000298C4E7C9238000D023800070B5064637
:1044F0000024094D0BE004EBC40005EB8000801C98
:1045000007223146FDF7AAFF20B1641CE4B22878E7
:10451000A042F0D8204670BD6478800010B500211C
:10452000084B5A681B8809E052F83140844203D195
:1045300002EBC100406810BD491C89B29942F3D317
:1045400010BD00009045800010B50021084B5A684E
:104550001B8809E052F83140844203D102EBC100CC
:10456000406810BD491C89B29942F3D310BD0000C8
:104570008445800010B50021084B5A681B8809E06B
:1045800052F83140844203D102EBC100406810BDB3
:10459000491C89B29942F3D310BD000098458000B0
:1045A0000349095C002902D0002103F0EDBF7047E8
:1045B000CE79800010B5884210D808290ED2094B58
:1045C000074A5A6006E003EB8002946844F0010455
:1045D0009460401C8842F6DD0320186010BD000086
:1045E00000400030002000E02DE9F047164F386809
:1045F000002826D04FF00009002400250526DFF80A
:104600004C8013E005EB4501012018F82120904073
:104610003A68104208D008EB81032246D3E9010131
:10462000641CE4B200F01CF86D1CEDB2B54201D27E
:10463000062CE7D3641EE1B24846BDE8F047FFF719
:10464000B9BFBDE8F08700008045800090B8000148
:1046500013B501216846FEF77FFC01201CBD000058
:1046600070B505461446114840F8345000EBC400BC
:104670004160284601F036FD0646FF2001F03CFD72
:10468000014625F001000A4B850703EB8402094B24
:1046900006D0801E906006EB014043F8240002E043
:1046A000906043F82410204670BD0000643D8000F7
:1046B000002000E0004000302DE9FC410C46474A54
:1046C0006178A07852F82110CDE90010237844A237
:1046D0001021002008F462D3607801264F4F052591
:1046E00030B1012837D0022849D0032872D15AE0CE
:1046F00020786DF4D3D7C0B2C0EBC00107EB8101C5
:104700004D72A278452A09D1CA681278022A17D0B8
:1047100091F82020022A01D081F8206091F8202011
:10472000012A04D0022A02D0032281F8202091F825
:104730002020022A4ED0C9680978022906D102E059
:1047400007224A72EAE7A178452943D0344A00217A
:10475000126890473EE087F89950A078452805D127
:1047600097F89C00022801D087F89C6097F89C007D
:1047700002282FD02B490020096888472AE087F8B3
:10478000A550A078452805D197F8A800062801D0A3
:1047900087F8A86097F8A80006281BD022490020B7
:1047A0000968884716E020786DF4DAD7C0B207EBC5
:1047B000001181F8B150A278462A01D0CE2A01D149
:1047C00081F8B35091F8B310022903D0174A0021A1
:1047D000126890470020BDE8FC810000682280003C
:1047E000523A313A6163742073746F707065642C4F
:1047F000206163745F6964783A2025642C206163CA
:10480000745F747970653A2025732C20726561732A
:104810006F6E3A203078253032780A007C2780008D
:104820001022800014228000182280001C228000A8
:1048300010B58AB00C46FF2228216846FDF7CBFC54
:1048400040F20A20ADF80000ADF802406846FFF7DC
:1048500037F80AB010BD10B58AB00446FF222821EF
:104860006846FDF7B8FC40F20D20ADF800000020CE
:10487000ADF802001C22214602A8FDF71BFE1C34E5
:1048800009946846FFF71CF80AB010BD30B58BB02C
:1048900005460C46FF22282101A8FDF79CFC40F2AA
:1048A0000722ADF80420ADF806408DF8085001A8A5
:1048B000FFF706F80BB030BD37B58AB005460C4699
:1048C000FF2228216846FDF786FC4FF40272ADF8FE
:1048D0000020ADF802408DF804509DF830008DF8AE
:1048E00008006846FEF7ECFF0DB030BD00B58BB098
:1048F000FF22282101A8FDF76EFC4FF44170ADF8AE
:1049000004000020ADF8060001A8FEF7D9FF0BB0A7
:1049100000BD00002DE9FF470C4666788DF80D605C
:1049200020784FEA1329CDE900905A4B5AA2102162
:104930000296002008F432D220786449644F4FF088
:10494000000801EBC905092861D008DC092824D238
:10495000DFE800F09A8B9A4A4A9A9A242400172892
:104960002FD004DC0B2807D0142816D16AE01828B1
:1049700014D0192811D111E0607822280DD100201F
:104980006BF47ED45348006828B143681BB1002201
:104990000F21484698476BF4A9D475E06CF466D3B0
:1049A000044685F8058000206BF46AD4386828B185
:1049B000436D1BB122463146484698476BF496D466
:1049C00062E06CF453D3044685F8048000206BF455
:1049D00057D4386828B183681BB12246314648460F
:1049E00098476BF483D44FE06CF440D3044685F8C9
:1049F000068000206BF444D4386828B1836D1BB165
:104A000022463146484698476BF470D43CE06CF43B
:104A10002DD3044685F8028000206BF431D4386829
:104A200030B1C36C23B136B122463146484698476F
:104A30006BF45CD428E0002CFAD02246314648467C
:104A40009847F5E76CF412D3044685F803800020FC
:104A50006BF416D4386828B1C36D1BB122463146B9
:104A6000484698476BF442D40EE0607860B100206D
:104A70006BF406D4386828B1C36B1BB1617800228F
:104A8000484698476BF432D46CF4F6D204B0002058
:104A9000BDE8F087ECB80001523A313A25733A206C
:104AA000636F6E696478203D2025642C206F7063ED
:104AB0006F6465203D20305825782C206572726F18
:104AC00072203D2030582578000000002A27800001
:104AD00098218000EC23800010B58AB00446FF22A4
:104AE00028216846FDF777FB40F20331ADF800104E
:104AF000ADF802406846FEF7E3FE0AB010BD70B59F
:104B00008AB005460C461646FF2228216846FDF766
:104B100062FB40F20131ADF80010ADF802408DF8B3
:104B200004501222314602A8FDF7C4FC6846FEF785
:104B3000C7FE0AB070BD70B58AB006460D46144671
:104B4000FF2228216846FDF746FB4FF44273ADF87B
:104B50000030ADF802508DF8046020680290A08803
:104B6000ADF80C006846FEF7ABFE0AB070BD000061
:104B70002DE9F041ADF50E7D0C461E0A304664F479
:104B800029D10746304664F425D1002834D04DA100
:104B9000009133464DA21021002008F4FFD0FF2ED3
:104BA0005BD0574D2088288060886880A088A880C6
:104BB000E088E880207A2872607A68722F74D4F8CE
:104BC0000A00C5F80A00E089E8814E4A002102EB9C
:104BD000C60001604160218822F836104FF4CA7186
:104BE00029A8FDF700FD29A860F41CD6687ADFF833
:104BF0001881012816D101E044A1C9E7E87B012111
:104C0000B1EB901F0ED198F81C0140070AD59DF812
:104C1000A40038B1A02101A8FDF7E5FC002429ADCE
:104C200001AF3DE004F10A02617A1546304675F4A1
:104C3000C3D3617A2A46304600F05CFF354C6FB131
:104C400000206BF41DD3206828B1836B1BB12C4A64
:104C50000021304698476BF449D32DE0032088F8B3
:104C6000A800D8F8AC000078012825D100206BF40A
:104C700007D3216829B18B6B1BB1214A0021304633
:104C800098476BF433D317E004EB840005EBC001C5
:104C9000093107EB04101022FDF70CFC641CE4B290
:104CA0009DF8A400A042EFD815499DF8A43001AAB0
:104CB0000A3130466EF426D20DF50E7D0020BDE897
:104CC000F0810000534C415645000000523A313A01
:104CD000636F6E6E656374696F6E5F7265715F6935
:104CE0006E645F68616E646C65723A20636F6E69B2
:104CF00064782025642C20726F6C652025730A006F
:104D0000182780002A2780007C2780004D415354BB
:104D1000455200009821800070B58AB006460D46C5
:104D20001446FF2228216846FDF755FA40F2053364
:104D3000ADF80030ADF802508DF8046020680290A4
:104D4000A088ADF80C006846FEF7BAFD0AB070BD49
:104D500030B58BB005460C46FF22282101A8FDF78F
:104D60003AFA40F20632ADF804200022ADF80620EF
:104D70008DF80850206803906068049001A8FEF741
:104D80009FFD0BB030BD00002DE9F0410D46E879E4
:104D9000FF2819D01B4FB96889B300246DF45ED485
:104DA000C6B216B1032E05D008E0E8796DF476D4CA
:104DB000C4B203E0E8796DF4D3D4C4B2BB682A4628
:104DC0002146304698471AE000210E2066F48CD523
:104DD0000446A4B1012020702868C4F80300A88804
:104DE000A4F80700A8796072E8796DF457D4A07030
:104DF0000E2120466CF44ED1204666F473D5002077
:104E0000BDE8F081DC45800030B58BB004460D462E
:104E1000FF22282101A8FDF7DEF940F20622ADF8B5
:104E20000420ADF806400E22294603A8FDF742FBF8
:104E300001A8FEF745FD0BB030BD70B58AB0054640
:104E40000C461646FF2228216846FDF7C4F940F2B9
:104E50000233ADF80030ADF802408DF804508DF803
:104E600008606846FEF72CFD0AB070BD70B50D46AF
:104E7000EFF311801D490A781D490968C1F3022129
:104E8000491C01248C401119C9B281F311881C0AF4
:104E90001849002301EBC402136053604FF6FF7200
:104EA00021F83420C0B280F31188AB7812A210210F
:104EB000002007F473D7204675F416D320466FF40C
:104EC0008BD7204675F418D200206BF4D9D1114845
:104ED00002683AB1D36B2BB1A8789030C2B20021EE
:104EE000204698476BF402D2002070BD02E400E037
:104EF0000CED00E02A278000523A313A646973636E
:104F00006F6E6E20726561736F6E203D2030782564
:104F1000780A00009821800070B58AB006460D46D8
:104F20001446FF2228216846FDF755F940F20A335E
:104F3000ADF80030ADF802508DF8046020680290A2
:104F4000606803906846FEF7BBFC0AB070BD30B5E0
:104F50008BB005460C46FF22282101A8FDF73BF93E
:104F60004FF6FF72ADF80420ADF8065034B1012CB5
:104F700009D0022C0CD0032C13D10EE04FF400709A
:104F8000ADF804000DE040F20120ADF8040008E0A7
:104F900040F20220ADF8040003E040F20320ADF837
:104FA000040001A8FEF78CFC0BB030BD70B58AB0D0
:104FB00006460D461446FF2228216846FDF70BF9E8
:104FC00040F20933ADF80030ADF802508DF80460BE
:104FD00020680290606803902089ADF81000684650
:104FE000FEF76EFC0AB070BD30B58BB005460C46BE
:104FF000FF22282101A8FDF7EEF840F20731ADF8B5
:1050000004100021ADF806108DF8085020680390B8
:10501000606804900834059401A8FEF751FC0BB0B9
:1050200030BD70B58AB005460C461646FF222821D1
:105030006846FDF7D0F84FF44073ADF80030ADF896
:1050400002408DF804503088ADF808006846FEF73D
:1050500037FC0AB070BD30B58BB004460D46FF2258
:10506000282101A8FDF7B7F84FF6FF72ADF804202C
:10507000ADF8064045B140F20520ADF8040001A8A6
:10508000FEF71EFC0BB030BD4FF40170ADF804000C
:10509000F5E730B58BB005460C46FF22282101A864
:1050A000FDF799F840F21122ADF80420ADF8065052
:1050B00020680390A088ADF81000A0798DF8120048
:1050C00001A8FEF7FDFB0BB030BD10B58AB00C4651
:1050D000FF2228216846FDF77EF840F20920ADF84E
:1050E00000000020ADF8020020680290A088ADF812
:1050F0000C00A0798DF80E006846FEF7E1FB0AB0BF
:1051000010BD10B58AB00446FF2228216846FDF77D
:1051100062F840F20B21ADF80010ADF8024068468D
:10512000FEF7CEFB0AB010BD13B58AB00446FF22CD
:1051300028216846FDF74FF84FF40371ADF80010D1
:10514000ADF802409DF82C008DF808006846FEF787
:10515000B7FB0CB010BD30B58BB005460C46FF2236
:10516000282101A8FDF737F840F20F22ADF80420FE
:10517000ADF806408DF8085001A8FEF7A1FB0BB072
:1051800030BD70B58AB004460D461646FF22282170
:105190006846FDF720F840F20E20ADF80000ADF8AB
:1051A00002501022314602A8FDF784F98DF8044020
:1051B0006846FEF785FB0AB070BD10B58AB004469C
:1051C000FF2228216846FDF706F84FF40471ADF878
:1051D00000100021ADF802108DF804406846FEF77B
:1051E0006FFB0AB010BD00002DE9F04104461846DF
:1051F0000026002300256FF48857E4191C4F06D0C1
:10520000012C07D0022C0CD0032C0CD105E03B68FC
:105210007D6808E0BB68FD6805E0BB69FD6908784A
:1052200001E03B697D6900241CE033F8347087425B
:1052300017D103EBC4035C68B4B10E4B9C4204D19C
:10524000034601F08DFF06460EE00B4B9C4204D155
:10525000034601F001FC064606E00346A047064669
:1052600002E0641CAC42E0D33046BDE8F0810000AF
:1052700070028000116F02009D3E02002DE9FC418A
:105280000E4629A003C8CDE900016A463146012037
:105290000EF4DAD10746012F43D130460BF486D6FF
:1052A000C4B2C4BB0BF40ED7C5B2FF2D09D0307801
:1052B000A02808D0A1280CD0A22816D0A32819D144
:1052C0000DE04B2427E0314628460CF4A5D30446D4
:1052D00010E0314628460EF471D304460AE0314608
:1052E00028460EF48BD0044604E03146284600F0F0
:1052F000F9F8C4B27CB9707868B90D4890F86E10AE
:10530000C90708D000EB8501C96850F8662FC1F8BD
:1053100016208088488324B1064A2146012012685D
:1053200090473846BDE8FC81A0A1A3A20000000080
:10533000000E8000EC038000074A906800280AD025
:105340005188002907D01278002A04D001EB81018E
:105350004900FDF726B97047AC458000F0B5ADB007
:1053600004460D4616461F462878032804D0012817
:1053700009D0172812D008E002200DF425D0F8211A
:10538000FEF78EF901E002F0FFFC2DB03B463246FD
:1053900029462046BDE8F0406EF44C976BF466D683
:1053A000044620780A2825D300202B902C9068787A
:1053B00070B96946E01D60F499D29DF829008DF816
:1053C000B200DDF823002B90BDF82700ADF8B00047
:1053D000244E706848B100206AF452D7736822786E
:1053E00068782BA998476AF481D76BF445D60020DA
:1053F0002DB0F0BD68781C4E20B3308870F412D206
:10540000C4B202A80090184B69780A33727A1D461C
:10541000204675F435D5717A2A46204600F06AFB9D
:1054200000206AF42DD71148016829B18B6B1BB19C
:105430000D4A0021204698476AF458D76BF41CD6D1
:105440000020D5E702A9E01D60F450D29DF831009C
:105450007072DDF82B00C6F80A00BDF82F00F0814D
:105460002478CEE7DC458000182780009821800052
:105470002DE9F0410F461E460021002400256FF45F
:105480008852801804D0012806D003280CD107E0E8
:1054900011480468456807E010480468456803E05F
:1054A0000F48046845683E78002210E034F8320066
:1054B000B0420BD104EBC200406850B1FFF72EF8A8
:1054C0000246394630469047014602E0521CAA4245
:1054D000ECD30846BDE8F081E8048000E0048000D9
:1054E000D804800070B504460E460025194890F88F
:1054F0006C100520884301D0432522E070780DF41C
:1055000085D300B30CF458D7400702D57078022831
:105510001BD0582120460BF431D50446BCB10220E3
:1055200060737078607401200DF4C2D0A0820A48C4
:1055300020600A4860600A48A060002120460BF401
:105540003DD5284670BD4025FBE74925F9E74B25A9
:10555000F7E70000000E800065550001ED550001E1
:105560001D2A01002DE9F0410446884608F1020594
:105570001D4F97F87900FF2806D197F86D0097F82E
:105580007D1008440A2801D343262AE028460DF45A
:1055900075D1C6B22EBB2878A073002084F85500C0
:1055A000382208F1020104F11C00FCF783FF6A882D
:1055B00022B1072140F6B1502BF4FAD1A07B01288B
:1055C00003D197F87E0084F854007937207B7870F7
:1055D000207B38703879401C3871294620460DF4FC
:1055E00028D23046BDE8F081000E800010B5044698
:1055F000E08B002804D0072140F6B1502BF448D1AD
:105600000449207B81F87A002046BDE810400DF463
:1056100007920000000E80002DE9F04105460F467C
:105620001C484468A41C42F242060623324600216C
:1056300041F205102AF4B4D5077000224270A17817
:1056400001B10121144B1970A97B40F2FF374FF4CF
:10565000806C012909D091B1A1894180E1898180C3
:1056600026F49ED16E82BDE8F081A1894B1EBB421B
:1056700002D2A0F802C000E041808280F0E7A18958
:105680004B1EBB4202D2A0F802C000E041808280E3
:10569000E6E70000000E8000AC4580002DE9FC5FCD
:1056A0000C4692A00068019001AA214600200DF44A
:1056B000CBD78346BBF1010F7DD10026607800F087
:1056C0000F07DFF82C8298F86C006070002008B19A
:1056D0004226FBE0A18C608C0CF4FAD508B1402680
:1056E000F4E04FF0000A88F86EA088F86CA001F48E
:1056F0005FF20A20B8434FF4006902D00520B84396
:105700007ED17C480078C0077BD01F2094F8201001
:10571000490606D57F2098F86E1041F0200188F8E0
:105720006E1017F0050F04D0A17E490701D540F493
:10573000C07040F4C06588F880A0208C000402D5B9
:10574000012088F88000208C400405D598F880005E
:1057500040F0020088F88000A08B29460DF472D03A
:10576000064630007ED194F8200010F0380F15D096
:1057700004200CF429D694F82010C1F3C202521E62
:105780004FF6FF7101EA82020C2101F413F20420AA
:105790000CF41AD649460A4601F40CF294F820009B
:1057A000400717D002200CF40FD694F8201001F017
:1057B0000702521E00E08FE04FF6FF7101EA8202FD
:1057C0000C2101F4F7F102200CF4FED549460A46FB
:1057D00001F4F0F115F4C06F1AD00021002005F09B
:1057E00001021144C9B26D08401CC0B22028F6D392
:1057F000B8F8500028B1CDF800A0491E084401E0D7
:105800001EE005E080B26B460022012101F4D4F1D4
:1058100038480078800713D594F82000000605D595
:1058200098F86E0040F0400088F86E0094F8200070
:10583000C0F3C011E08B10F4FBD50646300045D113
:1058400002204DF4ADD288F86C700DF411D288F8B6
:1058500075A094F82A0088F8740098F86C00800805
:1058600022D000E032E04120E17E88F86F108A0704
:1058700004D421F0020088F86F001720E18C49451C
:1058800000D349468946484500D981461FFA89F127
:10589000A8F87010228D8A4200D21146884200D8A2
:1058A0000846A8F8720001E088F86FA0104810229E
:1058B00004F10A015630FCF7FDFDA07EC00705D0BB
:1058C0006068C8F866002089A8F86A003EB10A4AF4
:1058D00031460020126890475846BDE8FC9F074AB1
:1058E0000021084612689047F6E700000300000018
:1058F000000E8000F8038000EC038000FC038000B1
:105900002DE9FE4F82468846914600200190029084
:105910002F4B30A2402107F441D2324800680028C2
:1059200054D005684AE0A888401C84B2EF882889D2
:1059300072F476D4064623462BA24021002000971D
:1059400007F42CD237E001A920465FF4DBD228BB54
:1059500042F6021101A85FF4DBD2F8B123462BA274
:105960004021002007F41AD264F410D380B164F40B
:105970000DD3C01CA04204D1214648466EF486D700
:1059800040B15EB1306948B1B8F1000F0CD106E00A
:105990000020EFE70021504663F41ED209E02146C3
:1059A00048466EF473D720B9336900222146504629
:1059B0009847641CA4B2BC42C5D92D68002DB2D151
:1059C000034B1AA24021002007F4E8D1BDE8FE8F66
:1059D0008DB90001523A333A5B25735D20656E74D0
:1059E00065720A00E0228000523A333A73746172A1
:1059F000745F68646C3D307825782C20656E645F38
:105A000068646C3D307825780A000000523A333AD9
:105A1000636C6561722063636364206174206861F4
:105A20006E646C653D307825780A0000523A333A4E
:105A30005B25735D20657869740A000070B50546C2
:105A40000548446804E0E16809B1284688472468AD
:105A5000002CF8D170BD00008049800010B50E4BBD
:105A60001B78984210D200EB40030C48006800EB12
:105A700083100B68C0F803308988A0F80710827083
:105A8000012100F8021B10BD05A24021002007F4EF
:105A900085D1002010BD0000E4238000DC228000BE
:105AA000523A333A676174742066696E642069748F
:105AB000656D2C206E6F7420666F756E640A000031
:105AC00070B58AB005460C461646FF222821684666
:105AD000FCF781FB4FF4C063ADF80030ADF8024035
:105AE0008DF80450ADF806606846FDF7E9FE0AB08F
:105AF00070BD00002DE9FC4107460E461446234BBD
:105B000023A24021002007F449D1002538466FF434
:105B1000E3D48DF8066020680090A088ADF80400FA
:105B2000324621463846FFF799FF04467CB12146AC
:105B300068465FF437D603465BB119A240210020C6
:105B400007F42CD1384600F071F801250EE001254C
:105B50000CE0237A19A24021002007F41FD1207AFB
:105B600088B12246694638466FF494D122462946C8
:105B70003846FFF7C5FE054B1AA24021002007F466
:105B80000DD1BDE8FC810125F0E70000A3B90001BB
:105B9000523A333A5B25735D20656E7465720A0074
:105BA000523A333A626F6E64206D67722067657493
:105BB000206572723D307825780A0000523A333AF7
:105BC000626F6E6420646576207265636F6E6E65C9
:105BD00063742C2063636364206E756D3D3078259B
:105BE000780A0000523A333A5B25735D2065786984
:105BF000740A000030B58BB004460D460A4B0022F3
:105C00001A70FF22282101A8FCF7E5FA40F2016290
:105C1000ADF80420ADF806408DF80A5001A8FDF754
:105C20004FFE0BB030BD00008049800070B50446C7
:105C30000BA24021002007F4B1D010480078844224
:105C40000DD20F4D04EB4404C021286800EB8410F2
:105C5000FCF7A7FC2968002001EB8411087070BDD7
:105C6000523A333A676174742072656D6F766520BD
:105C70006974656D20656E7465720A00E4238000A6
:105C8000DC22800070B58AB006460D461446FF221D
:105C900028216846FCF79FFA40F20452ADF8002034
:105CA000ADF802508DF8046034F8040BADF808002C
:105CB00003946846FDF704FE0AB070BD70B58AB063
:105CC00006460D461446FF2228216846FCF783FA53
:105CD00040F20352ADF80020ADF802508DF8046098
:105CE00034F8040BADF8080003946846FDF7E8FDAE
:105CF0000AB070BD70B505460548846804E0E168E7
:105D000009B1284688472468002CF8D170BD0000EE
:105D10008049800070B505460548846804E0E16864
:105D200009B1284688472468002CF8D170BD0000CE
:105D30008049800070B58AB006460D461446FF22A1
:105D400028216846FCF747FA40F20252ADF80020DD
:105D5000ADF802508DF8046034F8040BADF808007B
:105D600003946846FDF7ACFD0AB070BD30B58BB04A
:105D700005460C46FF22282101A8FCF72CFA40F228
:105D80000752ADF804200022ADF806208DF8085027
:105D9000D4E901022168CDE90402039101A8FDF7CD
:105DA0008FFD0BB030BD70B58AB006460D46144667
:105DB000FF2228216846FCF70EFA40F20552ADF8A2
:105DC0000020ADF802508DF8046034F8040BADF8F3
:105DD000080003946846FDF773FD0AB070BD70B506
:105DE0008AB006460D461446FF2228216846FCF775
:105DF000F2F94FF4A061ADF80010ADF802508DF843
:105E000004601622214602A8FCF754FB16340894BD
:105E10006846FDF755FD0AB070BD000070B5054637
:105E2000002D12D0FDF760FE0C48846805F10906CC
:105E300009E020792A7A904204D13146A068FCF723
:105E40000DFB18B12468002CF3D170BDE168002966
:105E5000FBD02846BDE8704008470000804980001C
:105E600070B58AB006460D461446FF2228216846C2
:105E7000FCF7B1F940F20152ADF80020ADF8025044
:105E80008DF8046034F8040BADF8080003946846FC
:105E9000FDF716FD0AB070BD70B58AB005460C4618
:105EA0001646FF2228216846FCF795F940F2065372
:105EB000ADF80030ADF802408DF80450ADF8086040
:105EC0006846FDF7FDFC0AB070BD000070B50546E0
:105ED0000548446804E0E16809B128468847246819
:105EE000002CF8D170BD00008049800010B5044638
:105EF0000846FDF74DFE0146002903D02046BDE8C7
:105F00001040084710BD017882781144C9B2017170
:105F10000846704730B500224271438805E0447955
:105F20008D5C2C444471521C92B29342F7D8407954
:105F300030BD000030B50246002400200021084B8F
:105F400053F820502DB1914201D1044605E0491C7F
:105F5000C9B2401CC0B20A28F2D3204630BD0000AE
:105F6000CC0D800070B506462DED068B88B00D4631
:105F70009FED368B20216846FCF735FB002410226C
:105F800069463046FCF7E2FC0020694600F1080251
:105F900031F81220224494B2401CC0B20828F5D334
:105FA000E408052E02D0062E24D046E0688805F0CD
:105FB00090F941EC180B288805F08BF941EC190B8E
:105FC000204605F086F953EC192B05F0E5FA53EC61
:105FD000182B04F0C9FF9FED1F1B53EC112B04F08D
:105FE000C3FF9FED1E1B53EC112B05F0C9FA41ECCA
:105FF000180B22E09FED1B0B51EC100B04F000FF7F
:1060000041EC190B688805F064F941EC1A0BA8887B
:1060100005F05FF941EC180B204605F05AF953ECF6
:10602000182B05F0B9FA53EC1A2B04F09DFF53EC32
:10603000192B05F0A7F941EC180B08B0B0EE480A8F
:10604000F0EE680ABDEC068B70BD00000000000099
:106050000000000079E9263108AC5CBF00000000B8
:1060600000003940B76DDBB66DDB0E4010B502465F
:1060700000200021064B53F821401CB1914205D06D
:10608000401CC0B2491CC9B20A29F4D310BD00009B
:10609000CC0D80001CB542680121117000214FF425
:1060A0008A2205E012F8013B4468491C6354C9B2D6
:1060B0000829F7D3094906C9CDE900124168009AB9
:1060C00041F8092F019A4A6002884068112169F459
:1060D0000DD50349002008701CBD0000C4B90001A3
:1060E0004825800000887047002101E0491C4008D5
:1060F000C207FBD00846704740F45F40704700007D
:10610000014617480068C0F3C220DC2901DA0620E6
:106110007047A1F1DC020A2A03D20428F8D0062035
:106120007047A1F1E602142A01D804207047A1F1BA
:10613000FB02092A03D20328F8D004207047A1F5F6
:106140008272282A01D803207047A1F22D11092953
:1061500003D20228F8D003207047022070470000C5
:1061600010C500A001461E480068C0F3C220DC290B
:1061700001DA07207047A1F1DC020A2A03D20528C0
:10618000F8D007207047A1F1E602142A01D80520B3
:106190007047A1F1FB02092A03D20428F8D0052098
:1061A0007047A1F58272282A01D804207047A1F215
:1061B0002D12092A03D20328F8D004207047A1F534
:1061C0009B723C2A01D803207047A1F27311092960
:1061D00003D20228F8D00320704702207047000045
:1061E00010C500A00248006800F4807070470000ED
:1061F00078C500A005480068C00F002804D00448F6
:10620000007908B1012070470020704740C500A008
:1062100008468000FEB50546002404208DF80000E5
:1062200000260B4FE8070CD00120A040019004EBA2
:10623000440007EB800081680291416809B168461B
:106240008847641CA4B26D08761C082EEADBFEBDEC
:10625000D470800070B50546064811F417D4EFF3EA
:106260001084012181F31088284600F005F884F39A
:10627000108870BD6847800000B585B00168009146
:10628000017901F00301019181680291C1680391D4
:10629000406800090490684601F0FCFD05B000BDAF
:1062A00010B5FF20FCF788FC80B2002821D01149EE
:1062B0008863EFF31081012282F310880E4A6FEA9F
:1062C0000043136081F310886FF0040111600A49E4
:1062D00040390968C1F3001139B1202805D0BDE863
:1062E000104020F0200011F44993BDE8104011F453
:1062F000459310BD002001A044C500A070B5044620
:10630000002C11D0134DD5F8A40220F08000C5F860
:10631000A402114E2178304601F094FED6F898037D
:10632000C0F3000010B10FE0012070BD05F5287525
:10633000686840F080006860286840F0800028604D
:10634000A86840F00400A86000202834A0616070B4
:10635000207070BD00E000A0003001A030B58DB00D
:106360000446002C04D094F82900002518B111E04F
:1063700001200DB030BD84F828501948416821F043
:1063800080014160016821F080010160816821F095
:1063900004018160022084F8290001A82EF454D55C
:1063A00060680A90A0680B9020690590606906906B
:1063B000A0690790E0690890E0680390206A049063
:1063C000606A0C90217801AA064801F0C7FE256496
:1063D000012084F8290084F828500020C9E7000033
:1063E000A0E200A0003001A010B5EFF3108301225D
:1063F00082F31088094A1468002C02D01468641EC5
:10640000146012683AB920F0807021F00101044A4A
:1064100011600449086083F3108810BDB8458000FE
:10642000001000E0FCED00E010B5EFF31082012356
:1064300083F31088074B1C68641C1C60064B40F0FB
:106440008070186041F001000449086082F31088F0
:1064500010BD0000B8458000FCED00E0001000E039
:1064600010B50446002C1DD0207A01281CD0012034
:1064700020721A48006818B1416809B1204688475F
:106480001748016821F480610160EFF31081012059
:1064900080F310881348026822F00202026000684C
:1064A00020B114E0012010BD022010BD0E4842684A
:1064B00042F001024260C26842F00072C2600268AB
:1064C00042F001020260C26842F08072C26081F351
:1064D00010880020E0606072207210BD840380008C
:1064E00014C500A050478000A0E200A070B504468B
:1064F000002C03D023492068884201D0012070BDC0
:10650000207A012805D001252572607A002610B175
:106510001EE0022070BD26721B48016821F00101B7
:106520000160816821F000718160EFF3108001212A
:1065300081F3108815490A6842F002020A6080F36C
:1065400010881348006818B1016809B120468847CF
:10655000022060720F48016841F480610160606848
:10656000012809D02068016821F48051016030467B
:10657000E6606572207270BD2068016841F4805148
:106580000160F4E7006401A0A4E200A0504780008D
:106590008403800014C500A012F44C9710B50B467C
:1065A000024600210348FFF770DB08B1002010BD50
:1065B000012010BD641F800038B50220009068469D
:1065C000FCF768F9114C206880B911482060114926
:1065D0000160012141608160EB21C1600E499DF89D
:1065E000002051F8221001610021416175F4BED4F0
:1065F00008B1012000E00020A072044812F4AED6D9
:1066000008B1002038BD012038BD0000641F8000A3
:10661000281F800000D000A0F045800010B514466F
:106620000A46014623460448FFF7B6FF08B100209A
:1066300010BD204610BD0000641F80002DE9F0470A
:10664000C0B081468A4617463B46524649461748DF
:10665000FFF711DA18BB00243D464FF48078474518
:1066600001D9464600E03E4609EB040133466A463E
:106670000E48FFF791FF90B90AEB040032466946D5
:10668000FBF7ECFE58B9AD1B6DB134444646B5423C
:1066900000D82E46BC4202D2A019B842E4D900204C
:1066A00040B0BDE8F0873846FAE70000641F80007C
:1066B0002DE9FE4307460E463046FFF715FD85B22D
:1066C0000024DFF85490DFF8548059F83400B842C1
:1066D0001DD105EB041085B205EB450218F8220028
:1066E000032807D08DF800400D48874206D13004BA
:1066F000019004E003208DF80000F5E7019608EB17
:1067000082008168029142680AB168469047641C21
:10671000032CDADBBDE8FE83C8B70001546F8000AC
:10672000001001A070B505460E46074813F4D8D1F5
:10673000EFF31084012282F310883146284613F4C7
:10674000C4D184F3108870BD6C47800010B5064832
:1067500019F4E6D0EFF31084012080F3108815F4CB
:1067600087D484F3108810BD60478000084601F08C
:10677000C7BD70477047000010B5114881780029E7
:1067800009D11049096801F0405101228270B1F12C
:10679000805F00D14270407870B19FED0B0B0C48C8
:1067A00053EC102B90ED000B51EC100B04F034FB6C
:1067B000BDE8104004F060BDBDE8104075F42A93B8
:1067C000BD45800050C500A0000000000000E03F73
:1067D000C84580001CB504F081F805218DF8001033
:1067E0000649002251F8203083F8002151F820009A
:1067F0000168002901D0684688471CBDD04380004D
:106800001CB504F06BF804218DF800100649002235
:1068100051F8203083F8002151F820000168002948
:1068200001D0684688471CBDD04380001CB504F0E9
:1068300055F803218DF800100649002251F8203048
:1068400083F8002151F820000168002901D0684632
:1068500088471CBDD043800070B5054606481BF430
:1068600057D0EFF31084012181F3108828461AF4E1
:1068700003D684F3108870BD704780001CB50446B1
:10688000204604F02BF800228DF80020E16B0191E6
:10689000064951F8203083F8002151F820000168A2
:1068A000002901D0684688471CBD0000D043800005
:1068B000002804D010F8371F4078084370470020A4
:1068C0007047000070B5054606481BF421D0EFF371
:1068D0001084012181F3108828461AF4BBD684F372
:1068E000108870BD704780007047704770B50446CF
:1068F0000E46154694F83800102801D0022070BDCD
:10690000F6B3EDB3206BD8B32F4BA069C8B32068A2
:106910000121C0F89C10206B4FF40042017818460A
:1069200001F0B5FC6662258565850021E1631220D2
:1069300084F83800012084F83500226B2348106366
:10694000226B23489063206BC163206842699207E1
:1069500003D502680222C0F8882084F83610216826
:106960002B46626A206B11F467D7EFF31081012088
:1069700080F310882068426842F00402426001E01F
:1069800006E007E081F31088A06901280DD018E027
:10699000012070BD20680021C0F89C10206B0022EF
:1069A0000178184601F073FCBCE7EFF31081012079
:1069B00080F310882068426842F00102426081F34F
:1069C0001088002070BD0000003001A0BDC005008F
:1069D00075C005001CB50446204603F07FFF022168
:1069E0008DF80010218D628D891AADF804100449CC
:1069F00051F820000168002901D0684688471CBD75
:106A0000D04380007CB50546284603F067FF044666
:106A100001208DF80000288C698C401AADF8040024
:106A20000C4D55F8240090F8040118B12046FCF7ED
:106A300063FC02E02046FCF75DFD55F8240090F869
:106A40000011002904D10168002901D06846884757
:106A50007CBD0000D043800070B50C46154628462A
:106A600029F488D42D0A3F281DD0284608F442D4A2
:106A70000346A2782179284609F418D20B4850F829
:106A800025008289FF2A09D0207808B1903000E0E3
:106A90000020C3B20121284609F41BD22279618863
:106AA00028460BF465D3002070BD0000CC0D80009B
:106AB0002DE9FC4104460F46217800260025601C84
:106AC0004BF4A0D0142808D20C4900EB800001EB55
:106AD000400090F82903C0F34005CDE90065237814
:106AE00004F11702E11D601C44F424D60146384627
:106AF0004BF45AD00020BDE8FC810000A4148000B3
:106B00002DE9F04104460E460C2502F031F8B0B3F1
:106B10002178012903D9FF2901D0122538E0601C12
:106B20004BF470D005461E4F142D09D205EB85009D
:106B300007EB400090F82903800706D5122527E0CF
:106B40004BF44ED00546142D1AD005EB850007EB0B
:106B5000400000F54870D4F801100160B4F8051049
:106B6000818021780172417A41F0010141F00201F6
:106B700041722178601C4BF4D5D118B107E007E0D1
:106B8000072505E02278611C284648F403D6002535
:106B9000294630464BF408D00020BDE8F0810000C3
:106BA000A414800010B50C4644F498D60021204669
:106BB0004AF4FAD7002010BD70B50E460C2401F03F
:106BC000D7FFF8B10024124D04EB840005EB40011F
:106BD00091F82903C20710D020F0020081F82903A0
:106BE000420703D420F0010081F8290391F82823FB
:106BF00001F54871204648F41BD6641CE4B2142CFD
:106C0000E2D30024214630464AF4CED7002070BD9E
:106C1000A414800038B504460D46214668460AF49F
:106C2000D9D2B0B10098C17B022904D0032907D082
:106C300004290ED109E02A46214600F041FE08E071
:106C40002A4621461EF426D303E02A4621461EF496
:106C500017D4002038BD38B504460D46FEF76CFB4E
:106C6000214668460AF4B6D278B10098C17B022961
:106C700002D0042909D104E02A46214602F0DCFEB4
:106C800003E02A4621461EF403D4002038BD00004C
:106C90002DE9F84F06460C4693464FF00008DFF802
:106CA0002CA15AF8267001210C2E07D2384628B1A3
:106CB00090F85000C043800704D0002121B14FF06C
:106CC0000C087AE00121F9E700214FF001090C2EB0
:106CD00009D2384638B190F83C0010F0020F01D0CC
:106CE000012100E0002119B997F84E00C00706D035
:106CF00097F85100C00605D54FF03A085DE04FF017
:106D00001A085AE020890090E3886288A1883046FA
:106D100030F4BED348B92E49C6EBC60011F81000B6
:106D2000800702D44FF0120847E009EB0621302318
:106D30000A4640F20B1029F433D20546052028718B
:106D400000223146284633F469D022482860A188C1
:106D5000A0894900884200D308466882618860891A
:106D60004900884200D308462882A088688160884C
:106D7000288160882885E088A8812089E881002111
:106D80000C2E0AD25AF8260038B190F83C0010F0C8
:106D9000020F01D0012100E0002181F0010085F8FF
:106DA0002C0085F82D9085F82E90284629F444D2A1
:106DB00017F8510F40F010003870424659463046DF
:106DC00030F468D20020BDE8F88F0000381280004F
:106DD00040088000B58B03002DE9F34FA9B00446AD
:106DE0004FF000090C2700260096602101A8FBF750
:106DF000FAFBDFF8108398F8A90401281CD00220C0
:106E000088F8A90400969DF8000008EB801191F81D
:106E10004410052904D0401CC0B200900C28F2D3C5
:106E20009DF800000C2807D3207830B9A178E01C29
:106E30004BF478D008B10B275BE11227617A11F08F
:106E4000050FF9D0B04801F00F02825C00EB111081
:106E500000781044C5B2002010E08A0703D501F085
:106E60000102824209D004EB0012938952899342B5
:106E700006D8042B04D3042A02D3401CA842ECDB1E
:106E8000A842D9DB002127E004EB0110B0F80EC0C6
:106E9000028A944522D8C38AB0F818A053451DD859
:106EA000DFF868A2838ABAF800A0534516D8BCF16F
:106EB000060F13D3DFF858C2BCF800C062450DD8E6
:106EC0000A2B0BD3408AB0F5FA7F07D2401C5043FF
:106ED000B0EB830F02DA491CA942D5DBA942ABDB38
:106EE000A0780128A8D860780328A5D88DF8780064
:106EF000207850B9A178E01C34F475D028B99DF8F9
:106F0000780020F002008DF878006078C00705D086
:106F10008049814804F4C0D700288DD168464AF4DE
:106F200023D30746380087D1824601AF25E004EB22
:106F30000A11CA89C88A5200904200D3104680B212
:106F40000222022800D8104682B2088A0B8B4FEA30
:106F5000400C604607EB4A10C0F804C0C9894900DC
:106F600001608260C2608674C6749DF80010018260
:106F70004EF4DCD418B90AF1010AAA45D7DBAA45B8
:106F800001DA3B27B5E09DF8000008EB801080682F
:106F900028B14FF4D27261A164A0FFF7FFDD6078E1
:106FA00068B3012837D0022829D0032833D040F213
:106FB000B9135AA20021FFF701DE9DF800E008EBAB
:106FC0008E1BCBF808404FF0010905208BF84400D8
:106FD000D4F80300CDF86A00B4F80700ADF86E00ED
:106FE0004848D0F819131C9190F81D038DF87400CF
:106FF000607A8DF8760000200DF1640A30E09DF88B
:107000000000404908EB8010D1F80823C260B1F8B5
:107010000C130182D1E79DF800003A4908EB80107B
:10702000D1F80E23C260B1F812130182C5E704EB58
:10703000001200EB40010AEB810153890B83938915
:107040004B8307EB4013D3F814C04FEA5C0CA1F854
:107050001CC01B8BCB83538A0B84928A4A84401CAE
:10706000A842E4DB9DF876100520884313D16D1EFD
:1070700005EB45000AEB80011831BDF87E004A8817
:107080001044BDF87C20824201D2ADF87C000A8811
:10709000824200D208808DF877E0A0788DF87900E0
:1070A00020788DF87A00DBF80C001990BBF81000FE
:1070B000ADF8680001208DF8750098F812048DF87D
:1070C000A000264919A8096888470746380010D04B
:1070D00003279DF8000008EB801080F8446080686A
:1070E00038B10C3829F49ED09DF8000008EB8010D0
:1070F000866039462A984AF465D52BB04846BDE8E3
:10710000F08F0000A4148000B4D005008206800037
:1071100080068000D4D00500B21780006C6C6D5FD3
:107120006863695F70617463682E63006C6C6D5F87
:10713000656E762E6163745F696E666F5B61637402
:107140005F69645D2E686F73745F706172616D73E7
:10715000203D3D204E554C4C00000000480680006C
:10716000F8B50D461646688808F49ED00446FF2CF4
:107170004DD00121204608F40BD20A2813D0082054
:1071800040EA04211E23324640F6166029F408D056
:107190000B210170A989418269684161A9688161F7
:1071A00029F44AD033E000200090204653F4A4D4C0
:1071B0001849682290B151F8240090F84030302BE3
:1071C00001D0009216E0312280F8402051F82400CE
:1071D00001210269204653F4F1D40BE051F8240058
:1071E00090F84000412801D0009203E001212046A0
:1071F00051F45AD29DF8000048B1002211462046B1
:1072000053F4DCD46A460321204653F415D50020FC
:10721000F8BD0000CC0D800070B504460E460C256C
:1072200001F0A6FC28B32178012903D9FF2901D058
:1072300012251EE0601C4AF4E5D4142808D2104937
:1072400000EB800201EB420292F829138B0701D474
:1072500012250EE021F0020182F829134B0703D416
:1072600021F0010182F829132278611C48F4E0D250
:107270000025294630464AF497D4002070BD00000E
:10728000A414800070B502460D461078012817D866
:1072900000B101200E4981F812040024107850B189
:1072A000B1F81024642042430021062029F480D341
:1072B00044F4F2D305E00021062029F4E9D200E0ED
:1072C0001224214628464AF46FD4002070BD0000E5
:1072D000A41480002DE9F84F044688460C250027A9
:1072E0000C200090804E96F8A90401281CD00220A2
:1072F00086F8A904002000909DF8001006EB81108C
:1073000090F84400062808D0072806D0082804D0A2
:10731000491CC8B200900C28EED320784FF0060B21
:1073200028B101282BD01225002F74D0D4E09DF86D
:1073300000000C28F8D206EB801090F844000828D2
:10734000F2D0062810D046F4B3D3054628000DD05D
:107350009DF8000006EB801080F844B00021032067
:1073600029F496D20025DFE70025DDE79DF800101F
:10737000082006EB811181F844000127D4E7DFF8EB
:107380006C91122560780228CED805D1A0880028FB
:10739000CAD060880028C7D0A18819B16088B0EB36
:1073A000C11FC1D29DF80000DFF844A10C2835D2DE
:1073B00006EB801090F84400082802D0072802D07D
:1073C00032E00C25B0E799F80000800701D44FF0B7
:1073D000000A5246608845F4C3D096F8A604617846
:1073E00020F0010001B10121084386F8A60420F035
:1073F0000201607802280FD0002041EA400086F8A0
:10740000A6049DF80000618806EB80100186A18823
:107410004186002588E75BE00120EEE768464AF4F4
:10742000A3D0054628009ED19DF8000006EB8010F1
:1074300080F844B099F80000C00705D02D495046A7
:1074400004F42AD500288ED199F80000032808D129
:1074500044F456D228B12749504604F41DD50028DB
:107460008CD199F80100012801D0032803D14AF4F6
:10747000EDD50028A6D196F8A604617820F0010089
:1074800001B10121084386F8A60420F002016078CA
:1074900002281BD0002041EA400086F8A6049DF88F
:1074A0000010628806EB81100286A28842860120C5
:1074B00086F8A70408464AF495D79DF800100720DF
:1074C00006EB811181F8440000252DE70120E2E759
:1074D000294640464AF468D39DF8001008464BF40C
:1074E00049D00020BDE8F88FA414800092068000E7
:1074F000B2178000D4D005002DE9F84304460F46AA
:1075000000260C21354D95F8A90401285FD00220F2
:1075100085F8A904002000909DF8002005EB82105A
:1075200090F84400062808D0072806D0082804D080
:10753000521CD0B200900C28EED39DF800000C280D
:1075400006D205EB801090F8440006283FD105E0F4
:1075500068464AF409D00146080038D11221A078C3
:10756000012804D0042802D0052803D02FE04FF0D2
:10757000010801E04FF00208002211E002EB420096
:1075800004EB4003B3F808C0D88884450AD81B79B7
:10759000012B07D8BCF1040F04D3042802D3521CDA
:1075A0004245EBDB424512DB207803280FD8607898
:1075B00003280CD8102221460948FAF77BFF9DF8D2
:1075C0000010062005EB811181F8440000213846A7
:1075D0004AF4EAD23046BDE8F8830000A4148000E3
:1075E0009206800010B50C46C279012A07D80178AE
:1075F000012904D8401C44F409D2014600E01221BC
:1076000020464AF4D1D2002010BD00002DE9F047F9
:107610008846132B40D12CF4B5D307460025DFF85C
:10762000809031E008EB4506708807F43DD60446AB
:10763000FF2C27D059F8240028B97088422319A2BA
:107640002146FFF7BBDA8FB959F8240090F83210C1
:1076500004290BD8406810B1002010B106E00120C9
:10766000FBE72046FEF702FD13490870B088134976
:107670000A891044088159F82400327910F8321F21
:10768000891A01706D1CADB298F80000A842C9D8E3
:1076900017B9092028F43CD20020BDE8F08700008B
:1076A000180F80006C3263635F7461736B5F70618D
:1076B0007463682E63000000924780004C0F8000C6
:1076C0002DE9F047064634460C3CDFF800A14FF0A8
:1076D00030494FF002089AF83000FF2808D0D9F856
:1076E0006410C20008FA02F081430143C9F8641033
:1076F00037480078B0B1A42236A139A0FFF74EDA9E
:10770000204628F48FD59AF83000FF2808D0D9F801
:107710006410C00008FA00F821EA0801C9F86410F2
:10772000BDE8F087FF250A27A088A0F58850053816
:1077300002D0012809D107E0208923F43BD520B1EC
:10774000807800F00F0700E003270A2F2DD2DFE832
:1077500007F0050705072C2C2C2C2C2B002524E0EA
:107760003078717840EA0120C0F30B00A0F58071F9
:10777000FF2901D8022518E00B2808D8194901442F
:10778000097E21B1012101EB002085B20DE0A08826
:10779000A0F58851063902D17068FFF711DA124856
:1077A0000178491C017000E00225FF2D04D0E5801E
:1077B000304628F441D5A6E72189A0889A2305A25E
:1077C000FFF700DA204628F42DD59CE70808800052
:1077D000A30680006863695F70617463682E63004C
:1077E0003000000050198000904780002DE9F047DC
:1077F00080468A461E464FF00009374662F3070767
:1078000000240025F0B204281DD006281DD007282A
:107810001FD008281BD0A8F510600A2800D20E4DF2
:107820003CB1A288404621686EF43CD1FCF7A2FE30
:1078300005462DB133463A4651464046A847814653
:107840004846BDE8F087054CEAE7054CE8E7054CFB
:10785000E6E7054CE4E70000ADC60600A82280007C
:10786000BC228000002280009822800038B50020D1
:107870000090124C2078902808D015D294F8280057
:1078800000F07F0000F14600009012E0684602F030
:10789000C1FC94F82800BDF80010884209D900F016
:1078A0007F004630009004E0A07C00F07F0012389A
:1078B0000090BDF8000000F07F0038BD123280005B
:1078C00070B505461178002901D0903100E0002103
:1078D000CCB25CB1E88B20B1072140F6B15028F45E
:1078E000D7D72246002128460BF468D121462846E6
:1078F000BDE8704009F4E09410B50446FFF7B6FF08
:10790000B4F5A37F10DA4FF48C718C4200DA0C4688
:10791000614201EB810140F6B24202EB41021121CA
:1079200092FBF1F1401AC0B203490A6822F0FE420C
:1079300042EA0060086010BD0CC500A070B50346A7
:107940000E46154608480468324621461846FEF79A
:1079500065FE324629462046FAF780FD08B1002030
:1079600070BD012070BD0000DC4780002DE9F05F94
:10797000DFF818A14FF030494FF002089AF80600DE
:10798000FF2808D0D9F86410C20008FA02F0814339
:107990000143C9F864104FF0E027D7F80051D7F839
:1079A00004B17E17C7F88061C7F88461BFF34F8FB9
:1079B000BFF36F8F364804F460D50446C7F8005112
:1079C000C7F804B1002C2DD02660204628F472D2CE
:1079D00030B1E188A08847232EA2FFF7EFD821E03D
:1079E000E188A08828F4D2D5FCF7C4FD054628001C
:1079F00005D1E188A088522326A2FFF7E3D835B14C
:107A000021460C312389E288A088A84700E00020A5
:107A100078B3012806D0022830D072221DA121A0FF
:107A2000FFF7BCD8D7F80041D7F80451C7F88061F8
:107A3000C7F88461BFF34F8FBFF36F8F144800689E
:107A400010B3002010B1032027F4BCD7C7F80041C1
:107A5000C7F804519AF80600FF2808D0D9F8641036
:107A6000C00008FA00F821EA0801C9F86410BDE86E
:107A7000F09FFFE7204628F4D5D3D3E704482146FA
:107A8000143004F41FD5CDE70120DBE7080880009F
:107A9000900980006B655F7461736B5F70617463E4
:107AA000682E63003000000030B58BB004460D46F0
:107AB000FF22282101A8FAF78EFB40F60202ADF85A
:107AC00004200022ADF806208DF8084028680390B5
:107AD00001A8FBF7F5FE0BB030BD70B58AB00646C5
