:020000040102F7
:1000000000008400E1000201ED0002019949800036
:10001000A7498000A9498000AB498000000000008A
:100020000000000000000000000000007149800096
:10003000F700020100000000F9000201FF010201C7
:10004000FB00020139380600DD370600F549800063
:10005000FB000201FB000201634A8000694A800044
:10006000454C80004D4C8000FB000201FB0002016A
:10007000034B80000B4B8000F14B8000F94B80005C
:10008000FB000201FB0002016F4A8000FB0002013D
:10009000FB000201FB000201FB000201FB00020168
:1000A000FB000201D1370600AD498000FB000201D0
:1000B00059100201FB000201FB000201FB000201DA
:1000C000FB000201814F8000DFF810D000F0CEFD70
:1000D000004800474B100201AFF30080000084008D
:1000E000064880470648804706480047FEE7FEE787
:1000F000FEE7FEE7FEE7FEE7FEE7FEE7877E030199
:10010000B91702010D1003012DE9F05F054600202B
:1001100092469B4688460646814640241BE0284678
:1001200041464746224600F064FC53465A46C01AF0
:10013000914110D311461846224600F04BFC2D1A6F
:1001400067EB01084F4622460120002100F042FCE7
:1001500017EB00094E41201EA4F10104DFDC4846E4
:1001600031462A464346BDE8F09F00000649074A4B
:100170000868504343F23902104408604008704751
:100180000149086070470000544980006D4EC64127
:1001900040EA01039B0703D009E008C9121F08C009
:1001A000042AFAD203E011F8013B00F8013B521E89
:1001B000F9D27047D2B201E000F8012B491EFBD200
:1001C00070470022F6E710B513460A460446194662
:1001D000FFF7F0FF204610BD421E12F8013F002B32
:1001E000FBD111F8013B02F8013B002BF9D170471C
:1001F000421C10F8011B0029FBD1801A7047704780
:1002000058585247010000000000000000000201A1
:100210000000020159585649010100000000000089
:1002200000000000000000000000000000000000CE
:1002300000000000000000000000000000000000BE
:1002400043F6B51CC3F2000C604730B504460020ED
:10025000034600E05B1C934203D2E05CCD5C401B94
:10026000F8D030BD30B505460020034600E05B1CE9
:10027000934205D2EC5CC85C201A01D1002CF6D167
:1002800030BD00000FB400B58DB010A909900B90DF
:1002900000914FF0FF300A9000200C900548069026
:1002A000054807906A4609A80F9900F0D9FB0DB0E0
:1002B0005DF814FB7D0A02019B0A02012DE9FF5F34
:1002C0001D464FF0FF3BD5E9014691465F464FF092
:1002D0000008A9697F1C01988847296A82468847D7
:1002E0000028F6D1BAF1FF3F0CD024F4C064002EF0
:1002F00019DD600614D5BAF12B0F09D0BAF12D0F14
:100300000ED103E0584604B0BDE8F09F44F4806489
:10031000A9697F1C01988847761E8246002E02DD5F
:10032000BAF1300F03D0B9F1000F26D032E0A9693D
:10033000761E44F400747F1C019888478246002E84
:1003400005DDBAF1780F06D0BAF1580F03D0B9F134
:10035000000F10D01EE0B9F1000F02D0B9F1100F5C
:1003600018D1A969761E24F400747F1C019888476F
:100370008246102002E0082000E00A20814609E0C1
:1003800008FB0908A969761E44F400747F1C0198D3
:1003900088478246002E05DD4946504600F04BFB5B
:1003A0000028EDDAE96901988847A00502D46FF0CA
:1003B0000100A8E7E00725D1600613D5600502D546
:1003C000C8F1000000E0404629680A1D2A6009685B
:1003D000220501D5087015E0220701D5088011E03B
:1003E00008600FE02868011D29600068210502D51A
:1003F00080F8008006E0210702D5A0F8008001E027
:10040000C0F8008038467EE7F0B480EA0102D40FDD
:100410004200B2EB410F02D20246084611464A00A2
:1004200042D0C30DDDB2C1F3C752AD1A202D35DA6B
:10043000C1F3160141F4000204B15242C5F1200695
:1004400002FA06F12A411044B3EBD05F23D0C4B1C5
:10045000012DA0EBC35009DCF0BC4FF0004202EAD2
:10046000C352DBB200F5000000F031BB400000F1E8
:10047000807000EBC350A0F1807040EAD170490059
:1004800009E0490841EAC071A0EBC35000F5000043
:10049000400800EBC350F0BC00F010BB61420122E9
:1004A00002EB4101001BF6E7F0BC704781F0004110
:1004B000AAE780F00040A7E730B480EA010202F02A
:1004C000004530F0004221F0004013D090B1C30D40
:1004D000D40DC2F31601C0F31600E41A41F4000172
:1004E00040F400027D34914201D3641C00E04900D5
:1004F000002C02DA30BC002070474FF400000023CB
:10050000914201D3891A034340084FEA4101F7D1D0
:1005100051B1914202D14FF0004105E002D24FF0BB
:10052000010101E06FF0010103EBC450284430BC2D
:1005300000F0C4BA2DE9FE4F804681EA0300C00FE7
:100540000C46009021F0004123F00045B8EB02007A
:10055000A94105D24046214690461C460B4602461C
:1005600023F00040104347D0270DC7F30A00C3F320
:100570000A510290401A019040286BDAC3F313002D
:1005800040F4801B0098924620B10023D2EB030A6E
:1005900063EB0B0B01985946C0F14002504600F046
:1005A00019FA06460D4650465946019A00F031FAAE
:1005B00010EB08006141002487EA115284EAE773D6
:1005C0001A4340D0009A62B3019A012A4FEA0752B7
:1005D00015DC001B61EB02014FF0004202EA0752FA
:1005E000CDE90042001C41F5801132462B4600F057
:1005F000ABFA03B0BDE8F08F40462146F9E7001B97
:1006000061EB0201001C41F5801300185B412018CA
:10061000A2F5001747EB030140EAD570B6196D410A
:1006200011E06D084FEA360645EAC0754FEA0752F9
:10063000001B61EB0201001C41F5801149084FEAE3
:1006400030000019514132462B4603B0BDE8F04F4F
:1006500000F06BBA0098012240000023D0EB0202A8
:1006600063EBE073009821464FEAE074B8EB0000BA
:1006700061EB0401E9E783F000435BE781F00041AF
:1006800058E72DE9FE4F81EA030404F0004421F00D
:10069000004100944FF0000B23F0004350EA0104A6
:1006A0005ED052EA03045BD0C3F30A54C1F30A5587
:1006B0002C44A4F2F3340194A0FB0254C1F31301BF
:1006C00041F48011C3F3130343F4801301FB02448C
:1006D00000FB034E840A970A44EA815447EA835791
:1006E000A4FB076802958D0A05FB07854FEA932C4A
:1006F00004FB0C542705029D4FEA065847EA1637BB
:10070000B5EB08056EEB070C870E920E47EA8117D2
:1007100042EA8312A7FB0201B6EB0B0164EB000473
:100720002B0D43EA0C335E1844EB1C50DA4651465D
:10073000E7FB0201C5F313044FEA0B3343EA1453FA
:100740004FEA0432019C43EA0603A4F10C0402942C
:10075000009CCDE900B400F0F7F903B0BDE8F08FDC
:1007600000200146F9E72DE9F04D81EA030404F089
:10077000004B21F0004514464FF0000A23F00041E1
:1007800050EA050220D054EA01021DD0C5F30A57F1
:100790000246C5F31303C1F31300C1F30A5640F434
:1007A000801543F48013A7EB0608101BD64608F209
:1007B000FD3873EB050002D308F1010801E092183F
:1007C0005B41B8F1000F03DA00200146BDE8F08D6F
:1007D00000204FF48011064684460EE0171B73EB91
:1007E000050705D3121B63EB050306434CEA010C16
:1007F00049084FEA300092185B4150EA0107EDD1F9
:1008000052EA030012D082EA040083EA0501084399
:1008100005D0101BAB4106D20122002306E00022C6
:100820004FF0004302E06FF0010253101AEB060094
:100830004CEB085110EB0A0041EB0B01BDE8F04D09
:1008400000F073B996230022114600F040B90EB5AE
:1008500040F2334102910021CDE900110A460B46D6
:1008600000F072F903B000BD0EB540F233420292BF
:100870000022CDE90022134600F066F903B000BD66
:1008800020F00040C10DC0F3160040F400007F29A5
:1008900001DA00207047962903DCC1F19601C840B7
:1008A000704796398840704770B5C1F30A5201F01D
:1008B00000450024C1F3130140F2FF3341F48011DD
:1008C0009A4201DA002070BD40F233439A42A2F20C
:1008D000334203DC524200F08CF800E090402C439D
:1008E000F1D0404270BDC1F30A5210B5C1F31301FB
:1008F00040F2FF3341F480119A4201DA002010BD2A
:1009000040F233439A42A2F2334203DC524200F0F7
:1009100070F810BD904010BDC1F30A52C1F313012D
:1009200040F2FF3341F480119A4202DA002001467E
:10093000704740F233439A42A2F2334202DC524201
:1009400000F057B800F046B830B5041E71F100044D
:1009500004DB4FF00044404264EB0101141E73F1CC
:10096000000405DB1C464FF00043524263EB0403D6
:100970008B4208BF824230BD30B5041E71F10004C5
:1009800004DB4FF00044404264EB0101141E73F19C
:10099000000405DB1C464FF00043524263EB0403A6
:1009A000994208BF904230BD30B50B460146002049
:1009B0002022012409E021FA02F59D4205D303FA21
:1009C00002F5491B04FA02F52844151EA2F10102A2
:1009D000F1DC30BD202A04DB203A00FA02F10020CD
:1009E00070479140C2F1200320FA03F3194390406D
:1009F0007047202A04DB203A21FA02F000217047D8
:100A000021FA02F3D040C2F1200291400843194676
:100A10007047202A06DBCB17203A41FA02F043EA5E
:100A2000E07306E041FA02F3D040C2F120029140A7
:100A30000843194670473A2800D2303820F0200287
:100A4000412A01D3A2F13700884201D34FF0FF3091
:100A5000704700000268114413780160184670471F
:100A6000D1600449516104491162002111611146AC
:100A700000F014B9550A0201910C0201426842B11A
:100A8000016811F8013B23B1521EC0E9001218465B
:100A900070470121C160881E704742685AB1C3681F
:100AA000016843B983688B4205D0491E521CC0E9D6
:100AB0000012002070474FF0FF3070470029A8BF98
:100AC0007047401C490008BF20F00100704710B477
:100AD000B0FA80FC00FA0CF050EA010404BF10BC2C
:100AE000704749B1CCF1200421FA04F411FA0CF159
:100AF00018BF012121430843A3EB0C01CB1D4FEA92
:100B000000614FEA102042BF002010BC704700EB8C
:100B1000C35010440029A4BF10BC7047401C4900BA
:100B200008BF20F0010010BC704710B5141E73F10F
:100B3000000408DA401C41F1000192185B411A439D
:100B400001D120F0010010BD2DE9F04D92469B46E9
:100B500011B1B1FA81F202E0B0FA80F2203290468F
:100B6000FFF738FF04460F4640EA0A0041EA0B014E
:100B700053465A46084313D0114653EA010019D090
:100B8000C8F140025046FFF734FF05460E46504676
:100B900059464246FFF71EFF084305D0012004E0F6
:100BA00020463946BDE8F08D0020054346EAE07650
:100BB0002C4337430A986305E40AA0EB080000229F
:100BC000FD0A44EA47540A3002D500200146E9E70D
:100BD000010510196941DDE9084500196941BDE8C1
:100BE000F04DA2E72DE9F041054621F000400C460A
:100BF000284309D0C4F30A5040F23341884205DD4E
:100C000028462146BDE8F0812846FBE740F2FE3148
:100C1000884210DC0CDB4FEA043040EA155050EA01
:100C2000053105D0104804F0004101430020E9E7F8
:100C300000200146E6E7A0F233404642C6F14002FA
:100C400028462146FFF7C6FE074688462846214625
:100C50003246FFF7CEFE43463A46FFF766FF32467E
:100C6000BDE8F041FFF7B6BE0000F03F064C074D6F
:100C700006E0E06840F0010394E80700984710346C
:100C8000AC42F6D3FFF724FA88030401D803040129
:100C9000C0B24FF4F05100F099B900002DE9F34FC4
:100CA0008BB04FF0000801F10C000C464FF0010B27
:100CB00046460DF1080A01906269012101989047AA
:100CC000051E2DD0252D2CD0216A8847C0B1626920
:100CD000012101989047216A88470028F7D1411ED9
:100CE00062690198904700E0761CA1690B988847DB
:100CF000216A88470028F7D1E1690B988847DBE72C
:100D0000A1690B9888470746A84201D1761CD3E712
:100D1000E1690B9888477F1C02D1B8F1000F6FD0B2
:100D200047E1002762693D463946019890472A28E5
:100D300004D162690121019890470125DFF888926A
:100D40006269012101989047A0F130010A290AD275
:100D50004F45E5DC07EB870100EB4107303FDFD46F
:100D600045F01005ECE7E90601D46FF000476C2868
:100D70000AD04C2814D0682815D06A280DD07428C1
:100D80001CD07A281AD01DE0626901210198904791
:100D90006C2802D045F0040514E045F002050DE092
:100DA00045F020050AE06269012101989047682812
:100DB00002D045F0080505E045F4006562690121AF
:100DC00001989047C4E9015765283DD019DC58289F
:100DD0007AD00CDC452837D004DC252826D04128E1
:100DE00031D131E046282FD047282CD12CE05B2888
:100DF00077D0612828D063287CD0642823D15AE09A
:100E0000D1E06F2848D008DC66281DD067281BD0A9
:100E1000692821D06E2816D127E0702845D0732884
:100E200068D0752847D078280DD14DE0A1690B987E
:100E30008847054625283FF469AFE1690B98884744
:100E40006D1C3FF46AAFB4E023466A466FF00100C0
:100E50000B99AFF300809FE045F040006060A80769
:100E600023464FF0000236D43EE0E8077FF447AF58
:100E70002068011D21600068290501D506701BE767
:100E8000290701D5068017E7A90703D5F117C0E99F
:100E9000006111E706600FE745F040006060A807B9
:100EA00023464FF0080216D41EE040F60E0125EA54
:100EB0000100606016E045F040006060A80723462E
:100EC0004FF00A0207D40FE045F040006060A80729
:100ED00008D5234610226FF001000B99AFF3008074
:100EE0005AE007E0234610226FF001000B99FFF74C
:100EF000E5F951E04FF000094F464B46632802D018
:100F00005B2807D041E02079C00601D40120A06011
:100F100001273AE062690121019890475E2805D1D6
:100F20004FF001096269494601989047216939B932
:100F300000210A46534643F82120491C0829FADBC0
:100F4000B0B3216969B9C11700EBD16253110AEB43
:100F5000830122F01F02821A01200B689040034394
:100F60000B6062690121019890475D28E8D1B9F1D1
:100F7000000F09D00020514651F82020D24341F8FB
:100F80002020401C0828F7DB02AB224600976FF0B8
:100F900001000B99AFF3008000280CDA401C08D147
:100FA000BBF1000F05D04FF0FF300DB0BDE8F08F62
:100FB000FFE74046F9E7E90701D108F101080644D7
:100FC0004FF0000B78E60000CCCCCC0C7F2801D988
:100FD000002208E0064A02EB5002C007127800D156
:100FE000120902F00F0201209040084070470000F3
:100FF000F8F2030170B58C1810F8015B15F00703C7
:1010000001D110F8013B2A1106D110F8012B03E0A1
:1010100010F8016B01F8016B5B1EF9D12B0705D4A9
:101020000023521E0DD401F8013BFAE710F8013BF2
:10103000CB1A921C03E013F8015B01F8015B521E0E
:10104000F9D5A142D8D3002070BD10B519F0FCF835
:10105000BDE810400FF0A0BF0148E7F71B9F00005C
:101060002CFA800010B51E480068002800D0804788
:101070001C4900200870811E1B4801601B494FF06D
:10108000007008601A4CD4F8C002800704D4F4221F
:1010900018A11DA0E7F700DF2A480168D4F8C402B0
:1010A00061F31D3040F00100C4F8C402E7F707D92E
:1010B00000214FF03040C1608161C1174161016280
:1010C000E7F7BED808484038016821F48001016084
:1010D0001D480068002802D0BDE81040004710BD40
:1010E000602480006048800044C500A080E200E0E9
:1010F00000E000A0727769705F736C6565705F6374
:101100006F6D6D6F6E2E63004D43555F5355422DCD
:101110003E424C455F44534C4545505F434F52520D
:101120005F454E2026204D43555F5355425F424C4C
:10113000455F44534C4545505F434F52525F4857BB
:101140005F454E00542480006424800000214FF04D
:101150003040C1608161C1174161016206490220CE
:1011600004220A60BFF34F8FBFF36F8F0860BFF395
:101170004F8FBFF36F8F704780E100E0044902207A
:10118000C1F800010860BFF34F8FBFF36F8F704746
:1011900080E100E03EB5002002900E4C0720207058
:1011A00002A90A2000F0EEF9002811D003202070D7
:1011B00002A90A2000F0E6F9002809D006A078214B
:1011C000CDE900100B4B0CA216A1022002F0ECFCA2
:1011D0003EBD0000524280006368617267696E67BD
:1011E000206465766963652061626E6F726D616C03
:1011F00000000000EDEB03012E2E5C5372635C6D6A
:1012000061786579655F647269766572735C737223
:10121000635C6D61786579655F6D70323636322E4C
:10122000630000004E4F5F544147000000B585B099
:101230000E200090002001900121029103900720D0
:10124000049068460AF0E2FD05B000BD08B50B4603
:10125000009201460122382011F0B2F940B208BDD7
:1012600010B50A460146382011F0B9F940B210BD58
:10127000FEB550490F2000F0CFF84E4C002841D069
:101280004DA07821CDE90010504B51A25AA1022067
:1012900002F08AFC2078332845D02021084600F04F
:1012A000CEF804460421212000F0C9F840EA0405E4
:1012B0000021222000F0C3F840EA05042021232069
:1012C00000F0BDF840EA04050021242000F0B7F842
:1012D00040EA05040421252000F0B1F840EA0406A4
:1012E0000021352000F0ABF840EA06050821342043
:1012F00000F0A5F840EA050420213F2000F09FF807
:101300002043FEBD20783328C4D04428C2D03CA15D
:101310007322CDE9002102902C4B2DA236A1022090
:1013200002F042FCB6E73F21202000F088F8054695
:101330000B21212000F083F840EA050440212220FF
:1013400000F07DF840EA04050021232000F077F842
:1013500040EA05040021242000F071F840EA040569
:101360002021252000F06BF840EA05042A213420D2
:1013700000F065F840EA04051021362000F05FF81F
:1013800040EA05040121372000F059F840EA04053D
:101390002A21302000F053F840EA050410213220C1
:1013A00000F04DF840EA04050121332000F047F831
:1013B0002843FEBD00428000672073656E736F7224
:1013C0002061626E6F726D616C000000E4E60301E3
:1013D0002E2E5C5372635C6D61786579655F647213
:1013E00069766572735C7372635C6C69733264688E
:1013F00031322E63000000004E4F5F544147000021
:10140000672073656E736F7220756E6B6F776E20D9
:1014100069643D2025780000F8B506460F46002493
:1014200001253B46012231461920009511F0C8F8EC
:1014300018B1641CE4B2032CF3D3C0B2F8BD73B589
:1014400082B006460024012503AB01223146192053
:10145000009511F0CFF818B1641CE4B2032CF3D35B
:1014600004B0C0B270BDAC21012000F0C7B8A42107
:10147000012000F0C3B801464FF4E470814200D966
:101480000146C1F3C70000280AD0401EC2B201F0D5
:101490000700042801D9012000E000201044C0B258
:1014A00070471F2800D91F2008B1401EC0B200F0AD
:1014B000010101EB50001030C0B270470146082016
:1014C00000F060B8FEB5FFF765FEAF21002000F028
:1014D00095F80546AC21012000F090F840EA05049B
:1014E0009121032000F08AF840EA0405CB21042072
:1014F00000F084F840EA05061621052000F07EF889
:1015000040EA06044021062000F078F840EA04058D
:101510003921072000F072F840EA050454B106A012
:10152000CDE90104A7210091084B09A213A10220D3
:1015300002F03AFB2046FEBD4D503236363220498D
:101540006E6974206572723A2025640000EC030114
:101550002E2E5C5372635C6D61786579655F647291
:1015600069766572735C7372635C6D6178657965C9
:101570005F6D70323636322E630000004E4F5F547E
:10158000414700002DE9F843074688460024084EED
:1015900001250095434601223946307811F010F8B4
:1015A000002803D0641CE4B2032CF2D3BDE8F88316
:1015B0005242800070B50C46002814D0FFF75BFF44
:1015C00005462046FFF76DFF04462946022000F03D
:1015D00015F82146032000F011F8BDE87040A42161
:1015E000012000F00BB8BDE87040AC21012000F0F4
:1015F00005B80146042000F001B80000F3B581B041
:1016000007460024074D0126009602AB0122394609
:10161000287810F0EFFF002803D0641CE4B2032CFC
:10162000F2D3FEBD524280002DE9F84307468846BA
:1016300015460024074E009543460222394630786D
:1016400010F0BEFF002803D0641CE4B2032CF2D3D8
:10165000BDE8F883534280002DE9F84307468846E9
:1016600015460024074E009543460222394630783D
:1016700010F0C0FF002803D0641CE4B2032CF2D3A6
:10168000BDE8F883534280002DE9FE4F002400207E
:1016900002900121082019F096FC002834DBDFF8C5
:1016A00070A0DFF870B01C4EE9461CA003C8CDE95D
:1016B0000001DAF8000042F2107100F0070019F89A
:1016C000000010FB01F5DBF80070D6F8008038460A
:1016D000414609F0C3FE70687168091AA942FBD33C
:1016E0004146384609F09AFEFF20029002A90820E0
:1016F00019F0D7F99DF80810014307D0641CB4F520
:10170000C87FD2DB4FF0FF30BDE8FE8F0020FBE743
:1017100004C500A0FCED00E0001000E0403010180F
:10172000102000000249096801F0070101707047AC
:1017300004C500A030B4062821D212490A6802F07C
:101740000702824212D00A680F4B1A400F4C224304
:101750000A6000BF00BF00BF00BF0A681A400C4B00
:10176000024333F8203042EA83420A6008491839BC
:1017700051F820000749086030BC57F43B9430BC56
:101780007047000004C500A0F8FFE3FF0500080053
:10179000C0EC03017442800004480068044900F072
:1017A000070051F8200003490860704704C500A0F5
:1017B000A8EC0301744280000648016841F47001FE
:1017C00001600548006800F48070002801D116F01F
:1017D000B5B8704788ED00E078C500A0F0B593B0CB
:1017E00005460F4616460024482101A8FEF7E9FCED
:1017F00002202870002101A807F03CFB002831DB03
:10180000012030701FB1184800F1480202E017486B
:1018100000F14802002701AB30F814C033F814106F
:10182000614503D332F814C0614500D93770641C98
:10183000242CF1DB307808B1012000E00220687030
:10184000002105EB410213F81100D07033F81100AC
:10185000000A9070491C2429F3DB0020401C242836
:10186000FCDB002013B0F0BDA0E7030150E9030149
:101870002DE9F04192B005468846164600244821DD
:101880006846FEF79EFC01272F70FFF7FDFE641CE3
:10189000032CFADB684607F049FB002833DB37707E
:1018A000B8F1000F03D0194800F1480202E01848CF
:1018B00000F14802002100276C4630F811C034F8CE
:1018C0001130634503D332F811C0634500D9377036
:1018D000491C2429F1DB307808B1012000E0022006
:1018E0006870002105EB410214F81100D07034F843
:1018F0001100000A9070491C2429F3DB0020401CD1
:101900002428FCDB002012B0BDE8F08110E70301C1
:10191000C0E803012DE9F74F96B0074690464FF017
:101920000009CDF85490482103A8FEF74AFC032093
:10193000387015A90D2019F0B4F800287EDB0F21AE
:101940000D2019F040FB002878DB0221AE2019F0B1
:101950003AFB002872DB454803C8CDE90101444D3C
:10196000286801A900F0070011F800A041480AFB0F
:1019700000FA414ED6F800B0404C2068009058461E
:10198000009909F06BFD60686168091A5145FBD345
:101990005846009909F042FD022103A807F06AFAAF
:1019A000002835DB012088F80000179818B134486A
:1019B00000F1480202E0334800F1480200210DF135
:1019C0000C0C30F811A03CF81130534503D332F819
:1019D00011A0534501D988F80090491C2429F0DB57
:1019E00098F8000008B1012000E002207870002182
:1019F00007EB41021CF81100D0703CF81100000AFE
:101A00009070491C2429F3DB0020401C2428FCDBB7
:101A10009DF854100D2019F0D6FA0021AE2019F0CF
:101A2000D2FA0746114803C8CDE90101286801A987
:101A300000F007000D5C0F48454300E012E03668F7
:101A4000D4F800803046414609F008FD62686068BD
:101A5000801AA842FBD34146304609F0DFFC07F06C
:101A600035FA384619B0BDE8F08F00001C170201A6
:101A700004C500A0400D0300FCED00E0001000E0F4
:101A800030E80301E0E903012DE9F04192B0064698
:101A90000F46002548216846FEF793FB314C042091
:101AA0003070E846684607F041FA002856DB00220D
:101AB00034F8120038F81230984201D224F812306B
:101AC000521C242AF4DB6D1C0A2DEBDB0020401C89
:101AD0002428FCDB0020401C2428FCDB0022214BB6
:101AE000483B34F8120033F81210884203D3401AEE
:101AF00024F8120002E0081A24F81200521C242ACA
:101B0000EFDB0120387000221749002501F148035E
:101B100034F8120031F812C0604503D333F812C014
:101B2000604500D93D70521C242AF1DB387808B199
:101B3000012000E002207070002106EB410014F843
:101B40001120C27034F81120120A8270491C242915
:101B5000F3DB0020401C2428FCDB002012B0BDE891
:101B6000F0810000A8FA800070EA0301F0B593B09C
:101B700005460E460024482101A8FEF722FB052059
:101B80002870214F214901A837F8143031F814206A
:101B90004FF0640C9B1A03FB0CF393FBF2F220F85A
:101BA0001420641C242CEFDB012131700022174922
:101BB000903901F14804002730F9123031F912C090
:101BC000634503DB34F912C0634500DD3770521CF6
:101BD000242AF1DB317809B1012100E0022169708A
:101BE000002105EB410210F81130D37030F81130AC
:101BF0001B0A9370491C2429F3DB0020401C242875
:101C0000FCDB13B00020F0BDA8FA800090EB0301CC
:101C1000F8B506460F46154600243B4601223146DC
:101C20003820009510F0CCFC002803D0641CE4B2EE
:101C3000032CF2D3F8BD70B505460E46002432469B
:101C40002946382010F0CBFC002803D0641CE4B2F5
:101C5000032CF4D370BD00000FB4054B10B503A9DD
:101C6000044A029800F0C8F910BC5DF814FB0000AB
:101C7000618C02014C4480000FB47CB50C0009ADAE
:101C800001D0611E00E00021CDE90001064B6A464B
:101C90002946089800F0B0F9002C02D0009A0021E3
:101CA00011707CBC5DF814FBFF2602010FB4084BD9
:101CB00010B504A902AA039800F09EF9044602A9EF
:101CC000002000F027FD204610BC5DF814FB00004A
:101CD000152702017CB50C001D461646014601D0B1
:101CE000601E00E00020CDE90010064B6A46294640
:101CF000304600F081F9002C02D0009A00211170CA
:101D00007CBD0000FF260201002809DB00F01F0255
:101D1000012191404009800000F1E020C0F88012CC
:101D20007047002804DB00F1E02090F800047047C1
:101D300000F00F0000F1E02090F8140D704700282B
:101D400004DB00F1E02090F80004704700F00F0081
:101D500000F1E02090F8140D7047002804DB00F13A
:101D6000E02090F80004704700F00F0000F1E02040
:101D700090F8140D7047000002480068C0F302207C
:101D8000704700000CED00E002480068C0F302203C
:101D9000704700000CED00E010B5002821D0114B79
:101DA0000022001F196803E0814203D80A464968EF
:101DB0000029F9D152B11368841A9C4204D10068F9
:101DC00018441060104602E0506000E0186039B11D
:101DD00002680B1A934203D10B681A4402604968E7
:101DE000416010BD58498000F0B50B30154D20F012
:101DF00007010024144A0FE003688B420BD38B4287
:101E000005D95E1A43184768C3E9006700E04368D4
:101E1000136002C004E0021D10680028ECD12046C7
:101E2000002802D1286808B10020F0BD064A074802
:101E30001060074A121A22F00702C0E900240120AC
:101E40002860D7E75C4980005849800004C08300BF
:101E50000000840002E008C8121F08C1002AFAD15D
:101E600070477047002001E001C1121F002AFBD11A
:101E7000704700002DE9FF5F82B00021DDE90430EA
:101E8000020DDDF840B0034318D044F61050A2F222
:101E9000FF3242431514119801281FD0A5EB0B0007
:101EA000401C5FEA000A4FF000064E4FDFF8389101
:101EB000B046504615D5CAF1000413E0119801242C
:101EC0004AA3012801D16FEA0B010298119AC0E9D7
:101ED0000031C0E9024206B0BDE8F09FCBF100003E
:101EE000DFE704460021404A491842EB0450CDE99F
:101EF000001012E0E00707D032463B464046494614
:101F0000FEF7BFFB8046894632463B4610461946DF
:101F1000FEF7B7FB06460F466410002CEAD1DDE958
:101F20000401DDE90023BAF1000F06DAFEF7A9FB90
:101F300042464B46FEF7A5FB05E0FEF714FC424681
:101F40004B46FEF710FC04460E460022284BFEF7D7
:101F500013FD03D84FF0FF30014607E00022254B68
:101F600020463146FEF7E6FAFEF7D6FC102409E0DB
:101F7000002C0ADB0A220023FEF7C6F8039B30324E
:101F80001A55641E50EA0102F2D1641C039AC4F18E
:101F900011031444119A012A03D0012208430DD1E0
:101FA0000AE0084304D000204FF0110B119072E7B3
:101FB000A3EB0B056D1E0DE05B4504DD4FF0000249
:101FC00005F1010504E003DA4FF00002A5F1010577
:101FD000002AECD002981199C0E90231C0E900450D
:101FE00079E70000000014400000F03F30000000DE
:101FF0000000F0430000E03F2DE9FF4F95B09A4606
:10200000884606460025EEE1252877D1002427469C
:10201000F94A0121039400E0044316F8013F203BF4
:1020200001FA03F01042F7D130782A2811D06FF06E
:102030002F033078A0F13002092A16D8039A44F011
:10204000020402EB820203EB42021044761C03906E
:10205000EFE758F8042B0392002A03DA504244F4C5
:102060000054039044F00204761C30782E2816D1D8
:1020700016F8010F44F004042A280DD06FF02F0247
:102080003078A0F13003092B09D807EB870302EB66
:102090004303C718761CF3E758F8047B761C3078A6
:1020A0006C280FD006DC4C2817D068280DD06A2881
:1020B00014D104E0742810D07A280FD10DE044F434
:1020C00000140AE044F4801401E044F440147278EF
:1020D000824202D104F58014761C761C3078662882
:1020E0000BD013DC582877D009DC002875D04528A0
:1020F000F6D04628F4D047281AD193E118E0632897
:1021000035D0642879D0652812D18BE1702873D03E
:1021100008DC6728F1D069286FD06E280DD06F28B1
:1021200006D1ACE073282CD0752874D0782853D011
:102130005246179990476D1C54E1C4F3025002288F
:1021400009D003280DD0D8F8001004280DD00D6058
:1021500008F1040846E1D8F80010EA17C1E9005276
:10216000F6E7D8F800100D80F2E70D70F0E718F8E8
:10217000041B8DF8001000208DF80100EB460120B3
:1021800003E058F804BB4FF0FF3061074FF0000147
:1021900002D40DE009F101018946B9420FDA814507
:1021A000F8DB1BF809100029F4D108E009F101015E
:1021B00089468142FADB1BF809100029F6D1039801
:1021C0005346A0EB090721463846179A00F080FADB
:1021D000284400EB090507E044E008E10DE01BF8A6
:1021E000010B524617999047B9F10109F7D25346AE
:1021F00021463846179AF2E039E00A21C4F3025228
:102200004FF0000B0091022A06D058F8040BC117BA
:10221000032A09D00AE023E008F1070020F00702B2
:10222000F2E80201904605E000B2C117042A01D18C
:1022300040B2C117002906DA0A460021404261EB8C
:1022400002012D2202E0220504D52B228DF8042064
:10225000012203E0E20701D02022F7E7914657E090
:102260000A2100E010214FF0000B00910BE010213B
:102270004FF0000B44F004040827009103E008200D
:102280004FF0000B0090C4F30252022A05D058F818
:10229000040B0021032A08D008E008F1070020F011
:1022A0000702F2E80201904603E080B2042A00D15E
:1022B000C0B24FF0000922072AD53278702A07D021
:1022C000DDF800C08CF0100C5CEA0B0C05D00EE0C1
:1022D00040228DF80420012208E050EA010306D0D4
:1022E00030238DF804308DF8052002229146009BA2
:1022F00083F0080353EA0B030AD150EA010201D12B
:10230000620705D530228DF804204FF001097F1EA9
:102310003278582A04D039A20C920CAA02920BE00F
:102320003BA2F9E75B46009AFDF7EEFE0C9B9B5C37
:10233000029A521E0292137050EA0102F2D10298E0
:1023400004A9081A00F1200B600702D524F4803498
:1023500000E001275F4502DDA7EB0B0000E0002055
:1023600000EB0B01009003984944401A0390E003EE
:1023700006D453462146179A039800F0A9F905445C
:10238000002706E001A85246C05D179990476D1CD2
:102390007F1C4F45F6DBE0030CD553462146179AC8
:1023A000039800F095F9054404E03020524617994F
:1023B00090476D1C0099481E00900029F5DC08E04C
:1023C0000298029952460078491C02911799904749
:1023D0006D1CBBF10001ABF1010BF1DC5BE100F026
:1023E00065F90544761C307800287FF40DAE19B0ED
:1023F0002846BDE8F08F0000092801003031323353
:102400003435363738396162636465660000000030
:10241000303132333435363738394142434445461A
:1024200000000000600700D4062708F1070020F034
:102430000700F0E80223804603F0004C5FEA0C003E
:1024400001D097A009E0200501D596A005E0E0079E
:1024500001D095A001E0AFF24C001390307823F04A
:10246000004365280CD006DC452809D046281DD03D
:1024700047287FD13BE0662818D067287AD136E01C
:102480000021112F01DB112000E0781CCDE90001B3
:1024900004A90CA8FFF7EEFCDDE90D010C9A4FF042
:1024A000000B07F10109109200914EE04FF000403F
:1024B0000097CDE9011004A90CA8FFF7DBFCDDE9CA
:1024C0000D020C9B0F994FF0000B91461093009258
:1024D00011B9791C00EB0109B7EB090003D4C0F175
:1024E000FF3B07F10109A9EB0700019042E0012F32
:1024F00000DA01270021112F01DD112000E038460C
:10250000CDE9000104A90CA8FFF7B4FCDDE90D0139
:102510000C9A00914FF0000BB946109221070FD48E
:10252000009A4A4503DA914601E0A9F10109B9F19F
:10253000010F05DD109AA9F10101515C3029F4D099
:10254000B84202DA10F1040F03DA0121CDE90110DB
:1025500010E0002803DC8344A9EB000102E0411CE9
:10256000494500DD8946A0EB0B00401C01904FF06F
:1025700000400290200705D40198484502DB4FF047
:10258000FF30019000208DF84B0002980DF14B07B1
:10259000B0F1004F25D002200C902B200D90029816
:1025A00000280CDA404202902D200D9007E00A210D
:1025B0000298FEF7F9F93031029007F8011D0C99E5
:1025C000481E0C900029F2DC02980028EFD1791EF9
:1025D0000D980870307800F0200040F0450007F8B2
:1025E000020D11A8C01BC01D02901398007800B105
:1025F000012000EB0901019801EBE0710298014410
:102600000398401A401E0390E00306D45346214627
:10261000179A039800F05CF805441398007818B1F5
:102620005246179990476D1CE00323D55346214627
:10263000179A039800F04CF805441BE0BBF1000F1B
:1026400007DB0098584504DD1098179910F80B0027
:1026500001E0179930205246904701980BF1010B89
:10266000401E05F10105019004D12E205246179914
:1026700090476D1CB9F10001A9F10109DEDC05E00C
:1026800017F8010B5246179990476D1C0299481E86
:1026900002900029F4DC53462146179A03989EE6DF
:1026A0002D0000002B000000200000002DE9F0416B
:1026B000044600251E461746880404D405E0394622
:1026C0002020B0476D1C641EF9D52846BDE8F08176
:1026D0002DE9F041044600251E469046C80301D569
:1026E000302700E02027880404D505E0414638461D
:1026F000B0476D1C641EF9D52846BDE8F0814A68D4
:10270000002A06D00A68531C0B6010704868401EEF
:10271000486070470A68531C0B60107070471CB506
:10272000684608F0C9F91CBD2DE9F05F07468946E7
:1027300093464FEA5B04A2464D465F4EDFF87C812C
:10274000EFF31080012181F31088D8F8A41221F052
:102750002001C8F8A41280F31088EFF31080012143
:1027600081F31088D8F8A01221F02001C8F8A01237
:1027700080F31088306820F080403060504830602E
:102780003F20D8F8001160F30501C8F80011306847
:1027900020F4601040EAC7403060306820F4E02048
:1027A00040EA07403060052F03D1306840F4004014
:1027B0003060062F03D1306840F4804030603068CC
:1027C00040F400503060306820F060503060306875
:1027D00020F00F0040F003003060EFF31080012183
:1027E00081F31088344A3832116821F0E04141F019
:1027F0008041116080F31088306840F08040306084
:1028000001E0D8F80000D8F80401C0F30020002847
:10281000F7D1EFF31080012181F31088116841F0A6
:102820000041116080F3108834E000204FF47A7189
:102830001AE0884217D9306820F080403060306854
:1028400040F000403060306820F0004030600BF015
:1028500049FE1C480168491C016054464D4605204C
:1028600059F4CDD16CE7401CD8F80421C2F3002202
:10287000002ADED0D8F8040100F07F01A14200D97F
:102880002146002003E0D8F8002004C5401C8842FF
:10289000F9D3641A002CC8D15FEACB7008D0D8F8FD
:1028A0000401C0F300200028F9D0D8F800002880E7
:1028B000BDE8F05F0BF016BE08C500A000E000A068
:1028C0000A070807484980002DE9F04107460E46EF
:1028D0004FF000080024274D0BE004EBC40005EB8B
:1028E0008000801C07223946FDF7AFFC40B1641C14
:1028F000E4B22878A042F0D8B8F1000F18D102E075
:102900004FF00108F8E728780A21B0FBF1F201FB4B
:1029100012040A2801D2401C287004EBC40105EB04
:1029200081003968C0F80210B988C180B979017294
:102930002B7811A210210020E6F7B0DA30780007DA
:102940000BD504EBC40005EB800006F14601BDE8A1
:10295000F0410A301C22FDF71BBC04EBC40005EB60
:10296000800006F12A01BDE8F0410A301C22FDF783
:102970000FBC000094198100523A313A616464201E
:102980006C746B206974656D2C206E756D203D2014
:1029900025640A0010B586B02648002181702648BB
:1029A000072282730174C0F80310A0F80710417267
:1029B000417001708170A021818141810021152326
:1029C0001E4A084643F4ACD3044654B114221B49B2
:1029D000753101A8FDF7DCFBADF8084001A800F057
:1029E000BDFA0021144A084643F422D4044654B1E7
:1029F00014221249893101A8FDF7CAFBADF808403D
:102A000001A800F0ABFA0D4A0D2315320121002078
:102A100043F486D30446002C0AD0142207499D3182
:102A200001A8FDF7B5FBADF8084001A800F096FA43
:102A300006B010BD64408000BCF68000B3BD030149
:102A40000449896B084004490A78104300220A703F
:102A500070470000002001A0904680002DE9F04161
:102A600004460D46154F164E0022134620462946B1
:102A7000FDF76AFF0FD83068C0F34120012808D065
:102A8000786C401C7864306820F4C06040F40070BA
:102A90003060BDE8F08100220A4B20462946FDF750
:102AA0006BFFF6D8306810F4C06FF2D0386C401C61
:102AB0003864306820F4C0603060EAE7CC468000BB
:102AC0000CC500A0000024402DE9F04106460F4649
:102AD000154672B63846FDF78BFB402801D94020D9
:102AE00002E03846FDF784FB80463046FDF780FB68
:102AF000402801D9402002E03046FDF779FB04462A
:102B00009C211048FDF75DFB424639460D48FDF714
:102B10003FFB0C48224631465C30FDF739FB094843
:102B20004FF0AA31016445644FF0BB3181644FF02E
:102B3000CC3101654FF0DD318165002000F004F8F3
:102B4000FEE700008C09810030B5ADF20C4D044663
:102B50004FF4806103A8FDF734FB184D202085F861
:102B60003F0085F89B003CB12846012C436DC26CA8
:102B700009D0022C0CD00FE0104A11A15C3203A83E
:102B8000FFF794F808E011A103A8FFF78FF803E01E
:102B900016A103A8FFF78AF803A90BA2686CCDE978
:102BA0000121009018A3054A18A1002000F0FCFFA5
:102BB00000F0C6FF0DF20C4D30BD00008C09810005
:102BC0005B4552524F525D20257300005B574152C6
:102BD0004E494E475D20506172616D303A25642C3C
:102BE000506172616D313A25640000005B504152C2
:102BF000414D5D20506172616D303A25642C506109
:102C000072616D313A256400000000006170705FF0
:102C10006173736572742E6300000000014858F4FC
:102C20002B960000A84580002DE9F04106460F468E
:102C300090461D4672B64046FDF7DAFA402801D9A3
:102C4000402002E04046FDF7D3FA04469C210D489F
:102C5000FDF7B7FA224641460A48FDF799FA0948B6
:102C60004FF05531016445644FF066318164C664AC
:102C70004FF0773101654765C94381650220FFF751
:102C800063FFFEE78C0981002DE9F04106460F46FF
:102C900090461D464046FDF7ABFA402801D940203A
:102CA00002E04046FDF7A4FA04469C210D48FDF7DA
:102CB00088FA224641460B48FDF76AFA09484FF068
:102CC00011310164456449008164C6644FF03331B9
:102CD000016547654FF044318165BDE8F041012051
:102CE000FFF732BF8C09810030B589B005460C462C
:102CF000174918A00DF06AFFF72046F413D12846B3
:102D000003F0CCF80FF0D2FE0A2002F081FC134849
:102D100003F070F9A07AE17A227B637BCDE904327B
:102D2000CDE90610A07BE17B0DA240F21F13CDE997
:102D30000032CDE90210064B14A21AA1022000F0C5
:102D400033FF09B00249BDE8304018A00DF03EBF86
:102D50007DBE03013C2573203E000000C0D401006D
:102D6000636F6E6E6563746564203A202530325857
:102D70002025303258202530325820253032582036
:102D80002530325820253032580000002E2E5C535A
:102D900072635C757365725C757365725F61707088
:102DA0002E6300004E4F5F54414700003C2F2573B7
:102DB000203E00000348024901610521416170473E
:102DC0006C4080007002800010B50C460F4910A0C6
:102DD0000DF0FCFE104A00201070104A10701049CF
:102DE000087010490870C82003F004F90FF004FDC2
:102DF000A62C09D041F270700EF040FBBDE81040E7
:102E0000024909A00DF0E2BE10BD000064BE03013E
:102E10003C2573203E0000000441800028418000D2
:102E200054418000514180003C2F257320625F7423
:102E30006F5F6164763E0000082808D200EB400115
:102E4000044800EB4110017809B1001D70470020D3
:102E500070470000FCFB80002DE9F04706468946DC
:102E600000244FF0FF3847460121002E67D030780C
:102E700080B101280ED002280CD003280AD00428E3
:102E800008D0052806D0062804D0072802D04046DE
:102E9000BDE8F087EFF31083012282F310882A4DFA
:102EA000944604EB440205EB421292F800A0BAF1FA
:102EB000000F03D092F804A082450DD104EB44002A
:102EC00005EB401090F82D00022803D0274682F829
:102ED00000C005E0082403E0641CE4B2082CE0D341
:102EE00083F31088082C2AD2DFF860A09AF800003B
:102EF00038B98AF800C00321154813F02DFCAAF850
:102F0000020004EB440105EB41153078287105F10E
:102F100008002422311DFDF73BF90E4868630E4876
:102F2000E86300202864C5F85C900320E5F7B8DF6B
:102F30000320E5F7B7DF281D08F02AFA014601B1A2
:102F400047463846A4E70000FCFB80002044800090
:102F5000D8EC0301617E0201E17D020110B5ADF5FF
:102F6000047D04464FF4007104A8FDF72AF9207887
:102F700010B1012819D01DE000211748A28830F8AF
:102F800031309A4207D100EBC10014A1436804A874
:102F9000FEF78CFE0EE02B2902D0491CC9B2EEE7E9
:102FA00014A104A8FEF782FE04E01DA104A8626833
:102FB000FEF77CFE04A921A22069CDE90121009041
:102FC000D4E902231EA1002000F0EEFD00F0B8FDC0
:102FD0000DF5047D10BD0000504480004572726FF5
:102FE0007220636F6465203078253034583A20258C
:102FF000730000004572726F7220636F6465203049
:1030000078253034583A204E6F20666F756E6420F4
:10301000696E666F726D6174696F6E2E00000000DC
:1030200028257329206973206E6F7420657374617D
:10303000626C69736865642E0000000025730000EF
:103040006170705F6572726F722E63003EB50F4CD7
:1030500000290DD00EA08522CDE900200291154B4C
:1030600015A220A1032000F09FFD002020703EBD8E
:103070001EA08A21CDE900100E4B0FA219A102203B
:1030800000F092FD012020703EBD00002041800034
:10309000416476657274696E6720737461727465D9
:1030A00064206661696C656428307825303258295F
:1030B0002E00000058BF03012E2E5C5372635C7516
:1030C0007365725F63616C6C6261636B5C75736581
:1030D000725F6761705F63616C6C6261636B2E63CA
:1030E000000000004E4F5F54414700004164766588
:1030F00072746973696E6720697320737461727486
:1031000065642E001CB500290ED1022A0CD0074997
:103110000020087006A09F21CDE90010094B0AA2EB
:1031200014A1022000F040FD1CBD000020418000E1
:103130004164766572746973696E67206973207380
:10314000746F70006DBF03012E2E5C5372635C754B
:103150007365725F63616C6C6261636B5C757365F0
:10316000725F6761705F63616C6C6261636B2E6339
:10317000000000004E4F5F54414700003EB504463A
:10318000154600290AD010A0CA21CDE90010134B22
:1031900013A21EA1022000F007FD3EBD1D49022022
:1031A00008701DA0CDE90104C52100910B4B0CA2B4
:1031B00016A1022000F0F8FC03B029462046BDE825
:1031C0003040FFF791BD000067617020636F6E6E45
:1031D000206362206661696C0000000081BF03010A
:1031E0002E2E5C5372635C757365725F63616C6CE9
:1031F0006261636B5C757365725F6761705F636169
:103200006C6C6261636B2E63000000004E4F5F5474
:103210004147000020418000636F6E6E20696E643C
:103220006578203A202564007FB5184D184C002998
:1032300018D018A0F722CDE9002002911B4B1CA248
:1032400026A1022000F0B0FC2648007800281CD0FF
:103250002888002819D120881E2816D8BDE87F406C
:1032600012F0B2BD508828801088208028882188DC
:103270001DA2F323CDE90032CDE902100B4B0CA2C5
:1032800016A1022000F090FCDEE77FBD2241800005
:1032900024418000636F6E6E2075706461746520D8
:1032A000657272203A20253032580000AABF03010F
:1032B0002E2E5C5372635C757365725F63616C6C18
:1032C0006261636B5C757365725F6761705F636198
:1032D0006C6C6261636B2E63000000004E4F5F54A4
:1032E00041470000A0418000636F6E6E20757064DE
:1032F000617465203A20256420256400012143F48F
:10330000539400003EB50546144600290AD010A08B
:10331000E121CDE90010134B13A21EA1022000F001
:1033200043FC3EBD1D4A002111701DA1CDE90114D1
:10333000DC2200920B4B0CA216A1022000F034FC00
:1033400003B021462846BDE83040FFF73DBD0000F0
:1033500067617020646973636F6E6E2063622066BC
:1033600061696C0094BF03012E2E5C5372635C751F
:103370007365725F63616C6C6261636B5C757365CE
:10338000725F6761705F63616C6C6261636B2E6317
:10339000000000004E4F5F54414700002041800074
:1033A000446973636F6E6E6563746564202830785A
:1033B00025303258292E00000EB54A7808788B78CF
:1033C000CDE900320290CB780A79497901480DF0B5
:1033D000FDFB0EBD50F303012DE9FC5F81468846DD
:1033E000B9F1000F0AD0524E30784044202807D956
:1033F000B8F1000F04D00420BDE8FC9F0520FBE7D6
:1034000000254FF0010A4B4F80E00020787009EB57
:103410000514337862680FE006EB0011D1F808C09C
:10342000944507D1097994F800C0614502D187F825
:1034300001A003E0401CC0B28342EDD80092207A84
:103440008DF80400607A8DF8050007208DF80600DD
:103450002078009900F0C8FA2078694600F0EAFA6E
:103460000028C9D17878B0BB307894E80E1006EB0C
:103470000010001DB346A0E80E10A07A022825D146
:103480002078012822D1207A032806D0042809D0E8
:1034900005280DD0062815D110E000216068E1F75D
:1034A00086DD0FE040F201116068E1F780DD09E0A0
:1034B0004FF001116068E1F77ADD03E01E496068B2
:1034C000E1F775DD4FF0007055F412D6207818B191
:1034D00001280ED013E017E00620E5F7E1DC062016
:1034E000E5F7E0DC0720E5F7DBDC0720E5F7DADCD1
:1034F00005E01220E5F7D4DC1220E5F7D3DC9BF8D9
:103500000000401C8BF800006D1CEDB24545FFF437
:103510007CAF387850B90121084813F01DF9788044
:10352000002801DA042067E787F800A0002063E79D
:10353000FCFE80002444800001010100E4EC030152
:103540000078704700B58FB000208DF80C008DF822
:103550000D008DF8100002218DF811104A07059218
:103560008DF818008DF81C008DF81D104A06089281
:103570008DF824008DF828108DF8291003218DF87E
:103580002A1013490B914D210C9101210D910E90A0
:10359000104903A800F0F0F860B10FA19322CDE923
:1035A00000210290114B12A21BA1022000F0FCFA94
:1035B0000FB000BD1A48016821F0010101600169E6
:1035C0006FF30F0141F009010161006BF0E70000AA
:1035D000801A0600413502014932433020696E6984
:1035E00074206661696C65643A256400D8EB030158
:1035F0002E2E5C5372635C6D61786579655F6472D1
:1036000069766572735C7372635C6D617865796508
:103610005F693263302E63004E4F5F5441470000B4
:103620006CC300A0F0B595B00446607F8DF82C0007
:103630000F270C97207800281DD008200D904FF4FC
:1036400080100E9000250F95001310901195129583
:103650001395149500210BA8FFF7FEFB2178284E47
:1036600001EBC10106EB0111A1F88800002804DA82
:10367000042015B0F0BD0620E0E7FFF7DDFB217860
:1036800001EBC10106EB01110863217801EBC101D7
:1036900006EB0111091DC162A07F8DF8040020789E
:1036A000D8B10920029003974FF400100490C01283
:1036B000059006950795089509950A95002101A89A
:1036C000FFF7CAFB217801EBC10106EB0111A1F85C
:1036D0008A00002803DA0420CBE70720E2E7FFF79F
:1036E000ABFB217801EBC10106EB011148632178A6
:1036F00001EBC10106EB0111091DC1620020B8E711
:10370000DC0381003EB5194C0368A34201D10022BD
:1037100003E0174CA34200D101228DF8001021B123
:10372000012905D0022909D00DE0806B01900AE043
:10373000018B408B081AADF8040004E0018B408B2C
:10374000081AADF804000B4802EBC20100EB0110AF
:10375000B0F88E10ADF80810002180F88D100168C7
:10376000002901D0684688473EBD000000C300A084
:1037700000C400A0DC0381002DE9FC4104460F4693
:103780002678002C04D0022E04D30820BDE8FC814A
:103790000520FBE700F060FCD4E90501CDE900015C
:1037A000201D0FC809F03AFF0028EFD1207F022822
:1037B0000BD1EFF31085012080F310882046FFF72E
:1037C00031FF85F310880028E0D1207F012806D042
:1037D000224DA857E5F764DBA857E5F763DB2048DF
:1037E00006EBC60200EB0215217F05F86C1FA07FD7
:1037F000A870607F68706078E8706C3D05F17000BB
:103800001822211DFCF7C4FC2F6020340FCC05F1D9
:1038100008040FC41148001D50F826006860281DD8
:1038200007F0CCFF0028B1D1281D08F02DF80028A2
:10383000ACD10C4C0126207850B9267007480321E2
:10384000143012F089FF6080002801DA04209DE71F
:1038500005F88C6F0020687098E70000A0ED030168
:10386000DC0381002E448000FEB508AC70CC022839
:1038700013D294B18DB100EBC007094800EB0710DB
:1038800090F88C704FB1A0F88E108DE87000001D7C
:1038900008F05AF90028FFD1FEBD0420FEBD00004B
:1038A000DC038100FEB508AC70CC022813D294B1C1
:1038B0008DB100EBC007094800EB071090F88C7041
:1038C0004FB1A0F88E108DE87000001D08F09EF931
:1038D0000028FFD1FEBD0420FEBD0000DC038100F6
:1038E000F8B50E46069D11461C460122022811D24B
:1038F00081B17CB100EBC003114800EB031090F8DC
:103900008C303BB1A0F88E6090F86F3023B1012B62
:1039100011D10AE00420F8BD0A46001D23463146B5
:10392000009508F0C8F8024605E0001D2B46224627
:1039300008F0CCF902460AB11046F8BD0020F8BDE7
:10394000DC0381003EB5022452F45CD260B110A0C9
:1039500040F28711CDE90010114B12A219A10220EB
:1039600000F022F920463EBD4FF48051174807F081
:103970002DFE044616A0CDE9010440F28B11009102
:10398000074B08A20FA1022000F00EF920463EBD11
:10399000666C617368207365637572697479000081
:1039A0005BC703012E2E5C5372635C6D6178657991
:1039B000655C7372635C6D61786579655F6466757B
:1039C0002E6300004E4F5F5441470000002000016D
:1039D00061707020696D6720696E666F2065726125
:1039E00073653A256400000010B50C46002805D028
:1039F000012811D0022813D0062010BD2004000C8D
:103A000003D0A1B2094807F089FE200C0CD0210C8C
:103A1000074807F083FE07E0E0B207F0DBFA03E0B7
:103A200004F01F0008F0AAF9002010BD000001A05A
:103A3000001001A010B58EB00C46002C07D040B18C
:103A400001282BD0022841D006200EB010BD052041
:103A5000FBE7207907281FD0304951F820000B9050
:103A6000A1F12400617950F821000C90A0790D900B
:103A700020680104090C05D080B20A900AA92848E0
:103A800007F086FE2068010C45D0000C0A900AA9B8
:103A9000244807F07DFE3EE00720D6E7207907287E
:103AA00012D01E49203151F820000790A1F13800B2
:103AB000617950F821000890A0790990207806904B
:103AC00006A807F0C9FA26E00720BEE72079C11E44
:103AD000032901D80720B8E7072809D00F4940314A
:103AE00051F8200002902079072803D0012002E03D
:103AF0000120F7E700200390084861790C3850F85E
:103B000021000490A0790590207800F01F0001901A
:103B100001A808F07BF9002097E7000014ED0301ED
:103B2000000001A0001001A0002806D0002904D048
:103B3000024AD269002A00D0104770476809810004
:103B40000248006A002800D00047704768098100D9
:103B500070B50D4616460D4C00280AD00178032991
:103B600011D80121A17601461A222046FCF710FB4C
:103B700005E00020A0761A210448FCF722FBE5614D
:103B80002662002070BD012070BD00006809810020
:103B9000044A1044807D084201D001207047002073
:103BA00070470000680981002DE9FE4FDDF830B054
:103BB00006469246994600240027019702975A48E4
:103BC0000178B14202D2807E00287DD10DF1380803
:103BD000CDF80080EFF311850220FEF7B0F8014622
:103BE00052480068C0F30220401C0122824088181D
:103BF000C0B280F3118801213046FFF7C9FF38B108
:103C00004B484C4950F82620204600F0D3F8044693
:103C10001C213046FFF7BCFF00285ED046A2454974
:103C2000204600F0C7F8204484B204213046FFF754
:103C3000AFFFF8B152463F49204600F0BBF82044A0
:103C400084B208213046FFF7A3FF38B13BA23949BF
:103C5000204600F0AFF8204484B20BE0102130463B
:103C6000FFF796FF30B136A23249204600F0A2F8A5
:103C7000204484B208213046FFF78AFF90B14A46BB
:103C80002C49204600F096F8204484B2102130469A
:103C9000FFF77EFF30B12BA22649204600F08AF8BC
:103CA000204484B210213046FFF772FF70B15B46AA
:103CB00026A2052101A8FDF7DFFF01AA1D49204624
:103CC00000F078F8204400E02BE084B220A21949EB
:103CD000204600F06FF8204484B21648C4F5807185
:103CE000204443460D9AFDF7F5FF00974FF480718D
:103CF000002804DB2044884201DC86B200E00E4646
:103D0000B01C884200D9FE2612A20A49304600F0B3
:103D100051F8304481B20748FFF706FFE8B280F35C
:103D20001188BDE8FE8F0000680981000CED00E0FD
:103D30003C4480006808810028000000200000004A
:103D40003A000000204C696E653A0000256C640062
:103D5000292000000D0A00000FB438B505AC00940E
:103D6000EFF311850220FDF7EAFF10490968C1F35E
:103D70000221491C01228A401044C0B280F31188FC
:103D800023464FF4807421460948049AFDF7A2FFA8
:103D9000A04201D881B200E021460548FFF7C4FEE9
:103DA000E8B280F3118838BC5DF814FB0CED00E03C
:103DB0006808810030B50546002000290CD0002A93
:103DC0000AD006E02B18FF2B06D8CC54521C401CFE
:103DD00080B21478002CF5D130BD12F04DB810B57A
:103DE00002F0A4FC10F0FAFF0DF0CCFB0EF05CFA30
:103DF00010F0BCFD0EF0D2FC10F042FEFFF7A2FB6B
:103E00000EF04CF911F0A6FA12F02AF80EF078F93B
:103E1000BDE81040022054F4259770B50546EFF335
:103E200011840220FDF799FF0646FDF7ADFF401C07
:103E3000012181407018C0B280F3118800202881D0
:103E40006881E0B280F3118870BD002808D039B1D4
:103E50000380428041600021018141810020704740
:103E6000022070472DE9F0410489458947880028E0
:103E700014D0EFF311860220FDF76FFF8046FDF7A7
:103E800083FF401C0121814008EB0100C0B280F398
:103E90001188AC4205D8281B80B205E00020BDE89F
:103EA000F081381B284480B2F1B281F31188F6E723
:103EB0002DE9F04104460F460026002C16D0AFB184
:103EC000EFF311850220FDF748FF8046FDF75CFF08
:103ED000401C0121814008EB0100C0B280F3118831
:103EE00020896189884204D1012103E00220BDE8D4
:103EF000F081002109B109260DE02288616800FBEC
:103F000002116388984201D2401C00E00020208109
:103F10003846FCF73DF9E8B280F311883046E6E711
:103F20002DE9F04104460F460026002C16D0AFB113
:103F3000EFF311850220FDF710FF8046FDF724FF07
:103F4000401C0121814008EB0100C0B280F31188C0
:103F500060896388984204D2411C03E00220BDE8D6
:103F6000F081002189B222898A4201D1012100E039
:103F7000002109B110260DE02288616800FB021CB7
:103F8000984201D2401C00E0002060813946604622
:103F9000FCF7FEF8E8B280F311883046DFE7000056
:103FA00008B5009103480168002901D06846884798
:103FB00008BD00002816810010B5002906D00A4669
:103FC000BDE81040084909A00CF000BE10490320CC
:103FD00008701049FF200870FFF7FFFEBDE8104091
:103FE00001490DA00CF0F2BDD8BF03013C257320A0
:103FF00050616972696E67206661696C65642066EC
:104000006F72206572726F72203078257800000020
:1040100020418000524180003C257320706169720C
:104020005F6F6B3E0000000030B589B005460C465E
:10403000002C0FD024216846FCF7C3F82178002912
:1040400008D18DF8001001218DF80110694628462D
:104050004AF4FAD009B030BD10B50B4C472020709F
:10406000607800280ED14FF0E0200069C00701D130
:1040700007F074FE01206070BDE810400321034882
:1040800012F06ABB10BD00002C44800094ED0301C7
:1040900038B50023009300220068B0F1204F03D010
:1040A0000B4CA04200D10122012901D10120009036
:1040B000084902EB820001EB8002127C02B90093F6
:1040C00051F82010002901D06846884738BD00000B
:1040D000001000A0FC0481002DE9F041054688464F
:1040E0001746002F04D0286820B10F20BDE8F081CA
:1040F0000120FBE7EFF311840220FDF712FE0646D4
:10410000FDF73AFE401C012181407018C0B280F3D7
:10411000118800F067F80646FF2E0DD03A4641465A
:10412000304600F073F8084800EB46102860E0B213
:1041300080F311880020D9E700202860E0B280F3E6
:1041400011880B20D2E70000280581002DE9F041FD
:1041500005462C68002C31D0EFF311860220FDF7C4
:10416000E0FD0746FDF708FE401C0121814078185C
:10417000C0B280F311880021A160E160AB206070C3
:10418000002727702F60144D6868A0421ED100F0F0
:1041900025F806F00DFDA0B1D0E90421D5E90434DD
:1041A000D21A61EB0401C5E902216860A86857F4DE
:1041B00053D70146012007F02DFE07E00120BDE89E
:1041C000F0812F706F60012054F458D5F0B280F365
:1041D00011880020F3E70000480881000121032036
:1041E00007F018BE0020084901EB401212782AB1EE
:1041F000401CC0B21928F7D3FF20704701EB4011D3
:1042000001220A707047000028058100024B03EB71
:104210004010C2618170704728058100F8B50446DE
:10422000EFF311850220FDF77CFD0646FDF7A4FDA6
:10423000401C012181403144C8B280F3118800271D
:10424000009734B16078AA2807D0E8B280F31188CB
:10425000F8BDE8B280F31188F8BDAB206070002192
:10426000A160E160294E7068A0424BD1FFF7B6FF14
:1042700069464FF00040E0F7C7DE57F4CBD500EEBB
:10428000100A00999FED221AF8EE400A00EE101A6B
:10429000B8EE400A20EE010A80EE201ABCEEC10AF8
:1042A00010EE100AD6E902321B1ABA4100D2B068E9
:1042B000491C06D1C81E174908601A20FDF724FDC5
:1042C0000020B168081AD6E9042110187941C6E91E
:1042D000040106F06DFC88B1D0E90421D6E904346C
:1042E000D21A61EB0401C6E902217060B06857F48C
:1042F000B3D60146012007F08DFD03E037700120A1
:1043000054F4BCD4E8B280F31188F8BD48088100A9
:104310000024744944C500A0F0B595B0044694F853
:1043200035008DF82C000F270C970A200D904FF4C4
:1043300080100E9000250F95001310901195129586
:104340001395149500210BA8FEF786FD21784D22C8
:1043500011FB02F1264E06EB8101A1F8980000281E
:1043600002DA042015B0F0BDFEF766FD21784D227B
:1043700011FB02F106EB81010863217811FB02F1C8
:1043800006EB8101091DC16294F836008DF8040026
:104390000B20029003974FF400100490C012059078
:1043A0000695079508950995A0200A90002101A877
:1043B000FEF752FD21784D2211FB02F106EB81013F
:1043C000A1F89A00002801DA0420CBE7FEF734FDBB
:1043D00021784D2211FB02F106EB8101486321781F
:1043E00011FB02F106EB8101091DC1620020B9E752
:1043F000740181007CB50224304B02689A4201D1DD
:10440000002403E02E4B9A4200D101248DF80010C5
:104410002C4D002281B101291DD0022932D003295F
:104420003ED0042907D14D20444355F824100029DB
:1044300001D0684688477CBDC06B01904D20444345
:1044400005EB840080F8302155F824100029F2D0C3
:10445000684688477CBD018C408C081AADF8040082
:10446000204600F067F94D20444305EB840090F8A6
:1044700030010028EED155F824100029EAD0684612
:1044800088477CBD018D408D081AADF804004D2091
:10449000444355F824100029F3D0684688477CBD72
:1044A0004D20444305EB840080F8302155F824105A
:1044B0000029F4D0684688477CBD000000C600A0F3
:1044C00000C700A074018100704700002DE9F84387
:1044D0004D21404A414302EB8104271D022876D238
:1044E00094F89C00002872D0FFF7B6FD94F89C0069
:1044F00001286CD184F8310194F86420012A4DD050
:104500000025D4E903010144207D00F00100C01D15
:104510000E186068C16FC1F380010029FAD0BAB1EA
:10452000DFF8B4806D1C201D07F0F7FD102808D0BF
:10453000A068D8F80010B1FBF0F07043B5EBC01FD5
:10454000F0D904F1A006304612F0A6FD85B21EE0B7
:10455000A68CE58C201DE4F7A7DCA019411BB03127
:10456000201D41F288332A46E4F7A0DCE9E7304613
:104570000122694612F09EFD6068C16FC1F34001DF
:104580000029FAD09DF8001001606D1EADB2002D1B
:10459000EDD1304612F080FD0028D4D16068C16FA3
:1045A000C1F380010029FAD094F8640001280BD0EF
:1045B000EFF31081012080F310883868426842F0E0
:1045C0008202426081F31088002084F83101BDE846
:1045D000F883000074018100744280002DE9F043EB
:1045E00089B004460F4615462678002C05D0022EC9
:1045F00005D3082009B0BDE8F0830520FAE794F858
:104600003400012800D09DB1FFF726FD242204F1DB
:1046100010016846FBF7BCFD211DA06C0EC916F009
:10462000DFFC0028E6D194F83400022802D010E024
:104630000420DFE70EB10820DCE7EFF3108801204B
:1046400080F310882046FFF767FE88F31088002863
:10465000D0D194F83400DFF8A08001280ED04D208E
:10466000704308EB800006CDA03012F009FD234D09
:10467000A857E4F715DCA857E4F714DC4D2206FB35
:1046800002F008EB800514F8341F814605F8641F1A
:10469000A078A8706078343C6870643D05F16800CB
:1046A0003022211DFBF774FD48F8297005F1080040
:1046B000182204F13801FBF76BFD1048001D50F87B
:1046C00026006860281D07F013FD281D07F02EFD49
:1046D0000B4C0126207850B926700848032114306D
:1046E00012F03AF86080002801DA042082E785F8A9
:1046F0009C6000207EE700007401810074ED0301DE
:104700002844800010B502280FD271B16AB14D243F
:104710006043074C04EB800090F89C402CB1001DD6
:10472000E4F7C6DB0028FFD110BD042010BD000057
:10473000740181002DE9F04105464D201F49684371
:1047400001EB800404F1A006304612F0A5FC82B211
:10475000174692B194F8310101280ED04D204543FF
:10476000164800EB8505B035802A0BD32946304624
:10477000802212F09FFC802708E0002084F830019E
:10478000BDE8F0812946304612F094FC94F86400AC
:1047900018B1022809D00420F2E72946201D3A4624
:1047A000E4F788DB0028EBD106E02946201D3A46D5
:1047B000E4F782DB0028E3D10020E1E77401810007
:1047C00070B50546022D15D2A1B19AB14D20164BF8
:1047D000684303EB800494F89C0058B194F864009B
:1047E000012807D004F1A00012F0A8FC94F83001D1
:1047F00010B117E0042070BD94F8310190B994F81D
:104800009C0001280ED16068D0F8980050B10120BA
:1048100084F830012846FFF78DFF18B1002184F895
:10482000301170BD002070BD7401810010B50228E8
:104830000FD271B16AB14D246043074C04EB800084
:1048400090F89C402CB1001DE4F730DB0028FFD12C
:1048500010BD042010BD0000740181002DE9F0415D
:1048600006460C46174604F10805204650F4A4D726
:10487000C3B21B48E1184268914202DD0320BDE843
:10488000F0811849184A006809681268891A081ADC
:10489000001FE91881421CD94FF4004513A2294694
:1048A0000020E4F7FBDA02F0A1FA30B118A22946A1
:1048B0000020E4F7F3DA0820E1E71DA229460020F2
:1048C000E4F7ECDA3A4621463046BDE8F04117F00D
:1048D000EDB83A4621463046BDE8F04117F0E6B85B
:1048E000D8328000D0238000CC238000523A353A61
:1048F0004E56445320617265612069732062656978
:104900006E6720636F6D7061637465642E0D0A00BD
:10491000523A353A436F6D70616374696E67204E29
:10492000564453206661696C65640D0A00000000FE
:10493000523A353A436F6D70616374696E67204E09
:10494000564453207375636365737366756C0D0A03
:104950000000000030B58BB011A000680A9011482B
:104960000078022802D000200BB030BD00240AAD30
:10497000A91C0AA80EF06EFA18B99DF82A00C00703
:104980000CD0641CE4B2032CF2D307A101A8FDF7FC
:104990008DF901A80CF0C4FD0120E5E70020E3E754
:1049A00001240100404180006173696320766572D3
:1049B000696679206661696C000000007CB50D466F
:1049C0000022009201926946E4F778DA044634BB8B
:1049D0004FF420516846E4F773DAB8B942F60101A2
:1049E0006846E4F76DDA88B942F603016846E4F7F1
:1049F00067DA58B942F602016846E4F761DA28B985
:104A00004FF424516846E4F75BDA08B1062406E067
:104A10000098C5F30B0180880843009988802046E0
:104A20007CBD00002DE9F04105460C46FF26217AA9
:104A30001E2905D022480279521E52B200683AE07F
:104A400004F108012846E4F73DDA064635E010F89F
:104A500032308B422DD11B4E56F82500406F30B3BB
:104A600000273B4618A240210020E4F717DA062071
:104A700000EB0520E4F728DAC00605D5002717A2C9
:104A800040210020E4F70ADA21460C3956F82500C7
:104A90007430E4F71BDA0020A08001266FB115A264
:104AA0004021E4F7FBD92846E4F712DA05E00127B4
:104AB000D7E7521E52B2002AC9DA3046BDE8F0816B
:104AC0007C058000C40E8000523A333A65786563F5
:104AD0007574653D307825780A000000523A333A03
:104AE000636F6E6E656374206E6F742063666D0A0B
:104AF00000000000523A333A737461727420657892
:104B000065637574650A00000348024901600D2160
:104B100041607047A8F103017C0580002DE9FF5F2B
:104B200081460F460024A246CDF808A0CDF80CA07F
:104B3000584850F829006030E4F7CCD980463D1F32
:104B400079882888544BCDE9001054A240210020D8
:104B5000E4F7A4D92888E8BB4846E4F7BDD9401E4D
:104B60002880002611E007EB460002AB8288002176
:104B70004846E4F7B3D9C4B2CDF808A0CDF80CA0EC
:104B80000CB1B0463BE0761CB6B27888B042EAD8A9
:104B900035E007EB48006B46818801AA4846E4F7F8
:104BA0009FD9C4B23CBBBDF804002988884200D319
:104BB000084686B2022106F10800E4F793D983463D
:104BC000ABF8046032460BF106000099FBF7E0FAFF
:104BD000304800E013E050F8290059466030E4F70F
:104BE00075D94846E4F780D92888801B288008F1C9
:104BF00001081FFA88F8CDF808A0CDF80CA0788835
:104C0000404503D9288808B1002CC2D044BB48468F
:104C1000E4F762D92988401A401E86B20025062092
:104C200000EB09230F22042148460096E4F75ED9E1
:104C30008246AAF80260174850F82900066E0AE07A
:104C40000AEB0500B288001DB11DFBF7A1FAB08880
:104C5000284485B23668002EF2D15046E4F748D990
:104C60004CB1062C07D007EB4800397882882346E0
:104C70004846E4F73FD9084B14A240210020009495
:104C8000E4F70CD9062C03D0002004B0BDE8F09F57
:104C90000120FAE7C40E800010F20301523A333AC1
:104CA0005B25735D20656E7465722C206E625F6893
:104CB000616E646C653D307825782C2072655F6C80
:104CC000656E3D307825780A00000000523A333A8C
:104CD0005B25735D20657869742C2073746174752D
:104CE000733D307825780A003EB500200290134CC1
:104CF0006420207002A802F033FC18B99DF8080067
:104D0000A02806D06220207002A802F029FC10B171
:104D100005E000203EBD9DF80800A0280CD008A0AA
:104D2000D921CDE900100B4B0BA216A10220FEF7F2
:104D30003BFF4FF0FF303EBD00203EBD01428000F2
:104D40006D65746572696E672061626E6F726D6108
:104D50006C000000FBE603012E2E5C5372635C6D59
:104D600061786579655F647269766572735C737288
:104D7000635C6D61786579655F6377323231782E77
:104D8000630000004E4F5F54414700003EB50546AA
:104D90001A20114B1B7899421DD801EB81030F4952
:104DA00001EBC304627104EB45014989012912D169
:104DB00000208DF80000221D2189022011F092FBB5
:104DC000ADF802000120ADF80400641D02946946AC
:104DD000284601F070F83EBDFC4580006417810054
:104DE0002DE9F84F0746894616464FF0000A002481
:104DF000304611F0ACFB00282BD01E4DDFF8788038
:104E00000FE004EB840005EBC000031D01890522BF
:104E1000484611F082FB8246BAF1000F05D1641CAE
:104E2000E4B298F800008442EBD3BAF1030F12D039
:104E300000208DF800009DF80000002809D004EB48
:104E4000840055F83010002903D08DF801706846B1
:104E50008847BDE8F88F04EB840005EBC00000EB49
:104E600047004681012E03D002208DF80000E2E7C2
:104E70000120FAE764178100FC45800010B588B076
:104E80000F208DF81C0000208DF81D0006900121D8
:104E900006A800F0ADF80446002C09D014220549FC
:104EA00001A8FBF775F9ADF8084001A8FEF756F820
:104EB00008B010BD78D503012DE9F0418EB01BA0DC
:104EC00000680D904FF000082C2101A8FBF779F93C
:104ED0000024174E174F23E000200C900CA90191DD
:104EE0000DA9029104EB840106EBC105291D039174
:104EF00005218DF810108DF82E008DF82F000E482A
:104F0000059001A845F426D380465FEA080002D048
:104F10000EB0BDE8F081019800882881641CE4B2DD
:104F200038788442D8D34046F2E700000F180000DA
:104F300064178100FC45800000EF03012DE9F04378
:104F400085B081460E78ADF8006000278DF80470BA
:104F50000024254DDFF894800CE004EB840005EB81
:104F6000C002131D11890522304611F0D6FA28B966
:104F7000641CE4B298F800108C42EED301210228A0
:104F80000ED0032815D004281FD0ADF802708DF87C
:104F900004106946484600F09CFF05B0BDE8F08368
:104FA000ADF8021004EB840005EBC000401D029038
:104FB000EFE70220ADF8020004EB840005EBC0002F
:104FC00000EB49000A300290E3E70720ADF8020049
:104FD00004EB840005EBC0011E3103A811F0C1FAF7
:104FE00003A80290D5E7000064178100FC4580000B
:104FF000F0B4002804D0012904D90120F0BC704786
:105000000220FBE700220A4D09E000EBC20402EB9C
:10501000820305EBC30350CC50C3521CD2B28A4268
:10502000F3D304480170F0BC034849F49D9200009A
:1050300064178100FC45800028EF03012DE9FC473F
:1050400007460E46B6F8008000200024ADF8008028
:1050500000218DF80210214DDFF884900CE004EB64
:10506000840005EBC000031D01890522404611F0B4
:1050700054FA28B9641CE4B299F800108C42EED3BB
:10508000032818D001208DF802009DF802000128A5
:105090000BD09DF8040040B104EB840055F83010AB
:1050A00019B18DF8057001A888476946384600F0A7
:1050B0001FFFBDE8FC87B01D09F004FA04EB840172
:1050C00005EBC10101EB47014881012803D0022013
:1050D0008DF80400D9E70120FAE700006417810089
:1050E000FC45800070B50D4B02225A7101241A89CB
:1050F000824201D1204670BD904201D8188107E05C
:10510000851A182D03DD18321A81002400E0188159
:105110001889FCF74FFA204670BD0000004180005E
:1051200010B502F07BFBC0B203498968C831B1F504
:10513000617F00D9012010BD44FA80007CB51E4C6F
:105140001E491FA022780BF041FDFCF7BBF900259A
:10515000D8B12078401CC0B22070032805D20022AC
:105160000A21E069DFF725DE1FE065711BA040F230
:10517000CB31CDE90010114B1CA225A10220FEF776
:1051800013FD0A2003F0F0FF0FE000F03FF91920B3
:10519000208103211820FFF7A5FF00F09DFB0648A2
:1051A0001C30FEF7D3FF00B9E561BDE87C40034940
:1051B00019A00BF00BBD000000418000B5C5030134
:1051C0003C25732062617474436861726765496E3F
:1051D0006974436E743A25643E000000636861722E
:1051E00067652061626E6F726D616C002E2E5C537C
:1051F00072635C6D61786579655C7372635C6D6127
:10520000786579655F626174746572792E630000F8
:105210004E4F5F54414700003C2F2573203E000055
:1052200010B586B01A491BA00BF0D0FC1B48C06912
:1052300088B11BA04FF47C71CDE90010144B1FA264
:1052400027A10220FEF7B0FC06B01149BDE81040CE
:1052500025A00BF0BBBC11482A4A00211C30FEF7E8
:105260003BFF044654B114220949203101A8FAF742
:105270008FFFADF8084001A8FDF770FE142000F084
:1052800047F806B00249BDE810401FA00BF09EBCD5
:10529000D4C503013C2573203E000000004180007E
:1052A0006372656174652063686172676520696E09
:1052B0006974206661696C65640000002E2E5C5381
:1052C00072635C6D61786579655C7372635C6D6156
:1052D000786579655F626174746572792E63000028
:1052E0004E4F5F54414700003C2F25732063686197
:1052F0007267655F696E69745F6661696C65643E5B
:10530000000000003D5102013C2F2573203E0000AB
:1053100010B5044609490AA00BF058FC0A4B0022BC
:105320001A705A712146D869DFF743DD04460349F4
:1053300006A00BF04BFC204610BD000098C50301F1
:105340003C2573203E000000004180003C2F257367
:10535000203E000030B587B02548264D0078002853
:1053600006D000220A21A869DFF723DD07B030BD8F
:105370000024069406A8FCF7A1F80028F6D10294B0
:105380000394049405949DF818201BA102A8FCF72F
:105390008DFC02A80CF09CF89DF81800C0F3C10128
:1053A00003290FD081071DD4019401A816F078FAC3
:1053B000BDF80400A0F5154120390DD00F2000F0F4
:1053C00097FBD3E71048A989006864308842CDD99B
:1053D000012000F08DFBC9E700226421A869DFF7F6
:1053E000E8DCC3E7C007C1D00C2000F081FBBDE7BB
:1053F000C54180000041800063686720696E743D8C
:10540000253032580000000044FA800010B586B004
:105410000CF0D8F8094A00210948FEF75DFE044661
:10542000002C09D01422074901A8FAF7B1FEADF803
:10543000084001A8FDF792FD06B010BD55530201CA
:105440001841800084C5030101460248002280699A
:10545000DFF7AF9C0041800010B502F007F9C0B241
:1054600010BD0000F0B585B03C493DA00BF0AEFB8F
:1054700000210491009101910291039101253A4884
:1054800002786AB1017004A90A2001F0BBFF9DF8FF
:10549000102036A16846FCF709FC68460CF018F8A5
:1054A00002F0BCF9344E30B100220A213069DFF736
:1054B00080DC05B0F0BD00F08BFB70792F4F304CD5
:1054C000022806D0397840F6485049B16168E1B108
:1054D00027E02C48007820BB00F0B4FA054620E015
:1054E00062686AB92168814203D39DF810004007C1
:1054F00006D51A4924A00BF069FB12F009FDD8E784
:10550000164925A00BF062FBD3E72168814208D23F
:1055100027A16846FCF7CAFB68460CF001F812F0B8
:10552000F7FC264960680978884204D03878022858
:1055300001D314F09BFA41F28831A068B0F5B47F32
:1055400000DC0DB94FF4FA6100223069DFF731DC7D
:1055500002491BA00BF03AFBABE7000003C50301B7
:105560003C2573203E0000003C4180006D20696EA8
:10557000743A25780000000000418000204180003E
:1055800044FA8000C54180003C2F2573206C6F7762
:105590005F706F7765723E003C2F2573206D6574D8
:1055A00065725F737573705F6361703A25643E0066
:1055B0006C6F7720706F7765720000005241800039
:1055C0003C2F2573203E000010B586B00D480069C1
:1055D000002811D10B480C4A00211030FEF77CFD49
:1055E00004464CB11422094901A8FAF7D1FDADF8DF
:1055F000084001A8FDF7B2FC06B00A20BDE8104043
:1056000000F006B800418000655402011CC503018A
:105610007CB5054600200D4CA279032A15D12069DE
:10562000FEF7FCFD002229462069DFF7C2DB0446B5
:1056300054B107A040F21D21CDE900100B4B0CA284
:1056400014A10220FEF7B0FA20467CBD0041800084
:105650006D65746572206576656E74207374617211
:1056600074206661696C656400000000ECC403018D
:105670002E2E5C5372635C6D61786579655C737224
:10568000635C6D61786579655F6261747465727978
:105690002E6300004E4F5F544147000001480069EF
:1056A000FEF7BCBD0041800070B5414C414942A0AD
:1056B000A2790BF08BFAA079002510B102282FD027
:1056C00059E03C4942A00BF081FA01F0BEFFA8B1BD
:1056D00038494AA00BF07AFA6078401CC0B260707A
:1056E000C82806D26069BDE8704000220A21DFF7B1
:1056F000609B304947A00BF069FA3CE00A2015F0A6
:1057000037F90A200FF01EFEA5700220A0710022BA
:105710000A216069DFF74DDBBDE8704014F08CBAF8
:10572000244941A00BF052FA05F022F9B8B1A07853
:10573000401CC2B2A270642A0AD21E4946A00BF0D5
:1057400045FA6069BDE8704000226421DFF7319BB3
:10575000184948A00BF03AFA0120A0710BE0154956
:105760004BA00BF033FA0320A071FFF72DFF0DF0D3
:1057700035F810F089F85048007850B14F4800785B
:1057800038B90C494EA00BF021FA42F6E0600BF05C
:1057900075FE0A2003F0E8FC05481430FEF7D6FC3D
:1057A00000B96561BDE87040024949A00BF00EBA2E
:1057B0000041800030C503013C2573206261747490
:1057C0004D657465725374617475733A25643E0057
:1057D0003C257320626174744D6574657253746105
:1057E0007475733A424154545F4D455445525F417C
:1057F000424E4F524D414C3E000000003C2573206C
:10580000726574213D4357323231585F5245545FBF
:105810004F4B3E003C2573206D657465725F61627D
:105820006E6F726D616C3E003C2573206261747412
:105830004D657465725374617475733A4241545482
:105840005F4D455445525F5645524946595F434F57
:105850004E4649473E0000003C2573206261747447
:105860004D65746572566572696679436E743A2542
:10587000640000003C2573206D657465725F766579
:10588000726966795F6661696C65643E000000005C
:105890003C257320626174744D6574657253746144
:1058A0007475733A424154545F4D455445525F4EAE
:1058B0004F524D414C203E00C741800020418000A6
:1058C0003C257320735F746F5F6164763E00000057
:1058D0003C2F2573203E000010B586B0154916A058
:1058E0000BF074F91648406930B106B01149BDE8B3
:1058F000104014A00BF06AB911481B4A0021143063
:10590000FEF7EAFB044654B114220A49223101A8E9
:10591000FAF73EFCADF8084001A8FDF71FFB0A208E
:1059200000F028F806B00349BDE810400FA00BF0C6
:105930004DB900004EC503013C2573203E00000018
:10594000004180003C2F257320626174745F6D6597
:105950007465725F696E69745F6576656E745F69A0
:1059600064213D4E554C4C00A95602013C2F257335
:10597000203E000070B50546064C6069FEF74EFCFF
:1059800000226270A27129466069BDE87040DFF7AD
:10599000109A00000041800070B58AB004460F4E96
:1059A000B089A04217D0A4F561600F2190FBF1F0FF
:1059B000032101EB8000C5B22846FBF71AFE002840
:1059C00009D1B4812B46224605A101A8FCF76EF946
:1059D00001A80BF0A5FD0AB070BD000000418000D9
:1059E00063686720766F6C3A25646D762C2072654B
:1059F000673A25780000000010B50C490CA00BF0A8
:105A0000E5F80D484179012905D1192101810321CA
:105A10001820FFF767FB14F06FF80A20FFF7F8FD76
:105A2000BDE81040014905A00BF0D0B8C5C4030182
:105A30003C2573203E000000004180003C2F257370
:105A4000203E000070B5182441F22115254E002398
:105A5000254AB168642901D2D37039E0A1F164000C
:105A6000B0F5B47F24D2C82091FBF0F078B10020CB
:105A700054893168A14200D95181518941F25E06B1
:105A80001A4CB14205D800EB4000245C0EE0012026
:105A9000EEE741F2CC06B14204D800EB40002044CE
:105AA000447803E000EB400020448478D3700FE09A
:105AB000A1F5E671462908D2D078401CC0B2D0705A
:105AC000052805D941F2040502E0032000F010F892
:105AD0002846FFF761FF2046BDE870400621FFF72A
