:020000040100F9
:1020000000008400352300013D230001894B80003E
:10201000E33F0001E13F0001E1400001000000005A
:10202000000000000000000000000000314D8000B2
:1020300047230001000000009D220001E53F000150
:1020400000F002F800F0C4F80AA090E8000C824406
:102050008344AAF10107DA4501D100F0B9F8AFF2E3
:10206000090EBAE80F0013F0010F18BFFB1A43F076
:102070000103184724360100743601000A444FF06A
:10208000000C10F8013B13F0070408BF10F8014BD7
:102090001D1108BF10F8015B641E05D010F8016B1C
:1020A000641E01F8016BF9D113F0080F1EBF10F880
:1020B000014BAD1C0C1B09D16D1E58BF01F801CBA3
:1020C000FAD505E014F8016B01F8016B6D1EF9D526
:1020D0009142D6D370470000103A24BF78C878C127
:1020E000FAD8520724BF30C830C144BF04680C601E
:1020F000704700000023002400250026103A28BF66
:1021000078C1FBD8520728BF30C148BF0B60704769
:102110006E2900F0BA84702900F04182662912F01D
:10212000B880652912F0B580672912F0B280612964
:1021300012F0B18003681B0A28BF41F080016929B1
:1021400000F0B281642900F0AF81752900F0AC8104
:102150006F2900F0BA85782900F00D82E92900F096
:102160005585E42900F05285F52900F04F85EF29C7
:1021700000F0B785F82900F00C820368DB0928BF5E
:1021800041F08001632900F0C484732900F0C98400
:10219000E32901F08D81F32901F09281002070473D
:1021A0001FB512F071F800F0DEFA01F0B9F9040081
:1021B0000020002111F0C4FA401C606000200021C2
:1021C00011F0A8FAE06000F0E3FB1FBD10B510BDF0
:1021D000DFF80CD0FFF7E4FF0CF090FD01F056FAA9
:1021E0000000840003B4FFF7F1FF03BC02F017F80E
:1021F00002F0FF0343EA032242EA024200F080BBFE
:1022000058585247010000001555000000200001F9
:10221000002000016EED52490101000000000000A5
:1022200000000000000000000000000000000000AE
:10223000000000000000000000000000000000009E
:102240002C4B19680868B0E8F04F80F30988BFF399
:102250006F8F4FF0000080F311887047000000007E
:1022600008480068006880F308884FF0000080F399
:10227000148862B661B6BFF34F8FBFF36F8F00DF74
:1022800000BF00BF08ED00E0DFF80C00016841F47A
:1022900070010160704700BF88ED00E0EFF3098036
:1022A000BFF36F8F134B1A681EF0100F08BF20ED9D
:1022B000108A20E9F04F106009B44FF0300080F32D
:1022C0001188BFF34F8FBFF36F8F10F06DFC4FF08D
:1022D000000080F3118809BC19680868B0E8F04F65
:1022E0001EF0100F08BFB0EC108A80F30988BFF30E
:1022F0006F8F704734468000EFF305807047000011
:102300000B49D1F800C04A685CF8043B10681844D7
:1023100042F8040B8C4528BFA1F1DC0C8A4228BF8F
:10232000A1F1DC02C1F800C04A6020F00040704713
:10233000DC8181000648804706480047FEE7FEE74B
:10234000FEE7FEE7FEE7FEE7FEE7FEE7FEE700004A
:10235000B14000013DED00017CB51D4616460C0064
:10236000009001D02044401E074B7B442A4669461A
:102370000190304600F0A3FB05461CB100206946E1
:1023800000F0B0FB28467CBD810700000FB4044973
:1023900010B503AA029800F0C9FB10BC5DF814FB4D
:1023A000EC4380000FB41CB5084B06AA7B44694679
:1023B0000090059800F083FB04460020694600F079
:1023C00091FB20461CBC5DF814FB000035070000A3
:1023D0000FB47CB50C0009AA009001D02044401E27
:1023E000084B7B4469460190089800F068FB05465D
:1023F0001CB10020694600F075FB28467CBC5DF8E6
:1024000014FB00000907000070B5044685690068E8
:10241000C10601D5302600E02026C00707D070BDD8
:10242000D4E9012130469047206A401C20626D1E8D
:10243000F6D570BD70B5044685690078C00707D130
:1024400070BDD4E9012120209047206A401C206201
:102450006D1EF6D570BD70B50C460546012A05D037
:102460002878800600D5EA69002302E0012305E010
:102470005B1C934202D2E05C0028F9D1A869E618FF
:10248000C01AA861286A184428622846FFF7BCFFD2
:1024900004E0D5E9012114F8010B9047B442F8D3C8
:1024A0002846FFF7C7FF70BD2DE9F041064600241E
:1024B00010687529314616A510D000F07BFA002867
:1024C00002DA404213A507E031688A0701D512A558
:1024D00002E0490704D511A5012401E000F073FAD8
:1024E00000210A2206F1240709E0B0FBF2FCB0FB50
:1024F000F2F302FB1C00303078541846491C0028C7
:10250000F3D123462A463046BDE8F04100F064BAD4
:10251000000000002D0000002B0000002000000043
:10252000F0B40D460188090502D5214C7C4402E037
:102530001F4C7C440E34002100F1240608E002F018
:102540000F071209E75D42EA03721B097754491C21
:1025500052EA0307F3D102780023120704D5702D45
:1025600006D009B1022311342246F0BC00F034BA7F
:1025700001231034F8E770B504460D462146106873
:1025800000F021FA024629462046BDE870400023AB
:10259000C6E7D21D22F00703D3E90023C0E7036892
:1025A000126843F0200303600823C3610023B7E7E8
:1025B0009C2301002DE9F05F894604464FF0000A94
:1025C000DFF874B1FB44C0F820A02046E1688847DA
:1025D000002874D0252806D0D4E901219047206A2C
:1025E000401C2062F1E700265F462046E1688847EC
:1025F0002028054607DB312D05D2781910F8200C6C
:1026000008B10643F1E7B00701D526F00406C4F887
:102610001CA00027C4F818A02A2D09D0284601F0D4
:10262000F7FD38B304EB8708303DC8F8185019E0BF
:1026300059F8041B204604EB87029161E168884742
:10264000012F054618D1E069002820DA26F020067F
:102650001DE0D8F8180000EB800005EB4000303892
:10266000C8F818002046E1688847054601F0D0FD0B
:102670000028EED1012F0AD02E2D08D12046E16886
:1026800088477F1C0546022F46F02006C4DBA06960
:10269000002803DA404246F00106A061F00701D0AD
:1026A00026F010066C2D0BD0682D09D04C2D39D09A
:1026B0006A2D35D0742D35D07A2D33D016E038E020
:1026C000E1682F4620468847B842054609D16C2F5D
:1026D00026D04FF48060E1680643204688470546CF
:1026E00004E06C2F1AD04FF4807006430DB3A5F1AF
:1026F0004100192802D8203546F400664A4629468A
:10270000204626604E46FFF703FD80B101280BD01E
:10271000F61D26F0070000F1080956E74020E4E71F
:102720008020D8E70020D6E706F104094DE72846C7
:1027300052E7206ABDE8F09F2C2301000B4910B539
:10274000A1F17C020A4CC2E93712372106E000EB06
:10275000104342F82130074B00FB03400B1EA1F150
:102760000101F4DC10BD0120E8E700007C8181005C
:10277000E119D666CD0D010040EA010310B59B07B3
:102780000FD1042A0DD310C808C9121F9C42F8D0DB
:1027900020BA19BA884201D9012010BD4FF0FF308C
:1027A00010BD1AB1D30703D0521C07E0002010BDA2
:1027B00010F8013B11F8014B1B1B07D110F8013B2E
:1027C00011F8014B1B1B01D1921EF1D1184610BD0F
:1027D00010B5431C02E010F8011B71B18107FAD15A
:1027E0004FF0013202C88C1A8C4314EAC211F9D09E
:1027F000C01A0A0603D0C01E10BDC01A10BD0A04BC
:1028000001D0801E10BD0902FCD0401E10BD032A5D
:1028100040F2308010F0030C00F0158011F8013BFD
:10282000BCF1020F624498BF11F801CB00F8013BE4
:1028300038BF11F8013BA2F1040298BF00F801CBA8
:1028400038BF00F8013B11F0030300F02580083A7F
:10285000C0F0088051F8043B083A51F804CBA0E8D6
:102860000810F5E7121D5CBF51F8043B40F8043B2B
:10287000AFF30080D20724BF11F8013B11F801CB60
:1028800048BF11F8012B24BF00F8013B00F801CB31
:1028900048BF00F8012B704710B5203AC0F00B80FC
:1028A000B1E81850203AA0E81850B1E81850A0E854
:1028B0001850BFF4F5AF5FEA027C24BFB1E81850AE
:1028C000A0E8185044BF18C918C0BDE810405FEA1E
:1028D000827C24BF51F8043B40F8043B08BF70479A
:1028E000D20728BF31F8023B48BF11F8012B28BF9F
:1028F00020F8023B48BF00F8012B70474FF0000260
:102900000429C0F0128010F0030C00F01B80CCF101
:10291000040CBCF1020F18BF00F8012BA8BF20F86F
:10292000022BA1EB0C0100F00DB85FEAC17C24BFC3
:1029300000F8012B00F8012B48BF00F8012B70476D
:102940004FF0000200B5134694469646203922BF48
:10295000A0E80C50A0E80C50B1F12001BFF4F7AF93
:10296000090728BFA0E80C5048BF0CC05DF804EB75
:10297000890028BF40F8042B08BF704748BF20F8E3
:10298000022B11F0804F18BF00F8012B7047000098
:1029900070B5064C7C44064D7D4403E0206820441D
:1029A0008047241DAC42F9D170BD00007C2E01008F
:1029B0007C2E010009684A0501D540B27047C9055F
:1029C000FCD500B2704709684A0501D5C0B270470E
:1029D000C905FCD580B270472DE9F0470D469946F0
:1029E0009246044600F124080168880604D5E0698F
:1029F00021F01001216000E00120A84201DD471B09
:102A000000E00027A1697A1902EB0900081AA06109
:102A10002078C00602D42046FFF7F6FC002608E026
:102A2000D4E901211AF806009047206A401C761C60
:102A300020624E45F4DB2078C0060AD52046FFF719
:102A4000E3FC06E0D4E9012130209047206A401CD5
:102A50002062381EA7F10107F4DC07E0D4E9012168
:102A600018F805009047206A401C2062281EA5F136
:102A70000105F3DC2046FFF7DDFC2078000602D5D7
:102A80000220BDE8F0870120FBE711680268006AB8
:102A9000530501D508700AE0D30501D5088006E08A
:102AA000130603D5C217C1E9000200E00860012047
:102AB0007047000001694A1C02610878704700B540
:102AC0008FB0CDE901310021059105497944CDE967
:102AD000031011466846FFF76DFD0FB000BD000002
:102AE000E5FFFFFF0A6802F8010B0A607047D1E9B1
:102AF00000239A4202D2531C0B601070704710B52D
:102B0000436913B1AFF3008001E0FFF7A4FC01209B
:102B100010BD127800F124010A7000224A700122CF
:102B2000EDE711684FF0FF32E9E70000074B70B5A1
:102B30000D467B44FFF7C3FF0446284600F0C4FC63
:102B400010B14FF0FF3070BD204670BD535A0000E9
:102B50002DE9FF5F15468A460446DFF8AC80F8444D
:102B60000027D8E900103E46CDE9001010E03AF801
:102B700016106A4602A800F0ABFC411C07D0217871
:102B8000890603D5E269391891420DD80744761CAD
:102B90002078800602D5E069B84205DDAE42E6DB6A
:102BA0003AF816000028E2D1A069C01BA0612046B7
:102BB000FFF72AFCD8E90010CDE90010002017E04B
:102BC0003AF818106A4602A800F082FCB0F1FF3F04
:102BD00081460BD000250DF1080B05E0D4E9012159
:102BE0001BF8050090476D1C4D45F7D308F1010017
:102BF000B0428046E4DB206A384420622046FFF77A
:102C000019FCBDE8FF9F0000A61D01002DE9F04161
:102C10008046D21D22F007020025D2E90002F529E4
:102C200015A614D0011E72F1000106DA0023D0EBC4
:102C3000030063EB020211A608E0D8F800108B072E
:102C400001D50FA602E0490701D50EA601251146C0
:102C5000002408F1240704E000F04EF830323A5521
:102C6000641C50EA0102F7D12B4632462146404609
:102C7000BDE8F041FFF7B0BE000000002D000000ED
:102C80002B0000002000000030B4002100F12404DB
:102C900008E002F00705D208303542EA4372DB084B
:102CA0006554491C52EA0305F3D10468002310A2BD
:102CB000250707D5A40600D421B1C46901230DA2BC
:102CC000641EC46130BCFFF787BE10B504462146C0
:102CD0001068FFF778FE02462046BDE8104000234A
:102CE000D2E7D21D22F00701D1E90023CCE7000092
:102CF000000000003000000030B5B0F10A024FEAD9
:102D0000900E71F100034EEA817EB0EB0E0061EB94
:102D100091014FEA101E4EEA017E10EB0E0041EBCE
:102D200011114FEA102E4EEA016E10EB0E0041EB2E
:102D300011214FEA104E4EEA014E10EB0E0041EB0E
:102D40001141401841F100014FEAD00040EA4170C2
:102D50004FEAD10110EB80054FEA810444EA9074F8
:102D600044EB01046D1944EB0404521BA3414FF0E2
:102D7000000348BF0A3200D530BD401C41F10001BC
:102D800030BD70472DE9FF4F0C461E464FF0FF3710
:102D90008BB0D2E90001DDF860800A908A46C1F369
:102DA0000A5505B93D46002108464FF00000BAF12A
:102DB000000F00F4400005DA00EB80004FF4400102
:102DC00001EA50004FEA9059B9F1010F00DDB94610
:102DD0000A9850EA4A000ED044F61050A5F2FF358A
:102DE00045432F14B8F1000F1ED07542291E1EDD79
:102DF000C9F100021CE0B8F1010F4FF0000001D052
:102E0000302103E0F24305E02154401CB042FBDBDB
:102E100030460022002121540B99C1F80880C1E9F5
:102E200000200FB0BDE8F08FBD1B6D1CDEE74A46E9
:102E300000DA694206A800F0B7FB06AB93E807008A
:102E400003AB83E8070050460A9900F069FC8DE85F
:102E50000700A0F500501F3800900398002D0ADDF0
:102E600042F21F014A460844002303A90390684622
:102E700000F0D2FE09E0A0F500504A461F380023BA
:102E800003A90390684600F0DCFE8DE8070000040B
:102E9000000C03D04FF0FF30410800E01046B8F1BD
:102EA000000F03D00022009215461EE0751E05D4C7
:102EB000FFF722FF303262556D1EF9D5B34601226D
:102EC000084302D000227F1C04E02078302801D182
:102ED00000227F1E002A099784D01DE0112D07DAF9
:102EE000FFF70AFF303262556D1C50EA0102F5D13E
:102EF000084302D00098C8B10EE00021681E05E02A
:102F0000235C625C63542254401E491C8142F7DBFF
:102F1000AB46A81B401E0990002004F80B000B983C
:102F2000099AC0F80880C0E9002B7AE711264FF013
:102F3000000857E72DE9F04F88460446D21D22F0DD
:102F4000070191B0D1E90001CDE90A0101F0C9F80A
:102F500002460B98C00F01D02D2007E020688107A2
:102F600001D52B2002E0202101EAC000032A0990AC
:102F700001D0072A05DB03464146204600F0D4FA7B
:102F80000BE12078800601D5E06900E00620B8F169
:102F9000650F814606D0B8F1660F18D0B8F1670FFB
:102FA00070D131E00020B9F1110F009001DB112345
:102FB00001E009F101030AAA01A90CA8FFF7E2FE4A
:102FC000DDE90C70002609F10105834647E0012088
:102FD0004B4600904FF000470AAA01A90CA8FFF742
:102FE000D1FEDDE90DB00C995D46002610B909F15E
:102FF00001000D18B9EB050003D4C0F1FF3609F14B
:103000000105A5EB09002BE0B9F1010F01DA4FF042
:1030100001090020B9F1110F0090484601DD11238C
:1030200000E003460AAA01A90CA8FFF7ABFEDDE900
:103030000C704D4600268346207800070AD4AB4525
:1030400000DA5D4601A8012D04DD411911F8011CCB
:10305000302907D04F4502DA17F1040F04DA0120B6
:1030600082460FE06D1EEEE7002F02DCED1B3E44B2
:1030700003E0781CA84200DD7D1CB81B00F1010AAA
:103080004FF000472078000703D4AA4501DB4FF03A
:10309000FF3A0021B7F1004F0DF143088DF84310BE
:1030A00024D002202B23002F01DA7F422D230A2176
:1030B000021EA0F1010000DC5FB197FBF1FC97FB61
:1030C000F1F201FB1C7C17460CF1300C08F801CD25
:1030D000EEE7A8F1010003702188090501D545211B
:1030E00000E06521A0F1010800F8011C09980FA972
:1030F000A1EB0807FF1D00B10120411901EBEA70A7
:10310000A1693844081A401EA0612078C00602D484
:103110002046FFF779F9099828B1D4E901219047B1
:10312000206A401C20622078C00622D52046FFF786
:103130006BF91EE0002E04DBB34502DD01A8805DC3
:1031400000E03020D4E901219047206A401C206231
:10315000761CAAF101005FEA000A0AD100F0E0F94A
:10316000C0680168405CD4E901219047206A401C96
:103170002062281EA5F10105DCDC07E0D4E901216D
:1031800018F8010B9047206A401C2062381EA7F1F6
:103190000107F3DC2046FFF74DF9032011B041E6AB
:1031A0002DE9F04F04460D46D21D22F0070089B0EC
:1031B000D0E900974846394600F093FF0246F80FE1
:1031C00001D02D2307E02068810701D52B2302E0E1
:1031D000202101EAC0038DF820300BB1012000E06E
:1031E0000020032A824601D0072A04DB2946204614
:1031F00000F09AF93FE12078800601D40D2500E027
:10320000E569C7F30A560D2D49DA00214FEA175B2D
:1032100008464FF00000002F00F4400007DA00EBF2
:1032200080004FF4400100EBD07001EA600081158E
:10323000012901DD4FF0FF3100224FEA850CBCF17E
:10324000180F06D31346ACF118004FF08052C2405D
:1032500003E04FF4801323FA0CF30CF10C0CBCF1D7
:10326000200F04D3ACF1200C09FA0CF001E007FAAE
:103270000CF000294FF0004801DD18B90FE00ED125
:1032800040450CD319EB02095F4121B9404502D1F9
:103290009F4329EA0209BBEB175F00D0761C208808
:1032A000000502D57B48784402E07A487844193812
:1032B00008AA302302F80A30037C0AF10101002E2B
:1032C0000AF1020A53546A4602DC4FF0300101E071
:1032D0004FF031014FF001088DF8001002D0A6F236
:1032E000FF3603E059EA470100D06B4E002D02DCA7
:1032F0002178090704D54FF002082E218DF801101E
:10330000C44600210BE0C7F303433F01C35C491CE3
:103310006D1E02F80830052908F1010801DA002DB8
:10332000F1DC00210CE000EB1973491C1B786D1EC9
:10333000082902F808304FEA091908F1010801DAF2
:10334000002DF0DC21688B0602D516E0A8F10108FB
:10335000E04505DD02EB080313F8013C302BF5D006
:10336000B8F1000F09DD02EB080313F8013C2E2B26
:1033700003D1090701D4A8F10108002D05DD3E2184
:1033800002F808106D1E08F10108407C002E02F8BA
:10339000080008F1010804DA2D20764202F808003E
:1033A00002E02B2002F808000A214FF47A708642CE
:1033B00008F101080BDB96FBF0F3303302F808301C
:1033C00096FBF0F308F1010800FB136601E0642EA0
:1033D0000CDB642096FBF0F3303302F8083096FBE8
:1033E000F0F308F1010800FB136601E00A2E06DB8A
:1033F00096FBF1F0303002F8080008F1010896FB66
:10340000F1F001FB1060303002F80800A16908F10A
:10341000010808EB050202EB0A00081AA0612078F7
:10342000C00602D42046FEF7EFFF216A08AE01EB8A
:103430000A00206204E0D4E9012116F8010B90474C
:10344000BAF1010AF7D22078C00602D52046FEF76D
:10345000DBFF6E4609E016F8010B3E280FD0D4E9D9
:1034600001219047206A401C2062B8F10108F2D285
:103470002046FEF7DFFF09B00320BDE8F08F206A89
:103480002844206203E0D4E90121302090476D1EDA
:10349000EBD3F8E77916010002FCFFFF10B5436992
:1034A00013B1AFF3008001E0FFF752FB012010BD24
:1034B000128800F1240182840022C2840122EDE7F7
:1034C00011684FF0FF32E9E7007B00F080007047A1
:1034D00070B516460C46054600F01AF8036893F8D6
:1034E0000101012806D0FF2C0FD8185D68B101201A
:1034F0002C7070BDD3F807013246214603F2071342
:1035000003442846BDE8704018474FF0FF3070BDB7
:1035100010B500F005F8001D10BD00BF2502010028
:1035200000487047048281002DE9F0411F4604469F
:1035300003260168072A01F4006004DB08B116A520
:1035400005E016A503E008B115A500E015A521F0DA
:1035500010002060A069C01EA0610FB1401EA061D4
:103560002046FEF751FF4FB1D4E90121384690477C
:10357000206A401C2062C01C206206E0206AFAE734
:10358000D4E9012115F8010B9047761EF8D22046A8
:10359000FEF750FFBDE8F0814E414E006E616E00B7
:1035A000494E4600696E66002DE9F0478146164691
:1035B0008AB0354878440DC88DE80D00324878440B
:1035C000801C03AC0DC884E80D0041F69B30084414
:1035D000372190FBF1F290FBF1F5A5F1800501FB9D
:1035E00012041B3C02D56442012000E00020DFF8F9
:1035F00098A080460027FA44AAF1BE0A0EE0E00730
:103600000AD03246684607EB470101230AEB8101E5
:1036100000F017FB8DE8070064107F1C002CEED132
:10362000194F7F44AE3F19E0E80715D007EB0410AF
:103630000DF1180A90E80E008AE80E00C068F0420A
:1036400001D1981908903246012306A903A800F079
:10365000F8FA03AB83E807006D10641C002DE3D17A
:103660004FF0010332466946B8F1000F03A802D0BB
:1036700000F0D2FA01E000F0E4FAC9E90001C9F86B
:1036800008200AB0BDE8F087FC13010010B504461D
:10369000AFF300802046BDE81040FEF7A3BD000058
:1036A0004FF0013C50F8042B51F8043B9A4221D1D1
:1036B000A2EB0C03934313EACC1317D150F8042B5D
:1036C00051F8043B9A4215D1A2EB0C03934313EA41
:1036D000CC130BD150F8042B51F8043B9A4209D17A
:1036E000A2EB0C03934313EACC13DBD04FF00000A2
:1036F000704700BFD01A01BAB1FA81F101F0180188
:1037000022FA01F0CB40C1F12001DBB2C0B2C01AF5
:103710002CFA01F3D11A914311EAC311E6D1704793
:103720005FEA400C08BF91F0000F4FEA8C234FEA8C
:10373000C12243EA51514FEA1C5018BF00F5F04036
:103740004FEA300018BF41F000415FEA6C5C00F0C6
:103750002980BCF1FF3F08BF40F080407047130C48
:1037600006BF12044FF0100C4FF0000C130E04BFF4
:1037700012020CF1080C130F04BF12010CF1040C1F
:10378000930F04BF92000CF1020CD30F04BF520040
:103790000CF1010C11464FF00002A0F11F00A0EB4C
:1037A0000C00704711F0004F08BF704731F0004126
:1037B0003FF4D5AF0B0C06BF09044FF0100C4FF0CF
:1037C000000C0B0E04BF09020CF1080C0B0F04BF18
:1037D00009010CF1040C8B0F04BF89000CF1020CE1
:1037E000CB0F04BF49000CF1010CCCF12003A0EB7E
:1037F0000C0022FA03F302FA0CF241EA030100F191
:103800000100704720F07F4C80EA030023F07F47DF
:10381000ACEB070303F57C5300F0004003F1FF031A
:103820002DE980494FEA154B09B44FEA144325EAC4
:103830000B4E24EA03480FF2042606EB132749082F
:103840003E785FEA320203FB0667C7F5000707FB15
:1038500006F64FEA54374FEAD64606F1020607FB52
:10386000066CCCF1005C4FEA1C472CEA074C07FBC6
:1038700006F40CFB06F504EB15464FEA961634BF2A
:1038800000204FF000404FEAD13706FB07FC4FEA1B
:103890001C4C0CFB0BF7D21B03FB0CF761EB070175
:1038A0000CFB0EF7B0EB074072EB17420CFB08F76E
:1038B00034BFA2EB0742B2EB074261EB17414FEA7C
:1038C0000C444FEA910706FB07FC4FEA1C4C0CFB2B
:1038D0000BF7B0EBC74072EB573203FB0CF734BF6A
:1038E000A2EBC742B2EBC74261EB57310CFB0EF7BC
:1038F000B0EBC70072EB57720CFB08F734BFA2EBBA
:10390000C702B2EBC70261EB5771039F4FEA8161B7
:1039100041EA921104EBCC044FEAD1374FEA8262BC
:1039200006FB07FC42EA90124FEA80604FEA1C4C0B
:103930000CFB0BF7D21B03FB0CF761EB07010CFB35
:103940000EF7B0EB074072EB17420CFB08F734BFE1
:10395000A2EB0742B2EB074261EB17414FEA8C55ED
:103960004FEA910704EB9C2406FB07FC4FEA1C4C32
:103970000CFB0BF7B0EBC74072EB573203FB0CF7B5
:1039800034BFA2EBC742B2EBC74261EB57310CFB2D
:103990000EF7B0EBC70072EB57720CFB08F734BFA1
:1039A000A2EBC702B2EBC70261EB577115EB4C25D6
:1039B0004FEA816141EA92114FEA82624FEAD137C0
:1039C00042EA901206FB07FC44F100044FEA8060D3
:1039D0004FEA1C4C0CFB0BF7D21B03FB0CF761EB03
:1039E00007010CFB0EF7B0EB074072EB17420CFB24
:1039F00008F734BFA2EB0742B2EB074261EB174175
:103A000015EB1C154FEA813141EA92414FEA8232AF
:103A100042EA90424FEA80304FEA0C7644F10004CB
:103A200048EA03434EEA0B484FF0000EB2EB080C95
:103A300071EB030724BF624639464EEB0E0E4FF082
:103A4000000B0018524149414BEB0B0BB2EB080C39
:103A500071EB03077BF1000B24BF624639464EEB46
:103A60000E0E4FF0000B0018524149414BEB0B0B6F
:103A7000B2EB080C71EB03077BF1000B24BF62462D
:103A800039464EEB0E0E51EA020718BF46F001060A
:103A900016EB0E7655F1000254F1000103D5BDE896
:103AA0008901BDE80088BDE88901BDE80048B61974
:103AB000524141EB0101A3F10103704780807F7EF9
:103AC0007D7C7B7A79787776767574737271717094
:103AD0006F6E6E6D6C6C6B6A6A6968686766666546
:103AE0006464636362616160605F5F5E5E5D5D5CD4
:103AF0005C5B5B5A5A595958585757565655555545
:103B00005454535352525251515050504F4F4F4EA4
:103B10004E4D4D4D4C4C4C4B4B4B4A4A4A494949F2
:103B20004848484747474746464645454544444434
:103B3000444343434342424242414141002B9C465D
:103B400030D477002BD01CB54FEA370703B44FF0C1
:103B500010004FF01001BAF1000F06D0BCF1000FB9
:103B6000DCBF40F0080040F008014FF000000FBC3F
:103B7000BDE810400BF1010BBBF1010F08BF5FEA7C
:103B8000170722BF12F1010211F101014FF00041AC
:103B900043F1000300F0004043EA00007047F9D30E
:103BA0005708D0E746EA064613F1400F4FEA16469B
:103BB0001FDD13F1200FDFBF16430A46002120331B
:103BC0005B42BED0C3F1200746EA064602FA07F779
:103BD0004FEA164646EA0706C3F1200722FA03F227
:103BE00001FA07F721FA03F14FF0000342EA070256
:103BF000A7E746EA020646EA06464FEA164646EABE
:103C00000106BCBF46EA0646360C4FF000034FF0F3
:103C100000024FF0000194E72DE9804C9A4693464C
:103C200070B491E8380007C831EA400C48BF34EA64
:103C3000430C03D5FFF7E6FDFFF780FFF0BCBDE8BE
:103C4000008C2DE9804C9A46934670B491E8380078
:103C500007C810F0804F08BF13F0804F03D100F069
:103C600005F8FFF76BFFF0BCBDE8008C20F07F4744
:103C700080EA030023F07F4C07EB0C03A3F57C5391
:103C800000F00040A3F1FE0392F0000F00F0B380BB
:103C900095F0000F00F077802DE901494FEA1140BF
:103CA0004FEA144621EA004800FB06FC24EA0647D6
:103CB00008FB06F607FB08F800FB07F718EB0648B9
:103CC0004CEB164C4FEA124B18EB07484FEA1546DF
:103CD0004CEB174022EA0B4E0BFB06FC25EA06478D
:103CE0000EFB06F607FB0EFE0BFB07F71EEB064E60
:103CF0004CEB164C4FF000061EEB074E4CEB174BEF
:103D000018EB0B0840F1000018EB0E0B58EB000805
:103D100040F100008F1A4FF000013CBFC943661B01
:103D200014BFB5EB040C00213CBFC943F61B4FEA9E
:103D300017444EEA8E0E27EA04454FEA1C4704FB5F
:103D400007622CEA074C05FB07F70CFB05F604FBA2
:103D50000CFC16EB074642EB174216EB0C4642EB07
:103D60001C421BEB060658EB0202414146EA9E0646
:103D700001D5BDE80189B619524141EB0101A3F11A
:103D80000103BDE801894FEA14454FEA114724EACF
:103D9000054621EA074C05FB07F406FB07F70CFB79
:103DA00006F105FB0CFC11EB074144EB17444FEA0D
:103DB000124711EB0C4144EB1C4422EA074C05FB73
:103DC00007F206FB07F70CFB06F605FB0CFC16EBEF
:103DD000074642EB174216EB0C4642EB1C456A18AD
:103DE00054F1000148BF7047B619524141EB01013F
:103DF000A3F10103704795F0000F37D04FEA11424D
:103E00004FEA144721EA024624EA074C02FB07F175
:103E100006FB07F70CFB06F402FB0CFC14EB074453
:103E200041EB17414FEA154714EB0C4441EB1C41A1
:103E300025EA074C02FB07F506FB07F70CFB06F625
:103E400002FB0CFC16EB074645EB174516EB0C4640
:103E500045EB1C42121951F1000148BF7047B619D9
:103E6000524141EB0101A3F1010370474FEA1445B0
:103E70004FEA114724EA054621EA074C05FB07F102
:103E800006FB07F70CFB06F24FF0000605FB0CFCE7
:103E900012EB074241EB174112EB0C4251EB1C4174
:103EA00048BF7047921841EB0101A3F1010370472D
:103EB00010B51E480068002800D080471C4900202B
:103EC0000870811E1B4801601B494FF0007008609C
:103ED0001A4CD4F8C002800704D4F42218A11DA003
:103EE00004F474F32A480168D4F8C40261F31D3065
:103EF00040F00100C4F8C40201F4D4F600214FF0F0
:103F00003040C1608161C1174161016201F486F6F0
:103F100008484038016821F4800101601D480068AC
:103F2000002802D0BDE81040004710BD602480008A
:103F30007C4A800044C500A080E200E000E000A0D0
:103F4000727769705F736C6565705F636F6D6D6FBD
:103F50006E2E63004D43555F5355422D3E424C45F6
:103F60005F44534C4545505F434F52525F454E208E
:103F700026204D43555F5355425F424C455F4453A5
:103F80004C4545505F434F52525F48575F454E0086
:103F9000542480006424800000214FF03040C16030
:103FA0008161C117416101620649022004220A6051
:103FB000BFF34F8FBFF36F8F0860BFF34F8FBFF317
:103FC0006F8F704780E100E004490220C1F80001D2
:103FD0000860BFF34F8FBFF36F8F704780E100E041
:103FE000FEE7FEE710B5302080F31188BFF34F8F56
:103FF000BFF36F8F07480078012806D10FF0F8F95A
:1040000018B105494FF080500860002080F31188F6
:1040100010BD00000C46800004ED00E00249096874
:1040200001F007010170704704C500A030B40628F4
:1040300021D212490A6802F00702824212D00A68AD
:104040000F4B1A400F4C22430A6000BF00BF00BF55
:1040500000BF0A681A400C4B024333F8203042EA92
:1040600083420A600849183951F82000074908605E
:1040700030BC74F4BF9730BC7047000004C500A08A
:10408000F8FFE3FF05000800B44201010041800091
:1040900004480068044900F0070051F82000034973
:1040A0000860704704C500A09C42010100418000E7
:1040B0000248016841F470010160704788ED00E03A
:1040C00002480068001D1DF4C7920000CC43800028
:1040D00002484068001D1DF4BF920000CC438000E0
:1040E000FEE703B401984100009850EAC12018BFD0
:1040F00004204A0D18BF40F0010040F2FF72B2EBFD
:10410000515F08BF40F00200012808BF052002B03F
:104110007047002804DB00F1E02090F800047047AD
:1041200000F00F0000F1E02090F8140D704700003F
:1041300010B52DED020B2DED088B84B09DED0C0B11
:1041400051EC100B0FF050FF41EC180B9DED0C0BD8
:1041500053EC182B51EC100B0FF0ACFF41EC190B8A
:104160000D989FED290B10F0004F53EC102B51ECE4
:10417000190B9FED21AB9FED22BB0ED00FF0C4FDBC
:104180000ED953EC1B2B51EC190B0FF0F7FE1CD280
:1041900014E000BF41EC180B17E00FF0B5FD06D29C
:1041A00053EC1A2B51EC180B0FF084FFF2E753EC91
:1041B0001B2B51EC190B0FF0E1FE06D853EC1A2B18
:1041C00051EC180B0FF0DEFAE4E78DED028B9DED5C
:1041D0000C0B18EE901A10EE900A8DED000B61F3A7
:1041E0001E0003909DED020B04B0BDEC088B02B0E5
:1041F00010BD000000000000000000000000F03FC3
:10420000000000000000E03F000000000000E0BFF0
:1042100030380A2801D201207047002070477047CB
:104220002DE9F05F0746894693464FEA5B04A246B4
:104230004D465F4EDFF87C81EFF31080012181F362
:104240001088D8F8A41221F02001C8F8A41280F335
:104250001088EFF31080012181F31088D8F8A012A4
:1042600021F02001C8F8A01280F31088306820F0F7
:1042700080403060504830603F20D8F8001160F333
:104280000501C8F80011306820F4601040EAC7400A
:104290003060306820F4E02040EA07403060052FAD
:1042A00003D1306840F400403060062F03D13068FD
:1042B00040F480403060306840F400503060306836
:1042C00020F060503060306820F00F0040F00300B4
:1042D0003060EFF31080012181F31088344A3832C6
:1042E000116821F0E04141F08041116080F31088B5
:1042F000306840F08040306001E0D8F80000D8F825
:104300000401C0F300200028F7D1EFF31080012151
:1043100081F31088116841F00041116080F310882A
:1043200034E000204FF47A711AE0884217D93068DF
:1043300020F080403060306840F0004030603068ED
:1043400020F00040306008F047FB1C480168491C21
:10435000016054464D46052077F451D46CE7401C6B
:10436000D8F80421C2F30022002ADED0D8F80401D4
:1043700000F07F01A14200D92146002003E0D8F8D7
:10438000002004C5401C8842F9D3641A002CC8D10F
:104390005FEACB7008D0D8F80401C0F300200028F1
:1043A000F9D0D8F800002880BDE8F05F08F014BB11
:1043B00008C500A000E000A00A070807684B8000BD
:1043C0002DE9F04107460E464FF000080024274D26
:1043D0000BE004EBC40005EB8000801C072239468B
:1043E000FEF7CAF940B1641CE4B22878A042F0D8C4
:1043F000B8F1000F18D102E04FF00108F8E7287873
:104400000A21B0FBF1F201FB12040A2801D2401C80
:10441000287004EBC40105EB81003968C0F8021074
:10442000B988C180B97901722B7811A210210020BE
:1044300004F4CEF0307800070BD504EBC40005EB94
:10444000800006F14601BDE8F0410A301C22FEF76B
:10445000DEB904EBC40005EB800006F12A01BDE8DB
:10446000F0410A301C22FEF7D2B90000787C8100AE
:10447000523A313A616464206C746B206974656DE2
:104480002C206E756D203D2025640A000449896B3F
:10449000084004490A78104300220A70704700005F
:1044A000002001A00C478000104A114900280EDCB2
:1044B0000868C0F34120012808D0506C401C5064AB
:1044C000086820F4C06040F40070086070470A2853
:1044D000FCDB086810F4C06FF8D0106C401C10644E
:1044E000086820F4C060086070470000AC48800095
:1044F0000CC500A006460F46154672B63846FEF7B4
:1045000067F9402801D9402002E03846FEF760F9FB
:1045100080463046FEF75CF9402801D9402002E091
:104520003046FEF755F904469C211048FEF708FA7C
:10453000424639460D48FEF76AF90C482246314694
:104540005C30FEF764F909484FF0AA310164456414
:104550004FF0BB3181644FF0CC3101654FF0DD315C
:104560008165002000F004F8FEE70000A0918000C3
:1045700030B5ADF20C4D04464FF4806103A8FEF750
:10458000DFF9184D202085F83F0085F89B003CB1ED
:104590002846012C436DC26C09D0022C0CD00FE0D0
:1045A000104A11A15C3203A8FDF7FCFE08E011A13E
:1045B00003A8FDF7F7FE03E016A103A8FDF7F2FE3E
:1045C00003A90BA2686CCDE90121009018A3054A4C
:1045D00018A1002000F0F2FD00F0BCFD0DF20C4D22
:1045E00030BD0000A09180005B4552524F525D20CB
:1045F000257300005B5741524E494E475D20506184
:1046000072616D303A25642C506172616D313A25CA
:10461000640000005B504152414D5D205061726169
:104620006D303A25642C506172616D313A25640019
:10463000000000006170705F6173736572742E63B7
:1046400000000000014877F41791000060458000E9
:1046500006460F4690461D4672B64046FEF7B8F82D
:10466000402801D9402002E04046FEF7B1F8044658
:104670009C210D48FEF764F9224641460A48FEF7A0
:10468000C6F809484FF05531016445644FF0663172
:104690008164C6644FF0773101654765C943816520
:1046A0000220FFF765FFFEE7A09180002DE9F041B1
:1046B00006460F4690461D464046FEF789F84028BC
:1046C00001D9402002E04046FEF782F804469C21D2
:1046D0000D48FEF735F9224641460B48FEF797F89C
:1046E00009484FF011310164456449008164C66492
:1046F0004FF03331016547654FF044318165BDE8C6
:10470000F0410120FFF734BFA091800010B50948A7
:10471000152141710C2101710121C17081700021AD
:1047200041700170002000F06BFEBDE810400148B0
:1047300000F084BE1C7A810010B588B0817AC27AFC
:10474000037B447BCDE90443CDE90621817BC07B1B
:1047500006A29E23CDE90032CDE90201114B12A23F
:1047600017A1022000F02AFD08B010BD436F6E6E45
:104770006563746564207769746820746865207067
:1047800065657220253032583A253032583A253046
:1047900032583A253032583A253032583A2530329C
:1047A000582E00001C4501012E2E5C5372635C756F
:1047B0007365725C757365725F6170702E63000063
:1047C0004E4F5F544147000010B586B004460FA21B
:1047D0009623CDE900320291124B13A218A10220B8
:1047E00000F0ECFC1849204602F078F90446002C51
:1047F0000AD014220B491C3101A8FEF74DF8ADF880
:10480000084001A800F022F806B010BD44697363A7
:104810006F6E6E6563746564202830782530325879
:10482000292E0000EC4401012E2E5C5372635C754E
:104830007365725C757365725F6170702E630000E2
:104840004E4F5F5441470000D44680003EB50446B9
:104850004FF400711A48FEF751F8207810B1012882
:1048600019D01DE000211748A28830F831309A4253
:1048700007D100EBC10014A143681148FDF792FD78
:104880000EE02E2902D0491CC9B2EEE714A10C4853
:10489000FDF788FD04E01DA109486268FDF782FD6F
:1048A000074921A22069CDE901210090D4E9022322
:1048B0001EA1002000F082FCBDE83E4000F04ABC92
:1048C000A08F8000F04380004572726F7220636F8A
:1048D0006465203078253034583A20257300000074
:1048E0004572726F7220636F6465203078253034B2
:1048F000583A204E6F20666F756E6420696E666F41
:10490000726D6174696F6E2E000000002825732996
:10491000206973206E6F742065737461626C6973B3
:104920006865642E00000000257300006170705FF0
:104930006572726F722E63002DE9F0410146002905
:104940001BD000240F4E0E4A357814E002EB041001
:104950000F780378BB420CD14B684068034208D003
:10496000707808B900F0CAFB2046BDE8F04100F0BD
:10497000EBBA641CE4B2AC42E8D3BDE8F0810000BD
:10498000489280006C4580007CB505460E46002D9F
:1049900001D0002418E005207CBD05EB041041681F
:1049A0000091017A8DF80410417A8DF805100721E5
:1049B0008DF80610C26800780023694600F048F8B8
:1049C0000028E9D1641CE4B2B442E6D300207CBDE7
:1049D00010B50C46062833D2DFE800F003030310BD
:1049E0001E27184951F830002104090C04D018B1D1
:1049F000214606F0DFFD1FE0042010BD2004000C5E
:104A000003D0A1B2104806F0D5FD200C14D0210C23
:104A10000E4806F0CFFD0FE014F0FF0F03D0204644
:104A200005F07EFF08E0042010BD14F0FF0F05D054
:104A30002146002006F030FE002010BD042010BDED
:104A4000062010BDE0420101000001A0001001A0FD
:104A50002DE9F05F05460C469046994627680026EA
:104A6000052D13D039462846FFF7B2FF21462846C8
:104A700000F0ACF800280AD1042D0AD0032D2ED066
:104A80004FF0100B2807060E002491E00620BDE829
:104A9000F09F4FF0080B2079042806D0052809D094
:104AA00006280DD0072815D110E00021384600F463
:104AB000EAF70FE040F20111384600F4E4F709E0AC
:104AC0004FF00111384600F4DEF703E03B49384669
:104AD00000F4D9F74FF0007074F40AD3D4E74FF024
:104AE000200BD1E7F80760D0052D65D2DFE805F08F
:104AF000030303254600324800EBC50090F904A0EB
:104B0000BAF1000F17D0EFF31081012080F3108865
:104B1000A01900EB40022B4800EB8200C0F8048093
:104B2000C0F8089081F31088504617F475D35046AA
:104B300017F490D339E00420A9E7EFF310820120A5
:104B400080F31088A0191F4B00EB400003EB80019D
:104B5000C1F80480C1F80890032103F8201082F303
:104B60001088062017F458D3062017F473D30720B3
:104B700017F452D3072017F46DD316E0EFF310812A
:104B8000012080F31088A01900EB40020E4800EBD2
:104B90008200C0F80480C0F8089081F310881220C9
:104BA00017F43AD3122017F455D37F08641CE4B2EB
:104BB0005C4597D300206AE7062068E70101010001
:104BC000E0420101208C8000A08D800070B58EB085
:104BD00005460C46564901F164004DC8CDE90A026C
:104BE000CDE90C36D1E91E23486F06AED1F880100E
:104BF0000DC6099114224E49843101A8FDF74CFEDF
:104C0000ACB14C4906200DF03DF84B4907200DF0A2
:104C100039F84A4912200DF035F84549444A2C31FB
:104C2000062D7CD2DFE805F0060606214159052055
:104C30000EB070BD207931F810000B90607932F819
:104C400010000C90A0790D9020680A90384814301C
:104C500050F8350021880904090C04D018B10AA9BC
:104C600006F0F6FC59E00420E2E7207931F8100064
:104C70000B90607932F810000C90A0790D902068AC
:104C80000A9020680104090C05D080B20A900AA994
:104C90002B4806F0DDFC2068010C3ED0000C0A9089
:104CA0000AA9284806F0D4FC37E0207901EB40003F
:104CB000408A0790607902EB4000C0880890A07994
:104CC000099020680690207810F0FF0F03D006A806
:104CD00005F068FE21E00420AAE72079031F032BDA
:104CE00001D80720A4E702281AD0012002902079D9
:104CF00001EB4000808C0390607902EB40008089DA
:104D00000490A079059020680190207810F0FF0FA2
:104D100009D001A9002006F007FD002088E704E083
:104D200002200290E3E7042082E7062080E70000EB
:104D3000CC420101634D80005D4D8000594D8000E3
:104D4000000001A0001001A010B502460C46002092
:104D5000062A26D2DFE802F00303030B1A1F1148CC
:104D600050F83200A1B2BDE8104014F4B09621040E
:104D7000090C03D0A1B20C4814F4A9D6210C10D010
:104D8000210CBDE81040094814F4A196A0B2BDE87A
:104D9000104012F46F96A1B2BDE81040002006F05A
:104DA000C6BC10BDE0420101000001A0001001A03E
:104DB000002803D002490860012070470020704796
:104DC0007845800070B505460024091F062917D2D2
:104DD000DFE801F003070C111315284600F0A4F8D2
:104DE0000EE00124284600F09FF809E0022428463E
:104DF00000F09AF804E0032402E0042400E0052413
:104E0000034A214628461268BDE87040104700005A
:104E1000784580002DE9F0410446204600F0AEF8C8
:104E200001462E4800230826025D00F10A0700F122
:104E30001405AAB1052A33D0082A2AD1092945D058
:104E4000082926D1295D491CC9B22955142920D326
:104E50002B5506552046BDE8F0410821FFF7B2BFAB
:104E6000052913D0042916D0072914D0082910D1F8
:104E7000295D491CC9B2295514290AD32B55065559
:104E80002046BDE8F0410821FFF79CBF3B550521B6
:104E90000155BDE8F0812046BDE8F041FFF792BF23
:104EA00005290CD0395D491CC9B239553229F0D3D6
:104EB00003552046BDE8F0410521FFF783BF0355A8
:104EC0002046BDE8F0410621FFF77CBF0355204690
:104ED000BDE8F0410921FFF775BF0000FC9280009A
:104EE00070B504460D4600F00FF808B100F018F94F
:104EF0000348044A2946005D9268BDE870401047A7
:104F00003C9280006C4580000020064911F810207A
:104F10000AB100207047401CC0B20A28F6D3012015
:104F2000704700001A9380000349002201F8102006
:104F300001EB4000427070471A938000014A02F86A
:104F4000101070471A938000024A012102EB4000C2
:104F5000417070471A93800070B50024064D05EB30
:104F60004400407810B12046FFF754FF641CE4B2BF
:104F70000A2CF4D370BD00001A93800070B5002194
:104F80001D4B03F132051A5C002A09D0002403F1FD
:104F90000A06012A0AD0022A12D0032A24D11FE0CD
:104FA00015F8102002B301221A541DE015F8102044
:104FB0001AB1345402221A5416E01C54042113E08E
:104FC00015F810204AB1325C521CD2B23254642A15
:104FD0000AD3072103221A5406E005211C5403E0DA
:104FE00015F8101011B10821084670BD1C54FFF7C8
:104FF0009BFF0921F8E70000E8928000704700005D
:10500000F8B50E4617460A2E02D80FB100231FE04E
:105010000020F8BD03EB430410F82410032901D04D
:10502000042913D100EB8405154AA97AD1541449F7
:1050300010F824200C3101EB0314227069686160C0
:10504000297A2172697A61720E49E1605B1CDBB2D8
:10505000B342DFD30A4831460C30FFF795FC0A4CC7
:105060002670A7600948FFF7A3FE094800230090B7
:1050700001220A2118460EF0DFFA60600120F8BD17
:105080003C928000394900016C458000E14E0001EE
:10509000ED5000012DE9F0410024124FDFF8488067
:1050A00019E0002607EB041528786968FFF74CFE25
:1050B00010B9697A012902D0012802D005E0012641
:1050C00003E0687A022800D1012631462046FFF726
:1050D00035FF641CE4B298F800008442E1D3BDE8D7
:1050E000F0810000489280006C45800010B5FFF709
:1050F000D1FFBDE81040FFF72FBF000038B50EF01C
:1051000071F902460020054C0346009006216068B4
:105110000EF0C8FA0120607038BD00006C458000B8
:1051200038B50024044D00942346224608216868BF
:105130000EF0B8FA6C7038BD6C458000002806D0BF
:10514000002904D0024AD269002A00D010477047D3
:105150007C8F80000248006A002800D0004770471A
:105160007C8F800070B50D4616460D4C00280AD085
:105170000178032911D80121A17601461A2220467F
:10518000FDF745FB05E00020A0761A210448FDF755
:10519000D7FBE5612662002070BD012070BD0000D4
:1051A0007C8F8000044A1044807D084201D0012099
:1051B00070470020704700007C8F80002DE9FE4F73
:1051C000DDF830B006469246994600240027019744
:1051D00002975A480178B14202D2807E00287DD1E0
:1051E0000DF13808CDF80080EFF311850220FEF7AD
:1051F00090FF014652480068C0F30220401C012283
:1052000082408818C0B280F3118801213046FFF730
:10521000C9FF38B14B484C4950F82620204600F0D1
:10522000A5F804461C213046FFF7BCFF00285ED0DD
:1052300046A24549204600F099F8204484B2042152
:105240003046FFF7AFFFF8B152463F49204600F025
:105250008DF8204484B208213046FFF7A3FF38B10F
:105260003BA23949204600F081F8204484B20BE08B
:1052700010213046FFF796FF30B136A23249204662
:1052800000F074F8204484B208213046FFF78AFF0A
:1052900090B14A462C49204600F068F8204484B278
:1052A00010213046FFF77EFF30B12BA22649204661
:1052B00000F05CF8204484B210213046FFF772FF02
:1052C00070B15B4626A2052101A8FDF781F801AA6D
:1052D0001D49204600F04AF8204400E02BE084B24B
:1052E00020A21949204600F041F8204484B2164813
:1052F000C4F58071204443460D9AFDF72DF80097C0
:105300004FF48071002804DB2044884201DC86B21F
:1053100000E00E46B01C884200D9FE2612A20A49BF
:10532000304600F023F8304481B20748FFF706FF0B
:10533000E8B280F31188BDE8FE8F00007C8F80000A
:105340000CED00E0DC4380007C8E80002800000033
:10535000200000003A000000204C696E653A000011
:10536000256C6400292000000D0A000030B50546B8
:10537000002000290CD0002A0AD006E02B18FF2BB1
:1053800006D8CC54521C401C80B21478002CF5D1A5
:1053900030BD000010B5094A06214CF2010009F0A9
:1053A000E3FC02F0A5F800224FF08371104602F0F2
:1053B000F9FDBDE81040022073F454945E440101ED
:1053C00008B5009103480168002901D06846884764
:1053D00008BD0000548E800010B5084A92F82410D1
:1053E000002907D040B10146101D05F069FB0028D7
:1053F000FFD110BD092010BD052010BD548E8000C6
:1054000010B50C4C20600C4921200CF03BFC201DF9
:1054100005F020FB00280BD1201D05F0D9FB00284A
:1054200006D1012084F82400C00673F461D6002060
:1054300010BD0000548E80000D4E800010B5084A4B
:1054400092F82410002907D040B10146101D05F044
:1054500041FC0028FFD110BD092010BD052010BD62
:10546000548E800070B504461A4D55F824007030F3
:105470000BF002FD82B21646A2B155F8240090F856
:10548000011101290ED0012180F80411802A0FD3C7
:1054900055F82400802200F1800170300BF001FDEE
:1054A00080260CE055F82410002081F8000170BD22
:1054B00055F8240000F1800170300BF0F2FC55F833
:1054C0002400324600F18001001D1CF4B3D20028F4
:1054D000EDD170BDCC438000704700002DE9F8434A
:1054E00004464B4E56F82400071D022C7ED290F83D
:1054F0006C1000297AD0012978D180F8011100259B
:1055000056F82400D0E903120A44017D01F001019C
:10551000C91D02EB01084168CA6FC2F38002002A6C
:10552000FAD090F80411E1B1DFF8E8906D1C56F85C
:105530002400001D06F0CCFA10280BD056F82400E9
:10554000D9F800108068B1FBF0F000FB08F0B5EB73
:10555000C01FEBD956F8240070300BF08DFC85B2DB
:1055600026E0B0F82480C58C001D1BF4DBD656F86D
:10557000240041F2883300EB0801491B8031001DF3
:105580002A461CF41CD2E5E756F8240001227030AC
:1055900069460BF086FC56F824004068C16FC1F3E1
:1055A00040010029FAD09DF8001001606D1EADB2D7
:1055B000002DE9D156F8240070300BF05DFC002876
:1055C000C8D1386841694906FCD5EFF31085012040
:1055D00080F3108856F8240070300BF04DFC68B151
:1055E000EFF31081012080F3108800E00DE03868AF
:1055F000426842F08202426081F3108856F824101B
:10560000002081F8010185F31088BDE8F8830000CF
:10561000CC438000004180002DE9F04389B005466D
:1056200088462C78002D06D02AB1022C05D30820FC
:1056300009B0BDE8F0830520FAE7384E05F15800BF
:1056400046F82400D2E900310A46703019460BF0C2
:10565000FEFB291D894624220C316846FDF71CF902
:10566000291D286D0EC90DF025F80028E0D12C4920
:105670000C200CF007FB2B490D200CF003FB2A48F3
:1056800000EBC40797F9010016F4C6D597F901009D
:1056900016F4E0D556F82400C0F8649056F82400BB
:1056A000C0F8008056F824001822083005F14001A7
:1056B000FDF7F2F856F824107868486056F8240090
:1056C000001D06F0D9F956F82400001D06F00AFA6C
:1056D000351F0127287850B92F7013480321103047
:1056E0000AF07AFF6880002801DA0420A0E756F863
:1056F000240080F86C7056F82410002081F8000116
:1057000056F8241081F8010156F8241081F802019E
:1057100056F8241081F803018AE70000CC4380008A
:10572000C1400001D14000016C4301012DE9F0416D
:1057300004461A4D55F8240070300BF09DFB82B2E0
:10574000164600277AB155F8240090F80111012976
:1057500009D0802A0ED300F18001703080220BF036
:10576000A0FB80260BE055F8240080F80071002093
:10577000BDE8F08100F1800170300BF092FB55F82C
:10578000240080F8047155F82400324600F18001AD
:10579000001D1CF495D10028EAD1E9E7CC43800034
:1057A00070B5022801D3082070BD0C4D55F820407B
:1057B0007CB194F86C6066B169B162B1002684F87E
:1057C000026155F82000001D1CF4F9D00028EBD12F
:1057D00070BD052070BD042070BD0000CC4380006A
:1057E0002DE9F04106460C46174604F1080520460F
:1057F0006FF4E2D7C3B21B48E1184268914202DD60
:105800000320BDE8F0811849184A00680968126849
:10581000891A081A001FE91881421CD94FF4004563
:1058200013A22946002002F4D3F602F02BF830B17F
:1058300018A22946002002F4CBF60820E1E71DA2B9
:105840002946002002F4C4F63A4621463046BDE817
:10585000F0410DF0FBBA3A4621463046BDE8F04132
:105860000DF0F4BAD8328000D0238000CC23800021
:10587000523A353A4E56445320617265612069733D
:10588000206265696E6720636F6D70616374656423
:105890002E0D0A00523A353A436F6D706163746998
:1058A0006E67204E564453206661696C65640D0A2C
:1058B00000000000523A353A436F6D7061637469BD
:1058C0006E67204E56445320737563636573736629
:1058D000756C0D0A000000007CB50D460022009298
:1058E0000192694602F476F6044634BB4FF4205127
:1058F000684602F471F6B8B942F60101684602F44E
:105900006BF688B942F60301684602F465F658B9A9
:1059100042F60201684602F45FF628B94FF42451BA
:10592000684602F459F608B1062406E00098C5F36B
:105930000B01808808430099888020467CBD0000C8
:105940002DE9F04782460E46174698464FF001096A
:105950000025D8F80040002C18D11E48046815E036
:105960003188A08881420BD3E088814204D8214647
:10597000504600F031F808B1246807E0012505E041
:105980002146504600F028F810B1246825B105E002
:105990000125A0883080F9E7002CE1D1B5B14FF0A6
:1059A0000009A0883188884204D1201D3860012078
:1059B000387109E0081A401E00EB400004EB40007B
:1059C0000E30386000203871C8F800404846BDE805
:1059D000F0870000F80E800070B586B0002200EB62
:1059E0004003114C03EBC00304EB43052C7D17E08F
:1059F00035F8123093B18E889E420FD8CE889E42E1
:105A00000CD3CA8889888DE81F00084B084A4021BA
:105A1000002002F4DDF5012006B070BD521CD2B2A8
:105A20009442E5D80020F7E7FC7D8100024801019F
:105A3000FC5101012DE9F04F8BB007460C460025C3
:105A400000200890099060880790261FE188A288AE
:105A5000CDE901210090614B61A24021002002F4B8
:105A6000B7F5308850B9384602F4B8F5401E30809A
:105A70006088A188884200D800B90125DFF890919C
:105A8000002D60D104F10A000DF1200A0DF1140B74
:105A900004F106080A90A088069004A8CDE9020B3C
:105AA000CDE9008A022306AA07A9384600F0ACF91E
:105AB0000546280008D00A2D45D0062D43D0BDF854
:105AC0001800401C079032E0E088B0F5205F03D05A
:105AD00042F60101884208D1BDF81000217AC3B214
:105AE000059A0A9802F47CF548B92289BDF810009D
:105AF000824218D105990A98FCF73EFE98B9022116
:105B000008202AF4E1D10146BDF81C008880BDF8C8
:105B10001800C880083E59F82700603002F462F58A
:105B2000384602F461F5BDF81800401C0790A088C3
:105B3000BDF81C10884206D3BDF81810884202D068
:105B400030880428A7D2062D36D059F827006030B7
:105B500002F44CF540B300244FF6FF7101EA8006D1
:105B6000062000EB072307220421384600962CF478
:105B70005BD501464E8059F82700006E0EE0838801
:105B80000A1913711B0A5371A41CA4B2C3880A1901
:105B900013711B0A5371A41CA4B200680028EED133
:105BA000084602F425F50AE021780A23BDF81C20F6
:105BB000384602F41FF502E0BDF81C006080074B78
:105BC00014A240210020009502F402F5062D03D016
:105BD00000200BB0BDE8F08F0120FAE7CA470101B1
:105BE000523A333A5B25735D20656E7465722C20E2
:105BF00073683D307825782C2065683D30782578AD
:105C00002C20747970653D307825780A00000000FA
:105C1000C40E8000523A333A5B25735D2065786983
:105C2000742C207374617475733D307825780A0084
:105C30002DE9F04F85B081460E46484602F4CEF479
:105C4000801E1FFA80FAD0460024B0887188CDE902
:105C50000010574B57A24021002002F4B9F470887D
:105C6000B188DFF874B1884211D880B1708804908F
:105C7000002002900390019001AB02AA04A94846BB
:105C8000FFF75EFE0546280003D00A2542E0012505
:105C900040E0B088BDF81010884232D302211820AD
:105CA0002AF412D10746012000900023FA1DB91DE5
:105CB00002A802F4A1F40546280007D040F24E23C2
:105CC00046A22946BDF8100002F498F4BDF8100071
:105CD000B88004B9BC79B879A04203D0384629F419
:105CE00073D717E05BF829003946603002F47AF484
:105CF000A8EB0400801E1FFA80F8BDF81000401CBD
:105D00000490B188BDF81000814203D310B1A01CEB
:105D10008045B1D25BF82900006E18B1002018B19F
:105D20009DB334E00120FAE70026AAEB08081FFA29
:105D300088F00090062000EB092305220421484644
:105D40002CF472D40746022C08D002207870788890
:105D5000404478805BF82900046E10E00120F5E7EC
:105D6000A188B8198180B61CB6B2B819A279001DF5
:105D7000E11DFCF74CFDA079304486B22468002C6C
:105D8000EED1384602F434F407E0FFE70A257288C2
:105D900031782B46484602F42DF4054B13A24021DE
:105DA0000020009502F414F405B00020BDE8F08F47
:105DB000B1470101523A333A5B25735D20656E7439
:105DC00065722C2073683D307825782C2065683DFD
:105DD000307825780A000000C40E80006174747366
:105DE0005F70617463682E6300000000523A333ABA
:105DF0005B25735D20657869742C207374617475FC
:105E0000733D307825780A002DE9F04F87B083463E
:105E1000DDF844900C4615469A460026B4F80080FA
:105E20000027019701AB4A4621465846FFF788FDF7
:105E300010B12888208026E02088298888421BD835
:105E4000002302AA06A94846009702F4D5F30146AA
:105E500029B1208840F269131AA202F4CFF39DF809
:105E6000183002AA5146109802F4BAF308B101267C
:105E700002E02088401C20802EB920882988884292
:105E800001D80028CED16EB122884B460021584659
:105E900002F4B6F3C6B22088494602F4B3F3288070
:105EA00026B10AE00A26A4F8008006E02188DDE990
:105EB0001223584602F4A8F3C6B207B03046BDE834
:105EC000F08F0000617474735F70617463682E6397
:105ED000000000002DE9F04105460C46FF26217A1E
:105EE0001E2905D022480279521E52B200683AE0BB
:105EF00004F10801284602F489F3064635E010F85B
:105F000032308B422DD11B4E56F82500406F30B3F6
:105F100000273B4618A24021002002F459F3062036
:105F200000EB05202AF426D2C00605D5002717A2CB
:105F30004021002002F44CF321460C3956F825008C
:105F4000743002F44FF30020A08001266FB115A237
:105F5000402102F43DF3284602F45AF305E00127FC
:105F6000D7E7521E52B2002AC9DA3046BDE8F081A6
:105F70007C058000C40E8000523A333A6578656330
:105F80007574653D307825780A000000523A333A3E
:105F9000636F6E6E656374206E6F742063666D0A46
:105FA00000000000523A333A7374617274206578CD
:105FB00065637574650A00000348024901600D219C
:105FC00041607047104701017C0580002DE9F04FCA
:105FD0008BB082460C460026002009900A9060880B
:105FE0000890251FB0462988A288CDE9012100909C
:105FF0006D4B6EA24021002002F4EAF2288850B9CD
:10600000504602F4EBF2801E28806088A188884206
:1060100000D800B90126714850F82A00006E10B16E
:10602000002111B103E00121FBE790F80680002E6A
:106030005DD104F1080BA088079006A805A909AA5C
:10604000CDE90210CDE900B2A37907AA08A950460C
:10605000FFF7DAFE0646300049D1BDF81410884536
:1060600002D0B8F1000F42D12888001FFB22FB2884
:1060700000D31046814200D2084687B2022107F1C0
:106080000C0029F421D78146BDF81480BDF820000A
:10609000A9F80400BDF81C00A9F8060089F80870EA
:1060A0003A4609F109000699FCF7B1FB2888C01BA4
:1060B000001F28804948494650F82A00603002F401
:1060C00091F2BDF81400874202D1504602F48CF2DE
:1060D000BDF81C00411C89B20891A2888A4206D3EF
:1060E000824204D0298808F104008142A3D2062EFE
:1060F00048D03A4D55F82A00603002F477F2C0B328
:10610000002755F82A100C6E217A091D41431FFA09
:1061100081F8062000EB0A23112204215046CDF815
:1061200000802CF481D20546A5F80280217A091D51
:10613000697018E0A188E8190171090A4171BF1C52
:10614000BAB2E188A8180171090A4171921C97B28C
:10615000E819227A001D04F10901FCF758FB207AA6
:10616000384487B22468002CE4D1284602F440F277
:106170000BE0FFE721783346BDF82020504602F4BB
:1061800039F202E0BDF820006080074B14A24021E4
:106190000020009602F41CF2062E03D000200BB063
:1061A000BDE8F08F0120FAE791470101523A333AF6
:1061B0005B25735D20656E7465722C2073683D30BD
:1061C0007825782C2065683D307825782C207265FC
:1061D0005F6C656E3D307825780A0000C40E800043
:1061E000523A333A5B25735D20657869742C2073CD
:1061F00074617475733D307825780A002DE9F04F8D
:106200008BB082460C460026002009900A906088D8
:106210000890251FB046A188694BCDE9000169A20D
:106220004021002002F4D4F1288850B9504602F4ED
:10623000D5F1801E28806088A188884200D800B9E6
:106240000126694850F82A00016E11B1002010B1F2
:1062500003E00120FBE791F80680EEBB04F1080B98
:10626000A088079006A805AA09A9CDE90220CDE9D2
:1062700000B1A37907AA08A95046FFF7C5FD064655
:10628000300047D1BDF81410884502D0B8F1000F96
:1062900040D12888801EFD22FD2800D3104681426F
:1062A00000D2084687B2022107F1080029F40CD673
:1062B0008146BDF81480BDF82000A9F8040089F8D3
:1062C00006703A4609F107000699FCF7A0FA2888FB
:1062D000C01B801E288000E01CE04348494650F85F
:1062E0002A00603002F47EF1BDF81400874202D12A
:1062F000504602F479F1BDF81C00411C89B20891A6
:10630000A2888A4206D3824204D0298808F102007A
:106310008142A5D2062E40D0334D55F82A00603078
:1063200002F464F180B3002755F82A100C6EA179AD
:10633000891C41431FFA81F8062000EB0A23092239
:1063400004215046CDF800802CF46ED10546A5F806
:106350000280A179891C697010E0A188E819017197
:10636000090A4171BF1CBFB2E819A279001DE11DE5
:10637000FCF74DFAA079384487B22468002CECD1A0
:10638000284602F435F10BE0FFE721783346BDF8EB
:106390002020504602F42EF102E0BDF8200060807B
:1063A000074B12A240210020009602F411F1062EA4
:1063B00003D000200BB0BDE8F08F0120FAE7000009
:1063C000E6470101523A333A5B25735D20656E74EE
:1063D00065722C2073683D307825782C2065683DE7
:1063E000307825780A000000C40E8000523A333A13
:1063F0005B25735D20657869742C207374617475F6
:10640000733D307825780A002DE9FF5F81460F46FD
:106410000024A246CDF808A0CDF80CA0584850F8AA
:106420002900603002F4E2F080463D1F7988288818
:10643000544BCDE9001054A24021002002F4C8F0D2
:106440002888E8BB484602F4C9F0401E2880002690
:1064500011E007EB460002AB82880021484602F4B7
:10646000CFF0C4B2CDF808A0CDF80CA00CB1B04666
:106470003BE0761CB6B27888B042EAD835E007EB4C
:1064800048006B46818801AA484602F4BDF0C4B2B8
:106490003CBBBDF804002988884200D3084686B278
:1064A000022106F1080029F40FD58346ABF80460F9
:1064B00032460BF106000099FCF7A9F9304800E0DC
:1064C00013E050F829005946603002F48BF048463A
:1064D00002F48AF02888801B288008F101081FFA3E
:1064E00088F8CDF808A0CDF80CA07888404503D9ED
:1064F000288808B1002CC2D044BB484602F46EF094
:106500002988401A401E86B20025062000EB092388
:106510000F220421484600962CF486D08246AAF821
:106520000260174850F82900066E0AE00AEB0500E1
:10653000B288001DB11DFCF76AF9B088284485B205
:106540003668002EF2D1504602F452F04CB1062CBF
:1065500007D007EB4800397882882346484602F482
:1065600049F0084B14A240210020009402F430F0BE
:10657000062C03D0002004B0BDE8F09F0120FAE70C
:10658000C40E800078470101523A333A5B25735DAF
:1065900020656E7465722C206E625F68616E646C3B
:1065A000653D307825782C2072655F6C656E3D30D6
:1065B0007825780A00000000523A333A5B25735D73
:1065C00020657869742C207374617475733D30781C
:1065D00025780A0010B500210A4C0023002001EBA9
:1065E000410202EBC10204EB420222F81030401CCF
:1065F000C0B20A28F9D31375491CC9B20A29EDD3D0
:1066000010BD0000FC7D81001FB50F4890F802010D
:10661000002818D068464DF48DD6DDE900010B4CFA
:10662000CDE90201E1680844094920F07040486062
:1066300008464EF415D1607818B1BDE81F400AF045
:10664000A7BD0AF0C1FD1FBDC01A8000404A8000EE
:10665000B41A800002460020002152F821300BB10C
:10666000401CC0B2491CC9B20C29F6D3704710B502
:1066700007F062FEBDE8104003F028B907F0F2BB56
:1066800010B58CB008A80BF0E5FCBDF822100998F5
:106690009DF82120CDE904109DF820302EA040F275
:1066A0007911CDE90232CDE90010354B35A23BA17D
:1066B0000220FEF783FD0AA85FF47AD4044654B1A1
:1066C00014222F490E3103A8FCF7E6F8ADF810406C
:1066D00003A8FEF7BBF89DF828009DF82910CDE926
:1066E00006109DF82A209DF82B30CDE904329DF844
:1066F0002C109DF82D002BA24FF4BF73CDE9003272
:10670000CDE902011E4B1FA224A10220FEF756FD77
:106710002FA040F28511CDE90010194B19A21FA13D
:106720000220FEF74BFD0BF01DF902F0B7FD3149D9
:10673000002000F0D3F90446002C0AD0142210499E
:10674000223103A8FCF7A8F8ADF8104003A8FEF723
:106750007DF80CB010BD0000476F6F64697820426F
:106760004C452053444B205625642E25642E256429
:106770002028636F6D6D6974202578290000000062
:10678000424501012E2E5C5372635C757365725C29
:10679000757365725F6170702E6300004E4F5F54B9
:1067A000414700004C6F63616C20426F617264204E
:1067B000253032583A253032583A253032583A2569
:1067C0003032583A253032583A253032582E0000AF
:1067D00054656D706C617465206672656572746F66
:1067E00073206578616D706C652073746172746577
:1067F000642E0000D44680002DE9F041054688460D
:10680000284669F49DD4C0B22449097888420DD243
:1068100000EB4000213040F400404246AC2108F03B
:10682000A3FA0446200032D0012430E069F4CCD42D
:10683000C7B207EB470606F1200040F400402A46A5
:10684000072108F091FA10B10120BDE8F081384627
:1068500075F40AD606F1210040F400404246AC210E
:1068600008F082FA0446200001D00120EDE722362C
:1068700046F4004070F4CAD60949C7EBC70009685E
:10688000084429680160A9888180A97981711CB9AF
:1068900041462846FDF794FD2046D6E73823800080
:1068A0003C2380000020704710B50AF0E7FC0AF096
:1068B00013FD0AF081FC0AF0A1F80BF097FD00F03F
:1068C00043FC0AF01DFD00F08DFBBDE8104000F018
:1068D0006FBB0AF017B810B506F084FC07F038FE5D
:1068E00006F090FC07F094F806F0F0FC05F0EAFFE3
:1068F000FFF762FB03F09AFB0AF096FD0BF0A0F99C
:10690000BDE81040FFF766BE0148FFF7A3BE0000D8
:10691000B413800010B5FFF7DCFF05490348086099
:10692000BDE81040034875F41190000017B88004CA
:1069300074C500A00087930310B50446002C0CD04A
:10694000204600F0D1FA002807D1044949680029FF
:1069500003D02046BDE81040084710BD084880001D
:106960003EB5028840F20933A2F209314FF4807437
:106970009A4239D032DC40F20D23A2F20D219A4224
:1069800032D016DC40F20623A2F206219A422BD026
:1069900009DC40F202218A4226DAA24224D1BDE873
:1069A0003E40FFF76DBE03291ED2DFE801F01D3225
:1069B0004100F5294AD00ADC042915DDF32913D05A
:1069C000F42911D1BDE83E400830FDF7B5BEF639D7
:1069D000042909D2DFE801F008080841B1F5FF7F7A
:1069E00042D002DC40F2F7123EBD40F2F74399423A
:1069F000FADAB1F57E7FF7D0F6DCA1F50071F73950
:106A0000F2D141880029EFD1C088BDE83E4068F44A
:106A1000C19240880028E7D018A1B822CDE9002112
:106A200002901F4B1FA225A10320FEF7C7FB3EBD0E
:106A3000007A0028FBD123A0BF21CDE90010184B1C
:106A400018A21EA10320FEF7B9FB3EBD017A007912
:106A500003B0BDE83040FDF7B7BE007903B00121B7
:106A6000BDE8304060F4A090017A0129EDD1818920
:106A7000007903B0BDE8304000F042B9416476656A
:106A80007274696E672073746172746564206661E4
:106A9000696C656428305825303258292E00000072
:106AA000324501012E2E5C5372635C757365725C16
:106AB000757365725F6170702E6300004E4F5F5496
:106AC000414700004164766572746973696E67209E
:106AD00074696D656F75742E000000002DE9F84330
:106AE00007460D46EFF31186564801785648006870
:106AF000C0F30220401C012282408818C0B280F3FB
:106B0000118869F4F3D38046052F06D34FA21021D4
:106B1000002001F45DF5152481E07DB14E48C7EBFE
:106B2000C70100EB8104E06840B1617A69B14BA212
:106B30001021002001F44CF50F2470E04AA210212E
:106B4000002001F445F5022469E02169F1B90178DA
:106B500041B1012910D047A21021002001F438F5DD
:106B600023245CE08178490710D445A2102100203D
:106B700001F42EF5232452E08178890706D443A23C
:106B80001021002001F424F5232448E041888A07DD
:106B900004D50278012A01D162691AB10278022A69
:106BA00007D008E03CA21021002001F411F52524B3
:106BB00035E0A26962B1090711D5298809B1802998
:106BC0000DD938A21021002001F402F5262426E078
:106BD00037A21021002001F4FBF424241FE04078A8
:106BE00002280CD1288818B144F25061884206D995
:106BF00032A21021002001F4EBF426240FE0E0691A
:106C000028B90021042064F46FD6E061B8B1E069CE
:106C1000296801603946002069F4C4D400243B4649
:106C200029A210210020009401F4D2F4404669F416
:106C300027D3F0B280F311882046BDE8F8831024F2
:106C4000EDE7000002E400E00CED00E0523A313ADA
:106C5000453A310A000000007C278000523A313A60
:106C6000453A330A00000000523A313A453A320AB6
:106C700000000000523A313A453A360A000000005E
:106C8000523A313A453A340A00000000523A313A59
:106C9000453A350A00000000523A313A453A370A7F
:106CA00000000000523A313A453A390A000000002B
:106CB000523A313A453A380A00000000523A313A25
:106CC000453A31300A000000523A313A6164765F49
:106CD00073746172745B25645D3A20453A3078259F
:106CE0003032780A000000000A2805D2034A002149
:106CF00052F8200080F88F1070470000C40E80000A
:106D000070B504460D4620460AF04CFB002805D11C
:106D100029462046BDE8704062F44C9170BD70B5C4
:106D200004460D4620460AF03DFB002804D12946C2
:106D3000204663F4EBD180B270BD000070B505460B
:106D40000E46002D05D00D4867F40ED484B214B160
:106D500010E0022070BD142075F480D0014659B1B6
:106D60000D61CE60064A50780871401C5070101DAD
:106D700005F02EFE204670BD102070BDF0460101CA
:106D8000A048800070B504460D4620460AF00AFB74
:106D9000002805D129462046BDE8704063F4FC92E6
:106DA00070BD00002DE9F04119A24021002001F43E
:106DB0000FF4EFF311841E4801781E480068C0F3F9
:106DC0000220401C012505FA00F00844C0B280F3FF
:106DD000118869F48BD206465EF408D60021164865
:106DE0000368164809E001EB410203EB82121778B1
:106DF000012F00D15572491CC9B202789142F2D3D9
:106E0000304669F43DD2E0B280F31188BDE8F081EC
:106E1000523A333A73646B206761747473207365FC
:106E20007276206368616E676564210A0000000065
:106E300002E400E00CED00E0DC228000E4238000AE
:106E400070B504460D4620460AF0ACFA002804D17D
:106E50002946204663F48CD580B270BD00B58BB056
:106E6000094901200870FF22282101A8FBF7C0F979
:106E70004FF48070ADF804000020ADF8060001A8C2
:106E8000FFF75AFD0BB000BD0848800010B506485A
:106E90000068002800D08047FFF7E6DB08B101203A
:106EA00010BD002010BD0000844A800010B540F4E1
:106EB000404070F4ABD310BD10B540F4404007F033
:106EC00053FF10BD044901600449416004498160D9
:106ED0000449C1607047000041C2060015C20600A7
:106EE000B96E0001AD6E000170B50446002C1FD0D4
:106EF0004FF6FF731946228840F20155A2F2015065
:106F00004FF48076AA424CD01BDC40F20245A2F23C
:106F10000240AA4234D00DDCA2F54072013A25D0DD
:106F2000012A23D0FF2A29D0B2422ED121892CE078
:106F3000002070BD012825D0022825D0FE2824D1AC
:106F40002AE004282DD006DC01282AD0022828D0E7
:106F500003281AD125E0052823D0062821D0B042E5
:106F600013D1204602F014FF002070BD204603F02C
:106F700069FA204603F0E2F8002070BD218904E0A0
:106F8000218902E0618900E0218A99420ED02046E1
:106F900003F068FA012070BD204603F063F9002079
:106FA00070BD204603F0DAF8002070BD002070BDEF
:106FB00010B52021094809F0D7FB0721084809F03E
:106FC000CDFB01210548083809F0C2FBFFF783FC1F
:106FD0000520FFF753FBFFF74AFB10BD104180006F
:106FE00010428000044903480860054903480860CE
:106FF00070470000758D00010C228000B18F0001E8
:107000001822800070B50026150A0E4805EB4502CF
:1070100000EB0214098821800120A0702846FFF7A8
:1070200063FE002069F42CD10748016829B10B6880
:107030001BB1228800212846984769F457D1304671
:1070400070BD0000D42E8000B82280003EB5002420
:107050001D0A0A78122A02D0132A04D006E0002062
:107060008DF8000002E001208DF800008888ADF85E
:1070700004004888ADF80200891D0291002069F4DF
:10708000FFD00B48016829B18A691AB169462846C0
:10709000904708E09DF80000012804D1BDF80410D5
:1070A0002846FFF72DFE69F421D120463EBD0000A1
:1070B000B422800001480078704700009C4A80009C
:1070C0007CB50E46150A00200090019069462846BE
:1070D00073F454D19DF806206946284602F068FEF4
:1070E0000446CCB162F452D7C0B162F44FD7C01C91
:1070F00081B23288002320466DF430D36946284699
:107100000AF0CEF940B106A24021002001F460F25D
:10711000214668465EF498D400207CBD0020E7E755
:10712000523A333A7361766520636363640A000000
:107130007CB5DDE90654CDE9005466F453D5BDE8CD
:107140007C4009F099BA0000024901480860704784
:10715000317100014823800010B588B0044666F400
:10716000CFD70020079007A854F476D60798FFF7EA
:10717000A9FE2068019060680290A0680390E06812
:107180000490208AADF81400608AADF81600A08A39
:10719000ADF81800E08AADF81A0001A854F486D6BC
:1071A00054F466D60348016801614168416108B042
:1071B00010BD0000300100B010B58AB00446FF22B7
:1071C00028216846FBF714F840F20271ADF8001070
:1071D0000021ADF802108DF804406846FFF7ACFBC3
:1071E0000AB010BD0A460146002007F01DBF30B5A9
:1071F0008568027B002D02D0002001210CE01046A2
:1072000030BDCB0801F00704EB5CE340DB0701D0A5
:10721000401CC0B2491CC9B28A42F2D830BD00003D
:1072200000230849496808E0CA88824204D80A89CC
:10723000824201D3CB6802E009680029F4D11846E4
:1072400070470000A048800001460548406803E000
:1072500002798A4202D000680028F9D17047000004
:10726000A048800070B5104E3078FFF7EDFF04465F
:10727000200006D0206963F46DD10546280002D0B5
:107280000DE00C2070BD2069FFF7B1FF01462069B9
:1072900002681288E2800068008808442081307803
:1072A000401C3070E8B270BDA048800070B519482D
:1072B0000468194D2878002801D0002070BD4FF0D7
:1072C000806071F415D7FEF79FDC600872F420D659
:1072D000124908608817114901262C3908601049A5
:1072E0007006C1F8FC01C8674FF03041086B40F0F0
:1072F00007000863094C303C206840F4E02020601F
:10730000FEF7C4DC2E70206820F4E020206001200D
:1073100070BD00006C2480007C4A800070C500A015
:1073200084E000E070B50024EFF31086012080F3C4
:107330001088FEF7C6DC104D28B102242968B9B1C7
:107340000220884714E0FFF7A1FD20B1296879B138
:10735000002088470CE0FFF7A9FF28B10224296824
:1073600031B10220884703E0296809B1002088472D
:1073700086F31088204670BD5C24800010B5084A52
:107380001378002B01D00F2010BD31B1506004489C
:10739000243000F007F8002010BD022010BD0000CE
:1073A000084880002DE9FC4705460C46FFF77CFAAB
:1073B00068F49CD707463648006800B180473549D5
:1073C00001200AF05FFC344902200AF05BFC012036
:1073D000FBF7B4F9A08E81B2206B02F063FADFF8FC
:1073E000BC90DFF8BC80E16999F8000098F80020B3
:1073F0000244B1FBF2F1CEB216FB00F1A06964F4D5
:10740000D5D7286863F464D368685FF471D22869BB
:1074100066F410D7A86861F409D5E86861F4AED5C0
:1074200020484CF437D120484CF43AD11F484CF452
:107430003DD11F4854F466D51E484CF4E1D01E4897
:107440004CF4E4D01D484CF4E7D01D4864F482D7D6
:107450004FF0806071F44CD62046FFF77DFED4E9F2
:107460000A01CDE9000199F80010A06916FB01009E
:1074700098F8001016FB01F1D4E90823114C246898
:10748000A047384668F4FCD6BDE8FC4765F4469052
:107490008026800039380600DD37060029D5070030
:1074A0002AD50700119F0700B9C3060065C406006E
:1074B000EDAF070025ED060045ED060065ED060081
:1074C000799B070048238000034900EB800001EB13
:1074D000800080887047000004498000034A00EB68
:1074E000800002EB8000818070470000044980002A
:1074F00010B500F065F800F047F8BDE8104000F066
:1075000001B8000000B58FB003228DF800204FF4C1
:107510008050019005218DF8081001208DF8090098
:1075200000238DF80A308DF80C20430304938DF866
:1075300014108DF815008DF816008DF81820C3036F
:1075400007938DF820108DF821008DF822208DF8FA
:10755000242082030A928DF82C108DF82D0002222F
:107560008DF82E2004238DF830300D928DF83810D0
:107570008DF839008DF83A30024A6846FDF740FD33
:107580000FB000BDFD4F00017CB51026009602240F
:107590008DF804408DF8054007258DF806506946A2
:1075A0000320FDF713FB00968DF804408DF805408D
:1075B0008DF8065069460520FDF708FB7CBD0000EC
:1075C00000B587B000F01EF803208DF800001D20E4
:1075D0008DF8160001208DF817008DF818008DF831
:1075E0001900044A04496846FDF7BCFDFDF72AF876
:1075F00007B000BDFD750001557600010020FDF7C4
:107600006DBF00001CB5114800904FF480640194D8
:1076100000F58060002101704FF4E1320264032222
:1076200042648164C1640165012141650274CB0239
:1076300043610223437401760271846043710173D4
:107640006A460349FDF7E8FF1CBD0000C0868000C4
:10765000D95400010A4601464FF47A730020FEF720
:107660009FB8000030B591B005460C461C223D493C
:107670000AA8FBF711F91C223A491C3103A8FBF7B1
:107680000BF9394884420AD33848B4FBF0F2A2F52A
:107690002852CD3AB4FBF0F100FB114101E0002289
:1076A00000213C23B1FBF3F003FB10108DF8000028
:1076B000B1FBF3F0B0FBF3F103FB11018DF8011006
:1076C000B0FBF3F08DF802004FF4FA63901D072130
:1076D000B0FBF1F401FB14008DF8060040F2B55048
:1076E000B2FBF0F103EB81018BB2B2FBF0F100FBD6
:1076F00011214FF4B770814201D303AA00E00AAA16
:1077000081420AD3491E40F26D10B1FBF0F42344CC
:107710009BB2B1FBF0F400FB14111F20B1FBF0F0A1
:10772000401CC4B28DF8044032F81400884202D8DC
:10773000641C8DF804409DF80400401E12F81000EF
:10774000081A401C8DF80300A3F5FA638DF8053084
:107750000098286001986860BDF80800288111B081
:1077600030BD0000E445010180436D3880510100C7
:1077700070B54279642302F5FA62B2FBF3F403FBBD
:10778000142242F6CD2340F26D145443D51C04EB71
:1077900095041C44037940F26F1513FB05F50C2684
:1077A000A5F5B57595FBF6F5022B01D8002202E090
:1077B000920716D00222AA1A2244C378521E1344FA
:1077C000094A534382784FF4616412FB04F442780F
:1077D0000078C2EB021204EB8202184410440860E5
:1077E00070BD0122E7E700008051010070B5064638
:1077F00042F2107405F0E2F9054605F0DFF9A842FF
:1078000001D0641EF6D114B13060002070BD00209C
:107810003060012070BDA0F18070B0F5005F01D232
:1078200001207047002070470E4910F1210F06DA41
:10783000086820F4704040F440500860704710F130
:107840001D0206D3086820F4704040F480400860B0
:1078500070470A28FCDD086820F4704040F4A0401E
:107860000860704724C500A010B509F017FD08F0A6
:107870009DFE0AF021FC00F035FBBDE8104009F048
:107880007FBC00002DE9F04F87B07B48D0F8009016
:1078900000240025A24600260AF0B0FD77480168C2
:1078A000C9F800104068C9F804007548006808303D
:1078B000059009F108000690042203A9059800F03C
:1078C000DDFABDF80C10A1F57F40FF3843D0082247
:1078D00003A9059800F0D2FABDF80E006DF46CD73C
:1078E00000F0FF08BDF80C00002867D00698A9EB4F
:1078F000000707F58057BDF80E1008F10800834611
:107900000844B84263D805AB082203A906A800F0D2
:10791000EBF8BDF80E00002300EB080205A906A84D
:1079200008F000FF641CBDF80E005844B842C3D1F3
:107930000020CDE9006053464A46214628460BF018
:107940009BF9002826D1824600260024CDF8189005
:107950006D1CEDB2B0E70020CDE9006053464A4609
:10796000214628460BF088F9002813D16D1CECB293
:10797000434D4FF48057434E08E0286800EB043035
:10798000394603F05FFD40B1641CE4B2707AA04256
:10799000F3D8002007B0BDE8F08F3B488169407AFA
:1079A00040F26242CDE900200291384B38A24FF4F8
:1079B0000041002000F40CF60920EBE7BDF80E00B2
:1079C000059908F1080808444044059074E7082F19
:1079D00029D305AB082203A906A800F085F8083FC3
:1079E0002FB100233A4605A906A808F09BFE611CAA
:1079F0000020CDE9006053464A4628460BF03CF98A
:107A00000028C7D18246BDF80E004044C61B0024A2
:107A1000CDF818906D1CEDB20023324605A906A8DA
:107A200008F080FE48E705AB3A4603A906A800F037
:107A30005BF8611C03A8CDE9006053464A4628461E
:107A40000BF01AF90028A5D1C7F1080ABDF80E00FD
:107A500000EB08060024CDF818906D1CEDB2012350
:107A6000524605A906A808F05DFE0023324605A986
:107A700006A808F057FE1FE778478000ACD507003E
:107A8000CC238000D8328000641F80006C46010146
:107A9000523A353A25732C204C256420666C61736C
:107AA00068207374617465203078253032582C203A
:107AB0006572726F72203078253038580D0A0000D8
:107AC0000221B0FBF1F2FF2A04D8B0FBF1F201FB76
:107AD00012022AB1491CC9B24029F2D300207047D2
