:020000040100F9
:1020000000008400A1210001A92100016149800094
:10201000DF2D0001DD2D0001A92E000100000000D0
:102020000000000000000000000000007549800072
:10203000B321000100000000B5210001B921000119
:1020400000F002F800F082F80AA090E8000C824448
:102050008344AAF10107DA4501D100F077F8AFF225
:10206000090EBAE80F0013F0010F18BFFB1A43F076
:102070000103184700600100506001000A444FF05E
:10208000000C10F8013B13F0070408BF10F8014BD7
:102090001D1108BF10F8015B641E05D010F8016B1C
:1020A000641E01F8016BF9D113F0080F1EBF10F880
:1020B000014BAD1C0C1B09D16D1E58BF01F801CBA3
:1020C000FAD505E014F8016B01F8016B6D1EF9D526
:1020D0009142D6D370470000103A24BF78C878C127
:1020E000FAD8520724BF30C830C144BF04680C601E
:1020F000704700000023002400250026103A28BF66
:1021000078C1FBD8520728BF30C148BF0B60704769
:10211000642900F0D581782900F03982732900F014
:102120003885002070471FB513F0B4FA04480549FC
:1021300000F070FC00F023FB00F040FC1FBD00002D
:10214000707F800070FF800010B510BDDFF80CD0EC
:10215000FFF7E9FF0BF064FD00F057FD000084007D
:1021600003B4FFF7F1FF03BC00F0BDFE0B49D1F84B
:1021700000C04A685CF8043B1068184442F8040B3D
:102180008C4528BFA1F1DC0C8A4228BFA1F1DC02FA
:10219000C1F800C04A6020F000407047047F800012
:1021A0000648804706480047FEE7FEE7FEE7FEE7F1
:1021B000FEE7FEE7FEE7FEE7FEE70000792E0001FE
:1021C000B1DD000170B5A0FB0140B4F1805170F1A8
:1021D000000024BF002070BD204600F031F805004B
:1021E0001CBF214600F0A1FB284670BD02F0FF0392
:1021F00043EA032242EA024200F099BB704770476B
:1022000058585247010000001555000000200001F9
:10221000002000016EED52490101000000000000A5
:1022200000000000000000000000000000000000AE
:10223000000000000000000000000000000000009E
:1022400070B5064600F0CCFB056806F10B0020F0E7
:102250000704B4429CBF002070BD2B466A68BAB127
:102260001068A04210D304F1080188423CBF5068B6
:10227000586007D35168101941601168091B01604B
:1022800058601460101D70BD13465268002AE7D1D3
:102290002146284600F0AAFB0028DED170BD70B5AB
:1022A0000446051F00F09CFB0068002C14BF446826
:1022B00070BD002C18BFAC423CBF20466468F8D308
:1022C00001680A18AA4218BF456003D12A6805466A
:1022D0001144016028684119A1421CBF6C6070BDA7
:1022E0006168696021680844286070BD53EA020C87
:1022F00000F069802DE9F04B4FF00006002B1FBF66
:10230000B3FA83F503FA05F424FA05F65E4012BF2A
:102310001643B2FA82F502FA05F4C5F120051EBF94
:1023200022FA05FC44EA0C04203556EA044C4FEA34
:10233000144418BF641C4FF000084FF0000990428D
:1023400071EB030C39D3002919BFB1FA81F701FAF7
:1023500007F6B0FA80F700FA07F6C7F120071EBFAC
:1023600020FA07FC46EA0C062037B6FBF4FCA7EB84
:102370000507103F07F01F0BCBF120060CFA0BFBF3
:102380002CFA06F644BFB3460026202FA4BF5E46B3
:102390004FF0000B5BEA060C08BF4FF0010B19EB86
:1023A0000B09ABFB027C48EB0608C01B06FB02CC0A
:1023B0000BFB03CC71EB0C01C1E70B460246414617
:1023C0004846BDE8F08B13B54FF000004FF0000118
:1023D000AFF30080BDE81C40704700000FB4044913
:1023E00010B503AA029800F0D9FB10BC5DF814FBED
:1023F000D84380000FB41CB5084B06AA7B4469463D
:102400000090059800F09BFB04460020694600F010
:10241000A9FB20461CBC5DF814FB0000650700000A
:1024200070B5044685690068C10601D5302600E014
:102430002026C00707D070BDD4E90121304690475F
:10244000206A401C20626D1EF6D570BD70B5044632
:1024500085690078C00707D170BDD4E9012120202B
:102460009047206A401C20626D1EF6D570BD70B585
:102470000C460546012A05D02878800600D5EA6971
:10248000002302E0012305E05B1C934202D2E05CE2
:102490000028F9D1A869E618C01AA861286A18446A
:1024A00028622846FFF7BCFF04E0D5E9012114F8B3
:1024B000010B9047B442F8D32846FFF7C7FF70BD21
:1024C0002DE9F0410646002410687529314616A50D
:1024D00010D0AFF30080002802DA404213A507E0D5
:1024E00031688A0701D512A502E0490704D511A574
:1024F000012401E0AFF3008000210A2206F1240745
:1025000009E0B0FBF2FCB0FBF2F302FB1C00303040
:1025100078541846491C0028F3D123462A463046F1
:10252000BDE8F04100F0ACBA000000002D00000052
:102530002B00000020000000F0B40D4601880905C2
:1025400002D5214C7C4402E01F4C7C440E34002117
:1025500000F1240608E002F00F071209E75D42EAE5
:1025600003721B097754491C52EA0307F3D102781E
:102570000023120704D5702D06D009B102231134AF
:102580002246F0BC00F07CBA01231034F8E770B5A5
:1025900004460D4621461068AFF3008002462946E6
:1025A0002046BDE870400023C6E7D21D22F0070395
:1025B000D3E90023C0E70368126843F020030360F7
:1025C0000823C3610023B7E74C5A01002DE9F05FEF
:1025D000894604464FF0000ADFF874B1FB44C0F8A6
:1025E00020A02046E1688847002874D0252806D01E
:1025F000D4E901219047206A401C2062F1E70026BF
:102600005F462046E16888472028054607DB312DD4
:1026100005D2781910F8200C08B10643F1E7B0078D
:1026200001D526F00406C4F81CA00027C4F818A0A1
:102630002A2D09D0284600F04FFC38B304EB870858
:10264000303DC8F8185019E059F8041B204604EB37
:1026500087029161E1688847012F054618D1E0693A
:10266000002820DA26F020061DE0D8F8180000EB3C
:10267000800005EB40003038C8F818002046E168BB
:102680008847054600F028FC0028EED1012F0AD02B
:102690002E2D08D12046E16888477F1C0546022F71
:1026A00046F02006C4DBA069002803DA404246F069
:1026B0000106A061F00701D026F010066C2D0BD0AA
:1026C000682D09D04C2D39D06A2D35D0742D35D0D8
:1026D0007A2D33D016E038E0E1682F46204688474F
:1026E000B842054609D16C2F26D04FF48060E168CE
:1026F000064320468847054604E06C2F1AD04FF465
:10270000807006430DB3A5F14100192802D8203589
:1027100046F400664A462946204626604E46FFF7A4
:10272000F7FC80B101280BD0F61D26F0070000F160
:10273000080956E74020E4E78020D8E70020D6E7E4
:1027400006F104094DE7284652E7206ABDE8F09FEC
:10275000DC5901000B4910B5A1F17C020A4CC2E919
:102760003712372106E000EB104342F82130074BC7
:1027700000FB03400B1EA1F10101F4DC10BD0120A0
:10278000E8E70000A47E8000E119D666CD0D0100C7
:1027900040EA010310B59B070FD1042A0DD310C8DE
:1027A00008C9121F9C42F8D020BA19BA884201D930
:1027B000012010BD4FF0FF3010BD1AB1D30703D078
:1027C000521C07E0002010BD10F8013B11F8014B2E
:1027D0001B1B07D110F8013B11F8014B1B1B01D14A
:1027E000921EF1D1184610BD10B5431C02E010F83E
:1027F000011B71B18107FAD14FF0013202C88C1A66
:102800008C4314EAC211F9D0C01A0A0603D0C01EC4
:1028100010BDC01A10BD0A0401D0801E10BD0902EF
:10282000FCD0401E10BD032A40F2308010F0030C93
:1028300000F0158011F8013BBCF1020F624498BF13
:1028400011F801CB00F8013B38BF11F8013BA2F1B0
:10285000040298BF00F801CB38BF00F8013B11F02B
:10286000030300F02580083AC0F0088051F8043BCB
:10287000083A51F804CBA0E80810F5E7121D5CBF38
:1028800051F8043B40F8043BAFF30080D20724BF6B
:1028900011F8013B11F801CB48BF11F8012B24BFFF
:1028A00000F8013B00F801CB48BF00F8012B70474E
:1028B00010B5203AC0F00B80B1E81850203AA0E8DB
:1028C0001850B1E81850A0E81850BFF4F5AF5FEA0F
:1028D000027C24BFB1E81850A0E8185044BF18C9C2
:1028E00018C0BDE810405FEA827C24BF51F8043B69
:1028F00040F8043B08BF7047D20728BF31F8023BBD
:1029000048BF11F8012B28BF20F8023B48BF00F850
:10291000012B704701F0FF03114601B543EA032282
:1029200042EA024200F003F801BD4FF00002042920
:10293000C0F0128010F0030C00F01B80CCF1040CEE
:10294000BCF1020F18BF00F8012BA8BF20F8022B22
:10295000A1EB0C0100F00DB85FEAC17C24BF00F8C8
:10296000012B00F8012B48BF00F8012B70474FF0F6
:10297000000200B5134694469646203922BFA0E8CF
:102980000C50A0E80C50B1F12001BFF4F7AF0907DB
:1029900028BFA0E80C5048BF0CC05DF804EB8900CC
:1029A00028BF40F8042B08BF704748BF20F8022B0F
:1029B00011F0804F18BF00F8012B704770B5064C1E
:1029C0007C44064D7D4403E0206820448047241D5C
:1029D000AC42F9D170BD0000005701000057010062
:1029E00000487047147F80007047704738B5044630
:1029F0000A4600206946AFF30080002808BF38BDB2
:102A000002460099204600F0DBF8012038BD012085
:102A100000F0F4B8F8B5AFF30080054600200C468E
:102A2000102000BF0646A819A0420DD932466946BB
:102A30000020AFF30080070008BF00F0DFF8009827
:102A4000A04218BF0546C419FFF7CAFF0560074634
:102A5000F01D20F007004619284600F00AF8B4429D
:102A600008BFF8BDA21B31463868BDE8F84000F049
:102A7000A7B800210160C0E901107047102070471D
:102A80002DE9F0470D4699469246044600F1240888
:102A90000168880604D5E06921F01001216000E09A
:102AA0000120A84201DD471B00E00027A1697A1937
:102AB00002EB0900081AA0612078C00602D4204663
:102AC000FFF7AEFC002608E0D4E901211AF8060061
:102AD0009047206A401C761C20624E45F4DB20782B
:102AE000C0060AD52046FFF79BFC06E0D4E9012189
:102AF00030209047206A401C2062381EA7F1010751
:102B0000F4DC07E0D4E9012118F805009047206AB9
:102B1000401C2062281EA5F10105F3DC2046FFF7CA
:102B200095FC2078000602D50220BDE8F087012040
:102B3000FBE7000001694A1C02610878704700B594
:102B40008FB0CDE901310021059105497944CDE9E6
:102B5000031011466846FFF739FD0FB000BD0000B5
:102B6000E5FFFFFF0A6802F8010B0A60704710B525
:102B7000436913B1AFF3008001E0FFF778FC012057
:102B800010BD127800F124010A7000224A7001225F
:102B9000EDE711684FF0FF32E9E70000074B70B531
:102BA0000D467B44FFF7CBFF0446284600F022F891
:102BB00010B14FF0FF3070BD204670BDAF53000024
:102BC000034640688C46002818BF88423CBF034635
:102BD0004068F8D318681844884207D00CF1030005
:102BE00020F00700001D411A521A0146081D0A6014
:102BF000FFF755BB007B00F08000704710B500F078
:102C000013F8BDE8104000F009B810B50446AFF362
:102C100000802046BDE81040FFF7A2BA002801D08E
:102C200000F061B97047000010B5012805D00021FF
:102C300003A000F021F8012010BD09A1F8E7000071
:102C400053494752544D454D3A204F7574206F6695
:102C50002068656170206D656D6F727900000000FD
:102C60003A2048656170206D656D6F727920636FE1
:102C7000727275707465640070B505460C460A2062
:102C800000E06D1C00F030F935B128780028F8D14B
:102C900002E0641C00F028F914B120780028F8D173
:102CA000BDE870400A2000F01FB9000010B51E48B2
:102CB0000068002800D080471C4900200870811E51
:102CC0001B4801601B494FF0007008601A4CD4F893
:102CD000C002800704D4F42218A11DA003F436F723
:102CE0002A480168D4F8C40261F31D3040F00100A5
:102CF000C4F8C40203F484F200214FF03040C160F4
:102D00008161C1174161016203F436F2084840381D
:102D1000016821F4800101601D480068002802D08C
:102D2000BDE81040004710BD602480008C47800043
:102D300044C500A080E200E000E000A07277697066
:102D40005F736C6565705F636F6D6D6F6E2E630092
:102D50004D43555F5355422D3E424C455F44534CC5
:102D60004545505F434F52525F454E2026204D430C
:102D7000555F5355425F424C455F44534C45455067
:102D80005F434F52525F48575F454E0054248000C6
:102D90006424800000214FF03040C1608161C11780
:102DA000416101620649022004220A60BFF34F8F8D
:102DB000BFF36F8F0860BFF34F8FBFF36F8F704704
:102DC00080E100E004490220C1F800010860BFF37F
:102DD0004F8FBFF36F8F704780E100E0FEE7FEE7A3
:102DE0001BF47A910249096801F0070101707047EC
:102DF00004C500A030B4062821D212490A6802F0A6
:102E00000702824212D00A680F4B1A400F4C22432D
:102E10000A6000BF00BF00BF00BF0A681A400C4B29
:102E2000024333F8203042EA83420A6008491839E5
:102E300051F820000749086030BC76F4DB9030BCC4
:102E40007047000004C500A0F8FFE3FF050008007C
:102E5000145701010041800004480068044900F053
:102E6000070051F8200003490860704704C500A01E
:102E7000FC560101004180000248016841F47001E4
:102E80000160704788ED00E002480068001D1EF4F4
:102E9000E3930000CC43800002484068001D1EF40C
:102EA000DB930000CC438000FEE7002804DB00F148
:102EB000E02090F80004704700F00F0000F1E020DF
:102EC00090F8140D7047000002480068C0F302201B
:102ED000704700000CED00E030380A2801D20120D4
:102EE0007047002070477047704700002DE9F05F81
:102EF0000746894693464FEA5B04A2464D465F4E1D
:102F0000DFF87C81EFF31080012181F31088D8F87D
:102F1000A41221F02001C8F8A41280F31088EFF366
:102F20001080012181F31088D8F8A01221F020012F
:102F3000C8F8A01280F31088306820F0804030601C
:102F4000504830603F20D8F8001160F30501C8F800
:102F50000011306820F4601040EAC74030603068EB
:102F600020F4E02040EA07403060052F03D13068AC
:102F700040F400403060062F03D1306840F48040B8
:102F80003060306840F400503060306820F06050AD
:102F90003060306820F00F0040F003003060EFF345
:102FA0001080012181F31088344A3832116821F0F1
:102FB000E04141F08041116080F31088306840F0BA
:102FC0008040306001E0D8F80000D8F80401C0F378
:102FD00000200028F7D1EFF31080012181F3108841
:102FE000116841F00041116080F3108834E0002046
:102FF0004FF47A711AE0884217D9306820F0804087
:103000003060306840F000403060306820F00040B0
:10301000306009F0A9FF1C480168491C0160544652
:103020004D46052078F4EBD56CE7401CD8F8042118
:10303000C2F30022002ADED0D8F8040100F07F019C
:10304000A14200D92146002003E0D8F8002004C5A1
:10305000401C8842F9D3641A002CC8D15FEACB70B7
:1030600008D0D8F80401C0F300200028F9D0D8F81F
:1030700000002880BDE8F05F09F076BF08C500A019
:1030800000E000A00A0708073C49800010B503686B
:103090000B44036092F900408B4201D2012000E012
:1030A00000202044107010BD2DE9F04107460E4667
:1030B0004FF000080024274D0BE004EBC40005EBA3
:1030C0008000801C07223946FFF762FB40B1641C78
:1030D000E4B22878A042F0D8B8F1000F18D102E08D
:1030E0004FF00108F8E728780A21B0FBF1F201FB64
:1030F00012040A2801D2401C287004EBC40105EB1D
:1031000081003968C0F80210B988C180B9790172AC
:103110002B7811A21021002003F41AF53078000753
:103120000BD504EBC40005EB800006F14601BDE8B9
:10313000F0410A301C22FFF776BB04EBC40005EB1C
:10314000800006F12A01BDE8F0410A301C22FFF799
:103150006ABB0000587B8000523A313A61646420B7
:103160006C746B206974656D2C206E756D203D202C
:1031700025640A000449896B084004490A78104311
:1031800000220A7070470000002001A04C4580001A
:10319000104A114900280EDC0868C0F341200128BC
:1031A00008D0506C401C5064086820F4C06040F4A3
:1031B0000070086070470A28FCDB086810F4C06FD4
:1031C000F8D0106C401C1064086820F4C0600860DF
:1031D000704700009C4580000CC500A0014878F4B1
:1031E0004B930000DC4380002DE9F04101460029AB
:1031F0001BD000240F4E0E4A357814E002EB041069
:103200000F780378BB420CD14B684068034208D06A
:10321000707808B900F0C2FB2046BDE8F04100F02C
:10322000EBBA641CE4B2AC42E8D3BDE8F081000024
:1032300054758000E84380007CB505460E46002D9D
:1032400001D0002418E005207CBD05EB0410416886
:103250000091017A8DF80410417A8DF8051007214C
:103260008DF80610C26800780023694600F048F81F
:103270000028E9D1641CE4B2B442E6D300207CBD4E
:1032800010B50C46062833D2DFE800F00303031024
:103290001E27184951F830002104090C04D018B138
:1032A000214606F05BFE1FE0042010BD2004000C48
:1032B00003D0A1B2104806F051FE200C14D0210C0E
:1032C0000E4806F04BFE0FE014F0FF0F03D020462F
:1032D00006F04AFC08E0042010BD14F0FF0F05D0F2
:1032E0002146002007F05AF8002010BD042010BD30
:1032F000062010BD40570101000001A0001001A0F0
:103300002DE9F05F05460C46904699462768002651
:10331000052D13D039462846FFF7B2FF214628462F
:1033200000F0ACF800280AD1042D0AD0032D2ED0CD
:103330004FF0100B2807060E002491E00620BDE890
:10334000F09F4FF0080B2079042806D0052809D0FB
:1033500006280DD0072815D110E00021384601F4C9
:1033600076F40FE040F20111384601F470F409E000
:103370004FF00111384601F46AF403E03B49384646
:1033800001F465F44FF0007075F4B2D6D4E74FF055
:10339000200BD1E7F80760D0052D65D2DFE805F0F6
:1033A000030303254600324800EBC50090F904A052
:1033B000BAF1000F17D0EFF31081012080F31088CD
:1033C000A01900EB40022B4800EB8200C0F80480FB
:1033D000C0F8089081F31088504618F41DD7504665
:1033E00018F438D739E00420A9E7EFF31082012060
:1033F00080F31088A0191F4B00EB400003EB800105
:10340000C1F80480C1F80890032103F8201082F36A
:103410001088062018F400D7062018F41BD70720C0
:1034200018F4FAD6072018F415D716E0EFF3108138
:10343000012080F31088A01900EB40020E4800EB39
:103440008200C0F80480C0F8089081F31088122030
:1034500018F4E2D6122018F4FDD67F08641CE4B2FA
:103460005C4597D300206AE7062068E70101010068
:1034700040570101F47180007473800070B58EB004
:1034800005460C46564901F164004DC8CDE90A02D3
:10349000CDE90C36D1E91E23486F06AED1F8801075
:1034A0000DC6099114224E49843101A8FFF700FA94
:1034B000ACB14C49062010F0B5FC4B49072010F088
:1034C000B1FC4A49122010F0ADFC4549444A2C3168
:1034D000062D7CD2DFE805F00606062141590520BD
:1034E0000EB070BD207931F810000B90607932F881
:1034F00010000C90A0790D9020680A903848143084
:1035000050F8350021880904090C04D018B10AA923
:1035100006F072FD59E00420E2E7207931F810004E
:103520000B90607932F810000C90A0790D90206813
:103530000A9020680104090C05D080B20A900AA9FB
:103540002B4806F059FD2068010C3ED0000C0A9073
:103550000AA9284806F050FD37E0207901EB400029
:10356000408A0790607902EB4000C0880890A079FB
:10357000099020680690207810F0FF0F03D006A86D
:1035800006F034FB21E00420AAE72079031F032B77
:1035900001D80720A4E702281AD001200290207940
:1035A00001EB4000808C0390607902EB4000808941
:1035B0000490A079059020680190207810F0FF0F0A
:1035C00009D001A9002006F031FF002088E704E0BF
:1035D00002200290E3E7042082E7062080E7000053
:1035E0002C570101EB498000E5498000E14980004A
:1035F000000001A0001001A010B502460C460020FA
:10360000062A26D2DFE802F00303030B1A1F114833
:1036100050F83200A1B2BDE8104016F458922104CF
:10362000090C03D0A1B20C4816F451D2210C10D0D1
:10363000210CBDE81040094816F44992A0B2BDE83B
:10364000104003F487B2A1B2BDE81040002006F09C
:10365000F0BE10BD40570101000001A0001001A004
:10366000002803D0024908600120704700207047FD
:10367000F043800070B505460024091F062917D2C3
:10368000DFE801F003070C111315284600F0A4F839
:103690000EE00124284600F09FF809E002242846A5
:1036A00000F09AF804E0032402E0042400E005247A
:1036B000034A214628461268BDE8704010470000C2
:1036C000F04380002DE9F0410446204600F0AEF8BA
:1036D00001462E4800230826025D00F10A0700F18A
:1036E0001405AAB1052A33D0082A2AD1092945D0C0
:1036F000082926D1295D491CC9B22955142920D38E
:103700002B5506552046BDE8F0410821FFF7B2BF12
:10371000052913D0042916D0072914D0082910D15F
:10372000295D491CC9B2295514290AD32B550655C0
:103730002046BDE8F0410821FFF79CBF3B5505211D
:103740000155BDE8F0812046BDE8F041FFF792BF8A
:1037500005290CD0395D491CC9B239553229F0D33D
:1037600003552046BDE8F0410521FFF783BF03550F
:103770002046BDE8F0410621FFF77CBF03552046F7
:10378000BDE8F0410921FFF775BF000034768000E5
:1037900070B504460D4600F00FF808B100F014F9BA
:1037A0000348044A2946005D5268BDE8704010474E
:1037B00048758000E84380000020064911F8102079
:1037C0000AB100207047401CC0B20A28F6D301207D
:1037D00070470000527680000349002201F8102053
:1037E00001EB40004270704752768000014A02F8B7
:1037F0001010704752768000024A012102EB40000F
:10380000417070475276800070B50024064D05EB7C
:103810004400407810B12046FFF754FF641CE4B226
:103820000A2CF4D370BD00005276800070B50021E0
:103830001D4B03F132051A5C002A09D0002403F164
:103840000A06012A0AD0022A12D0032A24D11FE034
:1038500015F8102002B301221A541DE015F81020AB
:103860001AB1345402221A5416E01C54042113E0F5
:1038700015F810204AB1325C521CD2B23254642A7C
:103880000AD3072103221A5406E005211C5403E041
:1038900015F8101011B10821084670BD1C54FFF72F
:1038A0009BFF0921F8E700002076800070470000A8
:1038B0002DE9F0410E4617460A2E02D80FB100231B
:1038C00020E00020BDE8F08103EB430410F8241051
:1038D000032901D0042913D100EB8405114AA97AE8
:1038E000D154104910F824200C3101EB031422703C
:1038F00069686160297A2172697A61720A49E160B6
:103900005B1CDBB2B342DFD3064831460C30FFF715
:1039100093FC0648067047600548FFF7A1FE0120AA
:10392000D0E7000048758000E9310001E8438000DD
:10393000913700012DE9F0410024124FDFF8488053
:1039400019E0002607EB041528786968FFF754FE94
:1039500010B9697A012902D0012802D005E00126B8
:1039600003E0687A022800D1012631462046FFF79D
:103970003DFF641CE4B298F800008442E1D3BDE846
:10398000F081000054758000E843800010B5FFF717
:10399000D1FFBDE81040FFF737BF000010B5074A60
:1039A0000121074800F048F800220A21044800F0ED
:1039B00091F904490120487010BD00008D390001C3
:1039C000F8758000E843800010B5034800F05DF80A
:1039D00002490020487010BDF8758000E84380005F
:1039E000002806D0002904D0024AD269002A00D05B
:1039F000104770472075800070B50D4616460D4C77
:103A000000280AD00178032911D80121A1760146A6
:103A10001A222046FEF707FF05E00020A0761A21B3
:103A20000448FEF7A4FFE5612662002070BD012076
:103A300070BD0000207580002DE9F04104460D4660
:103A40001746002D04D0012D02D00120BDE8F081E1
:103A5000CCB1C7B1EFF311860220FFF726FA8046FA
:103A6000FFF732FA401C0121814008EB0100C0B28F
:103A700080F3118800206070A570E761F0B280F3D8
:103A800011880020E2E70120E0E710B50446002C91
:103A90000CD0204600F0B0F9FF2060700021A1603A
:103AA000E160216161610020E06110BD012010BD75
:103AB000F0B5DDE90745059981614FF47A76A2FBFF
:103AC000061C03FB06C3002702FB0732C0E90212F3
:103AD00009196A41C0E9041200210162F0BD000029
:103AE0002DE9F0410446002C13D0EFF3118502209C
:103AF000FFF7DBF90746FFF7E7F9401C012606FA56
:103B000000F03844C0B280F31188124800212162CD
:103B10000EE00020BDE8F081D4E90432D1E9047C54
:103B2000DB1B72EB0C0202D2016A216203E0084641
:103B3000016A0029F0D104626670064820380168E5
:103B4000491C0160016C4160E8B280F311880120DA
:103B5000E0E70000F87380002DE9F04105460024FD
:103B6000EFF311860220FFF7A0F90746FFF7ACF943
:103B7000401C012181407818C0B280F31188134A9B
:103B8000106CE8B115B102F1200010E00446206A83
:103B900010641068401E10600CE0A94206D1116844
:103BA000491E1160296A01622C4603E00846016A39
:103BB0000029F2D124B1002020626070106C5060A6
:103BC000F0B280F311882046BDE8F081D873800000
:103BD0002DE9F041EFF311870220FFF766F9044663
:103BE000FFF772F9401C012181406018C0B280F3D8
:103BF0001188114D002608E02078012804D1E169E0
:103C000009B1A069884726702D6A2C6A002CF3D16F
:103C1000094D203D07E0E16909B1A0698847267098
:103C2000206AA8602662AC68002CF4D1F8B280F358
:103C300011880120BDE8F081F87380002DE9F04182
:103C4000EFF311870220FFF730F90446FFF73CF944
:103C5000401C012606FA00F02044C0B280F311880F
:103C60001B4DA5F1200829E0D4E90420D8E904136C
:103C7000521A60EB0300D8E906319A1A814120D329
:103C800026702046FFF768FFA078012802D0104870
:103C900018380DE0D8E90430D4E902219A184841D7
:103CA000C4E904202046FFF71BFF07E001F12000D4
:103CB00001680029FAD12162006804622C6A002C94
:103CC000D2D1F8B280F311880120BDE8F081000064
:103CD000F87380002DE9FF5F82460E4693464FF051
:103CE0000008BAF1000F20D0414886421DD8E6B145
:103CF000EFF311870220FFF7D8F80446FFF7E4F846
:103D0000401C012181406018C0B280F311885046E8
:103D100008F09AFE10B19AF8010040B1F8B280F3B1
:103D200011880F2004B0BDE8F09F0120FAE709F0E8
:103D3000A5FE04460D464FF47A7106FB01F02246BB
:103D40002B46002108F050FEDFF8A890B0B1D9F85A
:103D5000040048B1D0E90410091B60EB0500C9E973
:103D6000041009F027FF04E00021C9F81010C9F879
:103D700014104FF00108D9E9040106E0D9F8040055
:103D8000D0E90421101B61EB0501CDE902013246A7
:103D90000023CDF800B05046FFF78AFE5046FFF7EB
:103DA0009FFE10F015F84FF0E021D1F800014FF020
:103DB000806210F0806F01D0012000E0002018B96F
:103DC000C1F88022C1F80021B8F1000F0AD0D9F85B
:103DD0000400D0E90431D9E90402181A61EB0201A8
:103DE00009F082FEF8B280F3118800209AE7000003
:103DF000008AB907D87380002DE9F04104460025F8
:103E0000002C39D0EFF311870220FFF74EF8064659
:103E1000FFF75AF8401C012181407018C0B280F3AE
:103E200011886078012824D1144E7068A0420BD10B
:103E300009F024FED4E90432181A62EB0102C6E943
:103E4000040209F0B7FE01252046FFF785FE5DB1AB
:103E5000706848B1D0E90421D6E90403101A61EB77
:103E6000030109F041FE04E01DB9706808B909F0CA
:103E7000A1FEF8B280F31188BDE8F081D87380000C
:103E800070B504461A4D55F8240070300FF0E5FA6D
:103E900082B21646A2B155F8240090F8011101290A
:103EA0000ED0012180F80411802A0FD355F8240088
:103EB000802200F1800170300FF0E4FA80260CE0DF
:103EC00055F82410002081F8000170BD55F8240039
:103ED00000F1800170300FF0D5FA55F82400324619
:103EE00000F18001001D1DF4A5D50028EDD170BDA5
:103EF000CC438000704700002DE9F84304464B4E48
:103F000056F82400071D022C7ED290F86C10002970
:103F10007AD0012978D180F80111002556F82400C3
:103F2000D0E903120A44017D01F00101C91D02EB31
:103F300001084168CA6FC2F38002002AFAD090F8E3
:103F40000411E1B1DFF8E8906D1C56F82400001D63
:103F500007F024FB10280BD056F82400D9F80010E5
:103F60008068B1FBF0F000FB08F0B5EBC01FEBD9A7
:103F700056F8240070300FF070FA85B226E0B0F8E1
:103F80002480C58C001D1DF4CDD156F8240041F2CB
:103F9000883300EB0801491B8031001D2A461DF4BF
:103FA0000ED5E5E756F824000122703069460FF07F
:103FB00069FA56F824004068C16FC1F34001002936
:103FC000FAD09DF8001001606D1EADB2002DE9D150
:103FD00056F8240070300FF040FA0028C8D1386835
:103FE00041694906FCD5EFF31085012080F3108864
:103FF00056F8240070300FF030FA68B1EFF31081FA
:10400000012080F3108800E00DE03868426842F03B
:104010008202426081F3108856F82410002081F853
:10402000010185F31088BDE8F8830000CC438000CF
:10403000004180002DE9F04389B0054688462C7880
:10404000002D06D02AB1022C05D3082009B0BDE806
:10405000F0830520FAE7384E05F1580046F82400B1
:10406000D2E900310A46703019460FF0E1F9291DF6
:10407000894624220C316846FEF71AFC291D286D5A
:104080000EC910F08BFB0028E0D12C490C200FF05A
:10409000C9FE2B490D200FF0C5FE2A4800EBC407CE
:1040A00097F9010018F4B8D097F9010018F4D2D0AC
:1040B00056F82400C0F8649056F82400C0F8008038
:1040C00056F824001822083005F14001FEF7F0FBF5
:1040D00056F824107868486056F82400001D07F050
:1040E00031FA56F82400001D07F062FA351F012747
:1040F000287850B92F701348032110300EF0B2FF0A
:104100006880002801DA0420A0E756F8240080F82F
:104110006C7056F82410002081F8000156F8241025
:1041200081F8010156F8241081F8020156F8241094
:1041300081F803018AE70000CC438000892E00014A
:10414000992E0001CC5701012DE9F04104461A4D8A
:1041500055F8240070300FF080F982B2164600271F
:104160007AB155F8240090F80111012909D0802A6C
:104170000ED300F18001703080220FF083F9802689
:104180000BE055F8240080F800710020BDE8F081B4
:1041900000F1800170300FF075F955F8240080F8B7
:1041A000047155F82400324600F18001001D1DF411
:1041B00087D40028EAD1E9E7CC43800070B5022813
:1041C00001D3082070BD0C4D55F820407CB194F807
:1041D0006C6066B169B162B1002684F8026155F87D
:1041E0002000001D1DF4EBD30028EBD170BD05208D
:1041F00070BD042070BD0000CC4380002DE9F0416B
:1042000006460C46174604F10805204671F4D4D240
:10421000C3B21B48E1184268914202DD0320BDE8A9
:10422000F0811849184A006809681268891A081A42
:10423000001FE91881421CD94FF4004513A22946FA
:10424000002002F485F400F0F9FC30B118A22946F0
:10425000002002F47DF40820E1E71DA22946002099
:1042600002F476F43A4621463046BDE8F04110F0BB
:104270005DBC3A4621463046BDE8F04110F056BCE0
:10428000D8328000D0238000CC238000523A353AC7
:104290004E564453206172656120697320626569DE
:1042A0006E6720636F6D7061637465642E0D0A0024
:1042B000523A353A436F6D70616374696E67204E90
:1042C000564453206661696C65640D0A0000000065
:1042D000523A353A436F6D70616374696E67204E70
:1042E000564453207375636365737366756C0D0A6A
:1042F000000000007CB50D46002200920192694644
:1043000002F42AF4044634BB4FF42051684602F408
:1043100025F4B8B942F60101684602F41FF488B9E1
:1043200042F60301684602F419F458B942F6020154
:10433000684602F413F428B94FF42451684602F495
:104340000DF408B1062406E00098C5F30B0180883F
:1043500008430099888020467CBD00002DE9F0418B
:1043600005460C46FF26217A1E2905D022480279EF
:10437000521E52B200683AE004F10801284602F4E5
:10438000EFF3064635E010F832308B422DD11B4E4C
:1043900056F82500406F30B300273B4618A2402155
:1043A000002002F4D5F3062000EB05202BF4E2D721
:1043B000C00605D5002717A24021002002F4C8F34B
:1043C00021460C3956F82500743002F4CBF3002056
:1043D000A08001266FB115A2402102F4B9F328464E
:1043E00002F4C2F305E00127D7E7521E52B2002AB9
:1043F000C9DA3046BDE8F0817C058000C40E80003B
:10440000523A333A657865637574653D307825783E
:104410000A000000523A333A636F6E6E656374208F
:104420006E6F742063666D0A00000000523A333AE2
:10443000737461727420657865637574650A000031
:104440002DE9F0410546884628466BF479D6C0B27E
:104450002449097888420DD200EB4000213040F415
:1044600000404246AC210DF0F3FE0446200032D05D
:10447000012430E06BF4A8D6C7B207EB470606F17B
:10448000200040F400402A4607210DF0E1FE10B163
:104490000120BDE8F081384677F4E6D706F1210027
:1044A00040F400404246AC210DF0D2FE044620000C
:1044B00001D00120EDE7223646F4004073F4A6D087
:1044C0000949C7EBC7000968084429680160A98841
:1044D0008180A97981711CB941462846FEF7E4FD27
:1044E0002046D6E7382380003C2380000EF0ECBE47
:1044F00010B5FFF7FBFF054903480860BDE8104011
:10450000034877F42392000017B8800474C500A014
:104510000087930310B50446002C0CD0204600F011
:1045200051F8002807D104494968002903D02046E2
:10453000BDE81040084710BD2C4880000A2805D26D
:10454000034A002152F8200080F88F1070470000C5
:10455000C40E800070B504460D4620460FF09CF84E
:10456000002805D129462046BDE8704064F4229514
:1045700070BD000000B58BB0094901200870FF2212
:10458000282101A8FDF732FE4FF48070ADF8040039
:104590000020ADF8060001A8FFF7BCFF0BB000BD7E
:1045A0002C48800010B506480068002800D08047DD
:1045B00000F4DEF708B1012010BD002010BD00009E
:1045C0009447800070B50446002C1FD04FF6FF734F
:1045D0001946228840F20155A2F201504FF480762C
:1045E000AA424CD01BDC40F20245A2F20240AA4291
:1045F00034D00DDCA2F54072013A25D0012A23D037
:10460000FF2A29D0B2422ED121892CE0002070BD92
:10461000012825D0022825D0FE2824D12AE004280C
:104620002DD006DC01282AD0022828D003281AD150
:1046300025E0052823D0062821D0B04213D12046FA
:1046400004F07EFE002070BD204605F0C1F8204633
:1046500004F0D2FF002070BD218904E0218902E02E
:10466000618900E0218A99420ED0204605F0C0F809
:10467000012070BD204605F053F8002070BD204693
:1046800004F0CAFF002070BD002070BD70B5002688
:10469000150A0E4805EB450200EB0214098821803B
:1046A0000120A0702846FFF749FF00206BF4E8D5F1
:1046B0000748016829B10B681BB1228800212846F0
:1046C00098476BF413D6304670BD0000D42E80009E
:1046D000B82280003EB500241D0A0A78122A02D0B2
:1046E000132A04D006E000208DF8000002E001202B
:1046F0008DF800008888ADF804004888ADF8020005
:10470000891D029100206BF4BBD50B48016829B1CB
:104710008A691AB169462846904708E09DF800006A
:10472000012804D1BDF804102846FFF713FF6BF4ED
:10473000DDD520463EBD0000B4228000014800784F
:10474000704700004C4980007CB50E46150A0020D9
:10475000009001906946284675F410D69DF8062011
:104760006946284604F0FCFD0446CCB165F40ED43D
:10477000C0B165F40BD4C01C81B23288002320463E
:104780006FF4ECD7694628460EF0EEFF40B106A262
:104790004021002002F4DCF12146684661F454D146
:1047A00000207CBD0020E7E7523A333A736176651A
:1047B00020636363640A000010B58AB00446FF22D8
:1047C00028216846FDF712FD40F20271ADF8001095
:1047D0000021ADF802108DF804406846FFF79AFEFC
:1047E0000AB010BD00230849496808E0CA8882421F
:1047F00004D80A89824201D3CB6802E00968002903
:10480000F4D11846704700004049800070B519483F
:104810000468194D2878002801D0002070BD4FF0A1
:10482000806074F465D401F49DF4600875F470D36D
:10483000124908608817114901262C39086010496F
:104840007006C1F8FC01C8674FF03041086B40F0BA
:1048500007000863094C303C206840F4E0202060E9
:1048600001F4C2F42E70206820F4E02020600120C2
:1048700070BD00006C2480008C47800070C500A0D3
:1048800084E000E070B50024EFF31086012080F38F
:10489000108801F4C4F4104D28B102242968B9B17C
:1048A0000220884714E0FFF77DFE20B1296879B126
:1048B000002088470CE0FFF7A9FF28B102242968EF
:1048C00031B10220884703E0296809B100208847F8
:1048D00086F31088204670BD5C248000034900EBFD
:1048E000800001EB8000808870470000F445800064
:1048F000034A00EB800002EB8000818070470000DB
:10490000F44580002DE9F04FADF5477D80460D461A
:104910009146B9F5C07F05D96FF037000DF5477D99
:10492000BDE8F08F4FF4D0715FA8FEF720F801A822
:1049300009F05CFA63AC4FEA19608DF88C01641CD5
:104940004FEA19408DF88D014FEA19208DF88E013C
:104950008DF88F9130208DF89301E41D4A46294649
:104960002046FDF760FF802004F8090009F11909CD
:1049700000214BA84154491C2029FBDB4FF48072D5
:104980004BA901A809F036FAB0F1000B51D100276C
:1049900000265FAD4796489649964A964C460DF5D7
:1049A0008E7A19E000211AF801006A5C50400AF87A
:1049B0000100491C1029F6DB1035102C01D3102002
:1049C00000E02046241A47AB47AA012101A809F0BC
:1049D000FAF9B0F1000B2CD1002CE3D153A83844E4
:1049E000102247A9FDF71FFF9DF87F01401C8DF89D
:1049F0007F011037302FCCDB4FF4807253A901A810
:104A000009F0F8F9B0F1000B13D15BAE454633461F
:104A10003246012101A809F0D6F9B0F1000B08D106
:104A2000102231462846FDF7FEFE10351034302C9A
:104A3000EDDB01A809F0D3F94FF4D0715FA80DF0B8
:104A400051F8302153A80DF04DF820214BA80DF05E
:104A500049F8102147A80DF045F8BBF1000F03D02D
:104A6000302140460DF03EF8584657E710B500F0AB
:104A700065F800F047F8BDE8104000F001B800000C
:104A800000B58FB003228DF800204FF480500190C4
:104A900005218DF8081001208DF8090000238DF8FC
:104AA0000A308DF80C20430304938DF814108DF810
:104AB00015008DF816008DF81820C30307938DF8A4
:104AC00020108DF821008DF822208DF824208203FB
:104AD0000A928DF82C108DF82D0002228DF82E20D0
:104AE00004238DF830300D928DF838108DF8390090
:104AF0008DF83A30024A6846FEF7DAFE0FB000BD84
:104B0000AD3800017CB51026009602248DF80440D3
:104B10008DF8054007258DF8065069460320FEF7FD
:104B2000ADFC00968DF804408DF805408DF80650D8
:104B300069460520FEF7A2FC7CBD000000B587B0E9
:104B400000F01EF803208DF800001D208DF81600DF
:104B500001208DF817008DF818008DF81900044A0F
:104B600004496846FEF748FFFEF738FB07B000BD72
:104B7000794B0001D14B00010020FFF7BDB90000C7
:104B80001CB5114800904FF48064019400F58060DA
:104B9000002101704FF4E132026403224264816417
:104BA000C1640165012141650274CB0243610223A6
:104BB0004374017602718460437101736A4603494C
:104BC000FFF738FA1CBD0000406C8000F53E000184
:104BD0000A4601464FF47A730020FFF7EFBA00004F
:104BE0000E4910F1210F06DA086820F4704040F4F5
:104BF00040500860704710F11D0206D3086820F489
:104C0000704040F48040086070470A28FCDD086866
:104C100020F4704040F4A0400860704724C500A014
:104C200010B50EF0FBFC0EF007FA0FF00DFB00F0D4
:104C300029FDBDE810400EF0E9BC00002DE9F04F61
:104C400087B07B48D0F8009000240025A2460026BB
:104C50000FF048FC77480168C9F800104068C9F8AF
:104C60000400754800680830059009F108000690B6
:104C7000042203A9059800F0A3FCBDF80C10A1F5CF
:104C80007F40FF3843D0082203A9059800F098FC24
:104C9000BDF80E0070F490D500F0FF08BDF80C00D0
:104CA000002867D00698A9EB000707F58057BDF8E4
:104CB0000E1008F1080083460844B84263D805ABDB
:104CC000082203A906A800F0D7F8BDF80E000023BB
:104CD00000EB080205A906A80EF042FA641CBDF814
:104CE0000E005844B842C3D10020CDE900605346BD
:104CF0004A46214628460FF02FFE002826D182463C
:104D000000260024CDF818906D1CEDB2B0E700200D
:104D1000CDE9006053464A46214628460FF01CFE66
:104D2000002813D16D1CECB2434D4FF48057434E15
:104D300008E0286800EB0430394605F085F840B1FA
:104D4000641CE4B2707AA042F3D8002007B0BDE83A
:104D5000F08F3B488169407A40F26242CDE9002001
:104D60000291384B38A24FF40041002001F4F0F6D4
:104D70000920EBE7BDF80E00059908F10808084482
:104D80004044059074E7082F29D305AB082203A9F6
:104D900006A800F071F8083F2FB100233A4605A994
:104DA00006A80EF0DDF9611C0020CDE90060534635
:104DB0004A4628460FF0D0FD0028C7D18246BDF8EC
:104DC0000E004044C61B0024CDF818906D1CEDB2B7
:104DD0000023324605A906A80EF0C2F948E705AB44
:104DE0003A4603A906A800F047F8611C03A8CDE9DC
:104DF000006053464A4628460FF0AEFD0028A5D174
:104E0000C7F1080ABDF80E0000EB08060024CDF833
:104E100018906D1CEDB20123524605A906A80EF0AC
:104E20009FF90023324605A906A80EF099F91FE75D
:104E300098458000ACD50700CC238000D832800094
:104E4000641F8000067F0101523A353A25732C20F9
:104E50004C256420666C61736820737461746520EE
:104E60003078253032582C206572726F722030787D
:104E7000253038580D0A000070B5044615461E4608
:104E80002A462068FDF7CFFC30682844306020684F
:104E90002844206070BD000010B50548017B491C06
:104EA0000173002074F4A2D6BDE8104000F050B8A1
:104EB0009C4580002DE9FE43FFF718FB1E48016862
:104EC00021F4003101601C4E083E30681B4980B25D
:104ED000084330601A4803C8CDE9000116482C3851
:104EE0000068C82100F007001DF8000010FB01F564
:104EF00014480768144CD4F800803846414604F042
:104F0000E9FE62686068831AAB42FBD341463846CB
:104F100004F0C0FE0EF0E4F802909DF8080028B1FD
:104F20009DF80800094948618861C861306820F02F
:104F30007F403060BDE8FE8330C500A000008F11C7
:104F4000CC510001FCED00E0001000E09C45800029
:104F50002DE9FC412D4E306820F07F4040F0885014
:104F600030602B4803C8CDE9000128482438006888
:104F700000F007011DF80100C82110FB01F52548CC
:104F80000768254CD4F800803846414604F0A2FE5C
:104F900062686368981AA842FBD34146384604F019
:104FA00079FE00250EF09CF80446DFF87080D8F8F2
:104FB0001800844201D9012700E0002774F4BCD412
:104FC00040B91FB1D8F81800201A02E0D8F818002C
:104FD000001BC5B2D8F81800C8F82000B5EB900F38
:104FE00003D8292C01D8112C02D200F019F807E0BF
:104FF00000EBC00020440A21B0FBF1F0C8F8180013
:10500000306820F07F403060BDE8FC8128C500A0FA
:10501000CC510001FCED00E0001000E09C45800058
:105020002DE9F04F87B0002006900824DFF890812A
:105030001A20C8F8140063480168634A89B2114312
:10504000016005A8FDF7CEFE0220FDF7D3FEDFF8D4
:10505000749109F10809D9F8000020F47C3040F47B
:105060002030C9F8000059A003C8CDE90201DFF8DB
:1050700054A1AAF1240ADAF8000002A900F00700FE
:10508000085CC82110FB01F5DFF848B1DBF800002F
:105090000190514F3E680198314604F01BFE78683C
:1050A0007968091AA942FBD33146019804F0F2FD50
:1050B0000EF016F804909DF81010D8F814008142F4
:1050C00004D99DF81020811C8A4263D99DF81010E4
:1050D000814204D29DF81020811E8A425AD29DF846
:1050E0001010814201D9012500E0002515B1641C92
:1050F00064B201E0641E64B2202C11D3D9F8000020
:1051000020F47C3040F42030C9F80000D8F83C008E
:10511000401CC8F83C00002004900120069039E0B3
:10512000D9F8000020F47C3040EA043040F400302C
:10513000C9F8000025A003C8CDE90201DAF8000093
:1051400002A900F00700085C642110FB01F6DBF8FF
:105150000000019038680090DDE9001004F0BAFD0D
:1051600078687968091AB142FBD3DDE9001004F0D0
:1051700091FD0DF0B5FF049035B19DF81000D8F801
:1051800014108842B2D805E09DF81000D8F8141029
:105190008842ABD39DF81400FDF72CFE0948016846
:1051A00021F07F4101609DF81000C8F81800D8F880
:1051B0002400401CC8F82400069807B0BDE8F08F12
:1051C0009C45800028C500A000008F1140301018B9
:1051D00010200000FCED00E0001000E070B5044677
:1051E0000D46002C0AD0206840B13DB1294620462A
:1051F00000F04EFC28B142F2137070BD42F2107004
:1052000070BD294604F1640040220546FDF750FBBD
:1052100004F1A4032A46211D204607F01BFB0020B1
:1052200070BD10B50446002C0ED0206860B1211D61
:10523000204600F0E8FB04F124030022211D204653
:1052400007F008FB002010BD42F2107010BD70B5D1
:1052500004460D46002C18D0102104F124000DF056
:10526000DFFB102104F164000DF0DAFB102104F1E2
:10527000A4000DF0D5FB0821201D0DF0D1FB29461F
:105280002046BDE8704000F0D7BB70BD70B5044645
:105290000D46002C13D0102104F124000DF0C0FBAA
:1052A0000821201D0DF0BCFB082104F164000DF065
:1052B000B7FB29462046BDE8704000F0BDBB70BD7D
:1052C0002DE9F04389B00546DDE910890C46164604
:1052D0001F46202101A8FDF74AFB42F21070002D65
:1052E0000FD0002E0DD07CB1012C0AD101AA394675
:1052F000304607F0DDFA4B46424601A9284600F049
:10530000C9F909B0BDE8F0833A46314601A8FDF776
:105310008AFAF0E72DE9F04389B00546DDE9108906
:105320000C4616461F46202101A8FDF720FB42F23D
:105330001070002D0FD0002E0DD07CB1012C0AD1A1
:1053400001AA3946304607F0B3FA4B46424601A956
:10535000284600F083FA09B0BDE8F0833A463146AA
:1053600001A8FDF760FAF0E7F0B589B004460E46F3
:10537000202101A8FDF7FBFA4FF0FF35ACB1A6B133
:10538000E768384604F04CFE384604F0A7FE41F2C8
:105390008830009001AB38462268A16804F08AFF8B
:1053A000044624B1284609B0F0BD2846FBE7202278
:1053B00001A93046FDF737FA384604F031FE2046A1
:1053C000F1E7002802D009B1FFF7CEBF4FF0FF3060
:1053D000704770B50446002C0DD0A068002510B1B0
:1053E000FCF75DFFA560E06810B1FCF758FFE560D1
:1053F00025606560A56070BD10B50446002C0FD017
:10540000002020606060A060E0607C20FCF718FF56
:10541000E060002804D0BDE810407C21FDF785BA8B
:1054200010BD000070B50446002C11D0A068002506
:1054300020B1FCF734FFA56065602560E06806498F
:105440000160102141608560C5604561002070BD2C
:105450004FF0FF3070BD0000005801A02DE9F0476B
:1054600005460F469046296801EB080900244FF0D5
:10547000FF3A002D17D0B7B1A86810B16868484549
:105480002BD24FEAE97009EB9060012101EBA010EB
:1054900080016860FCF7D4FE0646300006D06968DB
:1054A000FDF743FA08E05046BDE8F0875046FBE7B9
:1054B000A868005D3055641C2868A042F8D8002018
:1054C00003E0395C3155641C401C4045F9D3A868A1
:1054D00008B1FCF7E4FEAE6008E0002004E0AB6831
:1054E0003A5C5A54491C401C4045F8D3C5F800901A
:1054F0000020D9E780EA0102431A9343114019437F
:10550000C80F70472DE9F04F8DB0804689460DF1E8
:10551000040B302101A8FDF72AFA002708F1200A20
:10552000102408EB040515F8010D401C10F0FF06CF
:105530002E7002D1641E002CF3DC5B464246012132
:10554000504608F040FC041E1AD10BF1100B103726
:10555000302FE5DB002301A919F80320C85C504077
:10556000C8545B1C302BF7DB4FF4807201A9504606
:1055700008F040FC041E03D109A80FC8A8E80F00DA
:10558000302101A80CF0AEFA0DB02046BDE8F08F36
:105590000A49322808DDD1F8200220F4706040F476
:1055A0004070C1F8200270472828FCDAD1F82002A8
:1055B00020F47060C1F820027047000000E000A0F5
:1055C0002DE9F04105460E461746094C2378002B7D
:1055D00002D0002070F464D43A463146284604F0E4
:1055E00073FC0546207870F45BD42846BDE8F08152
:1055F000C92380002DE9F04105460E461746094CA7
:105600002378002B02D0002070F44AD43A46314669
:10561000284604F069FC0546207870F441D42846F9
:10562000BDE8F081C92380002DE9F0410E46054612
:105630001146E86DC01DC408A34200D81C4622468E
:1056400030460CF023F8071E18D1E86DB0EBC40FFC
:1056500006D2C0EBC40130460CF0DAF8071E0DD1BB
:1056600005F14C010C4630460BF098FA002805DB9A
:105670002246314630460CF0D0F907463846BDE8A0
:10568000F08100000121024A00206AF46D920000BE
:10569000999900012DE9F043DDB006460C46174606
:1056A0009846202155A8FDF762F9402145A8FDF74D
:1056B0005EF920213DA8FDF75AF9202135A8FDF714
:1056C00056F920212DA8FDF752F9202125A8FDF734
:1056D0004EF942F21070002E7ED03568002D7BD03E
:1056E000002C79D0002F77D0B8F1000F74D0202291
:1056F00021463DA80CF00FFF00203DAC54F82020BF
:10570000C0F1070154F8213044F8203044F821203A
:10571000401C0428F2DB20211DA8FDF728F92021D8
:1057200015A8FDF724F920210DA8FDF720F9202167
:1057300005A8FDF71CF906F164000821814600F078
:105740002FFA40B14946304600F05DF92022494623
:1057500055A8FDF7ADF8202255A925A8FDF7A8F812
:105760001DA9304600F04FF915A9304600F04BF95D
:105770000DA9304600F047F905A9304600F043F97D
:1057800045AB002255A9304607F064F805F18402C4
:105790003B46914645A9304607F03EF83DAB4A46A8
:1057A0003DA9304607F038F835A80490301DCDE902
:1057B000027581460090019455AB15AA1DA930468B
:1057C0000EF014FA202225A955A8FDF771F82DA88E
:1057D00055AB05AA0DA900E039E0CDE90094CDE96B
:1057E0000275049030460EF001FA08232DAA35A95F
:1057F00019480CF0B9FE42F2117508B12C460CE0C4
:1058000000244FF48072002135A80CF05DFE08B32F
:10581000202235A94046FDF74BF87CB108214046CF
:105820000DF0FEF8082138460DF0FAF8082155A8C9
:105830000DF0F6F8082125A80DF0F2F8082135A89A
:105840000DF0EEF808212DA80DF0EAF820465DB025
:10585000BDE8F0832C46E0E771C800012DE9F04770
:10586000F4B00546894617469846002620216CA8C4
:10587000FDF77DF8202164A8FDF779F820215CA8C8
:10588000FDF775F8202154A8FDF771F820214CA8E8
:10589000FDF76DF8202144A8FDF769F820213CA808
:1058A000FDF765F8202134A8FDF761F8402124A810
:1058B000FDF75DF8402114A8FDF759F8402104A830
:1058C000FDF755F842F21070002D6BD02C68002CBB
:1058D00068D0002F66D0B8F1000F63D0202249466F
:1058E00034A80CF018FE002034AA52F82030C0F181
:1058F000070152F821C042F820C042F82130401C74
:105900000428F2DB04F184024CAB91463946284668
:1059100006F082FF44AB4A464146284606F07CFF2B
:105920004FF480784246002138460CF0CDFD42F21B
:10593000127AD0B364AB4A4634A9284606F06CFF0D
:105940006CA9D4F8C400CDE9000104F1A4031F46FA
:105950004A4644A9284600F02FF954F8C40F5CA920
:10596000CDE9007002914B466CAA64A9284600F06C
:105970003EF9206854A9CDE9007002914B466CAA0B
:105980004CA9284600F033F914AB00225CA9284644
:1059900006F060FF14A9284600F07AF842F213746A
:1059A00030B1204674B0BDE8F087FFE7564628E0E6
:1059B00004AB05F1240254A9284606F04BFF04A9C4
:1059C000284600F065F808B12046EBE724AB04AAAE
:1059D00014A9284600F030F93CAB4A4624A92846D1
:1059E00006F01AFF24A9284600F052F808B1204614
:1059F000D8E742464CA93CA80CF04EFD08B15046F1
:105A0000D0E73046CEE770B50D46002813D000240D
:105A10000668843606F02CFF45F82400641C082C28
:105A2000F8D329683068814201D3401E2860E869B4
:105A300040F00200E86170BD10B504460846002C35
:105A400002D00CF0B5FD206010BD0021002802D16D
:105A500042F21070704750F821201AB900EB810211
:105A6000126A0AB100207047491C0829F3D30120AB
:105A70007047002150F821201AB900EB8102126A08
:105A80000AB100207047491C0829F3D30120704750
:105A90002DE9F041B2B005460E4620212AA8FCF7B8
:105AA00066FF202122A8FCF762FF20211AA8FCF73C
:105AB0005EFF202112A8FCF75AFF20210AA8FCF75C
:105AC00056FF202102A8FCF752FF1DB9286808B92B
:105AD000002E60D02C682AA904F14003D4F880007D
:105AE000CDE9000104F160021F4690463146284688
:105AF00006F0A6FE22A954F8800FCDE900013B462E
:105B0000424606F12001284606F09AFE1AAE2068A9
:105B1000CDE900063B462AAA2AA9284606F090FEAF
:105B20002068CDE900063B462AAA1AA9284606F0B5
:105B300087FE54F8800912A9CDE900013B462246B0
:105B40002AA9284606F07CFE0AAE3B4612AA1AA9EC
:105B50002846009606F058FE3B4604F120020AA9AA
:105B60002846009606F050FE02A9D4F88000CDE940
:105B700000013B4622AA22A9284606F061FE4FF406
:105B8000807202A90AA80CF087FC38B142F21370A7
:105B900032B0BDE8F08142F21070F9E70020F7E77B
:105BA000002205E050F822300BB100207047521C53
:105BB0008A42F7D3012070472DE9F8430746DDE913
:105BC00008850E4614464FF48072002130460CF0D2
:105BD0007BFC002809D02078C00706D04346224627
:105BE00031463846009506F023FEBDE8F8832DE9DE
:105BF000F047C2B00646DDF828814C9D4B9C894693
:105C000092461F464FF4807102A8FCF7B0FE02A82E
:105C1000CDE900403B4652464946304606F010FE6C
:105C20003B46424602A93046CDE9004506F008FE53
:105C300042B0BDE8F08700002DE9F04FD5B08146B5
:105C40000F4690461E4620214BA8FCF790FE2021CF
:105C500043A8FCF78CFE20213BA8FCF788FE2021FE
:105C600033A8FCF784FEB9F1000F13D0D9F8004037
:105C7000002F0FD0B8F1000F0CD0002E0AD0002C4E
:105C800008D03846FFF7E1FE38B1402241463046A1
:105C9000FCF70EFE55B0BDE8F08F4046FFF7D5FE8D
:105CA00028B1402239463046FCF702FEF2E7402296
:105CB00041463846FCF76CFD010007F120000DF568
:105CC000967A54907BD0402241463846FCF760FDDE
:105CD000002873D020212BA8FCF749FE202123A8FF
:105CE000FCF745FE20211BA8FCF741FE2BA804F180
:105CF000400300901D4608F120014846549A06F0E2
:105D00008FFD23A800902B463A464146484606F0B0
:105D100087FD1BA9D4F88000CDE9000104F16003E0
:105D20009B462A4623A94846FFF746FFD4F8800041
:105D30002B46CDE900B01BAA2BA9CDF808A04846F8
:105D4000FFF755FF04F1600043AAD4F880108DE8F6
:105D50000700834604F140039A464BAA4BA94846E4
:105D6000FFF745FF3BAD53463A4643A948460095E9
:105D700006F056FD534642463BA94846009606F0BB
:105D80004FFD33A80090534632463946484606F048
:105D900047FDD4F880005346CDE900B033AA4BA9A3
:105DA00002954846FFF723FF2036534600963BA94D
:105DB0004846549A06F034FD6CE700E076E04FF474
:105DC0008072002154980CF07FFB002869D02021BC
:105DD0002BA8FCF7CCFD202123A8FCF7C8FD20212F
:105DE0001BA8FCF7C4FD202113A8FCF7C0FD20224E
:105DF00031490BA8FCF75CFD20222F49203103A874
:105E0000FCF756FD0DF1AC0BD4F88000CDE9010B89
:105E100004F1600504F140033A4639460095539376
:105E20004846FFF7E4FE54F8801F1BA8CDE9005157
:105E300002902BAA03A94846539BFFF7D8FE13A84C
:105E4000009003AA1BA94846539B06F0E9FC206872
:105E5000CDE9010B00950BA94846539B549AFFF7D7
:105E6000C6FE20222BA923A8FCF722FD1BA821682F
:105E7000CDE900102B462BA94846539AFFF79CFE0C
:105E8000202223A92BA8FCF713FD54F88009CDE9A3
:105E9000010A00951BAA13A94846539BFFF7A7FECA
:105EA00050E740213046FCF762FDF3E640213046E2
:105EB000FCF75DFDEEE60000387C01012DE9F043C2
:105EC000AFB004460E460025402118A8FCF74FFD50
:105ED000202110A8FCF74BFD202108A8FCF747FD66
:105EE000914892494FF00009C0F80090001D884287
:105EF000FAD1CDF8B090CDF8A890A0684009400044
:105F00002B90E06818AF0DF1400801287DD0706833
:105F10002A9A016820460CF06FFD2069804718908E
:105F200000208349834A189B00F1010C03FB0CF30A
:105F300047F8203000EB400C189B8C4403FB0CF31B
:105F400000F1080C47F82C3000EB001C189B94441F
:105F500003FB0CF348F82030401C0828E3D32068EA
:105F6000016C41F480710164A0684000A0601022BF
:105F700018A920460CF040FDA0684008A0606168A8
:105F80002022403120460CF037FD61682822603124
:105F900020460CF031FD70683022416820460CF03C
:105FA0002BFD706838224168204620310CF024FD1A
:105FB000402210A920460CF01FFDD0222046616827
:105FC0000CF01AFD6168D822203120460CF014FD37
:105FD000002008AA4021636801EB8007DB59DB43FE
:105FE00042F82030401C0828F5D30F98401C0F9031
:105FF000C82208A920460CF0FFFCD4E90001D1F822
:1060000080108163A168206800E019E007F06CF956
:10601000306800286ED0206850F8801F41F00701DA
:106020000160206850F8841F41F00301016020687E
:10603000016841F0020101602FB02846BDE8F083FD
:1060400020216846FCF793FC20698047079020696F
:1060500080470690069840F0004006900025206991
:10606000804747F825002069804705F1080147F877
:1060700021002069804748F825006D1C082DEED3CB
:10608000694620462A9A0CF0B7FC61682B9A843145
:1060900020460CF0B1FCA168206807F025F96020CB
:1060A0002890CDF8A49041F288302E9028A920465F
:1060B0000CF06EFB70682B9A016820460CF09CFC7B
:1060C000A0684100206807F00FF97020289028A9E7
:1060D00020460CF05DFB0546206927688047B866BE
:1060E000206927688047B8672068016C41F4007117
:1060F000016434E72068016841F002010160002278
:1061000001212046F3680CF037FC0546280005D134
:106110002068D0F88000800700D50125206801683C
:1061200021F00201016087E7004801A0005001A0B2
:1061300071D9BCFA1111E1DF2DE9F04FF7B080AE53
:10614000044696E8C0018A4691469B466EA809F02F
:10615000BBF820783D4D03280CD00C280AD08DE8E0
:10616000C0014B465A466EA9204608F0F7FF041EB0
:1061700064D158E020212CA8FCF7F9FB40211CA891
:10618000FCF7F5FB202114A8FCF7F1FB442103A840
:10619000FCF7EDFB2078032803D00C2806D02C4612
:1061A0004CE0002135A8FFF752F803E0012135A8A3
:1061B000FFF74DF820222CA958460BF05BFC41203C
:1061C00003ADCDE9005034AB00224946204609F02A
:1061D000D9F84022691C1CA8FCF725FB2CAA082131
:1061E0002CA80DF036FE1CAA10211CA80DF031FEC3
:1061F00020222CA936A8FCF75BFB1CA935A8FEF7CA
:10620000EDFF0446D4B920225EA914A8FCF750FB88
:1062100014AA082114A80DF01CFE202214A950462F
:106220000BF034FA0AE06EA808F06CFF08B12C46B7
:1062300004E06EA950460AF0FCFC04466EA809F082
:1062400031F877B02046BDE8F08F000080B0FFFF46
:106250002DE9F047E2B00546DDF8AC816A9F89463A
:1062600092461E46287803280AD00C2808D03B46C0
:1062700032464946284608F051FE041E54D149E0F2
:1062800020215AA8FCF773FB442149A8FCF76FFBB7
:10629000402139A8FCF76BFB04208DF824012878F5
:1062A000032803D00C2806D0214C3DE0002168468D
:1062B000FEF7CDFF03E001216846FEF7C8FF684600
:1062C000FEF7AFFF044624BB202201A95AA8FCF721
:1062D000EFFA402209A939A8FCF7EAFA5AAA0821DC
:1062E0005AA80DF0B6FD39AA102139A80DF0B1FD5C
:1062F000402239A90DF22510FCF795FA20225AA95F
:1063000048460BF0C3F9412349AA5146284608F0F4
:10631000EBFF09E08DE8C00105F128034A4651462C
:10632000284608F01BFF044662B02046BDE8F0870F
:1063300080B0FFFF2DE9FF4F9BB00646DDE92C9AA8
:1063400018AF19AD0CA805900491307808F07EFACA
:1063500098B1706D88B101211E980AF008FC0028E0
:1063600007DB06F14C011A911E980AF017FC002871
:1063700005DB54481FB0BDE8F08F5348FAE70FA87B
:1063800008F0A2FF0CA80AF00CFF09A80AF009FF08
:1063900006A80AF006FF4FF00008CDF86080DFF88D
:1063A00024B1ABF1800B3868411C39600A2801DD4B
:1063B0005C4679E0C5F800802868411C29600A28FD
:1063C00001DD5C4670E0DDE92A233046059908F0DE
:1063D000A5FD041E68D1CDE9009A06F12803CDF889
:1063E00008800FA93046059A08F0B8FE041E5BD15C
:1063F0000FA91A9A04980BF095F8041E54D10021A5
:1064000004980AF0B4FB0028D6D0DDE9282309A9B6
:106410003046FFF709F9041E46D153464A4606A9FD
:10642000304608F07BFD041E3ED1DDE91D020499D3
:106430000BF0C8F8041E37D109A909A81D9A0AF063
:1064400014FB041E30D106AA09A909A80BF0BAF85A
:10645000041E29D1059906AA08460BF0B3F8041EBC
:1064600022D105991A9A08460BF05CF8041E1BD13C
:106470001A9A05991D980AF09AFE041E14D11D99C6
:1064800009AA08460BF09EF8041E0DD11D991A9A10
:1064900008460BF047F8041E06D100211D980AF0AB
:1064A00066FB00283FF47FAF0FA808F0FBFE0CA8A6
:1064B0000AF0ADFD09A80AF0AAFD06A80AF0A7FD9A
:1064C000204657E780B3FFFF80B0FFFFF0B5A5B0CF
:1064D000074615461C460DF1930001900A4602A995
:1064E00001A807F04DFE00281FDB06463A4602A928
:1064F00001A807F045FE002817DB0644324602A932
:1065000001A807F0CFFD00280FDB0644302202A9C6
:1065100001A807F074FE002807DB0644324628462F
:106520000199FCF780F92660002025B0F0BD00003D
:106530002DE9F04F99B00546DDF888A00C4693464A
:1065400099460DF13C080CAF03A808F0BDFE15A854
:106550000AF027FE12A80AF024FE0FA80AF021FE76
:106560000CA80AF01EFE287808F070F9F0B1686DEA
:10657000E0B1012150460AF0FAFA3C4E002813DB44
:1065800005F14C01504618910AF008FB00280BDA7F
:10659000012123980AF0EBFA002805DB18992398CB
:1065A0000AF0FCFA002805DB34464DE0304819B00B
:1065B000BDE8F08F5B46224615A92846FFF734F860
:1065C000041E41D112A8189A23990AF0F0FD041E66
:1065D0003AD112AA15A940460AF0F4FF041E33D19D
:1065E00041464046189A0AF09DFF041E2CD112AA7B
:1065F000514638460AF0E6FF041E25D13946384692
:10660000189A0AF08FFF041E1ED1CDE9007902907E
:1066100005F12803424603A9284608F005FE041E9A
:1066200012D103A808F06EFD08B134460CE003A9AE
:1066300003A8189A0AF076FF041E05D1514603A854
:106640000AF0ACFA00B1344603A808F02BFE15A8F6
:106650000AF0DDFC12A80AF0DAFC0FA80AF0D7FC59
:106660000CA80AF0D4FC2046A1E7000000B2FFFF0E
:1066700080B0FFFF2DE9F04395B080460F461646E7
:106680001D4606F11800002181460AF070FA98B103
:10669000286A05F1180420B1002120460AF067FAA3
:1066A00078B1286A90B1012120460AF060FA68B1F9
:1066B0007D4815B0BDE8F0832946384608F014FC43
:1066C000F7E73146384608F00FFCF2E712A80AF067
:1066D00068FD0FA80AF065FD0CA80AF062FD09A884
:1066E0000AF05FFD06A80AF05CFD03A80AF059FD58
:1066F00068460AF056FD4B464A4612A940460AF043
:1067000050FF041E41D14B4612AA0FA940460AF081
:1067100048FF041EF6D12B4612AA12A940460AF0E1
:1067200040FF041EEED105F10C030FAA0FA940464D
:106730000AF037FF041EE5D1334612AA12A94046DB
:106740000BF04EF9041EDDD106F10C031D460FAA15
:106750000FA940460BF044F9041E16D1002112A8DF
:106760000AF005FA40B112AB4A46694640460AF0C3
:1067700018FF041E09D110E000210FA80AF0F7F954
:1067800020B1384608F05CFE044676E032463946D1
:10679000404600F096F904466FE012AB12AA0CA92D
:1067A00040460AF0FEFE041E67D112AB0CAA09A9EE
:1067B00040460AF0F6FE041E5FD133460CAA0CA92F
:1067C00040460AF0EEFE041E57D10CA912A80AF0AA
:1067D00030FA041E51D1012212A940460AF0FFFFEF
:1067E000041E4AD10FAB0FAA06A940460AF0D9FEF3
:1067F000041E42D112AB06AA06A940460BF0F0F8DF
:10680000041E3AD109AB06AA06A940460BF0E8F8E7
:10681000041E32D106AB0CAA0CA940460BF0E0F8DE
:10682000041E2AD10FAB0CAA0CA940460AF0B9FEEF
:10683000041E22D12B4609AA09A940460AF0B1FE3E
:10684000041E1AD109AB0CAA03A940460BF0C8F8E4
:10685000041E12D106A938460AF0EBF9041E0CD129
:1068600003A907F10C000AF0E4F9041E05D16946FA
:1068700007F118000AF0DDF9044612A80AF0C7FB78
:106880000FA80AF0C4FB0CA80AF0C1FB09A80AF083
:10689000BEFB06A80AF0BBFB03A80AF0B8FB6846DB
:1068A0000AF0B5FB204604E780B0FFFFF0B587B0E3
:1068B00005460F46002138460AF059F9394E00289E
:1068C00013DB07F10C00002104460AF050F9002800
:1068D0000BDB291D38460AF061F9002805DA291D6D
:1068E00020460AF05BF9002802DB304607B0F0BD15
:1068F00004A80AF056FC01A80AF053FC23462246DD
:1069000004A928460AF04DFE041E42D13B463A46F1
:1069100001A928460AF045FE041E3AD1A86948B1EB
:1069200005F1100301AA01A928460AF084F8041E03
:106930002FD117E0032201A901A80BF03AF8041E99
:1069400027D106E02A1D01A901A80AF08EF8041E2D
:106950001FD10198002805DA002101A80AF007F9E3
:106960000028EFD13B4601AA01A928460AF019FEEA
:10697000041E0ED105F11C0301AA01A928460AF044
:106980005AF8041E05D101A904A80AF007F900B1BC
:10699000344604A80AF03BFB01A80AF038FB204665
:1069A000A4E7000080B3FFFF2DE9F04706460F463D
:1069B00090469946791C3046FBF7B7FF00250EE05C
:1069C000002409E007FB045148460AF0B0FB715D62
:1069D000A04008437055641C4445F3D36D1CBD4270
:1069E000EED30021012017E0325C02EA01084A40A0
:1069F00002F00101C1F10103341814F8015D15FB27
:106A000003FC02EA0C0141EA080182EA0C0232545A
:106A100045EAC3122270401CB842E5D9BDE8F087B0
:106A20002DE9F04786B00446DDE90E858946164615
:106A30001F4603A80AF0B5FB68460AF0B2FB04F152
:106A40004C00002182460AF072FB012803D018484E
:106A500006B0BDE8F087002148460AF068FB40B167
:106A600000202870494603A80AF0E3F8041E16D156
:106A700001E00120F5E74A46514668460AF0CDFF9D
:106A8000041E0CD12A78694603A80AF030FE041EC1
:106A900005D103AB424639463046FFF785FF6846CD
:106AA0000AF0B5FA03A80AF0B2FA2046D0E70000CF
:106AB00080B0FFFF10B508461146FBF736FF0020F7
:106AC00010BD2DE9F0438DB005460F4616460AA8C5
:106AD0000AF067FB07A80AF064FB04A80AF061FB50
:106AE00001A80AF05EFBA86906F1180840B1334618
:106AF000324607A928460AF054FD041E7DD135E030
:106B00004346424607A928460AF04BFD041EF5D12C
:106B100007AB324604A9284609F08DFF041EEDD1CB
:106B200007AB324601A928460AF05AFF041EE5D1F8
:106B300001AB04AA07A928460AF033FD041EDDD1E3
:106B4000032207A90AA80AF020FD041ED6D106E0F8
:106B50002A1D0AA90AA80AF0DAFE041ECED1291DB0
:106B60000AA80AF01BF80028F2DA3BE0032207A982
:106B70000AA80AF00AFD041EC0D106E02A1D0AA9CF
:106B80000AA80AF0C4FE041EB8D1291D0AA80AF0FA
:106B900005F80028F2DA05F110000021814609F01D
:106BA000E6FFF8B14346424607A928460AF0F9FC39
:106BB000041EA3D107AB07AA04A928460AF0F1FCDA
:106BC000041E1AD14B4604AA07A928460AF0E9FC7C
:106BD000041E12D107AB0AAA0AA9284609F02BFF06
:106BE000041E0AD106F10C0399464A4604A9284618
:106BF0000AF0D7FC041E78D100E076E0012204A957
:106C000028460AF0ECFD041E6FD104AB324607A9FA
:106C100028460AF0C6FC041E67D1012207A92846AF
:106C20000AF0DDFD041E60D104AB04AA01A92846C8
:106C30000AF0B7FC041E58D1012201A928460AF027
:106C4000CEFD041E51D10AAB0AAA04A928460AF0B7
:106C5000A8FC041E49D107AB04AA04A928460AF0DF
:106C6000BFFE041E41D107AB04AA04A928460AF0BE
:106C7000B7FE041E39D104AB07AA07A928460AF0BB
:106C8000AFFE041E31D10AAB07AA07A928460AF0B5
:106C900088FC041E29D101AB07AA07A928460AF0DF
:106CA0009FFE041E21D143464A4601A928460AF008
:106CB00078FC041E19D1012201A928460AF08FFD93
:106CC000041E12D104A9384609F0B3FF041E0CD1EA
:106CD00007A907F10C0009F0ACFF041E05D101A9BA
:106CE00007F1180009F0A5FF04460AA80AF08FF979
:106CF00007A80AF08CF904A80AF089F901A80AF09B
:106D000086F90DB02046BDE8F08307F0B1BA000067
:106D100070B5064692B008461546422D01D90B4C77
:106D20000DE02A4601A90AF0A5FE041E07D101AB19
:106D3000002207493046009507F06DFB04462946BE
:106D400001A80AF0CFFE12B0204670BD00B3FFFFCD
:106D5000B56A00012DE9F05F0AAE044696E8C00F5F
:106D60001D46201D00F050FB2DB13246294604F18E
:106D7000100000F049FB4246394604F11C0000F0C7
:106D800043FBDDE9111204F14C00064600F03CFB28
:106D90005246494604F1280000F036FB594604F1FA
:106DA0003400109A00F030FB012525646564074823
:106DB000A064201D09F085FEA065304609F081FE23
:106DC000E06525660020BDE8F09F0000F4438000E8
:106DD0002DE9F04F93B00446DDE91CB815461F4677
:106DE0006068A84203D2002013B0BDE8F08F0120F4
:106DF0000C900E9102210D910F9001A81190E81BAB
:106E000061681290081A1090109805EB0709484520
:106E100001D9CDF840902C2101A8FBF7A8FDA0686E
:106E200000EB8500A0EB87011098820001A8FBF71A
:106E30003FFDBBF1000F05D059460FA80AF0E8FC52
:106E40000028D1D10D991098084410906E1EB8F109
:106E5000000F06D0A06850F8261001EA080140F89B
:106E6000261028464FF0000A03E0A16841F820A050
:106E7000401C61688142F8D80CAA0FA90FA80AF03B
:106E8000A1FB0028B0D10FAA2146204609F078FDC9
:106E90000028A9D161681298081A109010984845E6
:106EA00001D9CDF840902C2101A8FBF760FDA06826
:106EB00000EB8500A0EB87011098820001A8FBF78A
:106EC000F7FCBBF1000F05D059460FA80AF0A0FC53
:106ED000002889D10D99109808441090B8F1000F3E
:106EE0000BD0A06850F8261001EA080140F82610DF
:106EF00003E0A06840F825A06D1C6068A842F8D89F
:106F00000CAA0FA90FA80AF05DFB002899D10FAABF
:106F10002146204609F034FD66E770B58EB0044680
:106F200000260D960120099009200A90CDF82CD05A
:106F300024216846FBF71BFD102120460AF007F9C3
:106F4000051E70D1A06800680C90A0680DAA016AA7
:106F50000CA8FCF79BF8A0680DAA416A0CA8FCF7E6
:106F600095F8A0680DAAC16A0CA80CF063FFA06890
:106F70000DAA016B0CA80CF05DFFA0680DAA416B77
:106F80000CA80CF057FFA0680DAA816B0CA80CF0A0
:106F900051FFA1680C980860A06840680C909DF9AA
:106FA00034100D96002905DA0DAA49420CA80CF000
:106FB00041FF03E00DAA0CA8FCF768F8A0680DAA31
:106FC000416A0CA8FCF762F8A0680DAA816A0CA8B7
:106FD000FCF75CF8A0680DAA016B0CA80CF02AFF66
:106FE000A0680DAA416B0CA80CF024FFA0680DAAA4
:106FF000816B0CA80CF01EFFA0680DAAC16B0CA839
:107000000CF018FFA1680C984860A06880680C908C
:107010009DF934100D96002906DA0DAA49420CA8F4
:107020000CF008FF04E097E10DAA0CA8FCF72EF87D
:10703000A0680DAA816A0CA8FCF728F8A0680DAA20
:10704000C16A0CA8FCF722F8A0680DAA416B0CA835
:107050000CF0F0FEA0680DAA816B0CA80CF0EAFE03
:10706000A0680DAAC16B0CA80CF0E4FEA1680C98F6
:107070008860A068C0680C909DF934100D960029B6
:1070800005DA0DAA49420CA80CF0D4FE03E00DAAC3
:107090000CA8FBF7FBFFA0680DAAC16A0CA8FBF7C0
:1070A000F5FFA0680DAAC16A0CA8FBF7EFFFA06866
:1070B0000DAA016B0CA8FBF7E9FFA0680DAA016BF4
:1070C0000CA8FBF7E3FFA0680DAA416B0CA8FBF727
:1070D000DDFFA0680DAAC16B0CA80CF0ABFEA06888
:1070E0000DAA016A0CA80CF0A5FEA0680DAA416AC1
:1070F0000CA80CF09FFEA1680C98C860A0680069FD
:107100000C909DF934100D96002905DA0DAA49421C
:107110000CA80CF08FFE03E00DAA0CA8FBF7B6FF3D
:10712000A0680DAA016B0CA8FBF7B0FFA0680DAA20
:10713000016B0CA8FBF7AAFFA0680DAA416B0CA875
:10714000FBF7A4FFA0680DAA416B0CA8FBF79EFFFC
:10715000A0680DAA816B0CA8FBF798FFA0680DAA88
:10716000416A0CA80CF066FEA0680DAA816A0CA802
:107170000CF060FEA1680C980861A06840690C9052
:107180009DF934100D96002905DA0DAA49420CA884
:107190000CF050FE03E00DAA0CA8FBF777FFA068E7
:1071A0000DAA416B0CA8FBF771FFA0680DAA416BFB
:1071B0000CA8FBF76BFFA0680DAA816B0CA8FBF76E
:1071C00065FFA0680DAA816B0CA8FBF75FFFA068A4
:1071D0000DAAC16B0CA8FBF759FFA0680DAA816A24
:1071E0000CA80CF027FEA0680DAAC16A0CA80CF030
:1071F00021FEA1680C984861A06880690C909DF9F7
:1072000034100D96002905DA0DAA49420CA80CF09D
:1072100011FE03E00DAA0CA8FBF738FFA0680DAA29
:10722000816B0CA8FBF732FFA0680DAA816B0CA83C
:10723000FBF72CFFA0680DAAC16B0CA8FBF726FF7B
:10724000A0680DAAC16B0CA8FBF720FFA0680DAACF
:10725000816B0CA8FBF71AFFA0680DAA416B0CA864
:10726000FBF714FFA0680DAA016A0CA80CF0E2FD60
:10727000A0680DAA416A0CA80CF0DCFDA1680C986E
:107280008861A068C0690C909DF934100D960029A2
:1072900005DA0DAA49420CA80CF0CCFD03E00DAABA
:1072A0000CA8FBF7F3FEA0680DAAC16B0CA8FBF7B6
:1072B000EDFEA0680DAAC16B0CA8FBF7E7FEA06865
:1072C0000DAAC16B0CA8FBF7E1FEA0680DAA016A2C
:1072D0000CA8FBF7DBFEA0680DAA816A0CA80CF0D5
:1072E000A9FDA0680DAAC16A0CA80CF0A3FDA068B6
:1072F0000DAA016B0CA80CF09DFDA0680DAA416BB6
:107300000CA80CF097FDA1680C98C86108209DF9A5
:107310003410002900DC0021A26811620C9603E001
:10732000A2680C9942F820106168401C8842F7D38B
:107330009DF9340000280FDA09A94242DDE90A0369
:10734000401E43F82020224620460AF0E0FA10B9F9
:107350004FF0FF31216005460EB0284670BD000099
:107360001CB5002100910B46019108220149FFF74D
:107370002FFD1CBDF843800070B505460C46606EBD
:10738000002808D0286800280CDA0021284609F0D7
:10739000EEFB70B906E0221D29462846BDE8704084
:1073A0000AF0C0B8284609F08CFBA16DB0EB410F84
:1073B00001D9144870BD616E28468847061E1ED14B
:1073C00006E0221D2946284609F04FFB061E16D16D
:1073D000286800280DDA0021284609F0C8FB00289B
:1073E000EFD106E0221D294628460AF090FA061E33
:1073F00005D1211D284609F0D1FB0028F2DA3046DC
:1074000070BD000080B0FFFF01230360920842605E
:10741000816070472DE9FF4FD7B00646DDF890A197
:107420000027002407A806F015FFBAF1000F0CD1C1
:10743000DFF80CA107A86590F06DC01DC20859992E
:107440006598FFF765FC051E5BD15A9806F134017B
:107450000C3009F0A3FB28B906F128015A9809F06D
:107460009DFBB0B14FF000094946304600F00EFADE
:107470008046A8F1010001218140CFB2F16D0144A5
:10748000B1FBF8FBB9F1000F06D0746F24B10120F5
:1074900018E04FF00109E7E724213846FAF792FE99
:1074A0000446200001D0002509E0264D29E005EB27
:1074B000C50004EB800007F007FF6D1CEDB2BD4274
:1074C000F5D3002078B966984346CDE900B021464F
:1074D00030465A9A00F0E8F9051E12D1B9F1000FB2
:1074E00001D07467B767659966988DE88009CDE922
:1074F00003A1059023463046599A589900F024F884
:10750000054607A806F092FE706FA04200D1002445
:1075100074B1002607E006EBC60004EB800007F01C
:10752000C1FE761CF6B2BE42F5D32046FAF7B7FE8E
:1075300015B1589807F0B6FE5BB02846BDE8F08F4D
:107540000B6D000180B2FFFF2DE9F04FC9B08246FC
:1075500053A8DDF848B190E8E1010C4694469946FD
:1075600048A9CDE900012B4606AA61465046FFF71F
:1075700057FA00281ED106A88DE8E1015B464A466D
:107580002146504600F019F8002813D19DF820211B
:107590002146504600F072FA00280BD13B46324695
:1075A0002146504600F002FA002803D121465046F9
:1075B00000F04DF849B0BDE8F08F2DE9FF4F8BB0DA
:1075C0008046DDE91AABDDE918640F46914602A852
:1075D00007F07AFE305D00904A46394640460E9BE1
:1075E00000F06EFA051E2BD1012107F1180009F0F9
:1075F0002FFF051E24D15B4652463946404600F017
:10760000D5F9051E1CD119E0641E3A46394640469C
:10761000FFF757FA051E13D1305D00904A4602A9C4
:1076200040460E9B00F04CFA051E09D102AB3A46CB
:1076300039464046FFF71EF8051E01D1002CE3D164
:1076400002A807F02FFE0FB02846BDE8F08FF0B576
:1076500087B007460D4605F118000021064609F0DF
:1076600086FA68B104A809F09CFD01A809F099FD0B
:107670003A1D314604A809F09AFD041E2AD102E001
:10768000002007B0F0BD04AB04AA01A9384609F0F8
:1076900088FF041E1ED101AB2A462946384609F050
:1076A00080FF041E16D105F10C02154601AB2946D8
:1076B000384609F076FF041E0CD104AB2A46294651
:1076C000384609F06EFF041E04D10121304609F04E
:1076D000BFFE044604A809F09AFC01A809F097FC33
:1076E0002046CEE72DE9F0478AB082460E46914605
:1076F000B9F1020F06D250463168FFF7A8FF0AB071
:10770000BDE8F0870C214846FAF75CFDB0F10008AF
:1077100001D0002408E05C48F1E704EB440008EBEA
:10772000800009F03EFD641C4C45F6D307A809F023
:1077300038FD04A809F035FD01A809F032FD3168D3
:107740004046183109F075FA051E7DD1012711E078
:10775000781E00EB400008EB800256F8273007EB5C
:10776000470008EB80011833504609F01AFF051E48
:1077700070D17F1C4F45EBD3A9F1010000EB400015
:1077800008EB80010AF1040207A809F010FD051EAC
:1077900060D1A9F1010464B1601E00EB400008EB68
:1077A000800307AA04A9504609F0FBFE051E51D12B
:1077B00006E007A904A809F03CFA051E4AD109E031
:1077C00056F8243007AA183307A9504609F0E9FEF5
:1077D000051E3FD104AB04AA01A9504609F0E1FE01
:1077E000051E37D156F8241001AB0A46504609F061
:1077F000D8FE051E2ED156F8241001AB0C310A46D6
:10780000504609F0CEFE051E24D156F8241004ABD4
:107810000C310A46504609F0C4FE051E1AD156F82E
:107820002400DAF808100AF032F8051E12D156F8D2
:107830002400DAF808100C300AF029F8051E09D1E6
:1078400056F82400183000E004E009F0E0FB0CB129
:10785000641EA0E707A809F0DAFB04A809F0D7FB2B
:1078600001A809F0D4FB002406E004EB440008EB77
:10787000800009F0CCFB641C4C45F6D34046FAF777
:107880000EFD28463BE7000080B2FFFFC26DB2F557
:10789000C07F01D3052000E0042009B1401CC0B224
:1078A000824200D8022070472DE9F04F9FB00C466D
:1078B000289E804611460025A3F1010B4FF0010AD6
:1078C0000AFA0BF0C7B2204607F00EFB002869D178
:1078D00006FB0BF91FE0B5FBF6F00AFA00F0C0B2A8
:1078E00000EBC00104EB810BB5FBF6F106FB115177
:1078F00049B9400800EBC00004EB8001584607F08E
:10790000F3FA00284ED15A4659464046FFF7D9F8B7
:10791000002847D16D1CA945DDD800220120E94689
:1079200009E000EBC00104EB81031146521C49F849
:1079300021304006000EB842F3D369464046FFF7B7
:10794000D1FE00282ED1012519E02E4605EBC500F9
:1079500004EB800A0EE006EBC60004EB8002A819D7
:1079600000EBC00004EB800153464046FEF782FE68
:10797000002817D1761E701CEDD16806050EBD4299
:10798000E3D3002207E002EBC20004EB80002430C6
:1079900049F82200521C501CB842F4D369464046B4
:1079A000FFF7A0FE1FB0BDE8F08F00002DE9F04703
:1079B00086B006460F4691469A460025B06DC01D1A
:1079C0004FEAD00803A809F0ECFB684609F0E9FB90
:1079D00053464A46414603A809F0E8FA041E41D13D
:1079E00005E0012103A809F013FF041E3AD1311D5F
:1079F00003A809F0D3F80028F3DA28466D1C0A28FA
:107A000001DD1D4C2EE0012103A809F0B0F800288B
:107A1000DEDD07F1180203AB1146304609F0C1FD67
:107A2000041E1FD103AB03AA6946304609F0B9FD15
:107A3000041E17D16B463A463946304609F0B1FD6F
:107A4000041E0FD103AB6A466946304609F0A9FD12
:107A5000041E07D107F10C026B461146304609F0AF
:107A6000A0FD044603A809F0D2FA684609F0CFFA4F
:107A700006B02046BDE8F08700B3FFFFFEB5044620
:107A80000E461546684609F08CFB06F10C021646B8
:107A9000211D684609F0C1FF041E0CD100213046AB
:107AA00009F065F800B1012005EA00026946304698
:107AB00009F01DFE0446684609F0A9FA2046FEBDFD
:107AC0002DE9F05F8346DDF828A00F4690469946E1
:107AD000CAF3450500241DE0AC4201D1012200E0BB
