:020000040100F9
:1020000000008400692100017121000189488000DD
:102010007B2C0001792C0001452D000100000000FF
:102020000000000000000000000000009D4880004B
:102030007B210001000000007D21000181210001C1
:1020400000F002F800F080F80AA090E8000C82444A
:102050008344AAF10107DA4501D100F075F8AFF227
:10206000090EBAE80F0013F0010F18BFFB1A43F076
:1020700001031847DCC600002CC700000A444FF0DB
:10208000000C10F8013B13F0070408BF10F8014BD7
:102090001D1108BF10F8015B641E05D010F8016B1C
:1020A000641E01F8016BF9D113F0080F1EBF10F880
:1020B000014BAD1C0C1B09D16D1E58BF01F801CBA3
:1020C000FAD505E014F8016B01F8016B6D1EF9D526
:1020D0009142D6D370470000103A24BF78C878C127
:1020E000FAD8520724BF30C830C144BF04680C601E
:1020F000704700000023002400250026103A28BF66
:1021000078C1FBD8520728BF30C148BF0B60704769
:10211000642900F03B81782900F09F81732900F049
:102120008684002070471FB50CF0E6F80348044988
:1021300000F0BEFB00F092FB1FBD0000F87C8000A9
:10214000F8FC800010B510BDDFF80CD0FFF7EBFFF6
:1021500008F038F800F0A7FC0000840003B4FFF793
:10216000F1FF03BC00F00DFE06488047064800471B
:10217000FEE7FEE7FEE7FEE7FEE7FEE7FEE7FEE737
:10218000FEE70000152D00015DA3000170B5A0FB66
:102190000140B4F1805170F1000024BF002070BDF7
:1021A000204600F04DF805001CBF214600F00DFB55
:1021B000284670BD0FB4044910B503AA029800F078
:1021C0003BFC10BC5DF814FBD84380000FB41CB579
:1021D000084B06AA7B4469460090059800F0FDFB79
:1021E00004460020694600F00BFC20461CBC5DF84C
:1021F00014FB00002908000000487047A07C800004
:1022000058585247010000001555000000200001F9
:10221000002000016EED52490101000000000000A5
:1022200000000000000000000000000000000000AE
:10223000000000000000000000000000000000009E
:1022400070B50646FFF7D8FF056806F10B0020F0D1
:102250000704B4429CBF002070BD2B466A68BAB127
:102260001068A04210D304F1080188423CBF5068B6
:10227000586007D35168101941601168091B01604B
:1022800058601460101D70BD13465268002AE7D1D3
:102290002146284600F0F8FA0028DED170BD70B55E
:1022A0000446051FFFF7A8FF0068002C14BF446810
:1022B00070BD002C18BFAC423CBF20466468F8D308
:1022C00001680A18AA4218BF456003D12A6805466A
:1022D0001144016028684119A1421CBF6C6070BDA7
:1022E0006168696021680844286070BD70B5044663
:1022F00085690068C10601D5302600E02026C007A8
:1023000007D070BDD4E9012130469047206A401CB7
:1023100020626D1EF6D570BD70B5044685690078E3
:10232000C00707D170BDD4E9012120209047206A61
:10233000401C20626D1EF6D570BD70B50C4605467A
:10234000012A05D02878800600D5EA69002302E03A
:10235000012305E05B1C934202D2E05C0028F9D126
:10236000A869E618C01AA861286A18442862284695
:10237000FFF7BCFF04E0D5E9012114F8010B9047F9
:10238000B442F8D32846FFF7C7FF70BD2DE9F041EE
:102390000646002410687529314616A510D0AFF303
:1023A0000080002802DA404213A507E031688A075E
:1023B00001D512A502E0490704D511A5012401E0C9
:1023C000AFF3008000210A2206F1240709E0B0FBE8
:1023D000F2FCB0FBF2F302FB1C00303078541846DC
:1023E000491C0028F3D123462A463046BDE8F04177
:1023F00000F094BA000000002D0000002B00000047
:1024000020000000F0B40D460188090502D5214CDA
:102410007C4402E01F4C7C440E34002100F1240671
:1024200008E002F00F071209E75D42EA03721B0998
:102430007754491C52EA0307F3D1027800231207AC
:1024400004D5702D06D009B1022311342246F0BC08
:1024500000F064BA01231034F8E770B504460D4665
:1024600021461068AFF30080024629462046BDE8A9
:1024700070400023C6E7D21D22F00703D3E90023F2
:10248000C0E70368126843F0200303600823C361B8
:102490000023B7E790C200002DE9F05F89460446AB
:1024A0004FF0000ADFF874B1FB44C0F820A02046CA
:1024B000E1688847002874D0252806D0D4E9012196
:1024C0009047206A401C2062F1E700265F462046C4
:1024D000E16888472028054607DB312D05D27819A9
:1024E00010F8200C08B10643F1E7B00701D526F03B
:1024F0000406C4F81CA00027C4F818A02A2D09D08F
:10250000284600F037FC38B304EB8708303DC8F8A4
:10251000185019E059F8041B204604EB870291611A
:10252000E1688847012F054618D1E069002820DAC4
:1025300026F020061DE0D8F8180000EB800005EB1F
:1025400040003038C8F818002046E1688847054642
:1025500000F010FC0028EED1012F0AD02E2D08D15A
:102560002046E16888477F1C0546022F46F020067A
:10257000C4DBA069002803DA404246F00106A061EE
:10258000F00701D026F010066C2D0BD0682D09D075
:102590004C2D39D06A2D35D0742D35D07A2D33D0CD
:1025A00016E038E0E1682F4620468847B8420546E5
:1025B00009D16C2F26D04FF48060E1680643204695
:1025C0008847054604E06C2F1AD04FF4807006430C
:1025D0000DB3A5F14100192802D8203546F4006654
:1025E0004A462946204626604E46FFF791FD80B1B7
:1025F00001280BD0F61D26F0070000F1080956E768
:102600004020E4E78020D8E70020D6E706F104095F
:102610004DE7284652E7206ABDE8F09F20C200003F
:1026200040EA010310B59B070FD1042A0DD310C84F
:1026300008C9121F9C42F8D020BA19BA884201D9A1
:10264000012010BD4FF0FF3010BD1AB1D30703D0E9
:10265000521C07E0002010BD10F8013B11F8014B9F
:102660001B1B07D110F8013B11F8014B1B1B01D1BB
:10267000921EF1D1184610BD10B5431C02E010F8AF
:10268000011B71B18107FAD14FF0013202C88C1AD7
:102690008C4314EAC211F9D0C01A0A0603D0C01E36
:1026A00010BDC01A10BD0A0401D0801E10BD090261
:1026B000FCD0401E10BD032A40F2308010F0030C05
:1026C00000F0158011F8013BBCF1020F624498BF85
:1026D00011F801CB00F8013B38BF11F8013BA2F122
:1026E000040298BF00F801CB38BF00F8013B11F09D
:1026F000030300F02580083AC0F0088051F8043B3D
:10270000083A51F804CBA0E80810F5E7121D5CBFA9
:1027100051F8043B40F8043BAFF30080D20724BFDC
:1027200011F8013B11F801CB48BF11F8012B24BF70
:1027300000F8013B00F801CB48BF00F8012B7047BF
:1027400010B5203AC0F00B80B1E81850203AA0E84C
:102750001850B1E81850A0E81850BFF4F5AF5FEA80
:10276000027C24BFB1E81850A0E8185044BF18C933
:1027700018C0BDE810405FEA827C24BF51F8043BDA
:1027800040F8043B08BF7047D20728BF31F8023B2E
:1027900048BF11F8012B28BF20F8023B48BF00F8C2
:1027A000012B704701F0FF03114601B543EA0322F4
:1027B00042EA024200F00BF801BD02F0FF0343EAD7
:1027C000032242EA024200F002B84FF0000204295C
:1027D000C0F0128010F0030C00F01B80CCF1040C50
:1027E000BCF1020F18BF00F8012BA8BF20F8022B84
:1027F000A1EB0C0100F00DB85FEAC17C24BF00F82A
:10280000012B00F8012B48BF00F8012B70474FF057
:10281000000200B5134694469646203922BFA0E830
:102820000C50A0E80C50B1F12001BFF4F7AF09073C
:1028300028BFA0E80C5048BF0CC05DF804EB89002D
:1028400028BF40F8042B08BF704748BF20F8022B70
:1028500011F0804F18BF00F8012B704770B5064C7F
:102860007C44064D7D4403E0206820448047241DBD
:10287000AC42F9D170BD00003CBF00003CBF00007D
:10288000704770477047704738B504460A460020C5
:102890006946AFF30080002808BF38BD02460099A2
:1028A000204600F0DBF8012038BD012000F0F4B82C
:1028B000F8B5AFF30080054600200C46102000BF9D
:1028C0000646A819A0420DD9324669460020AFF34A
:1028D0000080070008BF00F0DFF80098A04218BF92
:1028E0000546C419FFF788FC05600746F01D20F077
:1028F00007004619284600F00AF8B44208BFF8BDA0
:10290000A21B31463868BDE8F84000F0A7B80021A6
:102910000160C0E901107047102070472DE9F047B1
:102920000D4699469246044600F12408016888063F
:1029300004D5E06921F01001216000E00120A842E7
:1029400001DD471B00E00027A1697A1902EB0900AD
:10295000081AA0612078C00602D42046FFF7C6FC02
:10296000002608E0D4E901211AF806009047206A01
:10297000401C761C20624E45F4DB2078C0060AD548
:102980002046FFF7B3FC06E0D4E901213020904750
:10299000206A401C2062381EA7F10107F4DC07E022
:1029A000D4E9012118F805009047206A401C2062F4
:1029B000281EA5F10105F3DC2046FFF7ADFC2078C9
:1029C000000602D50220BDE8F0870120FBE70000E9
:1029D00001694A1C02610878704700B58FB0CDE9E3
:1029E00001310021059105497944CDE903101146D3
:1029F0006846FFF751FD0FB000BD0000E5FFFFFF87
:102A00000A6802F8010B0A60704710B5436913B1F8
:102A1000AFF3008001E0FFF790FC012010BD1278B9
:102A200000F124010A7000224A700122EDE71168CA
:102A30004FF0FF32E9E70000074B70B50D467B44CD
:102A4000FFF7CBFF0446284600F022F810B14FF004
:102A5000FF3070BD204670BDCB2A000003464068A1
:102A60008C46002818BF88423CBF03464068F8D314
:102A700018681844884207D00CF1030020F00700C2
:102A8000001D411A521A0146081D0A60FFF707BCD3
:102A9000007B00F08000704710B500F013F8BDE82F
:102AA000104000F009B810B50446AFF3008020468E
:102AB000BDE81040FFF752BB002801D000F061B91B
:102AC0007047000010B5012805D0002103A000F0D8
:102AD00021F8012010BD09A1F8E700005349475231
:102AE000544D454D3A204F7574206F6620686561DE
:102AF00070206D656D6F7279000000003A204865A6
:102B00006170206D656D6F727920636F7272757080
:102B10007465640070B505460C460A2000E06D1C23
:102B200000F030F935B128780028F8D102E0641CB3
:102B300000F028F914B120780028F8D1BDE87040E1
:102B40000A2000F01FB9000010B51E4800680028D8
:102B500000D080471C4900200870811E1B4801607E
:102B60001B494FF0007008601A4CD4F8C00280076F
:102B700004D4F42218A11DA003F47CF72A480168AC
:102B8000D4F8C40261F31D3040F00100C4F8C4025F
:102B900003F4CAF200214FF03040C1608161C117D7
:102BA0004161016203F47CF208484038016821F475
:102BB000800101601D480068002802D0BDE8104077
:102BC000004710BD60248000B446800044C500A0CA
:102BD00080E200E000E000A0727769705F736C65CE
:102BE00065705F636F6D6D6F6E2E63004D43555F53
:102BF0005355422D3E424C455F44534C4545505F32
:102C0000434F52525F454E2026204D43555F53554A
:102C1000425F424C455F44534C4545505F434F52E1
:102C2000525F48575F454E00542480006424800062
:102C300000214FF03040C1608161C11741610162E4
:102C40000649022004220A60BFF34F8FBFF36F8F43
:102C50000860BFF34F8FBFF36F8F704780E100E0D4
:102C600004490220C1F800010860BFF34F8FBFF391
:102C70006F8F704780E100E0FEE7FEE71BF42C92C7
:102C80000249096801F007010170704704C500A0FE
:102C900030B4062821D212490A6802F007028242A3
:102CA00012D00A680F4B1A400F4C22430A6000BF33
:102CB00000BF00BF00BF0A681A400C4B024333F844
:102CC000203042EA83420A600849183951F820004E
:102CD0000749086030BC76F48D9130BC7047000025
:102CE00004C500A0F8FFE3FF0500080078E3000139
:102CF0000041800004480068044900F0070051F8D2
:102D0000200003490860704704C500A060E300018B
:102D1000004180000248016841F470010160704781
:102D200088ED00E002480068001D1EF49594000044
:102D3000CC43800002484068001D1EF48D940000C2
:102D4000CC438000FEE7002804DB00F1E02090F88F
:102D50000004704700F00F0000F1E02090F8140D1F
:102D60007047000002480068C0F30220704700006E
:102D70000CED00E030380A2801D201207047002015
:102D800070477047704700002DE9F05F074689469D
:102D900093464FEA5B04A2464D465F4EDFF87C81C6
:102DA000EFF31080012181F31088D8F8A41221F0EC
:102DB0002001C8F8A41280F31088EFF310800121DD
:102DC00081F31088D8F8A01221F02001C8F8A012D1
:102DD00080F31088306820F08040306050483060C8
:102DE0003F20D8F8001160F30501C8F800113068E1
:102DF00020F4601040EAC7403060306820F4E020E2
:102E000040EA07403060052F03D1306840F40040AD
:102E10003060062F03D1306840F480403060306865
:102E200040F400503060306820F06050306030680E
:102E300020F00F0040F003003060EFF3108001211C
:102E400081F31088344A3832116821F0E04141F0B2
:102E50008041116080F31088306840F0804030601D
:102E600001E0D8F80000D8F80401C0F300200028E1
:102E7000F7D1EFF31080012181F31088116841F040
:102E80000041116080F3108834E000204FF47A7123
:102E90001AE0884217D9306820F0804030603068EE
:102EA00040F000403060306820F00040306006F0B4
:102EB00037FB1C480168491C016054464D460520FB
:102EC00078F49DD66CE7401CD8F80421C2F30022A8
:102ED000002ADED0D8F8040100F07F01A14200D919
:102EE0002146002003E0D8F8002004C5401C884299
:102EF000F9D3641A002CC8D15FEACB7008D0D8F897
:102F00000401C0F300200028F9D0D8F80000288080
:102F1000BDE8F05F06F004BB08C500A000E000A01B
:102F20000A070807644880002DE9F04107460E466D
:102F30004FF000080024274D0BE004EBC40005EB24
:102F40008000801C07223946FFF76AFB40B1641CF1
:102F5000E4B22878A042F0D8B8F1000F18D102E00E
:102F60004FF00108F8E728780A21B0FBF1F201FBE5
:102F700012040A2801D2401C287004EBC40105EB9E
:102F800081003968C0F80210B988C180B97901722E
:102F90002B7811A21021002003F46EF53078000781
:102FA0000BD504EBC40005EB800006F14601BDE83B
:102FB000F0410A301C22FFF77EBB04EBC40005EB96
:102FC000800006F12A01BDE8F0410A301C22FFF71B
:102FD00072BB0000C8798000523A313A61646420C3
:102FE0006C746B206974656D2C206E756D203D20AE
:102FF00025640A000449896B084004490A78104393
:1030000000220A7070470000002001A09444800054
:10301000104A114900280EDC0868C0F3412001283D
:1030200008D0506C401C5064086820F4C06040F424
:103030000070086070470A28FCDB086810F4C06F55
:10304000F8D0106C401C1064086820F4C060086060
:1030500070470000E44480000CC500A0014878F4EB
:103060000B940000DC4380002DE9F041014600296B
:103070001BD000240F4E0E4A357814E002EB0410EA
:103080000F780378BB420CD14B684068034208D0EC
:10309000707808B900F0C2FB2046BDE8F04100F0AE
:1030A000EBBA641CE4B2AC42E8D3BDE8F0810000A6
:1030B000F4738000E84380007CB505460E46002D81
:1030C00001D0002418E005207CBD05EB0410416808
:1030D0000091017A8DF80410417A8DF805100721CE
:1030E0008DF80610C26800780023694600F048F8A1
:1030F0000028E9D1641CE4B2B442E6D300207CBDD0
:1031000010B50C46062833D2DFE800F003030310A5
:103110001E27184951F830002104090C04D018B1B9
:10312000214604F0EFF91FE0042010BD2004000C3C
:1031300003D0A1B2104804F0E5F9200C14D0210C02
:103140000E4804F0DFF90FE014F0FF0F03D0204623
:1031500003F0DEFF08E0042010BD14F0FF0F05D0DF
:103160002146002004F0EEFB002010BD042010BD1D
:10317000062010BDA4E30001000001A0001001A082
:103180002DE9F05F05460C469046994627680026D3
:10319000052D13D039462846FFF7B2FF21462846B1
:1031A00000F0ACF800280AD1042D0AD0032D2ED04F
:1031B0004FF0100B2807060E002491E00620BDE812
:1031C000F09F4FF0080B2079042806D0052809D07D
:1031D00006280DD0072815D110E00021384601F44B
:1031E000CAF40FE040F20111384601F4C4F409E0DA
:1031F0004FF00111384601F4BEF403E03B49384674
:1032000001F4B9F44FF0007075F472D7D4E74FF0C1
:10321000200BD1E7F80760D0052D65D2DFE805F077
:10322000030303254600324800EBC50090F904A0D3
:10323000BAF1000F17D0EFF31081012080F310884E
:10324000A01900EB40022B4800EB8200C0F804807C
:10325000C0F8089081F31088504618F4DDD7504626
:1032600018F4F8D739E00420A9E7EFF31082012021
:1032700080F31088A0191F4B00EB400003EB800186
:10328000C1F80480C1F80890032103F8201082F3EC
:103290001088062018F4C0D7062018F4DBD70720C2
:1032A00018F4BAD7072018F4D5D716E0EFF3108139
:1032B000012080F31088A01900EB40020E4800EBBB
:1032C0008200C0F80480C0F8089081F310881220B2
:1032D00018F4A2D7122018F4BDD77F08641CE4B2FA
:1032E0005C4597D300206AE7062068E701010100EA
:1032F000A4E30001947080001472800070B58EB059
:1033000005460C46564901F164004DC8CDE90A0254
:10331000CDE90C36D1E91E23486F06AED1F88010F6
:103320000DC6099114224E49843101A8FFF708FA0D
:10333000ACB14C49062009F0E3FB4B49072009F0EA
:10334000DFFB4A49122009F0DBFB4549444A2C3196
:10335000062D7CD2DFE805F006060621415905203E
:103360000EB070BD207931F810000B90607932F802
:1033700010000C90A0790D9020680A903848143005
:1033800050F8350021880904090C04D018B10AA9A5
:1033900004F006F959E00420E2E7207931F8100042
:1033A0000B90607932F810000C90A0790D90206895
:1033B0000A9020680104090C05D080B20A900AA97D
:1033C0002B4804F0EDF82068010C3ED0000C0A9068
:1033D0000AA9284804F0E4F837E0207901EB40001E
:1033E000408A0790607902EB4000C0880890A0797D
:1033F000099020680690207810F0FF0F03D006A8EF
:1034000003F0C8FE21E00420AAE72079031F032B64
:1034100001D80720A4E702281AD0012002902079C1
:1034200001EB4000808C0390607902EB40008089C2
:103430000490A079059020680190207810F0FF0F8B
:1034400009D001A9002004F0C5FA002088E704E0B3
:1034500002200290E3E7042082E7062080E70000D4
:1034600090E30001134980000D4980000949800064
:10347000000001A0001001A010B502460C4600207B
:10348000062A26D2DFE802F00303030B1A1F1148B5
:1034900050F83200A1B2BDE8104016F41893210490
:1034A000090C03D0A1B20C4816F411D3210C10D092
:1034B000210CBDE81040094816F40993A0B2BDE8FC
:1034C000104014F4D792A1B2BDE81040002004F0DF
:1034D00084BA10BDA4E30001000001A0001001A007
:1034E000002803D00249086001207047002070477F
:1034F000F043800070B505460024091F062917D245
:10350000DFE801F003070C111315284600F0A4F8BA
:103510000EE00124284600F09FF809E00224284626
:1035200000F09AF804E0032402E0042400E00524FB
:10353000034A214628461268BDE870401047000043
:10354000F04380002DE9F0410446204600F0AEF83B
:1035500001462E4800230826025D00F10A0700F10B
:103560001405AAB1052A33D0082A2AD1092945D041
:10357000082926D1295D491CC9B22955142920D30F
:103580002B5506552046BDE8F0410821FFF7B2BF94
:10359000052913D0042916D0072914D0082910D1E1
:1035A000295D491CC9B2295514290AD32B55065542
:1035B0002046BDE8F0410821FFF79CBF3B5505219F
:1035C0000155BDE8F0812046BDE8F041FFF792BF0C
:1035D00005290CD0395D491CC9B239553229F0D3BF
:1035E00003552046BDE8F0410521FFF783BF035591
:1035F0002046BDE8F0410621FFF77CBF0355204679
:10360000BDE8F0410921FFF775BF0000D4748000C8
:1036100070B504460D4600F00FF808B100F014F93B
:103620000348044A2946005D5268BDE870401047CF
:10363000E8738000E84380000020064911F810205C
:103640000AB100207047401CC0B20A28F6D30120FE
:1036500070470000F27480000349002201F8102036
:1036600001EB400042707047F2748000014A02F89A
:1036700010107047F2748000024A012102EB4000F2
:1036800041707047F274800070B50024064D05EB60
:103690004400407810B12046FFF754FF641CE4B2A8
:1036A0000A2CF4D370BD0000F274800070B50021C4
:1036B0001D4B03F132051A5C002A09D0002403F1E6
:1036C0000A06012A0AD0022A12D0032A24D11FE0B6
:1036D00015F8102002B301221A541DE015F810202D
:1036E0001AB1345402221A5416E01C54042113E077
:1036F00015F810204AB1325C521CD2B23254642AFE
:103700000AD3072103221A5406E005211C5403E0C2
:1037100015F8101011B10821084670BD1C54FFF7B0
:103720009BFF0921F8E70000C0748000704700008B
:103730002DE9F0410E4617460A2E02D80FB100239C
:1037400020E00020BDE8F08103EB430410F82410D2
:10375000032901D0042913D100EB8405114AA97A69
:10376000D154104910F824200C3101EB03142270BD
:1037700069686160297A2172697A61720A49E16037
:103780005B1CDBB2B342DFD3064831460C30FFF797
:1037900093FC0648067047600548FFF7A1FE01202C
:1037A000D0E70000E873800069300001E843800042
:1037B000113600012DE9F0410024124FDFF8488056
:1037C00019E0002607EB041528786968FFF754FE16
:1037D00010B9697A012902D0012802D005E001263A
:1037E00003E0687A022800D1012631462046FFF71F
:1037F0003DFF641CE4B298F800008442E1D3BDE8C8
:10380000F0810000F4738000E843800010B5FFF7FA
:10381000D1FFBDE81040FFF737BF000010B5074AE1
:103820000121074800F048F800220A21044800F06E
:1038300091F904490120487010BD00000D380001C5
:1038400098748000E843800010B5034800F05DF8EC
:1038500002490020487010BD98748000E843800041
:10386000002806D0002904D0024AD269002A00D0DC
:1038700010477047C073800070B50D4616460D4C5A
:1038800000280AD00178032911D80121A176014628
:103890001A222046FEF70FFF05E00020A0761A212D
:1038A0000448FEF7B4FFE5612662002070BD0120E8
:1038B00070BD0000C07380002DE9F04104460D4644
:1038C0001746002D04D0012D02D00120BDE8F08163
:1038D000CCB1C7B1EFF311860220FFF734FA80466E
:1038E000FFF740FA401C0121814008EB0100C0B203
:1038F00080F3118800206070A570E761F0B280F35A
:1039000011880020E2E70120E0E710B50446002C12
:103910000CD0204600F0B0F9FF2060700021A160BB
:10392000E160216161610020E06110BD012010BDF6
:10393000F0B5DDE90745059981614FF47A76A2FB80
:10394000061C03FB06C3002702FB0732C0E9021274
:1039500009196A41C0E9041200210162F0BD0000AA
:103960002DE9F0410446002C13D0EFF3118502201D
:10397000FFF7E9F90746FFF7F5F9401C012606FABB
:1039800000F03844C0B280F311881248002121624F
:103990000EE00020BDE8F081D4E90432D1E9047CD6
:1039A000DB1B72EB0C0202D2016A216203E00846C3
:1039B000016A0029F0D10462667006482038016867
:1039C000491C0160016C4160E8B280F3118801205C
:1039D000E0E70000987280002DE9F04105460024E0
:1039E000EFF311860220FFF7AEF90746FFF7BAF9A9
:1039F000401C012181407818C0B280F31188134A1D
:103A0000106CE8B115B102F1200010E00446206A04
:103A100010641068401E10600CE0A94206D11168C5
:103A2000491E1160296A01622C4603E00846016ABA
:103A30000029F2D124B1002020626070106C506027
:103A4000F0B280F311882046BDE8F08178728000E2
:103A50002DE9F041EFF311870220FFF774F90446D6
:103A6000FFF780F9401C012181406018C0B280F34B
:103A70001188114D002608E02078012804D1E16961
:103A800009B1A069884726702D6A2C6A002CF3D1F1
:103A9000094D203D07E0E16909B1A069884726701A
:103AA000206AA8602662AC68002CF4D1F8B280F3DA
:103AB00011880120BDE8F081987280002DE9F04165
:103AC000EFF311870220FFF73EF90446FFF74AF9AA
:103AD000401C012606FA00F02044C0B280F3118891
:103AE0001B4DA5F1200829E0D4E90420D8E90413EE
:103AF000521A60EB0300D8E906319A1A814120D3AB
:103B000026702046FFF768FFA078012802D01048F1
:103B100018380DE0D8E90430D4E902219A18484158
:103B2000C4E904202046FFF71BFF07E001F1200055
:103B300001680029FAD12162006804622C6A002C15
:103B4000D2D1F8B280F311880120BDE8F0810000E5
:103B5000987280002DE9FF5F82460E4693464FF033
:103B60000008BAF1000F20D0414886421DD8E6B1C6
:103B7000EFF311870220FFF7E6F80446FFF7F2F8AB
:103B8000401C012181406018C0B280F3118850466A
:103B900005F036FA10B19AF8010040B1F8B280F39E
:103BA00011880F2004B0BDE8F09F0120FAE706F06D
:103BB00037FA04460D464FF47A7106FB01F02246AF
:103BC0002B46002105F0ECF9DFF8A890B0B1D9F848
:103BD000040048B1D0E90410091B60EB0500C9E9F5
:103BE000041006F0B9FA04E00021C9F81010C9F871
:103BF00014104FF00108D9E9040106E0D9F80400D7
:103C0000D0E90421101B61EB0501CDE90201324628
:103C10000023CDF800B05046FFF78AFE5046FFF76C
:103C20009FFE08F043FF4FF0E021D1F800014FF074
:103C3000806210F0806F01D0012000E0002018B9F0
:103C4000C1F88022C1F80021B8F1000F0AD0D9F8DC
:103C50000400D0E90431D9E90402181A61EB020129
:103C600006F014FAF8B280F3118800209AE70000F9
:103C7000008AB907787280002DE9F04104460025DA
:103C8000002C39D0EFF311870220FFF75CF80646CD
:103C9000FFF768F8401C012181407018C0B280F322
:103CA00011886078012824D1144E7068A0420BD18D
:103CB00006F0B6F9D4E90432181A62EB0102C6E93B
:103CC000040206F049FA01252046FFF785FE5DB1A2
:103CD000706848B1D0E90421D6E90403101A61EBF9
:103CE000030106F0D3F904E01DB9706808B906F0C5
:103CF00033FAF8B280F31188BDE8F0817872800061
:103D000070B504461A4D55F82400703008F005FBD4
:103D100082B21646A2B155F8240090F8011101298B
:103D20000ED0012180F80411802A0FD355F8240009
:103D3000802200F18001703008F004FB80260CE046
:103D400055F82410002081F8000170BD55F82400BA
:103D500000F18001703008F0F5FA55F82400324681
:103D600000F18001001D1DF465D60028EDD170BD65
:103D7000CC438000704700002DE9F84304464B4EC9
:103D800056F82400071D022C7ED290F86C100029F2
:103D90007AD0012978D180F80111002556F8240045
:103DA000D0E903120A44017D01F00101C91D02EBB3
:103DB00001084168CA6FC2F38002002AFAD090F865
:103DC0000411E1B1DFF8E8906D1C56F82400001DE5
:103DD00003F030FF10280BD056F82400D9F800105B
:103DE0008068B1FBF0F000FB08F0B5EBC01FEBD929
:103DF00056F82400703008F090FA85B226E0B0F84A
:103E00002480C58C001D1DF48DD256F8240041F28B
:103E1000883300EB0801491B8031001D2A461DF440
:103E2000CED5E5E756F8240001227030694608F047
:103E300089FA56F824004068C16FC1F34001002997
:103E4000FAD09DF8001001606D1EADB2002DE9D1D1
:103E500056F82400703008F060FA0028C8D138689D
:103E600041694906FCD5EFF31085012080F31088E5
:103E700056F82400703008F050FA68B1EFF3108162
:103E8000012080F3108800E00DE03868426842F0BD
:103E90008202426081F3108856F82410002081F8D5
:103EA000010185F31088BDE8F8830000CC43800051
:103EB000004180002DE9F04389B0054688462C7802
:103EC000002D06D02AB1022C05D3082009B0BDE888
:103ED000F0830520FAE7384E05F1580046F8240033
:103EE000D2E900310A467030194608F001FA291D5E
:103EF000894624220C316846FEF722FC291D286DD4
:103F00000EC909F07DFA0028E0D12C490C2008F0F8
:103F1000F7FD2B490D2008F0F3FD2A4800EBC407FC
:103F200097F9010018F478D197F9010018F492D1AB
:103F300056F82400C0F8649056F82400C0F80080B9
:103F400056F824001822083005F14001FEF7F8FB6E
:103F500056F824107868486056F82400001D03F0D5
:103F60003DFE56F82400001D03F06EFE351F0127AC
:103F7000287850B92F7013480321103007F0D2FF72
:103F80006880002801DA0420A0E756F8240080F8B1
:103F90006C7056F82410002081F8000156F82410A7
:103FA00081F8010156F8241081F8020156F8241016
:103FB00081F803018AE70000CC438000252D000131
:103FC000352D000130E400012DE9F04104461A4D81
:103FD00055F82400703008F0A0F982B21646002788
:103FE0007AB155F8240090F80111012909D0802AEE
:103FF0000ED300F180017030802208F0A3F98026F2
:104000000BE055F8240080F800710020BDE8F08135
:1040100000F18001703008F095F955F8240080F81F
:10402000047155F82400324600F18001001D1DF492
:1040300047D50028EAD1E9E7CC43800070B50228D3
:1040400001D3082070BD0C4D55F820407CB194F888
:104050006C6066B169B162B1002684F8026155F8FE
:104060002000001D1DF4ABD40028EBD170BD05204D
:1040700070BD042070BD0000CC4380002DE9F041EC
:1040800006460C46174604F10805204671F494D301
:10409000C3B21B48E1184268914202DD0320BDE82B
:1040A000F0811849184A006809681268891A081AC4
:1040B000001FE91881421CD94FF4004513A229467C
:1040C000002002F4D9F400F045FC30B118A22946D2
:1040D000002002F4D1F40820E1E71DA229460020C7
:1040E00002F4CAF43A4621463046BDE8F04109F0F0
:1040F0004FBB3A4621463046BDE8F04109F048BB87
:10410000D8328000D0238000CC238000523A353A48
:104110004E5644532061726561206973206265695F
:104120006E6720636F6D7061637465642E0D0A00A5
:10413000523A353A436F6D70616374696E67204E11
:10414000564453206661696C65640D0A00000000E6
:10415000523A353A436F6D70616374696E67204EF1
:10416000564453207375636365737366756C0D0AEB
:10417000000000007CB50D460022009201926946C5
:1041800002F47CF4044634BB4FF42051684602F438
:1041900077F4B8B942F60101684602F471F488B9BF
:1041A00042F60301684602F46BF458B942F6020184
:1041B000684602F465F428B94FF42451684602F4C5
:1041C0005FF408B1062406E00098C5F30B0180886F
:1041D00008430099888020467CBD00002DE9F0410D
:1041E00005460C46FF26217A1E2905D02248027971
:1041F000521E52B200683AE004F10801284602F467
:1042000041F4064635E010F832308B422DD11B4E7A
:1042100056F82500406F30B300273B4618A24021D6
:10422000002002F429F4062000EB05202CF4A2D093
:10423000C00605D5002717A24021002002F41CF477
:1042400021460C3956F82500743002F41DF4002084
:10425000A08001266FB115A2402102F40DF428467A
:1042600002F414F405E00127D7E7521E52B2002AE7
:10427000C9DA3046BDE8F0817C058000C40E8000BC
:10428000523A333A657865637574653D30782578C0
:104290000A000000523A333A636F6E6E6563742011
:1042A0006E6F742063666D0A00000000523A333A64
:1042B000737461727420657865637574650A0000B3
:1042C0002DE9F0410546884628466BF439D7C0B23F
:1042D0002449097888420DD200EB4000213040F497
:1042E00000404246AC2107F043FA0446200032D099
:1042F000012430E06BF468D7C7B207EB470606F13C
:10430000200040F400402A46072107F031FA10B19E
:104310000120BDE8F081384678F4A6D006F12100EE
:1043200040F400404246AC2107F022FA0446200047
:1043300001D00120EDE7223646F4004073F466D147
:104340000949C7EBC7000968084429680160A988C2
:104350008180A97981711CB941462846FEF7E4FDA8
:104360002046D6E7382380003C23800007F00CBFAE
:1043700010B5FFF7FBFF054903480860BDE8104092
:10438000034877F4E392000017B8800474C500A0D6
:104390000087930310B50446002C0CD0204600F093
:1043A00051F8002807D104494968002903D0204664
:1043B000BDE81040084710BD544780000A2805D2C8
:1043C000034A002152F8200080F88F107047000047
:1043D000C40E800070B504460D46204608F0BCF8B7
:1043E000002805D129462046BDE8704064F4E295D6
:1043F00070BD000000B58BB0094901200870FF2294
:10440000282101A8FEF7D9F94FF48070ADF8040017
:104410000020ADF8060001A8FFF7BCFF0BB000BDFF
:104420005447800010B506480068002800D0804737
:1044300001F432F008B1012010BD002010BD0000D1
:10444000BC46800070B50446002C1FD04FF6FF73A9
:104450001946228840F20155A2F201504FF48076AD
:10446000AA424CD01BDC40F20245A2F20240AA4212
:1044700034D00DDCA2F54072013A25D0012A23D0B8
:10448000FF2A29D0B2422ED121892CE0002070BD14
:10449000012825D0022825D0FE2824D12AE004288E
:1044A0002DD006DC01282AD0022828D003281AD1D2
:1044B00025E0052823D0062821D0B04213D120467C
:1044C00002F01AFA002070BD204602F05DFC204682
:1044D00002F06EFB002070BD218904E0218902E01A
:1044E000618900E0218A99420ED0204602F05CFCEE
:1044F000012070BD204602F0EFFB002070BD204679
:1045000002F066FB002070BD002070BD70B5002673
:10451000150A0E4805EB450200EB021409882180BC
:104520000120A0702846FFF749FF00206BF4A8D6B1
:104530000748016829B10B681BB122880021284671
:1045400098476BF4D3D6304670BD0000D42E80005F
:10455000B82280003EB500241D0A0A78122A02D033
:10456000132A04D006E000208DF8000002E00120AC
:104570008DF800008888ADF804004888ADF8020086
:10458000891D029100206BF47BD60B48016829B18C
:104590008A691AB169462846904708E09DF80000EC
:1045A000012804D1BDF804102846FFF713FF6BF46F
:1045B0009DD620463EBD0000B42280000148007810
:1045C00070470000744880007CB50E46150A002034
:1045D000009001906946284675F4D0D69DF80620D3
:1045E0006946284602F098F90446CCB165F4CED469
:1045F000C0B165F4CBD4C01C81B232880023204600
:1046000070F4ACD06946284608F00EF840B106A216
:104610004021002002F430F22146684661F414D2B1
:1046200000207CBD0020E7E7523A333A736176659B
:1046300020636363640A000010B58AB00446FF2259
:1046400028216846FEF7B9F840F20271ADF8001073
:104650000021ADF802108DF804406846FFF79AFE7D
:104660000AB010BD00230849496808E0CA888242A0
:1046700004D80A89824201D3CB6802E00968002984
:10468000F4D11846704700006848800070B519489A
:104690000468194D2878002801D0002070BD4FF023
:1046A000806074F425D501F4F1F4600875F430D419
:1046B000124908608817114901262C3908601049F1
:1046C0007006C1F8FC01C8674FF03041086B40F03C
:1046D00007000863094C303C206840F4E02020606B
:1046E00001F416F52E70206820F4E02020600120EF
:1046F00070BD00006C248000B446800070C500A02E
:1047000084E000E070B50024EFF31086012080F310
:10471000108801F418F5104D28B102242968B9B1A8
:104720000220884714E0FFF77DFE20B1296879B1A7
:10473000002088470CE0FFF7A9FF28B10224296870
:1047400031B10220884703E0296809B10020884779
:1047500086F31088204670BD5C248000034900EB7E
:10476000800001EB80008088704700003C4580009D
:10477000034A00EB800002EB80008180704700005C
:104780003C45800010B500F065F800F047F8BDE842
:10479000104000F001B8000000B58FB003228DF882
:1047A00000204FF48050019005218DF80810012061
:1047B0008DF8090000238DF80A308DF80C20430392
:1047C00004938DF814108DF815008DF816008DF8EF
:1047D0001820C30307938DF820108DF821008DF861
:1047E00022208DF8242082030A928DF82C108DF857
:1047F0002D0002228DF82E2004238DF830300D92EA
:104800008DF838108DF839008DF83A30024A684634
:10481000FEF78EFF0FB000BD2D3700017CB51026CE
:10482000009602248DF804408DF8054007258DF888
:10483000065069460320FEF761FD00968DF804409E
:104840008DF805408DF8065069460520FEF756FDA7
:104850007CBD000000B587B000F01EF803208DF885
:1048600000001D208DF8160001208DF817008DF82E
:1048700018008DF81900044A04496846FEF7FCFF49
:10488000FEF7ECFB07B000BD91480001E9480001CC
:104890000020FFF771BA00001CB5114800904FF4DA
:1048A0008064019400F58060002101704FF4E132D2
:1048B0000264032242648164C1640165012141658F
:1048C0000274CB0243610223437401760271846057
:1048D000437101736A460349FFF7ECFA1CBD0000FF
:1048E000E06A8000753D00010A4601464FF47A7384
:1048F0000020FFF7A3BB00000E4910F1210F06DADC
:10490000086820F4704040F440500860704710F18F
:104910001D0206D3086820F4704040F4804008600F
:1049200070470A28FCDD086820F4704040F4A0407D
:104930000860704724C500A010B507F0CFFD07F050
:10494000DBFA08F0B3FA00F06BFCBDE8104007F0AA
:10495000BDBD00002DE9F04F87B07B48D0F8009036
:1049600000240025A246002608F0EEFB77480168E7
:10497000C9F800104068C9F804007548006808309C
:10498000059009F108000690042203A9059800F09B
:1049900013FCBDF80C10A1F57F40FF3843D008226E
:1049A00003A9059800F008FCBDF80E0070F404D7C8
:1049B00000F0FF08BDF80C00002867D00698A9EBAE
:1049C000000707F58057BDF80E1008F10800834670
:1049D0000844B84263D805AB082203A906A800F032
:1049E000D7F8BDF80E00002300EB080205A906A8C1
:1049F00007F016FB641CBDF80E005844B842C3D142
:104A00000020CDE9006053464A462146284608F07A
:104A1000D5FD002826D1824600260024CDF8189026
:104A20006D1CEDB2B0E70020CDE9006053464A4668
:104A30002146284608F0C2FD002813D16D1CECB2B7
:104A4000434D4FF48057434E08E0286800EB043094
:104A5000394602F0CDFC40B1641CE4B2707AA04249
:104A6000F3D8002007B0BDE8F08F3B488169407A59
:104A700040F26242CDE900200291384B38A24FF457
:104A80000041002001F4F8F70920EBE7BDF80E0023
:104A9000059908F1080808444044059074E7082F78
:104AA00029D305AB082203A906A800F071F8083F36
:104AB0002FB100233A4605A906A807F0B1FA611CF8
:104AC0000020CDE9006053464A46284608F076FDAE
:104AD0000028C7D18246BDF80E004044C61B002402
:104AE000CDF818906D1CEDB20023324605A906A83A
:104AF00007F096FA48E705AB3A4603A906A800F086
:104B000047F8611C03A8CDE9006053464A46284691
:104B100008F054FD0028A5D1C7F1080ABDF80E0021
:104B200000EB08060024CDF818906D1CEDB20123AF
:104B3000524605A906A807F073FA0023324605A9D4
:104B400006A807F06DFA1FE7E0448000ACD5070027
:104B5000CC238000D8328000641F800016E600015C
:104B6000523A353A25732C204C256420666C6173CB
:104B700068207374617465203078253032582C2099
:104B80006572726F72203078253038580D0A000037
:104B900070B5044615461E462A462068FDF78BFD73
:104BA00030682844306020682844206070BD0000D0
:104BB00010B50548017B491C0173002075F416D01F
:104BC000BDE8104000F050B8E44480002DE9FE43F9
:104BD000FFF7CCFB1E48016821F4003101601C4E38
:104BE000083E30681B4980B2084330601A4803C849
:104BF000CDE9000116482C380068C82100F00700F4
:104C00001DF8000010FB01F514480768144CD4F897
:104C100000803846414602F031FB62686068831AC2
:104C2000AB42FBD34146384602F008FB07F0B8F927
:104C300002909DF8080028B19DF8080009494861D4
:104C40008861C861306820F07F403060BDE8FE8335
:104C500030C500A000008F11E44E0001FCED00E023
:104C6000001000E0E44480002DE9FC412D4E306846
:104C700020F07F4040F0885030602B4803C8CDE9D9
:104C8000000128482438006800F007011DF80100E1
:104C9000C82110FB01F525480768254CD4F8008091
:104CA0003846414602F0EAFA62686368981AA842F8
:104CB000FBD34146384602F0C1FA002507F070F9EF
:104CC0000446DFF87080D8F81800844201D9012723
:104CD00000E0002774F430D640B91FB1D8F81800AE
:104CE000201A02E0D8F81800001BC5B2D8F8180046
:104CF000C8F82000B5EB900F03D8292C01D8112C4F
:104D000002D200F019F807E000EBC00020440A21AD
:104D1000B0FBF1F0C8F81800306820F07F40306038
:104D2000BDE8FC8128C500A0E44E0001FCED00E0D8
:104D3000001000E0E44480002DE9F04F87B000202F
:104D400006900824DFF890811A20C8F81400634800
:104D50000168634A89B21143016005A8FDF790FF1D
:104D60000220FDF795FFDFF8749109F10809D9F8E1
:104D7000000020F47C3040F42030C9F8000059A035
:104D800003C8CDE90201DFF854A1AAF1240ADAF838
:104D9000000002A900F00700085CC82110FB01F523
:104DA000DFF848B1DBF800000190514F3E680198F0
:104DB000314602F063FA78687968091AA942FBD390
:104DC0003146019802F03AFA07F0EAF804909DF8AB
:104DD0001010D8F81400814204D99DF81020811CCD
:104DE0008A4263D99DF81010814204D29DF81020A8
:104DF000811E8A425AD29DF81010814201D90125A4
:104E000000E0002515B1641C64B201E0641E64B2C8
:104E1000202C11D3D9F8000020F47C3040F420304D
:104E2000C9F80000D8F83C00401CC8F83C0000203D
:104E300004900120069039E0D9F8000020F47C307D
:104E400040EA043040F40030C9F8000025A003C84F
:104E5000CDE90201DAF8000002A900F00700085CC1
:104E6000642110FB01F6DBF8000001903868009027
:104E7000DDE9001002F002FA78687968091AB14297
:104E8000FBD3DDE9001002F0D9F907F089F80490AE
:104E900035B19DF81000D8F814108842B2D805E05A
:104EA0009DF81000D8F814108842ABD39DF8140078
:104EB000FDF7EEFE0948016821F07F4101609DF891
:104EC0001000C8F81800D8F82400401CC8F82400C6
:104ED000069807B0BDE8F08FE444800028C500A024
:104EE00000008F114030101810200000FCED00E091
:104EF000001000E02DE9FF4104460A9F8846154650
:104F00001E4600210091019102910391002D0AD0CB
:104F1000684600F0BCF842462146684600F022F898
:104F2000041E11D104E04FF0FF3004B0BDE8F08161
:104F300032462946684600F035F8041E04D1394649
:104F4000684600F006F80446684600F08DF82046F2
:104F5000EBE7002802D009B100F026B84FF0FF308F
:104F60007047000070B504460E46002C02D00EB10A
:104F7000202A02D04FF0FF3070BDA068002520B17C
:104F8000FDF78DF9A56065602560E0680449016062
:104F9000456005618660C5604561002070BD000008
:104FA000005801A000F0A4B8F0B589B004460E4640
:104FB000202101A8FDF72BFC4FF0FF35ACB1A6B1C5
:104FC000E768384602F000FB384602F05BFB41F22E
:104FD0008830009001AB38462268A16802F03EFCA0
:104FE000044624B1284609B0F0BD2846FBE720223C
:104FF00001A93046FDF75FFB384602F0E5FA20468E
:10500000F1E72DE9FF4105460F46164600200090C6
:10501000019002900390002D08D0684600F037F808
:10502000684600F049F8041E11D104E04FF0FF304B
:1050300004B0BDE8F0813A462946684600F058F8C9
:10504000041E04D13146684600F006F8044668465E
:1050500000F00AF82046EBE7002802D009B1FFF77C
:10506000A3BF4FF0FF30704770B50446002C0DD041
:10507000A068002510B1FDF712F9A560E06810B135
:10508000FDF70DF9E56025606560A56070BD10B5A0
:105090000446002C0FD0002020606060A060E0601B
:1050A0007C20FDF7CDF8E060002804D0BDE810407A
:1050B0007C21FDF78ABB10BD70B50446002C11D0D1
:1050C000A068002520B1FDF7EAF8A56065602560BD
:1050D000E06806490160102141608560C560456156
:1050E000002070BD4FF0FF3070BD0000005801A0DF
:1050F0002DE9F04705460F469046296801EB08095F
:1051000000244FF0FF3A002D17D0B7B1A86810B1B6
:10511000686848452BD24FEAE97009EB906001219D
:1051200001EBA01080016860FDF78AF806463000A8
:1051300006D06968FDF749FB08E05046BDE8F087F6
:105140005046FBE7A868005D3055641C2868A04203
:10515000F8D8002003E0395C3155641C401C404500
:10516000F9D3A86808B1FDF79AF8AE6008E000200E
:1051700004E0AB683A5C5A54491C401C4045F8D3E3
:10518000C5F800900020D9E70A49322808DDD1F897
:10519000200220F4706040F44070C1F82002704793
:1051A0002828FCDAD1F8200220F47060C1F820022F
:1051B0007047000000E000A02DE9F04105460E46D2
:1051C0001746094C2378002B02D0002070F468D6D3
:1051D0003A463146284602F04BF90546207870F4ED
:1051E0005FD62846BDE8F081C92380002DE9F04153
:1051F00005460E461746094C2378002B02D00020A6
:1052000070F44ED63A463146284602F041F905463A
:10521000207870F445D62846BDE8F081C923800087
:105220000121024A00206AF49F940000516F00019E
:1052300010B5104C02220421204604F06DFA012220
:105240001021204604F068FA02228021204604F052
:1052500063FA02224021204604F05EFA0222202155
:10526000204604F059FA20460222BDE810400821E9
:1052700004F052BA001001A02DE9F04106460F4695
:105280001C4C4FF6FF75238C102B0AD32088214627
:105290006084CD835B1E0B841E22891C2046FDF793
:1052A0000AFA608C3246394606F062FA10B10C20D8
:1052B000BDE8F081208C102804D3401C2084608C31
:1052C000E08308E0618C24F81010208C401C2084BE
:1052D000608C401C608400F00FF80028E8D0218C1E
:1052E000491E89B22184628C521E628424F81150B6
:1052F000DEE700000879800010B5054A24214FF44C
:10530000204006F035FA08B10C2010BD002010BD79
:10531000087980002DE9FE4F07460D4602AA29466E
:10532000384607F0DBFF10B10298BDE8FE8F029C03
:1053300000260296DFF8688098F8000010B100207F
:1053400070F4AED5DFF85CA04FF6FF79082269460D
:10535000204602F08DF8BDF80000484502D12E80AD
:10536000029617E0B84206D115B1BDF802002880B8
:10537000083402940EE0BDF8020070F41DD2BDF8AE
:105380000210083021444418DAF800008442DDD3CA
:105390002E80029698F8000070F482D50298C4E737
:1053A000C9238000D023800070B506460024094D33
:1053B0000BE004EBC40005EB8000801C07223146A3
:1053C000FDF72EF920B1641CE4B22878A042F0D891
:1053D000204670BDC879800010B50021084B5A687E
:1053E0001B8809E052F83140844203D102EBC1002E
:1053F000406810BD491C89B29942F3D310BD00002A
:105400006844800010B50021084B5A681B8809E0E9
:1054100052F83140844203D102EBC100406810BD14
:10542000491C89B29942F3D310BD00005C4480004E
:1054300010B50021084B5A681B8809E052F831402A
:10544000844203D102EBC100406810BD491C89B2FF
:105450009942F3D310BD0000704480000349095CF9
:10546000002902D0002104F0BDBA7047327B8000D1
:1054700010B5884210D808290ED2094B074A5A6045
:1054800006E003EB8002946844F001049460401C41
:105490008842F6DD0320186010BD00000040003097
:1054A000002000E02DE9F047164F3868002826D08C
:1054B0004FF00009002400250526DFF84C8013E09A
:1054C00005EB4501012018F8212090403A68104270
:1054D00008D008EB81032246D3E90101641CE4B241
:1054E00000F01CF86D1CEDB2B54201D2062CE7D3DA
:1054F000641EE1B24846BDE8F047FFF7B9BFBDE81A
:10550000F08700005844800068E5000113B50121D0
:105510006846FEF7A5F901201CBD000070B50546E0
:105520001446114840F8345000EBC400416028464E
:1055300001F036FD0646FF2001F03CFD014625F056
:1055400001000A4B850703EB8402094B06D0801E3D
:10555000906006EB014043F8240002E0906043F8BD
:105560002410204670BD0000643D8000002000E053
:10557000004000302DE9FC410C46474A6178A07894
:1055800052F82110CDE90010237844A21021002008
:1055900001F472F2607801264F4F052530B10128E1
:1055A00037D0022849D0032872D15AE020786DF410
:1055B00075D0C0B2C0EBC00107EB81014D72A2787B
:1055C000452A09D1CA681278022A17D091F82020FA
:1055D000022A01D081F8206091F82020012A04D00D
:1055E000022A02D0032281F8202091F82020022AEA
:1055F0004ED0C9680978022906D102E007224A7212
:10560000EAE7A178452943D0344A0021126890473F
:105610003EE087F89950A078452805D197F89C007E
:10562000022801D087F89C6097F89C0002282FD0B0
:105630002B490020096888472AE087F8A550A07800
:10564000452805D197F8A800062801D087F8A8605A
:1056500097F8A80006281BD022490020096888472F
:1056600016E020786DF47CD0C0B207EB001181F811
:10567000B150A278462A01D0CE2A01D181F8B35088
:1056800091F8B310022903D0174A002112689047FD
:105690000020BDE8FC81000068228000523A313AC7
:1056A0006163742073746F707065642C206163741F
:1056B0005F6964783A2025642C206163745F747993
:1056C00070653A2025732C20726561736F6E3A20E5
:1056D0003078253032780A007C2780001022800044
:1056E00014228000182280001C22800010B58AB08D
:1056F0000C46FF2228216846FDF75FF840F20A2099
:10570000ADF80000ADF802406846FEF743FE0AB06F
:1057100010BD10B58AB00446FF2228216846FDF767
:105720004CF840F20D20ADF800000020ADF802006A
:105730001C22214602A8FCF7BEFF1C3409946846CF
:10574000FEF728FE0AB010BD30B58BB005460C46FA
:10575000FF22282101A8FDF730F840F20722ADF81A
:105760000420ADF806408DF8085001A8FEF712FE9F
:105770000BB030BD37B58AB005460C46FF22282154
:105780006846FDF71AF84FF40272ADF80020ADF844
:1057900002408DF804509DF830008DF808006846EE
:1057A000FEF7F8FD0DB030BD00B58BB0FF2228210B
:1057B00001A8FDF702F84FF44170ADF80400002095
:1057C000ADF8060001A8FEF7E5FD0BB000BD000036
:1057D0002DE9FF470C4666788DF80D6020784FEA7A
:1057E0001329CDE900905A4B5AA2102102960020AD
:1057F00001F442F120786449644F4FF0000801EB56
:10580000C905092861D008DC092824D2DFE800F0A6
:105810009A8B9A4A4A9A9A24240017282FD004DC9B
:105820000B2807D0142816D16AE0182814D019289C
:1058300011D111E0607822280DD100206AF420D522
:105840005348006828B143681BB100220F21484625
:1058500098476AF44BD575E06BF408D4044685F894
:10586000058000206AF40CD5386828B1436D1BB15F
:1058700022463146484698476AF438D562E06BF4D0
:10588000F5D3044685F8048000206AF4F9D438681A
:1058900028B183681BB122463146484698476AF4CE
:1058A00025D54FE06BF4E2D3044685F8068000204E
:1058B0006AF4E6D4386828B1836D1BB122463146BC
:1058C000484698476AF412D53CE06BF4CFD30446BF
:1058D00085F8028000206AF4D3D4386830B1C36CF4
:1058E00023B136B122463146484698476AF4FED481
:1058F00028E0002CFAD02246314648469847F5E782
:105900006BF4B4D3044685F8038000206AF4B8D45D
:10591000386828B1C36D1BB12246314648469847C6
:105920006AF4E4D40EE0607860B100206AF4A8D490
:10593000386828B1C36B1BB161780022484698478C
:105940006AF4D4D46BF498D304B00020BDE8F08797
:1059500023E60001523A313A25733A20636F6E69AB
:105960006478203D2025642C206F70636F6465206F
:105970003D20305825782C206572726F72203D20B2
:1059800030582578000000002A27800098218000E8
:10599000EC23800010B58AB00446FF222821684617
:1059A000FCF70BFF40F20331ADF80010ADF80240F8
:1059B0006846FEF7EFFC0AB010BD70B58AB0054628
:1059C0000C461646FF2228216846FCF7F6FE40F2F8
:1059D0000131ADF80010ADF802408DF804501222EC
:1059E000314602A8FCF767FE6846FEF7D3FC0AB012
:1059F00070BD70B58AB006460D461446FF222821B8
:105A00006846FCF7DAFE4FF44273ADF80030ADF8AB
:105A100002508DF8046020680290A088ADF80C0058
:105A20006846FEF7B7FC0AB070BD00002DE9F041F2
:105A3000ADF50E7D0C461E0A304663F4CBD1074609
:105A4000304663F4C7D1002834D04DA100913346CD
:105A50004DA21021002001F40FF0FF2E5BD0574D16
:105A60002088288060886880A088A880E088E880F6
:105A7000207A2872607A68722F74D4F80A00C5F808
:105A80000A00E089E8814E4A002102EBC60001606D
:105A90004160218822F836104FF4CA7129A8FCF71A
:105AA000B6FE29A85FF4BED6687ADFF8188101280F
:105AB00016D101E044A1C9E7E87B0121B1EB901FB9
:105AC0000ED198F81C0140070AD59DF8A40038B102
:105AD000A02101A8FCF79BFE002429AD01AF3DE009
:105AE00004F10A02617A1546304674F465D4617A8D
:105AF0002A46304600F05CFF354C6FB100206AF456
:105B0000BFD3206828B1836B1BB12C4A00213046DB
:105B100098476AF4EBD32DE0032088F8A800D8F862
:105B2000AC000078012825D100206AF4A9D32168AF
:105B300029B18B6B1BB1214A0021304698476AF48A
:105B4000D5D317E004EB840005EBC001093107EB66
:105B500004101022FCF7AFFD641CE4B29DF8A40011
:105B6000A042EFD815499DF8A43001AA0A31304669
:105B70006DF4C8D20DF50E7D0020BDE8F081000067
:105B8000534C415645000000523A313A636F6E6EF5
:105B9000656374696F6E5F7265715F696E645F687B
:105BA000616E646C65723A20636F6E69647820255B
:105BB000642C20726F6C652025730A001827800002
:105BC0002A2780007C2780004D4153544552000015
:105BD0009821800070B58AB006460D461446FF2213
:105BE00028216846FCF7E9FD40F20533ADF80030A6
:105BF000ADF802508DF8046020680290A088ADF8DE
:105C00000C006846FEF7C6FB0AB070BD30B58BB01D
:105C100005460C46FF22282101A8FCF7CEFD40F2E4
:105C20000632ADF804200022ADF806208DF80850A9
:105C3000206803906068049001A8FEF7ABFB0BB0EE
:105C400030BD00002DE9F0410D46E879FF2819D05C
:105C50001B4FB96889B300246CF400D5C6B216B1E5
:105C6000032E05D008E0E8796CF418D5C4B203E03F
:105C7000E8796CF475D5C4B2BB682A462146304633
:105C800098471AE000210E2065F42ED60446A4B1F0
:105C9000012020702868C4F80300A888A4F8070031
:105CA000A8796072E8796CF4F9D4A0700E212046CE
:105CB0006BF4F0D1204665F415D60020BDE8F081E4
:105CC000B444800030B58BB004460D46FF22282135
:105CD00001A8FCF772FD40F20622ADF80420ADF8F1
:105CE00006400E22294603A8FCF7E5FC01A8FEF7B2
:105CF00051FB0BB030BD70B58AB005460C46164658
:105D0000FF2228216846FCF758FD40F20233ADF827
:105D10000030ADF802408DF804508DF808606846F8
:105D2000FEF738FB0AB070BD70B50D46EFF3118079
:105D30001D490A781D490968C1F30221491C012443
:105D40008C401119C9B281F311881C0A184900232B
:105D500001EBC402136053604FF6FF7221F8342048
:105D6000C0B280F31188AB7812A21021002000F499
:105D700083F6204674F4B8D320466FF42DD0204625
:105D800074F4BAD200206AF47BD2114802683AB1A6
:105D9000D36B2BB1A8789030C2B20021204698472F
:105DA0006AF4A4D2002070BD02E400E00CED00E033
:105DB0002A278000523A313A646973636F6E6E200D
:105DC000726561736F6E203D20307825780A00007F
:105DD0009821800070B58AB006460D461446FF2211
:105DE00028216846FCF7E9FC40F20A33ADF80030A0
:105DF000ADF802508DF8046020680290606803904E
:105E00006846FEF7C7FA0AB070BD30B58BB00546DC
:105E10000C46FF22282101A8FCF7CFFC4FF6FF72A9
:105E2000ADF80420ADF8065034B1012C09D0022C95
:105E30000CD0032C13D10EE04FF40070ADF8040029
:105E40000DE040F20120ADF8040008E040F202202D
:105E5000ADF8040003E040F20320ADF8040001A80F
:105E6000FEF798FA0BB030BD70B58AB006460D4605
:105E70001446FF2228216846FCF79FFC40F20933B4
:105E8000ADF80030ADF802508DF804602068029043
:105E9000606803902089ADF810006846FEF77AFA32
:105EA0000AB070BD30B58BB005460C46FF222821E4
:105EB00001A8FCF782FC40F20731ADF80410002184
:105EC000ADF806108DF808502068039060680490C3
:105ED0000834059401A8FEF75DFA0BB030BD70B52B
:105EE0008AB005460C461646FF2228216846FCF774
:105EF00064FC4FF44073ADF80030ADF802408DF80B
:105F000004503088ADF808006846FEF743FA0AB03E
:105F100070BD30B58BB004460D46FF22282101A884
:105F2000FCF74BFC4FF6FF72ADF80420ADF80640CD
:105F300045B140F20520ADF8040001A8FEF72AFAA9
:105F40000BB030BD4FF40170ADF80400F5E730B58B
:105F50008BB005460C46FF22282101A8FCF72DFC3A
:105F600040F21122ADF80420ADF8065020680390ED
:105F7000A088ADF81000A0798DF8120001A8FEF7F6
:105F800009FA0BB030BD10B58AB00C46FF222821AB
:105F90006846FCF712FC40F20920ADF80000002032
:105FA000ADF8020020680290A088ADF80C00A0793E
:105FB0008DF80E006846FEF7EDF90AB010BD10B579
:105FC0008AB00446FF2228216846FCF7F6FB40F21F
:105FD0000B21ADF80010ADF802406846FEF7DAF983
:105FE0000AB010BD13B58AB00446FF2228216846C6
:105FF000FCF7E3FB4FF40371ADF80010ADF802407D
:106000009DF82C008DF808006846FEF7C3F90CB027
:1060100010BD30B58BB005460C46FF22282101A8E3
:10602000FCF7CBFB40F20F22ADF80420ADF80640A0
:106030008DF8085001A8FEF7ADF90BB030BD70B572
:106040008AB004460D461646FF2228216846FCF712
:10605000B4FB40F20E20ADF80000ADF80250102263
:10606000314602A8FCF727FB8DF804406846FEF78E
:1060700091F90AB070BD10B58AB00446FF222821FC
:106080006846FCF79AFB4FF40471ADF8001000214C
:10609000ADF802108DF804406846FEF77BF90AB0AF
:1060A00010BD00002DE9F0410446184600260023EB
:1060B00000256FF48857E4191C4F06D0012C07D037
:1060C000022C0CD0032C0CD105E03B687D6808E065
:1060D000BB68FD6805E0BB69FD69087801E03B69C4
:1060E0007D6900241CE033F83470874217D103EB3C
:1060F000C4035C68B4B10E4B9C4204D1034602F069
:10610000A7F906460EE00B4B9C4204D1034601F072
:106110001BFE064606E00346A047064602E0641C56
:10612000AC42E0D33046BDE8F08100007002800050
:10613000116F02009D3E02002DE9FC410E4629A090
:1061400003C8CDE900016A46314601200DF47CD236
:106150000746012F43D130460AF428D7C4B2C4BB46
:106160000AF4B0D7C5B2FF2D09D03078A02808D0E6
:10617000A1280CD0A22816D0A32819D10DE04B24B9
:1061800027E0314628460BF447D4044610E0314658
:1061900028460DF413D404460AE0314628460DF48F
:1061A0002DD1044604E03146284600F0F9F8C4B287
:1061B0007CB9707868B90D4890F86E10C90708D09E
:1061C00000EB8501C96850F8662FC1F81620808859
:1061D000488324B1064A2146012012689047384678
:1061E000BDE8FC81A0A1A3A200000000000E800079
:1061F000EC038000074A906800280AD051880029E3
:1062000007D01278002A04D001EB81014900FCF785
:10621000DCBA704784448000F0B5ADB004460D464A
:1062200016461F462878032804D0012809D01728CD
:1062300012D008E002200CF4C7D0F821FDF79AFF35
:1062400001E003F0F7F82DB03B46324629462046E0
:10625000BDE8F0406DF4EE976AF408D70446207864
:106260000A2825D300202B902C90687870B96946B5
:10627000E01D5FF43BD39DF829008DF8B200DDF8F6
:1062800023002B90BDF82700ADF8B000244E7068B5
:1062900048B1002069F4F4D77368227868782BA994
:1062A00098476AF423D06AF4E7D600202DB0F0BDF9
:1062B00068781C4E20B330886FF4B4D2C4B202A800
:1062C0000090184B69780A33727A1D46204674F4A0
:1062D000D7D5717A2A46204600F06AFB002069F47F
:1062E000CFD71148016829B18B6B1BB10D4A002132
:1062F0002046984769F4FAD76AF4BED60020D5E75D
:1063000002A9E01D5FF4F2D29DF831007072DDF851
:106310002B00C6F80A00BDF82F00F0812478CEE7E4
:10632000B444800018278000982180002DE9F041B6
:106330000F461E460021002400256FF48852801865
:1063400004D0012806D003280CD107E011480468C6
:10635000456807E010480468456803E00F48046892
:1063600045683E78002210E034F83200B0420BD18C
:1063700004EBC200406850B1FFF72EF802463946E0
:1063800030469047014602E0521CAA42ECD3084630
:10639000BDE8F081E8048000E0048000D8048000BB
:1063A00070B504460E460025194890F86C1005207B
:1063B000884301D0432522E070780CF427D400B341
:1063C0000BF4FAD7400702D5707802281BD0582169
:1063D00020460AF4D3D50446BCB10220607370781D
:1063E000607401200CF464D1A0820A4820600A483D
:1063F00060600A48A060002120460AF4DFD52846E4
:1064000070BD4025FBE74925F9E74B25F7E700007C
:10641000000E800021640001A96400011D2A010012
:106420002DE9F0410446884608F102051D4F97F812
:106430007900FF2806D197F86D0097F87D10084481
:106440000A2801D343262AE028460CF417D2C6B204
:106450002EBB2878A073002084F85500382208F15C
:10646000020104F11C00FCF726F96A8822B1072119
:1064700040F6B1502AF49CD2A07B012803D197F8B2
:106480007E0084F854007937207B7870207B387048
:106490003879401C3871294620460CF4CAD230465F
:1064A000BDE8F081000E800010B50446E08B0028A6
:1064B00004D0072140F6B1502AF4EAD10449207BE8
:1064C00081F87A002046BDE810400CF4A992000043
:1064D000000E80002DE9F04105460F461C48446837
:1064E000A41C42F2420606233246002141F2051066
:1064F00029F456D6077000224270A17801B101211B
:10650000144B1970A97B40F2FF374FF4806C0129BE
:1065100009D091B1A1894180E189818025F440D2DF
:106520006E82BDE8F081A1894B1EBB4202D2A0F869
:1065300002C000E041808280F0E7A1894B1EBB428F
:1065400002D2A0F802C000E041808280E6E70000AD
:10655000000E8000844480002DE9FC5F0C4692A070
:106560000068019001AA214600200DF46DD08346F9
:10657000BBF1010F7DD10026607800F00F07DFF836
:106580002C8298F86C006070002008B14226FBE075
:10659000A18C608C0BF49CD608B14026F4E04FF03F
:1065A000000A88F86EA088F86CA000F471F20A2046
:1065B000B8434FF4006902D00520B8437ED17C482F
:1065C0000078C0077BD01F2094F82010490606D51C
:1065D0007F2098F86E1041F0200188F86E1017F0B7
:1065E000050F04D0A17E490701D540F4C07040F4E6
:1065F000C06588F880A0208C000402D5012088F8AE
:106600008000208C400405D598F8800040F00200FE
:1066100088F88000A08B29460CF414D1064630007F
:106620007ED194F8200010F0380F15D004200BF420
:10663000CBD694F82010C1F3C202521E4FF6FF7160
:1066400001EA82020C2100F425F204200BF4BCD6EE
:1066500049460A4600F41EF294F82000400717D07D
:1066600002200BF4B1D694F8201001F00702521E5C
:1066700000E08FE04FF6FF7101EA82020C2100F486
:1066800009F202200BF4A0D649460A4600F402F2B1
:1066900015F4C06F1AD00021002005F0010211444A
:1066A000C9B26D08401CC0B22028F6D3B8F850001B
:1066B00028B1CDF800A0491E084401E01EE005E025
:1066C00080B26B460022012100F4E6F138480078E0
:1066D000800713D594F82000000605D598F86E00C1
:1066E00040F0400088F86E0094F82000C0F3C0111C
:1066F000E08B0FF49DD60646300045D102204CF4C5
:106700004FD388F86C700CF4B3D288F875A094F865
:106710002A0088F8740098F86C00800822D000E005
:1067200032E04120E17E88F86F108A0704D421F01E
:10673000020088F86F001720E18C494500D34946D4
:106740008946484500D981461FFA89F1A8F870109A
:10675000228D8A4200D21146884200D80846A8F805
:10676000720001E088F86FA01048102204F10A01BD
:106770005630FBF7A0FFA07EC00705D06068C8F8C0
:1067800066002089A8F86A003EB10A4A3146002016
:10679000126890475846BDE8FC9F074A002108460A
:1067A00012689047F6E7000003000000000E80002A
:1067B000F8038000EC038000FC0380002DE9FE4F0D
:1067C0008246884691460020019002902F4B30A2CD
:1067D000402100F451F132480068002854D0056887
:1067E0004AE0A888401C84B2EF88288971F418D543
:1067F000064623462BA240210020009700F43CF1DE
:1068000037E001A920465EF47DD328BB42F6021191
:1068100001A85EF47DD3F8B123462BA240210020CD
:1068200000F42AF163F4B2D380B163F4AFD3C01C97
:10683000A04204D1214648466EF428D040B15EB152
:10684000306948B1B8F1000F0CD106E00020EFE745
:106850000021504662F4C0D209E0214648466EF459
:1068600015D020B933690022214650469847641C50
:10687000A4B2BC42C5D92D68002DB2D1034B1AA2D7
:106880004021002000F4F8F0BDE8FE8F65E600012D
:10689000523A333A5B25735D20656E7465720A0067
:1068A000E0228000523A333A73746172745F686414
:1068B0006C3D307825782C20656E645F68646C3D93
:1068C000307825780A000000523A333A636C6561EB
:1068D0007220636363642061742068616E646C6518
:1068E0003D307825780A0000523A333A5B25735DD3
:1068F00020657869740A000070B50546054844684B
:1069000004E0E16809B1284688472468002CF8D1E2
:1069100070BD00006848800010B50E4B1B7898428F
:1069200010D200EB40030C48006800EB83100B68AA
:10693000C0F803308988A0F807108270012100F8A0
:10694000021B10BD05A24021002000F495F000209C
:1069500010BD0000E4238000DC228000523A333A6C
:10696000676174742066696E64206974656D2C209B
:106970006E6F7420666F756E640A000070B58AB021
:1069800005460C461646FF2228216846FBF715FFF0
:106990004FF4C063ADF80030ADF802408DF80450FC
:1069A000ADF806606846FDF7F5FC0AB070BD000062
:1069B0002DE9FC4107460E461446234B23A24021F5
:1069C000002000F459F0002538466EF485D58DF886
:1069D000066020680090A088ADF804003246214689
:1069E0003846FFF799FF04467CB1214668465EF4BD
:1069F000D9D603465BB119A24021002000F43CF037
:106A0000384600F071F801250EE001250CE0237AEC
:106A100019A24021002000F42FF0207A88B12246EC
:106A2000694638466EF436D2224629463846FFF784
:106A3000C5FE054B1AA24021002000F41DF0BDE860
:106A4000FC810125F0E700007BE60001523A333A71
:106A50005B25735D20656E7465720A00523A333AA5
:106A6000626F6E64206D6772206765742065727254
:106A70003D307825780A0000523A333A626F6E64EE
:106A800020646576207265636F6E6E6563742C207A
:106A900063636364206E756D3D307825780A00006D
:106AA000523A333A5B25735D20657869740A0000B9
:106AB00030B58BB004460D460A4B00221A70FF22F7
:106AC000282101A8FBF779FE40F20162ADF804200D
:106AD000ADF806408DF80A5001A8FDF75BFC0BB03D
:106AE00030BD00006848800070B504460BA240210C
:106AF0000020FFF7C1DF1048007884420DD20F4D0F
:106B000004EB4404C021286800EB8410FBF75DFE11
:106B10002968002001EB8411087070BD523A333AA5
:106B2000676174742072656D6F7665206974656D38
:106B300020656E7465720A00E4238000DC22800008
:106B400070B58AB006460D461446FF2228216846D5
:106B5000FBF733FE40F20452ADF80020ADF80250CE
:106B60008DF8046034F8040BADF80800039468460F
:106B7000FDF710FC0AB070BD70B58AB006460D4630
:106B80001446FF2228216846FBF717FE40F2035205
:106B9000ADF80020ADF802508DF8046034F8040B15
:106BA000ADF8080003946846FDF7F4FB0AB070BD29
:106BB00070B505460548846804E0E16809B12846D7
:106BC00088472468002CF8D170BD00006848800018
:106BD00070B505460548846804E0E16809B12846B7
:106BE00088472468002CF8D170BD000068488000F8
:106BF00070B58AB006460D461446FF222821684625
:106C0000FBF7DBFD40F20252ADF80020ADF8025078
:106C10008DF8046034F8040BADF80800039468465E
:106C2000FDF7B8FB0AB070BD30B58BB005460C4619
:106C3000FF22282101A8FBF7C0FD40F20752ADF862
:106C400004200022ADF806208DF80850D4E9010296
:106C50002168CDE90402039101A8FDF79BFB0BB06D
:106C600030BD70B58AB006460D461446FF22282175
:106C70006846FBF7A2FD40F20552ADF80020ADF8E2
:106C800002508DF8046034F8040BADF8080003944A
:106C90006846FDF77FFB0AB070BD70B58AB0064646
:106CA0000D461446FF2228216846FBF786FD4FF467
:106CB000A061ADF80010ADF802508DF80460162206
:106CC000214602A8FBF7F7FC163408946846FDF746
:106CD00061FB0AB070BD000070B50546002D12D0F2
:106CE000FDF76CFC0C48846805F1090609E0207981
:106CF0002A7A904204D13146A068FBF791FC18B182
:106D00002468002CF3D170BDE1680029FBD028462F
:106D1000BDE87040084700006848800070B58AB040
:106D200006460D461446FF2228216846FBF745FD1E
:106D300040F20152ADF80020ADF802508DF8046029
:106D400034F8040BADF8080003946846FDF722FB05
:106D50000AB070BD70B58AB005460C461646FF22D3
:106D600028216846FBF729FD40F20653ADF80030B4
:106D7000ADF802408DF80450ADF808606846FDF7A4
:106D800009FB0AB070BD000070B5054605484468AF
:106D900004E0E16809B1284688472468002CF8D14E
:106DA00070BD00006848800010B504460846FDF735
:106DB00059FC0146002903D02046BDE81040084791
:106DC00010BD017882781144C9B20171084670473C
:106DD00030B500224271438805E044798D5C2C4433
:106DE0004471521C92B29342F7D8407930BD0000F2
:106DF00030B50246002400200021084B53F82050F3
:106E00002DB1914201D1044605E0491CC9B2401C94
:106E1000C0B20A28F2D3204630BD0000CC0D80005D
:106E200070B506462DED068B88B00D469FED368B6E
:106E300020216846FBF7EBFC00241022694630460F
:106E4000FBF7A2FF0020694600F1080231F812208A
:106E5000224494B2401CC0B20828F5D3E408052EA1
:106E600002D0062E24D046E0688806F0B2FF41EC3E
:106E7000180B288806F0ADFF41EC190B204606F0F0
:106E8000A8FF53EC192B07F007F953EC182B06F069
:106E9000EBFD9FED1F1B53EC112B06F0E5FD9FED65
:106EA0001E1B53EC112B07F0EBF841EC180B22E002
:106EB0009FED1B0B51EC100B06F022FD41EC190B62
:106EC000688806F086FF41EC1A0BA88806F081FF5F
:106ED00041EC180B204606F07CFF53EC182B07F012
:106EE000DBF853EC1A2B06F0BFFD53EC192B06F020
:106EF000C9FF41EC180B08B0B0EE480AF0EE680A82
:106F0000BDEC068B70BD000000000000000000001A
:106F100079E9263108AC5CBF000000000000394070
:106F2000B76DDBB66DDB0E4010B5024600200021C8
:106F3000064B53F821401CB1914205D0401CC0B211
:106F4000491CC9B20A29F4D310BD0000CC0D800041
:106F50001CB542680121117000214FF48A2205E01E
:106F600012F8013B4468491C6354C9B20829F7D39D
:106F7000094906C9CDE900124168009A41F8092F74
:106F8000019A4A6002884068112168F4AFD503492C
:106F9000002008701CBD00009CE600014825800010
:106FA00000887047002101E0491C4008C207FBD05F
:106FB0000846704740F45F4070470000014617489C
:106FC0000068C0F3C220DC2901DA06207047A1F175
:106FD000DC020A2A03D20428F8D006207047A1F167
:106FE000E602142A01D804207047A1F1FB02092A05
:106FF00003D20328F8D004207047A1F58272282A12
:1070000001D803207047A1F22D11092903D20228CB
:10701000F8D00320704702207047000010C500A080
:1070200001461E480068C0F3C220DC2901DA0720AF
:107030007047A1F1DC020A2A03D20528F8D0072004
:107040007047A1F1E602142A01D805207047A1F18A
:10705000FB02092A03D20428F8D005207047A1F5C5
:107060008272282A01D804207047A1F22D12092A21
:1070700003D20328F8D004207047A1F59B723C2A64
:1070800001D803207047A1F27311092903D2022805
:10709000F8D00320704702207047000010C500A000
:1070A0000248006800F480707047000078C500A0B6
:1070B00005480068C00F002804D00448007908B1D2
:1070C000012070470020704740C500A0E4448000C4
:1070D000FEB50546002404208DF8000000260B4F65
:1070E000E8070CD00120A040019004EB440007EB1E
:1070F000800081680291416809B168468847641C34
:10710000A4B26D08761C082EEADBFEBD1472800066
:1071100010B5EFF31084012181F3108800F004F81A
:1071200084F3108810BD000010B50446204602F01C
:1071300093FAE0B2EFF31081012282F31088134A30
:10714000136883430343136081F31088104844623B
:1071500084634FF6FF7000EA0422E0B20B490C3959
:107160000B68104383430B6001230BE094FAA4F0F7
:10717000B0FA80F203FA02F0621E14400A6822EAB2
:1071800000400860002CF1D110BD00005CC500A0DB
:10719000002001A070B50546064810F477D4EFF33F
:1071A0001084012181F31088284600F005F884F34B
:1071B000108870BD4446800000B585B0016800911C
:1071C000017901F00301019181680291C168039185
:1071D000406800090490684602F0B2F905B000BDAD
:1071E00010B5FF20FBF706FF80B2002821D011491F
:1071F0008863EFF31081012282F310880E4A6FEA50
:107200000043136081F310886FF0040111600A4994
:1072100040390968C1F3001139B1202805D0BDE813
:10722000104020F0200010F4A993BDE8104010F4A5
:10723000A59310BD002001A044C500A010B5EFF338
:107240001083012282F31088094A1468002C02D0AE
:107250001468641E146012683AB920F0807021F03E
:107260000101044A11600449086083F3108810BDCD
:1072700090448000001000E0FCED00E010B5EFF35A
:107280001082012383F31088074B1C68641C1C6068
:10729000064B40F08070186041F00100044908601E
:1072A00082F3108810BD000090448000FCED00E0E7
:1072B000001000E010B50446002C1DD0207A0128F3
:1072C0001CD0012020721A48006818B1416809B129
:1072D000204688471748016821F480610160EFF378
:1072E0001081012080F310881348026822F0020206
:1072F0000260006820B114E0012010BD022010BD22
:107300000E48426842F001024260C26842F00072D8
:10731000C260026842F001020260C26842F08072FC
:10732000C26081F310880020E0606072207210BD9E
:107330008403800014C500A02C468000A0E200A0B9
:1073400070B50446002C03D023492068884201D040
:10735000012070BD207A012805D001252572607AB0
:10736000002610B11EE0022070BD26721B48016885
:1073700021F001010160816821F000718160EFF36B
:107380001080012181F3108815490A6842F0020239
:107390000A6080F310881348006818B1016809B1C9
:1073A00020468847022060720F48016841F48061DE
:1073B00001606068012809D02068016821F48051CB
:1073C00001603046E6606572207270BD2068016819
:1073D00041F480510160F4E7006401A0A4E200A040
:1073E0002C4680008403800014C500A012F4229073
:1073F00010B50B46024600210348FEF7B2DB08B188
:10740000002010BD012010BD641F800038B502208F
:1074100000906846FBF734FC114C206880B9114895
:10742000206011490160012141608160EB21C16050
:107430000E499DF8002051F82210016100214161A0
:1074400074F494D508B1012000E00020A072044833
:1074500011F484D708B1002038BD012038BD0000E8
:10746000641F8000281F800000D000A0C844800056
:1074700010B514460A46014623460448FFF7B6FFF6
:1074800008B1002010BD204610BD0000641F800020
:107490002DE9F047C0B081468A4617463B46524622
:1074A00049461748FEF753DA18BB00243D464FF40F
:1074B0008078474501D9464600E03E4609EB040185
:1074C00033466A460E48FFF791FF90B90AEB040075
:1074D00032466946FBF7A4F858B9AD1B6DB1344488
:1074E0004646B54200D82E46BC4202D2A019B84248
:1074F000E4D9002040B0BDE8F0873846FAE7000044
:10750000641F800070B505460E46074812F4E8D2A5
:10751000EFF31084012282F310883146284612F4DA
:10752000A7D284F3108870BD484680002DE9FE4341
:1075300007460E463046FFF735FD85B20024DFF8DA
:107540005490DFF8548059F83400B8421DD105EB4F
:10755000041085B205EB450218F82200032807D075
:107560008DF800400D48874206D13004019004E0B8
:1075700003208DF80000F5E7019608EB8200816892
:10758000029142680AB168469047641C032CDADB1A
:10759000BDE8FE83A4E3000194708000001001A008
:1075A00070B505460E46074812F49AD2EFF31084E0
:1075B000012282F310883146284612F486D284F3E1
:1075C000108870BD4846800070B50546064812F424
:1075D000F5D3EFF31084012181F31088284600F0E1
:1075E00005F884F3108870BD4C46800070B50446E1
:1075F000002C20D094F8340001281ED0012684F8F5
:1076000034601D4D286820F001002860A86820F033
:107610000070A860A5F5297520682DF4BBD6EFF39E
:10762000108186F310881548026822F00402026077
:10763000006820B115E0012070BD022070BD05F585
:107640002875686840F001006860E86840F00070E4
:10765000E860286840F001002860E86840F0807029
:10766000E86081F31088204600F068F80020343488
:1076700060606070207070BDA4E200A02C468000A5
:107680007047704770B50546064812F497D3EFF37C
:107690001084012181F31088284600F005F884F356
:1076A000108870BD4C46800070B50446002C0BD08D
:1076B00094F83400012809D0012684F8346094F845
:1076C0003500002520B12AE0012070BD022070BDE8
:1076D00084F834501748416821F001014160C168C5
:1076E00021F00071C160016821F001010160C168F1
:1076F00021F08071C160EFF31080012181F31088C7
:107700000D490A6842F004020A6080F3108820469E
:1077100000F015F841F28831204600F09DF820462F
:1077200001F0DCF910B9A56384F8356084F83450B1
:1077300070BD0000A0E200A02C468000704770479A
:107740002DE9FF4F83B0884614469A46002503264C
:10775000002708F03F00372801D9022000E001206F
:10776000009000984FEA00194FF0807001904FEAA6
:10777000981B4FEA89012046FBF749F8039800EB74
:107780008B11CBF1000002AA08EB80131EE0A807C2
:10779000002801D1086802900AD14FF0000605F0D8
:1077A000030C206812F80CC000EB0C6020600BE0AA
:1077B00005F00300012821D0022827D0105C26689C
:1077C000304401C403267F1C491C6D1CAB42DED82B
:1077D00026B3012E27D0022E2AD02168019801EB72
:1077E000C0102060A9EB0700401E04EB8000BAF136
:1077F000100F21D0BAF1000F23D029E00126105C30
:10780000D4F800C00CEB00402060DDE70226105CDD
:10781000D4F800C00CEB00202060D5E7206800F50C
:1078200000002060DEE7206800F500402060D9E716
:10783000206880302060D5E7016801EBC801016055
:1078400006E04FF40072016802EBC80211440160C7
:10785000009807B0BDE8F08FC16370472DE9F0478D
:10786000A0B00446289D0F4692469946802168465E
:10787000FAF7CDFF4FEA9A1694F8340001280ED09B
:107880004FF0010884F8348094F835100020012965
:1078900007D084F83400022020B0BDE8F087022031
:1078A000FAE727626062A662E66220636A46514692
:1078B00038466368FFF744FF07466A46202168465A
:1078C00000F019F846B10DB1294600E0012120462B
:1078D00001F0ACF90028DFD1C4F83080C4F820D022
:1078E000C4F82490A762E76205B90125294620461D
:1078F00001F09CF9D0E770B500230FE050F8234069
:10790000250E04F47F0605EB162504F47F4605EBEF
:10791000062505EB046442F823405B1C8B42EDD343
:1079200070BD000010B5064817F4FAD7EFF31084C5
:10793000012080F3108814F49BD384F3108810BDC9
:107940003C46800030B54FF0F85000EA01604FF43B
:10795000F81202EA01421E4B1C680243944304439E
:107960001C6001F01F00EFF31082012484F31088E3
:107970001C1D256885430543256082F310884FF45C
:10798000F85202EA01221D6885431D60EFF3108062
:10799000012383F3108823689343236080F31088C6
:1079A00012E091FAA1F0B0FA80F001228240481E64
:1079B0000140EFF31080012383F31088236823EA4A
:1079C0008252226080F310880029EAD130BD000085
:1079D0003CC500A0084601F0C1BE084614F4D69389
:1079E0007047704770B504460D46044816F4C8D277
:1079F00029462046BDE8704016F48292017A0001C3
:107A00002DE9F0410020FBF7E7FF0546224FD5E9BD
:107A10000412C7E904122148081A72F11E0017D394
:107A200007F120000EE0D6E90412D7E90434B1EBE7
:107A3000030C72EB040C04D3C91A62EB0402C6E90E
:107A40000412006A066A002EEDD1002139617961C5
:107A5000A87801280AD1D7E90430D5E902125918CB
:107A60005041C5E904102846FBF77AFFFCF726F8D9
:107A7000786840B1D0E90431D7E90402181A61EB03
:107A8000020102F003FBE96909B1A8698847BDE872
:107A9000F041FBF7DDBF0000787280000010C32CBE
:107AA00010B5032806D0FFF79DFF03490120087099
:107AB000002010BD012010BD9544800010B5114874
:107AC0008178002909D11049096801F0405101224B
:107AD0008270B1F1805F00D14270407870B19FED4B
