:020000040100F9
:10200000000084005920000161200001A94A8000DD
:10201000FF210001FD210001452200010000000018
:10202000000000000000000000000000514C800093
:102030006B200001000000006D20000171200001F4
:10204000DFF810D000F0F2FB00F094F800480047F1
:102050001DF4000100008400064880470648004740
:10206000FEE7FEE7FEE7FEE7FEE7FEE7FEE7FEE748
:10207000FEE700006D2A000141F400012DE9F05F48
:102080000546002092469B468846064681464024E7
:102090001BE0284641464746224600F0BBFA53461D
:1020A0005A46C01A914110D311461846224600F0F4
:1020B000A2FA2D1A67EB01084F46224601200021A3
:1020C00000F099FA17EB00094E41201EA4F101041B
:1020D000DFDC484631462A464346BDE8F09F000013
:1020E0000649074A0868504343F239021044086021
:1020F000400870470149086070470000944A80001A
:102100006D4EC64140EA01039B0703D009E008C9B0
:10211000121F08C0042AFAD203E011F8013B00F8AC
:10212000013B521EF9D27047D2B201E000F8012BF8
:10213000491EFBD270470022F6E710B513460A4647
:1021400004461946FFF7F0FF204610BD421C10F868
:10215000011B0029FBD1801A704730B504460020CE
:10216000034600E05B1C934203D2E05CCD5C401B65
:10217000F8D030BD70B5054C054D03E02068204413
:102180008047241DAC42F9D170BD000038370101F1
:102190003C3701010EB540F2334102910021CDE9F7
:1021A00000110A460B4600F066FA03B000BD0EB5FA
:1021B00040F2334202920022CDE90022134600F0A1
:1021C0005AFA03B000BD20F00040C20DC0F3160063
:1021D00040F400007F2A02DA002001467047002107
:1021E000962A03DCC2F19602D0407047963A00F07E
:1021F00002BA43F6C51CC3F2000C6047FEE7FEE7D7
:1022000058585247010000001555000000200001F9
:10221000002000016EED52490101000000000000A5
:1022200000000000000000000000000000000000AE
:10223000000000000000000000000000000000009E
:102240001BF44A97FEE7704770472DE9FE4F804622
:1022500081EA0300C00F0C46009021F0004123F0FA
:102260000045B8EB0200A94105D240462146904600
:102270001C460B46024623F00040104347D0270D72
:10228000C7F30A00C3F30A510290401A0190402894
:102290006BDAC3F3130040F4801B0098924620B120
:1022A0000023D2EB030A63EB0B0B01985946C0F1F4
:1022B0004002504600F09FF906460D4650465946EA
:1022C000019A00F0B7F910EB08006141002487EA99
:1022D000115284EAE7731A4340D0009A62B3019A1C
:1022E000012A4FEA075215DC001B61EB02014FF097
:1022F000004202EA0752CDE90042001C41F580117C
:1023000032462B4600F0B7F903B0BDE8F08F4046E7
:102310002146F9E7001B61EB0201001C41F5801327
:1023200000185B412018A2F5001747EB030140EAB3
:10233000D570B6196D4111E06D084FEA360645EAD1
:10234000C0754FEA0752001B61EB0201001C41F50A
:10235000801149084FEA30000019514132462B469E
:1023600003B0BDE8F04F00F077B9009801224000BB
:102370000023D0EB020263EBE073009821464FEAA2
:10238000E074B8EB000061EB0401E9E783F000437F
:102390005BE781F0004158E72DE9FE4F81EA030435
:1023A00004F0004421F0004100944FF0000B23F0B2
:1023B000004350EA01045ED052EA03045BD0C3F349
:1023C0000A54C1F30A552C44A4F2F3340194A0FB3F
:1023D0000254C1F3130141F48011C3F3130343F416
:1023E000801301FB024400FB034E840A970A44EA6F
:1023F000815447EA8357A4FB076802958D0A05FBC1
:1024000007854FEA932C04FB0C542705029D4FEAE5
:10241000065847EA1637B5EB08056EEB070C870E32
:10242000920E47EA811742EA8312A7FB0201B6EB3C
:102430000B0164EB00042B0D43EA0C335E1844EBF4
:102440001C50DA465146E7FB0201C5F313044FEA7C
:102450000B3343EA14534FEA0432019C43EA060368
:10246000A4F10C040294009CCDE900B400F003F93F
:1024700003B0BDE8F08F00200146F9E72DE9F04DEB
:1024800081EA030404F0004B21F0004514464FF0AC
:10249000000A23F0004150EA050220D054EA01026C
:1024A0001DD0C5F30A570246C5F31303C1F3130049
:1024B000C1F30A5640F4801543F48013A7EB0608D5
:1024C000101BD64608F2FD3873EB050002D308F165
:1024D000010801E092185B41B8F1000F03DA002017
:1024E0000146BDE8F08D00204FF480110646844679
:1024F0000EE0171B73EB050705D3121B63EB0503F7
:1025000006434CEA010C49084FEA300092185B413F
:1025100050EA0107EDD152EA030012D082EA04002A
:1025200083EA0501084305D0101BAB4106D2012206
:10253000002306E000224FF0004302E06FF00102AA
:1025400053101AEB06004CEB085110EB0A0041EB5C
:102550000B01BDE8F04D00F07FB870B5C1F30A5231
:1025600001F000450024C1F3130140F2FF3341F4B0
:1025700080119A4201DA002070BD40F233439A4242
:10258000A2F2334203DC524200F044F800E09040F3
:102590002C43F1D0404270BDC1F30A5210B5C1F3D3
:1025A000130140F2FF3341F480119A4201DA002016
:1025B00010BD40F233439A42A2F2334203DC52424E
:1025C00000F028F810BD904010BD30B50B46014614
:1025D00000202022012409E021FA02F59D4205D3C2
:1025E00003FA02F5491B04FA02F52844151EA2F16C
:1025F0000102F1DC30BD202A04DB203A00FA02F1AE
:10260000002070479140C2F1200320FA03F31943E0
:1026100090407047202A04DB203A21FA02F0002182
:10262000704721FA02F3D040C2F1200291400843E2
:1026300019467047202A06DBCB17203A41FA02F0F0
:1026400043EAE07306E041FA02F3D040C2F120020F
:10265000914008431946704710B5141E73F10004E9
:1026600008DA401C41F1000192185B411A4301D184
:1026700020F0010010BD2DE9F04D92469B4611B1AE
:10268000B1FA81F202E0B0FA80F220329046FFF710
:10269000B2FF04460F4640EA0A0041EA0B015346E6
:1026A0005A46084313D0114653EA010019D0C8F125
:1026B00040025046FFF7AEFF05460E4650465946CB
:1026C0004246FFF798FF084305D0012004E020466A
:1026D0003946BDE8F08D0020054346EAE0762C43FC
:1026E00037430A986305E40AA0EB08000022FD0ABC
:1026F00044EA47540A3002D500200146E9E70105C3
:1027000010196941DDE9084500196941BDE8F04D3E
:10271000A2E700002DE9F041054621F000400C46FB
:10272000284309D0C4F30A5040F23341884205DD02
:1027300028462146BDE8F0812846FBE740F2FE31FD
:10274000884210DC0CDB4FEA043040EA155050EAB6
:10275000053105D0104804F0004101430020E9E7AD
:1027600000200146E6E7A0F233404642C6F14002AF
:1027700028462146FFF73FFF074688462846214660
:102780003246FFF747FF43463A46FFF765FF3246BA
:10279000BDE8F041FFF72FBF0000F03FC1F30A5240
:1027A000C1F3130140F2FF3341F480119A4202DA7F
:1027B00000200146704740F233439A42A2F233426E
:1027C00002DC5242FFF726BFFFF715BF30B5041EEB
:1027D00071F1000404DB4FF00044404264EB01015E
:1027E000141E73F1000405DB1C464FF000435242F7
:1027F00063EB04038B4208BF824230BD30B5041E38
:1028000071F1000404DB4FF00044404264EB01012D
:10281000141E73F1000405DB1C464FF000435242C6
:1028200063EB0403994208BF904230BD064C074D4C
:1028300006E0E06840F0010394E807009847103490
:10284000AC42F6D3FFF700FCE8360101383701014E
:1028500070B58C1810F8015B15F0070301D110F862
:10286000013B2A1106D110F8012B03E010F8016B8F
:1028700001F8016B5B1EF9D12B0705D40023521E12
:102880000DD401F8013BFAE710F8013BCB1A921C7A
:1028900003E013F8015B01F8015B521EF9D5A14278
:1028A000D8D3002070BD000010B51E480068002875
:1028B00000D080471C4900200870811E1B48016021
:1028C0001B494FF0007008601A4CD4F8C002800712
:1028D00004D4F42218A11DA006F450F32A4801687C
:1028E000D4F8C40261F31D3040F00100C4F8C40202
:1028F00005F4A6F100214FF03040C1608161C1179D
:102900004161016205F458F108484038016821F43A
:10291000800101601D480068002802D0BDE8104019
:10292000004710BD602480009849800044C500A085
:1029300080E200E000E000A0727769705F736C6570
:1029400065705F636F6D6D6F6E2E63004D43555FF5
:102950005355422D3E424C455F44534C4545505FD4
:10296000434F52525F454E2026204D43555F5355ED
:10297000425F424C455F44534C4545505F434F5284
:10298000525F48575F454E00542480006424800005
:1029900000214FF03040C1608161C1174161016287
:1029A0000649022004220A60BFF34F8FBFF36F8FE6
:1029B0000860BFF34F8FBFF36F8F704780E100E077
:1029C00004490220C1F800010860BFF34F8FBFF334
:1029D0006F8F704780E100E00249096801F007014C
:1029E0000170704704C500A030B4062821D21249F6
:1029F0000A6802F00702824212D00A680F4B1A409E
:102A00000F4C22430A6000BF00BF00BF00BF0A682E
:102A10001A400C4B024333F8203042EA83420A60EA
:102A20000849183951F820000749086030BC76F48D
:102A3000E19230BC7047000004C500A0F8FFE3FF3E
:102A4000050008007C250101004180000448006861
:102A5000044900F0070051F820000349086070475E
:102A600004C500A0642501010041800002480168FE
:102A700041F470010160704788ED00E00248006891
:102A8000001D1EF4E9950000D04380000248406814
:102A9000001D1EF4E1950000D04380000FB4054BEB
:102AA00010B503A9044A029800F0AEF910BC5DF815
:102AB00014FB0000C17700016C4580000FB41CB509
:102AC0000246002007AC00290BD0491ECDE90021A9
:102AD000054B6A462146069800F096F9009A0021B7
:102AE00011701CBC5DF814FB373500010FB4084BA6
:102AF00010B504A902AA039800F086F9044602A9B9
:102B0000002000F023FD204610BC5DF814FB0000FF
:102B10004D3500017CB5044600201D4616460029AF
:102B20000BD0491ECDE90041044B6A462946304688
:102B300000F06AF9009A002111707CBD3735000160
:102B4000002804DB00F1E02090F80004704700F05A
:102B50000F0000F1E02090F8140D7047002804DB0E
:102B600000F1E02090F80004704700F00F0000F141
:102B7000E02090F8140D704702480068C0F302206E
:102B8000704700000CED00E010B52DED020B2DEDAF
:102B9000088B84B09DED0C0B51EC100BFFF7BAFDC8
:102BA00041EC180B9DED0C0B53EC182B51EC100B5A
:102BB000FFF7ECFB41EC190B0D989FED290B10F082
:102BC000004F53EC102B51EC190B9FED21AB9FEDF7
:102BD00022BB0ED0FFF7FAFD0ED953EC1B2B51ECA4
:102BE000190BFFF70BFE1CD214E000BF41EC180BD1
:102BF00017E0FFF7EBFD06D253EC1A2B51EC180B44
:102C0000FFF7C4FBF2E753EC1B2B51EC190BFFF75A
:102C1000F5FD06D853EC1A2B51EC180BFFF715FBFA
:102C2000E4E78DED028B9DED0C0B18EE901A10EE83
:102C3000900A8DED000B61F31E0003909DED020BD9
:102C400004B0BDEC088B02B010BD00000000000015
:102C5000000000000000F03F000000000000E03F26
:102C6000000000000000E0BF02E008C8121F08C119
:102C7000002AFAD17047002001E001C1121F002A8A
:102C8000FBD170472DE9FF5F82B00021DDE9043000
:102C9000020DDDF840B0034318D044F61050A2F204
:102CA000FF3242431514119801281FD0A5EB0B00E9
:102CB000401C5FEA000A4FF000064E4FDFF83891E3
:102CC000B046504615D5CAF1000413E0119801240E
:102CD0004AA3012801D16FEA0B010298119AC0E9B9
:102CE0000031C0E9024206B0BDE8F09FCBF1000020
:102CF000DFE704460021404A491842EB0450CDE981
:102D0000001012E0E00707D032463B4640464946F5
:102D1000FFF742FB8046894632463B46104619463D
:102D2000FFF73AFB06460F466410002CEAD1DDE9B6
:102D30000401DDE90023BAF1000F06DAFFF72CFBEE
:102D400042464B46FFF728FB05E0FFF797FB42465C
:102D50004B46FFF793FB04460E460022284BFFF735
:102D60004DFD03D84FF0FF30014607E00022254B10
:102D700020463146FFF769FAFFF710FD102409E0FD
:102D8000002C0ADB0A220023FFF778F9039B30327C
:102D90001A55641E50EA0102F2D1641C039AC4F170
:102DA00011031444119A012A03D0012208430DD1C2
:102DB0000AE0084304D000204FF0110B119072E795
:102DC000A3EB0B056D1E0DE05B4504DD4FF000022B
:102DD00005F1010504E003DA4FF00002A5F1010559
:102DE000002AECD002981199C0E90231C0E90045EF
:102DF00079E70000000014400000F03F30000000C0
:102E00000000F0430000E03F2DE9FF4F95B09B46E6
:102E10008946064600250FE2252877D1002427465B
:102E2000F84A0121059400E0044316F8013F203BD5
:102E300001FA03F01042F7D130782A2811D06FF050
:102E40002F033078A0F13002092A16D8059A44F0F1
:102E5000020402EB820203EB42021044761C05904E
:102E6000EFE759F8042B0592002A03DA504244F4A4
:102E70000054059044F00204761C30782E2816D1B8
:102E800016F8010F44F004042A280DD06FF02F0229
:102E90003078A0F13003092B09D807EB870302EB48
:102EA0004303C718761CF3E759F8047B761C307887
:102EB0006C280FD006DC4C2817D068280DD06A2863
:102EC00014D104E0742810D07A280FD10DE044F416
:102ED00000140AE044F4801401E044F440147278D1
:102EE000824202D104F58014761C761C3078662864
:102EF0000BD013DC582877D009DC002875D0452882
:102F0000F6D04628F4D047281AD19DE118E063286E
:102F100035D0642879D0652812D195E1702873D016
:102F200008DC6728F1D069286FD06E280DD06F2893
:102F300006D1B5E073282CD0752875D0782874D0C8
:102F40005A46179990476D1C75E1C4F30250022848
:102F500009D003280DD0D9F8001004280DD00D6039
:102F600009F1040967E1D9F80010EA17C1E9005234
:102F7000F6E7D9F800100D80F2E70D70F0E719F8C8
:102F8000041B8DF8001000208DF80100EA46012096
:102F900003E059F804AB4FF0FF3061074FF0000138
:102FA00002D40DE008F101018846B9420FDA8045EC
:102FB000F8DB1AF808100029F4D108E008F1010143
:102FC00088468142FADB1AF808100029F6D10598E4
:102FD0005B46A0EB080721463846179A00F094FAA2
:102FE000284400EB080507E04DE029E10DE01AF860
:102FF000010B5A4617999047B8F10108F7D25B4682
:1030000021463846179A13E142E00A220092C4F39F
:1030100002524FF0000A022A08D059F804CB032AC2
:103020004FEAEC710AD00DE029E02AE009F107012E
:1030300021F00702F2E802C1914609E00FFA8CFC88
:103040004FEAEC71042A03D14FFA8CFC4FEAEC7181
:10305000002907DA0A460021DCF1000C61EB0201CD
:103060002D2202E0220504D52B228DF80420012216
:1030700003E0E20701D02022F7E7904659E00A2159
:1030800002E010220DE010214FF0000A00910BE049
:1030900010224FF0000A44F004040827009203E0D5
:1030A00008224FF0000A0092C4F30252022A05D00F
:1030B00059F804CB0021032A08D009E009F10701DF
:1030C00021F00702F2E802C1914605E01FFA8CFCEC
:1030D000042A01D10CF0FF0C4FF00008220728D57C
:1030E000702806D0009B83F0100353EA0A0305D032
:1030F0000EE040228DF80420012208E05CEA010283
:1031000006D030228DF804208DF80500022290466A
:10311000009B83F0080353EA0A030AD15CEA010228
:1031200001D1620705D530228DF804204FF0010847
:103130007F1E582804D034A003900EA802900DE002
:1031400036A0F9E753466046009AFEF797FF84469B
:103150000398825C0298401E029002705CEA0100B3
:10316000F0D1029806A9081A00F1200A600702D5DA
:1031700024F4803400E00127574502DDA7EB0A0064
:1031800000E0002000EB0A01009005984144401A3D
:103190000590E00306D45B462146179A059800F097
:1031A000B3F90544002706E001A85A46C05D179907
:1031B00090476D1C7F1C4745F6DBE0030CD55B4652
:1031C0002146179A059800F09FF9054404E0302045
:1031D0005A46179990476D1C0099481E0090002987
:1031E000F5DC08E0029802995A460078491C0291E1
:1031F000179990476D1CBAF10001AAF1010AF1DCA0
:1032000065E10000092801003031323334353637AA
:103210003839616263646566000000003031323322
:1032200034353637383941424344454600000000C2
:1032300000F058F90544761C307800287FF4ECAD96
:1032400019B02846BDE8F08F620700D4062709F1BF
:10325000070222F0070CFCE80223E14603F00048D5
:103260005FEA080C02D00FF2702C0DE05FEA045CFC
:1032700002D50FF2682C07E05FEAC47C02D00FF29F
:10328000602C01E0AFF2700C4FF0FF3823F00043E8
:10329000CDF850C065280CD006DC452809D046285A
:1032A0001DD047283DD13DE0662818D067287ED143
:1032B00038E00021112F01DB112000E0781CCDE95E
:1032C000000106A90EA8FFF7DDFCDDE90F010E9A4B
:1032D00003910021009207F1010A04914DE04FF0A3
:1032E00000400097CDE9011006A90EA8FFF7CAFC1F
:1032F000DDE90F0203920E9B11990022DDF80CA06C
:103300000093049211B9791C00EB010AB7EB0A0093
:1033100004D4C0F1FF3007F1010A0490AAEB0700C2
:10332000019044E0012F00DA01270021112F01DD77
:10333000112000E03846CDE9000106A90EA8FFF7EC
:10334000A1FCDDE90F010E9A039100210491009286
:10335000BA4621070CD40399514500DA8A46BAF1DE
:10336000010F05DD009AAAF10101515C302908D056
:10337000B84202DA10F1040F06DA0121CDE901109A
:1033800015E0AAF10101E9E7002805DC04990144F0
:103390000491AAEB000102E0411C514500DD8A4680
:1033A0000499401A401C01904FF000400290200701
:1033B00004D40198504501DBCDF8048000208DF83D
:1033C0004F0002980DF14F07B0F1004F25D02B2090
:1033D0000E9002984FF0020800280CDA404202904A
:1033E0002D200E9007E00A210298FFF7EEF8303109
:1033F000029007F8011DB8F10001A8F10108F2DC04
:1034000002980028EFD1791E0E980870307800F0ED
:10341000200040F0450007F8020D12A8C01B00F183
:1034200007081498007800B1012000EB0A01019808
:1034300001EBE07105984144401A401E0590E003FD
:1034400006D45B462146179A059800F05DF80544BE
:103450001498007818B15A46179990476D1CE003EC
:1034600024D55B462146179A059800F04DF805448F
:103470001CE00498002807DBDDE90301884203DD36
:103480000098405C179901E0179930205A46904700
:10349000049805F10105401C04900198401E01901C
:1034A00004D12E205A46179990476D1CBAF100019D
:1034B000AAF1010ADDDC05E017F8010B5A4617995D
:1034C00090476D1CB8F10001A8F10108F4DC5B46DF
:1034D0002146179A0598ABE62D0000002B0000004E
:1034E000200000002DE9F041044600251E46174645
:1034F000880404D405E039462020B0476D1C641EC2
:10350000F9D52846BDE8F0812DE9F04104460025B3
:103510001E469046C80301D5302700E020278804C6
:1035200004D505E041463846B0476D1C641EF9D508
:103530002846BDE8F0814A68002A06D00A68531C74
:103540000B6010704868401E486070470A68531C42
:103550000B601070704700002DE9F05F0746894648
:1035600093464FEA5B04A2464D465F4EDFF87C81EE
:10357000EFF31080012181F31088D8F8A41221F014
:103580002001C8F8A41280F31088EFF31080012105
:1035900081F31088D8F8A01221F02001C8F8A012F9
:1035A00080F31088306820F08040306050483060F0
:1035B0003F20D8F8001160F30501C8F80011306809
:1035C00020F4601040EAC7403060306820F4E0200A
:1035D00040EA07403060052F03D1306840F40040D6
:1035E0003060062F03D1306840F48040306030688E
:1035F00040F400503060306820F060503060306837
:1036000020F00F0040F003003060EFF31080012144
:1036100081F31088344A3832116821F0E04141F0DA
:103620008041116080F31088306840F08040306045
:1036300001E0D8F80000D8F80401C0F30020002809
:10364000F7D1EFF31080012181F31088116841F068
:103650000041116080F3108834E000204FF47A714B
:103660001AE0884217D9306820F080403060306816
:1036700040F000403060306820F00040306008F0DA
:1036800089FF1C480168491C016054464D460520CD
:1036900078F4B5D26CE7401CD8F80421C2F30022BC
:1036A000002ADED0D8F8040100F07F01A14200D941
:1036B0002146002003E0D8F8002004C5401C8842C1
:1036C000F9D3641A002CC8D15FEACB7008D0D8F8BF
:1036D0000401C0F300200028F9D0D8F800002880A9
:1036E000BDE8F05F08F056BF08C500A000E000A0EC
:1036F0000A070807844A80002DE9F04107460E4674
:103700004FF000080024274D0BE004EBC40005EB4C
:103710008000801C07223946FEF71FFD40B1641C63
:10372000E4B22878A042F0D8B8F1000F18D102E036
:103730004FF00108F8E728780A21B0FBF1F201FB0D
:1037400012040A2801D2401C287004EBC40105EBC6
:1037500081003968C0F80210B988C180B979017256
:103760002B7811A21021002005F40AF4307800070C
:103770000BD504EBC40005EB800006F14601BDE863
:10378000F0410A301C22FEF7BDBC04EBC40005EB7F
:10379000800006F12A01BDE8F0410A301C22FEF744
:1037A000B1BC0000F42A8100523A313A61646420CD
:1037B0006C746B206974656D2C206E756D203D20D6
:1037C00025640A000449896B084004490A781043BB
:1037D00000220A7070470000002001A03C468000D3
:1037E000104A114900280EDC0868C0F34120012866
:1037F00008D0506C401C5064086820F4C06040F44D
:103800000070086070470A28FCDB086810F4C06F7D
:10381000F8D0106C401C1064086820F4C060086088
:1038200070470000C44780000CC500A006460F4644
:10383000154672B63846FEF789FC402801D940206B
:1038400002E03846FEF782FC80463046FEF77EFCFA
:10385000402801D9402002E03046FEF777FC0446BC
:103860009C211048FEF767FC424639460D48FEF79A
:1038700049FC0C48224631465C30FEF743FC0948BF
:103880004FF0AA31016445644FF0BB3181644FF0C1
:10389000CC3101654FF0DD318165002000F004F886
:1038A000FEE700009096800030B5ADF20C4D044666
:1038B0004FF4806103A8FEF73EFC184D202085F8E8
:1038C0003F0085F89B003CB12846012C436DC26C3B
:1038D00009D0022C0CD00FE0104A11A15C3203A8D1
:1038E000FFF704F908E011A103A8FFF7FFF803E0D0
:1038F00016A103A8FFF7FAF803A90BA2686CCDE99B
:103900000121009018A3054A18A1002000F020FB17
:1039100000F0EAFA0DF20C4D30BD000090968000E8
:103920005B4552524F525D20257300005B57415258
:103930004E494E475D20506172616D303A25642CCE
:10394000506172616D313A25640000005B50415254
:10395000414D5D20506172616D303A25642C50619B
:1039600072616D313A256400000000006170705F83
:103970006173736572742E6300000000014877F470
:103980007B970000E043800006460F4690461D46A8
:1039900072B64046FEF7DAFB402801D9402002E02B
:1039A0004046FEF7D3FB04469C210D48FEF7C3FBBF
:1039B000224641460A48FEF7A5FB09484FF055311B
:1039C000016445644FF066318164C6644FF077311D
:1039D00001654765C94381650220FFF765FFFEE782
:1039E000909680002DE9F04106460F4690461D4610
:1039F0004046FEF7ABFB402801D9402002E040469C
:103A0000FEF7A4FB04469C210D48FEF794FB2246DA
:103A100041460B48FEF776FB09484FF0113101642F
:103A2000456449008164C6644FF0333101654765E0
:103A30004FF044318165BDE8F0410120FFF734BF0C
:103A40009096800010B586B00EF022FA02F03AFE91
:103A50000446002C09D01422054901A8FEF752FBA8
:103A6000ADF8084001A800F0E3F806B010BD000072
:103A7000742701012DE9F041082802D30820BDE890
:103A8000F0811A4D00EB400005EB40142078D0B1D6
:103A9000EFF31086012080F31088201D06F0FAFC59
:103AA00000272770FF202071002000EB400105EB6C
:103AB00041110978012903D0401CC0B20828F4D371
:103AC000082802D00DE00920D9E7094CB4F902001A
:103AD0000CF078F94FF0FF3060802770032018F465
:103AE000A8D386F310880020C9E70000A0908000CA
:103AF000C8438000082801D30020704700EB400134
:103B0000044800EB4110017809B1001D7047002006
:103B100070470000A09080002DE9F04706468946D6
:103B200000244FF0FF3847464FF0010A002E16D010
:103B3000394903200DF068FC307990B1012810D08C
:103B400002280ED003280CD004280AD0052808D05B
:103B5000062806D0072804D04046BDE8F087052097
:103B6000FBE7EFF31082012181F310882B4D012335
:103B700004EB440105EB411191F800C0BCF1000FCA
:103B800003D091F804C084450CD104EB440005EB4C
:103B9000401090F82D00022802D027460B7005E057
:103BA000082403E0641CE4B2082CE1D382F31088FB
:103BB000082C2BD2DFF868A09AF8000038B98AF8F0
:103BC0000030032117480CF0BFF8AAF8020004EBFC
:103BD000440105EB41153079287105F108002422D4
:103BE00006F10801FEF78EFA0F4868630F48E86394
:103BF00000202864C5F85C90032018F40DD303203E
:103C000018F428D3281D06F075FC8246BAF1000F7F
:103C100000D047463846A0E7794C8000A09080004D
:103C2000C84380009425010121740001A57300019F
:103C30003EB504464FF400711A48FEF77CFA20782E
:103C400010B1012819D01DE000211748A28830F8D2
:103C500031309A4207D100EBC10014A143681148EA
:103C6000FEF744FF0EE02E2902D0491CC9B2EEE750
:103C700014A10C48FEF73AFF04E01DA10948626850
:103C8000FEF734FF074921A22069CDE90121009008
:103C9000D4E902231EA1002000F05AF9BDE83E40FD
:103CA00000F022B92C978000EC4380004572726FBF
:103CB0007220636F6465203078253034583A2025AF
:103CC000730000004572726F7220636F646520306C
:103CD00078253034583A204E6F20666F756E642018
:103CE000696E666F726D6174696F6E2E0000000000
:103CF00028257329206973206E6F742065737461A1
:103D0000626C69736865642E000000002573000012
:103D10006170705F6572726F722E630070B58EB0E5
:103D200005460C46564901F164004DC8CDE90A022A
:103D3000CDE90C36D1E91E23486F06AED1F88010CC
:103D40000DC6099114224E49843101A8FEF7DAF913
:103D5000ACB14C4906200DF057FB4B4907200DF044
:103D600053FB4A4912200DF04FFB4549444A2C3180
:103D7000062D7CD2DFE805F0060606214159052014
:103D80000EB070BD207931F810000B90607932F8D8
:103D900010000C90A0790D9020680A9038481430DB
:103DA00050F8350021880904090C04D018B10AA97B
:103DB00006F084FD59E00420E2E7207931F8100094
:103DC0000B90607932F810000C90A0790D9020686B
:103DD0000A9020680104090C05D080B20A900AA953
:103DE0002B4806F06BFD2068010C3ED0000C0A90B9
:103DF0000AA9284806F062FD37E0207901EB40006F
:103E0000408A0790607902EB4000C0880890A07952
:103E1000099020680690207810F0FF0F03D006A8C4
:103E200006F0E4FA21E00420AAE72079031F032B1F
:103E300001D80720A4E702281AD001200290207997
:103E400001EB4000808C0390607902EB4000808998
:103E50000490A079059020680190207810F0FF0F61
:103E600009D001A9002006F04DFD002088E704E0FC
:103E700002200290E3E7042082E7062080E70000AA
:103E8000A0250101DB4C8000D54C8000D14C800086
:103E9000000001A0001001A000B587B003208DF83C
:103EA00000001D208DF8160001208DF817008DF8F8
:103EB00018008DF81900044A0449684600F01CF8FF
:103EC000FFF75CFD07B000BD71F2000105210101A3
:103ED000002806D0002904D0024AD269002A00D066
:103EE000104770472C9A80000248006A002800D0D2
:103EF000004770472C9A800070B50D4616460D4C51
:103F000000280AD00178032911D80121A1760146A1
:103F10001A222046FEF7F6F805E00020A0761A21C6
:103F20000448FEF708F9E5612662002070BD012013
:103F300070BD00002C9A8000044A1044807D084225
:103F400001D0012070470020704700002C9A8000AB
:103F50002DE9FE4FDDF830B0064692469946002422
:103F60000027019702975A480178B14202D2807E19
:103F700000287DD10DF13808CDF80080EFF31185D0
:103F80000220FEF7EBFD014652480068C0F3022014
:103F9000401C012282408818C0B280F311880121A0
:103FA0003046FFF7C9FF38B14B484C4950F826203E
:103FB000204600F0A5F804461C213046FFF7BCFF60
:103FC00000285ED046A24549204600F099F82044DA
:103FD00084B204213046FFF7AFFFF8B152463F49A3
:103FE000204600F08DF8204484B208213046FFF7C7
:103FF000A3FF38B13BA23949204600F081F82044A4
:1040000084B20BE010213046FFF796FF30B136A2A4
:104010003249204600F074F8204484B2082130462A
:10402000FFF78AFF90B14A462C49204600F068F815
:10403000204484B210213046FFF77EFF30B12BA21E
:104040002649204600F05CF8204484B21021304616
:10405000FFF772FF70B15B4626A2052101A8FEF7AB
:104060002DFD01AA1D49204600F04AF8204400E039
:104070002BE084B220A21949204600F041F82044E8
:1040800084B21648C4F58071204443460D9AFEF769
:1040900041FD00974FF48071002804DB20448842E2
:1040A00001DC86B200E00E46B01C884200D9FE2634
:1040B00012A20A49304600F023F8304481B2074882
:1040C000FFF706FFE8B280F31188BDE8FE8F00001D
:1040D0002C9A80000CED00E05C4580002C9980005B
:1040E00028000000200000003A000000204C696E0B
:1040F000653A0000256C6400292000000D0A0000CC
:1041000030B50546002000290CD0002A0AD006E070
:104110002B18FF2B06D8CC54521C401C80B21478AC
:10412000002CF5D130BD000010B586B005F08EFF33
:104130000446002C09D01422054901A8FDF7E2FF2E
:10414000ADF8084001A8FFF773FD06B010BD0000F0
:104150006027010110B5074A06214CF201000BF05F
:1041600085F90DF061FFFFF797FEBDE810400020D4
:1041700074F478957C2601012DE9F04104460D4642
:104180001746002D04D0012D02D00120BDE8F0819A
:10419000CCB1C7B1EFF311860220FEF7D1FC804607
:1041A000FEF7EAFC401C0121814008EB0100C0B28F
:1041B00080F3118800206070A570E761F0B280F391
:1041C00011880020E2E70120E0E710B50446002C4A
:1041D0000CD0204600F0B0F9FF2060700021A160F3
:1041E000E160216161610020E06110BD012010BD2E
:1041F000F0B5DDE90745059981614FF47A76A2FBB8
:10420000061C03FB06C3002702FB0732C0E90212AB
:1042100009196A41C0E9041200210162F0BD0000E1
:104220002DE9F0410446002C13D0EFF31185022054
:10423000FEF786FC0746FEF79FFC401C012606FAA7
:1042400000F03844C0B280F3118812480021216286
:104250000EE00020BDE8F081D4E90432D1E9047C0D
:10426000DB1B72EB0C0202D2016A216203E00846FA
:10427000016A0029F0D1046266700648203801689E
:10428000491C0160016C4160E8B280F31188012093
:10429000E0E70000689680002DE9F0410546002423
:1042A000EFF311860220FEF74BFC0746FEF764FC95
:1042B000401C012181407818C0B280F31188134A54
:1042C000106CE8B115B102F1200010E00446206A3C
:1042D00010641068401E10600CE0A94206D11168FD
:1042E000491E1160296A01622C4603E00846016AF2
:1042F0000029F2D124B1002020626070106C50605F
:10430000F0B280F311882046BDE8F0814896800025
:104310002DE9F041EFF311870220FEF711FC04466E
:10432000FEF72AFC401C012181406018C0B280F3D6
:104330001188114D002608E02078012804D1E16998
:1043400009B1A069884726702D6A2C6A002CF3D128
:10435000094D203D07E0E16909B1A0698847267051
:10436000206AA8602662AC68002CF4D1F8B280F311
:1043700011880120BDE8F081689680002DE9F041A8
:10438000EFF311870220FEF7DBFB0446FEF7F4FB98
:10439000401C012606FA00F02044C0B280F31188C8
:1043A0001B4DA5F1200829E0D4E90420D8E9041325
:1043B000521A60EB0300D8E906319A1A814120D3E2
:1043C00026702046FFF768FFA078012802D0104829
:1043D00018380DE0D8E90430D4E902219A18484190
:1043E000C4E904202046FFF71BFF07E001F120008D
:1043F00001680029FAD12162006804622C6A002C4D
:10440000D2D1F8B280F311880120BDE8F08100001C
:10441000689680002DE9FF5F82460E4693464FF076
:104420000008BAF1000F20D0414886421DD8E6B1FD
:10443000EFF311870220FEF783FB0446FEF79CFB97
:10444000401C012181406018C0B280F311885046A1
:1044500007F00CFE10B19AF8010040B1F8B280F3F9
:1044600011880F2004B0BDE8F09F0120FAE70AF0A0
:1044700003FF04460D464FF47A7106FB01F0224615
:104480002B46002107F0C2FDDFF8A890B0B1D9F8A3
:10449000040048B1D0E90410091B60EB0500C9E92C
:1044A00004100AF085FF04E00021C9F81010C9F8D3
:1044B00014104FF00108D9E9040106E0D9F804000E
:1044C000D0E90421101B61EB0501CDE90201324660
:1044D0000023CDF800B05046FFF78AFE5046FFF7A4
:1044E0009FFE0CF02FFE4FF0E021D1F800014FF0BD
:1044F000806210F0806F01D0012000E0002018B928
:10450000C1F88022C1F80021B8F1000F0AD0D9F813
:104510000400D0E90431D9E90402181A61EB020160
:104520000AF0E0FEF8B280F3118800209AE700005C
:10453000008AB907489680002DE9F041044600251D
:10454000002C39D0EFF311870220FEF7F9FA064666
:10455000FEF712FB401C012181407018C0B280F3AD
:1045600011886078012824D1144E7068A0420BD1C4
:104570000AF082FED4E90432181A62EB0102C6E99D
:1045800004020AF015FF01252046FFF785FE5DB104
:10459000706848B1D0E90421D6E90403101A61EB30
:1045A00003010AF09FFE04E01DB9706808B90AF023
:1045B000FFFEF8B280F31188BDE8F08148968000D4
:1045C00010B50446114822784FF0FF3150F82220F0
:1045D000A2F86810227850F82200A0F86A10606BE8
:1045E000002801D1A16B71B120B1204600F05EF826
:1045F000002807D1A06B20B1204600F009F8002860
:1046000000D1002010BD042010BD0000D043800068
:1046100030B58BB004462C216846FDF78CFDA06BAD
:10462000009094F83D008DF804001D4800998142E7
:1046300005D121781B4A02EB0111496802910299C8
:10464000F9B10099814201D10F2003904FF400107D
:104650000490C012059000200690079008900990E1
:10466000A0200A9000216846FFF756FA21780E4DE7
:1046700055F82110A1F86A00002804DA04200BB0D4
:1046800030BD0720FBE7FFF735FA217855F82110F8
:104690004863217855F82110091DC1620020EEE71A
:1046A000003001A05C260101D043800030B58BB002
:1046B00004462C216846FDF73EFD606B009094F89F
:1046C0003C008DF804001D480099814202D14FF052
:1046D0000F00029005D12078194901EB0010006805
:1046E00003900398D8B14FF4801004904FF000006D
:1046F00005904FF4807106910790089009900A90F8
:1047000001466846FFF708FA21780E4D55F821104A
:10471000A1F86800002804DA04200BB030BD07209F
:10472000FBE7FFF7E7F9217855F8211008632178B6
:1047300055F82110091DC1620020EEE7003001A0EC
:104740005C260101D043800070B50446022C01D3E1
:10475000082070BD144D55F8240018B190F86D1064
:10476000012901D0092070BDB0F96800FFF782F976
:1047700055F82400B0F96A00FFF77CF9EFF31080D8
:10478000012181F3108855F82420002182F86D1052
:1047900080F3108855F8240090F86C0008B945F8AB
:1047A0002410002070BD0000D04380002DE9F041AE
:1047B00006463478002E04D0022C04D30820BDE82D
:1047C000F0810520FBE7134F57F8240048B190F81B
:1047D0006C1031B1012C06D090F86D00012804D086
:1047E00006E00920EBE70820E9E72046FFF7ACFFE9
:1047F000EFF31085012080F310883046FFF7E0FECC
:1048000020B957F82420012182F86D1085F3108813
:10481000D5E70000D043800070B5022801D30820FE
:1048200070BD134C54F820304BB193F86C5035B137
:1048300039B132B193F80351012D04D010E00520B5
:1048400070BD042070BD002583F8035154F820305A
:104850005B680225C3F8885054F820305B681B68F9
:1048600054F82000001D06F0C7FA0028EAD170BDF8
:10487000D043800070B504461A4D55F824007030BE
:104880000BF0A7FE82B21646A2B155F8240090F8AC
:10489000011101290ED0012180F80411802A0FD3C3
:1048A00055F82400802200F1800170300BF0A6FE44
:1048B00080260CE055F82410002081F8000170BD1E
:1048C00055F8240000F1800170300BF097FE55F888
:1048D0002400324600F18001001D1DF4ABD00028F9
:1048E000EDD170BDD043800010B50178022905D00C
:1048F00001290ED1BDE810400DF00ABC81880548A1
:104900000DF0F8FBF422BDE810400249002000F051
:104910002BB910BDC4BB80002DE9F84304464B4EB3
:1049200056F82400071D022C7ED290F86C10002946
:104930007AD0012978D180F80111002556F8240099
:10494000D0E903120A44017D01F00101C91D02EB07
:1049500001084168CA6FC2F38002002AFAD090F8B9
:104960000411E1B1DFF8E8906D1C56F82400001D39
:1049700006F024FA10280BD056F82400D9F80010BD
:104980008068B1FBF0F000FB08F0B5EBC01FEBD97D
:1049900056F8240070300BF01CFE85B226E0B0F80B
:1049A0002480C58C001D1CF4BDD456F8240041F2AF
:1049B000883300EB0801491B8031001D2A461CF496
:1049C000FED7E5E756F824000122703069460BF067
:1049D00015FE56F824004068C16FC1F3400100295C
:1049E000FAD09DF8001001606D1EADB2002DE9D126
:1049F00056F8240070300BF0ECFD0028C8D1386860
:104A000041694906FCD5EFF31085012080F3108839
:104A100056F8240070300BF0DCFD68B1EFF3108124
:104A2000012080F3108800E00DE03868426842F011
:104A30008202426081F3108856F82410002081F829
:104A4000010185F31088BDE8F8830000D0438000A1
:104A5000004180002DE9F04389B0054688462C7856
:104A6000002D06D02AB1022C05D3082009B0BDE8DC
:104A7000F0830520FAE7384E05F1580046F8240087
:104A8000D2E900310A46703019460BF083FD291D2A
:104A9000894624220C316846FDF734FB291D286D18
:104AA0000EC90DF06FFA0028E0D12C490C200CF053
:104AB000ABFC2B490D200CF0A7FC2A4800EBC407E7
:104AC00097F9010017F4A8D397F9010017F4C2D39E
:104AD00056F82400C0F8649056F82400C0F800800E
:104AE00056F824001822083005F14001FDF70AFBB2
:104AF00056F824107868486056F82400001D06F027
:104B000031F956F82400001D06F062F9351F01271F
:104B1000287850B92F701348032110300BF014F986
:104B20006880002801DA0420A0E756F8240080F805
:104B30006C7056F82410002081F8000156F82410FB
:104B400081F8010156F8241081F8020156F824106A
:104B500081F803018AE70000D04380007D2A00012C
:104B60008D2A00014026010170B5022801D30820DA
:104B700070BD134C54F820304BB193F86C5035B1E4
:104B800039B132B193F80351012D04D010E0052062
:104B900070BD042070BD002583F8035154F8203007
:104BA0005B680225C3F8885054F820305B681B68A6
:104BB00054F82000001D06F093F90028EAD170BDDA
:104BC000D04380002DE9F04104461A4D55F82400E9
:104BD00070300BF0FEFC82B2164600277AB155F811
:104BE000240090F80111012909D0802A0ED300F188
:104BF0008001703080220BF001FD80260BE055F81B
:104C0000240080F800710020BDE8F08100F18001EF
:104C100070300BF0F3FC55F8240080F8047155F85F
:104C20002400324600F18001001D1CF449D7002801
:104C3000EAD1E9E7D043800070B50446022C01D3E5
:104C4000082070BD184D55F8240090B190F86C30D4
:104C50007BB181B17AB1002680F8026155F8240059
:104C600070300BF027FD55F8240090F8001121B1A9
:104C70000AE0052070BD042070BD90F8011119B93B
:104C800090F86C10012901D0022070BD012180F83C
:104C900000112046FFF796FF20B155F8241081F847
:104CA000006170BD002070BDD04380002DE9F0414F
:104CB00006460C46174604F10805204670F47CD5DC
:104CC000C3B21B48E1184268914202DD0320BDE8EF
:104CD000F0811849184A006809681268891A081A88
:104CE000001FE91881421CD94FF4004513A2294640
:104CF000002004F445F102F01DF830B118A2294655
:104D0000002004F43DF10820E1E71DA2294600201F
:104D100004F436F13A4621463046BDE8F0410DF044
:104D200069BB3A4621463046BDE8F0410DF062BB12
:104D3000D8328000D0238000CC238000523A353A0C
:104D40004E56445320617265612069732062656923
:104D50006E6720636F6D7061637465642E0D0A0069
:104D6000523A353A436F6D70616374696E67204ED5
:104D7000564453206661696C65640D0A00000000AA
:104D8000523A353A436F6D70616374696E67204EB5
:104D9000564453207375636365737366756C0D0AAF
:104DA000000000007CB50D46002200920192694689
:104DB00004F4E8F0044634BB4FF42051684604F490
:104DC000E3F0B8B942F60101684604F4DDF088B9B1
:104DD00042F60301684604F4D7F058B942F60201DE
:104DE000684604F4D1F028B94FF42451684604F41D
:104DF000CBF008B1062406E00098C5F30B018088CB
:104E000008430099888020467CBD00002DE9F047CA
:104E100082460E46174698464FF001090025D8F8FD
:104E20000040002C18D11E48046815E03188A08885
:104E300081420BD3E088814204D82146504600F0DD
:104E400031F808B1246807E0012505E02146504605
:104E500000F028F810B1246825B105E00125A088EC
:104E60003080F9E7002CE1D1B5B14FF00009A088FE
:104E70003188884204D1201D38600120387109E052
:104E8000081A401E00EB400004EB40000E30386072
:104E900000203871C8F800404846BDE8F08700009F
:104EA000F80E800070B586B0002200EB4003114C74
:104EB00003EBC00304EB43052C7D17E035F81230FB
:104EC00093B18E889E420FD8CE889E420CD3CA885A
:104ED00089888DE81F00084B084A4021002004F40F
:104EE0004FF0012006B070BD521CD2B29442E5D8FA
:104EF0000020F7E7782C81000A2A01011032010115
:104F00002DE9F04F8BB007460C4600250020089095
:104F1000099060880790261FE188A288CDE90121C9
:104F20000090614B61A24021002004F429F03088F8
:104F300050B9384610F472D0401E30806088A18885
:104F4000884200D800B90125DFF89091002D60D18A
:104F500004F10A000DF1200A0DF1140B04F106080A
:104F60000A90A088069004A8CDE9020BCDE9008A3A
:104F7000022306AA07A9384600F0ACF90546280026
:104F800008D00A2D45D0062D43D0BDF81800401C8E
:104F9000079032E0E088B0F5205F03D042F60101CF
:104FA000884208D1BDF81000217AC3B2059A0A9848
:104FB00003F4ECF748B92289BDF81000824218D1F9
:104FC00005990A98FDF7C9F898B9022108202AF432
:104FD0007BD70146BDF81C008880BDF81800C8804A
:104FE000083E59F82700603003F4D2F7384603F43E
:104FF000D1F7BDF81800401C0790A088BDF81C1020
:10500000884206D3BDF81810884202D030880428A0
:10501000A7D2062D36D059F82700603003F4BCF72C
:1050200040B300244FF6FF7101EA8006062000EB32
:10503000072307220421384600962DF4F5D20146B5
:105040004E8059F82700006E0EE083880A1913710C
:105050001B0A5371A41CA4B2C3880A1913711B0A3A
:105060005371A41CA4B200680028EED1084603F4D2
:1050700095F70AE021780A23BDF81C20384603F48E
:105080008FF702E0BDF81C006080074B14A240219E
:105090000020009503F474F7062D03D000200BB018
:1050A000BDE8F08F0120FAE7D2290101523A333AE4
:1050B0005B25735D20656E7465722C2073683D30CE
:1050C0007825782C2065683D307825782C207479F7
:1050D00070653D307825780A00000000C40E80001D
:1050E000523A333A5B25735D20657869742C2073DE
:1050F00074617475733D307825780A002DE9F04F9E
:1051000085B081460E4648460FF488D7801E1FFAA8
:1051100080FAD0460024B0887188CDE90010574B42
:1051200057A24021002003F42BF77088B188DFF8E4
:1051300074B1884211D880B1708804900020029028
:105140000390019001AB02AA04A94846FFF75EFE56
:105150000546280003D00A2542E0012540E0B0883A
:10516000BDF81010884232D3022118202AF4ACD6A0
:105170000746012000900023FA1DB91D02A803F480
:1051800011F70546280007D040F24E2346A22946D3
:10519000BDF8100003F408F7BDF81000B88004B99A
:1051A000BC79B879A04203D038462AF40DD517E06F
:1051B0005BF829003946603003F4EAF6A8EB0400F6
:1051C000801E1FFA80F8BDF81000401C0490B188C2
:1051D000BDF81000814203D310B1A01C8045B1D2AC
:1051E0005BF82900006E18B1002018B19DB334E0BF
:1051F0000120FAE70026AAEB08081FFA88F00090C1
:10520000062000EB09230522042148462DF40CD288
:105210000746022C08D002207870788840447880B5
:105220005BF82900046E10E00120F5E7A188B819A9
:105230008180B61CB6B2B819A279001DE11DFCF739
:1052400061FFA079304486B22468002CEED1384644
:1052500003F4A4F607E0FFE70A25728831782B46AD
:10526000484603F49DF6054B13A24021002000950B
:1052700003F486F605B00020BDE8F08FB9290101DE
:10528000523A333A5B25735D20656E7465722C204B
:1052900073683D307825782C2065683D3078257816
:1052A0000A000000C40E8000617474735F70617442
:1052B00063682E6300000000523A333A5B25735D49
:1052C00020657869742C207374617475733D30782F
:1052D00025780A002DE9F04F87B08346DDF8449029
:1052E0000C4615469A460026B4F800800027019720
:1052F00001AB4A4621465846FFF788FD10B1288881
:10530000208026E02088298888421BD8002302AA12
:1053100006A94846009703F445F6014629B12088BE
:1053200040F269131AA203F43FF69DF8183002AA5E
:105330005146109803F42AF608B1012602E02088AD
:10534000401C20802EB920882988884201D8002856
:10535000CED16EB122884B460021584603F426F682
:10536000C6B22088494603F423F6288026B10AE015
:105370000A26A4F8008006E02188DDE912235846B9
:1053800003F418F6C6B207B03046BDE8F08F00004F
:10539000617474735F70617463682E630000000051
:1053A0002DE9F04105460C46FF26217A1E2905D03D
:1053B00022480279521E52B200683AE004F1080114
:1053C000284603F4F9F5064635E010F832308B42F2
:1053D0002DD11B4E56F82500406F30B300273B46B9
:1053E00018A24021002003F4CBF5062000EB052095
:1053F0002AF4C0D7C00605D5002717A240210020F7
:1054000003F4BEF521460C3956F82500743003F438
:10541000BFF50020A08001266FB115A2402103F442
:10542000AFF5284603F4CAF505E00127D7E7521E79
:1054300052B2002AC9DA3046BDE8F0817C0580000E
:10544000C40E8000523A333A657865637574653DE1
:10545000307825780A000000523A333A636F6E6E56
:10546000656374206E6F742063666D0A000000002F
:10547000523A333A73746172742065786563757457
:10548000650A00000348024901600D214160704730
:10549000182901017C0580002DE9F04F8BB0824670
:1054A0000C460026002009900A9060880890251F6D
:1054B000B0462988A288CDE9012100906D4B6EA2EB
:1054C0004021002003F45CF5288850B950460FF4C1
:1054D000A5D5801E28806088A188884200D800B9A0
:1054E0000126714850F82A00006E10B1002111B158
:1054F00003E00121FBE790F80680002E5DD104F166
:10550000080BA088079006A805A909AACDE90210F2
:10551000CDE900B2A37907AA08A95046FFF7DAFE41
:105520000646300049D1BDF81410884502D0B8F1C4
:10553000000F42D12888001FFB22FB2800D3104611
:10554000814200D2084687B2022107F10C002AF4FA
:10555000BBD48146BDF81480BDF82000A9F8040032
:10556000BDF81C00A9F8060089F808703A4609F150
:1055700009000699FCF7C6FD2888C01B001F28807B
:105580004948494650F82A00603003F401F5BDF857
:105590001400874202D1504603F4FCF4BDF81C000D
:1055A000411C89B20891A2888A4206D3824204D063
:1055B000298808F104008142A3D2062E48D03A4D32
:1055C00055F82A00603003F4E7F4C0B3002755F81B
:1055D0002A100C6E217A091D41431FFA81F806201A
:1055E00000EB0A23112204215046CDF800802DF44F
:1055F0001BD00546A5F80280217A091D697018E0C4
:10560000A188E8190171090A4171BF1CBAB2E18889
:10561000A8180171090A4171921C97B2E819227AFF
:10562000001D04F10901FCF76DFD207A384487B2B2
:105630002468002CE4D1284603F4B0F40BE0FFE723
:1056400021783346BDF82020504603F4A9F402E047
:10565000BDF820006080074B14A240210020009676
:1056600003F48EF4062E03D000200BB0BDE8F08FBB
:105670000120FAE799290101523A333A5B25735D1B
:1056800020656E7465722C2073683D307825782C07
:105690002065683D307825782C2072655F6C656EDA
:1056A0003D307825780A0000C40E8000523A333A23
:1056B0005B25735D20657869742C20737461747543
:1056C000733D307825780A002DE9F04F8BB0824683
:1056D0000C460026002009900A9060880890251F3B
:1056E000B046A188694BCDE9000169A240210020A4
:1056F00003F446F4288850B950460FF48FD4801E26
:1057000028806088A188884200D800B901266948AD
:1057100050F82A00016E11B1002010B103E0012001
:10572000FBE791F80680EEBB04F1080BA088079018
:1057300006A805AA09A9CDE90220CDE900B1A379FF
:1057400007AA08A95046FFF7C5FD0646300047D115
:10575000BDF81410884502D0B8F1000F40D1288858
:10576000801EFD22FD2800D31046814200D208464B
:1057700087B2022107F108002AF4A6D38146BDF8BA
:105780001480BDF82000A9F8040089F806703A4694
:1057900009F107000699FCF7B5FC2888C01B801E9C
:1057A000288000E01CE04348494650F82A00603059
:1057B00003F4EEF3BDF81400874202D1504603F41F
:1057C000E9F3BDF81C00411C89B20891A2888A4205
:1057D00006D3824204D0298808F102008142A5D272
:1057E000062E40D0334D55F82A00603003F4D4F330
:1057F00080B3002755F82A100C6EA179891C41430B
:105800001FFA81F8062000EB0A23092204215046E2
:10581000CDF800802CF408D70546A5F80280A179C0
:10582000891C697010E0A188E8190171090A4171A9
:10583000BF1CBFB2E819A279001DE11DFCF762FC94
:10584000A079384487B22468002CECD1284603F4B0
:10585000A5F30BE0FFE721783346BDF82020504642
:1058600003F49EF302E0BDF820006080074B12A213
:1058700040210020009603F483F3062E03D000207D
:105880000BB0BDE8F08F0120FAE70000EE2901011E
:10589000523A333A5B25735D20656E7465722C2035
:1058A00073683D307825782C2065683D3078257800
:1058B0000A000000C40E8000523A333A5B25735D43
:1058C00020657869742C207374617475733D307829
:1058D00025780A002DE9FF5F81460F460024A24685
:1058E000CDF808A0CDF80CA0584850F82900603039
:1058F00003F452F380463D1F79882888544BCDE944
:10590000001054A24021002003F43AF32888E8BB99
:1059100048460FF483D3401E2880002611E007EB91
:10592000460002AB82880021484603F43FF3C4B22C
:10593000CDF808A0CDF80CA00CB1B0463BE0761C29
:10594000B6B27888B042EAD835E007EB48006B463B
:10595000818801AA484603F42DF3C4B23CBBBDF8CC
:1059600004002988884200D3084686B2022106F145
:1059700008002AF4A9D28346ABF8046032460BF142
:1059800006000099FCF7BEFB304800E013E050F839
:1059900029005946603003F4FBF2484603F4FAF25A
:1059A0002888801B288008F101081FFA88F8CDF8A4
:1059B00008A0CDF80CA07888404503D9288808B104
:1059C000002CC2D044BB48460FF428D32988401A83
:1059D000401E86B20025062000EB09230F22042179
:1059E000484600962CF420D68246AAF80260174852
:1059F00050F82900066E0AE00AEB0500B288001D87
:105A0000B11DFCF77FFBB088284485B23668002EB4
:105A1000F2D1504603F4C2F24CB1062C07D007EB8A
:105A20004800397882882346484603F4B9F2084B87
:105A300014A240210020009403F4A2F2062C03D00B
:105A4000002004B0BDE8F09F0120FAE7C40E8000FA
:105A500080290101523A333A5B25735D20656E74EB
:105A600065722C206E625F68616E646C653D307893
:105A700025782C2072655F6C656E3D307825780A3C
:105A800000000000523A333A5B25735D2065786967
:105A9000742C207374617475733D307825780A0016
:105AA00010B500210A4C0023002001EB410202EB5B
:105AB000C10204EB420222F81030401CC0B20A2896
:105AC000F9D31375491CC9B20A29EDD310BD0000E2
:105AD000782C81001FB50F4890F80201002818D0DB
:105AE00068464EF427D4DDE900010B4CCDE90201F4
:105AF000E1680844094920F07040486008464EF4C7
:105B0000AFD6607818B1BDE81F400AF0EFBE0AF0CA
:105B100009FF1FBDC01A80004C498000B41A8000E4
:105B200007F076BE10B58CB008A80BF075FEBDF876
:105B3000221009989DF82120CDE904109DF820300D
:105B40002FA04FF4A171CDE90232CDE90010364B00
:105B500036A23CA10220FEF7FBF90AA860F428D285
:105B6000044654B114223049103103A8FCF7CAFA94
:105B7000ADF8104003A8FEF75BF89DF828009DF8EB
:105B80002910CDE906109DF82A209DF82B30CDE98B
:105B900004329DF82C109DF82D002CA240F24713E2
:105BA000CDE90032CDE902011F4B20A225A1022040
:105BB000FEF7CEF930A04FF4A771CDE900101A4BD3
:105BC0001AA220A10220FEF7C3F90CF061F90CF033
:105BD000BDF9344804F0C2FB044654B11422124902
:105BE000243103A8FCF78EFAADF8104003A8FEF7A5
:105BF0001FF802F06FFC02F02BFD0CB010BD00008E
:105C0000476F6F64697820424C452053444B2056BF
:105C100025642E25642E25642028636F6D6D6974BC
:105C20002025782900000000982701012E2E5C53C2
:105C300072635C757365725C757365725F617070B9
:105C40002E6300004E4F5F54414700004C6F63616C
:105C50006C20426F61726420253032583A25303210
:105C6000583A253032583A253032583A2530325891
:105C70003A253032582E0000476F6F6469782055FE
:105C8000415254205365727669636520436C69659F
:105C90006E74206578616D706C65207374617274C8
:105CA00065642E0071A000012DE9F041054688468B
:105CB00028466AF445D2C0B22449097888420DD2F8
:105CC00000EB4000213040F400404246AC2109F096
:105CD000CDFB0446200032D0012430E06AF474D2B7
:105CE000C7B207EB470606F1200040F400402A4601
:105CF000072109F0BBFB10B10120BDE8F081384657
:105D000076F4B2D306F1210040F400404246AC21C3
:105D100009F0ACFB0446200001D00120EDE722365B
:105D200046F4004071F472D40949C7EBC700096812
:105D3000084429680160A9888180A97981711CB90A
:105D400041462846FDF7D8FC2046D6E73823800098
:105D50003C2380000020704710B50AF03DFE0AF099
:105D600089FE0AF0D7FD0AF0F9F90BF0EFFE00F01A
:105D7000C9FD0AF09BFE00F013FDBDE8104000F0E5
:105D8000F5BC0AF06FB910B507F0F0F807F06EFE39
:105D900007F0FCF807F000FD07F05CF906F080FB67
:105DA000FFF770FB03F0B8FC0AF014FF0BF00AFBDE
:105DB000BDE81040FFF774BE10B5FFF7E2FF0549DC
:105DC00003480860BDE81040034875F4BF95000023
:105DD00017B8800474C500A00087930310B504466B
:105DE000002C0CD0204600F023FA002807D10449EB
:105DF0004968002903D02046BDE81040084710BD7F
:105E0000204780003EB50446204600F05BFB20881A
:105E100040F20132A0F2013190424AD017DCB0F5D5
:105E2000807F32D0A0F500700B3832D001280DD120
:105E3000207A00280AD135A04FF48B71CDE90010EB
:105E4000364B37A23CA10320FEF782F83EBD012964
:105E50003ED0052953D0A1F50071FF39F6D16088F5
:105E60000028F3D136A040F23311CDE900102B4BBE
:105E70002BA231A10220FEF76BF8E0880CF086F926
:105E80002079BDE83E40FEF74FB9BDE83E40FFF740
:105E900049BE60880028D9D02DA140F20F12CDE96B
:105EA000002102901D4B1EA223A10320FEF750F8F3
:105EB0003EBD60880028FBD12DA04FF49071CDE944
:105EC0000010164B16A21CA10320FEF741F83EBDA0
:105ED00060880028FBD1207A28A140F22712CDE962
:105EE000002102900D4B0EA213A10320FEF730F803
:105EF000217A207903B0BDE83040FDF7A3BD2079B9
:105F000003B00121BDE8304060F44E965363616EEA
:105F10002054696D656F75742E000000882701019B
:105F20002E2E5C5372635C757365725C757365725B
:105F30005F6170702E6300004E4F5F544147000058
:105F40004D54552065786368616E6765642E000066
:105F50005363616E20737461727465642066616955
:105F60006C656428305825303258292E0000000016
:105F7000436F6E6E65637465642E000044697363DD
:105F80006F6E6E65637465642028307825303258F2
:105F9000292E00002DE9F04782460D460026EFF33A
:105FA00011883148027831480068C0F30221491C49
:105FB000012088401044C0B280F311886AF496D161
:105FC00081462DB12A4F97F8A50018B10F2637E06A
:105FD000022635E0D7F8AC0030B90021382065F44E
:105FE00083D4C7F8AC00D8B3D7F8AC4038212046EA
:105FF000FCF7A1F887F8A7A028782070607840F017
:10600000010060702889A0816889E081A8892082C8
:10601000E8896082288A60801020A080E080E8798A
:1060200000F00100E871D5F801002063B5F8050023
:10603000A086E87984F83600002106206AF4B2D2FE
:1060400033460CA21021002002F49AF748466AF465
:1060500017D108F0FF0080F311883046BDE8F087C3
:10606000FFE71026ECE7000002E400E00CED00E0A2
:106070007C278000523A313A636F6E6E6563742CF0
:1060800020737461747573203D2025640A0000003C
:106090000A2805D2034A002152F8200080F88F1008
:1060A00070470000C40E800070B504460D462046BF
:1060B0000AF04EFD002805D129462046BDE8704073
:1060C00062F4789770BD10B5044620460AF040FD92
:1060D000002804D12046BDE8104062F4A59710BD09
:1060E00038B504460D4600200090002C06D06946C5
:1060F0000D485FF419D580B210B110E0022038BD10
:10610000142075F4ABD6014659B105CCC1E90102A2
:10611000CD609DF800000874044806F037FA0020AE
:1061200038BD102038BD000004290101C04780009F
:1061300070B504460D4620460AF00AFD002805D138
:1061400029462046BDE8704063F47E9570BD2DE978
:10615000F8430546089C0E461746984628460AF01E
:10616000F7FC002806D143463A46314628460094BB
:1061700063F4C8D5BDE8F8832DE9F8430546089CCB
:106180000E461746984628460AF0E2FC002806D13B
:1061900043463A4631462846009463F45BD6BDE850
:1061A000F883000000B58BB0094901200870FF2278
:1061B000282101A8FBF7B8FF4FF48070ADF8040068
:1061C0000020ADF8060001A8FFF708FE0BB000BDE7
:1061D0002047800010B506480068002800D080479E
:1061E000FFF790DA08B1012010BD002010BD0000BB
:1061F000A049800010B540F4404071F407D210BDB2
:1062000010B540F4404009F031F910BD0449016077
:1062100004494160044981600449C160704700003D
:1062200041C2060015C2060001620001F5610001CD
:1062300070B50446002C1FD04FF6FF731946228814
:1062400040F20155A2F201504FF48076AA424CD0A0
:106250001BDC40F20245A2F20240AA4234D00DDC1F
:10626000A2F54072013A25D0012A23D0FF2A29D075
:10627000B2422ED121892CE0002070BD012825D00A
:10628000022825D0FE2824D12AE004282DD006DCBF
:1062900001282AD0022828D003281AD125E0052871
:1062A00023D0062821D0B04213D1204603F0E6F8CF
:1062B000002070BD204603F03BFC204603F0B4FAFA
:1062C000002070BD218904E0218902E0618900E09D
:1062D000218A99420ED0204603F03AFC012070BD7D
:1062E000204603F035FB002070BD204603F0ACFAD9
:1062F000002070BD002070BD10B507F079FD08F0DA
:106300002BFE08F08BF902F00BFD02F0E3FDBDE877
:1063100010400AF0C3BB00002DE9F04706460C46CA
:10632000002E4DD0002C4BD0EC212046FBF703FF74
:1063300030782070707C6073D6F80200C4F80600D4
:10634000F0886081307A20733648D6F802100160F8
:10635000F1888180317A81710020F56996F81A8080
:10636000012704F1240929E0411C285CC9B2002856
:1063700026D0401E00F0FF0A481CC6B2685C062802
:1063800048D006DC062810D2DFE800F00F1C3434B9
:106390003C3C092822D004DC07283BD0082804D143
:1063A0001CE0192812D0FF281ED0A91904F170038F
:1063B000524600F079F906EB0A00C0B24045D3D34B
:1063C000BDE8F087A85DA0736770F4E7A919A85D20
:1063D000497840EA01202082A770ECE7A8196061A3
:1063E000A4F818A0E770E6E7A819E061A4F820A0D7
:1063F0002771E0E7A8194B460222514600F078F9D0
:106400006771D8E7A8194B460422514600F070F98D
:106410006771D0E7A8194B461022514600F068F981
:106420006771C8E7E19580000349496A002902D0F5
:10643000002800D008477047D495800010B586B07A
:106440000178042913D006290FD10079FFF73BFE0C
:106450000446002C09D014220B4901A8FBF752FE78
:10646000ADF8084001A8FDF7E3FB06B010BD07A09A
:106470006321CDE90010044B0AA21A3B0FA10220B0
:10648000FDF766FDF1E70000C0260101466F756E5D
:106490006420746172676574206465766963652E33
:1064A000000000002E2E5C5372635C757365725C95
:1064B000757365725F6170702E6300004E4F5F549C
:1064C00041470000002813D00188A1F500710B3965
:1064D0000ED0012906D0022907D0F62908D100796B
:1064E00009F0C4B8007A09F0D3B8083009F080B8D0
:1064F0007047000002498870012008707047000052
:10650000FC9580002DE9F04105460C4600202060F6
:106510002F4F4FF0010697F82900C00709D0288BAC
:106520003A8E904205D1F96A6869FBF716FE00B908
:10653000267097F82900800704D5288AB98E8842EA
:1065400000D1667097F82900400707D5204805F16B
:106550002401383000F050F800B1A67097F82900F7
:10656000000707D51A480722A91D4030FBF7F5FDA3
:1065700000B9E67097F82A00012814D097F829008E
:10658000C10701D02178D1B1810701D56178C1B1AE
:10659000410701D5A178B1B1000701D5E078A0B1DC
:1065A0000120BDE8F081207828B9607818B9A0787A
:1065B00008B9E07808B10120F3E70020F1E70020F6
:1065C000EFE70020EDE70020EBE70020E9E700001F
:1065D000D495800010B50024002909D0054A82F81E
:1065E000290004481C222C30FBF78CFD204610BDEE
:1065F000012010BDD495800070B505460C46A888D2
:1066000002280ED1002609E004EB4601091D0222F2
:106610002868FBF7A2FD40B1761CF6B22078B042A4
:10662000F2D8A888042802D010E0012070BD00260E
:1066300009E004EB8601203104222868FBF78DFD78
:1066400040B1761CF6B26078B042F2D8A888102823
:1066500002D010E0012070BD002609E004EB061115
:106660003C3110222868FBF778FD30B1761CF6B279
:10667000A078B042F2D8002070BD012070BD0000AB
:1066800010B500280BD0014628220648FBF73AFD3A
:106690000449BDE81040891C002061F40B970120DB
:1066A00010BD0000D495800010B51C7804EB4404A4
:1066B00003EB84042071A160A2811878401C18703B
:1066C00010BD000000B5BDB007484179002906D0D3
:1066D00001218DF80410016A09B101A8884761F40D
:1066E0005DD73DB000BD0000D495800061F49C975B
:1066F0002DE9F0410746884616461D46002F32D048
:10670000002D30D000242CE0022E06D0042E11D013
:10671000102E28D1A87820BB19E028780E2820D286
:10672000411C2970391905EB400009888180A41C9F
:10673000E4B216E06878072813D2411C6970391951
:1067400005EB400009684160241DE4B209E0012026
:10675000A87005F13C0039191022FBF7D3FC103466
:10676000E4B24445D0D3BDE8F081000010B5222149
:10677000094809F0A9FB0A21084809F09FFB0321F9
:106780000648503009F094FBFFF7FDFA0520FFF7AB
:10679000C7F9FFF7B1FD10BD084180001842800025
:1067A0000449034808600549034808607047000031
:1067B000AD7F00010C228000E981000118228000D9
:1067C00070B50026150A0E4805EB450200EB0214D1
:1067D000098821800120A0702846FFF759FC00207D
:1067E00069F44ED50748016829B10B681BB12288AE
:1067F00000212846984769F479D5304670BD0000DD
:10680000D42E8000B82280003EB500241D0A0A78EC
:10681000122A02D0132A04D006E000208DF80000CE
:1068200002E001208DF800008888ADF80400488857
:10683000ADF80200891D0291002069F421D50B48B2
:10684000016829B18A691AB169462846904708E06B
:106850009DF80000012804D1BDF804102846FFF778
:1068600023FC69F443D520463EBD0000B4228000DD
:106870000148007870470000B84980007CB50E469A
:10688000150A0020009001906946284673F476D5D9
:106890009DF806206946284602F000FE0446CCB169
:1068A00063F474D3C0B163F471D3C01C81B2328875
:1068B000002320466DF452D7694628460AF0C6F9EF
:1068C00040B106A24021002002F45AF32146684656
:1068D0005FF4BAD000207CBD0020E7E7523A333A9B
:1068E0007361766520636363640A00007CB5DDE94B
:1068F0000654CDE9005467F475D1BDE87C4009F039
:106900006BBA00000249014808607047ED68000159
:106910004823800010B588B0044667F4F1D3002006
:10692000079007A855F498D20798FFF76FFC2068E6
:10693000019060680290A0680390E0680490208A4B
:10694000ADF81400608AADF81600A08AADF8180002
:10695000E08AADF81A0001A855F4A8D255F488D2FF
:106960000348016801614168416108B010BD000041
:10697000300100B010B58AB00446FF2228216846D5
:10698000FBF7D2FB40F20271ADF800100021ADF828
:1069900002108DF804406846FFF720FA0AB010BDD7
:1069A00030B58568027B002D02D0002001210CE06B
:1069B000104630BDCB0801F00704EB5CE340DB0779
:1069C00001D0401CC0B2491CC9B28A42F2D830BDC5
:1069D00000230849496808E0CA88824204D80A8925
:1069E000824201D3CB6802E009680029F4D118463D
:1069F00070470000B847800001460548406803E042
:106A000002798A4202D000680028F9D1704700005C
:106A1000B847800070B5104E3078FFF7EDFF0446A0
:106A2000200006D0206963F495D50546280002D0E1
:106A30000DE00C2070BD2069FFF7B2FF0146206910
:106A400002681288E280006800880844208130785B
:106A5000401C3070E8B270BDB847800070B519486E
:106A60000468194D2878002801D0002070BD4FF02F
:106A7000806072F43DD301F495F0600873F448D25D
:106A8000124908608817114901262C3908601049FD
:106A90007006C1F8FC01C8674FF03041086B40F048
:106AA00007000863094C303C206840F4E020206077
:106AB00001F4BAF02E70206820F4E020206001205C
:106AC00070BD00006C2480009849800070C500A053
:106AD00084E000E070B50024EFF31086012080F31D
:106AE000108801F4BCF0104D28B102242968B9B116
:106AF0000220884714E0FFF76DFB20B1296879B1C7
:106B0000002088470CE0FFF7A9FF28B1022429687C
:106B100031B10220884703E0296809B10020884785
:106B200086F31088204670BD5C24800010B5084AAA
:106B30001378002B01D00F2010BD31B150600448F4
:106B4000243000F007F8002010BD022010BD000026
:106B5000204780002DE9FC4705460C46FFF7FCF86E
:106B600069F4C4D307463648006800B18047354908
:106B700001200AF049FC344902200AF045FC0120BA
:106B8000FBF7B8FAA08E81B2206B01F01BFFDFF893
:106B9000BC90DFF8BC80E16999F8000098F800200B
:106BA0000244B1FBF2F1CEB216FB00F1A06965F42C
:106BB000FDD3286863F48CD768685FF499D6286998
:106BC00067F438D3A86862F431D1E86862F4D6D1AA
:106BD00020484CF45FD520484CF462D51F484CF453
:106BE00065D51F4855F48ED11E484CF409D51E4872
:106BF0004CF40CD51D484CF40FD51D4865F4AAD3B0
:106C00004FF0806072F474D22046FFF783FED4E91F
:106C10000A01CDE9000199F80010A06916FB0100F6
:106C200098F8001016FB01F1D4E90823114C2468F0
:106C3000A047384669F424D3BDE8FC4765F46E9458
:106C40008026800039380600DD37060029D5070088
:106C50002AD50700119F0700B9C3060065C40600C6
:106C6000EDAF070025ED060045ED060065ED0600D9
:106C7000799B07004823800010B50A4601460A4860
:106C800009F018FD09480188074809F098FC002818
:106C900009D00021084603F0C1FA0021BDE81040E8
:106CA00003200BF01DB910BD34298100F845800088
:106CB000034900EB800001EB8000808870470000F2
:106CC0001C488000034A00EB800002EB80008180BA
:106CD000704700001C4880000E4910F1210F06DAB1
:106CE000086820F4704040F440500860704710F18C
:106CF0001D0206D3086820F4704040F4804008600C
:106D000070470A28FCDD086820F4704040F4A04079
:106D10000860704724C500A010B509F06DFE08F0AA
:106D2000FDFF0AF0ABFD00F035FBBDE8104009F0B7
:106D3000D5BD00002DE9F04F87B07B48D0F800901A
:106D400000240025A24600260AF008FF77480168C3
:106D5000C9F800104068C9F8040075480068083098
:106D6000059009F108000690042203A9059800F097
:106D7000DDFABDF80C10A1F57F40FF3843D00822A2
:106D800003A9059800F0D2FABDF80E006EF414D5F0
:106D900000F0FF08BDF80C00002867D00698A9EBAA
:106DA000000707F58057BDF80E1008F1080083466C
:106DB0000844B84263D805AB082203A906A800F02E
:106DC000EBF8BDF80E00002300EB080205A906A8A9
:106DD00009F058F8641CBDF80E005844B842C3D1FD
:106DE0000020CDE9006053464A46214628460BF074
:106DF00017FA002826D1824600260024CDF81890E4
:106E00006D1CEDB2B0E70020CDE9006053464A4664
:106E1000214628460BF004FA002813D16D1CECB271
:106E2000434D4FF48057434E08E0286800EB043090
:106E3000394603F07FFC40B1641CE4B2707AA04292
:106E4000F3D8002007B0BDE8F08F3B488169407A55
:106E500040F26242CDE900200291384B38A24FF453
:106E60000041002002F48CF00920EBE7BDF80E0091
:106E7000059908F1080808444044059074E7082F74
:106E800029D305AB082203A906A800F085F8083F1E
:106E90002FB100233A4605A906A808F0F3FF611CAC
:106EA0000020CDE9006053464A4628460BF0B8F969
:106EB0000028C7D18246BDF80E004044C61B0024FE
:106EC000CDF818906D1CEDB20023324605A906A836
:106ED00008F0D8FF48E705AB3A4603A906A800F03A
:106EE0005BF8611C03A8CDE9006053464A4628467A
:106EF0000BF096F90028A5D1C7F1080ABDF80E00DD
:106F000000EB08060024CDF818906D1CEDB20123AB
:106F1000524605A906A808F0B5FF0023324605A988
:106F200006A808F0AFFF1FE790468000ACD5070029
:106F3000CC238000D8328000641F8000CE2801015D
:106F4000523A353A25732C204C256420666C6173C7
:106F500068207374617465203078253032582C2095
:106F60006572726F72203078253038580D0A000033
:106F70000221B0FBF1F2FF2A04D8B0FBF1F201FBD1
:106F800012022AB1491CC9B24029F2D3002070472D
:106F9000B0FBF1F0C0B2704770B5044615461E460E
:106FA0002A462068FBF7AEF8306828443060206835
:106FB0002844206070BD000010B50548017B491CC5
:106FC0000173002072F412D6BDE8104000F050B8F2
:106FD000C44780002DE9FE43FEF7D3FE1E4801683A
:106FE00021F4003101601C4E083E30681B4980B21C
:106FF000084330601A4803C8CDE9000116482C3810
:107000000068C82100F007001DF8000010FB01F522
:1070100014480768144CD4F800803846414603F001
:10702000CFFA62686068831AAB42FBD341463846A8
:1070300003F0A6FA08F0E6FE02909DF8080028B1D9
:107040009DF80800094948618861C861306820F0EE
:107050007F403060BDE8FE8330C500A000008F1186
:10706000EC720001FCED00E0001000E0C44780007D
:107070002DE9FC412D4E306820F07F4040F08850D3
:1070800030602B4803C8CDE9000128482438006847
:1070900000F007011DF80100C82110FB01F525488B
:1070A0000768254CD4F800803846414603F088FA3A
:1070B00062686368981AA842FBD34146384603F0D9
:1070C0005FFA002508F09EFE0446DFF87080D8F8CD
:1070D0001800844201D9012700E0002772F42CD463
:1070E00040B91FB1D8F81800201A02E0D8F81800EB
:1070F000001BC5B2D8F81800C8F82000B5EB900FF7
:1071000003D8292C01D8112C02D200F019F807E07D
:1071100000EBC00020440A21B0FBF1F0C8F81800D1
:10712000306820F07F403060BDE8FC8128C500A0B9
:10713000EC720001FCED00E0001000E0C4478000AC
:107140002DE9F04F87B0002006900824DFF89081E9
:107150001A20C8F8140063480168634A89B21143D1
:10716000016005A8FBF738FC0220FBF73DFCDFF8C7
:10717000749109F10809D9F8000020F47C3040F43A
:107180002030C9F8000059A003C8CDE90201DFF89A
:1071900054A1AAF1240ADAF8000002A900F00700BD
:1071A000085CC82110FB01F5DFF848B1DBF80000EE
:1071B0000190514F3E680198314603F001FA78681A
:1071C0007968091AA942FBD33146019803F0D8F92E
:1071D00008F018FE04909DF81010D8F814008142B1
:1071E00004D99DF81020811C8A4263D99DF81010A3
:1071F000814204D29DF81020811E8A425AD29DF805
:107200001010814201D9012500E0002515B1641C50
:1072100064B201E0641E64B2202C11D3D9F80000DE
:1072200020F47C3040F42030C9F80000D8F83C004D
:10723000401CC8F83C00002004900120069039E072
:10724000D9F8000020F47C3040EA043040F40030EB
:10725000C9F8000025A003C8CDE90201DAF8000052
:1072600002A900F00700085C642110FB01F6DBF8BE
:107270000000019038680090DDE9001003F0A0F9EB
:1072800078687968091AB142FBD3DDE9001003F090
:1072900077F908F0B7FD049035B19DF81000D8F8E3
:1072A00014108842B2D805E09DF81000D8F81410E8
:1072B0008842ABD39DF81400FBF796FB09480168A0
:1072C00021F07F4101609DF81000C8F81800D8F83F
:1072D0002400401CC8F82400069807B0BDE8F08FD1
:1072E000C447800028C500A000008F11403010184E
:1072F00010200000FCED00E0001000E00A493228F8
:1073000008DDD1F8200220F4706040F44070C1F82C
:10731000200270472828FCDAD1F8200220F470609F
:10732000C1F820027047000000E000A02DE9F04104
:1073300005460E461746094C2378002B02D0002044
:107340006EF4AED53A463146284603F033FA054688
:1073500020786EF4A5D52846BDE8F081C9238000C9
:107360002DE9F04105460E461746094C2378002BBF
:1073700002D000206EF494D53A463146284603F0F8
:1073800029FA054620786EF48BD52846BDE8F081B1
:10739000C92380000121024A002068F4E59300001F
:1073A000F59D000130B400210D4B01EB410203EBD0
:1073B00042121478012C0DD112790478A24209D11D
:1073C00001EB410003EB4010C16D002906D030BC39
:1073D00000200847491CC9B20829E6D330BC7047D1
:1073E000A090800070B500240C4E04EB440006EB26
:1073F0004015287801280AD1281D11F42FD018B182
:10740000012801D0002070BD281D11F481D2641C18
:10741000E4B2082CE9D3012070BD0000A0908000E8
:1074200030B400210D4B01EB410203EB4212147802
:10743000012C0DD112790478A24209D101EB41004F
:1074400003EB4010C16D002906D030BC0120084775
:10745000491CC9B20829E6D330BC7047A09080000F
:1074600010B5104C02220421204605F021FC012217
:107470001021204605F01CFC02228021204605F048
:1074800017FC02224021204605F012FC0222202196
:10749000204605F00DFC20460222BDE810400821E0
:1074A00005F006BC001001A02DE9F04782462DED45
:1074B000028B84B0894617469846002002900390BC
:1074C00000250026019001A80AF040F8374801681D
:1074D00021F4C07141F080010160416821F48051C4
:1074E00041600024504609F0F3FD08F0A9FD02F0C8
:1074F000BDFB029002980644484609F0E9FD08F0F9
:107500009FFD02F0B3FB0390DDE90210401A054431
:10751000641C072CE6DB2846FAF73CFE9FED248B23
:1075200053EC182BFAF7AAFF41EC100BFBF72CFBDE
:1075300051EC100BFBF730F804463046FAF72AFE00
:1075400053EC182BFAF79AFF41EC100BFBF71CFBDE
:1075500051EC100BFBF720F803460020164A1CE004
:1075600000FB04F1B1FBF7F119440291134D0299AC
:10757000B5FBF1F108F80010114D0299B5FBF1F1DE
:107580009DF804502944C9B21154802903D90D4DE6
:107590002D7829441154401CC0B2B842E0D308F001
:1075A0002BFD04B0BDEC028BBDE8F087802001B05C
:1075B0000000000000001C40FC2E810000C0A8322A
:1075C0000080D725A44980002DE9FE4F07460D46CF
:1075D00002AA294638460AF08BFB10B10298BDE892
:1075E000FE8F029C00260296DFF8688098F8000063
:1075F00010B100206EF454D4DFF85CA04FF6FF7990
:1076000008226946204603F0D5F8BDF80000484539
:1076100002D12E80029617E0B84206D115B1BDF80E
:1076200002002880083402940EE0BDF802006EF4D7
:10763000C3D0BDF80210083021444418DAF8000025
:107640008442DDD32E80029698F800006EF428D490
:107650000298C4E7C9238000D023800070B5064695
:107660000024094D0BE004EBC40005EB8000801CF6
:1076700007223146FAF771FD20B1641CE4B2287884
:10768000A042F0D8204670BDF42A810010B5002138
:10769000084B5A681B8809E052F83140844203D1F4
:1076A00002EBC100406810BD491C89B29942F3D376
:1076B00010BD00001046800010B50021084B5A682C
:1076C0001B8809E052F83140844203D102EBC1002B
:1076D000406810BD491C89B29942F3D310BD000027
:1076E0000446800010B50021084B5A681B8809E049
:1076F00052F83140844203D102EBC100406810BD12
:10770000491C89B29942F3D310BD0000184680008D
:107710000349095C002902D0002105F0DFBF704752
:107720005E2C810010B5884210D808290ED2094B72
:10773000074A5A6006E003EB8002946844F00104B3
:107740009460401C8842F6DD0320186010BD0000E4
:1077500000400030002000E02DE9F047164F386867
:10776000002826D04FF00009002400250526DFF868
:107770004C8013E005EB4501012018F821209040D2
:107780003A68104208D008EB81032246D3E9010190
:10779000641CE4B200F01CF86D1CEDB2B54201D2DD
:1077A000062CE7D3641EE1B24846BDE8F047FFF778
:1077B000B9BFBDE8F0870000004680002028010125
:1077C00013B501216846FCF783FB01201CBD0000B6
:1077D00070B505461446114840F8345000EBC4001B
:1077E0004160284602F02EFB0646FF2002F034FBE3
:1077F000014625F001000A4B850703EB8402094B83
:1078000006D0801E906006EB014043F8240002E0A1
:10781000906043F82410204670BD0000643D800055
:10782000002000E0004000302DE9FC410C46474AB2
:107830006178A07852F82110CDE90010237844A295
:107840001021002001F49CF3607801264F4F05259C
:1078500030B1012837D0022849D0032872D15AE02C
:1078600020786AF41BD7C0B2C0EBC00107EB8101DE
:107870004D72A278452A09D1CA681278022A17D017
:1078800091F82020022A01D081F8206091F8202070
:10789000012A04D0022A02D0032281F8202091F884
:1078A0002020022A4ED0C9680978022906D102E0B8
:1078B00007224A72EAE7A178452943D0344A0021D9
:1078C000126890473EE087F89950A078452805D186
:1078D00097F89C00022801D087F89C6097F89C00DC
:1078E00002282FD02B490020096888472AE087F812
:1078F000A550A078452805D197F8A800062801D002
:1079000087F8A86097F8A80006281BD02249002015
:107910000968884716E020786AF422D7C0B207EBDE
:10792000001181F8B150A278462A01D0CE2A01D1A7
:1079300081F8B35091F8B310022903D0174A0021FF
:10794000126890470020BDE8FC810000682280009A
:10795000523A313A6163742073746F707065642CAD
:10796000206163745F6964783A2025642C20616328
:10797000745F747970653A2025732C207265617389
:107980006F6E3A203078253032780A007C278000EC
:107990001022800014228000182280001C22800007
:1079A00010B58AB00C46FF2228216846FAF7BCFBC6
:1079B00040F20A20ADF80000ADF802406846FEF73C
:1079C0000DFA0AB010BD10B58AB00446FF22282176
:1079D0006846FAF7A9FB40F20D20ADF80000002040
:1079E000ADF802001C22214602A8FAF78BFB1C34DA
:1079F00009946846FEF7F2F90AB010BD30B58BB0B5
:107A000005460C46FF22282101A8FAF78DFB40F21B
:107A10000722ADF80420ADF806408DF8085001A803
:107A2000FEF7DCF90BB030BD37B58AB005460C4621
:107A3000FF2228216846FAF777FB4FF40272ADF86F
:107A40000020ADF802408DF804509DF830008DF80C
:107A500008006846FEF7C2F90DB030BD00B58BB026
:107A6000FF22282101A8FAF75FFB4FF44170ADF81F
:107A700004000020ADF8060001A8FEF7AFF90BB036
:107A800000BD00002DE9FF470C4666788DF80D60BB
:107A900020784FEA1329CDE900905A4B5AA21021C1
:107AA0000296002001F46CF220786449644F4FF094
:107AB000000801EBC905092861D008DC092824D297
:107AC000DFE800F09A8B9A4A4A9A9A2424001728F1
:107AD0002FD004DC0B2807D0142816D16AE0182810
