:020000040100F9
:1020000000008400592000016120000191488000F7
:10201000B7290001B5290001812A00010000000054
:10202000000000000000000000000000394A8000AD
:102030006B200001000000006D20000171200001F4
:10204000DFF810D000F0ECFB00F08EF800480047FD
:102050005DE2000100008400064880470648004712
:10206000FEE7FEE7FEE7FEE7FEE7FEE7FEE7FEE748
:10207000FEE70000512A000175E200012DE9F05F42
:102080000546002092469B468846064681464024E7
:102090001BE0284641464746224600F0B6FA534622
:1020A0005A46C01A914110D311461846224600F0F4
:1020B0009DFA2D1A67EB01084F46224601200021A8
:1020C00000F094FA17EB00094E41201EA4F1010420
:1020D000DFDC484631462A464346BDE8F09F000013
:1020E0000649074A0868504343F239021044086021
:1020F0004008704701490860704700007C48800034
:102100006D4EC64140EA01039B0703D009E008C9B0
:10211000121F08C0042AFAD203E011F8013B00F8AC
:10212000013B521EF9D27047D2B201E000F8012BF8
:10213000491EFBD270470022F6E710B513460A4647
:1021400004461946FFF7F0FF204610BD30B504469F
:102150000020034600E05B1C934203D2E05CCD5CB0
:10216000401BF8D030BD000070B5054C054D03E0B4
:10217000206820448047241DAC42F9D170BD000086
:102180003C1F0101401F01010EB540F23341029195
:102190000021CDE900110A460B4600F067FA03B0B2
:1021A00000BD0EB540F2334202920022CDE900227A
:1021B000134600F05BFA03B000BD20F00040C20DF2
:1021C000C0F3160040F400007F2A02DA0020014626
:1021D00070470021962A03DCC2F19602D040704776
:1021E000963A00F003BA000004490220C1F8000149
:1021F0000860BFF34F8FBFF36F8F704780E100E03F
:1022000058585247010000001555000000200001F9
:10221000002000016EED52490101000000000000A5
:1022200000000000000000000000000000000000AE
:10223000000000000000000000000000000000009E
:102240002DE9FE4F804681EA0300C00F0C46009046
:1022500021F0004123F00045B8EB0200A94105D26E
:102260004046214690461C460B46024623F000405D
:10227000104347D0270DC7F30A00C3F30A51029059
:10228000401A019040286BDAC3F3130040F4801B1E
:102290000098924620B10023D2EB030A63EB0B0BAC
:1022A00001985946C0F14002504600F09FF9064699
:1022B0000D4650465946019A00F0B7F910EB080058
:1022C0006141002487EA115284EAE7731A4340D03F
:1022D000009A62B3019A012A4FEA075215DC001BEB
:1022E00061EB02014FF0004202EA0752CDE90042E1
:1022F000001C41F5801132462B4600F0B7F903B0BF
:10230000BDE8F08F40462146F9E7001B61EB020172
:10231000001C41F5801300185B412018A2F500173E
:1023200047EB030140EAD570B6196D4111E06D0825
:102330004FEA360645EAC0754FEA0752001B61EBCB
:102340000201001C41F5801149084FEA30000019D4
:10235000514132462B4603B0BDE8F04F00F077B94B
:102360000098012240000023D0EB020263EBE073EF
:10237000009821464FEAE074B8EB000061EB0401DD
:10238000E9E783F000435BE781F0004158E72DE97E
:10239000FE4F81EA030404F0004421F00041009460
:1023A0004FF0000B23F0004350EA01045ED052EAE4
:1023B00003045BD0C3F30A54C1F30A552C44A4F2BE
:1023C000F3340194A0FB0254C1F3130141F48011D2
:1023D000C3F3130343F4801301FB024400FB034ED9
:1023E000840A970A44EA815447EA8357A4FB0768A2
:1023F00002958D0A05FB07854FEA932C04FB0C54CC
:102400002705029D4FEA065847EA1637B5EB08053F
:102410006EEB070C870E920E47EA811742EA831291
:10242000A7FB0201B6EB0B0164EB00042B0D43EAA2
:102430000C335E1844EB1C50DA465146E7FB0201B0
:10244000C5F313044FEA0B3343EA14534FEA043243
:10245000019C43EA0603A4F10C040294009CCDE91C
:1024600000B400F003F903B0BDE8F08F002001468E
:10247000F9E72DE9F04D81EA030404F0004B21F067
:10248000004514464FF0000A23F0004150EA0502CF
:1024900020D054EA01021DD0C5F30A570246C5F305
:1024A0001303C1F31300C1F30A5640F4801543F43B
:1024B0008013A7EB0608101BD64608F2FD3873EB15
:1024C000050002D308F1010801E092185B41B8F160
:1024D000000F03DA00200146BDE8F08D00204FF424
:1024E0008011064684460EE0171B73EB050705D3E3
:1024F000121B63EB050306434CEA010C49084FEA43
:10250000300092185B4150EA0107EDD152EA030016
:1025100012D082EA040083EA0501084305D0101BAB
:10252000AB4106D20122002306E000224FF0004317
:1025300002E06FF0010253101AEB06004CEB085159
:1025400010EB0A0041EB0B01BDE8F04D00F07FB845
:1025500070B5C1F30A5201F000450024C1F3130124
:1025600040F2FF3341F480119A4201DA002070BD3D
:1025700040F233439A42A2F2334203DC524200F06B
:1025800044F800E090402C43F1D0404270BDC1F3CC
:102590000A5210B5C1F3130140F2FF3341F4801128
:1025A0009A4201DA002010BD40F233439A42A2F26F
:1025B000334203DC524200F028F810BD904010BDB9
:1025C00030B50B46014600202022012409E021FA03
:1025D00002F59D4205D303FA02F5491B04FA02F500
:1025E0002844151EA2F10102F1DC30BD202A04DBD3
:1025F000203A00FA02F1002070479140C2F1200316
:1026000020FA03F3194390407047202A04DB203A54
:1026100021FA02F00021704721FA02F3D040C2F102
:1026200020029140084319467047202A06DBCB1749
:10263000203A41FA02F043EAE07306E041FA02F37D
:10264000D040C2F12002914008431946704710B5AE
:10265000141E73F1000408DA401C41F100019218C5
:102660005B411A4301D120F0010010BD2DE9F04D6E
:1026700092469B4611B1B1FA81F202E0B0FA80F2C3
:1026800020329046FFF7B2FF04460F4640EA0A00A8
:1026900041EA0B0153465A46084313D0114653EA08
:1026A000010019D0C8F140025046FFF7AEFF0546C1
:1026B0000E46504659464246FFF798FF084305D05C
:1026C000012004E020463946BDE8F08D0020054396
:1026D00046EAE0762C4337430A986305E40AA0EB08
:1026E00008000022FD0A44EA47540A3002D50020BF
:1026F0000146E9E7010510196941DDE908450019BE
:102700006941BDE8F04DA2E72DE9F041054621F011
:1027100000400C46284309D0C4F30A5040F233412C
:10272000884205DD28462146BDE8F0812846FBE7C2
:1027300040F2FE31884210DC0CDB4FEA043040EA04
:10274000155050EA053105D0104804F0004101430E
:102750000020E9E700200146E6E7A0F233404642C8
:10276000C6F1400228462146FFF740FF074688464B
:10277000284621463246FFF748FF43463A46FFF7D0
:1027800066FF3246BDE8F041FFF730BF0000F03F82
:10279000C1F30A52C1F3130140F2FF3341F4801137
:1027A0009A4202DA00200146704740F233439A42CF
:1027B000A2F2334202DC5242FFF727BFFFF716BFF7
:1027C00030B5041E71F1000404DB4FF000444042B8
:1027D00064EB0101141E73F1000405DB1C464FF08D
:1027E0000043524263EB04038B4208BF824230BD78
:1027F00030B5041E71F1000404DB4FF00044404288
:1028000064EB0101141E73F1000405DB1C464FF05C
:102810000043524263EB0403994208BF904230BD2B
:10282000064C074D06E0E06840F0010394E807001D
:1028300098471034AC42F6D3FFF706FCEC1E0101BA
:102840003C1F010170B58C1810F8015B15F00703EF
:1028500001D110F8013B2A1106D110F8012B03E039
:1028600010F8016B01F8016B5B1EF9D12B0705D441
:102870000023521E0DD401F8013BFAE710F8013B8A
:10288000CB1A921C03E013F8015B01F8015B521EA6
:10289000F9D5A142D8D3002070BD000010B51E4864
:1028A0000068002800D080471C4900200870811E65
:1028B0001B4801601B494FF0007008601A4CD4F8A7
:1028C000C002800704D4F42218A11DA006F41EF251
:1028D0002A480168D4F8C40261F31D3040F00100B9
:1028E000C4F8C40205F456F000214FF03040C16036
:1028F0008161C1174161016205F408F00848403860
:10290000016821F4800101601D480068002802D0A0
:10291000BDE81040004710BD602480006C47800077
:1029200044C500A080E200E000E000A0727769707A
:102930005F736C6565705F636F6D6D6F6E2E6300A6
:102940004D43555F5355422D3E424C455F44534CD9
:102950004545505F434F52525F454E2026204D4320
:10296000555F5355425F424C455F44534C4545507B
:102970005F434F52525F48575F454E0054248000DA
:102980006424800000214FF03040C1608161C11794
:10299000416101620649022004220A60BFF34F8FA1
:1029A000BFF36F8F0860BFF34F8FBFF36F8F704718
:1029B00080E100E0FEE7FEE71BF48E930249096820
:1029C00001F007010170704704C500A030B406286B
:1029D00021D212490A6802F00702824212D00A6824
:1029E0000F4B1A400F4C22430A6000BF00BF00BFCC
:1029F00000BF0A681A400C4B024333F8203042EA09
:102A000083420A600849183951F8200007490860D4
:102A100030BC76F4EF9230BC7047000004C500A0D3
:102A2000F8FFE3FF0500080060110101004180008C
:102A300004480068044900F0070051F820000349E9
:102A40000860704704C500A04811010100418000E2
:102A50000248016841F470010160704788ED00E0B0
:102A600002480068001D1EF4F7950000CC4380006A
:102A700002484068001D1EF4EF950000CC43800022
:102A8000FEE700000FB4054B10B503A9044A0298F5
:102A900000F060F910BC5DF814FB000071610001EA
:102AA000FC438000002804DB00F1E02090F80004E3
:102AB000704700F00F0000F1E02090F8140D70470F
:102AC00002480068C0F30220704700000CED00E0EF
:102AD00010B52DED020B2DED088B84B09DED0C0B88
:102AE00051EC100BFFF710FE41EC180B9DED0C0B99
:102AF00053EC182B51EC100BFFF743FC41EC190B76
:102B00000D989FED290B10F0004F53EC102B51EC5A
:102B1000190B9FED21AB9FED22BB0ED0FFF750FEAE
:102B20000ED953EC1B2B51EC190BFFF761FE1CD295
:102B300014E000BF41EC180B17E0FFF741FE06D28E
:102B400053EC1A2B51EC180BFFF71BFCF2E753EC7C
:102B50001B2B51EC190BFFF74BFE06D853EC1A2B2D
:102B600051EC180BFFF76CFBE4E78DED028B9DED4C
:102B70000C0B18EE901A10EE900A8DED000B61F31D
:102B80001E0003909DED020B04B0BDEC088B02B05B
:102B900010BD000000000000000000000000F03F39
:102BA000000000000000E03F000000000000E0BF67
:102BB00002E008C8121F08C1002AFAD17047704706
:102BC000002001E001C1121F002AFBD17047000064
:102BD0002DE9FF5F82B00021DDE90430020DDDF850
:102BE00040B0034318D044F61050A2F2FF324243E3
:102BF0001514119801281FD0A5EB0B00401C5FEAAB
:102C0000000A4FF000064E4FDFF83891B0465046AC
:102C100015D5CAF1000413E0119801244AA3012834
:102C200001D16FEA0B010298119AC0E90031C0E9A5
:102C3000024206B0BDE8F09FCBF10000DFE704469A
:102C40000021404A491842EB0450CDE9001012E03F
:102C5000E00707D032463B4640464946FFF797FB20
:102C60008046894632463B4610461946FFF78FFBA1
:102C700006460F466410002CEAD1DDE90401DDE9C7
:102C80000023BAF1000F06DAFFF781FB42464B46FC
:102C9000FFF77DFB05E0FFF7ECFB42464B46FFF7F5
:102CA000E8FB04460E460022284BFFF7A1FD03D89F
:102CB0004FF0FF30014607E00022254B2046314609
:102CC000FFF7BEFAFFF764FD102409E0002C0ADBD1
:102CD0000A220023FFF7D2F9039B30321A55641EF3
:102CE00050EA0102F2D1641C039AC4F111031444A6
:102CF000119A012A03D0012208430DD10AE00843AA
:102D000004D000204FF0110B119072E7A3EB0B05DC
:102D10006D1E0DE05B4504DD4FF0000205F101057D
:102D200004E003DA4FF00002A5F10105002AECD01F
:102D300002981199C0E90231C0E9004579E7000025
:102D4000000014400000F03F300000000000F0439D
:102D50000000E03F2DE9FF4F95B09B4689460646AF
:102D600000250FE2252877D100242746F84A0121C3
:102D7000059400E0044316F8013F203B01FA03F0FC
:102D80001042F7D130782A2811D06FF02F03307815
:102D9000A0F13002092A16D8059A44F0020402EB89
:102DA000820203EB42021044761C0590EFE759F8CB
:102DB000042B0592002A03DA504244F40054059093
:102DC00044F00204761C30782E2816D116F8010F34
:102DD00044F004042A280DD06FF02F023078A0F1BF
:102DE0003003092B09D807EB870302EB4303C7180D
:102DF000761CF3E759F8047B761C30786C280FD0EA
:102E000006DC4C2817D068280DD06A2814D104E0BD
:102E1000742810D07A280FD10DE044F400140AE091
:102E200044F4801401E044F440147278824202D1E8
:102E300004F58014761C761C307866280BD013DCE1
:102E4000582877D009DC002875D04528F6D04628C8
:102E5000F4D047281AD19DE118E0632835D06428C2
:102E600079D0652812D195E1702873D008DC6728E5
:102E7000F1D069286FD06E280DD06F2806D1B5E04B
:102E800073282CD0752875D0782874D05A46179995
:102E900090476D1C75E1C4F30250022809D0032845
:102EA0000DD0D9F8001004280DD00D6009F10409E7
:102EB00067E1D9F80010EA17C1E90052F6E7D9F83E
:102EC00000100D80F2E70D70F0E719F8041B8DF883
:102ED000001000208DF80100EA46012003E059F8B7
:102EE00004AB4FF0FF3061074FF0000102D40DE05A
:102EF00008F101018846B9420FDA8045F8DB1AF87B
:102F000008100029F4D108E008F101018846814247
:102F1000FADB1AF808100029F6D105985B46A0EBF9
:102F2000080721463846179A00F094FA284400EB27
:102F3000080507E04DE029E10DE01AF8010B5A46BB
:102F400017999047B8F10108F7D25B4621463846F9
:102F5000179A13E142E00A220092C4F302524FF0A2
:102F6000000A022A08D059F804CB032A4FEAEC7170
:102F70000AD00DE029E02AE009F1070121F007025B
:102F8000F2E802C1914609E00FFA8CFC4FEAEC71BD
:102F9000042A03D14FFA8CFC4FEAEC71002907DABE
:102FA0000A460021DCF1000C61EB02012D2202E057
:102FB000220504D52B228DF80420012203E0E2072C
:102FC00001D02022F7E7904659E00A2102E01022C2
:102FD0000DE010214FF0000A00910BE010224FF09D
:102FE000000A44F004040827009203E008224FF08E
:102FF000000A0092C4F30252022A05D059F804CB09
:103000000021032A08D009E009F1070121F0070295
:10301000F2E802C1914605E01FFA8CFC042A01D1B6
:103020000CF0FF0C4FF00008220728D5702806D0BE
:10303000009B83F0100353EA0A0305D00EE0402200
:103040008DF80420012208E05CEA010206D030225B
:103050008DF804208DF8050002229046009B83F035
:10306000080353EA0A030AD15CEA010201D16207AC
:1030700005D530228DF804204FF001087F1E582816
:1030800004D034A003900EA802900DE036A0F9E71A
:1030900053466046009AFEF7F1FF84460398825C2F
:1030A0000298401E029002705CEA0100F0D1029882
:1030B00006A9081A00F1200A600702D524F480341A
:1030C00000E00127574502DDA7EB0A0000E00020E1
:1030D00000EB0A01009005984144401A0590E00376
:1030E00006D45B462146179A059800F0B3F90544CB
:1030F000002706E001A85A46C05D179990476D1C4D
:103100007F1C4745F6DBE0030CD55B462146179A4A
:10311000059800F09FF9054404E030205A461799BD
:1031200090476D1C0099481E00900029F5DC08E0CE
:10313000029802995A460078491C029117999047C3
:103140006D1CBAF10001AAF1010AF1DC65E1000091
:10315000092801003031323334353637383961626D
:103160006364656600000000303132333435363731
:1031700038394142434445460000000000F058F908
:103180000544761C307800287FF4ECAD19B0284651
:10319000BDE8F08F620700D4062709F1070222F08C
:1031A000070CFCE80223E14603F000485FEA080C44
:1031B00002D00FF2702C0DE05FEA045C02D50FF232
:1031C000682C07E05FEAC47C02D00FF2602C01E0BB
:1031D000AFF2700C4FF0FF3823F00043CDF850C031
:1031E00065280CD006DC452809D046281DD0472884
:1031F0003DD13DE0662818D067287ED138E0002117
:10320000112F01DB112000E0781CCDE9000106A997
:103210000EA8FFF7DDFCDDE90F010E9A03910021F6
:10322000009207F1010A04914DE04FF00040009731
:10323000CDE9011006A90EA8FFF7CAFCDDE90F02CF
:1032400003920E9B11990022DDF80CA000930492CA
:1032500011B9791C00EB010AB7EB0A0004D4C0F1E4
:10326000FF3007F1010A0490AAEB0700019044E047
:10327000012F00DA01270021112F01DD112000E0CC
:103280003846CDE9000106A90EA8FFF7A1FCDDE94B
:103290000F010E9A0391002104910092BA46210772
:1032A0000CD40399514500DA8A46BAF1010F05DDC5
:1032B000009AAAF10101515C302908D0B84202DA23
:1032C00010F1040F06DA0121CDE9011015E0AAF191
:1032D0000101E9E7002805DC049901440491AAEB07
:1032E000000102E0411C514500DD8A460499401A64
:1032F000401C01904FF000400290200704D4019838
:10330000504501DBCDF8048000208DF84F00029875
:103310000DF14F07B0F1004F25D02B200E900298F1
:103320004FF0020800280CDA404202902D200E9047
:1033300007E00A210298FFF743F93031029007F8BD
:10334000011DB8F10001A8F10108F2DC0298002883
:10335000EFD1791E0E980870307800F0200040F010
:10336000450007F8020D12A8C01B00F107081498C9
:10337000007800B1012000EB0A01019801EBE07137
:1033800005984144401A401E0590E00306D45B4670
:103390002146179A059800F05DF8054414980078C6
:1033A00018B15A46179990476D1CE00324D55B4627
:1033B0002146179A059800F04DF805441CE0049842
:1033C000002807DBDDE90301884203DD0098405C4B
:1033D000179901E0179930205A469047049805F153
:1033E0000105401C04900198401E019004D12E203C
:1033F0005A46179990476D1CBAF10001AAF1010ACB
:10340000DDDC05E017F8010B5A46179990476D1C53
:10341000B8F10001A8F10108F4DC5B462146179AD7
:103420000598ABE62D0000002B00000020000000F6
:103430002DE9F041044600251E461746880404D4B1
:1034400005E039462020B0476D1C641EF9D528469A
:10345000BDE8F0812DE9F041044600251E46904666
:10346000C80301D5302700E02027880404D505E0F3
:1034700041463846B0476D1C641EF9D52846BDE864
:10348000F08100002DE9F05F0746894693464FEA38
:103490005B04A2464D465F4EDFF87C81EFF310805F
:1034A000012181F31088D8F8A41221F02001C8F876
:1034B000A41280F31088EFF31080012181F31088AB
:1034C000D8F8A01221F02001C8F8A01280F31088CB
:1034D000306820F080403060504830603F20D8F89D
:1034E000001160F30501C8F80011306820F4601085
:1034F00040EAC7403060306820F4E02040EA0740EE
:103500003060052F03D1306840F400403060062F52
:1035100003D1306840F480403060306840F400509F
:103520003060306820F060503060306820F00F006C
:1035300040F003003060EFF31080012181F3108828
:10354000344A3832116821F0E04141F08041116085
:1035500080F31088306840F08040306001E0D8F897
:103560000000D8F80401C0F300200028F7D1EFF3E1
:103570001080012181F31088116841F00041116031
:1035800080F3108834E000204FF47A711AE088420A
:1035900017D9306820F080403060306840F000403B
:1035A0003060306820F00040306007F02DFB1C4890
:1035B0000168491C016054464D46052078F41FD32C
:1035C0006CE7401CD8F80421C2F30022002ADED0A8
:1035D000D8F8040100F07F01A14200D92146002063
:1035E00003E0D8F8002004C5401C8842F9D3641ACF
:1035F000002CC8D15FEACB7008D0D8F80401C0F322
:1036000000200028F9D0D8F800002880BDE8F05F3D
:1036100007F0FABA08C500A000E000A00A070807F2
:103620006C4880002DE9F04107460E464FF0000837
:103630000024274D0BE004EBC40005EB8000801C48
:1036400007223946FEF782FD40B1641CE4B22878B7
:10365000A042F0D8B8F1000F18D102E04FF00108F5
:10366000F8E728780A21B0FBF1F201FB12040A28DE
:1036700001D2401C287004EBC40105EB81003968BD
:10368000C0F80210B988C180B97901722B7811A2F3
:103690001021002005F43CF3307800070BD504EB33
:1036A000C40005EB800006F14601BDE8F0410A3098
:1036B0001C22FEF727BD04EBC40005EB800006F1D9
:1036C0002A01BDE8F0410A301C22FEF71BBD0000B4
:1036D0002CDC8000523A313A616464206C746B20B7
:1036E0006974656D2C206E756D203D2025640A007F
:1036F0000449896B084004490A78104300220A7083
:1037000070470000002001A074448000104A114955
:1037100000280EDC0868C0F34120012808D0506C56
:10372000401C5064086820F4C06040F400700860D9
:1037300070470A28FCDB086810F4C06FF8D0106CE2
:10374000401C1064086820F4C060086070470000E6
:10375000944580000CC500A070B58EB005460C469F
:10376000564901F164004DC8CDE90A02CDE90C3695
:10377000D1E91E23486F06AED1F880100DC609911D
:1037800014224E49843101A8FEF7BCFCACB14C496F
:1037900006200CF0F3FC4B4907200CF0EFFC4A49E3
:1037A00012200CF0EBFC4549444A2C31062D7CD20A
:1037B000DFE805F006060621415905200EB070BD70
:1037C000207931F810000B90607932F810000C90DD
:1037D000A0790D9020680A903848143050F83500D0
:1037E00021880904090C04D018B10AA905F0BCFA13
:1037F00059E00420E2E7207931F810000B9060795D
:1038000032F810000C90A0790D9020680A90206882
:103810000104090C05D080B20A900AA92B4805F0D2
:10382000A3FA2068010C3ED0000C0A900AA928488F
:1038300005F09AFA37E0207901EB4000408A0790C2
:10384000607902EB4000C0880890A0790990206858
:103850000690207810F0FF0F03D006A805F092F82C
:1038600021E00420AAE72079031F032B01D80720B9
:10387000A4E702281AD001200290207901EB400031
:10388000808C0390607902EB400080890490A079DD
:10389000059020680190207810F0FF0F09D001A951
:1038A000002005F085FA002088E704E0022002905D
:1038B000E3E7042082E7062080E700007811010199
:1038C0006B4A8000654A8000614A8000000001A0C8
:1038D000001001A0002806D0002904D0024AD269B5
:1038E000002A00D010477047189480000248006AF0
:1038F000002800D000477047189480002DE9F0415F
:1039000004460D461746002D04D0012D02D001209B
:10391000BDE8F081CCB1C7B1EFF311860220FFF70B
:10392000C1F88046FFF7CCF8401C0121814008EB2C
:103930000100C0B280F3118800206070A570E761BB
:10394000F0B280F311880020E2E70120E0E710B533
:103950000446002C0CD0204600F0B0F9FF20607027
:103960000021A160E160216161610020E06110BD82
:10397000012010BDF0B5DDE90745059981614FF4DF
:103980007A76A2FB061C03FB06C3002702FB073264
:10399000C0E9021209196A41C0E90412002101625A
:1039A000F0BD00002DE9F0410446002C13D0EFF3E8
:1039B00011850220FFF776F80746FFF781F8401CD3
:1039C000012606FA00F03844C0B280F3118812488C
:1039D000002121620EE00020BDE8F081D4E904322C
:1039E000D1E9047CDB1B72EB0C0202D2016A21627A
:1039F00003E00846016A0029F0D1046266700648B7
:103A000020380168491C0160016C4160E8B280F314
:103A100011880120E0E70000F09280002DE9F041DC
:103A200005460024EFF311860220FFF73BF8074616
:103A3000FFF746F8401C012181407818C0B280F39E
:103A40001188134A106CE8B115B102F1200010E0A2
:103A50000446206A10641068401E10600CE0A94201
:103A600006D11168491E1160296A01622C4603E0E3
:103A70000846016A0029F2D124B10020206260705A
:103A8000106C5060F0B280F311882046BDE8F081E0
:103A9000D09280002DE9F041EFF311870220FFF76B
:103AA00001F80446FFF70CF8401C01218140601822
:103AB000C0B280F31188114D002608E0207801285B
:103AC00004D1E16909B1A069884726702D6A2C6A82
:103AD000002CF3D1094D203D07E0E16909B1A0694F
:103AE00088472670206AA8602662AC68002CF4D152
:103AF000F8B280F311880120BDE8F081F0928000D7
:103B00002DE9F041EFF311870220FEF7CBFF0446C9
:103B1000FEF7D6FF401C012606FA00F02044C0B292
:103B200080F311881B4DA5F1200829E0D4E9042079
:103B3000D8E90413521A60EB0300D8E906319A1A47
:103B4000814120D326702046FFF768FFA078012826
:103B500002D0104818380DE0D8E90430D4E9022129
:103B60009A184841C4E904202046FFF71BFF07E0EC
:103B700001F1200001680029FAD121620068046285
:103B80002C6A002CD2D1F8B280F311880120BDE854
:103B9000F0810000F09280002DE9FF5F82460E4622
:103BA00093464FF00008BAF1000F20D041488642FA
:103BB0001DD8E6B1EFF311870220FEF773FF04462C
:103BC000FEF77EFF401C012181406018C0B280F3E7
:103BD0001188504606F088FD10B19AF8010040B1F6
:103BE000F8B280F311880F2004B0BDE8F09F0120E7
:103BF000FAE70AF061FA04460D464FF47A7106FBC3
:103C000001F022462B46002106F03EFDDFF8A89089
:103C1000B0B1D9F8040048B1D0E90410091B60EB39
:103C20000500C9E904100AF0E3FA04E00021C9F82C
:103C30001010C9F814104FF00108D9E9040106E08A
:103C4000D9F80400D0E90421101B61EB0501CDE98E
:103C5000020132460023CDF800B05046FFF78AFE3D
:103C60005046FFF79FFE0CF027F94FF0E021D1F806
:103C700000014FF0806210F0806F01D0012000E061
:103C8000002018B9C1F88022C1F80021B8F1000F56
:103C90000AD0D9F80400D0E90431D9E90402181A8D
:103CA00061EB02010AF03EFAF8B280F311880020BD
:103CB0009AE70000008AB907D09280002DE9F04110
:103CC00004460025002C39D0EFF311870220FEF7BF
:103CD000E9FE0646FEF7F4FE401C01218140701803
:103CE000C0B280F311886078012824D1144E706826
:103CF000A0420BD10AF0E0F9D4E90432181A62EBC1
:103D00000102C6E904020AF073FA01252046FFF712
:103D100085FE5DB1706848B1D0E90421D6E904039D
:103D2000101A61EB03010AF0FDF904E01DB9706897
:103D300008B90AF05DFAF8B280F31188BDE8F081A5
:103D4000D092800000207047022801D300207047E5
:103D5000054951F8200020B190F86C1009B1001D00
:103D60007047002070470000CC4380002DE9F043ED
:103D700089B0054688462C78002D06D02AB1022C41
:103D800005D3082009B0BDE8F0830520FAE7384ED6
:103D900005F1580046F82400D2E900310A46703097
:103DA00019460BF0A3FA291D894624220C316846D6
:103DB000FEF7A8F9291D286D0EC90CF045FF002853
:103DC000E0D12C490C200CF0D9F92B490D200CF036
:103DD000D5F92A4800EBC40797F9010018F41CD262
:103DE00097F9010018F436D256F82400C0F8649010
:103DF00056F82400C0F8008056F824001822083035
:103E000005F14001FEF77EF956F824107868486005
:103E100056F82400001D05F0FDF956F82400001D99
:103E200005F02EFA351F0127287850B92F70134856
:103E3000032110300AF026FE6880002801DA0420F1
:103E4000A0E756F8240080F86C7056F82410002083
:103E500081F8000156F8241081F8010156F8241069
:103E600081F8020156F8241081F803018AE7000066
:103E7000CC438000612A0001712A0001181201015F
:103E800070B5022801D3082070BD134C54F82030BF
:103E90004BB193F86C5035B139B132B193F803514D
:103EA000012D04D010E0052070BD042070BD002558
:103EB00083F8035154F820305B680225C3F888501A
:103EC00054F820305B681B6854F82000001D05F092
:103ED000EBF90028EAD170BDCC4380002DE9F04118
:103EE00004461A4D55F8240070300BF014FA82B2D3
:103EF000164600277AB155F8240090F801110129DF
:103F000009D0802A0ED300F18001703080220BF09E
:103F100017FA80260BE055F8240080F80071002085
:103F2000BDE8F08100F1800170300BF009FA55F81E
:103F3000240080F8047155F82400324600F1800115
:103F4000001D1DF4BDD50028EAD1E9E7CC4380006F
:103F500070B50446022C01D3082070BD184D55F8E9
:103F6000240090B190F86C307BB181B17AB1002619
:103F700080F8026155F8240070300BF025FA55F8EE
:103F8000240090F8001121B10AE0052070BD042042
:103F900070BD90F8011119B990F86C10012901D089
:103FA000022070BD012180F800112046FFF796FF26
:103FB00020B155F8241081F8006170BD002070BD5B
:103FC000CC4380002DE9F04106460C46174604F12B
:103FD0000805204671F4F0D3C3B21B48E1184268CB
:103FE000914202DD0320BDE8F0811849184A0068BB
:103FF00009681268891A081A001FE91881421CD939
:104000004FF4004513A22946002004F481F601F084
:10401000A3FB30B118A22946002004F479F6082049
:10402000E1E71DA22946002004F472F63A46214633
:104030003046BDE8F0410CF0CFBF3A46214630464D
:10404000BDE8F0410CF0C8BFD8328000D02380001A
:10405000CC238000523A353A4E5644532061726563
:1040600061206973206265696E6720636F6D70619E
:10407000637465642E0D0A00523A353A436F6D70D1
:10408000616374696E67204E564453206661696CA3
:1040900065640D0A00000000523A353A436F6D70B6
:1040A000616374696E67204E564453207375636371
:1040B00065737366756C0D0A000000007CB50D46D3
:1040C000002200920192694604F424F6044634BBAF
:1040D0004FF42051684604F41FF6B8B942F60101C6
:1040E000684604F419F688B942F60301684604F4F8
:1040F00013F658B942F60201684604F40DF628B9E1
:104100004FF42451684604F407F608B1062406E08B
:104110000098C5F30B0180880843009988802046E9
:104120007CBD00002DE9F04782460E4617469846B2
:104130004FF001090025D8F80040002C18D11E4886
:10414000046815E03188A08881420BD3E088814261
:1041500004D82146504600F031F808B1246807E041
:10416000012505E02146504600F028F810B12468EA
:1041700025B105E00125A0883080F9E7002CE1D1C8
:10418000B5B14FF00009A0883188884204D1201DC4
:1041900038600120387109E0081A401E00EB400029
:1041A00004EB40000E30386000203871C8F8004041
:1041B0004846BDE8F0870000F80E800070B586B074
:1041C000002200EB4003114C03EBC00304EB43055A
:1041D0002C7D17E035F8123093B18E889E420FD8AF
:1041E000CE889E420CD3CA8889888DE81F00084B70
:1041F000084A4021002004F48BF5012006B070BD70
:10420000521CD2B29442E5D80020F7E7B0DD80001E
:104210009E130101FC1501012DE9F04F8BB00746FB
:104220000C46002500200890099060880790261F02
:10423000E188A288CDE901210090614B61A2402173
:10424000002004F465F5308850B9384610F4E6D6FD
:10425000401E30806088A188884200D800B90125BE
:10426000DFF89091002D60D104F10A000DF1200AD1
:104270000DF1140B04F106080A90A088069004A81A
:10428000CDE9020BCDE9008A022306AA07A9384628
:1042900000F0ACF90546280008D00A2D45D0062DBF
:1042A00043D0BDF81800401C079032E0E088B0F51C
:1042B000205F03D042F60101884208D1BDF810000A
:1042C000217AC3B2059A0A9804F428F548B92289DC
:1042D000BDF81000824218D105990A98FDF736FF03
:1042E00098B9022108202BF4EFD50146BDF81C0037
:1042F0008880BDF81800C880083E59F82700603053
:1043000004F40EF5384604F40DF5BDF81800401C11
:104310000790A088BDF81C10884206D3BDF818107D
:10432000884202D030880428A7D2062D36D059F80A
:104330002700603004F4F8F440B300244FF6FF7116
:1043400001EA8006062000EB0723072204213846F5
:1043500000962EF469D101464E8059F82700006E70
:104360000EE083880A1913711B0A5371A41CA4B2AE
:10437000C3880A1913711B0A5371A41CA4B20068E4
:104380000028EED1084604F4D1F40AE021780A238B
:10439000BDF81C20384604F4CBF402E0BDF81C0044
:1043A0006080074B14A240210020009504F4B0F473
:1043B000062D03D000200BB0BDE8F08F0120FAE7F6
:1043C00066130101523A333A5B25735D20656E74C2
:1043D00065722C2073683D307825782C2065683D07
:1043E000307825782C20747970653D307825780AEE
:1043F00000000000C40E8000523A333A5B25735D22
:1044000020657869742C207374617475733D3078FD
:1044100025780A002DE9F04F85B081460E464846C2
:1044200010F4FCD5801E1FFA80FAD0460024B08814
:104430007188CDE90010574B57A24021002004F4A9
:1044400067F47088B188DFF874B1884211D880B100
:1044500070880490002002900390019001AB02AAA2
:1044600004A94846FFF75EFE0546280003D00A254A
:1044700042E0012540E0B088BDF81010884232D3F8
:10448000022118202BF420D507460120009000239C
:10449000FA1DB91D02A804F44DF40546280007D002
:1044A00040F24E2346A22946BDF8100004F444F41D
:1044B000BDF81000B88004B9BC79B879A04203D027
:1044C00038462BF481D317E05BF829003946603079
:1044D00004F426F4A8EB0400801E1FFA80F8BDF84F
:1044E0001000401C0490B188BDF81000814203D335
:1044F00010B1A01C8045B1D25BF82900006E18B144
:10450000002018B19DB334E00120FAE70026AAEBA1
:1045100008081FFA88F00090062000EB0923052206
:10452000042148462EF480D00746022C08D00220F1
:1045300078707888404478805BF82900046E10E039
:104540000120F5E7A188B8198180B61CB6B2B81968
:10455000A279001DE11DFDF7D5FDA079304486B29A
:104560002468002CEED1384604F4E0F307E0FFE7BE
:104570000A25728831782B46484604F4D9F3054B56
:1045800013A240210020009504F4C2F305B00020DE
:10459000BDE8F08F4D130101523A333A5B25735D4C
:1045A00020656E7465722C2073683D307825782CF8
:1045B0002065683D307825780A000000C40E800030
:1045C000617474735F70617463682E63000000002F
:1045D000523A333A5B25735D20657869742C2073F9
:1045E00074617475733D307825780A002DE9F04FB9
:1045F00087B08346DDF844900C4615469A4600265F
:10460000B4F800800027019701AB4A46214658467E
:10461000FFF788FD10B12888208026E020882988AF
:1046200088421BD8002302AA06A94846009704F432
:1046300081F3014629B1208840F269131AA204F4DB
:104640007BF39DF8183002AA5146109804F466F3E3
:1046500008B1012602E02088401C20802EB9208865
:104660002988884201D80028CED16EB122884B46D5
:104670000021584604F462F3C6B22088494604F487
:104680005FF3288026B10AE00A26A4F8008006E03D
:104690002188DDE91223584604F454F3C6B207B06A
:1046A0003046BDE8F08F0000617474735F70617410
:1046B00063682E63000000002DE9F04105460C46BA
:1046C000FF26217A1E2905D022480279521E52B2B5
:1046D00000683AE004F10801284604F435F3064680
:1046E00035E010F832308B422DD11B4E56F82500A4
:1046F000406F30B300273B4618A24021002004F44D
:1047000007F3062000EB05202BF434D6C00605D5B0
:10471000002717A24021002004F4FAF221460C39A8
:1047200056F82500743004F4FBF20020A080012626
:104730006FB115A2402104F4EBF2284604F406F30D
:1047400005E00127D7E7521E52B2002AC9DA3046E7
:10475000BDE8F0817C058000C40E8000523A333AF7
:10476000657865637574653D307825780A000000CA
:10477000523A333A636F6E6E656374206E6F7420C5
:1047800063666D0A00000000523A333A7374617236
:104790007420657865637574650A000003480249F2
:1047A00001600D2141607047AC1201017C05800061
:1047B0002DE9F04F8BB082460C4600260020099070
:1047C0000A9060880890251FB0462988A288CDE904
:1047D000012100906D4B6EA24021002004F498F25C
:1047E000288850B9504610F419D4801E288060885B
:1047F000A188884200D800B90126714850F82A00E3
:10480000006E10B1002111B103E00121FBE790F827
:104810000680002E5DD104F1080BA088079006A841
:1048200005A909AACDE90210CDE900B2A37907AA2A
:1048300008A95046FFF7DAFE0646300049D1BDF818
:104840001410884502D0B8F1000F42D12888001F0B
:10485000FB22FB2800D31046814200D2084687B2D3
:10486000022107F10C002BF42FD38146BDF81480F0
:10487000BDF82000A9F80400BDF81C00A9F8060046
:1048800089F808703A4609F109000699FDF73AFCE3
:104890002888C01B001F28804948494650F82A0034
:1048A000603004F43DF2BDF81400874202D1504656
:1048B00004F438F2BDF81C00411C89B20891A288AA
:1048C0008A4206D3824204D0298808F1040081423A
:1048D000A3D2062E48D03A4D55F82A00603004F491
:1048E00023F2C0B3002755F82A100C6E217A091D57
:1048F00041431FFA81F8062000EB0A23112204210C
:104900005046CDF800802DF48FD60546A5F80280DC
:10491000217A091D697018E0A188E8190171090A56
:104920004171BF1CBAB2E188A8180171090A41712E
:10493000921C97B2E819227A001D04F10901FDF7D3
:10494000E1FB207A384487B22468002CE4D1284661
:1049500004F4ECF10BE0FFE721783346BDF82020AA
:10496000504604F4E5F102E0BDF820006080074BFA
:1049700014A240210020009604F4CAF1062E03D0B0
:1049800000200BB0BDE8F08F0120FAE72D130101E4
:10499000523A333A5B25735D20656E7465722C2044
:1049A00073683D307825782C2065683D307825780F
:1049B0002C2072655F6C656E3D307825780A0000AA
:1049C000C40E8000523A333A5B25735D20657869E6
:1049D000742C207374617475733D307825780A00E7
:1049E0002DE9F04F8BB082460C460026002009903E
:1049F0000A9060880890251FB046A188694BCDE9D0
:104A0000000169A24021002004F482F1288850B9F5
:104A1000504610F403D3801E28806088A188884205
:104A200000D800B90126694850F82A00016E11B17A
:104A3000002010B103E00120FBE791F80680EEBBF7
:104A400004F1080BA088079006A805AA09A9CDE9DA
:104A50000220CDE900B1A37907AA08A95046FFF7C3
:104A6000C5FD0646300047D1BDF81410884502D078
:104A7000B8F1000F40D12888801EFD22FD2800D308
:104A80001046814200D2084687B2022107F1080091
:104A90002BF41AD28146BDF81480BDF82000A9F885
:104AA000040089F806703A4609F107000699FDF7F7
:104AB00029FB2888C01B801E288000E01CE043489A
:104AC000494650F82A00603004F42AF1BDF8140079
:104AD000874202D1504604F425F1BDF81C00411C68
:104AE00089B20891A2888A4206D3824204D02988DA
:104AF00008F102008142A5D2062E40D0334D55F870
:104B00002A00603004F410F180B3002755F82A1011
:104B10000C6EA179891C41431FFA81F8062000EB35
:104B20000A23092204215046CDF800802DF47CD5BB
:104B30000546A5F80280A179891C697010E0A1885A
:104B4000E8190171090A4171BF1CBFB2E819A279C5
:104B5000001DE11DFDF7D6FAA079384487B224681C
:104B6000002CECD1284604F4E1F00BE0FFE72178BB
:104B70003346BDF82020504604F4DAF002E0BDF8D8
:104B800020006080074B12A240210020009604F410
:104B9000BFF0062E03D000200BB0BDE8F08F01203F
:104BA000FAE7000082130101523A333A5B25735D44
:104BB00020656E7465722C2073683D307825782CE2
:104BC0002065683D307825780A000000C40E80001A
:104BD000523A333A5B25735D20657869742C2073F3
:104BE00074617475733D307825780A002DE9FF5F94
:104BF00081460F460024A246CDF808A0CDF80CA0AF
:104C0000584850F82900603004F48EF080463D1F6B
:104C100079882888544BCDE9001054A24021002007
:104C200004F476F02888E8BB484610F4F7D1401E1B
:104C30002880002611E007EB460002AB82880021A5
:104C4000484604F47BF0C4B2CDF808A0CDF80CA01F
:104C50000CB1B0463BE0761CB6B27888B042EAD8D8
:104C600035E007EB48006B46818801AA484604F40A
:104C700069F0C4B23CBBBDF804002988884200D367
:104C8000084686B2022106F108002BF41DD18346A6
:104C9000ABF8046032460BF106000099FDF732FADA
:104CA000304800E013E050F829005946603004F421
:104CB00037F0484604F436F02888801B288008F135
:104CC00001081FFA88F8CDF808A0CDF80CA0788864
:104CD000404503D9288808B1002CC2D044BB4846BF
:104CE00010F49CD12988401A401E86B20025062067
:104CF00000EB09230F220421484600962DF494D49A
:104D00008246AAF80260174850F82900066E0AE0A9
:104D10000AEB0500B288001DB11DFDF7F3F9B0885C
:104D2000284485B23668002EF2D1504603F4FEF7CF
:104D30004CB1062C07D007EB48003978828823460F
:104D4000484603F4F5F7084B14A2402100200094D4
:104D500003F4DEF7062C03D0002004B0BDE8F09F7A
:104D60000120FAE7C40E800014130101523A333ACD
:104D70005B25735D20656E7465722C206E625F68C2
:104D8000616E646C653D307825782C2072655F6CAF
:104D9000656E3D307825780A00000000523A333ABB
:104DA0005B25735D20657869742C2073746174755C
:104DB000733D307825780A0010B500210A4C002395
:104DC000002001EB410202EBC10204EB420222F897
:104DD0001030401CC0B20A28F9D31375491CC9B25F
:104DE0000A29EDD310BD0000B0DD800000B50A48EF
:104DF000006800280FD090F82A1001290BD190F8F4
:104E00002C00FF2807D200F00FFA40F080605DF818
:104E100004EB00F00DBA00BD7C0680001FB50F4802
:104E200090F80201002818D068464FF483D2DDE9DB
:104E300000010B4CCDE90201E1680844094920F06A
:104E40007040486008464FF40BD5607818B1BDE853
:104E50001F400AF0D5BB0AF0EFFB1FBDC01A80004F
:104E600020478000B41A80001FB5044668464FF4FE
:104E700061D2DDE90012CDE90212114A491C21F08C
:104E80007041516010464FF473D40D484FF4E8D48C
:104E9000207E002813D10B4991F801010A4A01EB49
:104EA00000104260094800218269094890F9000019
:104EB000904708490A8822F0FF0202430A801FBD7A
:104EC000B41A8000C01A800091DC0001BC0B800085
:104ED00020478000688100B002460020002152F87F
:104EE00021300BB1401CC0B2491CC9B20C29F6D309
:104EF000704710B507F0E2FABDE8104002F0DCBAE6
:104F000007F072B82DE9F0410546884628466BF453
:104F100017D1C0B22449097888420DD200EB400075
:104F2000213040F400404246AC2109F0B9F9044672
:104F3000200032D0012430E06BF446D1C7B207EB39
:104F4000470606F1200040F400402A46072109F0F8
:104F5000A7F910B10120BDE8F081384677F484D27A
:104F600006F1210040F400404246AC2109F098F9D6
:104F70000446200001D00120EDE7223646F400402F
:104F800072F444D30949C7EBC7000968084429688B
:104F90000160A9888180A97981711CB941462846A0
:104FA000FEF740FB2046D6E7382380003C238000F4
:104FB00010B50AF09BFB0AF0E7FB0AF035FB09F09D
:104FC00061FF0BF0DDFC00F015FA0AF0F9FB00F0D0
:104FD0005FF9BDE8104000F03FB909F0D7BE10B549
:104FE00006F0C2F907F09AFB06F0CEF906F0D2FD02
:104FF00006F02EFA05F092FDFFF7D0FB03F0FAF869
:105000000AF072FC0BF098F8BDE81040FFF7D4BE30
:105010000148FFF761BF0000B413800010B5FFF72F
:10502000DCFF054903480860BDE81040034876F4FA
:105030008D94000017B8800474C500A00087930306
:1050400010B50446002C0CD0204600F089F800284A
:1050500007D104494968002903D02046BDE8104023
:10506000084710BD4C45800010B50088B0F5807F22
:1050700001D100F01CF810BD0A2805D2034A002116
:1050800052F8200080F88F1070470000C40E800096
:1050900070B504460D4620460AF0E4FB002805D111
:1050A00029462046BDE8704063F4849770BD704780
:1050B0000648054901604FF48071416000F1080124
:1050C000002000F005B8000034908000D443800038
:1050D00065F4EA9400B58BB0094901200870FF22FD
:1050E000282101A8FDF720F84FF48070ADF80400E6
:1050F0000020ADF8060001A8FFF7A2FF0BB000BD2D
:105100004C45800010B506480068002800D0804754
:1051100000F4A2F108B1012010BD002010BD000074
:105120007447800010B540F4404072F46FD210BD57
:1051300010B540F4404009F0B3F810BD04490160D7
:1051400004494160044981600449C160704700001E
:1051500041C2060015C2060031510001255100016F
:1051600070B50446002C1FD04FF6FF7319462288F5
:1051700040F20155A2F201504FF48076AA424CD081
:105180001BDC40F20245A2F20240AA4234D00DDC00
:10519000A2F54072013A25D0012A23D0FF2A29D056
:1051A000B2422ED121892CE0002070BD012825D0EB
:1051B000022825D0FE2824D12AE004282DD006DCA0
:1051C00001282AD0022828D003281AD125E0052852
:1051D00023D0062821D0B04213D1204602F0BCFED5
:1051E000002070BD204603F0EFF9204603F08AF856
:1051F000002070BD218904E0218902E0618900E07E
:10520000218A99420ED0204603F0EEF9012070BDAC
:10521000204603F00BF9002070BD204603F082F811
:10522000002070BD002070BD4FF030400068704716
:105230004FF030410860704710B507F031FC08F0BE
:10524000E3FC08F043F802F0D9FA02F0B1FBBDE844
:1052500010400AF0ADBA000010B522210A4809F04A
:10526000C7FC0C21094809F0BDFC03210748603048
:1052700009F0B2FCFFF7B3FE0520FFF741FEFFF790
:10528000DBFFFFF736FE10BD0841800018428000AA
:105290000449034808600549034808607047000056
:1052A0005D6900010C228000996B000118228000CA
:1052B00070B50026150A0E4805EB450200EB0214F6
:1052C000098821800120A0702846FFF7D5FE002024
:1052D0006AF4D6D70748016829B10B681BB1228848
:1052E0000021284698476BF401D0304670BD00007D
:1052F000D42E8000B82280003EB500241D0A0A7812
:10530000122A02D0132A04D006E000208DF80000F3
:1053100002E001208DF800008888ADF8040048887C
:10532000ADF80200891D029100206AF4A9D70B484C
:10533000016829B18A691AB169462846904708E090
:105340009DF80000012804D1BDF804102846FFF79D
:105350009FFE6AF4CBD720463EBD0000B4228000F9
:1053600001480078704700007A4880007CB50E46FE
:10537000150A0020009001906946284674F4FED773
:105380009DF806206946284602F0F6FD0446CCB199
:1053900064F4FCD5C0B164F4F9D5C01C81B2328884
:1053A000002320466FF4DAD1694628460AF0D8FA7D
:1053B00040B106A24021002003F4AAF42146684629
:1053C00060F442D300207CBD0020E7E7523A333A34
:1053D0007361766520636363640A00007CB5DDE970
:1053E0000654CDE9005468F4FDD3BDE87C4009F0D3
:1053F00087BB00000249014808607047DD53000187
:105400004823800010B588B0044668F479D600209F
:10541000079007A856F420D50798FFF78FFE20685D
:10542000019060680290A0680390E0680490208A70
:10543000ADF81400608AADF81600A08AADF8180027
:10544000E08AADF81A0001A856F430D556F410D50C
:105450000348016801614168416108B010BD000066
:10546000300100B010B58AB00446FF2228216846FA
:10547000FCF75AFE40F20271ADF800100021ADF8C1
:1054800002108DF804406846FFF7DAFD0AB010BD3F
:1054900000230849496808E0CA88824204D80A897A
:1054A000824201D3CB6802E009680029F4D1184692
:1054B000704700009847800070B519480468194D7E
:1054C0002878002801D0002070BD4FF0806073F470
:1054D0000FD602F411F2600874F41AD5124908606C
:1054E0008817114901262C39086010497006C1F847
:1054F000FC01C8674FF03041086B40F007000863BB
:10550000094C303C206840F4E020206002F436F280
:105510002E70206820F4E0202060012070BD000083
:105520006C2480006C47800070C500A084E000E01F
:1055300070B50024EFF31086012080F3108802F488
:1055400038F2104D28B102242968B9B102208847E9
:1055500014E0FFF7D7FD20B1296879B10020884712
:105560000CE0FFF7A9FF28B10224296831B102201D
:10557000884703E0296809B10020884786F310882E
:10558000204670BD5C24800010B5084A1378002BBB
:1055900001D00F2010BD31B150600448243000F01C
:1055A00007F8002010BD022010BD00004C4580000F
:1055B0002DE9FC4705460C46FFF7FAFC6AF496D63F
:1055C00007463648006800B18047354901200AF097
:1055D000D5FD344902200AF0D1FD0120FCF78AFDF7
:1055E000A08E81B2206B01F053FFDFF8BC90DFF892
:1055F000BC80E16999F8000098F800200244B1FBF2
:10560000F2F1CEB216FB00F1A06966F4CFD628689D
:1056100065F45ED2686861F46BD1286968F40AD6D3
:10562000A86863F403D4E86863F4A8D420484EF46F
:1056300031D020484EF434D01F484EF437D01F48A4
:1056400056F460D41E484DF4DBD71E484DF4DED727
:105650001D484DF4E1D71D4866F47CD64FF08060BC
:1056600073F446D52046FFF7CDFED4E90A01CDE913
:10567000000199F80010A06916FB010098F80010CD
:1056800016FB01F1D4E90823114C2468A0473846E1
:105690006AF4F6D5BDE8FC4766F4409780268000A2
:1056A00039380600DD37060029D507002AD507005E
:1056B000119F0700B9C3060065C40600EDAF0700DF
:1056C00025ED060045ED060065ED0600799B070017
:1056D00048238000034900EB800001EB80008088B4
:1056E00070470000EC458000034A00EB800002EBAD
:1056F0008000818070470000EC4580000E4910F169
:10570000210F06DA086820F4704040F44050086029
:10571000704710F11D0206D3086820F4704040F471
:105720008040086070470A28FCDD086820F470405B
:1057300040F4A0400860704724C500A010B509F0EF
:10574000E5FF09F089F90AF0B3FF00F035FBBDE889
:10575000104009F04DBF00002DE9F04F87B07B48A5
:10576000D0F8009000240025A24600260BF010F986
:1057700077480168C9F800104068C9F80400754806
:1057800000680830059009F108000690042203A97A
:10579000059800F0DDFABDF80C10A1F57F40FF3848
:1057A00043D0082203A9059800F0D2FABDF80E00F4
:1057B00070F402D000F0FF08BDF80C00002867D09C
:1057C0000698A9EB000707F58057BDF80E1008F101
:1057D000080083460844B84263D805AB082203A9F1
:1057E00006A800F0EBF8BDF80E00002300EB08025D
:1057F00005A906A809F0DAF9641CBDF80E005844A2
:10580000B842C3D10020CDE9006053464A46214644
:1058100028460BF0F7FA002826D1824600260024FD
:10582000CDF818906D1CEDB2B0E70020CDE9006016
:1058300053464A46214628460BF0E4FA002813D185
:105840006D1CECB2434D4FF48057434E08E028687E
:1058500000EB0430394603F0C3F940B1641CE4B2F4
:10586000707AA042F3D8002007B0BDE8F08F3B4823
:105870008169407A40F26242CDE900200291384BC2
:1058800038A24FF40041002003F442F20920EBE774
:10589000BDF80E00059908F1080808444044059039
:1058A00074E7082F29D305AB082203A906A800F046
:1058B00085F8083F2FB100233A4605A906A809F04C
:1058C00075F9611C0020CDE9006053464A46284620
:1058D0000BF098FA0028C7D18246BDF80E0040446C
:1058E000C61B0024CDF818906D1CEDB20023324683
:1058F00005A906A809F05AF948E705AB3A4603A9F5
:1059000006A800F05BF8611C03A8CDE900605346CF
:105910004A4628460BF076FA0028A5D1C7F1080AB6
:10592000BDF80E0000EB08060024CDF818906D1CA1
:10593000EDB20123524605A906A809F037F9002364
:10594000324605A906A809F031F91FE794478000FF
:10595000ACD50700CC238000D8328000641F8000C3
:10596000A0140101523A353A25732C204C256420AD
:10597000666C6173682073746174652030782530BB
:1059800032582C206572726F72203078253038586A
:105990000D0A00000221B0FBF1F2FF2A04D8B0FB8F
:1059A000F1F201FB12022AB1491CC9B24029F2D31B
:1059B00000207047B0FBF1F0C0B2704770B50446EC
:1059C00015461E462A462068FCF79CFB3068284492
:1059D000306020682844206070BD000010B5054884
:1059E000017B491C0173002074F400D1BDE8104014
:1059F00000F050B8944580002DE9FE43FFF7EDFA22
:105A00001E48016821F4003101601C4E083E3068D8
:105A10001B4980B2084330601A4803C8CDE9000131
:105A200016482C380068C82100F007001DF8000057
:105A300010FB01F514480768144CD4F80080384670
:105A4000414603F013F862686068831AAB42FBD3E7
:105A50004146384602F0EAFF09F068F802909DF8E6
:105A6000080028B19DF80800094948618861C861AB
:105A7000306820F07F403060BDE8FE8330C500A074
:105A800000008F11105D0001FCED00E0001000E04F
:105A9000944580002DE9FC412D4E306820F07F4078
:105AA00040F0885030602B4803C8CDE900012848F9
:105AB0002438006800F007011DF80100C82110FB20
:105AC00001F525480768254CD4F800803846414642
:105AD00002F0CCFF62686368981AA842FBD3414683
:105AE000384602F0A3FF002509F020F80446DFF84D
:105AF0007080D8F81800844201D9012700E00027FF
:105B000073F41AD740B91FB1D8F81800201A02E070
:105B1000D8F81800001BC5B2D8F81800C8F8200043
:105B2000B5EB900F03D8292C01D8112C02D200F02C
:105B300019F807E000EBC00020440A21B0FBF1F0A7
:105B4000C8F81800306820F07F403060BDE8FC8164
:105B500028C500A0105D0001FCED00E0001000E091
:105B6000944580002DE9F04F87B00020069008246E
:105B7000DFF890811A20C8F8140063480168634A6E
:105B800089B21143016005A8FCF718FF0220FCF759
:105B90001DFFDFF8749109F10809D9F8000020F41D
:105BA0007C3040F42030C9F8000059A003C8CDE98A
:105BB0000201DFF854A1AAF1240ADAF8000002A9D0
:105BC00000F00700085CC82110FB01F5DFF848B1C0
:105BD000DBF800000190514F3E680198314602F019
:105BE00045FF78687968091AA942FBD331460198C4
:105BF00002F01CFF08F09AFF04909DF81010D8F8EE
:105C00001400814204D99DF81020811C8A4263D976
:105C10009DF81010814204D29DF81020811E8A4206
:105C20005AD29DF81010814201D9012500E00025CB
:105C300015B1641C64B201E0641E64B2202C11D35F
:105C4000D9F8000020F47C3040F42030C9F800007E
:105C5000D8F83C00401CC8F83C000020049001200B
:105C6000069039E0D9F8000020F47C3040EA043096
:105C700040F40030C9F8000025A003C8CDE90201B6
:105C8000DAF8000002A900F00700085C642110FBAC
:105C900001F6DBF80000019038680090DDE90010A3
:105CA00002F0E4FE78687968091AB142FBD3DDE9B5
:105CB000001002F0BBFE08F039FF049035B19DF8EA
:105CC0001000D8F814108842B2D805E09DF81000F2
:105CD000D8F814108842ABD39DF81400FCF776FE78
:105CE0000948016821F07F4101609DF81000C8F863
:105CF0001800D8F82400401CC8F82400069807B003
:105D0000BDE8F08F9445800028C500A000008F11E9
:105D10004030101810200000FCED00E0001000E002
:105D20000A49322808DDD1F8200220F4706040F4DE
:105D30004070C1F8200270472828FCDAD1F8200210
:105D400020F47060C1F820027047000000E000A05D
:105D50002DE9F04105460E461746094C2378002BE5
:105D600002D0002070F49CD03A463146284602F01A
:105D700077FF0546207870F493D02846BDE8F0817F
:105D8000C92380002DE9F04105460E461746094C0F
:105D90002378002B02D0002070F482D03A4631469E
:105DA000284602F06DFF0546207870F479D0284629
:105DB000BDE8F081C92380000121024A002069F476
:105DC000D3960000C58700010449034808600549CF
:105DD0000348886070470000115B80000407800062
:105DE0001D4E0001B41A80000AF05ABB0AF0F2BB43
:105DF00010B5104C02220421204605F057F901226B
:105E00001021204605F052F902228021204605F09B
:105E10004DF902224021204605F048F902222021B6
:105E2000204605F043F920460222BDE81040082133
:105E300005F03CB9001001A02DE9F04782462DED98
:105E4000028B84B089461746984600200290039042
:105E500000250026019001A80AF032FA37480168AF
:105E600021F4C07141F080010160416821F480514A
:105E700041600024504609F0E5FF08F075FF02F08C
:105E8000DDFB029002980644484609F0DBFF08F06B
:105E90006BFF02F0D3FB0390DDE90210401A0544CA
:105EA000641C072CE6DB2846FCF76EF99FED248B7B
:105EB00053EC182BFCF7DDFA41EC100BFCF708FE55
:105EC00051EC100BFCF763FB04463046FCF75CF921
:105ED00053EC182BFCF7CDFA41EC100BFCF7F8FD56
:105EE00051EC100BFCF753FB03460020164A1CE054
:105EF00000FB04F1B1FBF7F119440291134D029933
:105F0000B5FBF1F108F80010114D0299B5FBF1F164
:105F10009DF804502944C9B21154802903D90D4D6C
:105F20002D7829441154401CC0B2B842E0D308F087
:105F3000F7FE04B0BDEC028BBDE8F087802001B015
:105F40000000000000001C4034E0800000C0A832C7
:105F50000080D72578478000044903480860054938
:105F60000348886070470000694E00010407800004
:105F7000ED4D0001B41A80002DE9FE4F07460D4695
:105F800002AA294638460AF0CDFD10B10298BDE8B4
:105F9000FE8F029C00260296DFF8688098F80000C9
:105FA00010B100206FF47CD7DFF85CA04FF6FF79CA
:105FB00008226946204602F053FEBDF8000048451D
:105FC00002D12E80029617E0B84206D115B1BDF875
:105FD00002002880083402940EE0BDF802006FF43D
:105FE000EBD3BDF80210083021444418DAF8000061
:105FF0008442DDD32E80029698F800006FF450D7CB
:106000000298C4E7C9238000D023800070B50646FB
:106010000024094D0BE004EBC40005EB8000801C5C
:1060200007223146FCF792F820B1641CE4B22878CC
:10603000A042F0D8204670BD2CDC800010B50021B5
:10604000084B5A681B8809E052F83140844203D15A
:1060500002EBC100406810BD491C89B29942F3D3DC
:1060600010BD00004844800010B50021084B5A685C
:106070001B8809E052F83140844203D102EBC10091
:10608000406810BD491C89B29942F3D310BD00008D
:106090003C44800010B50021084B5A681B8809E079
:1060A00052F83140844203D102EBC100406810BD78
:1060B000491C89B29942F3D310BD000050448000BE
:1060C0000349095C002902D0002105F005BD704795
:1060D00096DD800010B5884210D808290ED2094BF1
:1060E000074A5A6006E003EB8002946844F001041A
:1060F0009460401C8842F6DD0320186010BD00004B
:1061000000400030002000E02DE9F047164F3868CD
:10611000002826D04FF00009002400250526DFF8CE
:106120004C8013E005EB4501012018F82120904038
:106130003A68104208D008EB81032246D3E90101F6
:10614000641CE4B200F01CF86D1CEDB2B54201D243
:10615000062CE7D3641EE1B24846BDE8F047FFF7DE
:10616000B9BFBDE8F0870000384480003412010157
:1061700013B501216846FDF7ADFB01201CBD0000F1
:1061800070B505461446114840F8345000EBC40081
:106190004160284602F03EFB0646FF2002F044FB29
:1061A000014625F001000A4B850703EB8402094BE9
:1061B00006D0801E906006EB014043F8240002E008
:1061C000906043F82410204670BD0000643D8000BC
:1061D000002000E0004000302DE9FC410C46474A19
:1061E0006178A07852F82110CDE90010237844A2FC
:1061F0001021002002F48CF5607801264F4F052510
:1062000030B1012837D0022849D0032872D15AE092
:1062100020786CF443D2C0B2C0EBC00107EB81011F
:106220004D72A278452A09D1CA681278022A17D07D
:1062300091F82020022A01D081F8206091F82020D6
:10624000012A04D0022A02D0032281F8202091F8EA
:106250002020022A4ED0C9680978022906D102E01E
:1062600007224A72EAE7A178452943D0344A00213F
:10627000126890473EE087F89950A078452805D1EC
:1062800097F89C00022801D087F89C6097F89C0042
:1062900002282FD02B490020096888472AE087F878
:1062A000A550A078452805D197F8A800062801D068
:1062B00087F8A86097F8A80006281BD0224900207C
:1062C0000968884716E020786CF44AD2C0B207EB20
:1062D000001181F8B150A278462A01D0CE2A01D10E
:1062E00081F8B35091F8B310022903D0174A002166
:1062F000126890470020BDE8FC8100006822800001
:10630000523A313A6163742073746F707065642C13
:10631000206163745F6964783A2025642C2061638E
:10632000745F747970653A2025732C2072656173EF
:106330006F6E3A203078253032780A007C27800052
:106340001022800014228000182280001C2280006D
:1063500010B58AB00C46FF2228216846FBF7E4FE00
:1063600040F20A20ADF80000ADF802406846FEF7A2
:1063700067FE0AB010BD10B58AB00446FF2228217E
:106380006846FBF7D1FE40F20D20ADF8000000207A
:10639000ADF802001C22214602A8FBF7B3FE1C3414
:1063A00009946846FEF74CFE0AB010BD30B58BB0BC
:1063B00005460C46FF22282101A8FBF7B5FE40F256
:1063C0000722ADF80420ADF806408DF8085001A86A
:1063D000FEF736FE0BB030BD37B58AB005460C4629
:1063E000FF2228216846FBF79FFE4FF40272ADF8AA
:1063F0000020ADF802408DF804509DF830008DF873
:1064000008006846FEF71CFE0DB030BD00B58BB02D
:10641000FF22282101A8FBF787FE4FF44170ADF859
:1064200004000020ADF8060001A8FEF709FE0BB03D
:1064300000BD00002DE9FF470C4666788DF80D6021
:1064400020784FEA1329CDE900905A4B5AA2102127
:106450000296002002F45CF420786449644F4FF007
:10646000000801EBC905092861D008DC092824D2FD
:10647000DFE800F09A8B9A4A4A9A9A242400172857
:106480002FD004DC0B2807D0142816D16AE0182876
:1064900014D0192811D111E0607822280DD10020E4
:1064A00069F4EED65348006828B143681BB1002256
:1064B0000F214846984769F419D775E06AF4D6D594
:1064C000044685F80580002069F4DAD6386828B1DA
:1064D000436D1BB1224631464846984769F406D7BA
:1064E00062E06AF4C3D5044685F80480002069F4AC
:1064F000C7D6386828B183681BB122463146484662
:10650000984769F4F3D64FE06AF4B0D5044685F8AD
:106510000680002069F4B4D6386828B1836D1BB1B9
:10652000224631464846984769F4E0D63CE06AF492
:106530009DD5044685F80280002069F4A1D638680C
:1065400030B1C36C23B136B1224631464846984734
:1065500069F4CCD628E0002CFAD0224631464846D1
:106560009847F5E76AF482D5044685F80380002051
:1065700069F486D6386828B1C36D1BB1224631460E
:106580004846984769F4B2D60EE0607860B10020C2
:1065900069F476D6386828B1C36B1BB161780022E4
:1065A0004846984769F4A2D66AF466D504B000203C
:1065B000BDE8F08790120101523A313A25733A2032
:1065C000636F6E696478203D2025642C206F7063B2
:1065D0006F6465203D20305825782C206572726FDD
:1065E00072203D2030582578000000002A278000C6
:1065F00098218000EC23800010B58AB00446FF2269
:1066000028216846FBF790FD40F20331ADF80010F9
:10661000ADF802406846FEF713FD0AB010BD70B534
:106620008AB005460C461646FF2228216846FBF72D
:106630007BFD40F20131ADF80010ADF802408DF85D
:1066400004501222314602A8FBF75CFD6846FEF7B3
:10665000F7FC0AB070BD70B58AB006460D46144608
:10666000FF2228216846FBF75FFD4FF44273ADF827
:106670000030ADF802508DF8046020680290A088C8
:10668000ADF80C006846FEF7DBFC0AB070BD0000F8
:106690002DE9F041ADF50E7D0C461E0A304662F440
:1066A00099D30746304662F495D3002834D04DA1E3
:1066B000009133464DA21021002002F429F3FF2E51
:1066C0005BD0574D2088288060886880A088A8808B
:1066D000E088E880207A2872607A68722F74D4F893
:1066E0000A00C5F80A00E089E8814E4A002102EB61
:1066F000C60001604160218822F836104FF4CA714B
:1067000029A8FBF718FD29A85FF48CD0687ADFF878
:106710001881012816D101E044A1C9E7E87B0121D5
:10672000B1EB901F0ED198F81C0140070AD59DF8D7
:10673000A40038B1A02101A8FBF7FDFC002429AD7D
:1067400001AF3DE004F10A02617A1546304673F468
:1067500033D6617A2A46304601F05AFC354C6FB187
:10676000002069F48DD5206828B1836B1BB12C4AB9
:1067700000213046984769F4B9D52DE0032088F808
:10678000A800D8F8AC000078012825D1002069F4D1
:1067900077D5216829B18B6B1BB1214A0021304686
:1067A000984769F4A3D517E004EB840005EBC0011A
:1067B000093107EB04101022FBF7A4FC641CE4B2BF
:1067C0009DF8A400A042EFD815499DF8A43001AA75
:1067D0000A3130466CF496D40DF50E7D0020BDE8EC
:1067E000F0810000534C415645000000523A313AC6
:1067F000636F6E6E656374696F6E5F7265715F69FA
:106800006E645F68616E646C65723A20636F6E6976
:1068100064782025642C20726F6C652025730A0033
:10682000182780002A2780007C2780004D41535480
:10683000455200009821800070B58AB006460D468A
:106840001446FF2228216846FBF76EFC40F2053310
:10685000ADF80030ADF802508DF804602068029069
:10686000A088ADF80C006846FEF7EAFB0AB070BDE0
:1068700030B58BB005460C46FF22282101A8FBF756
:1068800053FC40F20632ADF804200022ADF8062099
:106890008DF80850206803906068049001A8FEF706
:1068A000CFFB0BB030BD00002DE9F0410D46E8797B
:1068B000FF2819D01B4FB96889B300246BF4CED6DA
:1068C000C6B216B1032E05D008E0E8796BF4E6D61F
:1068D000C4B203E0E8796BF443D7C4B2BB682A467C
:1068E0002146304698471AE000210E2064F4FCD778
:1068F0000446A4B1012020702868C4F80300A888C9
:10690000A4F80700A8796072E8796BF4C7D6A07084
:106910000E2120466AF4BED3204664F4E3D700205B
:10692000BDE8F0819444800030B58BB004460D463C
:10693000FF22282101A8FBF7F7FB40F20622ADF861
:106940000420ADF806400E22294603A8FBF7DAFB27
:1069500001A8FEF775FB0BB030BD000030B58FB05D
:1069600006200E9000250795514C032020700F2023
:10697000607084F82F5084F82E504FF40070E0843B
:1069800020850A2084F82A001B2060844FF4A4701C
:10699000A0840CAA0EA9012065F43CD438B108A843
:1069A00009F0C2FC18B907A809F056FED0B1A576C7
:1069B0004FF461706080208C40F08000208405A836
:1069C0004DF4B8D4059806990844FBF793FB01955C
:1069D00002950395049508A809F0A6FC344C0A34E6
:1069E000E8B35EE00120A0763248007820B39DF83D
:1069F0002000412813D09DF82A0020719DF82D0019
:106A000060719DF82E00A0719DF82F00E071BDF817
:106A10001C002072C02141EA10206072C8E79DF876
:106A2000280020719DF8290060719DF82A00A0714E
:106A30009DF82B00E071EAE79DF82000412815D071
:106A40009DF82A00A0719DF82D00E0719DF82E00A0
:106A500020729DF82F0040F0C000607200E014E04A
:106A6000BDF81C006071000A2071A1E79DF82800A4
:106A7000A0719DF82900E0719DF82A0020729DF810
:106A80002B0040F0C0006072E8E7102201A908A8BE
:106A9000FBF75CFB28B1102208A92046FBF732FB6C
:106AA00002E0204673F4D4D303F018FD0FB030BDDC
:106AB0007E2880009444800070B58AB005460C465C
:106AC0001646FF2228216846FBF72EFB40F20233D0
:106AD000ADF80030ADF802408DF804508DF8086034
:106AE0006846FEF7ADFA0AB070BD000070B50D46FD
:106AF000EFF311801D490A781D490968C1F302218D
:106B0000491C01248C401119C9B281F311881C0A57
:106B10001849002301EBC402136053604FF6FF7263
:106B200021F83420C0B280F31188AB7812A2102172
:106B3000002002F4EDF0204673F4D6D420466EF423
:106B40004BD1204673F4D8D3002069F499D311486F
:106B500002683AB1D36B2BB1A8789030C2B2002151
:106B60002046984769F4C2D3002070BD02E400E0DB
:106B70000CED00E02A278000523A313A64697363D1
:106B80006F6E6E20726561736F6E203D20307825C8
:106B9000780A0000982180002DE9FC5F0446EFF39D
:106BA00011877048017870480068C0F30220401CCB
:106BB0004FF0010B0BFA00F00844C0B280F31188CB
:106BC00069F494D38146694D0094DFF8A48195F867
:106BD000A50068A2102158F82030002002F498F097
:106BE0008DF8054095F8A53007200C210D220026D0
:106BF0004FF0090A0A2B74D2DFE803F0050C9C9CC5
:106C00009C19283C424D6AF4DDD685F8A5B085F87C
:106C1000A86095E0002C09D085F8A56085F8A660ED
:106C20008DF8041001A9002069F426D488E095F8B5
:106C3000A600A22804D06BF4B3D085F8A5A07FE00D
:106C40006CF480D7062085F8A50079E04CB16BF490
:106C5000A7D085F8A5A0042085F8A80085F8A9404C
:106C60006EE085F8A5008DF8041001A9002069F4F4
:106C700003D465E06DF4B8D0082085F8A5005FE086
:106C8000002C5DD085F8A5008DF8042001A9002016
:106C900069F4F2D354E0A4356E70FF20287028798F
:106CA000A43D042807D0062812D03F4C012819D053
:106CB000032824D044E085F8A8608DF8041095F8E6
:106CC000A9008DF8050001A9002069F4D5D337E0AB
:106CD00085F8A8608DF8042001A9002069F4CCD3C0
:106CE0002EE027E085F8A860002069F4C9D220686A
:106CF00010B1406C00B1804769F4F8D220E085F80B
:106D0000A860D5F8AC000078012819D0002069F4FB
:106D1000B7D2206858B1806B48B1244800886EF41F
:106D200081D52168C0B2214A8B6B0021984769F454
:106D3000DDD205E04FF46F721DA123A001F4E6F748
:106D400095F8A50021A2102158F82030002001F468
:106D5000DFF7484669F494D2F8B280F31188BDE8B1
:106D6000FC9F000002E400E00CED00E07C278000C6
:106D700028228000523A313A696E69745F66736DF9
:106D800020656E7465722C20696E69745F7374611E
:106D900074653A2025732C20737461747573203DDB
:106DA0002025640A00000000982180001827800038
:106DB000626C655F73646B5F6761706D5F70617457
:106DC00063682E630000000030000000523A313A40
:106DD000696E69745F66736D20657869742C2069CB
:106DE0006E69745F73746174653A202573000000E6
:106DF00070B58AB006460D461446FF222821684623
:106E0000FBF792F940F20A33ADF80030ADF80250CA
:106E10008DF8046020680290606803906846FEF771
:106E20000FF90AB070BD30B58BB005460C46FF2295
:106E3000282101A8FBF778F94FF6FF72ADF804207E
:106E4000ADF8065034B1012C09D0022C0CD0032C23
:106E500013D10EE04FF40070ADF804000DE040F2E5
:106E60000120ADF8040008E040F20220ADF8040073
:106E700003E040F20320ADF8040001A8FEF7E0F8BB
:106E80000BB030BD70B58AB006460D461446FF22E1
:106E900028216846FBF748F940F20933ADF8003085
:106EA000ADF802508DF8046020680290606803908D
:106EB0002089ADF810006846FEF7C2F80AB070BD30
:106EC00030B58BB005460C46FF22282101A8FBF700
:106ED0002BF940F20731ADF804100021ADF806108F
:106EE0008DF8085020680390606804900834059479
:106EF00001A8FEF7A5F80BB030BD70B58AB0054605
:106F00000C461646FF2228216846FBF70DF94FF480
:106F10004073ADF80030ADF802408DF80450308871
:106F2000ADF808006846FEF78BF80AB070BD30B5C2
:106F30008BB004460D46FF22282101A8FBF7F4F888
:106F40004FF6FF72ADF80420ADF8064045B140F2AF
:106F50000520ADF8040001A8FEF772F80BB030BDB3
:106F60004FF40170ADF80400F5E730B58BB005467D
:106F70000C46FF22282101A8FBF7D6F840F2112287
:106F8000ADF80420ADF8065020680390A088ADF855
:106F90001000A0798DF8120001A8FEF751F80BB08F
:106FA00030BD10B58AB00C46FF2228216846FBF799
:106FB000BBF840F20920ADF800000020ADF8020057
:106FC00020680290A088ADF80C00A0798DF80E0022
:106FD0006846FEF735F80AB010BD10B58AB0044611
:106FE000FF2228216846FBF79FF840F20B21ADF8FD
:106FF0000010ADF802406846FEF722F80AB010BD56
:1070000013B58AB00446FF2228216846FBF78CF8A6
:107010004FF40371ADF80010ADF802409DF82C005C
:107020008DF808006846FEF70BF80CB010BD30B5BF
:107030008BB005460C46FF22282101A8FBF774F807
:1070400040F20F22ADF80420ADF806408DF808504C
:1070500001A8FDF7F5FF0BB030BD70B58AB004464E
:107060000D461646FF2228216846FBF75DF840F2E0
:107070000E20ADF80000ADF802501022314602A8F3
:10708000FBF740F88DF804406846FDF7D9FF0AB0D9
:1070900070BD10B58AB00446FF2228216846FBF770
:1070A00043F84FF40471ADF800100021ADF8021060
:1070B0008DF804406846FDF7C3FF0AB010BD00001C
:1070C0002DE9F041044618460026002300256FF400
:1070D0008857E4191C4F06D0012C07D0022C0CD085
:1070E000032C0CD105E03B687D6808E0BB68FD68B7
:1070F00005E0BB69FD69087801E03B697D69002412
:107100001CE033F83470874217D103EBC4035C688A
:10711000B4B10E4B9C4204D1034602F019FD064661
:107120000EE00B4B9C4204D1034602F08DF906465B
:1071300006E00346A047064602E0641CAC42E0D3EA
:107140003046BDE8F081000070028000116F02003F
:107150009D3E02002DE9FC410E4629A003C8CDE961
:1071600000016A46314601200CF46ED20746012F19
:1071700043D1304601F4ECF5C4B2C4BB01F4EAF5E6
:10718000C5B2FF2D09D03078A02808D0A1280CD096
:10719000A22816D0A32819D10DE04B2427E03146B0
:1071A000284601F4D9F5044610E0314628460CF48F
:1071B00005D404460AE0314628460CF41FD10446A3
:1071C00004E03146284600F0D9FAC4B27CB97078A0
:1071D00068B90D4890F86E10C90708D000EB85011A
:1071E000C96850F8662FC1F816208088488324B1FA
:1071F000064A21460120126890473846BDE8FC81C6
:10720000A0A1A3A200000000000E8000EC038000FB
:1072100070B540240221C588584BEA0704D093F882
:107220006D100A2909D00A214279042A0CD354A2EC
:107230001021002001F46CF59EE043245C4A1021EB
:10724000002001F465F597E012B1032A00D00A216D
:1072500093F86C30994306D0422456A210210020A6
:1072600001F456F588E00379022B05D95DA21021BF
:10727000002001F44DF57FE0690706D52AB1664A82
:107280001021002001F444F576E053B125F01001FF
:10729000C1800D0730D5614A1021002001F438F576
:1072A0006AE045F01001C1808D0601D44D0605D578
:1072B0005B4A1021002001F42BF55DE0CD0711D0D1
:1072C0004D0707D48D070DD4564A1021002001F434
:1072D0001FF551E08D0705D5534A1021002001F418
:1072E00017F549E04D0730D5C9072ED14F4A102177
:1072F000002001F40DF53FE0012B02D0CD071ED197
:1073000019E0CD0707D08D0705D5494A1021002087
:1073100001F4FEF430E08D0617D5012A05D0022ACB
:1073200003D0CD0701D189070FD5414A1021002094
:1073300001F4EEF420E08D0701D4890605D53D4A1D
:107340001021002001F4E4F416E0022B13D2407A5D
:10735000032805D938A21021002001F4D9F40BE04C
:10736000012A01D0022A06D128B13F4A102100206B
:1073700001F4CEF400E00024204670BD000E800031
:10738000523A313A5B4552525F494E56414C49445C
:107390005F504152414D5D3A20436865636B206404
:1073A0006973636F76657279206D6F6465210A0079
:1073B000801C0101523A313A5B4552525F4E4F54A4
:1073C0005F535550504F525445445D3A20726F6C94
:1073D00065206E6F7420737570706F7274656421B0
:1073E0000A000000523A313A5B4552525F494E560C
:1073F000414C49445F504152414D5D3A20436865DC
:10740000636B206164766572746973696E6720745A
:10741000797065210A000000201D0101C81C0101CE
:10742000541B0101401E0101E01D01019C1E0101D0
:107430007C1D0101B41B0101523A313A5B455252A5
:107440005F494E56414C49445F504152414D5D3A6F
:1074500020436865636B2066696C74657220706F89
:107460006C696379210A0000141C0101074A9068C5
:1074700000280AD05188002907D01278002A04D0A9
:1074800001EB81014900FAF756BE70476444800061
:1074900000280CD059B1092909D9064A90600A2060
:1074A000B1FBF0F050800020908001207047002058
:1074B000704700006444800002490148086070473A
:1074C00011720001F4038000F0B5ADB004460D4622
:1074D00016461F462878032804D0012809D017280B
:1074E00012D008E002200AF46FD7F821FCF7E6FD7D
:1074F00001E003F013FB2DB03B46324629462046FF
:10750000BDE8F0406CF4969669F4B0D50446207856
:107510000A2825D300202B902C90687870B96946F2
:10752000E01D5EF4E3D19DF829008DF8B200DDF88E
:1075300023002B90BDF82700ADF8B000244E7068F2
:1075400048B1002068F49CD67368227868782BA92B
:10755000984768F4CBD669F48FD500202DB0F0BDE4
:1075600068781C4E20B330886EF45CD1C4B202A897
:107570000090184B69780A33727A1D46204673F4DE
:107580007FD4717A2A46204600F042FD002068F43C
:1075900077D61148016829B18B6B1BB10D4A0021C8
:1075A0002046984768F4A2D669F466D50020D5E74E
:1075B00002A9E01D5EF49AD19DF831007072DDF8E9
:1075C0002B00C6F80A00BDF82F00F0812478CEE722
:1075D0009444800018278000982180002DE9F04114
:1075E0000F461E460021002400256FF488528018A3
:1075F00004D0012806D003280CD107E01148046804
:10760000456807E010480468456803E00F480468CF
:1076100045683E78002210E034F83200B0420BD1C9
:1076200004EBC200406850B1FEF708FD024639463F
:1076300030469047014602E0521CAA42ECD308466D
:10764000BDE8F081E8048000E0048000D8048000F8
:107650002DE9F0410646384890F8791000EB81009A
:10766000C4680025002C04D1D72234A138A001F42D
:107670004DF3FF2E55D0607C90B10AF49DD64007A3
:1076800009D50AF499D640070AD5344850F826009F
:1076900090F85F0020B904F11601304601F45EF362
:1076A000A07B40F6B15798B3012815D0022839D1F4
:1076B000082040EA06210123072240F6056028F44D
:1076C0006FD50221017028F4B7D5E08BF8B10721FE
:1076D000384629F4DDD025E094F8540028B94FF459
:1076E000807216A11EA001F411F394F85400401EFC
:1076F000C0B284F8540028B104F11C0120460BF4F8
:1077000098D10FE00721384629F4C2D0012509E0BD
:10771000FFE7E08B18B10721384629F4B9D00125DD
:1077200000E0012525B10022012120460BF446D2BC
:107730002846BDE8F0810000000E80006761706D92
:107740005F696E69745F70617463682E6300000026
:10775000705F616374765F696E697400CC0D800040
:10776000705F616374765F696E69742D3E6E625FEF
:107770006175746F5F636F6E6E00000070B50446D4
:107780000E460025194890F86C100520884301D05A
:10779000432522E070780BF439D200B30AF40CD6FA
:1077A000400702D5707802281BD05821204601F4EA
:1077B000D7F20446BCB10220607370786074012077
:1077C0000AF476D7A0820A4820600A4860600A4816
:1077D000A0600021204601F4C5F2284670BD402576
:1077E000FBE74925F9E74B25F7E70000000E80008D
:1077F0000D780001957800011D2A01000249014819
:107800000860704751760001C80480002DE9F041FE
:107810000446884608F102051D4F97F87900FF28B5
:1078200006D197F86D0097F87D1008440A2801D317
:1078300043262AE028460BF421D0C6B22EBB287876
:10784000A073002084F85500382208F1020104F1E9
:107850001C00FAF757FC6A8822B1072140F6B150A4
:1078600029F4A6D0A07B012803D197F87E0084F8E4
:1078700054007937207B7870207B38703879401C31
:107880003871294620460BF4D4D03046BDE8F0814B
:10789000000E800010B50446E08B002804D00721BC
:1078A00040F6B15028F4F4D70449207B81F87A00DF
:1078B0002046BDE810400BF4B3900000000E80009D
:1078C0002DE9F047064688464FF0000900240022C3
:1078D000364F3878002802D026B1308B0DE00020DA
:1078E000BDE8F0870020FBE7B11802F00103897EB4
:1078F000994021448CB2521C92B29042F4D8002597
:107900000BE0B96805EB850001EB40000622B11CD5
:10791000FAF71CFC40B16D1CADB278888542F0D3FB
:10792000B9F1000F1DD038E0B8F1000F09D0B968E7
:1079300005EB850001EB40000189A1420ED1012039
:10794000CEE7B96805EB850001EB4000C188A14294
:1079500001D10120C4E7C4800020C1E704810020D8
:10796000BEE7B888D6F8022000EB8001B86800EBCB
:1079700041010A60F2888A80B8F1000F0FD0B988FF
:1079800001EB810100EB41000481B8887988401C3B
:10799000B0FBF1F201FB1200B8800020A0E7B9882B
:1079A00001EB810100EB4100C480EEE764448000FC
:1079B0000249014808607047C1790001D004800085
:1079C0002DE9F05F8246884615469B46B8F1000FC8
:1079D00002D0B8F81C0000E000200027E97D084430
:1079E0001FFA80F909F11A0083B2BAF814100722BD
:1079F00040F6A75028F4D4D30446B8F1000F10D1B4
:107A000015E0404601F4B0F10646E01932791A302B
:107A1000711DFAF777FB3079384487B2304628F485
:107A2000D3D0D8F80000C0B100200028E9D0E01978
:107A3000EA7D1A3005F11801FAF764FBA4F81890F2
:107A40003B4B2A4621461B685046984738B1204692
:107A50000C38BDE8F05F28F4E5930120E5E72888BD
:107A6000010706D5C00601D5032000E002206070A2
:107A700002E0C0F3001060702878C00703D060787F
:107A800040F0100060702878800703D5607840F0DF
:107A9000200060702878400703D5607840F04000EF
:107AA0006070BBF1000F03D0607840F00800607098
:107AB0009AF80C002070687B6074287B2074687AC8
:107AC000A074A87AE074E87A2075E889E082A87842
:107AD000FF2825D000F001002072D5F80300C4F87B
