:020000040100F9
:10200000000084005920000161200001894A8000FD
:10201000FF210001FD210001452200010000000018
:10202000000000000000000000000000314C8000B3
:102030006B200001000000006D20000171200001F4
:10204000DFF810D000F0F2FB00F094F800480047F1
:1020500071F50001000084000648804706480047EB
:10206000FEE7FEE7FEE7FEE7FEE7FEE7FEE7FEE748
:10207000FEE700006D2A000195F500012DE9F05FF3
:102080000546002092469B468846064681464024E7
:102090001BE0284641464746224600F0BBFA53461D
:1020A0005A46C01A914110D311461846224600F0F4
:1020B000A2FA2D1A67EB01084F46224601200021A3
:1020C00000F099FA17EB00094E41201EA4F101041B
:1020D000DFDC484631462A464346BDE8F09F000013
:1020E0000649074A0868504343F239021044086021
:1020F000400870470149086070470000744A80003A
:102100006D4EC64140EA01039B0703D009E008C9B0
:10211000121F08C0042AFAD203E011F8013B00F8AC
:10212000013B521EF9D27047D2B201E000F8012BF8
:10213000491EFBD270470022F6E710B513460A4647
:1021400004461946FFF7F0FF204610BD421C10F868
:10215000011B0029FBD1801A704730B504460020CE
:10216000034600E05B1C934203D2E05CCD5C401B65
:10217000F8D030BD70B5054C054D03E02068204413
:102180008047241DAC42F9D170BD00003C370101ED
:10219000403701010EB540F2334102910021CDE9F3
:1021A00000110A460B4600F066FA03B000BD0EB5FA
:1021B00040F2334202920022CDE90022134600F0A1
:1021C0005AFA03B000BD20F00040C20DC0F3160063
:1021D00040F400007F2A02DA002001467047002107
:1021E000962A03DCC2F19602D0407047963A00F07E
:1021F00002BA43F6C51CC3F2000C6047FEE7FEE7D7
:1022000058585247010000001555000000200001F9
:10221000002000016EED52490101000000000000A5
:1022200000000000000000000000000000000000AE
:10223000000000000000000000000000000000009E
:102240001BF44A97FEE7704770472DE9FE4F804622
:1022500081EA0300C00F0C46009021F0004123F0FA
:102260000045B8EB0200A94105D240462146904600
:102270001C460B46024623F00040104347D0270D72
:10228000C7F30A00C3F30A510290401A0190402894
:102290006BDAC3F3130040F4801B0098924620B120
:1022A0000023D2EB030A63EB0B0B01985946C0F1F4
:1022B0004002504600F09FF906460D4650465946EA
:1022C000019A00F0B7F910EB08006141002487EA99
:1022D000115284EAE7731A4340D0009A62B3019A1C
:1022E000012A4FEA075215DC001B61EB02014FF097
:1022F000004202EA0752CDE90042001C41F580117C
:1023000032462B4600F0B7F903B0BDE8F08F4046E7
:102310002146F9E7001B61EB0201001C41F5801327
:1023200000185B412018A2F5001747EB030140EAB3
:10233000D570B6196D4111E06D084FEA360645EAD1
:10234000C0754FEA0752001B61EB0201001C41F50A
:10235000801149084FEA30000019514132462B469E
:1023600003B0BDE8F04F00F077B9009801224000BB
:102370000023D0EB020263EBE073009821464FEAA2
:10238000E074B8EB000061EB0401E9E783F000437F
:102390005BE781F0004158E72DE9FE4F81EA030435
:1023A00004F0004421F0004100944FF0000B23F0B2
:1023B000004350EA01045ED052EA03045BD0C3F349
:1023C0000A54C1F30A552C44A4F2F3340194A0FB3F
:1023D0000254C1F3130141F48011C3F3130343F416
:1023E000801301FB024400FB034E840A970A44EA6F
:1023F000815447EA8357A4FB076802958D0A05FBC1
:1024000007854FEA932C04FB0C542705029D4FEAE5
:10241000065847EA1637B5EB08056EEB070C870E32
:10242000920E47EA811742EA8312A7FB0201B6EB3C
:102430000B0164EB00042B0D43EA0C335E1844EBF4
:102440001C50DA465146E7FB0201C5F313044FEA7C
:102450000B3343EA14534FEA0432019C43EA060368
:10246000A4F10C040294009CCDE900B400F003F93F
:1024700003B0BDE8F08F00200146F9E72DE9F04DEB
:1024800081EA030404F0004B21F0004514464FF0AC
:10249000000A23F0004150EA050220D054EA01026C
:1024A0001DD0C5F30A570246C5F31303C1F3130049
:1024B000C1F30A5640F4801543F48013A7EB0608D5
:1024C000101BD64608F2FD3873EB050002D308F165
:1024D000010801E092185B41B8F1000F03DA002017
:1024E0000146BDE8F08D00204FF480110646844679
:1024F0000EE0171B73EB050705D3121B63EB0503F7
:1025000006434CEA010C49084FEA300092185B413F
:1025100050EA0107EDD152EA030012D082EA04002A
:1025200083EA0501084305D0101BAB4106D2012206
:10253000002306E000224FF0004302E06FF00102AA
:1025400053101AEB06004CEB085110EB0A0041EB5C
:102550000B01BDE8F04D00F07FB870B5C1F30A5231
:1025600001F000450024C1F3130140F2FF3341F4B0
:1025700080119A4201DA002070BD40F233439A4242
:10258000A2F2334203DC524200F044F800E09040F3
:102590002C43F1D0404270BDC1F30A5210B5C1F3D3
:1025A000130140F2FF3341F480119A4201DA002016
:1025B00010BD40F233439A42A2F2334203DC52424E
:1025C00000F028F810BD904010BD30B50B46014614
:1025D00000202022012409E021FA02F59D4205D3C2
:1025E00003FA02F5491B04FA02F52844151EA2F16C
:1025F0000102F1DC30BD202A04DB203A00FA02F1AE
:10260000002070479140C2F1200320FA03F31943E0
:1026100090407047202A04DB203A21FA02F0002182
:10262000704721FA02F3D040C2F1200291400843E2
:1026300019467047202A06DBCB17203A41FA02F0F0
:1026400043EAE07306E041FA02F3D040C2F120020F
:10265000914008431946704710B5141E73F10004E9
:1026600008DA401C41F1000192185B411A4301D184
:1026700020F0010010BD2DE9F04D92469B4611B1AE
:10268000B1FA81F202E0B0FA80F220329046FFF710
:10269000B2FF04460F4640EA0A0041EA0B015346E6
:1026A0005A46084313D0114653EA010019D0C8F125
:1026B00040025046FFF7AEFF05460E4650465946CB
:1026C0004246FFF798FF084305D0012004E020466A
:1026D0003946BDE8F08D0020054346EAE0762C43FC
:1026E00037430A986305E40AA0EB08000022FD0ABC
:1026F00044EA47540A3002D500200146E9E70105C3
:1027000010196941DDE9084500196941BDE8F04D3E
:10271000A2E700002DE9F041054621F000400C46FB
:10272000284309D0C4F30A5040F23341884205DD02
:1027300028462146BDE8F0812846FBE740F2FE31FD
:10274000884210DC0CDB4FEA043040EA155050EAB6
:10275000053105D0104804F0004101430020E9E7AD
:1027600000200146E6E7A0F233404642C6F14002AF
:1027700028462146FFF73FFF074688462846214660
:102780003246FFF747FF43463A46FFF765FF3246BA
:10279000BDE8F041FFF72FBF0000F03FC1F30A5240
:1027A000C1F3130140F2FF3341F480119A4202DA7F
:1027B00000200146704740F233439A42A2F233426E
:1027C00002DC5242FFF726BFFFF715BF30B5041EEB
:1027D00071F1000404DB4FF00044404264EB01015E
:1027E000141E73F1000405DB1C464FF000435242F7
:1027F00063EB04038B4208BF824230BD30B5041E38
:1028000071F1000404DB4FF00044404264EB01012D
:10281000141E73F1000405DB1C464FF000435242C6
:1028200063EB0403994208BF904230BD064C074D4C
:1028300006E0E06840F0010394E807009847103490
:10284000AC42F6D3FFF700FCEC3601013C37010146
:1028500070B58C1810F8015B15F0070301D110F862
:10286000013B2A1106D110F8012B03E010F8016B8F
:1028700001F8016B5B1EF9D12B0705D40023521E12
:102880000DD401F8013BFAE710F8013BCB1A921C7A
:1028900003E013F8015B01F8015B521EF9D5A14278
:1028A000D8D3002070BD000010B51E480068002875
:1028B00000D080471C4900200870811E1B48016021
:1028C0001B494FF0007008601A4CD4F8C002800712
:1028D00004D4F42218A11DA006F416F32A480168B6
:1028E000D4F8C40261F31D3040F00100C4F8C40202
:1028F00005F46CF100214FF03040C1608161C117D7
:102900004161016205F41EF108484038016821F474
:10291000800101601D480068002802D0BDE8104019
:10292000004710BD602480007849800044C500A0A5
:1029300080E200E000E000A0727769705F736C6570
:1029400065705F636F6D6D6F6E2E63004D43555FF5
:102950005355422D3E424C455F44534C4545505FD4
:10296000434F52525F454E2026204D43555F5355ED
:10297000425F424C455F44534C4545505F434F5284
:10298000525F48575F454E00542480006424800005
:1029900000214FF03040C1608161C1174161016287
:1029A0000649022004220A60BFF34F8FBFF36F8FE6
:1029B0000860BFF34F8FBFF36F8F704780E100E077
:1029C00004490220C1F800010860BFF34F8FBFF334
:1029D0006F8F704780E100E00249096801F007014C
:1029E0000170704704C500A0062826D213490A6862
:1029F00002F00702824219D00A6822F0070222F48C
:102A0000E01242F0050242F400220A6000BF00BF5B
:102A100000BF00BF0A6822F0070222F4E012084B50
:102A2000024333F8203042EA83420A60054951F8F4
:102A300020000549086076F4DD92704704C500A0C7
:102A400008250101F02401010041800004480068CC
:102A5000044900F0070051F820000349086070475E
:102A600004C500A0F0240101004180000248016873
:102A700041F470010160704788ED00E00248006891
:102A8000001D1EF4E9950000CC4380000248406818
:102A9000001D1EF4E1950000CC4380000FB4054BEF
:102AA00010B503A9044A029800F08AF910BC5DF839
:102AB00014FB000049800001F84380000FB41CB5EE
:102AC0000246002007AC00290BD0491ECDE90021A9
:102AD000054B6A462146069800F072F9009A0021DB
:102AE00011701CBC5DF814FBEF3400010FB4084BEF
:102AF00010B504A902AA039800F062F9044602A9DD
:102B0000002000F0FFFC204610BC5DF814FB000024
:102B1000053500017CB5044600201D4616460029F7
:102B20000BD0491ECDE90041044B6A462946304688
:102B300000F046F9009A002111707CBDEF340001CD
:102B400010B52DED020B2DED088B84B09DED0C0B17
:102B500051EC100BFFF7DEFD41EC180B9DED0C0B5B
:102B600053EC182B51EC100BFFF710FC41EC190B38
:102B70000D989FED290B10F0004F53EC102B51ECEA
:102B8000190B9FED21AB9FED22BB0ED0FFF71EFE70
:102B90000ED953EC1B2B51EC190BFFF72FFE1CD257
:102BA00014E000BF41EC180B17E0FFF70FFE06D250
:102BB00053EC1A2B51EC180BFFF7E8FBF2E753EC40
:102BC0001B2B51EC190BFFF719FE06D853EC1A2BEF
:102BD00051EC180BFFF739FBE4E78DED028B9DED0F
:102BE0000C0B18EE901A10EE900A8DED000B61F3AD
:102BF0001E0003909DED020B04B0BDEC088B02B0EB
:102C000010BD000000000000000000000000F03FC8
:102C1000000000000000E03F000000000000E0BFF6
:102C200002E008C8121F08C1002AFAD1704700202C
:102C300001E001C1121F002AFBD170472DE9FF5F9F
:102C400082B00021DDE90430020DDDF840B003431D
:102C500018D044F61050A2F2FF32424315141198D6
:102C600001281FD0A5EB0B00401C5FEA000A4FF0C3
:102C700000064E4FDFF83891B046504615D5CAF1E0
:102C8000000413E0119801244AA3012801D16FEA3E
:102C90000B010298119AC0E90031C0E9024206B066
:102CA000BDE8F09FCBF10000DFE704460021404A79
:102CB000491842EB0450CDE9001012E0E00707D0BC
:102CC00032463B4640464946FFF766FB804689460A
:102CD00032463B4610461946FFF75EFB06460F4656
:102CE0006410002CEAD1DDE90401DDE90023BAF12A
:102CF000000F06DAFFF750FB42464B46FFF74CFB4E
:102D000005E0FFF7BBFB42464B46FFF7B7FB044627
:102D10000E460022284BFFF771FD03D84FF0FF301D
:102D2000014607E00022254B20463146FFF78DFA89
:102D3000FFF734FD102409E0002C0ADB0A220023EF
:102D4000FFF79CF9039B30321A55641E50EA0102CA
:102D5000F2D1641C039AC4F111031444119A012A9C
:102D600003D0012208430DD10AE0084304D000201B
:102D70004FF0110B119072E7A3EB0B056D1E0DE0E8
:102D80005B4504DD4FF0000205F1010504E003DAC4
:102D90004FF00002A5F10105002AECD0029811992C
:102DA000C0E90231C0E9004579E7000000001440A5
:102DB0000000F03F300000000000F0430000E03F62
:102DC0002DE9FF4F95B09B468946064600250FE248
:102DD000252877D100242746F84A0121059400E0F0
:102DE000044316F8013F203B01FA03F01042F7D1EB
:102DF00030782A2811D06FF02F033078A0F13002FC
:102E0000092A16D8059A44F0020402EB820203EB69
:102E100042021044761C0590EFE759F8042B059206
:102E2000002A03DA504244F40054059044F00204AE
:102E3000761C30782E2816D116F8010F44F00404C1
:102E40002A280DD06FF02F023078A0F13003092B23
:102E500009D807EB870302EB4303C718761CF3E797
:102E600059F8047B761C30786C280FD006DC4C288F
:102E700017D068280DD06A2814D104E0742810D027
:102E80007A280FD10DE044F400140AE044F48014D1
:102E900001E044F440147278824202D104F58014B7
:102EA000761C761C307866280BD013DC582877D037
:102EB00009DC002875D04528F6D04628F4D04728EC
:102EC0001AD19DE118E0632835D0642879D06528AF
:102ED00012D195E1702873D008DC6728F1D06928F9
:102EE0006FD06E280DD06F2806D1B5E073282CD096
:102EF000752875D0782874D05A46179990476D1C5C
:102F000075E1C4F30250022809D003280DD0D9F886
:102F1000001004280DD00D6009F1040967E1D9F80B
:102F20000010EA17C1E90052F6E7D9F800100D8049
:102F3000F2E70D70F0E719F8041B8DF8001000207F
:102F40008DF80100EA46012003E059F804AB4FF088
:102F5000FF3061074FF0000102D40DE008F10101DC
:102F60008846B9420FDA8045F8DB1AF808100029C4
:102F7000F4D108E008F1010188468142FADB1AF831
:102F800008100029F6D105985B46A0EB08072146FA
:102F90003846179A00F094FA284400EB080507E039
:102FA0004DE029E10DE01AF8010B5A4617999047B8
:102FB000B8F10108F7D25B4621463846179A13E16B
:102FC00042E00A220092C4F302524FF0000A022AA1
:102FD00008D059F804CB032A4FEAEC710AD00DE06F
:102FE00029E02AE009F1070121F00702F2E802C115
:102FF000914609E00FFA8CFC4FEAEC71042A03D1E8
:103000004FFA8CFC4FEAEC71002907DA0A460021DE
:10301000DCF1000C61EB02012D2202E0220504D557
:103020002B228DF80420012203E0E20701D02022A8
:10303000F7E7904659E00A2102E010220DE0102146
:103040004FF0000A00910BE010224FF0000A44F00C
:1030500004040827009203E008224FF0000A0092BF
:10306000C4F30252022A05D059F804CB0021032AE6
:1030700008D009E009F1070121F00702F2E802C1D6
:10308000914605E01FFA8CFC042A01D10CF0FF0CDC
:103090004FF00008220728D5702806D0009B83F047
:1030A000100353EA0A0305D00EE040228DF80420F5
:1030B000012208E05CEA010206D030228DF80420EB
:1030C0008DF8050002229046009B83F0080353EA26
:1030D0000A030AD15CEA010201D1620705D5302258
:1030E0008DF804204FF001087F1E582804D034A02A
:1030F00003900EA802900DE036A0F9E75346604613
:10310000009AFEF7BBFF84460398825C0298401E3B
:10311000029002705CEA0100F0D1029806A9081A38
:1031200000F1200A600702D524F4803400E0012772
:10313000574502DDA7EB0A0000E0002000EB0A0182
:10314000009005984144401A0590E00306D45B4680
:103150002146179A059800F0B3F90544002706E0C8
:1031600001A85A46C05D179990476D1C7F1C4745C2
:10317000F6DBE0030CD55B462146179A059800F074
:103180009FF9054404E030205A46179990476D1C7A
:103190000099481E00900029F5DC08E00298029989
:1031A0005A460078491C0291179990476D1CBAF154
:1031B0000001AAF1010AF1DC65E100000928010023
:1031C000303132333435363738396162636465669D
:1031D000000000003031323334353637383941425F
:1031E000434445460000000000F058F90544761CB1
:1031F000307800287FF4ECAD19B02846BDE8F08F98
:10320000620700D4062709F1070222F0070CFCE848
:103210000223E14603F000485FEA080C02D00FF2F7
:10322000702C0DE05FEA045C02D50FF2682C07E019
:103230005FEAC47C02D00FF2602C01E0AFF2700CA8
:103240004FF0FF3823F00043CDF850C065280CD074
:1032500006DC452809D046281DD047283DD13DE051
:10326000662818D067287ED138E00021112F01DBB5
:10327000112000E0781CCDE9000106A90EA8FFF797
:10328000DDFCDDE90F010E9A03910021009207F1A8
:10329000010A04914DE04FF000400097CDE9011084
:1032A00006A90EA8FFF7CAFCDDE90F0203920E9BE8
:1032B00011990022DDF80CA00093049211B9791C39
:1032C00000EB010AB7EB0A0004D4C0F1FF3007F1AC
:1032D000010A0490AAEB0700019044E0012F00DAF4
:1032E00001270021112F01DD112000E03846CDE932
:1032F000000106A90EA8FFF7A1FCDDE90F010E9A57
:103300000391002104910092BA4621070CD403993D
:10331000514500DA8A46BAF1010F05DD009AAAF19B
:103320000101515C302908D0B84202DA10F1040FD3
:1033300006DA0121CDE9011015E0AAF10101E9E762
:10334000002805DC049901440491AAEB000102E085
:10335000411C514500DD8A460499401A401C0190E9
:103360004FF000400290200704D40198504501DB43
:10337000CDF8048000208DF84F0002980DF14F0722
:10338000B0F1004F25D02B200E9002984FF002088C
:1033900000280CDA404202902D200E9007E00A210E
:1033A0000298FFF712F93031029007F8011DB8F1C9
:1033B0000001A8F10108F2DC02980028EFD1791E83
:1033C0000E980870307800F0200040F0450007F8B3
:1033D000020D12A8C01B00F107081498007800B174
:1033E000012000EB0A01019801EBE07105984144CE
:1033F000401A401E0590E00306D45B462146179A0A
:10340000059800F05DF805441498007818B15A4604
:10341000179990476D1CE00324D55B462146179A07
:10342000059800F04DF805441CE00498002807DBDF
:10343000DDE90301884203DD0098405C179901E053
:10344000179930205A469047049805F10105401C11
:1034500004900198401E019004D12E205A461799DD
:1034600090476D1CBAF10001AAF1010ADDDC05E00C
:1034700017F8010B5A46179990476D1CB8F10001D7
:10348000A8F10108F4DC5B462146179A0598ABE6E3
:103490002D0000002B000000200000002DE9F0416D
:1034A000044600251E461746880404D405E0394624
:1034B0002020B0476D1C641EF9D52846BDE8F08178
:1034C0002DE9F041044600251E469046C80301D56B
:1034D000302700E02027880404D505E0414638461F
:1034E000B0476D1C641EF9D52846BDE8F0814A68D6
:1034F000002A06D00A68531C0B6010704868401EF2
:10350000486070470A68531C0B60107070470000D9
:103510002DE9F05F0746894693464FEA5B04A246D1
:103520004D465F4EDFF87C81EFF31080012181F37F
:103530001088D8F8A41221F02001C8F8A41280F352
:103540001088EFF31080012181F31088D8F8A012C1
:1035500021F02001C8F8A01280F31088306820F014
:1035600080403060504830603F20D8F8001160F350
:103570000501C8F80011306820F4601040EAC74027
:103580003060306820F4E02040EA07403060052FCA
:1035900003D1306840F400403060062F03D130681A
:1035A00040F480403060306840F400503060306853
:1035B00020F060503060306820F00F0040F00300D1
:1035C0003060EFF31080012181F31088344A3832E3
:1035D000116821F0E04141F08041116080F31088D2
:1035E000306840F08040306001E0D8F80000D8F842
:1035F0000401C0F300200028F7D1EFF3108001216F
:1036000081F31088116841F00041116080F3108847
:1036100034E000204FF47A711AE0884217D93068FC
:1036200020F080403060306840F00040306030680A
:1036300020F00040306009F063F91C480168491C23
:10364000016054464D46052078F4D9D26CE7401C01
:10365000D8F80421C2F30022002ADED0D8F80401F1
:1036600000F07F01A14200D92146002003E0D8F8F4
:10367000002004C5401C8842F9D3641A002CC8D12C
:103680005FEACB7008D0D8F80401C0F3002000280E
:10369000F9D0D8F800002880BDE8F05F09F030B913
:1036A00008C500A000E000A00A070807644A8000DF
:1036B0002DE9F04107460E464FF000080024274D43
:1036C0000BE004EBC40005EB8000801C07223946A8
:1036D000FEF743FD40B1641CE4B22878A042F0D864
:1036E000B8F1000F18D102E04FF00108F8E7287890
:1036F0000A21B0FBF1F201FB12040A2801D2401C9E
:10370000287004EBC40105EB81003968C0F8021091
:10371000B988C180B97901722B7811A210210020DB
:1037200005F4F4F3307800070BD504EBC40005EB87
:10373000800006F14601BDE8F0410A301C22FEF788
:10374000E1BC04EBC40005EB800006F12A01BDE8F2
:10375000F0410A301C22FEF7D5BC0000A0E2800038
:10376000523A313A616464206C746B206974656DFF
:103770002C206E756D203D2025640A00002821D084
:103780000188A1F5407101390DD0FF290ED0B1F5A6
:10379000807F11D0A1F58071033913D1428A018A4B
:1037A000007900F011B8007900F04CB8027900F10E
:1037B0000801104600F032B9027900F10801104604
:1037C00000F08ABA70470000F8B505460F46144667
:1037D00020460CF038FB00282CD0184E184B0D2238
:1037E000318938460CF00FFB00228DF801208DF84E
:1037F00000500146304600EB4500052902D00A2959
:103800000FD108E0012C04D002218DF80110448171
:1038100007E00121F9E7012C0DD004218DF80110FA
:10382000C4839DF80100002804D03168002901D02C
:1038300068468847F8BD0321F0E70000289D800016
:103840009A45800002480021418681867047000029
:10385000289D8000F8B500228DF801208DF8000029
:10386000324B0D780124588EB3F804C09A8E062D81
:103870004ED2DFE805F0030F1B2735434978FF29B7
:1038800004D004FA01F10843588641E040EA0C00F4
:1038900058863DE04878FF2804D004FA00F0104331
:1038A000988635E042EA0C00988631E04978FF2995
:1038B00004D004FA01F18843588629E020EA0C007C
:1038C000588625E04878FF2805D004FA00F022EA5F
:1038D000000098861CE0D88822EA0000988617E04D
:1038E0004978FF2907D004FA01F0ADF8020005205D
:1038F0008DF801000CE0ADF80200F8E74878FF28E9
:1039000010D004FA00F0ADF8020006208DF8010096
:103910009DF80100002804D01968002901D06846EC
:103920008847F8BDADF80220EFE70000289D800031
:103930000178052901D9002070474078092803D96A
:10394000FF2801D0002070470849FF2807D0C98808
:10395000012202FA00F0014203D10020704788885A
:1039600008B101207047002070470000289D8000AA
:1039700010B504462078087060784870227D002ACF
:1039800003D0881CA11CFEF7BDFB207D801C10BD50
:1039900070B588B005460C4603A92046FFF7E8FF3E
:1039A0000646207D122802D908B0012070BD20787B
:1039B000092802D908B0012070BD1649012202FA77
:1039C00000F08B88034202D108B0012070BD01EBEA
:1039D00045025289012A02D008B01A2070BD4A8ED1
:1039E000024202D108B01A2070BD00208DF80000FC
:1039F0000989094A04200CF0E5F9ADF80200ADF898
:103A0000046003A802906946284603F09EF908B0B6
:103A100070BD0000289D80009A45800030B583B0BD
:103A200005460C781C481D4B0D22018920460CF0E0
:103A3000EAF9ADF8004000238DF804300222022894
:103A400013D01549052801EB450113D0072817D0DD
:103A50000A281AD0ADF8023001208DF8040069461A
:103A6000284603F0A5F903B030BDADF802200C489C
:103A70000290F4E7ADF8022001F10A000290EEE7AF
:103A8000ADF8022007480290E9E7ADF8022001F105
:103A90001E000290E3E70000289D80009A45800008
:103AA0002C9D80002E9D800000B583B041780729B1
:103AB0000FD2DFE801F00E04101C28353C001FA0D7
:103AC000F52100910190264B26A22CA1032001F0A4
:103AD000A9F803B000BD2BA0F92100910190204B63
:103AE00020A226A1032001F09DF803B000BD2EA066
:103AF000FD21009101901A4B1AA220A1032001F090
:103B000091F803B000BD34A040F201110091019082
:103B1000134B14A219A1032001F084F803B000BDD7
:103B20004188007803B05DF804EB0BF049BD418893
:103B3000007803B05DF804EB0EF066BA4E657720AE
:103B4000416C657274204E6F746966696361746953
:103B50006F6E20697320656E61626C65642E000073
:103B6000C02601012E2E5C5372635C757365725C16
:103B7000757365725F6170702E6300004E4F5F5405
:103B8000414700004E657720416C657274204E6F8E
:103B900074696669636174696F6E20697320646912
:103BA0007361626C65642E00556E726561642041BC
:103BB0006C65727420537461747573204E6F7469F0
:103BC0006669636174696F6E20697320656E6162F6
:103BD0006C65642E00000000556E726561642041C2
:103BE0006C65727420537461747573204E6F7469C0
:103BF0006669636174696F6E2069732064697361BB
:103C0000626C65642E00000000281BD00E4A4168DB
:103C10000068516010600020108102F1080191637A
:103C20000A49D163891C11640D2182F8441082F87D
:103C3000620082F8630006489064064902F1380089
:103C400003F092B802207047289D800098458000BC
:103C5000DC2501017D37000110B584B004460878E9
:103C60008DF80C0048788DF80D000978092902D9E3
:103C700004B0012010BD164A012000FA01F1D388DA
:103C80000B4201D104B010BD02EB4400C08B0128EF
:103C900002D004B01A2010BD908E084202D104B0A8
:103CA0001A2010BD00208DF800001189094A092052
:103CB0000CF088F8ADF802000220ADF8040003A86B
:103CC00002906946204603F040F804B010BD0000A1
:103CD000289D80009A4580002DE9F04184B0074678
:103CE0000C4626880025DFF8C480314B0D22B8F839
:103CF000081030460CF087F8ADF8046000218DF80C
:103D000006108DF809108DF80870414601EB470642
:103D1000052820D00A282BD00C2836D001208DF879
:103D2000060001A9384603F052F81DB103A9384630
:103D3000FFF790FD9DF80600012809D09DF80900C5
:103D4000002805D0D8F80010002901D002A8884723
:103D500004B0BDE8F081A06808F0C8FD0146012963
:103D600004D002208DF809007181DAE70120F9E71B
:103D7000A06808F0BBFD0146012904D004208DF89D
:103D80000900F183CDE70320F9E7A06801788DF8F9
:103D90000C1040788DF80D0003A8FFF7C9FD08B19D
:103DA0000125BEE7A0208DF80600BAE7289D800017
:103DB0009A4580000449896B084004490A781043F9
:103DC00000220A7070470000002001A01846800001
:103DD000104A114900280EDC0868C0F34120012870
:103DE00008D0506C401C5064086820F4C06040F457
:103DF0000070086070470A28FCDB086810F4C06F88
:103E0000F8D0106C401C1064086820F4C060086092
:103E100070470000A44780000CC500A010B586B014
:103E200014460EF045F9002820D0114821680160A1
:103E3000A1888180A179817164F4F6D3002815D01E
:103E40000C49D1F888C0D1F88C40D1F88430D1F831
:103E50008020D1F89010CDF80CC004940293019208
:103E60000591ADF8080001A800F032F906B010BDC8
:103E7000D44580007026010104460E46154672B6F0
:103E80003046FEF763F9402801D9402002E0304671
:103E9000FEF75CF907462046FEF758F9402801D99D
:103EA000402002E02046FEF751F980469C21104850
:103EB000FEF741F93A4631460D48FEF723F921460F
:103EC0000B4C424604F15C00FEF71CF94FF0AA309F
:103ED000206465644FF0BB30A0644FF0CC302065A7
:103EE0004FF0DD30A065002000F004F8FEE7000090
:103EF0008C9C800030B5ADF2144D04464FF48061C7
:103F000004A8FEF718F9184D202085F83F0085F821
:103F10009B003CB12846012C436DC26C09D0022C99
:103F20000CD00FE005F15C0210A104A8FEF7DEFD45
:103F300008E011A104A8FEF7D9FD03E016A104A82A
:103F4000FEF7D4FD686C04A90AA2019202910090C8
:103F500018A3054A18A1002000F064FE00F02EFE10
:103F60000DF2144D30BD00008C9C80005B45525218
:103F70004F525D20257300005B5741524E494E471A
:103F80005D20506172616D303A25642C5061726120
:103F90006D313A25640000005B504152414D5D2077
:103FA000506172616D303A25642C506172616D31DF
:103FB0003A256400000000006170705F61737365F2
:103FC00072742E6300000000014877F455940000DD
:103FD0006C45800005460E4690461C4672B640462B
:103FE000FEF7B4F8402801D9402002E04046FEF731
:103FF000ADF807469C210D48FEF79DF83A4641462C
:104000000A48FEF77FF809484FF0553101644464CF
:104010004FF066318164C5644FF0773101654665C4
:10402000C94381650220FFF765FFFEE78C9C800095
:104030002DE9F04105460E4690461C464046FEF7E7
:1040400085F8402801D9402002E04046FEF77EF87E
:1040500007469C210D48FEF76EF83A4641460B484C
:10406000FEF750F809484FF01131016444644900EB
:104070008164C5644FF03331016546654FF04431CA
:104080008165BDE8F0410120FFF734BF8C9C8000C2
:1040900010B586B064F482D2002815D00B49D1F84F
:1040A000B0C0D1F8B440D1F8AC30D1F8A820D1F8E4
:1040B000B810CDF80CC00494029301920591ADF8AC
:1040C000080001A800F004F806B010BD7026010138
:1040D00010B584B004464FF400711B48FEF72BF86E
:1040E000207810B1012819D01DE000211748A288BE
:1040F00030F831309A4207D100EBC10014A1436877
:104100001148FEF7F3FC0EE02E2902D0491CC9B27B
:10411000EEE715A10C48FEF7E9FC04E01DA10A48F2
:104120006268FEF7E3FC2069074921A20291009032
:10413000019220A10020E368A26800F073FD04B0A2
:10414000BDE8104000F03ABD8C9A8000FC4380002E
:104150004572726F7220636F646520307825303449
:10416000583A2025730000004572726F7220636F09
:104170006465203078253034583A204E6F20666FC1
:10418000756E6420696E666F726D6174696F6E2EF4
:104190000000000028257329206973206E6F7420A9
:1041A00065737461626C69736865642E0000000059
:1041B000257300006170705F6572726F722E63000C
:1041C00010B5002816D0EFF31084012181F3108878
:1041D0000838416811F0004F0AD0026842B921F056
:1041E00000414160044A13681944116003F034FF30
:1041F00084F3108810BD00008045800070B5014632
:1042000000291ED000240F4D95F800C0BCF1000F0E
:1042100017D90A780C4B03EB0410067896420CD1A0
:104220004E684068064208D0687808B900F098FCEB
:104230002046BDE8704000F00DBB601CC4B2644570
:10424000E9D370BDD4438000E4978000F0B583B01B
:1042500005460E46002D1ED00024002E18D9072733
:1042600005EB041041680091017A8DF80410417A41
:104270008DF805108DF80670C26800780023694635
:1042800000F04CF8002804D1601CC4B2B442E7D35B
:10429000002003B0F0BD03B00520F0BD10B50C4602
:1042A000062833D2DFE800F0030303101E27184965
:1042B00051F830002104090C04D018B1214606F051
:1042C0009BFC1FE0042010BD2004000C03D0A1B211
:1042D000104806F091FC200C14D0210C0E4806F07A
:1042E0008BFC0FE014F0FF0F03D0204606F08AFA93
:1042F00008E0042010BD14F0FF0F05D02146002077
:1043000006F0F2FC002010BD042010BD062010BDF8
:1043100034250101000001A0001001A02DE9F84F93
:1043200006460C469046994627680025052E23D060
:1043300039463046FFF7B2FF2146304600F0B8F864
:1043400000281AD1042E1AD0032E3ED04FF0100AA6
:104350003007050E0024BAF1000F7BD9504800EB5E
:10436000C600009017F0010F4FD0052E73D2DFE882
:1043700006F02F2F2F5073000620BDE8F88F4FF066
:10438000080A2079042806D0052809D006280DD06F
:10439000072815D110E00021384600F4CAF40FE0D8
:1043A00040F20111384600F4C4F409E04FF0011165
:1043B000384600F4BEF403E03A49384600F4B9F454
:1043C0004FF0007074F494D6C4E74FF0200AC1E7B0
:1043D000009890F904B0BBF1000F17D0EFF31081F3
:1043E000012080F31088601900EB40022E4800EB9A
:1043F0008200C0F80480C0F8089081F31088584605
:1044000017F40AD7584617F425D73CE00420BDE836
:10441000F88FEFF31082012080F310886019224B8F
:1044200000EB400003EB8001C1F80480C1F8089064
:10443000032103F8201082F31088062017F4ECD62D
:10444000062017F407D7072017F4E6D6072017F43D
:1044500001D718E01DE01FE0EFF31081012080F389
:104460001088601900EB4002104800EB8200C0F891
:104470000480C0F8089081F31088122017F4CCD67D
:10448000122017F4E7D67F08601CC4B25445FFF42D
:1044900069AF0020BDE8F88F0620BDE8F88F000066
:1044A0003425010101010100A095800020978000C2
:1044B00030B58FB005460C465D49D1E91B3C8A6E8C
:1044C000486ECDE90C3C0B920A90D1E91F3C8A6FF3
:1044D000486FCDE9083C07920690D1E9233CD1F81A
:1044E0008820D1F88400D1F89410CDE9033C0292E1
:1044F00005910190002C15D04E4906200DF004F8CE
:104500004D4907200DF000F84C4912200CF0FCFF3B
:104510004B49062DA1F12C027ED2DFE805F00606FC
:104520000621415A0FB0052030BD207931F8100026
:104530000B90607932F810000C90A0790D902068F3
:104540000A90404850F8350021880904090C04D02D
:1045500018B10AA906F0A4FB5CE00FB0042030BD3E
:10456000207931F810000B90607932F810000C902F
:10457000A0790D9020680A9020680104090C05D0EC
:1045800080B20A900AA9304806F08AFB2068010C24
:1045900040D0000C0A900AA92C4806F081FB39E0B3
:1045A000207901EB4000408A0790607902EB4000DF
:1045B000C0880890A079099020680690207810F0B3
:1045C000FF0F03D006A806F05FF923E00FB0042028
:1045D00030BD2079031F032B02D80FB0072030BD58
:1045E00002281CD001200290207901EB4000808C31
:1045F0000390607902EB400080890490A0790590D7
:1046000020680190207810F0FF0F0BD001A9002046
:1046100006F0B2FB002000E007E00FB030BD022042
:104620000290E1E70FB0042030BD0FB0062030BD8E
:1046300020250101634C80005D4C8000594C8000B6
:104640004C25010134250101000001A0001001A04A
:1046500010B50C460021062826D2DFE800F003033F
:10466000030B1B20114951F83000A1B215F42FD2D1
:10467000014619E02004000C04D0A1B20C4815F446
:1046800026D20146200C0FD0210C0A4815F41FD267
:10469000014609E0A0B213F4EDD1014604E0A1B255
:1046A000002006F06CFB0146084610BD34250101D0
:1046B000000001A0001001A0002803D002490860FA
:1046C0000120704700207047DC43800070B505462C
:1046D0000024091F062917D2DFE801F003070C1197
:1046E0001315284600F0A6F80EE00124284600F035
:1046F000A1F809E00224284600F09CF804E0032415
:1047000002E0042400E00524034A214628461268FA
:10471000BDE8704010470000DC43800070B50446DF
:10472000204600F0B1F801462F4A00230825105D0D
:1047300002F10A0602F1140CB8B1052836D0082897
:104740002ED1092948D008292AD11CF80400401C80
:10475000C0B20CF80400142822D30CF8043015550C
:104760002046BDE87040FFF7B1BF052915D00429E8
:1047700017D0072915D0082912D11CF80400401CB5
:10478000C0B20CF8040014280AD30CF804301555F4
:104790002046BDE87040FFF799BF335505201055FE
:1047A00070BD2046BDE87040FFF790BF05290CD0D2
:1047B000305D401CC0B230553228F1D3135520462D
:1047C000BDE870400521FFF781BF13552046BDE8C5
:1047D00070400621FFF77ABF13552046BDE87040B0
:1047E0000921FFF773BF0000C498800070B504462C
:1047F0000D4600F00FF808B100F0C8F90348044A6C
:104800002946005D5268BDE870401047D897800087
:10481000D44380000020064911F810200AB100207E
:104820007047401CC0B20A28F6D301207047000030
:10483000E29880000349002201F8102001EB4000BB
:1048400042707047E2988000014A02F810107047E9
:10485000E2988000024A012102EB4000417070475B
:10486000E298800070B50024064D05EB44004078C6
:1048700010B12046FFF752FF601CC4B20A2CF4D3DB
:1048800070BD0000E298800070B500211D4B03F15F
:10489000320C1A5C002A09D0002403F10A05012A0F
:1048A0000AD0022A12D0032A24D11FE01CF81020BB
:1048B00002B301221A541DE01CF810201AB12C5426
:1048C00002221A5416E01C54042113E01CF8102094
:1048D0004AB12A5C521CD2B22A54642A0AD3072154
:1048E00003221A5406E005211C5403E01CF81010A2
:1048F00011B10821084670BD1C54FFF79BFF092128
:10490000F8E70000B0988000F0B589B004283AD1EB
:104910000426364F364D374C012936D0022932D184
:1049200035A1632001910090384B39A241A10320A9
:1049300000F078F93879401C38712979491C2971BF
:10494000032184F85E103DA21288A4F84C206D2249
:1049500084F84E208DF80C608DF80D008DF8201035
:1049600036A00088ADF80E008DF8102003A90020B5
:10497000FFF70EF88DF8086028798DF8090002A974
:104980000020FFF769F909B0F0BD2DA0502100917A
:1049900001901E4B1EA227A1032000F043F9787856
:1049A000401C78706978491C697084F8256029A1D9
:1049B0000968C4F8131001248DF80C408DF80D001F
:1049C0008DF8206023A00068CDF80E0003A9002018
:1049D000FEF7DEFF8DF8084068788DF8090002A91F
:1049E0000020FFF739F909B0F0BD000026E0800093
:1049F0001CE0800030E080004F6E65204D697373CD
:104A000065642063616C6C2E000000004A26010181
:104A10002E2E5C5372635C706C6174666F726D5C99
:104A2000757365725F7065726970685F73657475C0
:104A3000702E63004E4F5F5441470000546F6D006D
:104A40004F6E6520456D61696C207265636569769E
:104A500065642E00546F6E79000000002DE9F0416E
:104A60000D4616460A2D11D886B10023002D29D9EE
:104A70001B4FDFF8708007F10C0203EB430C10F8BA
:104A80002C10032905D0042918D102E00020BDE82C
:104A9000F08100EB8C04A17AF95410F82C1002EB91
:104AA000031C8CF800106168CCF80410217A8CF893
:104AB0000810617A8CF80910CCF80C80591CCBB224
:104AC000AB42DAD329460848FFF7C0FB0748057018
:104AD00046600748FFF7F0FD0120BDE8F0810000C7
:104AE000D8978000FD410001E4978000D443800006
:104AF000ED4700012DE9F0410024DFF84C8098F8E3
:104B0000000000281ED9114F002607EB0415287855
:104B10006968FFF79DFD10B9697A012902D0012863
:104B200002D005E0012603E0687A022800D10126C0
:104B300031462046FFF788FE601CC4B298F800009A
:104B40008442E1D3BDE8F081D4438000E497800043
:104B500010B5FFF7CFFFBDE81040FFF783BE0000A0
:104B600010B5074A0121074800F03AFA00220A214D
:104B7000044800F0BDFB04490120487010BD00004E
:104B8000514B000188988000D443800010B5034841
:104B900000F056FA02490020487010BD8898800045
:104BA000D4438000002806D0002904D0024AD269EC
:104BB000002A00D010477047689A80000248006AB7
:104BC000002800D000477047689A800070B50D46F5
:104BD00016460D4C00280AD00178032911D801216E
:104BE000A17601461A222046FDF78CFA05E0002046
:104BF000A0761A210448FDF79EFAE561266200209E
:104C000070BD012070BD0000689A8000044A104405
:104C1000807D084201D001207047002070470000CD
:104C2000689A80002DE9F04F83B00546DDF830909A
:104C300093469A4600240027019702975A48017824
:104C4000A94202D2807E00287ED10DF13808CDF82D
:104C50000080EFF311865548007855490968C1F383
:104C60000221491C012202FA01F10844C0B280F37A
:104C7000118801212846FFF7C9FF38B14D484E4938
:104C800050F82520204600F0A9F804461C212846AB
:104C9000FFF7BCFF00285ED048A24749204600F03D
:104CA0009DF8204484B204212846FFF7AFFFF8B1F5
:104CB0005A464149204600F091F8204484B2082128
:104CC0002846FFF7A3FF38B13DA23B49204600F03C
:104CD00085F8204484B20BE010212846FFF796FFA8
:104CE00030B138A23449204600F078F8204484B22C
:104CF00008212846FFF78AFF90B152462E492046E8
:104D000000F06CF8204484B210212846FFF77EFFA3
:104D100030B12DA22849204600F060F8204484B22A
:104D200010212846FFF772FF60B14B4628A20521EB
:104D300001A8FDF7C3FE01AA1F49204600F04EF866
:104D4000204484B223A200E02BE01B49204600F05F
:104D500045F8204484B21848C4F580712044434685
:104D60000D9AFDF7D7FE0097B0F1FF3F05DD204417
:104D7000B0F5807F01DC84B201E04FF48074A01CA8
:104D8000B0F5807F00D9FE2413A20B49204600F025
:104D900025F8204481B20848FFF704FFF0B280F301
:104DA000118803B0BDE8F08F689A800002E400E04B
:104DB0000CED00E0E84380006899800028000000C6
:104DC000200000003A000000204C696E653A0000A7
:104DD000256C6400292000000D0A000010B48446F0
:104DE0000020002911D0002A0FD01378002B0CD0FE
:104DF0000CEB0003B3F5807F07D212F8014BCC54C3
:104E0000401C80B21378002BF2D110BC7047000018
:104E100010B5064A06214CF201000AF013FC02F01C
:104E20003BFBBDE81040022073F41C9744260101AF
:104E300010B58AB000218DF814100C20ADF81C00BC
:104E4000ADF81E00ADF820104FF4C870ADF8220088
:104E500014480268CDF815208288ADF819208079B1
:104E60008DF81B00ADF8241005A9002001F0D4FE38
:104E7000002815D00C49D1F89CC0D1F8A040D1F839
:104E80009830D1F89420D1F8A410CDF808C003943C
:104E9000019300920491ADF804006846FFF718F9F9
:104EA0000AB010BDD4458000702601012DE9F04103
:104EB000184CE079A179884201D1012000E000205E
:104EC000002824D104260827A079226800EB40039B
:104ED00006EB8300155807EB8300115A52F8232084
:104EE0000AB1284690472846FFF76AF9A079A188B9
:104EF000814201D9401C00E00020A071E079A17935
:104F0000884201D1012000E000200028DCD0BDE86B
:104F1000F08100007845800070B58CB0064600290D
:104F200039D00024039404940594069407940894BB
:104F300009940A940B940978012511B1012926D10D
:104F400004E08DF80C408DF80D5020E013A04FF4D4
:104F5000C77100910190194B19A21FA10220FFF700
:104F600061FE8DF80C508DF80D50CDF80E40CDF847
:104F70001240CDF81640CDF81A4040208DF80E00B2
:104F8000E2208DF80F008DF810508DF8114003A924
:104F9000304669F459D10CB070BD0000506C6561A9
:104FA000736520496E7075742070696E20636F643C
:104FB000653A203132333435362E00002C2701017A
:104FC0002E2E5C5372635C757365725C75736572CB
:104FD0005F6170702E6300004E4F5F5441470000C8
:104FE00030B4002904D0012902D030BC0120704720
:104FF000F8B1F2B1EFF31183DFF83CC09CF800C4C4
:105000000E4C2468C4F30224641C012505FA04F440
:10501000A4440CF0FF0C8CF311884FF0000C80F8C6
:1050200001C08170C261D8B280F3118830BC002009
:10503000704730BC0120704702E000E00CED00E05A
:1050400010B50446002C0CD0204600F0F1F9FF20EA
:1050500060700021A160E160216161610020E06178
:1050600010BD012010BDF0B4079D069C049981611C
:105070004FF47A7CA2FB0C1703FB0C73002602FB97
:105080000632C260816009196A41426101610021F2
:105090000162F0BC704700002DE9F001002825D026
:1050A000EFF311841D4909781D4A1268C2F30222E8
:1050B000521C012606FA02F21144C9B281F311888A
:1050C000184D05F1200300210162196AC1B142693E
:1050D0000169D3F820C0DCF81070DCF81480CF1B15
:1050E00072EB080706D2196A016209E0BDE8F00117
:1050F000002070476346D3F820C0BCF1000FE8D110
:10510000186246702868401C2860286C6860E0B20D
:1051100080F31188BDE8F0010120704702E400E04F
:105120000CED00E0F898800030B403460020EFF367
:1051300011851C4909781C4A1268C2F30222521CCC
:105140004FF0010C0CFA02F21144C9B281F311883C
:10515000164C216C00291FD022461268A2F1010CC6
:1051600053B104F120010A6A9A420BD1C4F800C07D
:10517000186A0862184609E00846016A2164C4F802
:1051800000C003E011460A6A002AECD120B10021D8
:1051900001624170216C6160E9B281F3118830BC19
:1051A0007047000002E400E00CED00E0F898800099
:1051B0002DE9F041EFF311861C4800781C4909687D
:1051C000C1F30221491C012202FA01F10844C0B2D4
:1051D00080F31188174F07F120044FF00008206A70
:1051E00000280DD0256A2878012805D1E96909B180
:1051F000A869884785F80080246A206A0028F1D1D0
:10520000B86868B1BC68E16909B1A069884784F8E9
:105210000080206AB860C4F82080B8680028F1D106
:10522000F0B280F311880120BDE8F08102E400E0D3
:105230000CED00E0F89880002DE9F047EFF31186BF
:105240002848017828480068C0F30220401C4FF02D
:10525000010808FA00F00844C0B280F31188234F17
:1052600007F12005286A002828D04FF000092C6A91
:105270003A697B6920696169821A61EB0300B96947
:10528000FB69891A73EB000018D384F8008020466C
:10529000FFF74AFFA078012816D007F10801086837
:1052A00028B1086800F1200108680028F9D1C4F885
:1052B000209008680462286A0028D8D1F0B280F3F0
:1052C00011880120BDE8F0873869A1687B69E26830
:1052D000401843EB0201616120612046FFF7DCFECC
:1052E000E9E7000002E400E00CED00E0F89880003F
:1052F0002DE9F04F85B081460E4693464FF00008E9
:10530000B9F1000F20D0464886421DD8E6B1EFF330
:1053100011874448007844490968C1F302214A1CB6
:10532000012191400844C0B280F31188484607F03B
:105330004DF810B199F8010050B1F8B280F311881E
:1053400005B00F20BDE8F08F05B00120BDE8F08F5B
:105350000AF01EF804460D464FF47A707043224658
:105360002B46002106F0FEFFDFF8C0A0D0B1DAF82E
:10537000040058B101694069091B60EB0500CAF8D7
:105380001010CAF814000AF0B1F804E00021CAF8BD
:105390001010CAF814104FF00108DAF81410DAF8F7
:1053A000100006E0DAF8040001694269081B62EBAC
:1053B0000501029032460023CDF800B00391484623
:1053C000FFF751FE4846FFF767FE0BF03BFF4FF03B
:1053D000E021D1F800014FF0806210F0806F01D021
:1053E000012000E0002018B9C1F88022C1F8002196
:1053F000B8F1000F0CD0DAF80400DAF81430426982
:105400000169DAF81000081A62EB030109F0FCFFE9
:10541000F8B280F3118805B00020BDE8F08F0000DD
:10542000008AB90702E400E00CED00E0F898800083
:105430002DE9F04104460025002C3AD0EFF3118706
:105440001D4800781D490968C1F30221491C012249
:1054500002FA01F10844C0B280F311886078012893
:1054600024D1174E7068A0420BD109F091FF226938
:105470006369121A63EB0100326170610AF036F859
:1054800001252046FFF750FE5DB1706848B1026902
:10549000416930697369101A61EB030109F0B4FFC7
:1054A00004E01DB9706808B90AF020F8F8B280F37A
:1054B0001188BDE8F081000002E400E00CED00E09E
:1054C000F898800070B504461A4E56F824007030E3
:1054D0000BF02FF982B21546A2B156F8240090F8CD
:1054E000011101290ED0012180F80411802A0FD367
:1054F00056F82400802200F1800170300BF02EF964
:1055000080250CE056F82410002081F8000170BDC1
:1055100056F8240000F1800170300BF01FF956F8A6
:1055200024002A4600F18001001D1CF483D20028CB
:10553000EDD170BDCC438000704700002DE9F843E9
:1055400004464B4E56F82400071D022C7AD290F8E0
:105550006C10002976D0012974D180F80111002542
:1055600056F824000269C1681144027D02F001026C
:10557000D21D01EB02084168CA6FC2F38002002A03
:10558000FAD090F8041100295ED0DFF8E8906D1C85
:1055900056F82400001D05F05BFE10280BD056F8CD
:1055A0002400D9F800108068B1FBF0F000FB08F08F
:1055B000B5EBC01FEBD956F8240070300BF0B9F8EA
:1055C00085B2ADB156F824000122703069460BF067
:1055D000C5F856F824004068C16FC1F340010029A6
:1055E000FAD09DF800100160681E85B2002DE9D147
:1055F00056F8240070300BF09CF80028DBD1386896
:10560000416911F0400FFBD0EFF31085012080F3CA
:10561000108856F8240070300BF08BF858B1EFF377
:105620001081012080F310883868426842F08202BD
:10563000426081F3108856F82410002081F801019F
:1056400085F31088BDE8F883B0F82480C58C001D70
:105650001BF468D656F8240041F2883300EB0801A9
:10566000491B8031001D2A461CF4A9D1A3E7000084
:10567000CC438000004180002DE9F04F89B0054601
:1056800088462C78002D06D02AB1022C07D309B009
:105690000820BDE8F08F052009B0BDE8F08F434E2B
:1056A00005F1580046F82400516813680A46703026
:1056B00019460BF029F805F11000D5F82CB090E848
:1056C0000F10D5F828A06F6A8DE80F10CDF81CB028
:1056D000CDF818A00597286B089005F10409EB6830
:1056E000AA686968286D0CF015FC0028D4D13049EF
:1056F0000C200BF009FF2F490D200BF005FF2E4861
:1057000000EBC40797F9010016F486D597F901005C
:1057100016F4A0D556F82400C0F8649056F824007A
:10572000C0F80080D5E913C856F82400AB6C6A6C49
:10573000296C6D6DC0E905C8C5610361C2608160F7
:1057400056F824107868486056F82400001D05F0CB
:1057500051FD56F82400001D05F084FD351F01277A
:10576000287858B92F70032114480AF0B3FB6880D9
:10577000002803DA09B00420BDE8F08F56F82400B1
:1057800080F86C7056F82410002081F8000156F85B
:10579000241081F8010156F8241081F8020156F80E
:1057A000241081F8030109B0BDE8F08FCC438000DC
:1057B0007D2A00018D2A0001C0250101D0250101AB
:1057C0002DE9F04104461B4E56F8240070300AF0D3
:1057D000B0FF82B2154600277AB156F8240090F83F
:1057E0000111012909D0802A0ED300F18001703007
:1057F00080220AF0B3FF80250BE056F8240080F8E1
:1058000000710020BDE8F08100F1800170300AF0E5
:10581000A5FF56F8240080F8047156F824002A46A3
:1058200000F18001001D1CF44BD10028EAD1BDE835
:10583000F0810000CC43800070B5022801D308201D
:1058400070BD0D4C54F820C0BCF1000F0FD09CF877
:105850006C5065B169B162B100258CF8025154F801
:105860002000001D1CF4ABD00028E9D170BD05203C
:1058700070BD042070BD0000CC4380002DE9F041D4
:1058800006460C46174604F1080520466FF494D7E7
:10589000C3B21B48E1184268914202DD0320BDE813
:1058A000F0811849184A006809681268891A081AAC
:1058B000001FE91881421CD94FF4004513A2294664
:1058C000002003F423F301F0D7FE30B118A22946DB
:1058D000002003F41BF30820E1E71DA22946002065
:1058E00003F414F33A4621463046BDE8F0410CF08B
:1058F00047BD3A4621463046BDE8F0410CF040BD78
:10590000D8328000D0238000CC238000523A353A30
:105910004E56445320617265612069732062656947
:105920006E6720636F6D7061637465642E0D0A008D
:10593000523A353A436F6D70616374696E67204EF9
:10594000564453206661696C65640D0A00000000CE
:10595000523A353A436F6D70616374696E67204ED9
:10596000564453207375636365737366756C0D0AD3
:10597000000000007CB50D460022009201926946AD
:1059800003F4C6F2044634BB4FF42051684603F4D6
:10599000C1F2B8B942F60101684603F4BBF288B916
:1059A00042F60301684603F4B5F258B942F6020123
:1059B000684603F4AFF228B94FF42451684603F463
:1059C000A9F208B1062406E00098C5F30B0180880F
:1059D00008430099888020467CBD00002DE9F047EF
:1059E00082460E46174698464FF001090025D8F822
:1059F0000040002C18D11E48046815E03188A088AA
:105A000081420BD3E088814204D82146504600F001
:105A100031F808B1246807E0012505E02146504629
:105A200000F028F810B1246825B105E00125A08810
:105A30003080F9E7002CE1D1B5B14FF00009A08822
:105A40003188884204D1201D38600120387109E076
:105A5000081A401E00EB400004EB40000E30386096
:105A600000203871C8F800404846BDE8F0870000C3
:105A7000F80E800070B586B0002200EB4003114C98
:105A800003EBC00304EB43052C7D17E035F812301F
:105A900093B18E889E420FD8CE889E420CD3CA887E
:105AA00089888DE81F00084B084A4021002003F434
:105AB0002DF2012006B070BD521CD2B29442E5D83E
:105AC0000020F7E724E480000E2A010114320101CE
:105AD0002DE9F04F8BB007460C46002500200890BA
:105AE000099060880790261FE188A288CDE90121EE
:105AF0000090614B61A24021002003F407F230883E
:105B000050B938460FF48AD2401E30806088A18890
:105B1000884200D800B90125DFF89091002D60D1AE
:105B200004F10A000DF1200A0DF1140B04F106082E
:105B30000A90A088069004A8CDE9020BCDE9008A5E
:105B4000022306AA07A9384600F0ACF9054628004A
:105B500008D00A2D45D0062D43D0BDF81800401CB2
:105B6000079032E0E088B0F5205F03D042F60101F3
:105B7000884208D1BDF81000217AC3B2059A0A986C
:105B800003F4CAF148B92289BDF81000824218D145
:105B900005990A98FCF7E1FA98B9022108202AF43D
:105BA00093D10146BDF81C008880BDF81800C8805C
:105BB000083E59F82700603003F4B0F1384603F48A
:105BC000AFF1BDF81800401C0790A088BDF81C106C
:105BD000884206D3BDF81810884202D030880428C5
:105BE000A7D2062D36D059F82700603003F49AF179
:105BF00040B300244FF6FF7101EA8006062000EB57
:105C0000072307220421384600962CF40DD50146BF
:105C10004E8059F82700006E0EE083880A19137130
:105C20001B0A5371A41CA4B2C3880A1913711B0A5E
:105C30005371A41CA4B200680028EED1084603F4F6
:105C400073F10AE021780A23BDF81C20384603F4DA
:105C50006DF102E0BDF81C006080074B14A24021EA
:105C60000020009503F452F1062D03D000200BB064
:105C7000BDE8F08F0120FAE7D6290101523A333A04
:105C80005B25735D20656E7465722C2073683D30F2
:105C90007825782C2065683D307825782C2074791B
:105CA00070653D307825780A00000000C40E800041
:105CB000523A333A5B25735D20657869742C207302
:105CC00074617475733D307825780A002DE9F04FC2
:105CD00085B081460E4648460FF4A0D1801E1FFABB
:105CE00080FAD0460024B0887188CDE90010574B67
:105CF00057A24021002003F409F17088B188DFF831
:105D000074B1884211D880B170880490002002904C
:105D10000390019001AB02AA04A94846FFF75EFE7A
:105D20000546280003D00A2542E0012540E0B0885E
:105D3000BDF81010884232D3022118202AF4C4D0B2
:105D40000746012000900023FA1DB91D02A803F4A4
:105D5000EFF00546280007D040F24E2346A2294620
:105D6000BDF8100003F4E6F0BDF81000B88004B9E7
:105D7000BC79B879A04203D0384629F425D717E07A
:105D80005BF829003946603003F4C8F0A8EB040042
:105D9000801E1FFA80F8BDF81000401C0490B188E6
:105DA000BDF81000814203D310B1A01C8045B1D2D0
:105DB0005BF82900006E18B1002018B19DB334E0E3
:105DC0000120FAE70026AAEB08081FFA88F00090E5
:105DD000062000EB09230522042148462CF424D494
:105DE0000746022C08D002207870788840447880DA
:105DF0005BF82900046E10E00120F5E7A188B819CE
:105E00008180B61CB6B2B819A279001DE11DFCF75D
:105E100079F9A079304486B22468002CEED1384656
:105E200003F482F007E0FFE70A25728831782B46F9
:105E3000484603F47BF0054B13A240210020009557
:105E400003F464F005B00020BDE8F08FBD29010126
:105E5000523A333A5B25735D20656E7465722C206F
:105E600073683D307825782C2065683D307825783A
:105E70000A000000C40E8000617474735F70617466
:105E800063682E6300000000523A333A5B25735D6D
:105E900020657869742C207374617475733D307853
:105EA00025780A002DE9F04F87B08346DDF844904D
:105EB0000C4615469A460026B4F800800027019744
:105EC00001AB4A4621465846FFF788FD10B12888A5
:105ED000208026E02088298888421BD8002302AA37
:105EE00006A94846009703F423F0014629B120880B
:105EF00040F269131AA203F41DF09DF8183002AAAB
:105F00005146109803F408F008B1012602E02088F9
:105F1000401C20802EB920882988884201D800287A
:105F2000CED16EB122884B460021584603F404F0CE
:105F3000C6B22088494603F401F0288026B10AE061
:105F40000A26A4F8008006E02188DDE912235846DD
:105F500002F4F6F7C6B207B03046BDE8F08F000095
:105F6000617474735F70617463682E630000000075
:105F70002DE9F04105460C46FF26217A1E2905D061
:105F800022480279521E52B200683AE004F1080138
:105F9000284602F4D7F7064635E010F832308B4237
:105FA0002DD11B4E56F82500406F30B300273B46DD
:105FB00018A24021002002F4A9F7062000EB0520DA
:105FC0002AF4D8D1C00605D5002717A24021002009
:105FD00002F49CF721460C3956F82500743002F47F
:105FE0009DF70020A08001266FB115A2402102F488
:105FF0008DF7284602F4A8F705E00127D7E7521EDF
:1060000052B2002AC9DA3046BDE8F0817C05800032
:10601000C40E8000523A333A657865637574653D05
:10602000307825780A000000523A333A636F6E6E7A
:10603000656374206E6F742063666D0A0000000053
:10604000523A333A7374617274206578656375747B
:10605000650A00000348024901600D214160704754
:106060001C2901017C0580002DE9F04F8BB0824690
:106070000C460026002009900A9060880890251F91
:10608000B0462988A288CDE9012100906D4B6EA20F
:106090004021002002F43AF7288850B950460EF407
:1060A000BDD7801E28806088A188884200D800B9AA
:1060B0000126714850F82A00006E10B1002111B17C
:1060C00003E00121FBE790F80680002E5DD104F18A
:1060D000080BA088079006A805A909AACDE9021017
:1060E000CDE900B2A37907AA08A95046FFF7DAFE66
:1060F0000646300049D1BDF81410884502D0B8F1E9
:10610000000F42D12888001FFB22FB2800D3104635
:10611000814200D2084687B2022107F10C0029F41F
:10612000D3D68146BDF81480BDF82000A9F804003C
:10613000BDF81C00A9F8060089F808703A4609F174
:1061400009000699FBF7DEFF2888C01B001F288086
:106150004948494650F82A00603002F4DFF6BDF89D
:106160001400874202D1504602F4DAF6BDF81C0052
:10617000411C89B20891A2888A4206D3824204D087
:10618000298808F104008142A3D2062E48D03A4D56
:1061900055F82A00603002F4C5F6C0B3002755F860
:1061A0002A100C6E217A091D41431FFA81F806203E
:1061B00000EB0A23112204215046CDF800802CF474
:1061C00033D20546A5F80280217A091D697018E0CE
:1061D000A188E8190171090A4171BF1CBAB2E188AE
:1061E000A8180171090A4171921C97B2E819227A24
:1061F000001D04F10901FBF785FF207A384487B2BE
:106200002468002CE4D1284602F48EF60BE0FFE768
:1062100021783346BDF82020504602F487F602E08C
:10622000BDF820006080074B14A24021002000969A
:1062300002F46CF6062E03D000200BB0BDE8F08F00
:106240000120FAE79D290101523A333A5B25735D3B
:1062500020656E7465722C2073683D307825782C2B
:106260002065683D307825782C2072655F6C656EFE
:106270003D307825780A0000C40E8000523A333A47
:106280005B25735D20657869742C20737461747567
:10629000733D307825780A002DE9F04F8BB08246A7
:1062A0000C460026002009900A9060880890251F5F
:1062B000B046A188694BCDE9000169A240210020C8
:1062C00002F424F6288850B950460EF4A7D6801E52
:1062D00028806088A188884200D800B901266948D2
:1062E00050F82A00016E11B1002010B103E0012026
:1062F000FBE791F80680EEBB04F1080BA08807903D
:1063000006A805AA09A9CDE90220CDE900B1A37923
:1063100007AA08A95046FFF7C5FD0646300047D139
:10632000BDF81410884502D0B8F1000F40D128887C
:10633000801EFD22FD2800D31046814200D208466F
:1063400087B2022107F1080029F4BED58146BDF8C5
:106350001480BDF82000A9F8040089F806703A46B8
:1063600009F107000699FBF7CDFE2888C01B801EA7
:10637000288000E01CE04348494650F82A0060307D
:1063800002F4CCF5BDF81400874202D1504602F465
:10639000C7F5BDF81C00411C89B20891A2888A4249
:1063A00006D3824204D0298808F102008142A5D296
:1063B000062E40D0334D55F82A00603002F4B2F575
:1063C00080B3002755F82A100C6EA179891C41432F
:1063D0001FFA81F8062000EB0A2309220421504607
:1063E000CDF800802CF420D10546A5F80280A179D3
:1063F000891C697010E0A188E8190171090A4171CE
:10640000BF1CBFB2E819A279001DE11DFBF77AFE9F
:10641000A079384487B22468002CECD1284602F4D5
:1064200083F50BE0FFE721783346BDF82020504686
:1064300002F47CF502E0BDF820006080074B12A258
:1064400040210020009602F461F5062E03D00020C2
:106450000BB0BDE8F08F0120FAE70000F22901013E
:10646000523A333A5B25735D20656E7465722C2059
:1064700073683D307825782C2065683D3078257824
:106480000A000000C40E8000523A333A5B25735D67
:1064900020657869742C207374617475733D30784D
:1064A00025780A002DE9FF5F81460F460024A246A9
:1064B000CDF808A0CDF80CA0584850F8290060305D
:1064C00002F430F580463D1F79882888544BCDE989
:1064D000001054A24021002002F418F52888E8BBDF
:1064E00048460EF49BD5401E2880002611E007EB9D
:1064F000460002AB82880021484602F41DF5C4B272
:10650000CDF808A0CDF80CA00CB1B0463BE0761C4D
:10651000B6B27888B042EAD835E007EB48006B465F
:10652000818801AA484602F40BF5C4B23CBBBDF811
:1065300004002988884200D3084686B2022106F169
:10654000080029F4C1D48346ABF8046032460BF14D
:1065500006000099FBF7D6FD304800E013E050F844
:1065600029005946603002F4D9F4484602F4D8F4C0
:106570002888801B288008F101081FFA88F8CDF8C8
:1065800008A0CDF80CA07888404503D9288808B128
:10659000002CC2D044BB48460EF440D52988401A8E
:1065A000401E86B20025062000EB09230F2204219D
:1065B000484600962CF438D08246AAF80260174864
:1065C00050F82900066E0AE00AEB0500B288001DAB
:1065D000B11DFBF797FDB088284485B23668002EC0
:1065E000F2D1504602F4A0F44CB1062C07D007EBD0
:1065F0004800397882882346484602F497F4084BCD
:1066000014A240210020009402F480F4062C03D050
:10661000002004B0BDE8F09F0120FAE7C40E80001E
:1066200084290101523A333A5B25735D20656E740B
:1066300065722C206E625F68616E646C653D3078B7
:1066400025782C2072655F6C656E3D307825780A60
:1066500000000000523A333A5B25735D206578698B
:10666000742C207374617475733D307825780A003A
:1066700010B500210A4C0023002001EB410202EB7F
:10668000C10204EB420222F81030401CC0B20A28BA
:10669000F9D31375491CC9B20A29EDD310BD000006
:1066A00024E480001FB50F4890F80201002818D09C
:1066B00068464DF43FD6DDE900010B4CCDE90201FF
:1066C000E1680844094920F07040486008464EF4EB
:1066D000C7D0607818B1BDE81F400AF05FB90AF072
:1066E00079F91FBDC01A80002C498000B41A8000BF
:1066F00007F01EB930B58DB008A80BF00DF9099858
:10670000BDF822209DF8203005909DF821100391BE
:1067100033A040F2F31102930492009101903A4B9E
:106720003AA240A10220FEF77DFA0AA85FF440D405
:106730003E4C98B1D4F80851D4F804C1D4F80031D3
:10674000D4F8FC20D4F8F810CDE906C505930492DE
:106750000391ADF8100003A8FDF7BAFC9DF82910CD
:106760009DF828009DF82B30069107909DF82A206F
:1067700005929DF82C009DF82D1004932CA24FF447
:10678000FC7300930192029103901F4B1FA225A15D
:106790000220FEF747FA31A040F2FF11009101906C
:1067A000194B1AA21FA10220FEF73CFA0AF0E8FCDE
:1067B00002F006FB61F4F2D600280ED004F58671D3
:1067C00003AD91E80E10D4F81C41A5E80E10079413
:1067D000ADF8100003A8FDF77BFC0DB030BD000044
:1067E000476F6F64697820424C452053444B2056D4
:1067F00025642E25642E25642028636F6D6D6974D1
:106800002025782900000000582701012E2E5C5316
:1068100072635C757365725C757365725F617070CD
:106820002E6300004E4F5F54414700007026010167
:106830004C6F63616C20426F617264202530325866
:106840003A253032583A253032583A253032583AC3
:10685000253032583A253032582E0000416C65728E
:1068600074204E6F74696669636174696F6E20533A
:10687000657276696365206578616D706C652073FB
:106880007461727465642E002DE9F04105468846F6
:10689000284669F455D4C0B22449097888420DD2FB
:1068A00000EB4000213040F400404246AC2108F0AB
:1068B000C9FE0446200032D0012430E069F484D4BB
:1068C000C7B207EB470606F1200040F400402A4615
:1068D000072108F0B7FE10B10120BDE8F08138466D
:1068E00075F4C2D506F1210040F400404246AC21C7
:1068F00008F0A8FE0446200001D00120EDE7223672
:1069000046F4004070F482D60949C7EBC700096815
:10691000084429680160A9888180A97981711CB91E
:1069200041462846FCF7C4FE2046D6E738238000BF
:106930003C2380000020704710B50AF0A5F80AF04B
:10694000F1F80AF03FF809F0C3FC0BF07FF900F012
:10695000D5FB0AF003F900F01FFBBDE8104000F082
:10696000FFBA09F039BC10B506F090FB07F00EF93C
:1069700006F09CFB06F0A0FF06F0FCFB05F040FFD4
:10698000FFF768FB03F0E6FA0AF07CF90AF09AFDDB
:10699000BDE81040FFF76CBE10B5FFF7E2FF0549F8
:1069A00003480860BDE81040034874F4CF97000026
:1069B00017B8800474C500A00087930310B504467F
:1069C000002C0CD0204600F057FA002807D10449CB
:1069D0004968002903D02046BDE81040084710BD93
:1069E0000047800010B588B0044640F2013220888C
:1069F000A0F2013190425DD013DCB0F5807F23D04E
:106A0000A0F500700B3824D0012833D002282FD1F4
:106A1000618C606A08B004F10A02BDE81040FDF71D
:106A2000FDB9012900F07380042921D0052900F067
:106A30008580A1F54070FF381AD1207908B0611D1A
:106A4000BDE81040FEF768BA08B0BDE81040FFF797
:106A500051BE608800280BD03CA140F2AF120092DA
:106A600001910290414B42A247A10320FEF7DAF8C0
:106A700008B010BD207A80B1FEF7DAF9207A44A17F
:106A800040F2BB12009201910290384B38A23EA115
:106A90000320FEF7C7F808B010BD44A04FF4DB7127
:106AA00000910190314B32A237A10320FEF7BAF8D2
:106AB00008B010BD60880028FAD140A04FF4E371FF
:106AC00000910190294B2AA22FA10320FEF7AAF8DA
:106AD000A07CE17C227D637D049305920691079062
:106AE000A07DE17D38A240F2C7130093019202918C
:106AF00003901E4B1EA224A10220FEF793F82079DA
:106B000008B004F10801BDE81040FBF79DBB6088A8
:106B10000028CDD1207A3AA14FF4EB720092019176
:106B20000290124B12A218A10220FEF77BF8217AE4
:106B3000207908B0BDE81040FDF7AABA207908B066
:106B40000121BDE8104060F42F9000005363616E96
:106B50002073746172746564206661696C65642871
:106B6000305825303258292E0000000048270101F6
:106B70002E2E5C5372635C757365725C75736572FF
:106B80005F6170702E6300004E4F5F5441470000FC
:106B90006170705F7363616E5F73746F705F686163
:106BA0006E646C65723A2025642E00005363616E3A
:106BB0002054696D656F75742E000000436F6E6E12
:106BC00065637465642E0000436F6E6E6563746563
:106BD0006420776974682074686520706565722028
:106BE000253032583A253032583A253032583A2535
:106BF0003032583A253032583A253032582E00007B
:106C0000446973636F6E6E656374656420283078C1
:106C100025303258292E00002DE9F04782460D46D6
:106C20000026EFF311883148027831480068C0F33C
:106C30000221491C012088401044C0B280F3118811
:106C400069F454D381462DB12A4F97F8A50018B1A5
:106C50000F2637E0022635E0D7F8AC0030B9002126
:106C6000382064F441D6C7F8AC00D8B3D7F8AC40AC
:106C700038212046FBF75FFA87F8A7A02878207014
:106C8000607840F0010060702889A0816889E08107
:106C9000A8892082E8896082288A60801020A080EC
:106CA000E080E87900F00100E871D5F80100206388
:106CB000B5F80500A086E87984F8360000210620A2
:106CC00069F470D433460CA21021002002F41EF1A6
:106CD000484669F4D5D208F0FF0080F311883046A9
:106CE000BDE8F087FFE71026ECE7000002E400E0D3
:106CF0000CED00E07C278000523A313A636F6E6EF3
:106D00006563742C20737461747573203D20256451
:106D10000A0000000A2805D2034A002152F8200088
:106D200080F88F1070470000C40E800070B50446D4
:106D30000D46204609F064FF002805D1294620466B
:106D4000BDE8704062F4369170BD70B504460D46E2
:106D5000204609F055FF002804D12946204663F457
:106D6000D5D180B270BD000070B505460E46002D2D
:106D700005D00D4867F4F8D384B214B110E00220B6
:106D800070BD142075F46AD0014659B10D61CE6012
:106D9000064A50780871401C5070101D05F0ABFD7C
:106DA000204670BD102070BDFC280101984780006E
:106DB00070B504460D46204609F022FF002805D193
:106DC00029462046BDE8704063F4E69270BD70B578
:106DD00004460D46204609F013FF002804D1294639
:106DE000204663F4C5D580B270BD000000B58BB0FD
:106DF000094901200870FF22282101A8FBF794F916
:106E00004FF48070ADF804000020ADF8060001A832
:106E1000FFF7D4FD0BB000BD0047800010B5064859
:106E20000068002800D08047FEF732DC08B101205E
:106E300010BD002010BD00008049800010B540F456
:106E4000404070F4E3D310BD10B540F4404008F06A
:106E5000F9FB10BD044901600449416004498160A7
:106E60000449C1607047000041C2060015C2060017
:106E7000496E00013D6E000170B50446002C1FD024
:106E80004FF6FF731946228840F20155A2F20150D5
:106E90004FF48076AA424CD01BDC40F20245A2F2AD
:106EA0000240AA4234D00DDCA2F54072013A25D04E
:106EB000012A23D0FF2A29D0B2422ED121892CE0E9
:106EC000002070BD012825D0022825D0FE2824D11D
:106ED0002AE004282DD006DC01282AD0022828D058
:106EE00003281AD125E0052823D0062821D0B04256
:106EF00013D1204602F0E0FE002070BD204603F0D2
:106F000035FA204603F0AEF8002070BD218904E078
:106F1000218902E0618900E0218A99420ED0204651
:106F200003F034FA012070BD204603F02FF9002051
:106F300070BD204603F0A6F8002070BD002070BD93
:106F400010B506F0E5FF08F097F807F0F7FB02F040
:106F500005FB02F0DDFBBDE8104009F0F7BD0000C5
:106F600010B52221094809F069F80A21084809F0FA
:106F70005FF80321074809F055F8FFF7F4FC0520F6
:106F8000FFF7B6FBFFF7DCFF10BD000008418000F3
:106F9000184280006842800004490348086005499F
:106FA0000348086070470000998800010C228000A7
:106FB000D58A00011822800070B50026150A0E48F7
:106FC00005EB450200EB0214098821800120A07026
:106FD0002846FFF79FFE002069F452D10748016858
:106FE00029B10B681BB1228800212846984769F413
:106FF0007DD1304670BD0000D42E8000B8228000C4
:107000003EB500241D0A0A78122A02D0132A04D0A1
:1070100006E000208DF8000002E001208DF800005D
:107020008888ADF804004888ADF80200891D0291F7
:10703000002069F425D10B48016829B18A691AB189
:1070400069462846904708E09DF80000012804D1D1
:10705000BDF804102846FFF769FE69F447D12046C1
:107060003EBD0000B4228000014800787047000057
:10707000984980007CB50E46150A002000900190CA
:107080006946284673F47AD19DF806206946284659
:1070900002F022FE0446CCB162F478D7C0B162F4AB
:1070A00075D7C01C81B23288002320466DF456D3B8
:1070B0006946284609F022FE40B106A24021002080
:1070C00001F424F7214668465EF4BED400207CBD5E
:1070D0000020E7E7523A333A7361766520636363D1
:1070E000640A00007CB5DDE90654CDE9005466F47D
:1070F00079D5BDE87C4008F029BF0000024901486D
:1071000008607047E57000014823800010B588B022
:10711000044666F4F5D70020079007A854F49CD6DF
:107120000798FFF797FE2068019060680290A068BA
:107130000390E0680490208AADF81400608AADF8EE
:107140001600A08AADF81800E08AADF81A0001A870
:1071500054F4ACD654F48CD60348016801614168FC
:10716000416108B010BD0000300100B010B58AB018
:107170000446FF2228216846FAF7D6FF40F2027142
:10718000ADF800100021ADF802108DF804406846FB
:10719000FFF714FC0AB010BD30B58568027B002DE6
:1071A00002D0002001210CE0104630BDCB0801F0D8
:1071B0000704EB5CE340DB0701D0401CC0B2491C74
:1071C000C9B28A42F2D830BD00230849496808E0B4
:1071D000CA88824204D80A89824201D3CB6802E07D
:1071E00009680029F4D118467047000098478000CC
:1071F00001460548406803E002798A4202D00068EF
:107200000028F9D1704700009847800070B5104EF3
:107210003078FFF7EDFF0446200006D0206963F4C4
:1072200099D10546280002D00DE00C2070BD2069E0
:10723000FFF7B2FF0146206902681288E280006809
:107240000088084420813078401C3070E8B270BD5E
:107250009847800070B519480468194D28780028AF
:1072600001D0002070BD4FF0806071F441D700F470
:107270005FF4600872F44CD612490860881711490F
:1072800001262C39086010497006C1F8FC01C86756
:107290004FF03041086B40F007000863094C303C68
:1072A000206840F4E020206000F484F42E70206810
:1072B00020F4E0202060012070BD00006C248000DC
:1072C0007849800070C500A084E000E070B500241B
:1072D000EFF31086012080F3108800F486F4104D3F
:1072E00028B102242968B9B10220884714E0FFF7C9
:1072F00095FD20B1296879B1002088470CE0FFF79F
:10730000A9FF28B10224296831B10220884703E08F
:10731000296809B10020884786F31088204670BD8F
:107320005C24800010B5084A1378002B01D00F2090
:1073300010BD31B150600448243000F007F800203F
:1073400010BD022010BD0000004780002DE9FC4761
:1073500005460C46FFF7F0FA68F4C8D707463648EA
:10736000006800B18047354901200AF0CDF8344962
:1073700002200AF0C9F80120FAF7BCFEA08E81B203
:10738000206B01F03DFFDFF8BC90DFF8BC80E169C5
:1073900099F8000098F800200244B1FBF2F1CEB257
:1073A00016FB00F1A06965F401D0286863F490D35E
:1073B00068685FF49DD2286966F43CD7A86861F4D8
:1073C00035D5E86861F4DAD520484CF463D120481B
:1073D0004CF466D11F484CF469D11F4854F492D53F
:1073E0001E484CF40DD11E484CF410D11D484CF4ED
:1073F00013D11D4864F4AED74FF0806071F478D695
:107400002046FFF783FED4E90A01CDE9000199F88F
:107410000010A06916FB010098F8001016FB01F19E
:10742000D4E90823114C2468A047384668F428D7CB
:10743000BDE8FC4765F4729080268000393806006C
:10744000DD37060029D507002AD50700119F070060
:10745000B9C3060065C40600EDAF070025ED0600C0
:1074600045ED060065ED0600799B07004823800086
:10747000034900EB800001EB80008088704700002A
:10748000FC478000034A00EB800002EB8000818013
:1074900070470000FC47800010B500F067F800F06E
:1074A00047F8BDE8104000F001B8000000B58FB00B
:1074B00003228DF800204FF48050019005218DF8B3
:1074C000081001208DF8090000238DF80A308DF88E
:1074D0000C20430304938DF814108DF815008DF8DB
:1074E00016008DF81820C30307938DF820108DF82F
:1074F00021008DF822208DF8242082030A928DF835
:107500002C108DF82D0002228DF82E2004238DF8EA
:1075100030300D928DF838108DF839008DF83A30F2
:10752000024A6846FDF79AFA0FB000BD094900010A
:1075300070B582B01026009602248DF804408DF8B4
:10754000054007258DF8065069460320FCF7B0FF7B
:1075500000968DF804408DF805408DF80650694678
:107560000520FCF7A5FF02B070BD000000B587B094
:1075700000F01EF803208DF800001D208DF8160085
:1075800001208DF817008DF818008DF81900044AB5
:1075900004496846FDF71AFBFCF716FD07B000BD6D
:1075A000A97500010D7600010020FDF7C7BF00009E
:1075B00000B583B0134800904FF48063019300F549
:1075C0008060002101704FF4E132026403224264C2
:1075D0008164C16401650121416502744FF4006C4E
:1075E000C0F814C04FF0020C80F811C0017602718F
:1075F000836080F805C001736A460349FEF73CF8D2
:1076000003B000BD40908000395500010A46014694
:107610004FF47A730020FEF70FB900000E4910F105
:10762000210F06DA086820F4704040F440500860EA
:10763000704710F11D0206D3086820F4704040F432
:107640008040086070470A28FCDD086820F470401C
:1076500040F4A0400860704724C500A010B509F0B0
:1076600023FA08F021FC0AF089F900F035FBBDE8A7
:10767000104009F08BB900002DE9F04F87B07B482E
:10768000D0F8009000240025A24600260AF0E6FA71
:1076900077480168C9F800104068C9F804007548C7
:1076A00000680830059009F108000690042203A93B
:1076B000059800F0DDFABDF80C10A1F57F40FF3809
:1076C00043D0082203A9059800F0D2FABDF80E00B5
:1076D0006EF472D000F0FF08BDF80C00002867D0EF
:1076E0000698A9EB000707F58057BDF80E1008F1C2
:1076F000080083460844B84263D805AB082203A9B2
:1077000006A800F0EBF8BDF80E00002300EB08021D
:1077100005A906A808F070FC641CBDF80E005844CA
:10772000B842C3D10020CDE9006053464A46214605
:1077300028460AF03BFD002826D182460026002478
:10774000CDF818906D1CEDB2B0E70020CDE90060D7
:1077500053464A46214628460AF028FD002813D100
:107760006D1CECB2434D4FF48057434E08E028683F
:1077700000EB0430394603F0B5F940B1641CE4B2C3
:10778000707AA042F3D8002007B0BDE8F08F3B48E4
:107790008169407A40F26242CDE900200291384B83
:1077A00038A24FF40041002001F4B0F30920EBE7C8
:1077B000BDF80E00059908F10808084440440590FA
:1077C00074E7082F29D305AB082203A906A800F007
:1077D00085F8083F2FB100233A4605A906A808F00E
:1077E0000BFC611C0020CDE9006053464A46284648
:1077F0000AF0DCFC0028C7D18246BDF80E004044E8
:10780000C61B0024CDF818906D1CEDB20023324643
:1078100005A906A808F0F0FB48E705AB3A4603A91E
:1078200006A800F05BF8611C03A8CDE90060534690
:107830004A4628460AF0BAFC0028A5D1C7F1080A32
:10784000BDF80E0000EB08060024CDF818906D1C62
:10785000EDB20123524605A906A808F0CDFB00238E
:10786000324605A906A808F0C7FB1FE7704680004E
:10787000ACD50700CC238000D8328000641F800084
:10788000D2280101523A353A25732C204C25642028
:10789000666C61736820737461746520307825307C
:1078A00032582C206572726F72203078253038582B
:1078B0000D0A00000221B0FBF1F2FF2A04D8B0FB50
:1078C000F1F201FB12022AB1491CC9B24029F2D3DC
:1078D00000207047B0FBF1F0C0B2704770B50446AD
:1078E00015461E462A462068FAF70CFC30682844E4
:1078F000306020682844206070BD000010B5054845
:10790000017B491C0173002072F470D1BDE8104066
:1079100000F050B8A44780002DE9FE43FFF721F89E
:107920001E48016821F4003101601C4E083E306899
:107930001B4980B2084330601A4803C8CDE90001F2
:1079400016482C380068C82100F007001DF8000018
:1079500010FB01F514480768144CD4F80080384631
:10796000414603F005F862686068831AAB42FBD3B6
:107970004146384602F0DCFF08F0FEFA02909DF81E
:10798000080028B19DF80800094948618861C8616C
:10799000306820F07F403060BDE8FE8330C500A035
:1079A00000008F11307C0001FCED00E0001000E0D1
:1079B000A44780002DE9FC412D4E306820F07F4027
:1079C00040F0885030602B4803C8CDE900012848BA
:1079D0002438006800F007011DF80100C82110FBE1
:1079E00001F525480768254CD4F800803846414603
:1079F00002F0BEFF62686368981AA842FBD3414652
:107A0000384602F095FF002508F0B6FA0446DFF884
:107A10007080D8F81800844201D9012700E00027BF
:107A200071F48AD740B91FB1D8F81800201A02E0C3
:107A3000D8F81800001BC5B2D8F81800C8F8200004
:107A4000B5EB900F03D8292C01D8112C02D200F0ED
:107A500019F807E000EBC00020440A21B0FBF1F068
:107A6000C8F81800306820F07F403060BDE8FC8125
:107A700028C500A0307C0001FCED00E0001000E013
:107A8000A44780002DE9F04F87B00020069008241D
:107A9000DFF890811A20C8F8140063480168634A2F
:107AA00089B21143016005A8FAF796FF0220FAF7A0
:107AB0009BFFDFF8749109F10809D9F8000020F460
:107AC0007C3040F42030C9F8000059A003C8CDE94B
:107AD0000201DFF854A1AAF1240ADAF8000002A991
