:020000040100F9
:10200000000084005920000161200001294A80005D
:10201000FF210001FD210001452200010000000018
:10202000000000000000000000000000D14B800014
:102030006B200001000000006D20000171200001F4
:10204000DFF810D000F0F2FB00F094F800480047F1
:102050002DD3000100008400064880470648004751
:10206000FEE7FEE7FEE7FEE7FEE7FEE7FEE7FEE748
:10207000FEE700006D2A00014DD300012DE9F05F5D
:102080000546002092469B468846064681464024E7
:102090001BE0284641464746224600F0BBFA53461D
:1020A0005A46C01A914110D311461846224600F0F4
:1020B000A2FA2D1A67EB01084F46224601200021A3
:1020C00000F099FA17EB00094E41201EA4F101041B
:1020D000DFDC484631462A464346BDE8F09F000013
:1020E0000649074A0868504343F239021044086021
:1020F000400870470149086070470000144A80009A
:102100006D4EC64140EA01039B0703D009E008C9B0
:10211000121F08C0042AFAD203E011F8013B00F8AC
:10212000013B521EF9D27047D2B201E000F8012BF8
:10213000491EFBD270470022F6E710B513460A4647
:1021400004461946FFF7F0FF204610BD421C10F868
:10215000011B0029FBD1801A704730B504460020CE
:10216000034600E05B1C934203D2E05CCD5C401B65
:10217000F8D030BD70B5054C054D03E02068204413
:102180008047241DAC42F9D170BD00008C120101C2
:10219000901201010EB540F2334102910021CDE9C8
:1021A00000110A460B4600F066FA03B000BD0EB5FA
:1021B00040F2334202920022CDE90022134600F0A1
:1021C0005AFA03B000BD20F00040C20DC0F3160063
:1021D00040F400007F2A02DA002001467047002107
:1021E000962A03DCC2F19602D0407047963A00F07E
:1021F00002BA43F6C51CC3F2000C6047FEE7FEE7D7
:1022000058585247010000001555000000200001F9
:10221000002000016EED52490101000000000000A5
:1022200000000000000000000000000000000000AE
:10223000000000000000000000000000000000009E
:102240001BF44A97FEE7704770472DE9FE4F804622
:1022500081EA0300C00F0C46009021F0004123F0FA
:102260000045B8EB0200A94105D240462146904600
:102270001C460B46024623F00040104347D0270D72
:10228000C7F30A00C3F30A510290401A0190402894
:102290006BDAC3F3130040F4801B0098924620B120
:1022A0000023D2EB030A63EB0B0B01985946C0F1F4
:1022B0004002504600F09FF906460D4650465946EA
:1022C000019A00F0B7F910EB08006141002487EA99
:1022D000115284EAE7731A4340D0009A62B3019A1C
:1022E000012A4FEA075215DC001B61EB02014FF097
:1022F000004202EA0752CDE90042001C41F580117C
:1023000032462B4600F0B7F903B0BDE8F08F4046E7
:102310002146F9E7001B61EB0201001C41F5801327
:1023200000185B412018A2F5001747EB030140EAB3
:10233000D570B6196D4111E06D084FEA360645EAD1
:10234000C0754FEA0752001B61EB0201001C41F50A
:10235000801149084FEA30000019514132462B469E
:1023600003B0BDE8F04F00F077B9009801224000BB
:102370000023D0EB020263EBE073009821464FEAA2
:10238000E074B8EB000061EB0401E9E783F000437F
:102390005BE781F0004158E72DE9FE4F81EA030435
:1023A00004F0004421F0004100944FF0000B23F0B2
:1023B000004350EA01045ED052EA03045BD0C3F349
:1023C0000A54C1F30A552C44A4F2F3340194A0FB3F
:1023D0000254C1F3130141F48011C3F3130343F416
:1023E000801301FB024400FB034E840A970A44EA6F
:1023F000815447EA8357A4FB076802958D0A05FBC1
:1024000007854FEA932C04FB0C542705029D4FEAE5
:10241000065847EA1637B5EB08056EEB070C870E32
:10242000920E47EA811742EA8312A7FB0201B6EB3C
:102430000B0164EB00042B0D43EA0C335E1844EBF4
:102440001C50DA465146E7FB0201C5F313044FEA7C
:102450000B3343EA14534FEA0432019C43EA060368
:10246000A4F10C040294009CCDE900B400F003F93F
:1024700003B0BDE8F08F00200146F9E72DE9F04DEB
:1024800081EA030404F0004B21F0004514464FF0AC
:10249000000A23F0004150EA050220D054EA01026C
:1024A0001DD0C5F30A570246C5F31303C1F3130049
:1024B000C1F30A5640F4801543F48013A7EB0608D5
:1024C000101BD64608F2FD3873EB050002D308F165
:1024D000010801E092185B41B8F1000F03DA002017
:1024E0000146BDE8F08D00204FF480110646844679
:1024F0000EE0171B73EB050705D3121B63EB0503F7
:1025000006434CEA010C49084FEA300092185B413F
:1025100050EA0107EDD152EA030012D082EA04002A
:1025200083EA0501084305D0101BAB4106D2012206
:10253000002306E000224FF0004302E06FF00102AA
:1025400053101AEB06004CEB085110EB0A0041EB5C
:102550000B01BDE8F04D00F07FB870B5C1F30A5231
:1025600001F000450024C1F3130140F2FF3341F4B0
:1025700080119A4201DA002070BD40F233439A4242
:10258000A2F2334203DC524200F044F800E09040F3
:102590002C43F1D0404270BDC1F30A5210B5C1F3D3
:1025A000130140F2FF3341F480119A4201DA002016
:1025B00010BD40F233439A42A2F2334203DC52424E
:1025C00000F028F810BD904010BD30B50B46014614
:1025D00000202022012409E021FA02F59D4205D3C2
:1025E00003FA02F5491B04FA02F52844151EA2F16C
:1025F0000102F1DC30BD202A04DB203A00FA02F1AE
:10260000002070479140C2F1200320FA03F31943E0
:1026100090407047202A04DB203A21FA02F0002182
:10262000704721FA02F3D040C2F1200291400843E2
:1026300019467047202A06DBCB17203A41FA02F0F0
:1026400043EAE07306E041FA02F3D040C2F120020F
:10265000914008431946704710B5141E73F10004E9
:1026600008DA401C41F1000192185B411A4301D184
:1026700020F0010010BD2DE9F04D92469B4611B1AE
:10268000B1FA81F202E0B0FA80F220329046FFF710
:10269000B2FF04460F4640EA0A0041EA0B015346E6
:1026A0005A46084313D0114653EA010019D0C8F125
:1026B00040025046FFF7AEFF05460E4650465946CB
:1026C0004246FFF798FF084305D0012004E020466A
:1026D0003946BDE8F08D0020054346EAE0762C43FC
:1026E00037430A986305E40AA0EB08000022FD0ABC
:1026F00044EA47540A3002D500200146E9E70105C3
:1027000010196941DDE9084500196941BDE8F04D3E
:10271000A2E700002DE9F041054621F000400C46FB
:10272000284309D0C4F30A5040F23341884205DD02
:1027300028462146BDE8F0812846FBE740F2FE31FD
:10274000884210DC0CDB4FEA043040EA155050EAB6
:10275000053105D0104804F0004101430020E9E7AD
:1027600000200146E6E7A0F233404642C6F14002AF
:1027700028462146FFF73FFF074688462846214660
:102780003246FFF747FF43463A46FFF765FF3246BA
:10279000BDE8F041FFF72FBF0000F03FC1F30A5240
:1027A000C1F3130140F2FF3341F480119A4202DA7F
:1027B00000200146704740F233439A42A2F233426E
:1027C00002DC5242FFF726BFFFF715BF30B5041EEB
:1027D00071F1000404DB4FF00044404264EB01015E
:1027E000141E73F1000405DB1C464FF000435242F7
:1027F00063EB04038B4208BF824230BD30B5041E38
:1028000071F1000404DB4FF00044404264EB01012D
:10281000141E73F1000405DB1C464FF000435242C6
:1028200063EB0403994208BF904230BD064C074D4C
:1028300006E0E06840F0010394E807009847103490
:10284000AC42F6D3FFF700FC3C1201018C120101EF
:1028500070B58C1810F8015B15F0070301D110F862
:10286000013B2A1106D110F8012B03E010F8016B8F
:1028700001F8016B5B1EF9D12B0705D40023521E12
:102880000DD401F8013BFAE710F8013BCB1A921C7A
:1028900003E013F8015B01F8015B521EF9D5A14278
:1028A000D8D3002070BD000010B51E480068002875
:1028B00000D080471C4900200870811E1B48016021
:1028C0001B494FF0007008601A4CD4F8C002800712
:1028D00004D4F42218A11DA005F4F4F32A480168D9
:1028E000D4F8C40261F31D3040F00100C4F8C40202
:1028F00004F4F2F200214FF03040C1608161C11751
:102900004161016204F4A4F208484038016821F4EE
:10291000800101601D480068002802D0BDE8104019
:10292000004710BD602480001049800044C500A00D
:1029300080E200E000E000A0727769705F736C6570
:1029400065705F636F6D6D6F6E2E63004D43555FF5
:102950005355422D3E424C455F44534C4545505FD4
:10296000434F52525F454E2026204D43555F5355ED
:10297000425F424C455F44534C4545505F434F5284
:10298000525F48575F454E00542480006424800005
:1029900000214FF03040C1608161C1174161016287
:1029A0000649022004220A60BFF34F8FBFF36F8FE6
:1029B0000860BFF34F8FBFF36F8F704780E100E077
:1029C00004490220C1F800010860BFF34F8FBFF334
:1029D0006F8F704780E100E00249096801F007014C
:1029E0000170704704C500A030B4062821D21249F6
:1029F0000A6802F00702824212D00A680F4B1A409E
:102A00000F4C22430A6000BF00BF00BF00BF0A682E
:102A10001A400C4B024333F8203042EA83420A60EA
:102A20000849183951F820000749086030BC76F48D
:102A3000E19230BC7047000004C500A0F8FFE3FF3E
:102A40000500080070000101004180000448006892
:102A5000044900F0070051F820000349086070475E
:102A600004C500A05800010100418000024801682F
:102A700041F470010160704788ED00E00248006891
:102A8000001D1EF4E9950000CC4380000248406818
:102A9000001D1EF4E1950000CC4380000FB4054BEF
:102AA00010B503A9044A029800F0AEF910BC5DF815
:102AB00014FB0000B1730001EC4380000FB41CB59F
:102AC0000246002007AC00290BD0491ECDE90021A9
:102AD000054B6A462146069800F096F9009A0021B7
:102AE00011701CBC5DF814FB373500010FB4084BA6
:102AF00010B504A902AA039800F086F9044602A9B9
:102B0000002000F023FD204610BC5DF814FB0000FF
:102B10004D3500017CB5044600201D4616460029AF
:102B20000BD0491ECDE90041044B6A462946304688
:102B300000F06AF9009A002111707CBD3735000160
:102B4000002804DB00F1E02090F80004704700F05A
:102B50000F0000F1E02090F8140D7047002804DB0E
:102B600000F1E02090F80004704700F00F0000F141
:102B7000E02090F8140D704702480068C0F302206E
:102B8000704700000CED00E010B52DED020B2DEDAF
:102B9000088B84B09DED0C0B51EC100BFFF7BAFDC8
:102BA00041EC180B9DED0C0B53EC182B51EC100B5A
:102BB000FFF7ECFB41EC190B0D989FED290B10F082
:102BC000004F53EC102B51EC190B9FED21AB9FEDF7
:102BD00022BB0ED0FFF7FAFD0ED953EC1B2B51ECA4
:102BE000190BFFF70BFE1CD214E000BF41EC180BD1
:102BF00017E0FFF7EBFD06D253EC1A2B51EC180B44
:102C0000FFF7C4FBF2E753EC1B2B51EC190BFFF75A
:102C1000F5FD06D853EC1A2B51EC180BFFF715FBFA
:102C2000E4E78DED028B9DED0C0B18EE901A10EE83
:102C3000900A8DED000B61F31E0003909DED020BD9
:102C400004B0BDEC088B02B010BD00000000000015
:102C5000000000000000F03F000000000000E03F26
:102C6000000000000000E0BF02E008C8121F08C119
:102C7000002AFAD17047002001E001C1121F002A8A
:102C8000FBD170472DE9FF5F82B00021DDE9043000
:102C9000020DDDF840B0034318D044F61050A2F204
:102CA000FF3242431514119801281FD0A5EB0B00E9
:102CB000401C5FEA000A4FF000064E4FDFF83891E3
:102CC000B046504615D5CAF1000413E0119801240E
:102CD0004AA3012801D16FEA0B010298119AC0E9B9
:102CE0000031C0E9024206B0BDE8F09FCBF1000020
:102CF000DFE704460021404A491842EB0450CDE981
:102D0000001012E0E00707D032463B4640464946F5
:102D1000FFF742FB8046894632463B46104619463D
:102D2000FFF73AFB06460F466410002CEAD1DDE9B6
:102D30000401DDE90023BAF1000F06DAFFF72CFBEE
:102D400042464B46FFF728FB05E0FFF797FB42465C
:102D50004B46FFF793FB04460E460022284BFFF735
:102D60004DFD03D84FF0FF30014607E00022254B10
:102D700020463146FFF769FAFFF710FD102409E0FD
:102D8000002C0ADB0A220023FFF778F9039B30327C
:102D90001A55641E50EA0102F2D1641C039AC4F170
:102DA00011031444119A012A03D0012208430DD1C2
:102DB0000AE0084304D000204FF0110B119072E795
:102DC000A3EB0B056D1E0DE05B4504DD4FF000022B
:102DD00005F1010504E003DA4FF00002A5F1010559
:102DE000002AECD002981199C0E90231C0E90045EF
:102DF00079E70000000014400000F03F30000000C0
:102E00000000F0430000E03F2DE9FF4F95B09B46E6
:102E10008946064600250FE2252877D1002427465B
:102E2000F84A0121059400E0044316F8013F203BD5
:102E300001FA03F01042F7D130782A2811D06FF050
:102E40002F033078A0F13002092A16D8059A44F0F1
:102E5000020402EB820203EB42021044761C05904E
:102E6000EFE759F8042B0592002A03DA504244F4A4
:102E70000054059044F00204761C30782E2816D1B8
:102E800016F8010F44F004042A280DD06FF02F0229
:102E90003078A0F13003092B09D807EB870302EB48
:102EA0004303C718761CF3E759F8047B761C307887
:102EB0006C280FD006DC4C2817D068280DD06A2863
:102EC00014D104E0742810D07A280FD10DE044F416
:102ED00000140AE044F4801401E044F440147278D1
:102EE000824202D104F58014761C761C3078662864
:102EF0000BD013DC582877D009DC002875D0452882
:102F0000F6D04628F4D047281AD19DE118E063286E
:102F100035D0642879D0652812D195E1702873D016
:102F200008DC6728F1D069286FD06E280DD06F2893
:102F300006D1B5E073282CD0752875D0782874D0C8
:102F40005A46179990476D1C75E1C4F30250022848
:102F500009D003280DD0D9F8001004280DD00D6039
:102F600009F1040967E1D9F80010EA17C1E9005234
:102F7000F6E7D9F800100D80F2E70D70F0E719F8C8
:102F8000041B8DF8001000208DF80100EA46012096
:102F900003E059F804AB4FF0FF3061074FF0000138
:102FA00002D40DE008F101018846B9420FDA8045EC
:102FB000F8DB1AF808100029F4D108E008F1010143
:102FC00088468142FADB1AF808100029F6D10598E4
:102FD0005B46A0EB080721463846179A00F094FAA2
:102FE000284400EB080507E04DE029E10DE01AF860
:102FF000010B5A4617999047B8F10108F7D25B4682
:1030000021463846179A13E142E00A220092C4F39F
:1030100002524FF0000A022A08D059F804CB032AC2
:103020004FEAEC710AD00DE029E02AE009F107012E
:1030300021F00702F2E802C1914609E00FFA8CFC88
:103040004FEAEC71042A03D14FFA8CFC4FEAEC7181
:10305000002907DA0A460021DCF1000C61EB0201CD
:103060002D2202E0220504D52B228DF80420012216
:1030700003E0E20701D02022F7E7904659E00A2159
:1030800002E010220DE010214FF0000A00910BE049
:1030900010224FF0000A44F004040827009203E0D5
:1030A00008224FF0000A0092C4F30252022A05D00F
:1030B00059F804CB0021032A08D009E009F10701DF
:1030C00021F00702F2E802C1914605E01FFA8CFCEC
:1030D000042A01D10CF0FF0C4FF00008220728D57C
:1030E000702806D0009B83F0100353EA0A0305D032
:1030F0000EE040228DF80420012208E05CEA010283
:1031000006D030228DF804208DF80500022290466A
:10311000009B83F0080353EA0A030AD15CEA010228
:1031200001D1620705D530228DF804204FF0010847
:103130007F1E582804D034A003900EA802900DE002
:1031400036A0F9E753466046009AFEF797FF84469B
:103150000398825C0298401E029002705CEA0100B3
:10316000F0D1029806A9081A00F1200A600702D5DA
:1031700024F4803400E00127574502DDA7EB0A0064
:1031800000E0002000EB0A01009005984144401A3D
:103190000590E00306D45B462146179A059800F097
:1031A000B3F90544002706E001A85A46C05D179907
:1031B00090476D1C7F1C4745F6DBE0030CD55B4652
:1031C0002146179A059800F09FF9054404E0302045
:1031D0005A46179990476D1C0099481E0090002987
:1031E000F5DC08E0029802995A460078491C0291E1
:1031F000179990476D1CBAF10001AAF1010AF1DCA0
:1032000065E10000092801003031323334353637AA
:103210003839616263646566000000003031323322
:1032200034353637383941424344454600000000C2
:1032300000F058F90544761C307800287FF4ECAD96
:1032400019B02846BDE8F08F620700D4062709F1BF
:10325000070222F0070CFCE80223E14603F00048D5
:103260005FEA080C02D00FF2702C0DE05FEA045CFC
:1032700002D50FF2682C07E05FEAC47C02D00FF29F
:10328000602C01E0AFF2700C4FF0FF3823F00043E8
:10329000CDF850C065280CD006DC452809D046285A
:1032A0001DD047283DD13DE0662818D067287ED143
:1032B00038E00021112F01DB112000E0781CCDE95E
:1032C000000106A90EA8FFF7DDFCDDE90F010E9A4B
:1032D00003910021009207F1010A04914DE04FF0A3
:1032E00000400097CDE9011006A90EA8FFF7CAFC1F
:1032F000DDE90F0203920E9B11990022DDF80CA06C
:103300000093049211B9791C00EB010AB7EB0A0093
:1033100004D4C0F1FF3007F1010A0490AAEB0700C2
:10332000019044E0012F00DA01270021112F01DD77
:10333000112000E03846CDE9000106A90EA8FFF7EC
:10334000A1FCDDE90F010E9A039100210491009286
:10335000BA4621070CD40399514500DA8A46BAF1DE
:10336000010F05DD009AAAF10101515C302908D056
:10337000B84202DA10F1040F06DA0121CDE901109A
:1033800015E0AAF10101E9E7002805DC04990144F0
:103390000491AAEB000102E0411C514500DD8A4680
:1033A0000499401A401C01904FF000400290200701
:1033B00004D40198504501DBCDF8048000208DF83D
:1033C0004F0002980DF14F07B0F1004F25D02B2090
:1033D0000E9002984FF0020800280CDA404202904A
:1033E0002D200E9007E00A210298FFF7EEF8303109
:1033F000029007F8011DB8F10001A8F10108F2DC04
:1034000002980028EFD1791E0E980870307800F0ED
:10341000200040F0450007F8020D12A8C01B00F183
:1034200007081498007800B1012000EB0A01019808
:1034300001EBE07105984144401A401E0590E003FD
:1034400006D45B462146179A059800F05DF80544BE
:103450001498007818B15A46179990476D1CE003EC
:1034600024D55B462146179A059800F04DF805448F
:103470001CE00498002807DBDDE90301884203DD36
:103480000098405C179901E0179930205A46904700
:10349000049805F10105401C04900198401E01901C
:1034A00004D12E205A46179990476D1CBAF100019D
:1034B000AAF1010ADDDC05E017F8010B5A4617995D
:1034C00090476D1CB8F10001A8F10108F4DC5B46DF
:1034D0002146179A0598ABE62D0000002B0000004E
:1034E000200000002DE9F041044600251E46174645
:1034F000880404D405E039462020B0476D1C641EC2
:10350000F9D52846BDE8F0812DE9F04104460025B3
:103510001E469046C80301D5302700E020278804C6
:1035200004D505E041463846B0476D1C641EF9D508
:103530002846BDE8F0814A68002A06D00A68531C74
:103540000B6010704868401E486070470A68531C42
:103550000B601070704700002DE9F05F0746894648
:1035600093464FEA5B04A2464D465F4EDFF87C81EE
:10357000EFF31080012181F31088D8F8A41221F014
:103580002001C8F8A41280F31088EFF31080012105
:1035900081F31088D8F8A01221F02001C8F8A012F9
:1035A00080F31088306820F08040306050483060F0
:1035B0003F20D8F8001160F30501C8F80011306809
:1035C00020F4601040EAC7403060306820F4E0200A
:1035D00040EA07403060052F03D1306840F40040D6
:1035E0003060062F03D1306840F48040306030688E
:1035F00040F400503060306820F060503060306837
:1036000020F00F0040F003003060EFF31080012144
:1036100081F31088344A3832116821F0E04141F0DA
:103620008041116080F31088306840F08040306045
:1036300001E0D8F80000D8F80401C0F30020002809
:10364000F7D1EFF31080012181F31088116841F068
:103650000041116080F3108834E000204FF47A714B
:103660001AE0884217D9306820F080403060306816
:1036700040F000403060306820F00040306007F0DB
:1036800033FC1C480168491C016054464D46052026
:1036900078F4B5D26CE7401CD8F80421C2F30022BC
:1036A000002ADED0D8F8040100F07F01A14200D941
:1036B0002146002003E0D8F8002004C5401C8842C1
:1036C000F9D3641A002CC8D15FEACB7008D0D8F8BF
:1036D0000401C0F300200028F9D0D8F800002880A9
:1036E000BDE8F05F07F000BC08C500A000E000A046
:1036F0000A070807044A80002DE9F04107460E46F4
:103700004FF000080024274D0BE004EBC40005EB4C
:103710008000801C07223946FEF71FFD40B1641C63
:10372000E4B22878A042F0D8B8F1000F18D102E036
:103730004FF00108F8E728780A21B0FBF1F201FB0D
:1037400012040A2801D2401C287004EBC40105EBC6
:1037500081003968C0F80210B988C180B979017256
:103760002B7811A21021002004F4AEF43078000769
:103770000BD504EBC40005EB800006F14601BDE863
:10378000F0410A301C22FEF7BDBC04EBC40005EB7F
:10379000800006F12A01BDE8F0410A301C22FEF744
:1037A000B1BC000010CD8000523A313A616464200F
:1037B0006C746B206974656D2C206E756D203D20D6
:1037C00025640A000449896B084004490A781043BB
:1037D00000220A7070470000002001A0044680000B
:1037E000104A114900280EDC0868C0F34120012866
:1037F00008D0506C401C5064086820F4C06040F44D
:103800000070086070470A28FCDB086810F4C06F7D
:10381000F8D0106C401C1064086820F4C060086088
:1038200070470000304780000CC500A006460F46D8
:10383000154672B63846FEF789FC402801D940206B
:1038400002E03846FEF782FC80463046FEF77EFCFA
:10385000402801D9402002E03046FEF777FC0446BC
:103860009C211048FEF767FC424639460D48FEF79A
:1038700049FC0C48224631465C30FEF743FC0948BF
:103880004FF0AA31016445644FF0BB3181644FF0C1
:10389000CC3101654FF0DD318165002000F004F886
:1038A000FEE70000CC8C800030B5ADF20C4D044634
:1038B0004FF4806103A8FEF73EFC184D202085F8E8
:1038C0003F0085F89B003CB12846012C436DC26C3B
:1038D00009D0022C0CD00FE0104A11A15C3203A8D1
:1038E000FFF704F908E011A103A8FFF7FFF803E0D0
:1038F00016A103A8FFF7FAF803A90BA2686CCDE99B
:103900000121009018A3054A18A1002000F04AFDEB
:1039100000F014FD0DF20C4D30BD0000CC8C800089
:103920005B4552524F525D20257300005B57415258
:103930004E494E475D20506172616D303A25642CCE
:10394000506172616D313A25640000005B50415254
:10395000414D5D20506172616D303A25642C50619B
:1039600072616D313A256400000000006170705F83
:103970006173736572742E6300000000014877F470
:103980007B9700006045800006460F4690461D4626
:1039900072B64046FEF7DAFB402801D9402002E02B
:1039A0004046FEF7D3FB04469C210D48FEF7C3FBBF
:1039B000224641460A48FEF7A5FB09484FF055311B
:1039C000016445644FF066318164C6644FF077311D
:1039D00001654765C94381650220FFF765FFFEE782
:1039E000CC8C80002DE9F04106460F4690461D46DE
:1039F0004046FEF7ABFB402801D9402002E040469C
:103A0000FEF7A4FB04469C210D48FEF794FB2246DA
:103A100041460B48FEF776FB09484FF0113101642F
:103A2000456449008164C6644FF0333101654765E0
:103A30004FF044318165BDE8F0410120FFF734BF0C
:103A4000CC8C80003EB504464FF400711A48FEF756
:103A500072FB207810B1012819D01DE00021174811
:103A6000A28830F831309A4207D100EBC10014A18E
:103A700043681148FFF73AF80EE02E2902D0491C9E
:103A8000C9B2EEE714A10C48FFF730F804E01DA11D
:103A900009486268FFF72AF8074921A22069CDE9A1
:103AA00001210090D4E902231EA1002000F07AFC3D
:103AB000BDE83E4000F042BCCC8A8000F04380006C
:103AC0004572726F7220636F6465203078253034E0
:103AD000583A2025730000004572726F7220636FA0
:103AE0006465203078253034583A204E6F20666F58
:103AF000756E6420696E666F726D6174696F6E2E8B
:103B00000000000028257329206973206E6F74203F
:103B100065737461626C69736865642E00000000EF
:103B2000257300006170705F6572726F722E6300A2
:103B30002DE9F041014600291BD000240F4E0E4A0A
:103B4000357814E002EB04100F780378BB420CD1F7
:103B50004B684068034208D0707808B900F0C0FB99
:103B60002046BDE8F04100F0EBBA641CE4B2AC4280
:103B7000E8D3BDE8F0810000748D80006C458000C2
:103B80007CB505460E46002D01D0002418E0052026
:103B90007CBD05EB041041680091017A8DF804109A
:103BA000417A8DF8051007218DF80610C26800785B
:103BB0000023694600F048F80028E9D1641CE4B20B
:103BC000B442E6D300207CBD10B50C46062833D2A3
:103BD000DFE800F0030303101E27184951F83000F6
:103BE0002104090C04D018B1214605F0C3FE1FE0E2
:103BF000042010BD2004000C03D0A1B2104805F031
:103C0000B9FE200C14D0210C0E4805F0B3FE0FE0D5
:103C100014F0FF0F03D0204605F0B2FC08E00420AA
:103C200010BD14F0FF0F05D02146002005F014FF51
:103C3000002010BD042010BD062010BD9C00010115
:103C4000000001A0001001A02DE9F05F05460C4620
:103C50009046994627680026052D13D039462846F8
:103C6000FFF7B2FF2146284600F0ACF800280AD141
:103C7000042D0AD0032D2ED04FF0100B2807060E6E
:103C8000002491E00620BDE8F09F4FF0080B20795A
:103C9000042806D0052809D006280DD0072815D1FC
:103CA00010E00021384601F412F00FE040F201115B
:103CB000384601F40CF009E04FF00111384601F4E8
:103CC00006F003E03B49384601F401F04FF0007084
:103CD00075F40ED2D4E74FF0200BD1E7F80760D08F
:103CE000052D65D2DFE805F00303032546003248C1
:103CF00000EBC50090F904A0BAF1000F17D0EFF364
:103D00001081012080F31088A01900EB40022B489D
:103D100000EB8200C0F80480C0F8089081F310889E
:103D2000504618F479D2504618F494D239E0042061
:103D3000A9E7EFF31082012080F31088A0191F4B30
:103D400000EB400003EB8001C1F80480C1F808904B
:103D5000032103F8201082F31088062018F45CD2A7
:103D6000062018F477D2072018F456D2072018F44A
:103D700071D216E0EFF31081012080F31088A019B2
:103D800000EB40020E4800EB8200C0F80480C0F84F
:103D9000089081F31088122018F43ED2122018F4F3
:103DA00059D27F08641CE4B25C4597D300206AE7CF
:103DB000062068E7010101009C00010100878000E6
:103DC0008088800070B58EB005460C46564901F1DA
:103DD00064004DC8CDE90A02CDE90C36D1E91E23B5
:103DE000486F06AED1F880100DC6099114224E49D5
:103DF000843101A8FEF786F9ACB14C4906200BF0DE
:103E000079F94B4907200BF075F94A4912200BF05C
:103E100071F94549444A2C31062D7CD2DFE805F082
:103E200006060621415905200EB070BD207931F8F3
:103E300010000B90607932F810000C90A0790D9072
:103E400020680A903848143050F835002188090459
:103E5000090C04D018B10AA905F0DAFD59E00420D4
:103E6000E2E7207931F810000B90607932F8100009
:103E70000C90A0790D9020680A9020680104090C2C
:103E800005D080B20A900AA92B4805F0C1FD206830
:103E9000010C3ED0000C0A900AA9284805F0B8FD94
:103EA00037E0207901EB4000408A0790607902EB0F
:103EB0004000C0880890A07909902068069020787A
:103EC00010F0FF0F03D006A805F09CFB21E00420B2
:103ED000AAE72079031F032B01D80720A4E70228B3
:103EE0001AD001200290207901EB4000808C0390D1
:103EF000607902EB400080890490A07905902068E9
:103F00000190207810F0FF0F09D001A9002005F0E2
:103F1000EBFD002088E704E002200290E3E70420A4
:103F200082E7062080E7000088000101034C800042
:103F3000FD4B8000F94B8000000001A0001001A0A3
:103F400010B502460C460020062A26D2DFE802F011
:103F50000303030B1A1F114850F83200A1B2BDE849
:103F6000104015F4B4952104090C03D0A1B20C48FB
:103F700015F4ADD5210C10D0210CBDE81040094836
:103F800015F4A595A0B2BDE8104013F47395A1B245
:103F9000BDE81040002005F0AABD10BD9C00010145
:103FA000000001A0001001A0002803D00249086011
:103FB00001207047002070477445800070B50546A9
:103FC0000024091F062917D2DFE801F003070C11AE
:103FD0001315284600F0A4F80EE00124284600F04E
:103FE0009FF809E00224284600F09AF804E0032430
:103FF00002E0042400E00524034A21462846126812
:10400000BDE8704010470000744580002DE9F04184
:104010000446204600F0AEF801462E48002308264C
:10402000025D00F10A0700F11405AAB1052A33D098
:10403000082A2AD1092945D0082926D1295D491CF9
:10404000C9B22955142920D32B5506552046BDE861
:10405000F0410821FFF7B2BF052913D0042916D07B
:10406000072914D0082910D1295D491CC9B2295546
:1040700014290AD32B5506552046BDE8F0410821E6
:10408000FFF79CBF3B5505210155BDE8F081204657
:10409000BDE8F041FFF792BF05290CD0395D491CFE
:1040A000C9B239553229F0D303552046BDE8F04155
:1040B0000521FFF783BF03552046BDE8F0410621E7
:1040C000FFF77CBF03552046BDE8F0410921FFF70B
:1040D00075BF0000548E800070B504460D4600F098
:1040E0000FF808B100F012F90348044A2946005DB0
:1040F0005268BDE870401047688D80006C458000B4
:104100000020064911F810200AB100207047401C19
:10411000C0B20A28F6D3012070470000728E8000DA
:104120000349002201F8102001EB40004270704763
:10413000728E8000014A02F810107047728E800063
:10414000024A012102EB400041707047728E8000EC
:1041500070B50024064D05EB4400407810B12046B0
:10416000FFF754FF641CE4B20A2CF4D370BD0000C6
:10417000728E800070B500211D4B03F132051A5C70
:10418000002A09D0002403F10A06012A0AD0022AD3
:1041900012D0032A24D11FE015F8102002B3012207
:1041A0001A541DE015F810201AB1345402221A5482
:1041B00016E01C54042113E015F810204AB1325CBB
:1041C000521CD2B23254642A0AD3072103221A5451
:1041D00006E005211C5403E015F8101011B1082168
:1041E000084670BD1C54FFF79BFF0921F8E700004B
:1041F000408E80002DE9F0410E4617460A2E02D867
:104200000FB1002320E00020BDE8F08103EB430460
:1042100010F82410032901D0042913D100EB8405E0
:10422000114AA97AD154104910F824200C3101EB1D
:104230000314227069686160297A2172697A617257
:104240000A49E1605B1CDBB2B342DFD3064831466A
:104250000C30FFF795FC0648067047600548FFF7ED
:10426000A3FE0120D0E70000688D8000313B0001F3
:104270006C458000D94000012DE9F0410024124F27
:10428000DFF8488019E0002607EB041528786968F4
:10429000FFF756FE10B9697A012902D0012802D031
:1042A00005E0012603E0687A022800D101263146A4
:1042B0002046FFF73FFF641CE4B298F800008442F8
:1042C000E1D3BDE8F0810000748D80006C45800072
:1042D00010B5FFF7D1FFBDE81040FFF739BF000070
:1042E00010B5074A0121074800F058F900220A21B9
:1042F000044800F0A1FA04490120487010BD0000F4
:10430000D1420001188E80006C45800010B5034832
:1043100000F06DF902490020487010BD188E800031
:104320006C458000002806D0002904D0024AD269DA
:10433000002A00D010477047A88A80000248006A0F
:10434000002800D000477047A88A800070B50D464D
:1043500016460D4C00280AD00178032911D80121F6
:10436000A17601461A222046FDF7CCFE05E000208A
:10437000A0761A210448FDF7DEFEE56126620020E2
:1043800070BD012070BD0000A88A8000044A10445E
:10439000807D084201D00120704700207047000056
:1043A000A88A80002DE9FE4FDDF830B0064692461F
:1043B000994600240027019702975A480178B14294
:1043C00002D2807E00287DD10DF13808CDF8008022
:1043D000EFF311850220FEF7C1FB01465248006849
:1043E000C0F30220401C012282408818C0B280F332
:1043F000118801213046FFF7C9FF38B14B484C49BD
:1044000050F82620204600F0A5F804461C2130462E
:10441000FFF7BCFF00285ED046A24549204600F0C9
:1044200099F8204484B204213046FFF7AFFFF8B179
:1044300052463F49204600F08DF8204484B20821BE
:104440003046FFF7A3FF38B13BA23949204600F0C0
:1044500081F8204484B20BE010213046FFF796FF2C
:1044600030B136A23249204600F074F8204484B2BC
:1044700008213046FFF78AFF90B14A462C49204672
:1044800000F068F8204484B210213046FFF77EFF28
:1044900030B12BA22649204600F05CF8204484B2BB
:1044A00010213046FFF772FF70B15B4626A205214E
:1044B00001A8FEF703FB01AA1D49204600F04AF8B7
:1044C000204400E02BE084B220A21949204600F0ED
:1044D00041F8204484B21648C4F580712044434614
:1044E0000D9AFEF717FB00974FF48071002804DB4C
:1044F0002044884201DC86B200E00E46B01C8842AF
:1045000000D9FE2612A20A49304600F023F83044B2
:1045100081B20748FFF706FFE8B280F31188BDE8D3
:10452000FE8F0000A88A80000CED00E0DC438000D4
:10453000A889800028000000200000003A00000048
:10454000204C696E653A0000256C6400292000004B
:104550000D0A000030B50546002000290CD0002AC5
:104560000AD006E02B18FF2B06D8CC54521C401C56
:1045700080B21478002CF5D130BD000010B5064A89
:1045800006214CF2010008F0F7FE02F057F9BDE8F1
:104590001040022074F46693440101012DE9F041BA
:1045A00004460D461746002D04D0012D02D00120EF
:1045B000BDE8F081CCB1C7B1EFF311860220FEF760
:1045C000BFFA8046FEF7D8FA401C0121814008EB73
:1045D0000100C0B280F3118800206070A570E7610F
:1045E000F0B280F311880020E2E70120E0E710B587
:1045F0000446002C0CD0204600F0B0F9FF2060707B
:104600000021A160E160216161610020E06110BDD5
:10461000012010BDF0B5DDE90745059981614FF432
:104620007A76A2FB061C03FB06C3002702FB0732B7
:10463000C0E9021209196A41C0E9041200210162AD
:10464000F0BD00002DE9F0410446002C13D0EFF33B
:1046500011850220FEF774FA0746FEF78DFA401C1A
:10466000012606FA00F03844C0B280F311881248DF
:10467000002121620EE00020BDE8F081D4E904327F
:10468000D1E9047CDB1B72EB0C0202D2016A2162CD
:1046900003E00846016A0029F0D10462667006480A
:1046A00020380168491C0160016C4160E8B280F368
:1046B00011880120E0E70000588980002DE9F041D1
:1046C00005460024EFF311860220FEF739FA07466B
:1046D000FEF752FA401C012181407818C0B280F3E5
:1046E0001188134A106CE8B115B102F1200010E0F6
:1046F0000446206A10641068401E10600CE0A94255
:1047000006D11168491E1160296A01622C4603E036
:104710000846016A0029F2D124B1002020626070AD
:10472000106C5060F0B280F311882046BDE8F08133
:10473000388980002DE9F041EFF311870220FEF760
:10474000FFF90446FEF718FA401C01218140601869
:10475000C0B280F31188114D002608E020780128AE
:1047600004D1E16909B1A069884726702D6A2C6AD5
:10477000002CF3D1094D203D07E0E16909B1A069A2
:1047800088472670206AA8602662AC68002CF4D1A5
:10479000F8B280F311880120BDE8F08158898000CB
:1047A0002DE9F041EFF311870220FEF7C9F9044625
:1047B000FEF7E2F9401C012606FA00F02044C0B2E0
:1047C00080F311881B4DA5F1200829E0D4E90420CD
:1047D000D8E90413521A60EB0300D8E906319A1A9B
:1047E000814120D326702046FFF768FFA07801287A
:1047F00002D0104818380DE0D8E90430D4E902217D
:104800009A184841C4E904202046FFF71BFF07E03F
:1048100001F1200001680029FAD1216200680462D8
:104820002C6A002CD2D1F8B280F311880120BDE8A7
:10483000F0810000588980002DE9FF5F82460E4616
:1048400093464FF00008BAF1000F20D0414886424D
:104850001DD8E6B1EFF311870220FEF771F9044687
:10486000FEF78AF9401C012181406018C0B280F334
:104870001188504606F0A8F810B19AF8010040B12E
:10488000F8B280F311880F2004B0BDE8F09F01203A
:10489000FAE708F079FC04460D464FF47A7106FBFE
:1048A00001F022462B46002106F05EF8DFF8A890C2
:1048B000B0B1D9F8040048B1D0E90410091B60EB8D
:1048C0000500C9E9041008F0FBFC04E00021C9F868
:1048D0001010C9F814104FF00108D9E9040106E0DE
:1048E000D9F80400D0E90421101B61EB0501CDE9E2
:1048F000020132460023CDF800B05046FFF78AFE91
:104900005046FFF79FFE0AF093FA4FF0E021D1F8EE
:1049100000014FF0806210F0806F01D0012000E0B4
:10492000002018B9C1F88022C1F80021B8F1000FA9
:104930000AD0D9F80400D0E90431D9E90402181AE0
:1049400061EB020108F056FCF8B280F311880020F8
:104950009AE70000008AB907388980002DE9F04104
:1049600004460025002C39D0EFF311870220FEF712
:10497000E7F80646FEF700F9401C01218140701857
:10498000C0B280F311886078012824D1144E706879
:10499000A0420BD108F0F8FBD4E90432181A62EBFC
:1049A0000102C6E9040208F08BFC01252046FFF74E
:1049B00085FE5DB1706848B1D0E90421D6E90403F1
:1049C000101A61EB030108F015FC04E01DB97068D2
:1049D00008B908F075FCF8B280F31188BDE8F081E1
:1049E0003889800070B504461A4D55F8240070309F
:1049F00009F0E5FC82B21646A2B155F8240090F801
:104A0000011101290ED0012180F80411802A0FD351
:104A100055F82400802200F18001703009F0E4FC98
:104A200080260CE055F82410002081F8000170BDAC
:104A300055F8240000F18001703009F0D5FC55F8DC
:104A40002400324600F18001001D1CF4F3D7002839
:104A5000EDD170BDCC438000704700002DE9F843D4
:104A600004464B4E56F82400071D022C7ED290F8C7
:104A70006C1000297AD0012978D180F80111002525
:104A800056F82400D0E903120A44017D01F0010127
:104A9000C91D02EB01084168CA6FC2F38002002AF7
:104AA000FAD090F80411E1B1DFF8E8906D1C56F8E7
:104AB0002400001D05F078FA10280BD056F82400C9
:104AC000D9F800108068B1FBF0F000FB08F0B5EBFE
:104AD000C01FEBD956F82400703009F070FC85B285
:104AE00026E0B0F82480C58C001D1CF41BD456F8B9
:104AF000240041F2883300EB0801491B8031001D7E
:104B00002A461CF45CD7E5E756F8240001227030F1
:104B1000694609F069FC56F824004068C16FC1F38A
:104B200040010029FAD09DF8001001606D1EADB261
:104B3000002DE9D156F82400703009F040FC00281F
:104B4000C8D1386841694906FCD5EFF310850120CA
:104B500080F3108856F82400703009F030FC68B1FA
:104B6000EFF31081012080F3108800E00DE0386839
:104B7000426842F08202426081F3108856F82410A5
:104B8000002081F8010185F31088BDE8F88300005A
:104B9000CC438000004180002DE9F04389B00546F8
:104BA00088462C78002D06D02AB1022C05D3082087
:104BB00009B0BDE8F0830520FAE7384E05F158004A
:104BC00046F82400D2E900310A467030194609F04F
:104BD000E1FB291D894624220C316846FDF792FA33
:104BE000291D286D0EC90AF061FF0028E0D12C496B
:104BF0000C200AF07FFA2B490D200AF07BFA2A4894
:104C000000EBC40797F9010017F406D397F90100E8
:104C100017F420D356F82400C0F8649056F8240006
:104C2000C0F8008056F824001822083005F1400131
:104C3000FDF768FA56F824107868486056F82400A2
:104C4000001D05F085F956F82400001D05F0B6F9A1
:104C5000351F0127287850B92F70134803211030D1
:104C600008F07CFF6880002801DA0420A0E756F8ED
:104C7000240080F86C7056F82410002081F80001A0
:104C800056F8241081F8010156F8241081F8020129
:104C900056F8241081F803018AE70000CC43800015
:104CA0007D2A00018D2A0001280101012DE9F04132
:104CB00004461A4D55F82400703009F080FB82B28A
:104CC000164600277AB155F8240090F80111012901
:104CD00009D0802A0ED300F180017030802209F0C3
:104CE00083FB80260BE055F8240080F8007100203B
:104CF000BDE8F08100F18001703009F075FB55F8D6
:104D0000240080F8047155F82400324600F1800137
:104D1000001D1CF4D5D60028EAD1E9E7CC43800079
:104D200070B5022801D3082070BD0C4D55F8204005
:104D30007CB194F86C6066B169B162B1002684F808
:104D4000026155F82000001D1CF439D60028EBD173
:104D500070BD052070BD042070BD0000CC438000F4
:104D60002DE9F04106460C46174604F10805204699
:104D700070F422D5C3B21B48E1184268914202DDAB
:104D80000320BDE8F0811849184A006809681268D4
:104D9000891A081A001FE91881421CD94FF40045EE
:104DA00013A22946002003F48FF101F02FFE30B149
:104DB00018A22946002003F487F10820E1E71DA28C
:104DC0002946002003F480F13A4621463046BDE8EA
:104DD000F0410BF089B83A4621463046BDE8F04133
:104DE0000BF082B8D8328000D0238000CC23800022
:104DF000523A353A4E5644532061726561206973C8
:104E0000206265696E6720636F6D706163746564AD
:104E10002E0D0A00523A353A436F6D706163746922
:104E20006E67204E564453206661696C65640D0AB6
:104E300000000000523A353A436F6D706163746947
:104E40006E67204E564453207375636365737366B3
:104E5000756C0D0A000000007CB50D460022009222
:104E60000192694603F432F1044634BB4FF42051F9
:104E7000684603F42DF1B8B942F60101684603F41F
:104E800027F188B942F60301684603F421F158B9C5
:104E900042F60201684603F41BF128B94FF424518D
:104EA000684603F415F108B1062406E00098C5F33E
:104EB0000B01808808430099888020467CBD000053
:104EC0002DE9F04782460E46174698464FF00109F5
:104ED0000025D8F80040002C18D11E48046815E0C1
:104EE0003188A08881420BD3E088814204D82146D2
:104EF000504600F031F808B1246807E0012505E0CC
:104F00002146504600F028F810B1246825B105E08C
:104F10000125A0883080F9E7002CE1D1B5B14FF030
:104F20000009A0883188884204D1201D3860012002
:104F3000387109E0081A401E00EB400004EB400005
:104F40000E30386000203871C8F800404846BDE88F
:104F5000F0870000F80E800070B586B0002200EBEC
:104F60004003114C03EBC00304EB43052C7D17E019
:104F700035F8123093B18E889E420FD8CE889E426B
:104F80000CD3CA8889888DE81F00084B084A402145
:104F9000002003F499F0012006B070BD521CD2B27B
:104FA0009442E5D80020F7E794CE80004A0401013E
:104FB000DC0B01012DE9F04F8BB007460C460025B4
:104FC00000200890099060880790261FE188A28839
:104FD000CDE901210090614B61A24021002003F442
:104FE00073F0308850B9384610F418D0401E308025
:104FF0006088A188884200D800B90125DFF8909127
:10500000002D60D104F10A000DF1200A0DF1140BFE
:1050100004F106080A90A088069004A8CDE9020BC6
:10502000CDE9008A022306AA07A9384600F0ACF9A8
:105030000546280008D00A2D45D0062D43D0BDF8DE
:105040001800401C079032E0E088B0F5205F03D0E4
:1050500042F60101884208D1BDF81000217AC3B29E
:10506000059A0A9803F436F048B92289BDF8100071
:10507000824218D105990A98FDF76FF898B9022174
:1050800008202AF421D70146BDF81C008880BDF80D
:105090001800C880083E59F82700603003F41CF05F
:1050A000384603F41BF0BDF81800401C0790A08898
:1050B000BDF81C10884206D3BDF81810884202D0F3
:1050C00030880428A7D2062D36D059F82700603042
:1050D00003F406F040B300244FF6FF7101EA8006A6
:1050E000062000EB072307220421384600962DF402
:1050F0009BD201464E8059F82700006E0EE083884F
:105100000A1913711B0A5371A41CA4B2C3880A198B
:1051100013711B0A5371A41CA4B200680028EED1BD
:10512000084602F4DFF70AE021780A23BDF81C20C4
:10513000384602F4D9F702E0BDF81C006080074B46
:1051400014A240210020009502F4BEF7062D03D0E2
:1051500000200BB0BDE8F08F0120FAE71204010136
:10516000523A333A5B25735D20656E7465722C206C
:1051700073683D307825782C2065683D3078257837
:105180002C20747970653D307825780A0000000085
:10519000C40E8000523A333A5B25735D206578690E
:1051A000742C207374617475733D307825780A000F
:1051B0002DE9F04F85B081460E4648460FF42ED7B4
:1051C000801E1FFA80FAD0460024B0887188CDE98D
:1051D0000010574B57A24021002002F475F7708849
:1051E000B188DFF874B1884211D880B1708804901A
:1051F000002002900390019001AB02AA04A9484646
:10520000FFF75EFE0546280003D00A2542E001258F
:1052100040E0B088BDF81010884232D30221182037
:105220002AF452D60746012000900023FA1DB91D2A
:1052300002A802F45BF70546280007D040F24E238F
:1052400046A22946BDF8100002F452F7BDF810003E
:10525000B88004B9BC79B879A04203D038462AF4A2
:10526000B3D417E05BF829003946603002F434F714
:10527000A8EB0400801E1FFA80F8BDF81000401C47
:105280000490B188BDF81000814203D310B1A01C76
:105290008045B1D25BF82900006E18B1002018B12A
:1052A0009DB334E00120FAE70026AAEB08081FFAB4
:1052B00088F00090062000EB0923052204214846CF
:1052C0002DF4B2D10746022C08D0022078707888DD
:1052D000404478805BF82900046E10E00120F5E777
:1052E000A188B8198180B61CB6B2B819A279001D80
:1052F000E11DFCF707FFA079304486B22468002C3A
:10530000EED1384602F4EEF607E0FFE70A25728890
:1053100031782B46484602F4E7F6054B13A24021AC
:105320000020009502F4D0F605B00020BDE8F08F13
:10533000F9030101523A333A5B25735D20656E74BF
:1053400065722C2073683D307825782C2065683D87
:10535000307825780A000000C40E800061747473F0
:105360005F70617463682E6300000000523A333A44
:105370005B25735D20657869742C20737461747586
:10538000733D307825780A002DE9F04F87B08346C9
:10539000DDF844900C4615469A460026B4F8008085
:1053A0000027019701AB4A4621465846FFF788FD82
:1053B00010B12888208026E02088298888421BD8C0
:1053C000002302AA06A94846009702F48FF6014678
:1053D00029B1208840F269131AA202F489F69DF8D7
:1053E000183002AA5146109802F474F608B101264A
:1053F00002E02088401C20802EB92088298888421D
:1054000001D80028CED16EB122884B4600215846E3
:1054100002F470F6C6B22088494602F46DF6288080
:1054200026B10AE00A26A4F8008006E02188DDE91A
:105430001223584602F462F6C6B207B03046BDE801
:10544000F08F0000617474735F70617463682E6321
:10545000000000002DE9F04105460C46FF26217AA8
:105460001E2905D022480279521E52B200683AE045
:1054700004F10801284602F443F6064635E010F828
:1054800032308B422DD11B4E56F82500406F30B381
:1054900000273B4618A24021002002F415F6062002
:1054A00000EB05202AF466D7C00605D5002717A211
:1054B0004021002002F408F621460C3956F8250058
:1054C000743002F409F60020A08001266FB115A205
:1054D000402102F4F9F5284602F414F605E001270C
:1054E000D7E7521E52B2002AC9DA3046BDE8F08131
:1054F0007C058000C40E8000523A333A65786563BB
:105500007574653D307825780A000000523A333AC8
:10551000636F6E6E656374206E6F742063666D0AD0
:1055200000000000523A333A737461727420657857
:1055300065637574650A00000348024901600D2126
:1055400041607047580301017C0580002DE9F04F50
:105550008BB082460C460026002009900A90608895
:105560000890251FB0462988A288CDE90121009026
:105570006D4B6EA24021002002F4A6F5288850B998
:1055800050460FF44BD5801E28806088A188884241
:1055900000D800B90126714850F82A00006E10B1F9
:1055A000002111B103E00121FBE790F80680002EF5
:1055B0005DD104F1080BA088079006A805A909AAE7
:1055C000CDE90210CDE900B2A37907AA08A9504697
:1055D000FFF7DAFE0646300049D1BDF814108845C1
:1055E00002D0B8F1000F42D12888001FFB22FB280F
:1055F00000D31046814200D2084687B2022107F14B
:105600000C002AF461D48146BDF81480BDF8200056
:10561000A9F80400BDF81C00A9F8060089F8087074
:105620003A4609F109000699FCF76CFD2888C01B71
:10563000001F28804948494650F82A00603002F48B
:105640004BF5BDF81400874202D1504602F446F5EE
:10565000BDF81C00411C89B20891A2888A4206D379
:10566000824204D0298808F104008142A3D2062E88
:1056700048D03A4D55F82A00603002F431F5C0B3F5
:10568000002755F82A100C6E217A091D41431FFA94
:1056900081F8062000EB0A23112204215046CDF8A0
:1056A00000802CF4C1D70546A5F80280217A091D97
:1056B000697018E0A188E8190171090A4171BF1CDD
:1056C000BAB2E188A8180171090A4171921C97B217
:1056D000E819227A001D04F10901FCF713FD207A74
:1056E000384487B22468002CE4D1284602F4FAF446
:1056F0000BE0FFE721783346BDF82020504602F446
:10570000F3F402E0BDF820006080074B14A24021B2
:105710000020009602F4D8F4062E03D000200BB02F
:10572000BDE8F08F0120FAE7D9030101523A333A7C
:105730005B25735D20656E7465722C2073683D3047
:105740007825782C2065683D307825782C20726586
:105750005F6C656E3D307825780A0000C40E8000CD
:10576000523A333A5B25735D20657869742C207357
:1057700074617475733D307825780A002DE9F04F17
:105780008BB082460C460026002009900A90608863
:105790000890251FB046A188694BCDE9000169A298
:1057A0004021002002F490F4288850B950460FF4AC
:1057B00035D4801E28806088A188884200D800B92E
:1057C0000126694850F82A00016E11B1002010B17D
:1057D00003E00120FBE791F80680EEBB04F1080B23
:1057E000A088079006A805AA09A9CDE90220CDE95D
:1057F00000B1A37907AA08A95046FFF7C5FD0646E0
:10580000300047D1BDF81410884502D0B8F1000F20
:1058100040D12888801EFD22FD2800D310468142F9
:1058200000D2084687B2022107F108002AF44CD3BF
:105830008146BDF81480BDF82000A9F8040089F85D
:1058400006703A4609F107000699FCF75BFC2888C8
:10585000C01B801E288000E01CE04348494650F8E9
:105860002A00603002F438F4BDF81400874202D1F7
:10587000504602F433F4BDF81C00411C89B2089173
:10588000A2888A4206D3824204D0298808F1020005
:105890008142A5D2062E40D0334D55F82A00603003
:1058A00002F41EF480B3002755F82A100C6EA1797B
:1058B000891C41431FFA81F8062000EB0A230922C4
:1058C00004215046CDF800802CF4AED60546A5F84C
:1058D0000280A179891C697010E0A188E819017122
:1058E000090A4171BF1CBFB2E819A279001DE11D70
:1058F000FCF708FCA079384487B22468002CECD16E
:10590000284602F4EFF30BE0FFE721783346BDF8B9
:105910002020504602F4E8F302E0BDF82000608049
:10592000074B12A240210020009602F4CDF3062E70
:1059300003D000200BB0BDE8F08F0120FAE7000093
:105940002E040101523A333A5B25735D20656E7473
:1059500065722C2073683D307825782C2065683D71
:10596000307825780A000000C40E8000523A333A9D
:105970005B25735D20657869742C20737461747580
:10598000733D307825780A002DE9FF5F81460F4688
:105990000024A246CDF808A0CDF80CA0584850F835
:1059A0002900603002F49CF380463D1F79882888E6
:1059B000544BCDE9001054A24021002002F484F39E
:1059C0002888E8BB48460FF429D3401E28800026CB
:1059D00011E007EB460002AB82880021484602F442
:1059E00089F3C4B2CDF808A0CDF80CA00CB1B04634
:1059F0003BE0761CB6B27888B042EAD835E007EBD7
:105A000048006B46818801AA484602F477F3C4B285
:105A10003CBBBDF804002988884200D3084686B202
:105A2000022106F108002AF44FD28346ABF8046045
:105A300032460BF106000099FCF764FB304800E0A9
:105A400013E050F829005946603002F445F3484607
:105A500002F444F32888801B288008F101081FFA0B
:105A600088F8CDF808A0CDF80CA07888404503D977
:105A7000288808B1002CC2D044BB48460FF4CED2CF
:105A80002988401A401E86B20025062000EB092313
:105A90000F220421484600962CF4C6D58246AAF867
:105AA0000260174850F82900066E0AE00AEB05006C
:105AB000B288001DB11DFCF725FBB088284485B2D3
:105AC0003668002EF2D1504602F40CF34CB1062C8D
:105AD00007D007EB4800397882882346484602F40D
:105AE00003F3084B14A240210020009402F4ECF2CE
:105AF000062C03D0002004B0BDE8F09F0120FAE797
:105B0000C40E8000C0030101523A333A5B25735D35
:105B100020656E7465722C206E625F68616E646CC5
:105B2000653D307825782C2072655F6C656E3D3060
:105B30007825780A00000000523A333A5B25735DFD
:105B400020657869742C207374617475733D3078A6
:105B500025780A0010B500210A4C0023002001EB33
:105B6000410202EBC10204EB420222F81030401C59
:105B7000C0B20A28F9D31375491CC9B20A29EDD35A
:105B800010BD000094CE80001FB50F4890F80201B0
:105B9000002818D068464EF4CDD3DDE900010B4C47
:105BA000CDE90201E1680844094920F070404860ED
:105BB00008464EF455D6607818B1BDE81F4008F08D
:105BC00033BD08F04DFD1FBDC01A8000B8488000ED
:105BD000B41A800010B586B0002060F45BD504468E
:105BE0004CB114220A4901A8FCF78CFAADF8084020
:105BF00001A8FDF727FF07494888401C4880C207D5
:105C00004FF0010002D0487006B010BD0870FBE7ED
:105C100084010101B045800002460020002152F8B5
:105C200021300BB1401CC0B2491CC9B20C29F6D3BB
:105C3000704710B506F0C6FDBDE8104002F02EBD5D
:105C400006F056BB10B58CB008A809F031FCBDF8C1
:105C5000221009989DF82120CDE904109DF82030EC
:105C60003FA040F20F11CDE90232CDE90010464BC2
:105C700046A24CA10220FEF795FB0AA860F498D139
:105C8000044654B114224049103103A8FCF73AFAF3
:105C9000ADF8104003A8FDF7D5FE9DF828009DF84B
:105CA0002910CDE906109DF82A209DF82B30CDE96A
:105CB00004329DF82C109DF82D003CA24FF48A73FD
:105CC000CDE90032CDE902012F4B30A235A10220EF
:105CD000FEF768FB40A04FF48E71CDE900102A4B0F
:105CE0002AA230A10220FEF75DFB02F0EBF9404A48
:105CF00001214048FEF752FC044654B114222249C7
:105D0000243103A8FCF7FEF9ADF8104003A8FDF715
:105D100099FE002241F288313648FEF78DFD044697
:105D200054B114221849383103A8FCF7EBF9ADF847
:105D3000104003A8FDF786FE2F49002000F062F90D
:105D40000446002C0AD014220F494C3103A8FCF75A
:105D5000D9F9ADF8104003A8FDF774FE0CB010BDE2
:105D6000476F6F64697820424C452053444B20565E
:105D700025642E25642E25642028636F6D6D69745B
:105D80002025782900000000E40101012E2E5C533B
:105D900072635C757365725C757365725F61707058
:105DA0002E6300004E4F5F54414700004C6F63610B
:105DB0006C20426F61726420253032583A253032AF
:105DC000583A253032583A253032583A2530325830
:105DD0003A253032582E0000426561636F6E2065AF
:105DE00078616D706C6520737461727465642E00E7
:105DF000D55B000138CB8000B44580002DE9F0412F
:105E00000546884628466AF49BD1C0B224490978E1
:105E100088420DD200EB4000213040F40040424661
:105E2000AC2107F0A9FA0446200032D0012430E06A
:105E30006AF4CAD1C7B207EB470606F1200040F466
:105E400000402A46072107F097FA10B10120BDE86B
:105E5000F081384676F408D306F1210040F4004082
:105E60004246AC2107F088FA0446200001D0012008
:105E7000EDE7223646F4004071F4C8D30949C7EB78
:105E8000C7000968084429680160A9888180A97948
:105E900081711CB941462846FDF72EFC2046D6E705
:105EA000382380003C23800010B508F033FC08F054
:105EB0005FFC08F0CDFB08F051F809F093FC00F00E
:105EC00039FB08F069FC00F083FABDE8104000F0EF
:105ED00065BA07F0C7BF10B505F0CAFB06F07EFD36
:105EE00005F0D6FB05F0DAFF05F036FC04F086FF7E
:105EF000FFF722FB02F082FF08F0E2FC09F0D8F87D
:105F0000BDE81040FFF726BE0148FFF785BE000040
:105F1000B413800010B5FFF7DCFF054903480860A3
:105F2000BDE81040034875F41195000017B88004CF
:105F300074C500A00087930310B50446002C0CD054
:105F4000204600F0C7F9002807D104494968002914
:105F500003D02046BDE81040084710BDE846800049
:105F60000EB50188B1F5807F0ED0A1F5007107391B
:105F70000ED001291BD0FF2918D1007903B00121CF
:105F80005DF804EB60F41096BDE80E40FFF75ABED2
:105F9000408800280AD009A1F722CDE9002102900B
:105FA0000F4B10A215A10320FEF7FCF90EBD40888F
:105FB0000028FBD1BDE80E4009F012BE41647665B1
:105FC0007274696E672073746172746564206661AF
:105FD000696C656428305825303258292E0000003D
:105FE000D40101012E2E5C5372635C757365725C83
:105FF000757365725F6170702E6300004E4F5F5461
:10600000414700002DE9F84307460D46EFF311869E
:106010005648017856480068C0F30220401C01220F
:1060200082408818C0B280F311886AF45FD180463C
:10603000052F06D34FA21021002002F445F01524AD
:1060400081E07DB14E48C7EBC70100EB8104E068F9
:1060500040B1617A69B14BA21021002002F434F002
:106060000F2470E04AA21021002002F42DF0022437
:1060700069E02169F1B9017841B1012910D047A245
:106080001021002002F420F023245CE081784907ED
:1060900010D445A21021002002F416F0232452E06F
:1060A0008178890706D443A21021002002F40CF065
:1060B000232448E041888A0704D50278012A01D1C7
:1060C00062691AB10278022A07D008E03CA21021C6
:1060D000002001F4F9F7252435E0A26962B109072F
:1060E00011D5298809B180290DD938A210210020A5
:1060F00001F4EAF7262426E037A21021002001F45B
:10610000E3F724241FE0407802280CD1288818B136
:1061100044F25061884206D932A21021002001F4D5
:10612000D3F726240FE0E06928B90021042065F4A4
:10613000DBD3E061B8B1E06929680160394600202D
:106140006AF430D200243B4629A21021002000949A
:1061500001F4BAF740466AF493D0F0B280F31188A4
:106160002046BDE8F8831024EDE7000002E400E0DB
:106170000CED00E0523A313A453A310A0000000095
:106180007C278000523A313A453A330A0000000039
:10619000523A313A453A320A00000000523A313A56
:1061A000453A360A00000000523A313A453A340A7C
:1061B00000000000523A313A453A350A000000002A
:1061C000523A313A453A370A00000000523A313A21
:1061D000453A390A00000000523A313A453A380A45
:1061E00000000000523A313A453A31300A000000CE
:1061F000523A313A6164765F73746172745B2564FC
:106200005D3A20453A3078253032780A00000000A7
:106210000A2805D2034A002152F8200080F88F1086
:1062200070470000C40E800070B504460D4620463D
:1062300008F004FB002805D129462046BDE870403F
:1062400062F4B89670BD000000B58BB0094901201A
:106250000870FF22282101A8FBF766FF4FF4807029
:10626000ADF804000020ADF8060001A8FFF764FEB9
:106270000BB000BDE846800010B506480068002855
:1062800000D08047FFF7D2D908B1012010BD00200F
:1062900010BD00001849800010B540F4404071F472
:1062A000B5D110BD10B540F4404007F065F810BD01
:1062B0000449016004494160044981600449C160A6
:1062C0007047000041C2060015C20600A562000129
:1062D0009962000170B50446002C1FD04FF6FF7381
:1062E0001946228840F20155A2F201504FF48076FF
:1062F000AA424CD01BDC40F20245A2F20240AA4264
:1063000034D00DDCA2F54072013A25D0012A23D009
:10631000FF2A29D0B2422ED121892CE0002070BD65
:10632000012825D0022825D0FE2824D12AE00428DF
:106330002DD006DC01282AD0022828D003281AD123
:1063400025E0052823D0062821D0B04213D12046CD
:1063500002F006FC002070BD204602F039FF204606
:1063600002F0D4FD002070BD218904E0218902E003
:10637000618900E0218A99420ED0204602F038FF60
:10638000012070BD204602F055FE002070BD204661
:1063900002F0CCFD002070BD002070BD10B52021A2
:1063A000094807F091FC0721084807F087FC012104
:1063B0000548083807F07CFCFFF78DFD0520FFF746
:1063C0003FFCFFF736FC10BD1041800010428000FA
:1063D0000449034808600549034808607047000005
:1063E0009D7B00010C228000D97D000118228000D5
:1063F00070B50026150A0E4805EB450200EB0214A5
:10640000098821800120A0702846FFF701FF0020A5
:1064100069F436D70748016829B10B681BB1228897
:1064200000212846984769F461D7304670BD0000C6
:10643000D42E8000B82280003EB500241D0A0A78C0
:10644000122A02D0132A04D006E000208DF80000A2
:1064500002E001208DF800008888ADF8040048882B
:10646000ADF80200891D0291002069F409D70B489C
:10647000016829B18A691AB169462846904708E03F
:106480009DF80000012804D1BDF804102846FFF74C
:10649000CBFE69F42BD720463EBD0000B42280001D
:1064A0000148007870470000124A80007CB50E4613
:1064B000150A0020009001906946284673F45ED7C3
:1064C0009DF806206946284602F05AFB0446CCB1E6
:1064D00063F45CD5C0B163F459D5C01C81B2328875
:1064E000002320466EF43AD16946284608F024FA83
:1064F00040B106A24021002001F4E6F5214668469D
:106500005FF4A2D200207CBD0020E7E7523A333A84
:106510007361766520636363640A00007CB5DDE91E
:106520000654CDE9005467F45DD3BDE87C4007F024
:1065300053BB000002490148086070471D65000117
:106540004823800010B588B0044667F4D9D50020F0
:10655000079007A855F480D40798FFF7A9FE206894
:10656000019060680290A0680390E0680490208A1F
:10657000ADF81400608AADF81600A08AADF81800D6
:10658000E08AADF81A0001A855F490D455F470D4FF
:106590000348016801614168416108B010BD000015
:1065A000300100B010B58AB00446FF2228216846A9
:1065B000FBF7BAFD40F20271ADF800100021ADF812
:1065C00002108DF804406846FFF7B6FC0AB010BD13
:1065D00000230849496808E0CA88824204D80A8929
:1065E000824201D3CB6802E009680029F4D1184641
:1065F000704700003049800070B519480468194D93
:106600002878002801D0002070BD4FF0806072F41F
:106610006FD500F413F4600873F47AD4124908605B
:106620008817114901262C39086010497006C1F8F5
:10663000FC01C8674FF03041086B40F00700086369
:10664000094C303C206840F4E020206000F438F42D
:106650002E70206820F4E0202060012070BD000032
:106660006C2480001049800070C500A084E000E028
:1066700070B50024EFF31086012080F3108800F439
:106680003AF4104D28B102242968B9B10220884794
:1066900014E0FFF7F1FD20B1296879B100208847A7
:1066A0000CE0FFF7A9FF28B10224296831B10220CC
:1066B000884703E0296809B10020884786F31088DD
:1066C000204670BD5C24800010B5084A1378002B6A
:1066D00001D00F2010BD31B150600448243000F0CB
:1066E00007F8002010BD022010BD0000E846800021
:1066F0002DE9FC4705460C46FFF7D6FB69F4F6D5B5
:1067000007463648006800B180473549012008F047
:10671000F1FC3449022008F0EDFC0120FBF7EAFC13
:10672000A08E81B2206B01F0A5FFDFF8BC90DFF8EE
:10673000BC80E16999F8000098F800200244B1FBA0
:10674000F2F1CEB216FB00F1A06965F42FD62868ED
:1067500064F4BED1686860F4CBD0286967F46AD568
:10676000A86862F463D3E86862F408D420484CF463
:1067700091D720484CF494D71F484CF497D71F4822
:1067800055F4C0D31E484CF43BD71E484CF43ED7BA
:106790001D484CF441D71D4865F4DCD54FF08060AE
:1067A00072F4A6D42046FFF7CDFED4E90A01CDE964
:1067B000000199F80010A06916FB010098F800107C
:1067C00016FB01F1D4E90823114C2468A047384690
:1067D00069F456D5BDE8FC4765F4A0968026800094
:1067E00039380600DD37060029D507002AD507000D
:1067F000119F0700B9C3060065C40600EDAF07008E
:1068000025ED060045ED060065ED0600799B0700C5
:1068100048238000034900EB800001EB8000808862
:106820007047000088478000034A00EB800002EBBD
:1068300080008180704700008847800010B500F01C
:1068400065F800F047F8BDE8104000F001B800001E
:1068500000B58FB003228DF800204FF480500190D6
:1068600005218DF8081001208DF8090000238DF80E
:106870000A308DF80C20430304938DF814108DF822
:1068800015008DF816008DF81820C30307938DF8B6
:1068900020108DF821008DF822208DF8242082030D
:1068A0000A928DF82C108DF82D0002228DF82E20E2
:1068B00004238DF830300D928DF838108DF83900A2
:1068C0008DF83A30024A6846FDF794FC0FB000BDDF
:1068D000492200017CB51026009602248DF8044060
:1068E0008DF8054007258DF8065069460320FDF711
:1068F00069FA00968DF804408DF805408DF8065031
:1069000069460520FDF75EFA7CBD000000B587B042
:1069100000F01EF803208DF800001D208DF81600F1
:1069200001208DF817008DF818008DF81900044A21
:1069300004496846FDF70AFDFDF720F807B000BDE1
:1069400049690001A16900010020FEF787B8000035
:106950001CB5114800904FF48064019400F58060EC
:10696000002101704FF4E132026403224264816429
:10697000C1640165012141650274CB0243610223B8
:106980004374017602718460437101736A4603495E
:10699000FEF702F91CBD0000A0818000594A0001E9
:1069A0000A4601464FF47A730020FEF7B9B9000099
:1069B0000E4910F1210F06DA086820F4704040F407
:1069C00040500860704710F11D0206D3086820F49B
:1069D000704040F48040086070470A28FCDD086879
:1069E00020F4704040F4A0400860704724C500A027
:1069F00010B507F09FFE07F09BF808F08BFD00F044
:106A000035FBBDE8104007F007BE00002DE9F04F50
:106A100087B07B48D0F8009000240025A2460026CD
:106A200008F0E8FE77480168C9F800104068C9F826
:106A30000400754800680830059009F108000690C8
:106A4000042203A9059800F0DDFABDF80C10A1F5A9
:106A50007F40FF3843D0082203A9059800F0D2FAFE
:106A6000BDF80E006EF4A8D600F0FF08BDF80C00CB
:106A7000002867D00698A9EB000707F58057BDF8F6
:106A80000E1008F1080083460844B84263D805ABED
:106A9000082203A906A800F0EBF8BDF80E000023B9
:106AA00000EB080205A906A807F0ECF8641CBDF885
:106AB0000E005844B842C3D10020CDE900605346CF
:106AC0004A462146284609F025F9002826D1824663
:106AD00000260024CDF818906D1CEDB2B0E7002020
:106AE000CDE9006053464A462146284609F012F98E
:106AF000002813D16D1CECB2434D4FF48057434E28
:106B000008E0286800EB0430394602F0A9FE40B1E5
:106B1000641CE4B2707AA042F3D8002007B0BDE84C
:106B2000F08F3B488169407A40F26242CDE9002013
:106B30000291384B38A24FF40041002001F4C4F216
:106B40000920EBE7BDF80E00059908F10808084494
:106B50004044059074E7082F29D305AB082203A908
:106B600006A800F085F8083F2FB100233A4605A992
:106B700006A807F087F8611C0020CDE900605346A5
:106B80004A46284609F0C6F80028C7D18246BDF813
:106B90000E004044C61B0024CDF818906D1CEDB2C9
:106BA0000023324605A906A807F06CF848E705ABB4
:106BB0003A4603A906A800F05BF8611C03A8CDE9DA
:106BC000006053464A46284609F0A4F80028A5D19B
:106BD000C7F1080ABDF80E0000EB08060024CDF846
:106BE00018906D1CEDB20123524605A906A807F0C6
:106BF00049F80023324605A906A807F043F81FE725
:106C000058468000ACD50700CC238000D8328000E5
:106C1000641F800026030101523A353A25732C2067
:106C20004C256420666C6173682073746174652000
:106C30003078253032582C206572726F722030788F
:106C4000253038580D0A00000221B0FBF1F2FF2A6E
:106C500004D8B0FBF1F201FB12022AB1491CC9B2FF
:106C60004029F2D300207047B0FBF1F0C0B270476A
:106C700070B5044615461E462A462068FBF742FAC0
:106C800030682844306020682844206070BD0000CF
:106C900010B50548017B491C0173002072F4A6D78A
:106CA000BDE8104000F050B8304780002DE9FE43A9
:106CB000FFF70FF91E48016821F4003101601C4EF6
:106CC000083E30681B4980B2084330601A4803C848
:106CD000CDE9000116482C380068C82100F00700F3
:106CE0001DF8000010FB01F514480768144CD4F897
:106CF00000803846414602F0F9FC62686068831AF9
:106D0000AB42FBD34146384602F0D0FC06F07AFF96
:106D100002909DF8080028B19DF8080009494861D3
:106D20008861C861306820F07F403060BDE8FE8334
:106D300030C500A000008F11C46F0001FCED00E021
:106D4000001000E0304780002DE9FC412D4E3068F6
:106D500020F07F4040F0885030602B4803C8CDE9D8
:106D6000000128482438006800F007011DF80100E0
:106D7000C82110FB01F525480768254CD4F8008090
:106D80003846414602F0B2FC62686368981AA8422D
:106D9000FBD34146384602F089FC002506F032FF5D
:106DA0000446DFF87080D8F81800844201D9012722
:106DB00000E0002772F4C0D540B91FB1D8F8180020
:106DC000201A02E0D8F81800001BC5B2D8F8180045
:106DD000C8F82000B5EB900F03D8292C01D8112C4E
:106DE00002D200F019F807E000EBC00020440A21AD
:106DF000B0FBF1F0C8F81800306820F07F40306038
:106E0000BDE8FC8128C500A0C46F0001FCED00E0D6
:106E1000001000E0304780002DE9F04F87B00020DF
:106E200006900824DFF890811A20C8F814006348FF
:106E30000168634A89B21143016005A8FBF7CCFDE4
:106E40000220FBF7D1FDDFF8749109F10809D9F8A8
:106E5000000020F47C3040F42030C9F8000059A034
:106E600003C8CDE90201DFF854A1AAF1240ADAF837
:106E7000000002A900F00700085CC82110FB01F522
:106E8000DFF848B1DBF800000190514F3E680198EF
:106E9000314602F02BFC78687968091AA942FBD3C5
:106EA0003146019802F002FC06F0ACFE04909DF819
:106EB0001010D8F81400814204D99DF81020811CCC
:106EC0008A4263D99DF81010814204D29DF81020A7
:106ED000811E8A425AD29DF81010814201D90125A3
:106EE00000E0002515B1641C64B201E0641E64B2C8
:106EF000202C11D3D9F8000020F47C3040F420304D
:106F0000C9F80000D8F83C00401CC8F83C0000203C
:106F100004900120069039E0D9F8000020F47C307C
:106F200040EA043040F40030C9F8000025A003C84E
:106F3000CDE90201DAF8000002A900F00700085CC0
:106F4000642110FB01F6DBF8000001903868009026
:106F5000DDE9001002F0CAFB78687968091AB142CD
:106F6000FBD3DDE9001002F0A1FB06F04BFE04901C
:106F700035B19DF81000D8F814108842B2D805E059
:106F80009DF81000D8F814108842ABD39DF8140077
:106F9000FBF72AFD0948016821F07F4101609DF857
:106FA0001000C8F81800D8F82400401CC8F82400C5
:106FB000069807B0BDE8F08F3047800028C500A0D4
:106FC00000008F114030101810200000FCED00E090
:106FD000001000E00A49322808DDD1F8200220F430
:106FE000706040F44070C1F8200270472828FCDA35
:106FF000D1F8200220F47060C1F820027047000030
:1070000000E000A02DE9F04105460E461746094C68
:107010002378002B02D000206EF442D73A46314646
:10702000284602F05DFC054620786EF439D72846E4
:10703000BDE8F081C92380002DE9F04105460E46E8
:107040001746094C2378002B02D000206EF428D775
:107050003A463146284602F053FC054620786EF445
:107060001FD72846BDE8F081C92380000121024ACC
:10707000002068F479950000C193000110B5104C10
:1070800002220421204604F095F901221021204615
:1070900004F090F902228021204604F08BF90222AC
:1070A0004021204604F086F902222021204604F0E7
:1070B00081F920460222BDE81040082104F07AB987
:1070C000001001A02DE9F04782462DED028B84B01F
:1070D0008946174698460020029003900025002616
:1070E000019001A808F07EF83748016821F4C071CA
:1070F00041F080010160416821F480514160002429
:10710000504607F05BFE06F09BFE02F095F80290F9
:1071100002980644484607F051FE06F091FE02F040
:107120008BF80390DDE90210401A0544641C072C1B
:10713000E6DB2846FBF72EF89FED248B53EC182B4B
:10714000FBF79CF941EC100BFBF71EFD51EC100B0B
:10715000FBF722FA04463046FBF71CF853EC182BD9
:10716000FBF78CF941EC100BFBF70EFD51EC100B0B
:10717000FBF712FA03460020164A1CE000FB04F15C
:10718000B1FBF7F119440291134D0299B5FBF1F1EE
:1071900008F80010114D0299B5FBF1F19DF804506B
:1071A0002944C9B21154802903D90D4D2D782944A1
:1071B0001154401CC0B2B842E0D306F01DFE04B02A
:1071C000BDEC028BBDE8F087802001B0000000001C
:1071D00000001C40A0D0800000C0A8320080D7254D
:1071E0001C4980002DE9FE4F07460D4602AA29469C
:1071F000384608F0C9FB10B10298BDE8FE8F029C2A
:1072000000260296DFF8688098F8000010B1002090
:107210006EF446D6DFF85CA04FF6FF790822694687
:10722000204602F05DFBBDF80000484502D12E80EB
:10723000029617E0B84206D115B1BDF802002880C9
:10724000083402940EE0BDF802006EF4B5D2BDF829
:107250000210083021444418DAF800008442DDD3DB
:107260002E80029698F800006EF41AD60298C4E7B1
:10727000C9238000D023800070B506460024094D44
:107280000BE004EBC40005EB8000801C07223146B4
:10729000FAF763FF20B1641CE4B22878A042F0D86A
:1072A000204670BD10CD800010B50021084B5A68F3
:1072B0001B8809E052F83140844203D102EBC1003F
:1072C000406810BD491C89B29942F3D310BD00003B
:1072D000D845800010B50021084B5A681B8809E08A
:1072E00052F83140844203D102EBC100406810BD26
:1072F000491C89B29942F3D310BD0000EC458000CF
:107300000349095C002902D0002104F069BD7047DF
:107310007ACE800010B5884210D808290ED2094BC9
:10732000074A5A6006E003EB8002946844F00104C7
:107330009460401C8842F6DD0320186010BD0000F8
:1073400000400030002000E02DE9F047164F38687B
:10735000002826D04FF00009002400250526DFF87C
:107360004C8013E005EB4501012018F821209040E6
:107370003A68104208D008EB81032246D3E90101A4
:10738000641CE4B200F01CF86D1CEDB2B54201D2F1
:10739000062CE7D3641EE1B24846BDE8F047FFF78C
:1073A000B9BFBDE8F0870000D44580007802010134
:1073B00013B501216846FCF7B5FF01201CBD000094
:1073C00070B505461446114840F8345000EBC4002F
:1073D0004160284602F01CF80646FF2002F022F821
:1073E000014625F001000A4B850703EB8402094B97
:1073F00006D0801E906006EB014043F8240002E0B6
:10740000906043F82410204670BD0000643D800069
:10741000002000E0004000302DE9FC410C46474AC6
:107420006178A07852F82110CDE90010237844A2A9
:107430001021002000F448F6607801264F4F052502
:1074400030B1012837D0022849D0032872D15AE040
:1074500020786BF423D1C0B2C0EBC00107EB8101EF
:107460004D72A278452A09D1CA681278022A17D02B
:1074700091F82020022A01D081F8206091F8202084
:10748000012A04D0022A02D0032281F8202091F898
:107490002020022A4ED0C9680978022906D102E0CC
:1074A00007224A72EAE7A178452943D0344A0021ED
:1074B000126890473EE087F89950A078452805D19A
:1074C00097F89C00022801D087F89C6097F89C00F0
:1074D00002282FD02B490020096888472AE087F826
:1074E000A550A078452805D197F8A800062801D016
:1074F00087F8A86097F8A80006281BD0224900202A
:107500000968884716E020786BF42AD1C0B207EBEF
:10751000001181F8B150A278462A01D0CE2A01D1BB
:1075200081F8B35091F8B310022903D0174A002113
:10753000126890470020BDE8FC81000068228000AE
:10754000523A313A6163742073746F707065642CC1
:10755000206163745F6964783A2025642C2061633C
:10756000745F747970653A2025732C20726561739D
:107570006F6E3A203078253032780A007C27800000
:107580001022800014228000182280001C2280001B
:1075900010B58AB00C46FF2228216846FAF7C4FDD0
:1075A00040F20A20ADF80000ADF802406846FEF750
:1075B000C3FC0AB010BD10B58AB00446FF222821D2
:1075C0006846FAF7B1FD40F20D20ADF8000000204A
:1075D000ADF802001C22214602A8FAF793FD1C34E4
:1075E00009946846FEF7A8FC0AB010BD30B58BB010
:1075F00005460C46FF22282101A8FAF795FD40F226
:107600000722ADF80420ADF806408DF8085001A817
:10761000FEF792FC0BB030BD37B58AB005460C467C
:10762000FF2228216846FAF77FFD4FF40272ADF879
:107630000020ADF802408DF804509DF830008DF820
:1076400008006846FEF778FC0DB030BD00B58BB081
:10765000FF22282101A8FAF767FD4FF44170ADF829
:1076600004000020ADF8060001A8FEF765FC0BB091
:1076700000BD00002DE9FF470C4666788DF80D60CF
:1076800020784FEA1329CDE900905A4B5AA21021D5
:107690000296002000F418F520786449644F4FF0FA
:1076A000000801EBC905092861D008DC092824D2AB
:1076B000DFE800F09A8B9A4A4A9A9A242400172805
:1076C0002FD004DC0B2807D0142816D16AE0182824
:1076D00014D0192811D111E0607822280DD1002092
:1076E00068F4CED55348006828B143681BB1002226
:1076F0000F214846984768F4F9D575E069F4B6D487
:10770000044685F80580002068F4BAD5386828B1A9
:10771000436D1BB1224631464846984768F4E6D58A
:1077200062E069F4A3D4044685F80480002068F47C
:10773000A7D5386828B183681BB122463146484630
:10774000984768F4D3D54FE069F490D4044685F89F
:107750000680002068F494D5386828B1836D1BB189
:10776000224631464846984768F4C0D53CE069F463
:107770007DD4044685F80280002068F481D53868FD
:1077800030B1C36C23B136B12246314648469847E2
:1077900068F4ACD528E0002CFAD0224631464846A1
:1077A0009847F5E769F462D4044685F80380002021
:1077B00068F466D5386828B1C36D1BB122463146DE
:1077C0004846984768F492D50EE0607860B1002092
:1077D00068F456D5386828B1C36B1BB161780022B4
:1077E0004846984768F482D569F446D404B000202E
:1077F000BDE8F08733030101523A313A25733A204C
:10780000636F6E696478203D2025642C206F70635F
:107810006F6465203D20305825782C206572726F8A
:1078200072203D2030582578000000002A27800073
:1078300098218000EC23800010B58AB00446FF2216
:1078400028216846FAF770FC40F20331ADF80010C9
:10785000ADF802406846FEF76FFB0AB010BD70B588
:107860008AB005460C461646FF2228216846FAF7DC
:107870005BFC40F20131ADF80010ADF802408DF82C
:1078800004501222314602A8FAF73CFC6846FEF783
:1078900053FB0AB070BD70B58AB006460D4614465B
:1078A000FF2228216846FAF73FFC4FF44273ADF8F7
:1078B0000030ADF802508DF8046020680290A08876
:1078C000ADF80C006846FEF737FB0AB070BD00004B
:1078D0002DE9F041ADF50E7D0C461E0A304661F4EF
:1078E00079D20746304661F475D2002834D04DA1D4
:1078F000009133464DA21021002000F4E5F3FF2E45
:107900005BD0574D2088288060886880A088A88038
:10791000E088E880207A2872607A68722F74D4F840
:107920000A00C5F80A00E089E8814E4A002102EB0E
:10793000C60001604160218822F836104FF4CA71F8
:1079400029A8FAF7F8FB29A85DF46CD7687ADFF864
:107950001881012816D101E044A1C9E7E87B012183
:10796000B1EB901F0ED198F81C0140070AD59DF885
:10797000A40038B1A02101A8FAF7DDFB002429AD4D
:1079800001AF3DE004F10A02617A1546304672F417
:1079900013D5617A2A46304601F03EF9354C6FB175
:1079A000002068F46DD4206828B1836B1BB12C4A89
:1079B00000213046984768F499D42DE0032088F8D8
:1079C000A800D8F8AC000078012825D1002068F480
:1079D00057D4216829B18B6B1BB1214A0021304655
:1079E000984768F483D417E004EB840005EBC001EA
:1079F000093107EB04101022FAF784FB641CE4B28F
:107A00009DF8A400A042EFD815499DF8A43001AA22
:107A10000A3130466BF476D30DF50E7D0020BDE8BB
:107A2000F0810000534C415645000000523A313A73
:107A3000636F6E6E656374696F6E5F7265715F69A7
:107A40006E645F68616E646C65723A20636F6E6924
:107A500064782025642C20726F6C652025730A00E1
:107A6000182780002A2780007C2780004D4153542E
:107A7000455200009821800070B58AB006460D4638
:107A80001446FF2228216846FAF74EFB40F20533E0
:107A9000ADF80030ADF802508DF804602068029017
:107AA000A088ADF80C006846FEF746FA0AB070BD33
:107AB00030B58BB005460C46FF22282101A8FAF705
:107AC00033FB40F20632ADF804200022ADF8062068
:107AD0008DF80850206803906068049001A8FEF7B4
