:020000040100F9
:1020000000008400592000016120000161768000F9
:10201000F5210001F3210001FB2100010000000077
:1020200000000000000000000000000009788000AF
:102030006B200001000000006D20000171200001F4
:10204000DFF810D000F0ECFB00F094F800480047F7
:1020500011F600010000840006488047064800474A
:10206000FEE7FEE7FEE7FEE7FEE7FEE7FEE7FEE748
:10207000FEE70000612A000151F600012DE9F05F42
:102080000546002092469B468846064681464024E7
:102090001BE0284641464746224600F0B6FA534622
:1020A0005A46C01A914110D311461846224600F0F4
:1020B0009DFA2D1A67EB01084F46224601200021A8
:1020C00000F094FA17EB00094E41201EA4F1010420
:1020D000DFDC484631462A464346BDE8F09F000013
:1020E0000649074A0868504343F239021044086021
:1020F000400870470149086070470000E8508000C0
:102100006D4EC64140EA01039B0703D009E008C9B0
:10211000121F08C0042AFAD203E011F8013B00F8AC
:10212000013B521EF9D27047D2B201E000F8012BF8
:10213000491EFBD270470022F6E710B513460A4647
:1021400004461946FFF7F0FF204610BD421C10F868
:10215000011B0029FBD1801A704730B504460020CE
:10216000034600E05B1C934203D2E05CCD5C401B65
:10217000F8D030BD70B5054C054D03E02068204413
:102180008047241DAC42F9D170BD000074380101B4
:10219000783801010EB540F2334102910021CDE9BA
:1021A00000110A460B4600F061FA03B000BD0EB5FF
:1021B00040F2334202920022CDE90022134600F0A1
:1021C00055FA03B000BD20F00040C20DC0F3160068
:1021D00040F400007F2A02DA002001467047002107
:1021E000962A03DCC2F19602D0407047963A00F07E
:1021F000FDB9FEE7FEE71BF46F97FEE770477047F7
:1022000058585247010000001555000000200001F9
:10221000002000016EED52490101000000000000A5
:1022200000000000000000000000000000000000AE
:10223000000000000000000000000000000000009E
:102240002DE9FE4F804681EA0300C00F0C46009046
:1022500021F0004123F00045B8EB0200A94105D26E
:102260004046214690461C460B46024623F000405D
:10227000104347D0270DC7F30A00C3F30A51029059
:10228000401A019040286BDAC3F3130040F4801B1E
:102290000098924620B10023D2EB030A63EB0B0BAC
:1022A00001985946C0F14002504600F09FF9064699
:1022B0000D4650465946019A00F0B7F910EB080058
:1022C0006141002487EA115284EAE7731A4340D03F
:1022D000009A62B3019A012A4FEA075215DC001BEB
:1022E00061EB02014FF0004202EA0752CDE90042E1
:1022F000001C41F5801132462B4600F0B7F903B0BF
:10230000BDE8F08F40462146F9E7001B61EB020172
:10231000001C41F5801300185B412018A2F500173E
:1023200047EB030140EAD570B6196D4111E06D0825
:102330004FEA360645EAC0754FEA0752001B61EBCB
:102340000201001C41F5801149084FEA30000019D4
:10235000514132462B4603B0BDE8F04F00F077B94B
:102360000098012240000023D0EB020263EBE073EF
:10237000009821464FEAE074B8EB000061EB0401DD
:10238000E9E783F000435BE781F0004158E72DE97E
:10239000FE4F81EA030404F0004421F00041009460
:1023A0004FF0000B23F0004350EA01045ED052EAE4
:1023B00003045BD0C3F30A54C1F30A552C44A4F2BE
:1023C000F3340194A0FB0254C1F3130141F48011D2
:1023D000C3F3130343F4801301FB024400FB034ED9
:1023E000840A970A44EA815447EA8357A4FB0768A2
:1023F00002958D0A05FB07854FEA932C04FB0C54CC
:102400002705029D4FEA065847EA1637B5EB08053F
:102410006EEB070C870E920E47EA811742EA831291
:10242000A7FB0201B6EB0B0164EB00042B0D43EAA2
:102430000C335E1844EB1C50DA465146E7FB0201B0
:10244000C5F313044FEA0B3343EA14534FEA043243
:10245000019C43EA0603A4F10C040294009CCDE91C
:1024600000B400F003F903B0BDE8F08F002001468E
:10247000F9E72DE9F04D81EA030404F0004B21F067
:10248000004514464FF0000A23F0004150EA0502CF
:1024900020D054EA01021DD0C5F30A570246C5F305
:1024A0001303C1F31300C1F30A5640F4801543F43B
:1024B0008013A7EB0608101BD64608F2FD3873EB15
:1024C000050002D308F1010801E092185B41B8F160
:1024D000000F03DA00200146BDE8F08D00204FF424
:1024E0008011064684460EE0171B73EB050705D3E3
:1024F000121B63EB050306434CEA010C49084FEA43
:10250000300092185B4150EA0107EDD152EA030016
:1025100012D082EA040083EA0501084305D0101BAB
:10252000AB4106D20122002306E000224FF0004317
:1025300002E06FF0010253101AEB06004CEB085159
:1025400010EB0A0041EB0B01BDE8F04D00F07FB845
:1025500070B5C1F30A5201F000450024C1F3130124
:1025600040F2FF3341F480119A4201DA002070BD3D
:1025700040F233439A42A2F2334203DC524200F06B
:1025800044F800E090402C43F1D0404270BDC1F3CC
:102590000A5210B5C1F3130140F2FF3341F4801128
:1025A0009A4201DA002010BD40F233439A42A2F26F
:1025B000334203DC524200F028F810BD904010BDB9
:1025C00030B50B46014600202022012409E021FA03
:1025D00002F59D4205D303FA02F5491B04FA02F500
:1025E0002844151EA2F10102F1DC30BD202A04DBD3
:1025F000203A00FA02F1002070479140C2F1200316
:1026000020FA03F3194390407047202A04DB203A54
:1026100021FA02F00021704721FA02F3D040C2F102
:1026200020029140084319467047202A06DBCB1749
:10263000203A41FA02F043EAE07306E041FA02F37D
:10264000D040C2F12002914008431946704710B5AE
:10265000141E73F1000408DA401C41F100019218C5
:102660005B411A4301D120F0010010BD2DE9F04D6E
:1026700092469B4611B1B1FA81F202E0B0FA80F2C3
:1026800020329046FFF7B2FF04460F4640EA0A00A8
:1026900041EA0B0153465A46084313D0114653EA08
:1026A000010019D0C8F140025046FFF7AEFF0546C1
:1026B0000E46504659464246FFF798FF084305D05C
:1026C000012004E020463946BDE8F08D0020054396
:1026D00046EAE0762C4337430A986305E40AA0EB08
:1026E00008000022FD0A44EA47540A3002D50020BF
:1026F0000146E9E7010510196941DDE908450019BE
:102700006941BDE8F04DA2E72DE9F041054621F011
:1027100000400C46284309D0C4F30A5040F233412C
:10272000884205DD28462146BDE8F0812846FBE7C2
:1027300040F2FE31884210DC0CDB4FEA043040EA04
:10274000155050EA053105D0104804F0004101430E
:102750000020E9E700200146E6E7A0F233404642C8
:10276000C6F1400228462146FFF740FF074688464B
:10277000284621463246FFF748FF43463A46FFF7D0
:1027800066FF3246BDE8F041FFF730BF0000F03F82
:10279000C1F30A52C1F3130140F2FF3341F4801137
:1027A0009A4202DA00200146704740F233439A42CF
:1027B000A2F2334202DC5242FFF727BFFFF716BFF7
:1027C00030B5041E71F1000404DB4FF000444042B8
:1027D00064EB0101141E73F1000405DB1C464FF08D
:1027E0000043524263EB04038B4208BF824230BD78
:1027F00030B5041E71F1000404DB4FF00044404288
:1028000064EB0101141E73F1000405DB1C464FF05C
:102810000043524263EB0403994208BF904230BD2B
:10282000064C074D06E0E06840F0010394E807001D
:1028300098471034AC42F6D3FFF706FC1438010178
:102840007438010170B58C1810F8015B15F007039E
:1028500001D110F8013B2A1106D110F8012B03E039
:1028600010F8016B01F8016B5B1EF9D12B0705D441
:102870000023521E0DD401F8013BFAE710F8013B8A
:10288000CB1A921C03E013F8015B01F8015B521EA6
:10289000F9D5A142D8D3002070BD000010B51E4864
:1028A0000068002800D080471C4900200870811E65
:1028B0001B4801601B494FF0007008601A4CD4F8A7
:1028C000C002800704D4F42218A11DA002F47EF7F0
:1028D0002A480168D4F8C40261F31D3040F00100B9
:1028E000C4F8C40207F4AAF600214FF03040C160DA
:1028F0008161C1174161016207F45CF60848403804
:10290000016821F4800101601D480068002802D0A0
:10291000BDE81040004710BD60248000E44F8000F7
:1029200044C500A080E200E000E000A0727769707A
:102930005F736C6565705F636F6D6D6F6E2E6300A6
:102940004D43555F5355422D3E424C455F44534CD9
:102950004545505F434F52525F454E2026204D4320
:10296000555F5355425F424C455F44534C4545507B
:102970005F434F52525F48575F454E0054248000DA
:102980006424800000214FF03040C1608161C11794
:10299000416101620649022004220A60BFF34F8FA1
:1029A000BFF36F8F0860BFF34F8FBFF36F8F704718
:1029B00080E100E004490220C1F800010860BFF393
:1029C0004F8FBFF36F8F704780E100E002490968C5
:1029D00001F007010170704704C500A030B406285B
:1029E00021D212490A6802F00702824212D00A6814
:1029F0000F4B1A400F4C22430A6000BF00BF00BFBC
:102A000000BF0A681A400C4B024333F8203042EAF8
:102A100083420A600849183951F8200007490860C4
:102A200030BC76F4E79230BC7047000004C500A0CB
:102A3000F8FFE3FF05000800D422010100418000F7
:102A400004480068044900F0070051F820000349D9
:102A50000860704704C500A0BC220101004180004D
:102A60000248016841F470010160704788ED00E0A0
:102A700002480068001D1EF4EF950000CC43800062
:102A800002484068001D1EF4E7950000CC4380001A
:102A90000FB4054B10B503A9044A029800F0B0F931
:102AA00010BC5DF814FB0000C57200018845800071
:102AB0000FB41CB50246002007AC00290BD0491EFC
:102AC000CDE90021054B6A462146069800F098F9A9
:102AD000009A002111701CBC5DF814FB2F35000119
:102AE0000FB4084B10B504A902AA039800F088F9A6
:102AF000044602A9002000F025FD204610BC5DF828
:102B000014FB0000453500017CB5044600201D463D
:102B1000164600290BD0491ECDE90041044B6A46F8
:102B20002946304600F06CF9009A002111707CBDF6
:102B30002F350001002804DB00F1E02090F80004AC
:102B4000704700F00F0000F1E02090F8140D70477E
:102B5000002804DB00F1E02090F80004704700F04A
:102B60000F0000F1E02090F8140D70470248006853
:102B7000C0F30220704700000CED00E000000000F0
:102B800010B52DED020B2DED088B84B09DED0C0BD7
:102B900051EC100BFFF7B8FD41EC180B9DED0C0B41
:102BA00053EC182B51EC100BFFF7EBFB41EC190B1E
:102BB0000D989FED290B10F0004F53EC102B51ECAA
:102BC000190B9FED21AB9FED22BB0ED0FFF7F8FD57
:102BD0000ED953EC1B2B51EC190BFFF709FE1CD23D
:102BE00014E000BF41EC180B17E0FFF7E9FD06D237
:102BF00053EC1A2B51EC180BFFF7C3FBF2E753EC25
:102C00001B2B51EC190BFFF7F3FD06D853EC1A2BD5
:102C100051EC180BFFF714FBE4E78DED028B9DEDF3
:102C20000C0B18EE901A10EE900A8DED000B61F36C
:102C30001E0003909DED020B04B0BDEC088B02B0AA
:102C400010BD000000000000000000000000F03F88
:102C5000000000000000E03F000000000000E0BFB6
:102C600002E008C8121F08C1002AFAD170470020EC
:102C700001E001C1121F002AFBD170472DE9FF5F5F
:102C800082B00021DDE90430020DDDF840B00343DD
:102C900018D044F61050A2F2FF3242431514119896
:102CA00001281FD0A5EB0B00401C5FEA000A4FF083
:102CB00000064E4FDFF83891B046504615D5CAF1A0
:102CC000000413E0119801244AA3012801D16FEAFE
:102CD0000B010298119AC0E90031C0E9024206B026
:102CE000BDE8F09FCBF10000DFE704460021404A39
:102CF000491842EB0450CDE9001012E0E00707D07C
:102D000032463B4640464946FFF741FB80468946EE
:102D100032463B4610461946FFF739FB06460F463A
:102D20006410002CEAD1DDE90401DDE90023BAF1E9
:102D3000000F06DAFFF72BFB42464B46FFF727FB57
:102D400005E0FFF796FB42464B46FFF792FB044631
:102D50000E460022284BFFF74BFD03D84FF0FF3003
:102D6000014607E00022254B20463146FFF768FA6E
:102D7000FFF70EFD102409E0002C0ADB0A220023D5
:102D8000FFF77CF9039B30321A55641E50EA0102AA
:102D9000F2D1641C039AC4F111031444119A012A5C
:102DA00003D0012208430DD10AE0084304D00020DB
:102DB0004FF0110B119072E7A3EB0B056D1E0DE0A8
:102DC0005B4504DD4FF0000205F1010504E003DA84
:102DD0004FF00002A5F10105002AECD002981199EC
:102DE000C0E90231C0E9004579E700000000144065
:102DF0000000F03F300000000000F0430000E03F22
:102E00002DE9FF4F95B09B468946064600250FE207
:102E1000252877D100242746F84A0121059400E0AF
:102E2000044316F8013F203B01FA03F01042F7D1AA
:102E300030782A2811D06FF02F033078A0F13002BB
:102E4000092A16D8059A44F0020402EB820203EB29
:102E500042021044761C0590EFE759F8042B0592C6
:102E6000002A03DA504244F40054059044F002046E
:102E7000761C30782E2816D116F8010F44F0040481
:102E80002A280DD06FF02F023078A0F13003092BE3
:102E900009D807EB870302EB4303C718761CF3E757
:102EA00059F8047B761C30786C280FD006DC4C284F
:102EB00017D068280DD06A2814D104E0742810D0E7
:102EC0007A280FD10DE044F400140AE044F4801491
:102ED00001E044F440147278824202D104F5801477
:102EE000761C761C307866280BD013DC582877D0F7
:102EF00009DC002875D04528F6D04628F4D04728AC
:102F00001AD19DE118E0632835D0642879D065286E
:102F100012D195E1702873D008DC6728F1D06928B8
:102F20006FD06E280DD06F2806D1B5E073282CD055
:102F3000752875D0782874D05A46179990476D1C1B
:102F400075E1C4F30250022809D003280DD0D9F846
:102F5000001004280DD00D6009F1040967E1D9F8CB
:102F60000010EA17C1E90052F6E7D9F800100D8009
:102F7000F2E70D70F0E719F8041B8DF8001000203F
:102F80008DF80100EA46012003E059F804AB4FF048
:102F9000FF3061074FF0000102D40DE008F101019C
:102FA0008846B9420FDA8045F8DB1AF80810002984
:102FB000F4D108E008F1010188468142FADB1AF8F1
:102FC00008100029F6D105985B46A0EB08072146BA
:102FD0003846179A00F094FA284400EB080507E0F9
:102FE0004DE029E10DE01AF8010B5A461799904778
:102FF000B8F10108F7D25B4621463846179A13E12B
:1030000042E00A220092C4F302524FF0000A022A60
:1030100008D059F804CB032A4FEAEC710AD00DE02E
:1030200029E02AE009F1070121F00702F2E802C1D4
:10303000914609E00FFA8CFC4FEAEC71042A03D1A7
:103040004FFA8CFC4FEAEC71002907DA0A4600219E
:10305000DCF1000C61EB02012D2202E0220504D517
:103060002B228DF80420012203E0E20701D0202268
:10307000F7E7904659E00A2102E010220DE0102106
:103080004FF0000A00910BE010224FF0000A44F0CC
:1030900004040827009203E008224FF0000A00927F
:1030A000C4F30252022A05D059F804CB0021032AA6
:1030B00008D009E009F1070121F00702F2E802C196
:1030C000914605E01FFA8CFC042A01D10CF0FF0C9C
:1030D0004FF00008220728D5702806D0009B83F007
:1030E000100353EA0A0305D00EE040228DF80420B5
:1030F000012208E05CEA010206D030228DF80420AB
:103100008DF8050002229046009B83F0080353EAE5
:103110000A030AD15CEA010201D1620705D5302217
:103120008DF804204FF001087F1E582804D034A0E9
:1031300003900EA802900DE036A0F9E753466046D2
:10314000009AFEF79BFF84460398825C0298401E1B
:10315000029002705CEA0100F0D1029806A9081AF8
:1031600000F1200A600702D524F4803400E0012732
:10317000574502DDA7EB0A0000E0002000EB0A0142
:10318000009005984144401A0590E00306D45B4640
:103190002146179A059800F0B3F90544002706E088
:1031A00001A85A46C05D179990476D1C7F1C474582
:1031B000F6DBE0030CD55B462146179A059800F034
:1031C0009FF9054404E030205A46179990476D1C3A
:1031D0000099481E00900029F5DC08E00298029949
:1031E0005A460078491C0291179990476D1CBAF114
:1031F0000001AAF1010AF1DC65E1000009280100E3
:10320000303132333435363738396162636465665C
:10321000000000003031323334353637383941421E
:10322000434445460000000000F058F90544761C70
:10323000307800287FF4ECAD19B02846BDE8F08F57
:10324000620700D4062709F1070222F0070CFCE808
:103250000223E14603F000485FEA080C02D00FF2B7
:10326000702C0DE05FEA045C02D50FF2682C07E0D9
:103270005FEAC47C02D00FF2602C01E0AFF2700C68
:103280004FF0FF3823F00043CDF850C065280CD034
:1032900006DC452809D046281DD047283DD13DE011
:1032A000662818D067287ED138E00021112F01DB75
:1032B000112000E0781CCDE9000106A90EA8FFF757
:1032C000DDFCDDE90F010E9A03910021009207F168
:1032D000010A04914DE04FF000400097CDE9011044
:1032E00006A90EA8FFF7CAFCDDE90F0203920E9BA8
:1032F00011990022DDF80CA00093049211B9791CF9
:1033000000EB010AB7EB0A0004D4C0F1FF3007F16B
:10331000010A0490AAEB0700019044E0012F00DAB3
:1033200001270021112F01DD112000E03846CDE9F1
:10333000000106A90EA8FFF7A1FCDDE90F010E9A16
:103340000391002104910092BA4621070CD40399FD
:10335000514500DA8A46BAF1010F05DD009AAAF15B
:103360000101515C302908D0B84202DA10F1040F93
:1033700006DA0121CDE9011015E0AAF10101E9E722
:10338000002805DC049901440491AAEB000102E045
:10339000411C514500DD8A460499401A401C0190A9
:1033A0004FF000400290200704D40198504501DB03
:1033B000CDF8048000208DF84F0002980DF14F07E2
:1033C000B0F1004F25D02B200E9002984FF002084C
:1033D00000280CDA404202902D200E9007E00A21CE
:1033E0000298FFF7EDF83031029007F8011DB8F1AF
:1033F0000001A8F10108F2DC02980028EFD1791E43
:103400000E980870307800F0200040F0450007F872
:10341000020D12A8C01B00F107081498007800B133
:10342000012000EB0A01019801EBE071059841448D
:10343000401A401E0590E00306D45B462146179AC9
:10344000059800F05DF805441498007818B15A46C4
:10345000179990476D1CE00324D55B462146179AC7
:10346000059800F04DF805441CE00498002807DB9F
:10347000DDE90301884203DD0098405C179901E013
:10348000179930205A469047049805F10105401CD1
:1034900004900198401E019004D12E205A4617999D
:1034A00090476D1CBAF10001AAF1010ADDDC05E0CC
:1034B00017F8010B5A46179990476D1CB8F1000197
:1034C000A8F10108F4DC5B462146179A0598ABE6A3
:1034D0002D0000002B000000200000002DE9F0412D
:1034E000044600251E461746880404D405E03946E4
:1034F0002020B0476D1C641EF9D52846BDE8F08138
:103500002DE9F041044600251E469046C80301D52A
:10351000302700E02027880404D505E041463846DE
:10352000B0476D1C641EF9D52846BDE8F0814A6895
:10353000002A06D00A68531C0B6010704868401EB1
:10354000486070470A68531C0B6010707047000099
:103550002DE9F05F0746894693464FEA5B04A24691
:103560004D465F4EDFF87C81EFF31080012181F33F
:103570001088D8F8A41221F02001C8F8A41280F312
:103580001088EFF31080012181F31088D8F8A01281
:1035900021F02001C8F8A01280F31088306820F0D4
:1035A00080403060504830603F20D8F8001160F310
:1035B0000501C8F80011306820F4601040EAC740E7
:1035C0003060306820F4E02040EA07403060052F8A
:1035D00003D1306840F400403060062F03D13068DA
:1035E00040F480403060306840F400503060306813
:1035F00020F060503060306820F00F0040F0030091
:103600003060EFF31080012181F31088344A3832A2
:10361000116821F0E04141F08041116080F3108891
:10362000306840F08040306001E0D8F80000D8F801
:103630000401C0F300200028F7D1EFF3108001212E
:1036400081F31088116841F00041116080F3108807
:1036500034E000204FF47A711AE0884217D93068BC
:1036600020F080403060306840F0004030603068CA
:1036700020F00040306008F051FD1C480168491CF2
:10368000016054464D46052078F4B9D26CE7401CE1
:10369000D8F80421C2F30022002ADED0D8F80401B1
:1036A00000F07F01A14200D92146002003E0D8F8B4
:1036B000002004C5401C8842F9D3641A002CC8D1EC
:1036C0005FEACB7008D0D8F80401C0F300200028CE
:1036D000F9D0D8F800002880BDE8F05F08F01EBDE2
:1036E00008C500A000E000A00A070807D850800025
:1036F0002DE9F04107460E464FF000080024274D03
:103700000BE004EBC40005EB8000801C0722394667
:10371000FEF723FD40B1641CE4B22878A042F0D843
:10372000B8F1000F18D102E04FF00108F8E728784F
:103730000A21B0FBF1F201FB12040A2801D2401C5D
:10374000287004EBC40105EB81003968C0F8021051
:10375000B988C180B97901722B7811A2102100209B
:1037600002F436F0307800070BD504EBC40005EB0B
:10377000800006F14601BDE8F0410A301C22FEF748
:10378000C1BC04EBC40005EB800006F12A01BDE8D2
:10379000F0410A301C22FEF7B5BC0000940D8100F8
:1037A000523A313A616464206C746B206974656DBF
:1037B0002C206E756D203D2025640A00104A1149A9
:1037C00000280EDC0868C0F34120012808D0506CA6
:1037D000401C5064086820F4C06040F40070086029
:1037E00070470A28FCDB086810F4C06FF8D0106C32
:1037F000401C1064086820F4C06008607047000036
:10380000D04780000CC500A006460F46154672B68C
:103810003846FEF79BFC402801D9402002E038469C
:10382000FEF794FC80463046FEF790FC402801D914
:10383000402002E03046FEF789FC04469C211048F7
:10384000FEF779FC424639460D48FEF75BFC0C4812
:10385000224631465C30FEF755FC09484FF0AA314C
:10386000016445644FF0BB3181644FF0CC31016598
:103870004FF0DD318165002000F004F8FEE7000024
:1038800048C0800030B5ADF20C4D04464FF4806165
:1038900003A8FEF750FC184D202085F83F0085F85E
:1038A0009B003CB12846012C436DC26C09D0022C10
:1038B0000CD00FE0104A11A15C3203A8FFF710F9F9
:1038C00008E011A103A8FFF70BF903E016A103A874
:1038D000FFF706F903A90BA2686CCDE9012100905E
:1038E00018A3054A18A1002000F05EFC00F028FC97
:1038F0000DF20C4D30BD000048C080005B455252B7
:103900004F525D20257300005B5741524E494E4790
:103910005D20506172616D303A25642C5061726196
:103920006D313A25640000005B504152414D5D20ED
:10393000506172616D303A25642C506172616D3155
:103940003A256400000000006170705F6173736568
:1039500072742E6300000000014877F48D97000018
:10396000FC43800006460F4690461D4672B6404610
:10397000FEF7ECFB402801D9402002E04046FEF76C
:10398000E5FB04469C210D48FEF7D5FB2246414647
:103990000A48FEF7B7FB09484FF05531016445640A
:1039A0004FF066318164C6644FF077310165476539
:1039B000C94381650220FFF765FFFEE748C080002C
:1039C0002DE9F04106460F4690461D464046FEF75B
:1039D000BDFB402801D9402002E04046FEF7B6FB7F
:1039E00004469C210D48FEF7A6FB224641460B48A3
:1039F000FEF788FB09484FF0113101644564490026
:103A00008164C6644FF03331016547654FF044313E
:103A10008165BDE8F0410120FFF734BF48C0800058
:103A200010B588B0887ACA7A0B7B4C7BCDE9044309
:103A3000CDE90620887BC97B07A24FF48573CDE9C9
:103A40000032CDE90210124B12A218A1022000F0A0
:103A5000ABFB08B010BD0000436F6E6E656374650C
:103A600064207769746820746865207065657220C9
:103A7000253032583A253032583A253032583A25D6
:103A80003032583A253032583A253032582E00001C
:103A9000B82401012E2E5C5372635C757365725CF1
:103AA000757365725F6170702E6300004E4F5F54D6
:103AB0004147000010B58CB01B48007800281ED08C
:103AC00019480021143000F0D5F82C22174901A81C
:103AD000FEF718FB16484FF47A710068B0FBF1F05E
:103AE00000EB4001C1EBC0104FF0FF3101EBC00013
:103AF0000490104901A801F4AFF70CB010BD0A49B9
:103B00000020083102F046F90446002CF5D01422BA
:103B10000649143907A8FEF7F5FAADF8204007A8C2
:103B200000F00AF8E9E70000D44580008C24010188
:103B300000418000C57880003EB504464FF4007116
:103B40001A48FEF7F8FA207810B1012819D01DE0C4
:103B500000211748A28830F831309A4207D100EB93
:103B6000C10014A143681148FEF7BAFF0EE02E29E8
:103B700002D0491CC9B2EEE714A10C48FEF7B0FF11
:103B800004E01DA109486268FEF7AAFF074921A2C7
:103B90002069CDE901210090D4E902231EA1002073
:103BA00000F002FBBDE83E4000F0CABAE4C080006D
:103BB000084480004572726F7220636F6465203024
:103BC00078253034583A2025730000004572726F12
:103BD0007220636F6465203078253034583A204E67
:103BE0006F20666F756E6420696E666F726D6174AA
:103BF000696F6E2E0000000028257329206973204C
:103C00006E6F742065737461626C69736865642E8D
:103C100000000000257300006170705F6572726FB4
:103C2000722E63002DE9F041014600291BD00024CB
:103C30000F4E0E4A357814E002EB04100F7803782B
:103C4000BB420CD14B684068034208D0707808B979
:103C500000F048FA2046BDE8F04100F047B9641C86
:103C6000E4B2AC42E8D3BDE8F0810000C4BE8000FD
:103C7000E843800030B58DB00546204C686820616F
:103C80006878606161601E4A00211E4800F088FB70
:103C9000698800221B4800F0D1FC1BA0E321CDE97C
:103CA0000010204B20A226A1022000F07DFA207DEA
:103CB000216901F40DF6244801F452F611480A2155
:103CC00028300CF051F906F00BF84FF0E0206FF0BF
:103CD0007F41416100218161052101612C2211494F
:103CE0000E3102A8FEF70EFA18480068401E059033
:103CF000174902A801F4B0F60DB030BDF0458000C0
:103D000065B60001B00B810049534D2064697265AE
:103D10006374207472616E73706F72742073746157
:103D200072740000D62501012E2E5C5372635C75FF
:103D30007365725C6170705F6964742E630000006B
:103D40004E4F5F5441470000F779800000418000EA
:103D5000A1798000002803D0024908600120704743
:103D600000207047F043800070B505460024091F0D
:103D7000062917D2DFE801F003070C1113152846B6
:103D800000F0A4F80EE00124284600F09FF809E0B6
:103D90000224284600F09AF804E0032402E00424F8
:103DA00000E00524034A214628461268BDE8704019
:103DB00010470000F04380002DE9F0410446204602
:103DC00000F0AEF801462E4800230826025D00F1FF
:103DD0000A0700F11405AAB1052A33D0082A2AD10E
:103DE000092945D0082926D1295D491CC9B2295580
:103DF000142920D32B5506552046BDE8F041082153
:103E0000FFF7B2BF052913D0042916D0072914D013
:103E1000082910D1295D491CC9B2295514290AD392
:103E20002B5506552046BDE8F0410821FFF79CBF01
:103E30003B5505210155BDE8F0812046BDE8F04124
:103E4000FFF792BF05290CD0395D491CC9B239551D
:103E50003229F0D303552046BDE8F0410521FFF794
:103E600083BF03552046BDE8F0410621FFF77CBF24
:103E700003552046BDE8F0410921FFF775BF00005A
:103E8000A4BF800070B504460D4600F00FF808B1DD
:103E900000F03EF90348044A2946005D5268BDE837
:103EA00070401047B8BE8000E843800000200649FB
:103EB00011F810200AB100207047401CC0B20A2837
:103EC000F6D3012070470000C2BF800003490022E2
:103ED00001F8102001EB400042707047C2BF800023
:103EE000014A02F810107047C2BF8000024A012147
:103EF00002EB400041707047C2BF800070B50024E3
:103F0000064D05EB4400407810B12046FFF754FF02
:103F1000641CE4B20A2CF4D370BD0000C2BF800060
:103F200070B500211D4B03F132051A5C002A09D03F
:103F3000002403F10A06012A0AD0022A12D0032A19
:103F400024D11FE015F8102002B301221A541DE0FD
:103F500015F810201AB1345402221A5416E01C54D9
:103F6000042113E015F810204AB1325C521CD2B281
:103F70003254642A0AD3072103221A5406E0052189
:103F80001C5403E015F8101011B10821084670BD4B
:103F90001C54FFF79BFF0921F8E7000090BF800049
:103FA00070B50025134C002815D007F08FFB0028B2
:103FB0001ED004F108010D706068020E4A70020CF8
:103FC0008A70020ACA700871401C6060BDE87040C7
:103FD000052003F429B5207820B12570BDE8704094
:103FE00007F071BB01202070BDE8704007F068BB8E
:103FF00070BD00008C4580002DE9F0410E4617464B
:104000000A2E02D80FB1002320E00020BDE8F08185
:1040100003EB430410F82410032901D0042913D121
:1040200000EB8405114AA97AD154104910F82420D4
:104030000C3101EB0314227069686160297A2172E6
:10404000697A61720A49E1605B1CDBB2B342DFD37B
:10405000064831460C3001F49FF50648067047606B
:104060000548FFF777FE0120D0E70000B8BE8000CA
:10407000253C0001E8438000853E00012DE9F04128
:104080000024124FDFF8488019E0002607EB0415E2
:104090002878696801F460F710B9697A012902D0BB
:1040A000012802D005E0012603E0687A022800D149
:1040B000012631462046FFF713FF641CE4B298F84E
:1040C00000008442E1D3BDE8F0810000C4BE80005E
:1040D000E843800010B5FFF7D1FFBDE81040FFF7BF
:1040E0000DBF000010B5074A0121074800F058F93C
:1040F00000220A21044800F0A1FA04490120487076
:1041000010BD0000D540000168BF8000E84380007A
:1041100010B5034800F06DF902490020487010BD49
:1041200068BF8000E8438000002806D0002904D042
:10413000024AD269002A00D010477047E4C38000C9
:104140000248006A002800D000477047E4C380009E
:1041500070B50D4616460D4C00280AD0017803298B
:1041600011D80121A17601461A222046FDF7CAFF87
:1041700005E00020A0761A210448FDF7DCFFE56188
:104180002662002070BD012070BD0000E4C38000E5
:10419000044A1044807D084201D00120704700206D
:1041A00070470000E4C380002DE9FE4FDDF830B019
:1041B00006469246994600240027019702975A48DE
:1041C0000178B14202D2807E00287DD10DF13808FD
:1041D000CDF80080EFF311850220FEF7B9FC01460F
:1041E00052480068C0F30220401C01228240881817
:1041F000C0B280F3118801213046FFF7C9FF38B102
:104200004B484C4950F82620204600F0A5F80446BB
:104210001C213046FFF7BCFF00285ED046A245496E
:10422000204600F099F8204484B204213046FFF77C
:10423000AFFFF8B152463F49204600F08DF82044C8
:1042400084B208213046FFF7A3FF38B13BA23949B9
:10425000204600F081F8204484B20BE01021304663
:10426000FFF796FF30B136A23249204600F074F8CD
:10427000204484B208213046FFF78AFF90B14A46B5
:104280002C49204600F068F8204484B210213046C2
:10429000FFF77EFF30B12BA22649204600F05CF8E4
:1042A000204484B210213046FFF772FF70B15B46A4
:1042B00026A2052101A8FEF7FBFB01AA1D49204605
:1042C00000F04AF8204400E02BE084B220A2194913
:1042D000204600F041F8204484B21648C4F58071AD
:1042E000204443460D9AFEF70FFC00974FF480716F
:1042F000002804DB2044884201DC86B200E00E4640
:10430000B01C884200D9FE2612A20A49304600F0AD
:1043100023F8304481B20748FFF706FFE8B280F384
:104320001188BDE8FE8F0000E4C380000CED00E0C2
:1043300078458000E4C280002800000020000000D2
:104340003A000000204C696E653A0000256C64005C
:10435000292000000D0A000030B505460020002984
:104360000CD0002A0AD006E02B18FF2B06D8CC541C
:10437000521C401C80B21478002CF5D130BD0000D6
:1043800010B5064A06214CF201000BF077F902F055
:10439000C9F9BDE81040002074F46494A62301011B
:1043A0002DE9F04104460D461746002D04D0012D9D
:1043B00002D00120BDE8F081CCB1C7B1EFF3118686
:1043C0000220FEF7B7FB8046FEF7D0FB401C012120
:1043D000814008EB0100C0B280F3118800206070BA
:1043E000A570E761F0B280F311880020E2E70120B8
:1043F000E0E710B50446002C0CD0204600F0B0F9E0
:10440000FF2060700021A160E160216161610020F6
:10441000E06110BD012010BDF0B5DDE9074505994B
:1044200081614FF47A76A2FB061C03FB06C30027CA
:1044300002FB0732C0E9021209196A41C0E90412FD
:1044400000210162F0BD00002DE9F0410446002C7E
:1044500013D0EFF311850220FEF76CFB0746FEF741
:1044600085FB401C012606FA00F03844C0B280F3F8
:1044700011881248002121620EE00020BDE8F08181
:10448000D4E90432D1E9047CDB1B72EB0C0202D2CA
:10449000016A216203E00846016A0029F0D1046242
:1044A0006670064820380168491C0160016C416053
:1044B000E8B280F311880120E0E7000020C080000E
:1044C0002DE9F04105460024EFF311860220FEF7A6
:1044D00031FB0746FEF74AFB401C0121814078185A
:1044E000C0B280F31188134A106CE8B115B102F123
:1044F000200010E00446206A10641068401E10601E
:104500000CE0A94206D11168491E1160296A0162B6
:104510002C4603E00846016A0029F2D124B10020AC
:1045200020626070106C5060F0B280F311882046F9
:10453000BDE8F08100C080002DE9F041EFF3118764
:104540000220FEF7F7FA0446FEF710FB401C01219B
:1045500081406018C0B280F31188114D002608E038
:104560002078012804D1E16909B1A0698847267043
:104570002D6A2C6A002CF3D1094D203D07E0E1693A
:1045800009B1A06988472670206AA8602662AC68D5
:10459000002CF4D1F8B280F311880120BDE8F0813D
:1045A00020C080002DE9F041EFF311870220FEF7D3
:1045B000C1FA0446FEF7DAFA401C012606FA00F0BA
:1045C0002044C0B280F311881B4DA5F1200829E0DA
:1045D000D4E90420D8E90413521A60EB0300D8E9A7
:1045E00006319A1A814120D326702046FFF768FFD2
:1045F000A078012802D0104818380DE0D8E904301E
:10460000D4E902219A184841C4E904202046FFF762
:104610001BFF07E001F1200001680029FAD12162A7
:10462000006804622C6A002CD2D1F8B280F31188A1
:104630000120BDE8F081000020C080002DE9FF5F6F
:1046400082460E4693464FF00008BAF1000F20D084
:10465000414886421DD8E6B1EFF311870220FEF7EC
:1046600069FA0446FEF782FA401C01218140601875
:10467000C0B280F31188504607F0B6FA10B19AF82C
:10468000010040B1F8B280F311880F2004B0BDE8FA
:10469000F09F0120FAE70AF0E9FE04460D464FF4C8
:1046A0007A7106FB01F022462B46002107F06CFAD6
:1046B000DFF8A890B0B1D9F8040048B1D0E90410EF
:1046C000091B60EB0500C9E904100AF06BFF04E068
:1046D0000021C9F81010C9F814104FF00108D9E9E9
:1046E000040106E0D9F80400D0E90421101B61EBB5
:1046F0000501CDE9020132460023CDF800B0504655
:10470000FFF78AFE5046FFF79FFE0CF0EFFC4FF0DC
:10471000E021D1F800014FF0806210F0806F01D0ED
:10472000012000E0002018B9C1F88022C1F8002162
:10473000B8F1000F0AD0D9F80400D0E90431D9E962
:104740000402181A61EB02010AF0C6FEF8B280F307
:10475000118800209AE70000008AB90700C0800095
:104760002DE9F04104460025002C39D0EFF31187E4
:104770000220FEF7DFF90646FEF7F8F9401C01219A
:1047800081407018C0B280F311886078012824D16C
:10479000144E7068A0420BD10AF068FED4E90432CE
:1047A000181A62EB0102C6E904020AF0FBFE0125B9
:1047B0002046FFF785FE5DB1706848B1D0E904215D
:1047C000D6E90403101A61EB03010AF085FE04E048
:1047D0001DB9706808B90AF0E5FEF8B280F31188D7
:1047E000BDE8F08100C0800070B504461A4D55F850
:1047F000240070300BF0DBFF82B21646A2B155F8F0
:10480000240090F8011101290ED0012180F8041133
:10481000802A0FD355F82400802200F180017030E7
:104820000BF0DAFF80260CE055F82410002081F808
:10483000000170BD55F8240000F1800170300BF0CC
:10484000CBFF55F82400324600F18001001D1DF415
:10485000F1D00028EDD170BDCC4380002DE9F843A4
:1048600004464B4E56F82400071D022C7ED290F8C9
:104870006C1000297AD0012978D180F80111002527
:1048800056F82400D0E903120A44017D01F0010129
:10489000C91D02EB01084168CA6FC2F38002002AF9
:1048A000FAD090F80411E1B1DFF8E8906D1C56F8E9
:1048B0002400001D05F0CCFE10280BD056F8240073
:1048C000D9F800108068B1FBF0F000FB08F0B5EB00
:1048D000C01FEBD956F8240070300BF068FF85B28A
:1048E00026E0B0F82480C58C001D1CF41BD556F8BA
:1048F000240041F2883300EB0801491B8031001D80
:104900002A461DF45CD0E5E756F8240001227030F9
:1049100069460BF061FF56F824004068C16FC1F38F
:1049200040010029FAD09DF8001001606D1EADB263
:10493000002DE9D156F8240070300BF038FF002824
:10494000C8D1386841694906FCD5EFF310850120CC
:1049500080F3108856F8240070300BF028FF68B1FF
:10496000EFF31081012080F3108800E00DE038683B
:10497000426842F08202426081F3108856F82410A7
:10498000002081F8010185F31088BDE8F88300005C
:10499000CC438000004180002DE9F04389B00546FA
:1049A00088462C78002D06D02AB1022C05D3082089
:1049B00009B0BDE8F0830520FAE7384E05F158004C
:1049C00046F82400D2E900310A46703019460BF04F
:1049D000D9FE291D894624220C316846FDF792FB39
:1049E000291D286D0EC90DF0E9F90028E0D12C49E8
:1049F0000C200CF0DDFC2B490D200CF0D9FC2A48D2
:104A000000EBC40797F9010017F406D497F90100E9
:104A100017F420D456F82400C0F8649056F8240007
:104A2000C0F8008056F824001822083005F1400133
:104A3000FDF768FB56F824107868486056F82400A3
:104A4000001D05F0D9FD56F82400001D05F00AFEF2
:104A5000351F0127287850B92F70134803211030D3
:104A60000BF044FA6880002801DA0420A0E756F829
:104A7000240080F86C7056F82410002081F80001A2
:104A800056F8241081F8010156F8241081F802012B
:104A900056F8241081F803018AE70000CC43800017
:104AA000712A0001812A0001F42201012DE9F0415F
:104AB00004461A4D55F8240070300BF078FE82B28F
:104AC000164600277AB155F8240090F80111012903
:104AD00009D0802A0ED300F18001703080220BF0C3
:104AE0007BFE80260BE055F8240080F80071002042
:104AF000BDE8F08100F1800170300BF06DFE55F8DB
:104B0000240080F8047155F82400324600F1800139
:104B1000001D1CF4D5D70028EAD1E9E7CC4380007A
:104B200070B5022801D3082070BD0C4D55F8204007
:104B30007CB194F86C6066B169B162B1002684F80A
:104B4000026155F82000001D1CF439D70028EBD174
:104B500070BD052070BD042070BD0000CC438000F6
:104B60002DE9F04106460C46174604F1080520469B
:104B700070F422D6C3B21B48E1184268914202DDAC
:104B80000320BDE8F0811849184A006809681268D6
:104B9000891A081A001FE91881421CD94FF40045F0
:104BA00013A22946002000F413F601F0A3FE30B151
:104BB00018A22946002000F40BF60820E1E71DA208
:104BC0002946002000F404F63A4621463046BDE866
:104BD000F0410DF0BBBA3A4621463046BDE8F041FF
:104BE0000DF0B4BAD8328000D0238000CC238000EE
:104BF000523A353A4E5644532061726561206973CA
:104C0000206265696E6720636F6D706163746564AF
:104C10002E0D0A00523A353A436F6D706163746924
:104C20006E67204E564453206661696C65640D0AB8
:104C300000000000523A353A436F6D706163746949
:104C40006E67204E564453207375636365737366B5
:104C5000756C0D0A000000007CB50D460022009224
:104C60000192694600F4B6F5044634BB4FF4205176
:104C7000684600F4B1F5B8B942F60101684600F49F
:104C8000ABF588B942F60301684600F4A5F558B9BA
:104C900042F60201684600F49FF528B94FF424510A
:104CA000684600F499F508B1062406E00098C5F3BB
:104CB0000B01808808430099888020467CBD000055
:104CC0002DE9F04782460E46174698464FF00109F7
:104CD0000025D8F80040002C18D11E48046815E0C3
:104CE0003188A08881420BD3E088814204D82146D4
:104CF000504600F031F808B1246807E0012505E0CE
:104D00002146504600F028F810B1246825B105E08E
:104D10000125A0883080F9E7002CE1D1B5B14FF032
:104D20000009A0883188884204D1201D3860012004
:104D3000387109E0081A401E00EB400004EB400007
:104D40000E30386000203871C8F800404846BDE891
:104D5000F0870000F80E800070B586B0002200EBEE
:104D60004003114C03EBC00304EB43052C7D17E01B
:104D700035F8123093B18E889E420FD8CE889E426D
:104D80000CD3CA8889888DE81F00084B084A402147
:104D9000002000F41DF5012006B070BD521CD2B2F7
:104DA0009442E5D80020F7E7180F8100FA270101A7
:104DB000AC2F01012DE9F04F8BB007460C460025C2
:104DC00000200890099060880790261FE188A2883B
:104DD000CDE901210090614B61A24021002000F447
:104DE000F7F4308850B9384610F418D1401E30809E
:104DF0006088A188884200D800B90125DFF8909129
:104E0000002D60D104F10A000DF1200A0DF1140B00
:104E100004F106080A90A088069004A8CDE9020BC8
:104E2000CDE9008A022306AA07A9384600F0ACF9AA
:104E30000546280008D00A2D45D0062D43D0BDF8E0
:104E40001800401C079032E0E088B0F5205F03D0E6
:104E500042F60101884208D1BDF81000217AC3B2A0
:104E6000059A0A9800F4BAF448B92289BDF81000EE
:104E7000824218D105990A98FDF76FF998B9022175
:104E800008202BF421D00146BDF81C008880BDF815
:104E90001800C880083E59F82700603000F4A0F4DC
:104EA000384600F49FF4BDF81800401C0790A08815
:104EB000BDF81C10884206D3BDF81810884202D0F5
:104EC00030880428A7D2062D36D059F82700603044
:104ED00000F48AF440B300244FF6FF7101EA800623
:104EE000062000EB072307220421384600962DF404
:104EF0009BD301464E8059F82700006E0EE0838850
:104F00000A1913711B0A5371A41CA4B2C3880A198D
:104F100013711B0A5371A41CA4B200680028EED1BF
:104F2000084600F463F40AE021780A23BDF81C2047
:104F3000384600F45DF402E0BDF81C006080074BC9
:104F400014A240210020009500F442F4062D03D065
:104F500000200BB0BDE8F08F0120FAE7C227010165
:104F6000523A333A5B25735D20656E7465722C206E
:104F700073683D307825782C2065683D3078257839
:104F80002C20747970653D307825780A0000000087
:104F9000C40E8000523A333A5B25735D2065786910
:104FA000742C207374617475733D307825780A0011
:104FB0002DE9F04F85B081460E46484610F42ED0BC
:104FC000801E1FFA80FAD0460024B0887188CDE98F
:104FD0000010574B57A24021002000F4F9F37088CD
:104FE000B188DFF874B1884211D880B1708804901C
:104FF000002002900390019001AB02AA04A9484648
:10500000FFF75EFE0546280003D00A2542E0012591
:1050100040E0B088BDF81010884232D30221182039
:105020002AF452D70746012000900023FA1DB91D2B
:1050300002A800F4DFF30546280007D040F24E2313
:1050400046A22946BDF8100000F4D6F3BDF81000C2
:10505000B88004B9BC79B879A04203D038462AF4A4
:10506000B3D517E05BF829003946603000F4B8F397
:10507000A8EB0400801E1FFA80F8BDF81000401C49
:105080000490B188BDF81000814203D310B1A01C78
:105090008045B1D25BF82900006E18B1002018B12C
:1050A0009DB334E00120FAE70026AAEB08081FFAB6
:1050B00088F00090062000EB0923052204214846D1
:1050C0002DF4B2D20746022C08D0022078707888DE
:1050D000404478805BF82900046E10E00120F5E779
:1050E000A188B8198180B61CB6B2B819A279001D82
:1050F000E11DFDF707F8A079304486B22468002C42
:10510000EED1384600F472F307E0FFE70A25728813
:1051100031782B46484600F46BF3054B13A240212F
:105120000020009500F454F305B00020BDE8F08F96
:10513000A9270101523A333A5B25735D20656E74ED
:1051400065722C2073683D307825782C2065683D89
:10515000307825780A000000C40E800061747473F2
:105160005F70617463682E6300000000523A333A46
:105170005B25735D20657869742C20737461747588
:10518000733D307825780A002DE9F04F87B08346CB
:10519000DDF844900C4615469A460026B4F8008087
:1051A0000027019701AB4A4621465846FFF788FD84
:1051B00010B12888208026E02088298888421BD8C2
:1051C000002302AA06A94846009700F413F30146FB
:1051D00029B1208840F269131AA200F40DF39DF85A
:1051E000183002AA5146109800F4F8F208B10126CE
:1051F00002E02088401C20802EB92088298888421F
:1052000001D80028CED16EB122884B4600215846E5
:1052100000F4F4F2C6B22088494600F4F1F2288086
:1052200026B10AE00A26A4F8008006E02188DDE91C
:105230001223584600F4E6F2C6B207B03046BDE885
:10524000F08F0000617474735F70617463682E6323
:10525000000000002DE9F04105460C46FF26217AAA
:105260001E2905D022480279521E52B200683AE047
:1052700004F10801284600F4C7F2064635E010F8AC
:1052800032308B422DD11B4E56F82500406F30B383
:1052900000273B4618A24021002000F499F2062086
:1052A00000EB05202BF466D0C00605D5002717A219
:1052B0004021002000F48CF221460C3956F82500DC
:1052C000743000F48DF20020A08001266FB115A289
:1052D000402100F47DF2284600F498F205E0012711
:1052E000D7E7521E52B2002AC9DA3046BDE8F08133
:1052F0007C058000C40E8000523A333A65786563BD
:105300007574653D307825780A000000523A333ACA
:10531000636F6E6E656374206E6F742063666D0AD2
:1053200000000000523A333A737461727420657859
:1053300065637574650A00000348024901600D2128
:1053400041607047082701017C0580002DE9F04F7E
:105350008BB082460C460026002009900A90608897
:105360000890251FB0462988A288CDE90121009028
:105370006D4B6EA24021002000F42AF2288850B91B
:1053800050460FF44BD6801E28806088A188884242
:1053900000D800B90126714850F82A00006E10B1FB
:1053A000002111B103E00121FBE790F80680002EF7
:1053B0005DD104F1080BA088079006A805A909AAE9
:1053C000CDE90210CDE900B2A37907AA08A9504699
:1053D000FFF7DAFE0646300049D1BDF814108845C3
:1053E00002D0B8F1000F42D12888001FFB22FB2811
:1053F00000D31046814200D2084687B2022107F14D
:105400000C002AF461D58146BDF81480BDF8200057
:10541000A9F80400BDF81C00A9F8060089F8087076
:105420003A4609F109000699FCF76CFE2888C01B72
:10543000001F28804948494650F82A00603000F48F
:10544000CFF1BDF81400874202D1504600F4CAF1F2
:10545000BDF81C00411C89B20891A2888A4206D37B
:10546000824204D0298808F104008142A3D2062E8A
:1054700048D03A4D55F82A00603000F4B5F1C0B379
:10548000002755F82A100C6E217A091D41431FFA96
:1054900081F8062000EB0A23112204215046CDF8A2
:1054A00000802DF4C1D00546A5F80280217A091D9F
:1054B000697018E0A188E8190171090A4171BF1CDF
:1054C000BAB2E188A8180171090A4171921C97B219
:1054D000E819227A001D04F10901FCF713FE207A75
:1054E000384487B22468002CE4D1284600F47EF1C9
:1054F0000BE0FFE721783346BDF82020504600F44A
:1055000077F102E0BDF820006080074B14A2402133
:105510000020009600F45CF1062E03D000200BB0B2
:10552000BDE8F08F0120FAE789270101523A333AAA
:105530005B25735D20656E7465722C2073683D3049
:105540007825782C2065683D307825782C20726588
:105550005F6C656E3D307825780A0000C40E8000CF
:10556000523A333A5B25735D20657869742C207359
:1055700074617475733D307825780A002DE9F04F19
:105580008BB082460C460026002009900A90608865
:105590000890251FB046A188694BCDE9000169A29A
:1055A0004021002000F414F1288850B950460FF42F
:1055B00035D5801E28806088A188884200D800B92F
:1055C0000126694850F82A00016E11B1002010B17F
:1055D00003E00120FBE791F80680EEBB04F1080B25
:1055E000A088079006A805AA09A9CDE90220CDE95F
:1055F00000B1A37907AA08A95046FFF7C5FD0646E2
:10560000300047D1BDF81410884502D0B8F1000F22
:1056100040D12888801EFD22FD2800D310468142FB
:1056200000D2084687B2022107F108002AF44CD4C0
:105630008146BDF81480BDF82000A9F8040089F85F
:1056400006703A4609F107000699FCF75BFD2888C9
:10565000C01B801E288000E01CE04348494650F8EB
:105660002A00603000F4BCF0BDF81400874202D17B
:10567000504600F4B7F0BDF81C00411C89B20891F7
:10568000A2888A4206D3824204D0298808F1020007
:105690008142A5D2062E40D0334D55F82A00603005
:1056A00000F4A2F080B3002755F82A100C6EA179FF
:1056B000891C41431FFA81F8062000EB0A230922C6
:1056C00004215046CDF800802CF4AED70546A5F84D
:1056D0000280A179891C697010E0A188E819017124
:1056E000090A4171BF1CBFB2E819A279001DE11D72
:1056F000FCF708FDA079384487B22468002CECD16F
:10570000284600F473F00BE0FFE721783346BDF83C
:105710002020504600F46CF002E0BDF820006080CC
:10572000074B12A240210020009600F451F0062EF3
:1057300003D000200BB0BDE8F08F0120FAE7000095
:10574000DE270101523A333A5B25735D20656E74A2
:1057500065722C2073683D307825782C2065683D73
:10576000307825780A000000C40E8000523A333A9F
:105770005B25735D20657869742C20737461747582
:10578000733D307825780A002DE9FF5F81460F468A
:105790000024A246CDF808A0CDF80CA0584850F837
:1057A0002900603000F420F080463D1F7988288869
:1057B000544BCDE9001054A24021002000F408F021
:1057C0002888E8BB48460FF429D4401E28800026CC
:1057D00011E007EB460002AB82880021484600F446
:1057E0000DF0C4B2CDF808A0CDF80CA00CB1B046B5
:1057F0003BE0761CB6B27888B042EAD835E007EBD9
:1058000048006B46818801AA4846FFF7FBDFC4B217
:105810003CBBBDF804002988884200D3084686B204
:10582000022106F108002AF44FD38346ABF8046046
:1058300032460BF106000099FCF764FC304800E0AA
:1058400013E050F8290059466030FFF7C9DF484699
:10585000FFF7C8DF2888801B288008F101081FFA9D
:1058600088F8CDF808A0CDF80CA07888404503D979
:10587000288808B1002CC2D044BB48460FF4CED3D0
:105880002988401A401E86B20025062000EB092315
:105890000F220421484600962CF4C6D68246AAF868
:1058A0000260174850F82900066E0AE00AEB05006E
:1058B000B288001DB11DFCF725FCB088284485B2D4
:1058C0003668002EF2D15046FFF790DF4CB1062C1F
:1058D00007D007EB48003978828823464846FFF70F
:1058E00087DF084B14A2402100200094FFF770DFEF
:1058F000062C03D0002004B0BDE8F09F0120FAE799
:10590000C40E800070270101523A333A5B25735D63
:1059100020656E7465722C206E625F68616E646CC7
:10592000653D307825782C2072655F6C656E3D3062
:105930007825780A00000000523A333A5B25735DFF
:1059400020657869742C207374617475733D3078A8
:1059500025780A0010B500210A4C0023002001EB35
:10596000410202EBC10204EB420222F81030401C5B
:10597000C0B20A28F9D31375491CC9B20A29EDD35C
:1059800010BD0000180F810002460020002152F8CF
:1059900021300BB1401CC0B2491CC9B20C29F6D34E
:1059A000704710B508F014F8BDE8104002F0B6BE1C
:1059B00007F0A4BD10B58CB008A80BF001FFBDF82E
:1059C000221009989DF82120CDE904109DF820307F
:1059D0002EA04FF4A371CDE90232CDE90010354B72
:1059E00035A23BA10220FEF7DFFB0AA860F4E0D25B
:1059F000044654B114222F490E3103A8FCF782FB50
:105A0000ADF8104003A8FEF797F89DF828009DF820
:105A10002910CDE906109DF82A209DF82B30CDE9FC
:105A200004329DF82C109DF82D002BA240F24B1350
:105A3000CDE90032CDE902011E4B1FA224A10220B4
:105A4000FEF7B2FB2FA04FF4A971CDE90010194B5E
:105A500019A21FA10220FEF7A7FB0BF0F3FA02F038
:105A6000BBFA3349002000F095F90446002C0AD017
:105A700014221049223103A8FCF744FBADF8104072
:105A800003A8FEF759F80CB010BD0000476F6F6413
:105A9000697820424C452053444B205625642E25DE
:105AA000642E25642028636F6D6D69742025782924
:105AB00000000000DE2401012E2E5C5372635C7531
:105AC0007365725C757365725F6170702E63000040
:105AD0004E4F5F54414700004C6F63616C20426F32
:105AE00061726420253032583A253032583A2530D8
:105AF00032583A253032583A253032583A25303229
:105B0000582E0000476F6F6469782049534D206418
:105B10006972656374207472616E73706F72742041
:105B2000736C61766520737461727465642E000015
:105B3000DC4580002DE9F0410546884628466AF498
:105B4000FFD2C0B22449097888420DD200EB400050
:105B5000213040F400404246AC2109F08FFD04465C
:105B6000200032D0012430E06AF42ED3C7B207EB14
:105B7000470606F1200040F400402A46072109F0BC
:105B80007DFD10B10120BDE8F081384676F46CD47B
:105B900006F1210040F400404246AC2109F06EFDC0
:105BA0000446200001D00120EDE7223646F40040F3
:105BB00071F42CD50949C7EBC70009680844296866
:105BC0000160A9888180A97981711CB94146284664
:105BD000FDF78EFD2046D6E7382380003C23800069
:105BE0000020704710B50AF01FFF01F467F20AF0B9
:105BF00013FF0AF0ABFB0BF07DFF00F0C5FB01F4D7
:105C000079F200F00FFBBDE8104000F0EFBA0AF0A7
:105C100021BB10B506F032FE08F00AF806F03EFE91
:105C200007F042FA06F09EFE06F0F8F9FFF784FB53
:105C300003F012FC0AF088FF0BF098FBBDE810405F
:105C4000FFF788BE0148FFF79FBE0000B413800035
:105C500010B5FFF7DCFF054903480860BDE81040B8
:105C6000034875F47396000017B8800474C500A04B
:105C70000087930310B50446002C0CD0204600F09A
:105C800041FA002807D104494968002903D0204679
:105C9000BDE81040084710BD204780003EB50446CF
:105CA00040F201322088A0F20131904226D016DC69
:105CB000B0F5807F1ED0A0F5007007380ED1608847
:105CC00000280BD01BA14FF49672CDE90021029061
:105CD000214B22A227A10320FEF766FA3EBD01292F
:105CE00014D00529FAD1207903B00121BDE8304054
:105CF00060F45A97BDE83E40FFF75CBE207903B0E0
:105D000004F10801BDE83040FDF78ABE207A1BA1EE
:105D100040F23512CDE9002102900F4B0FA215A1E0
:105D20000220FEF741FA217A207903B0BDE8304025
:105D3000FDF7C0BE416476657274696E6720737446
:105D40006172746564206661696C656428305825E9
:105D5000303258292E000000CE2401012E2E5C5333
:105D600072635C757365725C757365725F61707088
:105D70002E6300004E4F5F54414700004469736337
:105D80006F6E6E65637465642028307825303258F4
:105D9000292E00002DE9F84307460D46EFF3118642
:105DA0005648017856480068C0F30220401C012282
:105DB00082408818C0B280F311886AF497D2804676
:105DC000052F06D34FA210210020FFF701DD152477
:105DD00081E07DB14E48C7EBC70100EB8104E0686C
:105DE00040B1617A69B14BA210210020FFF7F0DCCD
:105DF0000F2470E04AA210210020FFF7E9DC022402
:105E000069E02169F1B9017841B1012910D047A2B7
:105E100010210020FFF7DCDC23245CE081784907B7
:105E200010D445A210210020FFF7D2DC232452E039
:105E30008178890706D443A210210020FFF7C8DC2F
:105E4000232448E041888A0704D50278012A01D139
:105E500062691AB10278022A07D008E03CA2102138
:105E60000020FFF7B5DC252435E0A26962B10907FF
:105E700011D5298809B180290DD938A21021002017
:105E8000FFF7A6DC262426E037A210210020FFF72A
:105E90009FDC24241FE0407802280CD1288818B108
:105EA00044F25061884206D932A210210020FFF747
:105EB0008FDC26240FE0E06928B90021042065F476
:105EC00013D5E061B8B1E069296801603946002066
:105ED0006AF468D300243B4629A2102100200094D4
:105EE000FFF776DC40466AF4CBD1F0B280F311883C
:105EF0002046BDE8F8831024EDE7000002E400E04E
:105F00000CED00E0523A313A453A310A0000000007
:105F10007C278000523A313A453A330A00000000AB
:105F2000523A313A453A320A00000000523A313AC8
:105F3000453A360A00000000523A313A453A340AEE
:105F400000000000523A313A453A350A000000009C
:105F5000523A313A453A370A00000000523A313A93
:105F6000453A390A00000000523A313A453A380AB7
:105F700000000000523A313A453A31300A00000040
:105F8000523A313A6164765F73746172745B25646E
:105F90005D3A20453A3078253032780A000000001A
:105FA0000A2805D2034A002152F8200080F88F10F9
:105FB00070470000C40E800070B504460D462046B0
:105FC0000AF080FD002805D129462046BDE8704032
:105FD00062F4F09770BD70B504460D4620460AF095
:105FE00071FD002804D12946204664F48FD080B288
:105FF00070BD000070B505460E46002D05D00D4859
:1060000068F4B2D284B214B110E0022070BD142042
:1060100075F424D7014659B10D61CE60064A507817
:106020000871401C5070101D06F073F8204670BDBA
:10603000102070BDE8260101B847800070B5044605
:106040000D4620460AF03EFD002805D1294620468F
:10605000BDE8704064F4A09170BD70B504460D4673
:1060600020460AF02FFD002804D12946204664F47A
:106070007FD480B270BD000000B58BB0094901200B
:106080000870FF22282101A8FCF74EF84FF4807019
:10609000ADF804000020ADF8060001A8FFF7EAFD06
:1060A0000BB000BD2047800010B5064800680028EE
:1060B00000D0804702F4B2F108B1012010BD0020E9
:1060C00010BD0000EC4F800010B540F4404071F46A
:1060D0009DD210BD10B540F4404009F0CFFA10BD7C
:1060E0000449016004494160044981600449C16078
:1060F0007047000041C2060015C20600D5600001CD
:10610000C960000170B50446002C1FD04FF6FF7324
:106110001946228840F20155A2F201504FF48076D0
:10612000AA424CD01BDC40F20245A2F20240AA4235
:1061300034D00DDCA2F54072013A25D0012A23D0DB
:10614000FF2A29D0B2422ED121892CE0002070BD37
:10615000012825D0022825D0FE2824D12AE00428B1
:106160002DD006DC01282AD0022828D003281AD1F5
:1061700025E0052823D0062821D0B04213D120469F
:1061800003F01CF8002070BD204603F071FB204690
:1061900003F0EAF9002070BD218904E0218902E0C2
:1061A000618900E0218A99420ED0204603F070FBFD
:1061B000012070BD204603F06BFA002070BD204620
:1061C00003F0E2F9002070BD002070BD10B507F0AB
:1061D000F1FE08F09FFF08F003FB02F041FC02F023
:1061E00019FDBDE8104000F47DB7000010B5222174
:1061F0000A4809F061FF0A21094809F057FF032105
:106200000748503009F04CFFFFF703FD0520FFF76A
:10621000CFFBFFF7DBFFFFF7C4FB10BD0841800099
:106220001842800004490348086005490348086093
:1062300070470000B17A00010C228000ED7C000163
:106240001822800070B50026150A0E4805EB45029D
:1062500000EB0214098821800120A0702846FFF776
:106260009FFE00206AF40CD00748016829B10B6832
:106270001BB122880021284698476AF437D030465F
:1062800070BD0000D42E8000B82280003EB50024EE
:106290001D0A0A78122A02D0132A04D006E0002030
:1062A0008DF8000002E001208DF800008888ADF82C
:1062B00004004888ADF80200891D0291002069F4AD
:1062C000DFD70B48016829B18A691AB169462846A7
:1062D000904708E09DF80000012804D1BDF80410A3
:1062E0002846FFF769FE6AF401D020463EBD000053
:1062F000B422800001480078704700000C508000F4
:106300007CB50E46150A002000900190694628468B
:1063100074F434D09DF806206946284602F05EFFEA
:106320000446CCB163F432D6C0B163F42FD6C01C9E
:1063300081B23288002320466EF410D26946284686
:106340000AF03EFC40B106A240210020FFF740DAEF
:10635000214668465FF478D300207CBD0020E7E743
:10636000523A333A7361766520636363640A0000CE
:106370007CB5DDE90654CDE9005467F433D4BDE8BB
:106380007C4009F021BE00000249014808607047C6
:10639000716300014823800010B588B0044667F49B
:1063A000AFD60020079007A855F456D50798FFF7F9
:1063B00097FE2068019060680290A0680390E068F2
:1063C0000490208AADF81400608AADF81600A08A07
:1063D000ADF81800E08AADF81A0001A855F466D5AA
:1063E00055F446D50348016801614168416108B030
:1063F00010BD0000300100B010B58AB00446FF2285
:1064000028216846FBF790FE40F20271ADF80010BB
:106410000021ADF802108DF804406846FFF72AFC11
:106420000AB010BD30B58568027B002D02D0002077
:1064300001210CE0104630BDCB0801F00704EB5CF5
:10644000E340DB0701D0401CC0B2491CC9B28A42FC
:10645000F2D830BD00230849496808E0CA88824262
:1064600004D80A89824201D3CB6802E00968002976
:10647000F4D1184670470000B8478000014605482F
:10648000406803E002798A4202D000680028F9D10E
:1064900070470000B847800070B5104E3078FFF7A5
:1064A000EDFF0446200006D0206964F453D0054671
:1064B000280002D00DE00C2070BD2069FFF7B2FF6C
:1064C0000146206902681288E2800068008808445A
:1064D00020813078401C3070E8B270BDB847800031
:1064E00070B519480468194D2878002801D000209B
:1064F00070BD4FF0806072F4FBD504F451F0600879
:1065000073F406D5124908608817114901262C3901
:10651000086010497006C1F8FC01C8674FF03041AF
:10652000086B40F007000863094C303C206840F4D9
:10653000E020206004F476F02E70206820F4E02043
:106540002060012070BD00006C248000E44F8000BA
:1065500070C500A084E000E070B50024EFF3108661
:10656000012080F3108804F478F0104D28B1022443
:106570002968B9B10220884714E0FFF795FD20B1E2
:10658000296879B1002088470CE0FFF7A9FF28B1FE
:106590000224296831B10220884703E0296809B143
:1065A0000020884786F31088204670BD5C24800058
:1065B00010B5084A1378002B01D00F2010BD31B15F
:1065C00050600448243000F007F8002010BD02207D
:1065D00010BD0000204780002DE9FC4705460C4611
:1065E000FFF700FB69F482D607463648006800B121
:1065F0008047354901200AF0DBFE344902200AF0C9
:10660000D7FE0120FBF776FDA08E81B2206B02F051
:1066100071F8DFF8BC90DFF8BC80E16999F8000000
:1066200098F800200244B1FBF2F1CEB216FB00F163
:10663000A06965F4BBD6286864F44AD2686860F43F
:1066400057D1286967F4F6D5A86862F4EFD3E868F3
:1066500062F494D420484DF41DD020484DF420D04D
:106660001F484DF423D01F4855F44CD41E484CF419
:10667000C7D71E484CF4CAD71D484CF4CDD71D4887
:1066800065F468D64FF0806072F432D52046FFF78B
:1066900083FED4E90A01CDE9000199F80010A06950
:1066A00016FB010098F8001016FB01F1D4E908234D
:1066B000114C2468A047384669F4E2D5BDE8FC4790
:1066C00065F42C978026800039380600DD370600F7
:1066D00029D507002AD50700119F0700B9C3060076
:1066E00065C40600EDAF070025ED060045ED060088
:1066F00065ED0600799B070048238000034900EB05
:10670000800001EB800080887047000028488000EE
:10671000034A00EB800002EB80008180704700009C
:106720002848800010B500F065F800F047F8BDE893
:10673000104000F001B8000000B58FB003228DF8C2
:1067400000204FF48050019005218DF808100120A1
:106750008DF8090000238DF80A308DF80C204303D2
:1067600004938DF814108DF815008DF816008DF82F
:106770001820C30307938DF820108DF821008DF8A1
:1067800022208DF8242082030A928DF82C108DF897
:106790002D0002228DF82E2004238DF830300D922A
:1067A0008DF838108DF839008DF83A30024A684675
:1067B000FDF722FC0FB000BDA13F00017CB5102603
:1067C000009602248DF804408DF8054007258DF8C9
:1067D000065069460320FFF701DB00968DF8044060
:1067E0008DF805408DF8065069460520FFF7F6DA6A
:1067F0007CBD000000B587B000F01EF803208DF8C6
:1068000000001D208DF8160001208DF817008DF86E
:1068100018008DF81900044A04496846FDF798FCF1
:10682000FDF79AF807B000BD3168000189680001E2
:106830000020FEF713B800001CB5114800904FF47B
:106840008064019400F58060002101704FF4E13212
:106850000264032242648164C164016501214165CF
:106860000274CB0243610223437401760271846097
:10687000437101736A460349FEF78EF81CBD0000A0
:1068800020B78000FF2100010A4601464FF47A73C9
:106890000020FEF745B900000E4910F1210F06DA7D
:1068A000086820F4704040F440500860704710F1D0
:1068B0001D0206D3086820F4704040F48040086050
:1068C00070470A28FCDD086820F4704040F4A040BE
:1068D0000860704724C500A010B50AF0B5F809F0AB
:1068E000EFFA0AF09FFF00F035FBBDE810400AF018
:1068F0008BB800002DE9F04F87B07B48D0F80090AE
:1069000000240025A24600260BF0FCF87748016819
:10691000C9F800104068C9F80400754800680830DC
:10692000059009F108000690042203A9059800F0DB
:10693000DDFABDF80C10A1F57F40FF3843D00822E6
:1069400003A9059800F0D2FABDF80E006EF434D712
:1069500000F0FF08BDF80C00002867D00698A9EBEE
:10696000000707F58057BDF80E1008F108008346B0
:106970000844B84263D805AB082203A906A800F072
:10698000EBF8BDF80E00002300EB080205A906A8ED
:1069900009F070FB641CBDF80E005844B842C3D126
:1069A0000020CDE9006053464A46214628460BF0B8
:1069B000E3FA002826D1824600260024CDF818905C
:1069C0006D1CEDB2B0E70020CDE9006053464A46A9
:1069D000214628460BF0D0FA002813D16D1CECB2EA
:1069E000434D4FF48057434E08E0286800EB0430D5
:1069F000394603F0B1FA40B1641CE4B2707AA042A7
:106A0000F3D8002007B0BDE8F08F3B488169407A99
:106A100040F26242CDE900200291384B38A24FF497
:106A200000410020FEF7D4DE0920EBE7BDF80E00A0
:106A3000059908F1080808444044059074E7082FB8
:106A400029D305AB082203A906A800F085F8083F62
:106A50002FB100233A4605A906A809F00BFB611CDB
:106A60000020CDE9006053464A4628460BF084FAE0
:106A70000028C7D18246BDF80E004044C61B002442
:106A8000CDF818906D1CEDB20023324605A906A87A
:106A900009F0F0FA48E705AB3A4603A906A800F06A
:106AA0005BF8611C03A8CDE9006053464A462846BE
:106AB0000BF062FA0028A5D1C7F1080ABDF80E0054
:106AC00000EB08060024CDF818906D1CEDB20123F0
:106AD000524605A906A809F0CDFA0023324605A9B9
:106AE00006A809F0C7FA1FE790468000ACD507005A
:106AF000CC238000D8328000641F8000BE260101B4
:106B0000523A353A25732C204C256420666C61730B
:106B100068207374617465203078253032582C20D9
:106B20006572726F72203078253038580D0A000077
:106B30000221B0FBF1F2FF2A04D8B0FBF1F201FB15
:106B400012022AB1491CC9B24029F2D30020704771
:106B5000B0FBF1F0C0B2704770B5044615461E4652
:106B60002A462068FBF7CEFA306828443060206857
:106B70002844206070BD000010B50548017B491C09
:106B80000173002073F432D0BDE8104000F050B81B
:106B9000D04780002DE9FE43FFF739F81E48016811
:106BA00021F4003101601C4E083E30681B4980B260
:106BB000084330601A4803C8CDE9000116482C3854
:106BC0000068C82100F007001DF8000010FB01F567
:106BD00014480768144CD4F800803846414603F046
:106BE00001F962686068831AAB42FBD341463846BC
:106BF00003F0D8F809F0FEF902909DF8080028B1DA
:106C00009DF80800094948618861C861306820F032
:106C10007F403060BDE8FE8330C500A000008F11CA
:106C2000AC6E0001FCED00E0001000E0D0478000F9
:106C30002DE9FC412D4E306820F07F4040F0885017
:106C400030602B4803C8CDE900012848243800688B
:106C500000F007011DF80100C82110FB01F52548CF
:106C60000768254CD4F800803846414603F0BAF84E
:106C700062686368981AA842FBD34146384603F01D
:106C800091F8002509F0B6F90446DFF87080D8F8CD
:106C90001800844201D9012700E0002772F44CD685
:106CA00040B91FB1D8F81800201A02E0D8F818002F
:106CB000001BC5B2D8F81800C8F82000B5EB900F3B
:106CC00003D8292C01D8112C02D200F019F807E0C2
:106CD00000EBC00020440A21B0FBF1F0C8F8180016
:106CE000306820F07F403060BDE8FC8128C500A0FE
:106CF000AC6E0001FCED00E0001000E0D047800029
:106D00002DE9F04F87B0002006900824DFF890812D
:106D10001A20C8F8140063480168634A89B2114315
:106D2000016005A8FBF752FE0220FBF757FEDFF8D3
:106D3000749109F10809D9F8000020F47C3040F47E
:106D40002030C9F8000059A003C8CDE90201DFF8DE
:106D500054A1AAF1240ADAF8000002A900F0070001
:106D6000085CC82110FB01F5DFF848B1DBF8000032
:106D70000190514F3E680198314603F033F878682E
:106D80007968091AA942FBD33146019803F00AF841
:106D900009F030F904909DF81010D8F814008142E1
:106DA00004D99DF81020811C8A4263D99DF81010E7
:106DB000814204D29DF81020811E8A425AD29DF849
:106DC0001010814201D9012500E0002515B1641C95
:106DD00064B201E0641E64B2202C11D3D9F8000023
:106DE00020F47C3040F42030C9F80000D8F83C0092
:106DF000401CC8F83C00002004900120069039E0B7
:106E0000D9F8000020F47C3040EA043040F400302F
:106E1000C9F8000025A003C8CDE90201DAF8000096
:106E200002A900F00700085C642110FB01F6DBF802
:106E30000000019038680090DDE9001002F0D2FFF8
:106E400078687968091AB142FBD3DDE9001002F0D5
:106E5000A9FF09F0CFF8049035B19DF81000D8F8DB
:106E600014108842B2D805E09DF81000D8F814102C
:106E70008842ABD39DF81400FBF7B0FD09480168C8
:106E800021F07F4101609DF81000C8F81800D8F883
:106E90002400401CC8F82400069807B0BDE8F08F15
:106EA000D047800028C500A000008F114030101886
:106EB00010200000FCED00E0001000E00A4932283C
:106EC00008DDD1F8200220F4706040F44070C1F871
:106ED000200270472828FCDAD1F8200220F47060E4
:106EE000C1F820027047000000E000A02DE9F04149
:106EF00005460E461746094C2378002B02D0002089
:106F00006EF4CED73A463146284603F065F805467A
:106F100020786EF4C5D72846BDE8F081C9238000EB
:106F20002DE9F04105460E461746094C2378002B03
:106F300002D000206EF4B4D73A463146284603F01A
:106F40005BF8054620786EF4ABD72846BDE8F081A3
:106F5000C92380000121024A002068F40596000040
:106F6000359B000110B5104C02220421204605F08B
:106F700027FB01221021204605F022FB022280215E
:106F8000204605F01DFB02224021204605F018FB9B
:106F900002222021204605F013FB20460222BDE8F4
:106FA0001040082105F00CBB001001A02DE9F047AE
:106FB00082462DED028B84B0894617469846002004
:106FC0000290039000250026019001A80AF092FA91
:106FD0003748016821F4C07141F0800101604168C7
:106FE00021F480514160002450460AF045F809F030
:106FF0001FF902F0DBFC02900298064448460AF0B2
:107000003BF809F015F902F0D1FC0390DDE902101C
:10701000401A0544641C072CE6DB2846FBF7BAF847
:107020009FED248B53EC182BFBF723FA41EC100B4C
:10703000FBF7A6FD51EC100BFBF7A9FA044630460E
:10704000FBF7A8F853EC182BFBF713FA41EC100BE5
:10705000FBF796FD51EC100BFBF799FA0346002065
:10706000164A1CE000FB04F1B1FBF7F11944029150
:10707000134D0299B5FBF1F108F80010114D02997A
:10708000B5FBF1F19DF804502944C9B2115480298F
:1070900003D90D4D2D7829441154401CC0B2B8427B
:1070A000E0D309F0A1F804B0BDEC028BBDE8F08795
:1070B000802001B00000000000001C400C12810084
:1070C00000C0A8320080D725F04F80002DE9FE4F88
:1070D00007460D4602AA294638460AF0DDFD10B1E2
:1070E0000298BDE8FE8F029C00260296DFF86880B9
:1070F00098F8000010B100206EF4D2D6DFF85CA042
:107100004FF6FF7908226946204602F065FFBDF878
:107110000000484502D12E80029617E0B84206D101
:1071200015B1BDF802002880083402940EE0BDF8C5
:1071300002006EF441D3BDF8021008302144441817
:10714000DAF800008442DDD32E80029698F8000021
:107150006EF4A6D60298C4E7C9238000D02380002D
:1071600070B506460024094D0BE004EBC40005EBA6
:107170008000801C07223146FAF7EFFF20B1641C23
:10718000E4B22878A042F0D8204670BD940D81006A
:1071900010B50021084B5A681B8809E052F83140AD
:1071A000844203D102EBC100406810BD491C89B282
:1071B0009942F3D310BD00001846800010B500219D
:1071C000084B5A681B8809E052F83140844203D1C9
:1071D00002EBC100406810BD491C89B29942F3D34B
:1071E00010BD00000C46800010B50021084B5A6805
:1071F0001B8809E052F83140844203D102EBC10000
:10720000406810BD491C89B29942F3D310BD0000FB
:10721000204680000349095C002902D0002105F0C6
:10722000E5BE7047FE0E810010B5884210D80829CF
:107230000ED2094B074A5A6006E003EB80029468BD
:1072400044F001049460401C8842F6DD032018607D
:1072500010BD000000400030002000E02DE9F047A4
:10726000164F3868002826D04FF00009002400256A
:107270000526DFF84C8013E005EB4501012018F8E6
:10728000212090403A68104208D008EB8103224642
:10729000D3E90101641CE4B200F01CF86D1CEDB2EE
:1072A000B54201D2062CE7D3641EE1B24846BDE8E0
:1072B000F047FFF7B9BFBDE8F0870000084680003F
:1072C0001026010113B501216846FCF72DFF0120AE
:1072D0001CBD000070B505461446114840F83450F6
:1072E00000EBC4004160284602F04CFC0646FF203B
:1072F00002F04AFC014625F001000A4B850703EB2A
:107300008402094B06D0801E906006EB014043F8D2
:10731000240002E0906043F82410204670BD000075
:10732000643D8000002000E0004000302DE9FC4179
:107330000C46474A6178A07852F82110CDE9001038
:10734000237844A210210020FEF742DA607801265B
:107350004F4F052530B1012837D0022849D00328E6
:1073600072D15AE020786BF499D1C0B2C0EBC00161
:1073700007EB81014D72A278452A09D1CA681278BB
:10738000022A17D091F82020022A01D081F820602B
:1073900091F82020012A04D0022A02D0032281F889
:1073A000202091F82020022A4ED0C96809780229AD
:1073B00006D102E007224A72EAE7A178452943D0C4
:1073C000344A0021126890473EE087F89950A0782F
:1073D000452805D197F89C00022801D087F89C60C9
:1073E00097F89C0002282FD02B4900200968884775
:1073F0002AE087F8A550A078452805D197F8A8007D
:10740000062801D087F8A86097F8A80006281BD0A6
:10741000224900200968884716E020786BF4A0D143
:10742000C0B207EB001181F8B150A278462A01D012
:10743000CE2A01D181F8B35091F8B310022903D0BC
:10744000174A0021126890470020BDE8FC81000027
:1074500068228000523A313A6163742073746F700D
:107460007065642C206163745F6964783A202564D8
:107470002C206163745F747970653A2025732C2029
:10748000726561736F6E3A203078253032780A0069
:107490007C278000102280001422800018228000A7
:1074A0001C22800010B58AB00C46FF2228216846B5
:1074B000FAF73AFE40F20A20ADF80000ADF80240BB
:1074C0006846FEF7D7FB0AB010BD10B58AB0044677
:1074D000FF2228216846FAF727FE40F20D20ADF87A
:1074E00000000020ADF802001C22214602A8FAF795
:1074F00009FE1C3409946846FEF7BCFB0AB010BDB7
:1075000030B58BB005460C46FF22282101A8FAF7BA
:107510000BFE40F20722ADF80420ADF806408DF8CE
:10752000085001A8FEF7A6FB0BB030BD37B58AB0F6
:1075300005460C46FF2228216846FAF7F5FD4FF470
:107540000272ADF80020ADF802408DF804509DF8AD
:1075500030008DF808006846FEF78CFB0DB030BD9A
:1075600000B58BB0FF22282101A8FAF7DDFD4FF40A
:107570004170ADF804000020ADF8060001A8FEF748
:1075800079FB0BB000BD00002DE9FF470C46667883
:107590008DF80D6020784FEA1329CDE900905A4B01
:1075A0005AA2102102960020FEF712D920786449D1
:1075B000644F4FF0000801EBC905092861D008DCD1
:1075C000092824D2DFE800F09A8B9A4A4A9A9A2432
:1075D000240017282FD004DC0B2807D0142816D13C
:1075E0006AE0182814D0192811D111E060782228F7
:1075F0000DD1002068F444D65348006828B1436890
:107600001BB100220F214846984768F46FD675E0F9
:1076100069F42CD5044685F80580002068F430D63E
:10762000386828B1436D1BB1224631464846984719
:1076300068F45CD662E069F419D5044685F80480E4
:10764000002068F41DD6386828B183681BB1224633
:1076500031464846984768F449D64FE069F406D564
:10766000044685F80680002068F40AD6386828B1F8
:10767000836D1BB1224631464846984768F436D69A
:107680003CE069F4F3D4044685F80280002068F4F5
:10769000F7D5386830B1C36C23B136B122463146D4
:1076A0004846984768F422D628E0002CFAD02246B3
:1076B000314648469847F5E769F4D8D4044685F83A
:1076C0000380002068F4DCD5386828B1C36D1BB195
:1076D000224631464846984768F408D60EE060785E
:1076E00060B1002068F4CCD5386828B1C36B1BB1F9
:1076F000617800224846984768F4F8D569F4BCD40C
:1077000004B00020BDE8F087CB260101523A313A9F
:1077100025733A20636F6E696478203D2025642CC0
:10772000206F70636F6465203D20305825782C20D1
:107730006572726F72203D2030582578000000007D
:107740002A27800098218000EC23800010B58AB0A1
:107750000446FF2228216846FAF7E6FC40F203318E
:10776000ADF80010ADF802406846FEF783FA0AB0A3
:1077700010BD70B58AB005460C461646FF2228217A
:107780006846FAF7D1FC40F20131ADF80010ADF8CF
:1077900002408DF804501222314602A8FAF7B2FCDA
:1077A0006846FEF767FA0AB070BD70B58AB0064643
:1077B0000D461446FF2228216846FAF7B5FC4FF41F
:1077C0004273ADF80030ADF802508DF804602068C7
:1077D0000290A088ADF80C006846FEF74BFA0AB09C
:1077E00070BD00002DE9F041ADF50E7D0C461E0A7E
:1077F000304661F4EFD20746304661F4EBD2002800
:1078000034D04DA1009133464DA210210020FDF748
:10781000DFDFFF2E5BD0574D20882880608868808E
:10782000A088A880E088E880207A2872607A687250
:107830002F74D4F80A00C5F80A00E089E8814E4A9E
:10784000002102EBC60001604160218822F8361059
:107850004FF4CA7129A8FAF76EFC29A85DF4E2D7A3
:10786000687ADFF81881012816D101E044A1C9E740
:10787000E87B0121B1EB901F0ED198F81C01400765
:107880000AD59DF8A40038B1A02101A8FAF753FC4D
:10789000002429AD01AF3DE004F10A02617A1546EA
:1078A000304672F489D5617A2A46304601F0E2FC0E
:1078B000354C6FB1002068F4E3D4206828B1836BA5
:1078C0001BB12C4A00213046984768F40FD52DE0B3
:1078D000032088F8A800D8F8AC000078012825D14A
:1078E000002068F4CDD4216829B18B6B1BB1214AEB
:1078F00000213046984768F4F9D417E004EB84007F
:1079000005EBC001093107EB04101022FAF7FAFB6E
:10791000641CE4B29DF8A400A042EFD815499DF87C
:10792000A43001AA0A3130466BF4ECD30DF50E7D7C
:107930000020BDE8F0810000534C41564500000096
:10794000523A313A636F6E6E656374696F6E5F723F
:1079500065715F696E645F68616E646C65723A2020
:10796000636F6E6964782025642C20726F6C6520CB
:1079700025730A00182780002A2780007C278000B2
:107980004D415354455200009821800070B58AB093
:1079900006460D461446FF2228216846FAF7C4FB26
:1079A00040F20533ADF80030ADF802508DF80460B8
:1079B00020680290A088ADF80C006846FEF75AF9DE
:1079C0000AB070BD30B58BB005460C46FF222821A9
:1079D00001A8FAF7A9FB40F20632ADF80420002214
:1079E000ADF806208DF80850206803906068049078
:1079F00001A8FEF73FF90BB030BD00002DE9F041C2
:107A00000D46E879FF2819D01B4FB96889B30024C7
:107A10006AF424D6C6B216B1032E05D008E0E87980
:107A20006AF43CD6C4B203E0E8796AF499D6C4B2E9
:107A3000BB682A462146304698471AE000210E20AE
:107A400063F452D70446A4B1012020702868C4F81A
:107A50000300A888A4F80700A8796072E8796AF49E
:107A60001DD6A0700E21204669F414D3204663F47D
:107A700039D70020BDE8F0816446800030B58BB076
:107A800004460D46FF22282101A8FAF74DFB40F2DB
:107A90000622ADF80420ADF806400E22294603A8C0
:107AA000FAF730FB01A8FEF7E5F80BB030BD000097
:107AB00030B58FB006200E9000250795514C03205D
:107AC00020700F20607084F82F5084F82E504FF4EF
:107AD0000070E08420850A2084F82A001B2060843E
