:020000040100F9
:10200000000084005920000161200001A54A8000E1
:10201000FF210001FD210001452200010000000018
:102020000000000000000000000000004D4C800097
:102030006B200001000000006D20000171200001F4
:10204000DFF810D000F0F2FB00F094F800480047F1
:102050009DE70001000084000648804706480047CD
:10206000FEE7FEE7FEE7FEE7FEE7FEE7FEE7FEE748
:10207000FEE700006D2A0001BDE700012DE9F05FD9
:102080000546002092469B468846064681464024E7
:102090001BE0284641464746224600F0BBFA53461D
:1020A0005A46C01A914110D311461846224600F0F4
:1020B000A2FA2D1A67EB01084F46224601200021A3
:1020C00000F099FA17EB00094E41201EA4F101041B
:1020D000DFDC484631462A464346BDE8F09F000013
:1020E0000649074A0868504343F239021044086021
:1020F000400870470149086070470000904A80001E
:102100006D4EC64140EA01039B0703D009E008C9B0
:10211000121F08C0042AFAD203E011F8013B00F8AC
:10212000013B521EF9D27047D2B201E000F8012BF8
:10213000491EFBD270470022F6E710B513460A4647
:1021400004461946FFF7F0FF204610BD421C10F868
:10215000011B0029FBD1801A704730B504460020CE
:10216000034600E05B1C934203D2E05CCD5C401B65
:10217000F8D030BD70B5054C054D03E02068204413
:102180008047241DAC42F9D170BD0000102D010123
:10219000142D01010EB540F2334102910021CDE929
:1021A00000110A460B4600F066FA03B000BD0EB5FA
:1021B00040F2334202920022CDE90022134600F0A1
:1021C0005AFA03B000BD20F00040C20DC0F3160063
:1021D00040F400007F2A02DA002001467047002107
:1021E000962A03DCC2F19602D0407047963A00F07E
:1021F00002BA43F6C51CC3F2000C6047FEE7FEE7D7
:1022000058585247010000001555000000200001F9
:10221000002000016EED52490101000000000000A5
:1022200000000000000000000000000000000000AE
:10223000000000000000000000000000000000009E
:102240001BF44A97FEE7704770472DE9FE4F804622
:1022500081EA0300C00F0C46009021F0004123F0FA
:102260000045B8EB0200A94105D240462146904600
:102270001C460B46024623F00040104347D0270D72
:10228000C7F30A00C3F30A510290401A0190402894
:102290006BDAC3F3130040F4801B0098924620B120
:1022A0000023D2EB030A63EB0B0B01985946C0F1F4
:1022B0004002504600F09FF906460D4650465946EA
:1022C000019A00F0B7F910EB08006141002487EA99
:1022D000115284EAE7731A4340D0009A62B3019A1C
:1022E000012A4FEA075215DC001B61EB02014FF097
:1022F000004202EA0752CDE90042001C41F580117C
:1023000032462B4600F0B7F903B0BDE8F08F4046E7
:102310002146F9E7001B61EB0201001C41F5801327
:1023200000185B412018A2F5001747EB030140EAB3
:10233000D570B6196D4111E06D084FEA360645EAD1
:10234000C0754FEA0752001B61EB0201001C41F50A
:10235000801149084FEA30000019514132462B469E
:1023600003B0BDE8F04F00F077B9009801224000BB
:102370000023D0EB020263EBE073009821464FEAA2
:10238000E074B8EB000061EB0401E9E783F000437F
:102390005BE781F0004158E72DE9FE4F81EA030435
:1023A00004F0004421F0004100944FF0000B23F0B2
:1023B000004350EA01045ED052EA03045BD0C3F349
:1023C0000A54C1F30A552C44A4F2F3340194A0FB3F
:1023D0000254C1F3130141F48011C3F3130343F416
:1023E000801301FB024400FB034E840A970A44EA6F
:1023F000815447EA8357A4FB076802958D0A05FBC1
:1024000007854FEA932C04FB0C542705029D4FEAE5
:10241000065847EA1637B5EB08056EEB070C870E32
:10242000920E47EA811742EA8312A7FB0201B6EB3C
:102430000B0164EB00042B0D43EA0C335E1844EBF4
:102440001C50DA465146E7FB0201C5F313044FEA7C
:102450000B3343EA14534FEA0432019C43EA060368
:10246000A4F10C040294009CCDE900B400F003F93F
:1024700003B0BDE8F08F00200146F9E72DE9F04DEB
:1024800081EA030404F0004B21F0004514464FF0AC
:10249000000A23F0004150EA050220D054EA01026C
:1024A0001DD0C5F30A570246C5F31303C1F3130049
:1024B000C1F30A5640F4801543F48013A7EB0608D5
:1024C000101BD64608F2FD3873EB050002D308F165
:1024D000010801E092185B41B8F1000F03DA002017
:1024E0000146BDE8F08D00204FF480110646844679
:1024F0000EE0171B73EB050705D3121B63EB0503F7
:1025000006434CEA010C49084FEA300092185B413F
:1025100050EA0107EDD152EA030012D082EA04002A
:1025200083EA0501084305D0101BAB4106D2012206
:10253000002306E000224FF0004302E06FF00102AA
:1025400053101AEB06004CEB085110EB0A0041EB5C
:102550000B01BDE8F04D00F07FB870B5C1F30A5231
:1025600001F000450024C1F3130140F2FF3341F4B0
:1025700080119A4201DA002070BD40F233439A4242
:10258000A2F2334203DC524200F044F800E09040F3
:102590002C43F1D0404270BDC1F30A5210B5C1F3D3
:1025A000130140F2FF3341F480119A4201DA002016
:1025B00010BD40F233439A42A2F2334203DC52424E
:1025C00000F028F810BD904010BD30B50B46014614
:1025D00000202022012409E021FA02F59D4205D3C2
:1025E00003FA02F5491B04FA02F52844151EA2F16C
:1025F0000102F1DC30BD202A04DB203A00FA02F1AE
:10260000002070479140C2F1200320FA03F31943E0
:1026100090407047202A04DB203A21FA02F0002182
:10262000704721FA02F3D040C2F1200291400843E2
:1026300019467047202A06DBCB17203A41FA02F0F0
:1026400043EAE07306E041FA02F3D040C2F120020F
:10265000914008431946704710B5141E73F10004E9
:1026600008DA401C41F1000192185B411A4301D184
:1026700020F0010010BD2DE9F04D92469B4611B1AE
:10268000B1FA81F202E0B0FA80F220329046FFF710
:10269000B2FF04460F4640EA0A0041EA0B015346E6
:1026A0005A46084313D0114653EA010019D0C8F125
:1026B00040025046FFF7AEFF05460E4650465946CB
:1026C0004246FFF798FF084305D0012004E020466A
:1026D0003946BDE8F08D0020054346EAE0762C43FC
:1026E00037430A986305E40AA0EB08000022FD0ABC
:1026F00044EA47540A3002D500200146E9E70105C3
:1027000010196941DDE9084500196941BDE8F04D3E
:10271000A2E700002DE9F041054621F000400C46FB
:10272000284309D0C4F30A5040F23341884205DD02
:1027300028462146BDE8F0812846FBE740F2FE31FD
:10274000884210DC0CDB4FEA043040EA155050EAB6
:10275000053105D0104804F0004101430020E9E7AD
:1027600000200146E6E7A0F233404642C6F14002AF
:1027700028462146FFF73FFF074688462846214660
:102780003246FFF747FF43463A46FFF765FF3246BA
:10279000BDE8F041FFF72FBF0000F03FC1F30A5240
:1027A000C1F3130140F2FF3341F480119A4202DA7F
:1027B00000200146704740F233439A42A2F233426E
:1027C00002DC5242FFF726BFFFF715BF30B5041EEB
:1027D00071F1000404DB4FF00044404264EB01015E
:1027E000141E73F1000405DB1C464FF000435242F7
:1027F00063EB04038B4208BF824230BD30B5041E38
:1028000071F1000404DB4FF00044404264EB01012D
:10281000141E73F1000405DB1C464FF000435242C6
:1028200063EB0403994208BF904230BD064C074D4C
:1028300006E0E06840F0010394E807009847103490
:10284000AC42F6D3FFF700FCC02C0101102D0101B2
:1028500070B58C1810F8015B15F0070301D110F862
:10286000013B2A1106D110F8012B03E010F8016B8F
:1028700001F8016B5B1EF9D12B0705D40023521E12
:102880000DD401F8013BFAE710F8013BCB1A921C7A
:1028900003E013F8015B01F8015B521EF9D5A14278
:1028A000D8D3002070BD000010B51E480068002875
:1028B00000D080471C4900200870811E1B48016021
:1028C0001B494FF0007008601A4CD4F8C002800712
:1028D00004D4F42218A11DA005F432F42A4801689A
:1028E000D4F8C40261F31D3040F00100C4F8C40202
:1028F00004F430F300214FF03040C1608161C11712
:102900004161016204F4E2F208484038016821F4B0
:10291000800101601D480068002802D0BDE8104019
:10292000004710BD602480009449800044C500A089
:1029300080E200E000E000A0727769705F736C6570
:1029400065705F636F6D6D6F6E2E63004D43555FF5
:102950005355422D3E424C455F44534C4545505FD4
:10296000434F52525F454E2026204D43555F5355ED
:10297000425F424C455F44534C4545505F434F5284
:10298000525F48575F454E00542480006424800005
:1029900000214FF03040C1608161C1174161016287
:1029A0000649022004220A60BFF34F8FBFF36F8FE6
:1029B0000860BFF34F8FBFF36F8F704780E100E077
:1029C00004490220C1F800010860BFF34F8FBFF334
:1029D0006F8F704780E100E00249096801F007014C
:1029E0000170704704C500A030B4062821D21249F6
:1029F0000A6802F00702824212D00A680F4B1A409E
:102A00000F4C22430A6000BF00BF00BF00BF0A682E
:102A10001A400C4B024333F8203042EA83420A60EA
:102A20000849183951F820000749086030BC76F48D
:102A3000E19230BC7047000004C500A0F8FFE3FF3E
:102A4000050008005C18010100418000044800688E
:102A5000044900F0070051F820000349086070475E
:102A600004C500A04418010100418000024801682B
:102A700041F470010160704788ED00E00248006891
:102A8000001D1EF4E9950000CC4380000248406818
:102A9000001D1EF4E1950000CC4380000FB4054BEF
:102AA00010B503A9044A029800F0AEF910BC5DF815
:102AB00014FB000095860001EC4380000FB41CB5A8
:102AC0000246002007AC00290BD0491ECDE90021A9
:102AD000054B6A462146069800F096F9009A0021B7
:102AE00011701CBC5DF814FB373500010FB4084BA6
:102AF00010B504A902AA039800F086F9044602A9B9
:102B0000002000F023FD204610BC5DF814FB0000FF
:102B10004D3500017CB5044600201D4616460029AF
:102B20000BD0491ECDE90041044B6A462946304688
:102B300000F06AF9009A002111707CBD3735000160
:102B4000002804DB00F1E02090F80004704700F05A
:102B50000F0000F1E02090F8140D7047002804DB0E
:102B600000F1E02090F80004704700F00F0000F141
:102B7000E02090F8140D704702480068C0F302206E
:102B8000704700000CED00E010B52DED020B2DEDAF
:102B9000088B84B09DED0C0B51EC100BFFF7BAFDC8
:102BA00041EC180B9DED0C0B53EC182B51EC100B5A
:102BB000FFF7ECFB41EC190B0D989FED290B10F082
:102BC000004F53EC102B51EC190B9FED21AB9FEDF7
:102BD00022BB0ED0FFF7FAFD0ED953EC1B2B51ECA4
:102BE000190BFFF70BFE1CD214E000BF41EC180BD1
:102BF00017E0FFF7EBFD06D253EC1A2B51EC180B44
:102C0000FFF7C4FBF2E753EC1B2B51EC190BFFF75A
:102C1000F5FD06D853EC1A2B51EC180BFFF715FBFA
:102C2000E4E78DED028B9DED0C0B18EE901A10EE83
:102C3000900A8DED000B61F31E0003909DED020BD9
:102C400004B0BDEC088B02B010BD00000000000015
:102C5000000000000000F03F000000000000E03F26
:102C6000000000000000E0BF02E008C8121F08C119
:102C7000002AFAD17047002001E001C1121F002A8A
:102C8000FBD170472DE9FF5F82B00021DDE9043000
:102C9000020DDDF840B0034318D044F61050A2F204
:102CA000FF3242431514119801281FD0A5EB0B00E9
:102CB000401C5FEA000A4FF000064E4FDFF83891E3
:102CC000B046504615D5CAF1000413E0119801240E
:102CD0004AA3012801D16FEA0B010298119AC0E9B9
:102CE0000031C0E9024206B0BDE8F09FCBF1000020
:102CF000DFE704460021404A491842EB0450CDE981
:102D0000001012E0E00707D032463B4640464946F5
:102D1000FFF742FB8046894632463B46104619463D
:102D2000FFF73AFB06460F466410002CEAD1DDE9B6
:102D30000401DDE90023BAF1000F06DAFFF72CFBEE
:102D400042464B46FFF728FB05E0FFF797FB42465C
:102D50004B46FFF793FB04460E460022284BFFF735
:102D60004DFD03D84FF0FF30014607E00022254B10
:102D700020463146FFF769FAFFF710FD102409E0FD
:102D8000002C0ADB0A220023FFF778F9039B30327C
:102D90001A55641E50EA0102F2D1641C039AC4F170
:102DA00011031444119A012A03D0012208430DD1C2
:102DB0000AE0084304D000204FF0110B119072E795
:102DC000A3EB0B056D1E0DE05B4504DD4FF000022B
:102DD00005F1010504E003DA4FF00002A5F1010559
:102DE000002AECD002981199C0E90231C0E90045EF
:102DF00079E70000000014400000F03F30000000C0
:102E00000000F0430000E03F2DE9FF4F95B09B46E6
:102E10008946064600250FE2252877D1002427465B
:102E2000F84A0121059400E0044316F8013F203BD5
:102E300001FA03F01042F7D130782A2811D06FF050
:102E40002F033078A0F13002092A16D8059A44F0F1
:102E5000020402EB820203EB42021044761C05904E
:102E6000EFE759F8042B0592002A03DA504244F4A4
:102E70000054059044F00204761C30782E2816D1B8
:102E800016F8010F44F004042A280DD06FF02F0229
:102E90003078A0F13003092B09D807EB870302EB48
:102EA0004303C718761CF3E759F8047B761C307887
:102EB0006C280FD006DC4C2817D068280DD06A2863
:102EC00014D104E0742810D07A280FD10DE044F416
:102ED00000140AE044F4801401E044F440147278D1
:102EE000824202D104F58014761C761C3078662864
:102EF0000BD013DC582877D009DC002875D0452882
:102F0000F6D04628F4D047281AD19DE118E063286E
:102F100035D0642879D0652812D195E1702873D016
:102F200008DC6728F1D069286FD06E280DD06F2893
:102F300006D1B5E073282CD0752875D0782874D0C8
:102F40005A46179990476D1C75E1C4F30250022848
:102F500009D003280DD0D9F8001004280DD00D6039
:102F600009F1040967E1D9F80010EA17C1E9005234
:102F7000F6E7D9F800100D80F2E70D70F0E719F8C8
:102F8000041B8DF8001000208DF80100EA46012096
:102F900003E059F804AB4FF0FF3061074FF0000138
:102FA00002D40DE008F101018846B9420FDA8045EC
:102FB000F8DB1AF808100029F4D108E008F1010143
:102FC00088468142FADB1AF808100029F6D10598E4
:102FD0005B46A0EB080721463846179A00F094FAA2
:102FE000284400EB080507E04DE029E10DE01AF860
:102FF000010B5A4617999047B8F10108F7D25B4682
:1030000021463846179A13E142E00A220092C4F39F
:1030100002524FF0000A022A08D059F804CB032AC2
:103020004FEAEC710AD00DE029E02AE009F107012E
:1030300021F00702F2E802C1914609E00FFA8CFC88
:103040004FEAEC71042A03D14FFA8CFC4FEAEC7181
:10305000002907DA0A460021DCF1000C61EB0201CD
:103060002D2202E0220504D52B228DF80420012216
:1030700003E0E20701D02022F7E7904659E00A2159
:1030800002E010220DE010214FF0000A00910BE049
:1030900010224FF0000A44F004040827009203E0D5
:1030A00008224FF0000A0092C4F30252022A05D00F
:1030B00059F804CB0021032A08D009E009F10701DF
:1030C00021F00702F2E802C1914605E01FFA8CFCEC
:1030D000042A01D10CF0FF0C4FF00008220728D57C
:1030E000702806D0009B83F0100353EA0A0305D032
:1030F0000EE040228DF80420012208E05CEA010283
:1031000006D030228DF804208DF80500022290466A
:10311000009B83F0080353EA0A030AD15CEA010228
:1031200001D1620705D530228DF804204FF0010847
:103130007F1E582804D034A003900EA802900DE002
:1031400036A0F9E753466046009AFEF797FF84469B
:103150000398825C0298401E029002705CEA0100B3
:10316000F0D1029806A9081A00F1200A600702D5DA
:1031700024F4803400E00127574502DDA7EB0A0064
:1031800000E0002000EB0A01009005984144401A3D
:103190000590E00306D45B462146179A059800F097
:1031A000B3F90544002706E001A85A46C05D179907
:1031B00090476D1C7F1C4745F6DBE0030CD55B4652
:1031C0002146179A059800F09FF9054404E0302045
:1031D0005A46179990476D1C0099481E0090002987
:1031E000F5DC08E0029802995A460078491C0291E1
:1031F000179990476D1CBAF10001AAF1010AF1DCA0
:1032000065E10000092801003031323334353637AA
:103210003839616263646566000000003031323322
:1032200034353637383941424344454600000000C2
:1032300000F058F90544761C307800287FF4ECAD96
:1032400019B02846BDE8F08F620700D4062709F1BF
:10325000070222F0070CFCE80223E14603F00048D5
:103260005FEA080C02D00FF2702C0DE05FEA045CFC
:1032700002D50FF2682C07E05FEAC47C02D00FF29F
:10328000602C01E0AFF2700C4FF0FF3823F00043E8
:10329000CDF850C065280CD006DC452809D046285A
:1032A0001DD047283DD13DE0662818D067287ED143
:1032B00038E00021112F01DB112000E0781CCDE95E
:1032C000000106A90EA8FFF7DDFCDDE90F010E9A4B
:1032D00003910021009207F1010A04914DE04FF0A3
:1032E00000400097CDE9011006A90EA8FFF7CAFC1F
:1032F000DDE90F0203920E9B11990022DDF80CA06C
:103300000093049211B9791C00EB010AB7EB0A0093
:1033100004D4C0F1FF3007F1010A0490AAEB0700C2
:10332000019044E0012F00DA01270021112F01DD77
:10333000112000E03846CDE9000106A90EA8FFF7EC
:10334000A1FCDDE90F010E9A039100210491009286
:10335000BA4621070CD40399514500DA8A46BAF1DE
:10336000010F05DD009AAAF10101515C302908D056
:10337000B84202DA10F1040F06DA0121CDE901109A
:1033800015E0AAF10101E9E7002805DC04990144F0
:103390000491AAEB000102E0411C514500DD8A4680
:1033A0000499401A401C01904FF000400290200701
:1033B00004D40198504501DBCDF8048000208DF83D
:1033C0004F0002980DF14F07B0F1004F25D02B2090
:1033D0000E9002984FF0020800280CDA404202904A
:1033E0002D200E9007E00A210298FFF7EEF8303109
:1033F000029007F8011DB8F10001A8F10108F2DC04
:1034000002980028EFD1791E0E980870307800F0ED
:10341000200040F0450007F8020D12A8C01B00F183
:1034200007081498007800B1012000EB0A01019808
:1034300001EBE07105984144401A401E0590E003FD
:1034400006D45B462146179A059800F05DF80544BE
:103450001498007818B15A46179990476D1CE003EC
:1034600024D55B462146179A059800F04DF805448F
:103470001CE00498002807DBDDE90301884203DD36
:103480000098405C179901E0179930205A46904700
:10349000049805F10105401C04900198401E01901C
:1034A00004D12E205A46179990476D1CBAF100019D
:1034B000AAF1010ADDDC05E017F8010B5A4617995D
:1034C00090476D1CB8F10001A8F10108F4DC5B46DF
:1034D0002146179A0598ABE62D0000002B0000004E
:1034E000200000002DE9F041044600251E46174645
:1034F000880404D405E039462020B0476D1C641EC2
:10350000F9D52846BDE8F0812DE9F04104460025B3
:103510001E469046C80301D5302700E020278804C6
:1035200004D505E041463846B0476D1C641EF9D508
:103530002846BDE8F0814A68002A06D00A68531C74
:103540000B6010704868401E486070470A68531C42
:103550000B601070704700002DE9F05F0746894648
:1035600093464FEA5B04A2464D465F4EDFF87C81EE
:10357000EFF31080012181F31088D8F8A41221F014
:103580002001C8F8A41280F31088EFF31080012105
:1035900081F31088D8F8A01221F02001C8F8A012F9
:1035A00080F31088306820F08040306050483060F0
:1035B0003F20D8F8001160F30501C8F80011306809
:1035C00020F4601040EAC7403060306820F4E0200A
:1035D00040EA07403060052F03D1306840F40040D6
:1035E0003060062F03D1306840F48040306030688E
:1035F00040F400503060306820F060503060306837
:1036000020F00F0040F003003060EFF31080012144
:1036100081F31088344A3832116821F0E04141F0DA
:103620008041116080F31088306840F08040306045
:1036300001E0D8F80000D8F80401C0F30020002809
:10364000F7D1EFF31080012181F31088116841F068
:103650000041116080F3108834E000204FF47A714B
:103660001AE0884217D9306820F080403060306816
:1036700040F000403060306820F00040306008F0DA
:103680006BFE1C480168491C016054464D460520EC
:1036900078F4B5D26CE7401CD8F80421C2F30022BC
:1036A000002ADED0D8F8040100F07F01A14200D941
:1036B0002146002003E0D8F8002004C5401C8842C1
:1036C000F9D3641A002CC8D15FEACB7008D0D8F8BF
:1036D0000401C0F300200028F9D0D8F800002880A9
:1036E000BDE8F05F08F038BE08C500A000E000A00B
:1036F0000A070807804A80002DE9F04107460E4678
:103700004FF000080024274D0BE004EBC40005EB4C
:103710008000801C07223946FEF71FFD40B1641C63
:10372000E4B22878A042F0D8B8F1000F18D102E036
:103730004FF00108F8E728780A21B0FBF1F201FB0D
:1037400012040A2801D2401C287004EBC40105EBC6
:1037500081003968C0F80210B988C180B979017256
:103760002B7811A21021002004F4ECF4307800072B
:103770000BD504EBC40005EB800006F14601BDE863
:10378000F0410A301C22FEF7BDBC04EBC40005EB7F
:10379000800006F12A01BDE8F0410A301C22FEF744
:1037A000B1BC000018DA8000523A313A61646420FA
:1037B0006C746B206974656D2C206E756D203D20D6
:1037C00025640A000449896B084004490A781043BB
:1037D00000220A7070470000002001A028468000E7
:1037E000104A114900280EDC0868C0F34120012866
:1037F00008D0506C401C5064086820F4C06040F44D
:103800000070086070470A28FCDB086810F4C06F7D
:10381000F8D0106C401C1064086820F4C060086088
:1038200070470000B44780000CC500A006460F4654
:10383000154672B63846FEF789FC402801D940206B
:1038400002E03846FEF782FC80463046FEF77EFCFA
:10385000402801D9402002E03046FEF777FC0446BC
:103860009C211048FEF767FC424639460D48FEF79A
:1038700049FC0C48224631465C30FEF743FC0948BF
:103880004FF0AA31016445644FF0BB3181644FF0C1
:10389000CC3101654FF0DD318165002000F004F886
:1038A000FEE700004C8D800030B5ADF20C4D0446B3
:1038B0004FF4806103A8FEF73EFC184D202085F8E8
:1038C0003F0085F89B003CB12846012C436DC26C3B
:1038D00009D0022C0CD00FE0104A11A15C3203A8D1
:1038E000FFF704F908E011A103A8FFF7FFF803E0D0
:1038F00016A103A8FFF7FAF803A90BA2686CCDE99B
:103900000121009018A3054A18A1002000F0CCFE68
:1039100000F096FE0DF20C4D30BD00004C8D800085
:103920005B4552524F525D20257300005B57415258
:103930004E494E475D20506172616D303A25642CCE
:10394000506172616D313A25640000005B50415254
:10395000414D5D20506172616D303A25642C50619B
:1039600072616D313A256400000000006170705F83
:103970006173736572742E6300000000014877F470
:103980007B9700006045800006460F4690461D4626
:1039900072B64046FEF7DAFB402801D9402002E02B
:1039A0004046FEF7D3FB04469C210D48FEF7C3FBBF
:1039B000224641460A48FEF7A5FB09484FF055311B
:1039C000016445644FF066318164C6644FF077311D
:1039D00001654765C94381650220FFF765FFFEE782
:1039E0004C8D80002DE9F04106460F4690461D465D
:1039F0004046FEF7ABFB402801D9402002E040469C
:103A0000FEF7A4FB04469C210D48FEF794FB2246DA
:103A100041460B48FEF776FB09484FF0113101642F
:103A2000456449008164C6644FF0333101654765E0
:103A30004FF044318165BDE8F0410120FFF734BF0C
:103A40004C8D8000F0B58DB007460C462C4E707939
:103A5000002813D100224FF4FA612A4801F0B8F887
:103A600005464DB11422284905A8FEF74BFBADF8D9
:103A7000185005A800F0DEF801207071B078401CE5
:103A8000C0B2B070237BA17AE27A657BCDE90553A1
:103A9000CDE90721A17BE27B401E1CA3CDE90130CB
:103AA000CDE9032140F26120174B0090183B26A27C
:103AB0002BA1022000F0F8FD2820ADF82800ADF879
:103AC0002A000020ADF82C004FF44860ADF82E001D
:103AD0000220ADF830000AA9384662F4F3D7044654
:103AE000002C0AD014220849143105A8FEF70AFB5D
:103AF000ADF8184005A800F09DF80DB0F0BD00002D
:103B0000B4458000D8D78000F81B0101436F6E6E6A
:103B100065637465642077697468204E6F2E256430
:103B2000207065657220253032583A253032583A77
:103B3000253032583A253032583A253032583A2515
:103B40003032582E000000002E2E5C5372635C75DC
:103B50007365725C757365725F6170702E630000CF
:103B60004E4F5F5441470000FEB5044619A040F295
:103B7000AD22CDE9002002911C4B1DA222A1022002
:103B800000F092FD224DA878401EC1B2A9702148D4
:103B9000002606550A300655A1B91FA040F2B521EE
:103BA000CDE90010114B12A217A1032000F07CFDFB
:103BB0001848183001F09EF86E711648403001F038
:103BC00099F8EE7103B00221BDE8F04015200CF029
:103BD000ADBE0000446973636F6E6E6563746564A7
:103BE0002028307825303258292E0000201C010171
:103BF0002E2E5C5372635C757365725C75736572AF
:103C00005F6170702E6300004E4F5F5441470000AB
:103C1000B4458000C0D78000426C6F6F6420507242
:103C20006573737572652054696D65722053746F86
:103C3000700000003EB504464FF400711A48FEF7CC
:103C40007AFA207810B1012819D01DE00021174818
:103C5000A28830F831309A4207D100EBC10014A19C
:103C600043681148FEF742FF0EE02E2902D0491C9E
:103C7000C9B2EEE714A10C48FEF738FF04E01DA11D
:103C800009486268FEF732FF074921A22069CDE9A1
:103C900001210090D4E902231EA1002000F004FDC0
:103CA000BDE83E4000F0CCBC4C8B8000F04380006F
:103CB0004572726F7220636F6465203078253034EE
:103CC000583A2025730000004572726F7220636FAE
:103CD0006465203078253034583A204E6F20666F66
:103CE000756E6420696E666F726D6174696F6E2E99
:103CF0000000000028257329206973206E6F74204E
:103D000065737461626C69736865642E00000000FD
:103D1000257300006170705F6572726F722E6300B0
:103D200030B585B005460C4619A022886188CDE9DA
:103D30000252019040F2C32004910090204B21A236
:103D400026A1022000F0B0FC208828280CD30124F2
:103D500024A040F2C921CDE90010194B19A21FA1DE
:103D6000022000F0A1FC0BE0002428A040F2CE21AC
:103D7000CDE90010124B13A218A1022000F094FC10
:103D800005B021462846BDE8304062F40D9700009A
:103D9000706565725F2564207265717565737473F3
:103DA00020636F6E6E656374696F6E20696E7465F3
:103DB0007276616C205B25642C2025645D00000018
:103DC000391C01012E2E5C5372635C757365725C45
:103DD000757365725F6170702E6300004E4F5F54A3
:103DE000414700004163636570742074686520700A
:103DF000656572277320636F6E6E656374696F6E9D
:103E000020706172616D65746572730052656A65D8
:103E10006374207468652070656572277320636F12
:103E20006E6E656374696F6E20706172616D65742A
:103E3000657273002DE9F041014600291BD0002472
:103E40000F4E0E4A357814E002EB04100F78037819
:103E5000BB420CD14B684068034208D0707808B967
:103E600000F0C0FB2046BDE8F04100F0EBBA641C56
:103E7000E4B2AC42E8D3BDE8F0810000F48D8000EC
:103E80006C4580007CB505460E46002D01D000240F
:103E900018E005207CBD05EB041041680091017A13
:103EA0008DF80410417A8DF8051007218DF8061061
:103EB000C26800780023694600F048F80028E9D17C
:103EC000641CE4B2B442E6D300207CBD10B50C46BD
:103ED000062833D2DFE800F0030303101E27184939
:103EE00051F830002104090C04D018B1214606F025
:103EF0006BFF1FE0042010BD2004000C03D0A1B212
:103F0000104806F061FF200C14D0210C0E4806F07A
:103F10005BFF0FE014F0FF0F03D0204606F05AFDC0
:103F200008E0042010BD14F0FF0F05D0214600204A
:103F300006F0BCFF002010BD042010BD062010BDFF
:103F400088180101000001A0001001A02DE9F05F18
:103F500005460C469046994627680026052D13D045
:103F600039462846FFF7B2FF2146284600F0ACF854
:103F700000280AD1042D0AD0032D2ED04FF0100BAB
:103F80002807060E002491E00620BDE8F09F4FF0C0
:103F9000080B2079042806D0052809D006280DD062
:103FA000072815D110E00021384600F4CEF60FE0C6
:103FB00040F20111384600F4C8F609E04FF0011153
:103FC000384600F4C2F603E03B49384600F4BDF63B
:103FD0004FF0007075F48CD0D4E74FF0200BD1E790
:103FE000F80760D0052D65D2DFE805F0030303254F
:103FF0004600324800EBC50090F904A0BAF1000F6A
:1040000017D0EFF31081012080F31088A01900EB86
:1040100040022B4800EB8200C0F80480C0F80890F2
:1040200081F31088504618F4F7D0504618F412D196
:1040300039E00420A9E7EFF31082012080F3108813
:10404000A0191F4B00EB400003EB8001C1F8048076
:10405000C1F80890032103F8201082F3108806208D
:1040600018F4DAD0062018F4F5D0072018F4D4D0CC
:10407000072018F4EFD016E0EFF31081012080F351
:104080001088A01900EB40020E4800EB8200C0F837
:104090000480C0F8089081F31088122018F4BCD076
:1040A000122018F4D7D07F08641CE4B25C4597D383
:1040B00000206AE7062068E7010101008818010175
:1040C000808780000089800070B58EB005460C4660
:1040D000564901F164004DC8CDE90A02CDE90C361C
:1040E000D1E91E23486F06AED1F880100DC60991A4
:1040F00014224E49843101A8FEF704F8ACB14C49B2
:1041000006200CF07BFB4B4907200CF077FB4A495B
:1041100012200CF073FB4549444A2C31062D7CD209
:10412000DFE805F006060621415905200EB070BDF6
:10413000207931F810000B90607932F810000C9063
:10414000A0790D9020680A903848143050F8350056
:1041500021880904090C04D018B10AA906F082FECE
:1041600059E00420E2E7207931F810000B906079E3
:1041700032F810000C90A0790D9020680A90206809
:104180000104090C05D080B20A900AA92B4806F058
:1041900069FE2068010C3ED0000C0A900AA928484C
:1041A00006F060FE37E0207901EB4000408A07907E
:1041B000607902EB4000C0880890A07909902068DF
:1041C0000690207810F0FF0F03D006A806F044FCFC
:1041D00021E00420AAE72079031F032B01D8072040
:1041E000A4E702281AD001200290207901EB4000B8
:1041F000808C0390607902EB400080890490A07964
:10420000059020680190207810F0FF0F09D001A9D7
:10421000002006F093FE002088E704E002200290D0
:10422000E3E7042082E7062080E70000741801011C
:104230007F4C8000794C8000754C8000000001A00C
:10424000001001A010B502460C460020062A26D216
:10425000DFE802F00303030B1A1F114850F8320085
:10426000A1B2BDE8104015F432942104090C03D02A
:10427000A1B20C4815F42BD4210C10D0210CBDE8B0
:104280001040094815F42394A0B2BDE8104013F47F
:10429000F193A1B2BDE81040002006F052BE10BD5F
:1042A00088180101000001A0001001A0002803D01F
:1042B0000249086001207047002070477445800063
:1042C00070B505460024091F062917D2DFE801F062
:1042D00003070C111315284600F0A4F80EE0012482
:1042E000284600F09FF809E00224284600F09AF8DA
:1042F00004E0032402E0042400E00524034A2146EC
:1043000028461268BDE870401047000074458000E0
:104310002DE9F0410446204600F0AEF801462E4853
:1043200000230826025D00F10A0700F11405AAB176
:10433000052A33D0082A2AD1092945D0082926D1AF
:10434000295D491CC9B22955142920D32B5506557E
:104350002046BDE8F0410821FFF7B2BF052913D080
:10436000042916D0072914D0082910D1295D491C29
:10437000C9B2295514290AD32B5506552046BDE844
:10438000F0410821FFF79CBF3B5505210155BDE8D1
:10439000F0812046BDE8F041FFF792BF05290CD01F
:1043A000395D491CC9B239553229F0D3035520462D
:1043B000BDE8F0410521FFF783BF03552046BDE866
:1043C000F0410621FFF77CBF03552046BDE8F041D0
:1043D0000921FFF775BF0000D48E800070B5044638
:1043E0000D4600F00FF808B100F012F90348044A36
:1043F0002946005D5268BDE870401047E88D800096
:104400006C4580000020064911F810200AB10020F8
:104410007047401CC0B20A28F6D301207047000044
:10442000F28E80000349002201F8102001EB4000C9
:1044300042707047F28E8000014A02F810107047F7
:10444000F28E8000024A012102EB40004170704769
:10445000F28E800070B50024064D05EB44004078D4
:1044600010B12046FFF754FF641CE4B20A2CF4D3C9
:1044700070BD0000F28E800070B500211D4B03F16D
:1044800032051A5C002A09D0002403F10A06012A29
:104490000AD0022A12D0032A24D11FE015F81020D6
:1044A00002B301221A541DE015F810201AB1345439
:1044B00002221A5416E01C54042113E015F81020AF
:1044C0004AB1325C521CD2B23254642A0AD3072158
:1044D00003221A5406E005211C5403E015F81010BD
:1044E00011B10821084670BD1C54FFF79BFF09213C
:1044F000F8E70000C08E80002DE9F0410E46174617
:104500000A2E02D80FB1002320E00020BDE8F08180
:1045100003EB430410F82410032901D0042913D11C
:1045200000EB8405114AA97AD154104910F82420CF
:104530000C3101EB0314227069686160297A2172E1
:10454000697A61720A49E1605B1CDBB2B342DFD376
:10455000064831460C30FFF795FC06480670476068
:104560000548FFF7A3FE0120D0E70000E88D80009A
:10457000353E00016C458000DD4300012DE9F0412E
:104580000024124FDFF8488019E0002607EB0415DD
:1045900028786968FFF756FE10B9697A012902D0B8
:1045A000012802D005E0012603E0687A022800D144
:1045B000012631462046FFF73FFF641CE4B298F81D
:1045C00000008442E1D3BDE8F0810000F48D80005A
:1045D0006C45800010B5FFF7D1FFBDE81040FFF734
:1045E00039BF000010B5074A0121074800F070F9F3
:1045F00000220A21044800F0EBFA04490120487027
:1046000010BD0000D5450001988E80006C458000EB
:1046100010B5034800F085F902490020487010BD2C
:10462000988E80006C458000002806D0002904D0B8
:10463000024AD269002A00D010477047288B8000B8
:104640000248006A002800D000477047288B80008D
:1046500070B50D4616460D4C00280AD00178032986
:1046600011D80121A17601461A222046FDF74AFD04
:1046700005E00020A0761A210448FDF75CFDE56105
:104680002662002070BD012070BD0000288B8000D4
:10469000044A1044807D084201D001207047002068
:1046A00070470000288B80002DE9FE4FDDF830B008
:1046B00006469246994600240027019702975A48D9
:1046C0000178B14202D2807E00287DD10DF13808F8
:1046D000CDF80080EFF311850220FEF73FFA014686
:1046E00052480068C0F30220401C01228240881812
:1046F000C0B280F3118801213046FFF7C9FF38B1FD
:104700004B484C4950F82620204600F0A5F80446B6
:104710001C213046FFF7BCFF00285ED046A2454969
:10472000204600F099F8204484B204213046FFF777
:10473000AFFFF8B152463F49204600F08DF82044C3
:1047400084B208213046FFF7A3FF38B13BA23949B4
:10475000204600F081F8204484B20BE0102130465E
:10476000FFF796FF30B136A23249204600F074F8C8
:10477000204484B208213046FFF78AFF90B14A46B0
:104780002C49204600F068F8204484B210213046BD
:10479000FFF77EFF30B12BA22649204600F05CF8DF
:1047A000204484B210213046FFF772FF70B15B469F
:1047B00026A2052101A8FEF781F901AA1D4920467C
:1047C00000F04AF8204400E02BE084B220A219490E
:1047D000204600F041F8204484B21648C4F58071A8
:1047E000204443460D9AFEF795F900974FF48071E7
:1047F000002804DB2044884201DC86B200E00E463B
:10480000B01C884200D9FE2612A20A49304600F0A8
:1048100023F8304481B20748FFF706FFE8B280F37F
:104820001188BDE8FE8F0000288B80000CED00E0B1
:10483000DC438000288A800028000000200000005F
:104840003A000000204C696E653A0000256C640057
:10485000292000000D0A000030B50546002000297F
:104860000CD0002A0AD006E02B18FF2B06D8CC5417
:10487000521C401C80B21478002CF5D130BD0000D1
:1048800010B5064A06214CF2010009F0ADFF02F016
:104890008DFEBDE81040022074F4E4913E1A01013F
:1048A00030B589B005460C46002C0FD0242168464F
:1048B000FDF741FC217829B900218DF80010012174
:1048C0008DF801106946284669F4BED409B030BDA0
:1048D0002DE9F04104460D461746002D04D0012D68
:1048E00002D00120BDE8F081CCB1C7B1EFF3118651
:1048F0000220FEF725F98046FEF73EF9401C012113
:10490000814008EB0100C0B280F311880020607084
:10491000A570E761F0B280F311880020E2E7012082
:10492000E0E710B50446002C0CD0204600F0E2F978
:10493000FF2060700021A160E160216161610020C1
:10494000E06110BD012010BD10B586B0134A0121F1
:104950001348FFF7BDFF04464CB11422114901A8CA
:10496000FDF7D0FBADF8084001A8FFF763F90C484C
:104970000D4A01212838FFF7ABFF0446002C0AD06E
:1049800014220849143101A8FDF7BCFBADF808401A
:1049900001A8FFF74FF906B010BD00005D780001D7
:1049A00000D88000B81B010151620001F0B5DDE9BB
:1049B0000745059981614FF47A76A2FB061C03FB3B
:1049C00006C3002702FB0732C0E9021209196A4137
:1049D000C0E9041200210162F0BD00002DE9F041A0
:1049E0000446002C13D0EFF311850220FEF7A8F83F
:1049F0000746FEF7C1F8401C012606FA00F03844CD
:104A0000C0B280F311881248002121620EE000201C
:104A1000BDE8F081D4E90432D1E9047CDB1B72EB00
:104A20000C0202D2016A216203E00846016A0029F1
:104A3000F0D104626670064820380168491C0160A4
:104A4000016C4160E8B280F311880120E0E70000CA
:104A5000D88980002DE9F04105460024EFF3118646
:104A60000220FEF76DF80746FEF786F8401C01218C
:104A700081407818C0B280F31188134A106CE8B1F5
:104A800015B102F1200010E00446206A106410689D
:104A9000401E10600CE0A94206D11168491E116049
:104AA000296A01622C4603E00846016A0029F2D116
:104AB00024B1002020626070106C5060F0B280F36E
:104AC00011882046BDE8F081B88980002DE9F041C9
:104AD000EFF311870220FEF733F80446FEF74CF897
:104AE000401C012181406018C0B280F31188114D33
:104AF000002608E02078012804D1E16909B1A06905
:104B0000884726702D6A2C6A002CF3D1094D203D70
:104B100007E0E16909B1A06988472670206AA860AA
:104B20002662AC68002CF4D1F8B280F31188012021
:104B3000BDE8F081D88980002DE9F041EFF31187BD
:104B40000220FDF7FDFF0446FEF716F8401C012683
:104B500006FA00F02044C0B280F311881B4DA5F185
:104B6000200829E0D4E90420D8E90413521A60EBA4
:104B70000300D8E906319A1A814120D326702046D5
:104B8000FFF768FFA078012802D0104818380DE020
:104B9000D8E90430D4E902219A184841C4E9042034
:104BA0002046FFF71BFF07E001F120000168002904
:104BB000FAD12162006804622C6A002CD2D1F8B2CA
:104BC00080F311880120BDE8F0810000D8898000C1
:104BD0002DE9FF5F82460E4693464FF00008BAF17A
:104BE000000F20D0414886421DD8E6B1EFF311876F
:104BF0000220FDF7A5FF0446FDF7BEFF401C012182
:104C000081406018C0B280F31188504607F00AF95D
:104C100010B19AF8010040B1F8B280F311880F206A
:104C200004B0BDE8F09F0120FAE709F0E5FC044676
:104C30000D464FF47A7106FB01F022462B46002107
:104C400007F0C0F8DFF8A890B0B1D9F8040048B177
:104C5000D0E90410091B60EB0500C9E9041009F054
:104C600067FD04E00021C9F81010C9F814104FF0D6
:104C70000108D9E9040106E0D9F80400D0E90421CB
:104C8000101B61EB0501CDE9020132460023CDF88E
:104C900000B05046FFF78AFE5046FFF79FFE0BF02C
:104CA0004BFC4FF0E021D1F800014FF0806210F092
:104CB000806F01D0012000E0002018B9C1F88022E7
:104CC000C1F80021B8F1000F0AD0D9F80400D0E9EA
:104CD0000431D9E90402181A61EB020109F0C2FC9F
:104CE000F8B280F3118800209AE70000008AB90723
:104CF000B88980002DE9F04104460025002C39D008
:104D0000EFF311870220FDF71BFF0646FDF734FF86
:104D1000401C012181407018C0B280F31188607876
:104D2000012824D1144E7068A0420BD109F064FC14
:104D3000D4E90432181A62EB0102C6E9040209F050
:104D4000F7FC01252046FFF785FE5DB1706848B18C
:104D5000D0E90421D6E90403101A61EB030109F03C
:104D600081FC04E01DB9706808B909F0E1FCF8B2F3
:104D700080F31188BDE8F081B889800070B50446E1
:104D80001A4D55F8240070300AF0A3FD82B2164681
:104D9000A2B155F8240090F8011101290ED001218B
:104DA00080F80411802A0FD355F82400802200F1E6
:104DB000800170300AF0A2FD80260CE055F8241026
:104DC000002081F8000170BD55F8240000F1800139
:104DD00070300AF093FD55F82400324600F180014E
:104DE000001D1CF427D60028EDD170BDCC438000F7
:104DF000704700002DE9F84304464B4E56F8240056
:104E0000071D022C7ED290F86C1000297AD001295F
:104E100078D180F80111002556F82400D0E903125A
:104E20000A44017D01F00101C91D02EB010841683E
:104E3000CA6FC2F38002002AFAD090F80411E1B1DF
:104E4000DFF8E8906D1C56F82400001D06F0D6FA35
:104E500010280BD056F82400D9F800108068B1FB58
:104E6000F0F000FB08F0B5EBC01FEBD956F82400BA
:104E700070300AF02EFD85B226E0B0F82480C58C93
:104E8000001D1CF44FD256F8240041F2883300EB89
:104E90000801491B8031001D2A461CF490D5E5E726
:104EA00056F824000122703069460AF027FD56F8B2
:104EB00024004068C16FC1F340010029FAD09DF879
:104EC000001001606D1EADB2002DE9D156F824002E
:104ED00070300AF0FEFC0028C8D1386841694906E4
:104EE000FCD5EFF31085012080F3108856F82400DC
:104EF00070300AF0EEFC68B1EFF31081012080F30E
:104F0000108800E00DE03868426842F0820242609A
:104F100081F3108856F82410002081F8010185F3F0
:104F20001088BDE8F8830000CC4380000041800079
:104F30002DE9F04389B0054688462C78002D06D02F
:104F40002AB1022C05D3082009B0BDE8F083052062
:104F5000FAE7384E05F1580046F82400D2E900314E
:104F60000A46703019460AF09FFC291D8946242202
:104F70000C316846FDF7C6F8291D286D0EC90CF0E6
:104F8000E1F90028E0D12C490C200BF037FC2B492B
:104F90000D200BF033FC2A4800EBC40797F9010001
:104FA00017F43AD197F9010017F454D156F82400B8
:104FB000C0F8649056F82400C0F8008056F8240029
:104FC0001822083005F14001FDF79CF856F824102E
:104FD0007868486056F82400001D06F0E3F956F89A
:104FE0002400001D06F014FA351F0127287850B957
:104FF0002F701348032110300AF03AF86880002817
:1050000001DA0420A0E756F8240080F86C7056F806
:105010002410002081F8000156F8241081F80101C5
:1050200056F8241081F8020156F8241081F8030183
:105030008AE70000CC4380007D2A00018D2A000110
:10504000141901012DE9F04104461A4D55F82400C8
:1050500070300AF03EFC82B2164600277AB155F84D
:10506000240090F80111012909D0802A0ED300F103
:105070008001703080220AF041FC80260BE055F858
:10508000240080F800710020BDE8F08100F180016B
:1050900070300AF033FC55F8240080F8047155F89C
:1050A0002400324600F18001001D1CF409D50028BF
:1050B000EAD1E9E7CC43800070B5022801D308208B
:1050C00070BD0C4D55F820407CB194F86C6066B111
:1050D00069B162B1002684F8026155F82000001D14
:1050E0001CF46DD40028EBD170BD052070BD0420E8
:1050F00070BD0000CC4380002DE9F04106460C460F
:10510000174604F10805204670F456D3C3B21B4875
:10511000E1184268914202DD0320BDE8F0811849A0
:10512000184A006809681268891A081A001FE918E5
:1051300081421CD94FF4004513A22946002003F4F4
:1051400001F002F01FFD30B118A22946002002F440
:10515000F9F70820E1E71DA22946002002F4F2F742
:105160003A4621463046BDE8F0410CF0B3BA3A4623
:1051700021463046BDE8F0410CF0ACBAD832800090
:10518000D0238000CC238000523A353A4E56445307
:105190002061726561206973206265696E672063B2
:1051A0006F6D7061637465642E0D0A00523A353A72
:1051B000436F6D70616374696E67204E564453206F
:1051C0006661696C65640D0A00000000523A353A68
:1051D000436F6D70616374696E67204E564453204F
:1051E0007375636365737366756C0D0A0000000068
:1051F0007CB50D46002200920192694602F4A4F7A4
:10520000044634BB4FF42051684602F49FF7B8B906
:1052100042F60101684602F499F788B942F60301A3
:10522000684602F493F758B942F60201684602F460
:105230008DF728B94FF42451684602F487F708B176
:10524000062406E00098C5F30B0180880843009906
:10525000888020467CBD00002DE9F04782460E463E
:10526000174698464FF001090025D8F80040002C59
:1052700018D11E48046815E03188A08881420BD3FC
:10528000E088814204D82146504600F031F808B148
:10529000246807E0012505E02146504600F028F883
:1052A00010B1246825B105E00125A0883080F9E718
:1052B000002CE1D1B5B14FF00009A08831888842B7
:1052C00004D1201D38600120387109E0081A401E01
:1052D00000EB400004EB40000E30386000203871D5
:1052E000C8F800404846BDE8F0870000F80E80008E
:1052F00070B586B0002200EB4003114C03EBC003F5
:1053000004EB43052C7D17E035F8123093B18E88FD
:105310009E420FD8CE889E420CD3CA8889888DE8D9
:105320001F00084B084A4021002002F40BF701201F
:1053300006B070BD521CD2B29442E5D80020F7E707
:105340009CDB8000CE1E0101602601012DE9F04F9B
:105350008BB007460C460025002008900990608815
:105360000790261FE188A288CDE901210090614BBA
:1053700061A24021002002F4E5F6308850B9384699
:105380000FF44CD6401E30806088A188884200D837
:1053900000B90125DFF89091002D60D104F10A00D9
:1053A0000DF1200A0DF1140B04F106080A90A088F3
:1053B000069004A8CDE9020BCDE9008A022306AAD3
:1053C00007A9384600F0ACF90546280008D00A2D98
:1053D00045D0062D43D0BDF81800401C079032E0A0
:1053E000E088B0F5205F03D042F60101884208D181
:1053F000BDF81000217AC3B2059A0A9802F4A8F603
:1054000048B92289BDF81000824218D105990A983E
:10541000FCF7A3FE98B9022108202AF455D50146CD
:10542000BDF81C008880BDF81800C880083E59F8F7
:105430002700603002F48EF6384602F48DF6BDF88F
:105440001800401C0790A088BDF81C10884206D3A5
:10545000BDF81810884202D030880428A7D2062D43
:1054600036D059F82700603002F478F640B30024B3
:105470004FF6FF7101EA8006062000EB07230722A2
:105480000421384600962DF4CFD001464E8059F8BD
:105490002700006E0EE083880A1913711B0A5371EE
:1054A000A41CA4B2C3880A1913711B0A5371A41C4B
:1054B000A4B200680028EED1084602F451F60AE0D2
:1054C00021780A23BDF81C20384602F44BF602E08E
:1054D000BDF81C006080074B14A2402100200095FD
:1054E00002F430F6062D03D000200BB0BDE8F08F9B
:1054F0000120FAE7961E0101523A333A5B25735DAB
:1055000020656E7465722C2073683D307825782C88
:105510002065683D307825782C20747970653D30A1
:105520007825780A00000000C40E8000523A333A11
:105530005B25735D20657869742C207374617475C4
:10554000733D307825780A002DE9F04F85B081460B
:105550000E4648460FF462D5801E1FFA80FAD046E8
:105560000024B0887188CDE90010574B57A2402124
:10557000002002F4E7F57088B188DFF874B1884242
:1055800011D880B17088049000200290039001909F
:1055900001AB02AA04A94846FFF75EFE05462800B3
:1055A00003D00A2542E0012540E0B088BDF8101084
:1055B000884232D3022118202AF486D407460120DB
:1055C00000900023FA1DB91D02A802F4CDF505468E
:1055D000280007D040F24E2346A22946BDF810000D
:1055E00002F4C4F5BDF81000B88004B9BC79B879EC
:1055F000A04203D038462AF4E7D217E05BF829002E
:105600003946603002F4A6F5A8EB0400801E1FFAAC
:1056100080F8BDF81000401C0490B188BDF810005F
:10562000814203D310B1A01C8045B1D25BF82900A0
:10563000006E18B1002018B19DB334E00120FAE7E4
:105640000026AAEB08081FFA88F00090062000EB5D
:1056500009230522042148462CF4E6D70746022CEC
:1056600008D0022078707888404478805BF8290060
:10567000046E10E00120F5E7A188B8198180B61CFE
:10568000B6B2B819A279001DE11DFCF73BFDA07967
:10569000304486B22468002CEED1384602F460F51E
:1056A00007E0FFE70A25728831782B46484602F466
:1056B00059F5054B13A240210020009502F442F554
:1056C00005B00020BDE8F08F7D1E0101523A333A4B
:1056D0005B25735D20656E7465722C2073683D30A8
:1056E0007825782C2065683D307825780A00000000
:1056F000C40E8000617474735F70617463682E639C
:1057000000000000523A333A5B25735D20657869EA
:10571000742C207374617475733D307825780A0099
:105720002DE9F04F87B08346DDF844900C461546CE
:105730009A460026B4F800800027019701AB4A463C
:1057400021465846FFF788FD10B12888208026E0C2
:105750002088298888421BD8002302AA06A9484627
:10576000009702F401F5014629B1208840F269133F
:105770001AA202F4FBF49DF8183002AA51461098C0
:1057800002F4E6F408B1012602E02088401C2080E3
:105790002EB920882988884201D80028CED16EB140
:1057A00022884B460021584602F4E2F4C6B2208813
:1057B000494602F4DFF4288026B10AE00A26A4F85C
:1057C000008006E02188DDE91223584602F4D4F473
:1057D000C6B207B03046BDE8F08F00006174747344
:1057E0005F70617463682E63000000002DE9F04172
:1057F00005460C46FF26217A1E2905D0224802794B
:10580000521E52B200683AE004F10801284602F440
:10581000B5F4064635E010F832308B422DD11B4EE0
:1058200056F82500406F30B300273B4618A24021B0
:10583000002002F487F4062000EB05202AF49AD514
:10584000C00605D5002717A24021002002F47AF4F3
:1058500021460C3956F82500743002F47BF4002000
:10586000A08001266FB115A2402102F46BF42846F6
:1058700002F486F405E00127D7E7521E52B2002A4F
:10588000C9DA3046BDE8F0817C058000C40E800096
:10589000523A333A657865637574653D307825789A
:1058A0000A000000523A333A636F6E6E65637420EB
:1058B0006E6F742063666D0A00000000523A333A3E
:1058C000737461727420657865637574650A00008D
:1058D0000348024901600D2141607047DC1D010150
:1058E0007C0580002DE9F04F8BB082460C460026E7
:1058F000002009900A9060880890251FB0462988EA
:10590000A288CDE9012100906D4B6EA240210020BC
:1059100002F418F4288850B950460FF47FD3801E43
:1059200028806088A188884200D800B90126714883
:1059300050F82A00006E10B1002111B103E00121DE
:10594000FBE790F80680002E5DD104F1080BA088DB
:10595000079006A805A909AACDE90210CDE900B271
:10596000A37907AA08A95046FFF7DAFE06463000D9
:1059700049D1BDF81410884502D0B8F1000F42D1CA
:105980002888001FFB22FB2800D31046814200D24A
:10599000084687B2022107F10C002AF495D281460D
:1059A000BDF81480BDF82000A9F80400BDF81C0063
:1059B000A9F8060089F808703A4609F10900069925
:1059C000FCF7A0FB2888C01B001F288049484946D7
:1059D00050F82A00603002F4BDF3BDF8140087428D
:1059E00002D1504602F4B8F3BDF81C00411C89B244
:1059F0000891A2888A4206D3824204D0298808F1FD
:105A000004008142A3D2062E48D03A4D55F82A0010
:105A1000603002F4A3F3C0B3002755F82A100C6ECF
:105A2000217A091D41431FFA81F8062000EB0A2361
:105A3000112204215046CDF800802CF4F5D50546FE
:105A4000A5F80280217A091D697018E0A188E8197B
:105A50000171090A4171BF1CBAB2E188A81801712D
:105A6000090A4171921C97B2E819227A001D04F1CB
:105A70000901FCF747FB207A384487B22468002CE0
:105A8000E4D1284602F46CF30BE0FFE721783346BB
:105A9000BDF82020504602F465F302E0BDF8200076
:105AA0006080074B14A240210020009602F44AF3C4
:105AB000062E03D000200BB0BDE8F08F0120FAE7DE
:105AC0005D1E0101523A333A5B25735D20656E74A9
:105AD00065722C2073683D307825782C2065683DF0
:105AE000307825782C2072655F6C656E3D307825A6
:105AF000780A0000C40E8000523A333A5B25735D89
:105B000020657869742C207374617475733D3078E6
:105B100025780A002DE9F04F8BB082460C4600260E
:105B2000002009900A9060880890251FB046A1883F
:105B3000694BCDE9000169A24021002002F402F383
:105B4000288850B950460FF469D2801E288060889A
:105B5000A188884200D800B90126694850F82A0077
:105B6000016E11B1002010B103E00120FBE791F8B4
:105B70000680EEBB04F1080BA088079006A805AAD2
:105B800009A9CDE90220CDE900B1A37907AA08A9A6
:105B90005046FFF7C5FD0646300047D1BDF814104A
:105BA000884502D0B8F1000F40D12888801EFD2220
:105BB000FD2800D31046814200D2084687B2022158
:105BC00007F108002AF480D18146BDF81480BDF8A1
:105BD0002000A9F8040089F806703A4609F1070088
:105BE0000699FCF78FFA2888C01B801E288000E0E9
:105BF0001CE04348494650F82A00603002F4AAF2FB
:105C0000BDF81400874202D1504602F4A5F2BDF857
:105C10001C00411C89B20891A2888A4206D38242A4
:105C200004D0298808F102008142A5D2062E40D076
:105C3000334D55F82A00603002F490F280B300270B
:105C400055F82A100C6EA179891C41431FFA81F87E
:105C5000062000EB0A23092204215046CDF80080DB
:105C60002CF4E2D40546A5F80280A179891C69705C
:105C700010E0A188E8190171090A4171BF1CBFB287
:105C8000E819A279001DE11DFCF73CFAA07938441F
:105C900087B22468002CECD1284602F461F20BE0B4
:105CA000FFE721783346BDF82020504602F45AF22F
:105CB00002E0BDF820006080074B12A240210020C6
:105CC000009602F43FF2062E03D000200BB0BDE890
:105CD000F08F0120FAE70000B21E0101523A333A78
:105CE0005B25735D20656E7465722C2073683D3092
:105CF0007825782C2065683D307825780A000000EA
:105D0000C40E8000523A333A5B25735D2065786992
:105D1000742C207374617475733D307825780A0093
:105D20002DE9FF5F81460F460024A246CDF808A06A
:105D3000CDF80CA0584850F82900603002F40EF25B
:105D400080463D1F79882888544BCDE9001054A225
:105D50004021002002F4F6F12888E8BB48460FF401
:105D60005DD1401E2880002611E007EB460002AB03
:105D700082880021484602F4FBF1C4B2CDF808A0A5
:105D8000CDF80CA00CB1B0463BE0761CB6B27888DA
:105D9000B042EAD835E007EB48006B46818801AA9B
:105DA000484602F4E9F1C4B23CBBBDF804002988BE
:105DB000884200D3084686B2022106F108002AF480
:105DC00083D08346ABF8046032460BF1060000999D
:105DD000FCF798F9304800E013E050F829005946E4
:105DE000603002F4B7F1484602F4B6F12888801B0F
:105DF000288008F101081FFA88F8CDF808A0CDF82E
:105E00000CA07888404503D9288808B1002CC2D05E
:105E100044BB48460FF402D12988401A401E86B27E
:105E20000025062000EB09230F2204214846009696
:105E30002CF4FAD38246AAF80260174850F82900D9
:105E4000066E0AE00AEB0500B288001DB11DFCF7E2
:105E500059F9B088284485B23668002EF2D15046F0
:105E600002F47EF14CB1062C07D007EB48003978DC
:105E700082882346484602F475F1084B14A240215B
:105E80000020009402F45EF1062C03D0002004B040
:105E9000BDE8F09F0120FAE7C40E8000441E010116
:105EA000523A333A5B25735D20656E7465722C201F
:105EB0006E625F68616E646C653D307825782C2079
:105EC00072655F6C656E3D307825780A00000000D1
:105ED000523A333A5B25735D20657869742C2073E0
:105EE00074617475733D307825780A0010B500210F
:105EF0000A4C0023002001EB410202EBC10204EB3B
:105F0000420222F81030401CC0B20A28F9D313759F
:105F1000491CC9B20A29EDD310BD00009CDB8000EA
:105F20003EB505461A20124B1B7899421FD8C1EB8B
:105F3000C10101EB41030F4901EB8304627104EBE2
:105F400045014989012912D100208DF80000221D48
:105F50002189022009F000F8ADF802000120ADF817
:105F60000400641D02946946284600F094FE3EBD7C
:105F700078458000088F8000002816D0028800F144
:105F80000801B2F5806F0AD0A2F58062013A09D00B
:105F9000032A0AD1428A018A007900F007B8007901
:105FA00000F058B8007900F0F9B870472DE9F84FC3
:105FB0000746894616464FF0000A0024304609F08D
:105FC00000F800282FD0214DDFF8848011E0C4EBC9
:105FD000C40000EB400005EB8000031D0189052291
:105FE000484608F0D4FF8246BAF1000F05D1641C80
:105FF000E4B298F800008442E9D3BAF1030F14D058
:1060000000208DF800009DF8000000280BD0C4EBA4
:10601000C40000EB400055F82010002903D08DF893
:10602000017068468847BDE8F88FC4EBC40000EBF8
:10603000400005EB800000EB47004681012E03D0B5
:1060400002208DF80000DEE70120FAE7088F8000CB
:10605000784580002DE9F04385B081460E78ADF893
:10606000006000278DF804700024294DDFF8A4801B
:106070000EE0C4EBC40000EB400005EB8002131DF2
:1060800011890522304608F082FF28B9641CE4B269
:1060900098F800108C42ECD3012102280ED003287E
:1060A00017D0042823D0ADF802708DF8041069468B
:1060B000484600F023FE05B0BDE8F083ADF80210BD
:1060C000C4EBC40000EB400005EB8000401D0290D3
:1060D000EDE70220ADF80200C4EBC40000EB400085
:1060E00005EB800000EB49000A300290DFE7072053
:1060F000ADF80200C4EBC40000EB400005EB8001EA
:106100001E3103A808F067FF03A80290CFE7000044
:10611000088F80007845800070B506460D46002047
:10612000002E03D0012D03D9012070BD022070BDC7
:10613000002426E0C4EBC40000EB4001134806EB4A
:10614000C40200EB810006CAC0E9001200210181EF
:1061500000F1080282620E4AC262021D0263052239
:1061600080F8342080F8521080F853100849891CB8
:1061700081632830074900F09DFD0028D7D1641CB9
:10618000E4B2AC42D6D304490D7070BD088F8000D4
:1061900030190101795F0001784580002DE9FC4745
:1061A00006460F46B7F8008000200024ADF80080B6
:1061B00000218DF80210244DDFF890900EE0C4EB22
:1061C000C40000EB400005EB8000031D018905229F
:1061D000404608F0DCFE28B9641CE4B299F80010CF
:1061E0008C42ECD303281AD001208DF802009DF8D0
:1061F000020001280DD09DF8040050B1C4EBC4008A
:1062000000EB400055F8201019B18DF8056001A889
:1062100088476946304600F080FDBDE8FC87B868D5
:1062200006F090F8C4EBC40101EB410105EB8101DC
:1062300001EB46014881012803D002208DF80400BB
:10624000D5E70120FAE70000088F8000784580003C
:10625000F0B585B01249A1F120000AF0B2F8104F54
:106260002C3FB87100240F4E305D90B1BA790021F7
:106270002046FFF755FE05461A2D0AD04DB11422CF
:1062800009496846FBF73EFFADF804506846FDF744
:10629000D1FC641CE4B20A2CE6D305B0F0BD0000CA
:1062A000E0458000CAD78000641A01017CB504462D
:1062B000154D2078154E012813D0022810D114A0B6
:1062C0004FF48D71CDE900101A4B1BA220A10320C1
:1062D000FEF7EAF92879401E287161780020705491
:1062E0007CBD1DA04FF48A71CDE90010114B12A2A4
:1062F00017A10320FEF7D8F92879401C287161788E
:10630000012070547CBD0000B4458000CAD78000D5
:1063100042617474657279204C6576656C204E6FAD
:1063200074696669636174696F6E20446973616240
:106330006C656400781A01012E2E5C5372635C75E3
:106340007365725C757365725F6170702E630000B7
:106350004E4F5F544147000042617474657279206A
:106360004C6576656C204E6F74696669636174690B
:106370006F6E20456E61626C656400001FB50F484A
:1063800090F80201002818D068464DF4D3D7DDE913
:1063900000010B4CCDE90201E1680844094920F0F5
:1063A0007040486008464EF45BD2607818B1BDE892
:1063B0001F4009F0C3BB09F0DDFB1FBDC01A800000
:1063C0003C498000B41A800002460020002152F8A7
:1063D00021300BB1401CC0B2491CC9B20C29F6D304
:1063E000704710B507F026FCBDE8104003F0F4BA82
:1063F00007F0B6B910B58CB008A80AF0A5FCBDF836
:10640000221009989DF82120CDE904109DF8203034
:106410002BA040F23631CDE90232CDE90010324BEB
:1064200032A238A10220FEF73FF90AA85FF4C0D5D6
:10643000044654B114222C490F3103A8FBF762FE25
:10644000ADF8104003A8FDF7F5FB9DF828009DF876
:106450002910CDE906109DF82A209DF82B309DF8D3
:106460002C009DF82D10CDE9043228A240F23B33D8
:10647000CDE90032CDE902101B4B1CA221A1022064
:10648000FEF712F92CA040F24231CDE90010164B74
:1064900016A21CA10220FEF707F900202E4A0121B6
:1064A0001154401CC0B20428FAD309F011FF09F0BE
:1064B00097FF02F079FFFEF747FA0CB010BD00001D
:1064C000476F6F64697820424C452053444B2056F7
:1064D00025642E25642E25642028636F6D6D6974F4
:1064E0002025782900000000691C01012E2E5C5334
:1064F00072635C757365725C757365725F617070F1
:106500002E6300004E4F5F54414700004C6F6361A3
:106510006C20426F61726420253032583A25303247
:10652000583A253032583A253032583A25303258C8
:106530003A253032582E0000426C6F6F6420507242
:10654000657373757265206578616D706C65207315
:106550007461727465642E00BC4580002DE9F041C1
:1065600005468846284669F4EBD5C0B22449097827
:1065700088420DD200EB4000213040F400404246FA
:10658000AC2108F031F90446200032D0012430E07B
:1065900069F41AD6C7B207EB470606F1200040F4AB
:1065A00000402A46072108F01FF910B10120BDE87C
:1065B000F081384675F458D706F1210040F40040C8
:1065C0004246AC2108F010F90446200001D0012019
:1065D000EDE7223646F4004071F418D00949C7EBC4
:1065E000C7000968084429680160A9888180A979E1
:1065F00081711CB941462846FDF77EF82046D6E752
:10660000382380003C2380000020704710B509F03B
:106610000BFB09F037FB09F0A5FA08F029FF0AF097
:106620002DFD00F0FFFC09F041FB00F049FCBDE846
:10663000104000F02BBC08F09FBE10B506F050FAD9
:1066400007F004FC06F05CFA06F060FE06F0BCFA07
:1066500005F002FEFFF73CF903F06EFD09F0BAFB0E
:106660000AF0AAF8BDE81040FFF740BC0148FFF768
:10667000ABBE0000B413800010B5FFF7DCFF054986
:1066800003480860BDE81040034875F45F910000BE
:1066900017B8800474C500A00087930310B50446A2
:1066A000002C0CD0204600F08DFB002807D10449B7
:1066B0004968002903D02046BDE81040084710BDB6
:1066C000104780003EB5044640F20233208804F1B2
:1066D0000802A0F20231984264D011DCB0F5807F4C
:1066E00024D0A0F50070073824D0012843D0FA2820
:1066F0001BD1207903B01146BDE83040FDF7A2B9A7
:10670000032964D004295BD0A1F54071FE3950D033
:1067100001290AD13DA040F21A31CDE90010454BC4
:1067200045A24BA10320FDF7BFFF3EBDBDE83E40A3
:10673000FFF760BE608860B147A14FF43F72CDE9BA
:10674000002102903B4B3CA241A10320FDF7ACFF8E
:106750003EBD4BA04FF44071CDE90010354B36A241
:106760003BA10320FDF7A0FF207903B00021BDE885
:1067700030400AF0DBB8207A47A140F20632CDE97A
:10678000002102902B4B2CA231A10320FDF78CFF9E
:10679000207A0228DCD1207903B00121BDE8304005
:1067A0000AF0C4B8217A207903B0BDE83040FDF783
:1067B000DBB9207903B0611DBDE83040FEF770B849
:1067C000207903B01146BDE83040FDF7A9BA6088D2
:1067D00068B1207938A14FF44A72CDE900210290C6
:1067E000144B15A21AA10220FDF75EFF3EBD2079D1
:1067F0003BA14FF44972CDE9002102900D4B0EA24E
:1068000013A10220FDF750FF3EBD00004C696E6BE6
:1068100020686173206265656E20737563636573BC
:106820007366756C6C7920656E63727970746564DB
:106830002E000000591C01012E2E5C5372635C7502
:106840007365725C757365725F6170702E630000B2
:106850004E4F5F544147000041647665727469731E
:10686000696E67206973204E4F542073746172748F
:1068700065642028307825303258292E0000000029
:106880004164766572746973696E672069732073F9
:106890007461727465640000416476657274697332
:1068A000696E672073746F70706564202830782576
:1068B000303258290000000055706461746520630F
:1068C0006F6E6E5F706172616D206F6620636F6EB8
:1068D0006E5F2564206661696C65642E00000000AF
:1068E00055706461746520636F6E6E5F7061726174
:1068F0006D206F6620636F6E6E5F25642073756315
:106900006365737366756C2E000000002DE9F84313
:1069100007460D46EFF31186564801785648006841
:10692000C0F30220401C012282408818C0B280F3CC
:10693000118869F4DBD48046052F06D34FA21021BD
:10694000002001F4FFF3152481E07DB14E48C7EB30
:10695000C70100EB8104E06840B1617A69B14BA2E4
:106960001021002001F4EEF30F2470E04AA2102160
:10697000002001F4E7F3022469E02169F1B901780C
:1069800041B1012910D047A21021002001F4DAF30F
:1069900023245CE08178490710D445A2102100200F
:1069A00001F4D0F3232452E08178890706D443A26E
:1069B0001021002001F4C6F3232448E041888A070F
:1069C00004D50278012A01D162691AB10278022A3B
:1069D00007D008E03CA21021002001F4B3F32524E5
:1069E00035E0A26962B1090711D5298809B180296A
:1069F0000DD938A21021002001F4A4F3262426E0AA
:106A000037A21021002001F49DF324241FE04078D8
:106A100002280CD1288818B144F25061884206D966
:106A200032A21021002001F48DF326240FE0E0694A
:106A300028B90021042064F457D7E061B8B1E069B7
:106A4000296801603946002069F4ACD500243B4632
:106A500029A210210020009401F474F3404669F447
:106A60000FD4F0B280F311882046BDE8F8831024DB
:106A7000EDE7000002E400E00CED00E0523A313AAC
:106A8000453A310A000000007C278000523A313A32
:106A9000453A330A00000000523A313A453A320A88
:106AA00000000000523A313A453A360A0000000030
:106AB000523A313A453A340A00000000523A313A2B
:106AC000453A350A00000000523A313A453A370A51
:106AD00000000000523A313A453A390A00000000FD
:106AE000523A313A453A380A00000000523A313AF7
:106AF000453A31300A000000523A313A6164765F1B
:106B000073746172745B25645D3A20453A30782570
:106B10003032780A000000002DE9F04104460026DA
:106B2000EFF311851248017812480068C0F3022083
:106B3000401C012282408818C0B280F3118869F499
:106B4000D5D3074694B10C482168C0F87212616829
:106B5000C0F87612012061F4CDD2384669F490D3A2
:106B6000E8B280F311883046BDE8F0810226F1E7F3
:106B700002E400E00CED00E07C2780002DE9F84302
:106B800004460D460027EFF3118624480178244877
:106B90000068C0F30220401C012282408818C0B265
:106BA00080F3118869F4A2D3804623461DA21021E8
:106BB0000020009501F4C6F27DB1601E4AF2B811C2
:106BC000884206D320A21021002001F4BBF2012745
:106BD0001AE0952803D2962401E04FF461741F480F
:106BE000A0F8044135B190F81C1141F0040180F87F
:106BF0001C1105E090F81C1121F0040180F81C1113
:106C0000418841F002014180404669F439D3F0B235
:106C100080F311883846BDE8F883000002E400E004
:106C20000CED00E0523A313A72656E65775F64753B
:106C3000723A25642C20656E61626C655F666C61DA
:106C4000673A25640A000000523A313A696E76616B
:106C50006C696420706172616D0A00007C2780009D
:106C60000A2805D2034A002152F8200080F88F102C
:106C700070470000C40E800070B504460D462046E3
:106C800009F066F8002805D129462046BDE8704085
:106C900062F4909170BD70B504460D46204609F02F
:106CA00057F8002804D12946204663F42FD280B239
:106CB00070BD000070B505460E46002D05D00D488C
:106CC00067F452D484B214B110E0022070BD1420D5
:106CD00075F4C4D0014659B10D61CE60064A5078B2
:106CE0000871401C5070101D05F031FB204670BD2E
:106CF000102070BDBC1D0101A847800070B504467E
:106D00000D46204609F024F8002805D129462046E2
:106D1000BDE8704063F4409370BD70B504460D4605
:106D2000204609F015F8002804D12946204663F4CE
:106D30001FD680B270BD000000B58BB0094901209C
:106D40000870FF22282101A8FBF7EEF94FF48070AC
:106D5000ADF804000020ADF8060001A8FFF79EFC86
:106D60000BB000BD1047800010B506480068002831
:106D700000D08047FEF798DC08B1012010BD00204C
:106D800010BD00009C49800010B540F4404070F4F4
:106D90003DD410BD10B540F4404007F025FD10BDB6
:106DA0000449016004494160044981600449C160AB
:106DB0007047000041C2060015C20600956D000133
:106DC000896D000170B50446002C1FD04FF6FF738B
:106DD0001946228840F20155A2F201504FF4807604
:106DE000AA424CD01BDC40F20245A2F20240AA4269
:106DF00034D00DDCA2F54072013A25D0012A23D00F
:106E0000FF2A29D0B2422ED121892CE0002070BD6A
:106E1000012825D0022825D0FE2824D12AE00428E4
:106E20002DD006DC01282AD0022828D003281AD128
:106E300025E0052823D0062821D0B04213D12046D2
:106E400003F02CF8002070BD204603F081FB2046A3
:106E500003F0FAF9002070BD218904E0218902E0E5
:106E6000618900E0218A99420ED0204603F080FB20
:106E7000012070BD204603F07BFA002070BD204643
:106E800003F0F2F9002070BD002070BD10B5202184
:106E9000094808F0A3F90721084808F099F90121E9
:106EA0000548083808F08EF9FFF7C7FB0520FFF703
:106EB0009FFAFFF796FA10BD104180001042800043
:106EC000044903480860054903480860704700000A
:106ED000818E00010C228000BD90000118228000EC
:106EE00070B50026150A0E4805EB450200EB0214AA
:106EF000098821800120A0702846FFF7B1FE0020FC
:106F000069F4BED10748016829B10B681BB122881A
:106F100000212846984769F4E9D1304670BD000049
:106F2000D42E8000B82280003EB500241D0A0A78C5
:106F3000122A02D0132A04D006E000208DF80000A7
:106F400002E001208DF800008888ADF80400488830
:106F5000ADF80200891D0291002069F491D10B481F
:106F6000016829B18A691AB169462846904708E044
:106F70009DF80000012804D1BDF804102846FFF751
:106F80007BFE69F4B3D120463EBD0000B4228000F0
:106F90000148007870470000B44980007CB50E4677
:106FA000150A0020009001906946284673F4E6D146
:106FB0009DF806206946284602F080FF0446CCB1C1
:106FC00062F4E4D7C0B162F4E1D7C01C81B2328868
:106FD000002320466DF4C2D36946284608F036FFE8
:106FE00040B106A24021002001F4ACF021466846E1
:106FF0005EF42AD500207CBD0020E7E7523A333A00
:107000007361766520636363640A00007CB5DDE923
:107010000654CDE9005466F4E5D5BDE87C4008F09F
:1070200065B8000002490148086070470D70000112
:107030004823800010B588B0044667F461D0002072
:10704000079007A854F408D70798FFF7A9FE20680F
:10705000019060680290A0680390E0680490208A24
:10706000ADF81400608AADF81600A08AADF81800DB
:10707000E08AADF81A0001A854F418D754F4F8D6F1
:107080000348016801614168416108B010BD00001A
:10709000300100B010B58AB00446FF2228216846AE
:1070A000FBF742F840F20271ADF800100021ADF894
:1070B00002108DF804406846FFF7F0FA0AB010BDE0
:1070C0002DE9F04104460025EFF3118627480178A9
:1070D00027480068C0F30220401C01228240881823
:1070E000C0B280F3118869F401D107462CB121792F
:1070F000C81F0A2803D301252BE0022529E02078A8
:10710000022801D0052804D1E278520701D40125D4
:107110001FE003280AD1E278530701D5120701D4F2
:10712000012516E0102901D2012512E0042801D022
:10713000052807D1607940F004006071A07940F023
:107140000400A0710B4821680160A1888180A179A9
:107150008171012060F4F4D3384669F491D0F0B223
:1071600080F311882846BDE8F081000002E400E0C9
:107170000CED00E0F023800030B58568027B002D27
:1071800002D0002001210CE0104630BDCB0801F0F8
:107190000704EB5CE340DB0701D0401CC0B2491C94
:1071A000C9B28A42F2D830BD00230849496808E0D4
:1071B000CA88824204D80A89824201D3CB6802E09D
:1071C00009680029F4D1184670470000A8478000DC
:1071D00001460548406803E002798A4202D000680F
:1071E0000028F9D170470000A847800070B5104E04
:1071F0003078FFF7EDFF0446200006D0206963F4E5
:10720000A9D10546280002D00DE00C2070BD2069F0
:10721000FFF7B2FF0146206902681288E280006829
:107220000088084420813078401C3070E8B270BD7E
:10723000A847800070B519480468194D28780028BF
:1072400001D0002070BD4FF0806071F451D7FFF77E
:1072500033DE600872F45CD6124908608817114961
:1072600001262C39086010497006C1F8FC01C86776
:107270004FF03041086B40F007000863094C303C88
:10728000206840F4E0202060FFF758DE2E70206870
:1072900020F4E0202060012070BD00006C248000FC
:1072A0009449800070C500A084E000E070B500241F
:1072B000EFF31086012080F31088FFF75ADE104D9F
:1072C00028B102242968B9B10220884714E0FFF7E9
:1072D0004BFD20B1296879B1002088470CE0FFF709
:1072E000A9FF28B10224296831B10220884703E0B0
:1072F000296809B10020884786F31088204670BDB0
:107300005C24800010B5084A1378002B01D00F20B0
:1073100010BD31B150600448243000F007F800205F
:1073200010BD022010BD0000104780002DE9FC4771
:1073300005460C46FFF76AF968F4D8D70746364881
:10734000006800B180473549012009F057FA3449F7
:10735000022009F053FA0120FAF7CCFEA08E81B288
:10736000206B02F025FBDFF8BC90DFF8BC80E16900
:1073700099F8000098F800200244B1FBF2F1CEB277
:1073800016FB00F1A06965F411D0286863F4A0D35E
:1073900068685FF4ADD2286966F44CD7A86861F4D8
:1073A00045D5E86861F4EAD520484CF473D120480B
:1073B0004CF476D11F484CF479D11F4854F4A2D52F
:1073C0001E484CF41DD11E484CF420D11D484CF4ED
:1073D00023D11D4864F4BED74FF0806071F488D685
:1073E0002046FFF727FED4E90A01CDE9000199F80C
:1073F0000010A06916FB010098F8001016FB01F1BF
:10740000D4E90823114C2468A047384668F438D7DB
:10741000BDE8FC4765F4829080268000393806007C
:10742000DD37060029D507002AD50700119F070080
:10743000B9C3060065C40600EDAF070025ED0600E0
:1074400045ED060065ED0600799B070048238000A6
:10745000034900EB800001EB80008088704700004A
:107460000C488000034A00EB800002EB8000818022
:10747000704700000C48800070B586B02B4D2A4B39
:107480000129EA7810D0022936D005290AD128A08E
:1074900040F28511CDE900102D4B2EA233A103201F
:1074A000FDF702F906B070BD521CEA7001261E54A9
:1074B000E8790028F6D11C4800224FF47A71403058
:1074C000FDF786FB044654B1142221491C3101A862
:1074D000FAF718FEADF8084001A8FCF7ABFBEE7117
:1074E00024A04FF4BA71CDE90010194B19A21FA1C5
:1074F0000320FDF7D9F8D5E7521ED1B2E970002478
:107500001C540029CED108484030FDF7F3FBEC7144
:107510001FA040F27F11CDE900100D4B0DA213A169
:107520000320FDF7C1F8BDE7C0D78000B445800057
:10753000426C6F6F6420507265737375726520467C
:107540006561747572653A203078303031310000F1
:10755000AC1A01012E2E5C5372635C757365725C0C
:10756000757365725F6170702E6300004E4F5F54DB
:1075700041470000426C6F6F6420507265737375F1
:1075800072652054696D65722053746172740000D5
:10759000426C6F6F6420507265737375726520540E
:1075A000696D65722053746F7000000010B500F0B3
:1075B00069FA00F04BFABDE8104000F005BA002867
:1075C00018D0028800F10801B2F5806F0CD0A2F546
:1075D0008062013A0BD0022A0CD0032A0AD1428AD7
:1075E000018A007900F008B8007900F0CFB800797E
:1075F00000F0A8B9704700002DE9F04105460F469C
:107600001446204607F0DDFC002826D0144E09223F
:10761000331D3189384607F0BAFC0146304600EB8D
:10762000450003290BD0062910D00021002914D0D1
:107630003268002A11D02846BDE8F0411047022CDC
:1076400002D002214481F1E70121FBE7012C02D0A5
:1076500004214481EAE70321FBE7BDE8F081000053
:107660005C8F800030B500230278002A00D001230F
:10767000827905894FF6FF7404EA0232C5F30B05DF
:107680002A434A70120A8A70827A858904EA023291
:10769000C5F30B052A43CA70120A0A71827B058A58
:1076A00004EA0232C5F30B052A434A71150A072280
:1076B0008D7145788DB143F00203827CCA71428A94
:1076C000120A0A72027D4A72427D8A72827DCA72F1
:1076D000C27D0A73057E0E224D7385787DB143F01D
:1076E0000403857E04EA0534858BC5F30B052C4322
:1076F000551CADB28C54240A6A1C92B24C55C47805
:1077000034B143F008031446857F521C92B20D55E4
:1077100004795CB143F0100390F82050541CA4B2DB
:107720008D54008C050A601C82B20D550B701046FA
:1077300030BD000070B588B006460C461B251421EC
:1077400003A8FAF7F8FC03A92046FFF78BFF0446CD
:107750000D4A02EB4600807A800712D501208DF891
:1077600000001189121D022007F0F6FBADF802009F
:10777000ADF8044003A8029069463046FFF78BFA43
:10778000054608B0284670BD5C8F8000FEB50546F2
:107790000C781A4E0922331D3189204607F0F7FB79
:1077A000ADF8004000228DF80420314601EB450180
:1077B00002240A3103280DD006280FD0082811D042
:1077C000ADF8022001208DF8040069462846FFF735
:1077D00095FAFEBDADF802400291F6E7ADF8024021
:1077E0000291F2E7326812B1052128469047ADF8C0
:1077F00002400248801D0290E7E700005C8F800095
:1078000070B5002822D0124C03C8C4E9000104F16D
:1078100020002C210546FAF78EFC0021218104F17D
:10782000080222620B486062121FA262092084F8DB
:107830002C0084F84A1084F84B100648801C206302
:107840002846BDE870400449FFF734BA022070BDF5
:107850005C8F80005A190101BF75000170B58EB0B0
:10786000354A1178002938D0022936D000208DF809
:10787000140001208DF815008DF816008DF8170002
:107880008DF818002D4800EB01104388ADF81C302E
:1078900003788DF81A30C388ADF8203003798DF85D
:1078A0001E304389ADF82430037A8DF82230536AB4
:1078B000CDF82630936ACDF82A30C389ADF8303040
:1078C000007B8DF82E001120ADF83400491CC8B2A1
:1078D00010700023042802D002E00120C7E71370D3
:1078E000154924318879401CC0B288713B2807D9DA
:1078F0008B714879401CC0B248713B2800D94B714C
:1079000000240E4E683E305D78B105A92046FFF791
:1079100011FF05464DB1142209496846FAF7F2FBFA
:10792000ADF804506846FCF785F9641CE4B20A2CF3
:10793000E9D30EB070BD0000B445800028D88000A7
:10794000981A01012DE9F84380460D462E881D4FF7
:1079500009223B1D3989304607F019FBADF800605C
:1079600000218DF80210394601EB4806032814D097
:1079700006281CD001208DF802009DF80200012885
:1079800005D024B13A6812B1214640469047694675
:107990004046FFF7C2F9BDE8F883A86804F0D2FCBE
:1079A000022802D002247081E7E70124FBE7A868DF
:1079B00004F0C8FC012802D004247081DDE7032410
:1079C000FBE700005C8F800000B58FB003228DF8CC
:1079D00000204FF48050019005218DF808100120FF
:1079E0008DF8090000238DF80A308DF80C20430330
:1079F00004938DF814108DF815008DF816008DF88D
:107A00001820C30307938DF820108DF821008DF8FE
:107A100022208DF8242082030A928DF82C108DF8F4
:107A20002D0002228DF82E2004238DF830300D9287
:107A30008DF838108DF839008DF83A30024A6846D2
:107A4000FCF75AFD0FB000BD492200017CB510269D
:107A5000009602248DF804408DF8054007258DF826
:107A6000065069460320FCF72FFB00968DF8044072
:107A70008DF805408DF8065069460520FCF724FB7B
:107A80007CBD000000B587B000F01EF803208DF823
:107A900000001D208DF8160001208DF817008DF8CC
:107AA00018008DF81900044A04496846FCF7D0FD17
:107AB000FBF764FF07B000BDC17A0001197B00012C
:107AC0000020FDF797B900001CB5114800904FF455
:107AD0008064019400F58060002101704FF4E13270
